{
  "contractName": "NutsEscrow",
  "abi": [
    {
      "constant": false,
      "inputs": [],
      "name": "renounceOwnership",
      "outputs": [],
      "payable": false,
      "stateMutability": "nonpayable",
      "type": "function"
    },
    {
      "constant": true,
      "inputs": [],
      "name": "owner",
      "outputs": [
        {
          "name": "",
          "type": "address"
        }
      ],
      "payable": false,
      "stateMutability": "view",
      "type": "function"
    },
    {
      "constant": true,
      "inputs": [],
      "name": "isOwner",
      "outputs": [
        {
          "name": "",
          "type": "bool"
        }
      ],
      "payable": false,
      "stateMutability": "view",
      "type": "function"
    },
    {
      "constant": false,
      "inputs": [
        {
          "name": "newOwner",
          "type": "address"
        }
      ],
      "name": "transferOwnership",
      "outputs": [],
      "payable": false,
      "stateMutability": "nonpayable",
      "type": "function"
    },
    {
      "anonymous": false,
      "inputs": [
        {
          "indexed": true,
          "name": "previousOwner",
          "type": "address"
        },
        {
          "indexed": true,
          "name": "newOwner",
          "type": "address"
        }
      ],
      "name": "OwnershipTransferred",
      "type": "event"
    },
    {
      "anonymous": false,
      "inputs": [
        {
          "indexed": true,
          "name": "depositer",
          "type": "address"
        },
        {
          "indexed": true,
          "name": "token",
          "type": "address"
        },
        {
          "indexed": false,
          "name": "amount",
          "type": "uint256"
        }
      ],
      "name": "TokenDepositedToEscrow",
      "type": "event"
    },
    {
      "anonymous": false,
      "inputs": [
        {
          "indexed": true,
          "name": "withdrawer",
          "type": "address"
        },
        {
          "indexed": true,
          "name": "token",
          "type": "address"
        },
        {
          "indexed": false,
          "name": "amount",
          "type": "uint256"
        }
      ],
      "name": "TokenWithdrawnFromEscrow",
      "type": "event"
    },
    {
      "anonymous": false,
      "inputs": [
        {
          "indexed": true,
          "name": "issuanceId",
          "type": "uint256"
        },
        {
          "indexed": true,
          "name": "user",
          "type": "address"
        },
        {
          "indexed": true,
          "name": "token",
          "type": "address"
        },
        {
          "indexed": false,
          "name": "amount",
          "type": "uint256"
        }
      ],
      "name": "TokenTransferredToIssuance",
      "type": "event"
    },
    {
      "anonymous": false,
      "inputs": [
        {
          "indexed": true,
          "name": "issuanceId",
          "type": "uint256"
        },
        {
          "indexed": true,
          "name": "user",
          "type": "address"
        },
        {
          "indexed": true,
          "name": "token",
          "type": "address"
        },
        {
          "indexed": false,
          "name": "amount",
          "type": "uint256"
        }
      ],
      "name": "TokenTransferredFromIssuance",
      "type": "event"
    },
    {
      "constant": true,
      "inputs": [],
      "name": "balanceOf",
      "outputs": [
        {
          "name": "",
          "type": "uint256"
        }
      ],
      "payable": false,
      "stateMutability": "view",
      "type": "function"
    },
    {
      "constant": false,
      "inputs": [],
      "name": "deposit",
      "outputs": [],
      "payable": true,
      "stateMutability": "payable",
      "type": "function"
    },
    {
      "constant": false,
      "inputs": [
        {
          "name": "amount",
          "type": "uint256"
        }
      ],
      "name": "withdraw",
      "outputs": [],
      "payable": false,
      "stateMutability": "nonpayable",
      "type": "function"
    },
    {
      "constant": true,
      "inputs": [
        {
          "name": "token",
          "type": "address"
        }
      ],
      "name": "tokenBalanceOf",
      "outputs": [
        {
          "name": "",
          "type": "uint256"
        }
      ],
      "payable": false,
      "stateMutability": "view",
      "type": "function"
    },
    {
      "constant": false,
      "inputs": [
        {
          "name": "token",
          "type": "address"
        },
        {
          "name": "amount",
          "type": "uint256"
        }
      ],
      "name": "depositToken",
      "outputs": [],
      "payable": false,
      "stateMutability": "nonpayable",
      "type": "function"
    },
    {
      "constant": false,
      "inputs": [
        {
          "name": "token",
          "type": "address"
        },
        {
          "name": "amount",
          "type": "uint256"
        }
      ],
      "name": "withdrawToken",
      "outputs": [],
      "payable": false,
      "stateMutability": "nonpayable",
      "type": "function"
    },
    {
      "constant": true,
      "inputs": [
        {
          "name": "userAddress",
          "type": "address"
        }
      ],
      "name": "getUserBalances",
      "outputs": [
        {
          "name": "",
          "type": "bytes"
        }
      ],
      "payable": false,
      "stateMutability": "view",
      "type": "function"
    },
    {
      "constant": true,
      "inputs": [
        {
          "name": "issuanceId",
          "type": "uint256"
        }
      ],
      "name": "getIssuanceBalances",
      "outputs": [
        {
          "name": "",
          "type": "bytes"
        }
      ],
      "payable": false,
      "stateMutability": "view",
      "type": "function"
    },
    {
      "constant": true,
      "inputs": [
        {
          "name": "issuanceId",
          "type": "uint256"
        }
      ],
      "name": "issuanceBalanceOf",
      "outputs": [
        {
          "name": "",
          "type": "uint256"
        }
      ],
      "payable": false,
      "stateMutability": "view",
      "type": "function"
    },
    {
      "constant": true,
      "inputs": [
        {
          "name": "issuanceId",
          "type": "uint256"
        },
        {
          "name": "token",
          "type": "address"
        }
      ],
      "name": "issuanceTokenBalanceOf",
      "outputs": [
        {
          "name": "",
          "type": "uint256"
        }
      ],
      "payable": false,
      "stateMutability": "view",
      "type": "function"
    },
    {
      "constant": false,
      "inputs": [
        {
          "name": "transfersData",
          "type": "bytes"
        }
      ],
      "name": "processTransfers",
      "outputs": [],
      "payable": false,
      "stateMutability": "nonpayable",
      "type": "function"
    },
    {
      "constant": false,
      "inputs": [
        {
          "name": "oldIssuanceId",
          "type": "uint256"
        },
        {
          "name": "newIssuanceId",
          "type": "uint256"
        }
      ],
      "name": "migrateIssuanceBalances",
      "outputs": [],
      "payable": false,
      "stateMutability": "nonpayable",
      "type": "function"
    }
  ],
  "bytecode": "0x60806040819052600080546001600160a01b03191633178082556001600160a01b0316917f8be0079c531659141344cd1fd0a4f28419497f9722a3daafe3b4186f6b6457e0908290a3612323806100576000396000f3fe6080604052600436106100f35760003560e01c80638f32d59b1161008a578063d0e30db011610059578063d0e30db01461041a578063e1b0922914610422578063e42c08f21461044c578063f2fde38b1461047f576100f3565b80638f32d59b146102e65780639e281a981461030f578063abd3f61214610348578063cd06a41e146103f0576100f3565b8063722713f7116100c6578063722713f7146102255780637a7489d71461024c57806380289e31146102855780638da5cb5b146102b5576100f3565b80632e1a7d4d146100f8578063338b5dea1461012457806351ec588a1461015d578063715018a614610210575b600080fd5b34801561010457600080fd5b506101226004803603602081101561011b57600080fd5b50356104b2565b005b34801561013057600080fd5b506101226004803603604081101561014757600080fd5b506001600160a01b0381351690602001356105ba565b34801561016957600080fd5b506101226004803603602081101561018057600080fd5b81019060208101813564010000000081111561019b57600080fd5b8201836020820111156101ad57600080fd5b803590602001918460018302840111640100000000831117156101cf57600080fd5b91908080601f016020809104026020016040519081016040528093929190818152602001838380828437600092019190915250929550610637945050505050565b34801561021c57600080fd5b506101226107dc565b34801561023157600080fd5b5061023a61088f565b60408051918252519081900360200190f35b34801561025857600080fd5b5061023a6004803603604081101561026f57600080fd5b50803590602001356001600160a01b03166108b5565b34801561029157600080fd5b50610122600480360360408110156102a857600080fd5b50803590602001356108d7565b3480156102c157600080fd5b506102ca6109d4565b604080516001600160a01b039092168252519081900360200190f35b3480156102f257600080fd5b506102fb6109e3565b604080519115158252519081900360200190f35b34801561031b57600080fd5b506101226004803603604081101561033257600080fd5b506001600160a01b0381351690602001356109f4565b34801561035457600080fd5b5061037b6004803603602081101561036b57600080fd5b50356001600160a01b0316610a8b565b6040805160208082528351818301528351919283929083019185019080838360005b838110156103b557818101518382015260200161039d565b50505050905090810190601f1680156103e25780820380516001836020036101000a031916815260200191505b509250505060405180910390f35b3480156103fc57600080fd5b5061037b6004803603602081101561041357600080fd5b5035610b20565b610122610b9b565b34801561042e57600080fd5b5061023a6004803603602081101561044557600080fd5b5035610c2c565b34801561045857600080fd5b5061023a6004803603602081101561046f57600080fd5b50356001600160a01b0316610c4d565b34801561048b57600080fd5b50610122600480360360208110156104a257600080fd5b50356001600160a01b0316610c66565b336000908152600160205260408120906104d3826104ce610cce565b610cd4565b9050828160010154101561051b57604051600160e51b62461bcd0281526004018080602001828103825260258152602001806122a96025913960400191505060405180910390fd5b6001810154610530908463ffffffff610ddb16565b6001820155604051339084156108fc029085906000818181858888f19350505050158015610562573d6000803e3d6000fd5b5061056b610cce565b6001600160a01b0316336001600160a01b03167f10c289392a74dde1de07627e51d89ac418775be560d6c1af3576d3c600aab2db856040518082815260200191505060405180910390a3505050565b336000908152600160205260408120906105d48285610cd4565b60018101549091506105ec908463ffffffff610e1d16565b60018201556040805184815290516001600160a01b0386169133917f29971dcefb0589a8db8d91dd52e02286ac9e1927b44312ef13850962ec5c19f39181900360200190a350505050565b61063f6109e3565b6106935760408051600160e51b62461bcd02815260206004820181905260248201527f4f776e61626c653a2063616c6c6572206973206e6f7420746865206f776e6572604482015290519081900360640190fd5b61069b6121ee565b6106a482610e7a565b905060005b8151518110156107d7576106bb612201565b82518051839081106106c957fe5b6020026020010151905060006001600083604001516001600160a01b03166001600160a01b0316815260200190815260200160002090506000610710828460600151610cd4565b6020808501516000908152600290915260408120606086015192935091610738908390610cd4565b855190915015610786576080850151600184015461075b9163ffffffff610ddb16565b60018085019190915560808601519082015461077c9163ffffffff610e1d16565b60018201556107c6565b6080850151600184015461079f9163ffffffff610e1d16565b6001808501919091556080860151908201546107c09163ffffffff610ddb16565b60018201555b5050600190930192506106a9915050565b505050565b6107e46109e3565b6108385760408051600160e51b62461bcd02815260206004820181905260248201527f4f776e61626c653a2063616c6c6572206973206e6f7420746865206f776e6572604482015290519081900360640190fd5b600080546040516001600160a01b03909116907f8be0079c531659141344cd1fd0a4f28419497f9722a3daafe3b4186f6b6457e0908390a36000805473ffffffffffffffffffffffffffffffffffffffff19169055565b3360009081526001602052604081206108af816108aa610cce565b610e9f565b91505090565b60008281526002602052604081206108cd8184610e9f565b9150505b92915050565b6108df6109e3565b6109335760408051600160e51b62461bcd02815260206004820181905260248201527f4f776e61626c653a2063616c6c6572206973206e6f7420746865206f776e6572604482015290519081900360640190fd5b60008281526002602052604080822083835290822090915b82548110156109cd5760006109888385600001848154811061096957fe5b60009182526020909120600290910201546001600160a01b0316610cd4565b90506109c184600001838154811061099c57fe5b9060005260206000209060020201600101548260010154610e1d90919063ffffffff16565b6001918201550161094b565b5050505050565b6000546001600160a01b031690565b6000546001600160a01b0316331490565b33600090815260016020526040812090610a0e8285610cd4565b6001810154909150610a26908463ffffffff610ddb16565b6001820155610a456001600160a01b038516338563ffffffff610f2016565b6040805184815290516001600160a01b0386169133917f10c289392a74dde1de07627e51d89ac418775be560d6c1af3576d3c600aab2db9181900360200190a350505050565b6001600160a01b0381166000908152600160209081526040808320815181548085028201840184529381018481526060956108d195929485938592909185015b82821015610b13576000848152602090819020604080518082019091526002850290910180546001600160a01b03168252600190810154828401529083529092019101610acb565b5050505081525050610fa0565b6000818152600260209081526040808320815181548085028201840184529381018481526060956108d195929485938592909185018215610b13576000848152602090819020604080518082019091526002850290910180546001600160a01b03168252600190810154828401529083529092019101610acb565b3360009081526001602052604081203491610bb8826104ce610cce565b6001810154909150610bd0908463ffffffff610e1d16565b6001820155610bdd610cce565b6001600160a01b0316336001600160a01b03167f29971dcefb0589a8db8d91dd52e02286ac9e1927b44312ef13850962ec5c19f3856040518082815260200191505060405180910390a3505050565b6000818152600260205260408120610c46816108aa610cce565b9392505050565b336000908152600160205260408120610c468184610e9f565b610c6e6109e3565b610cc25760408051600160e51b62461bcd02815260206004820181905260248201527f4f776e61626c653a2063616c6c6572206973206e6f7420746865206f776e6572604482015290519081900360640190fd5b610ccb81610ff0565b50565b60001990565b6000805b8354811015610d4757826001600160a01b0316846000018281548110610cfa57fe5b60009182526020909120600290910201546001600160a01b03161415610d3f57836000018181548110610d2957fe5b90600052602060002090600202019150506108d1565b600101610cd8565b50610d5061222f565b50604080518082019091526001600160a01b03838116825260006020808401828152875460018082018a55898552929093208551600290940201805473ffffffffffffffffffffffffffffffffffffffff1916939094169290921783559051910155835484906000198101908110610dc457fe5b906000526020600020906002020191505092915050565b6000610c4683836040518060400160405280601e81526020017f536166654d6174683a207375627472616374696f6e206f766572666c6f7700008152506110a0565b600082820183811015610c465760408051600160e51b62461bcd02815260206004820152601b60248201527f536166654d6174683a206164646974696f6e206f766572666c6f770000000000604482015290519081900360640190fd5b610e826121ee565b610e8a6121ee565b610e97602084855161113a565b509392505050565b6000805b8354811015610f1657826001600160a01b0316846000018281548110610ec557fe5b60009182526020909120600290910201546001600160a01b03161415610f0e57836000018181548110610ef457fe5b9060005260206000209060020201600101549150506108d1565b600101610ea3565b5060009392505050565b604080516001600160a01b038416602482015260448082018490528251808303909101815260649091019091526020810180517bffffffffffffffffffffffffffffffffffffffffffffffffffffffff167fa9059cbb000000000000000000000000000000000000000000000000000000001790526107d7908490611375565b606080610fac8361153c565b6040519080825280601f01601f191660200182016040528015610fd6576020820181803883390190505b5090506000610fe784602084611587565b82525092915050565b6001600160a01b03811661103857604051600160e51b62461bcd0281526004018080602001828103825260268152602001806122836026913960400191505060405180910390fd5b600080546040516001600160a01b03808516939216917f8be0079c531659141344cd1fd0a4f28419497f9722a3daafe3b4186f6b6457e091a36000805473ffffffffffffffffffffffffffffffffffffffff19166001600160a01b0392909216919091179055565b6000818484111561113257604051600160e51b62461bcd0281526004018080602001828103825283818151815260200191508051906020019080838360005b838110156110f75781810151838201526020016110df565b50505050905090810190601f1680156111245780820380516001836020036101000a031916815260200191505b509250505060405180910390fd5b505050900390565b6111426121ee565b600061114c6121ee565b611154612246565b6000808089805b89820181101561123f5761116f818c6115e1565b919650945092508201600185141561119a57611194818c61118e61161c565b8961162a565b0161123a565b60018460058111156111a857fe5b14156111c25760006111ba828d6116b1565b929092019150505b60058460058111156111d057fe5b14156111ea5760006111e2828d6116d2565b929092019150505b60008460058111156111f857fe5b141561121257600061120a828d6116e4565b929092019150505b600284600581111561122057fe5b141561123a576000611232828d611776565b929092019150505b61115b565b5080856001602002015160405190808252806020026020018201604052801561128257816020015b61126f612201565b8152602001906001900390816112675790505b5087525b8982018110156113635761129a818c6115e1565b91965094509250820160018514156112be576112b8818c898961162a565b0161135e565b60018460058111156112cc57fe5b14156112e65760006112de828d6116b1565b929092019150505b60058460058111156112f457fe5b141561130e576000611306828d6116d2565b929092019150505b600084600581111561131c57fe5b141561133657600061132e828d6116e4565b929092019150505b600284600581111561134457fe5b141561135e576000611356828d611776565b929092019150505b611286565b50949a97995096975050505050505050565b611387826001600160a01b031661183d565b6113db5760408051600160e51b62461bcd02815260206004820152601f60248201527f5361666545524332303a2063616c6c20746f206e6f6e2d636f6e747261637400604482015290519081900360640190fd5b60006060836001600160a01b0316836040518082805190602001908083835b602083106114195780518252601f1990920191602091820191016113fa565b6001836020036101000a0380198251168184511680821785525050505050509050019150506000604051808303816000865af19150503d806000811461147b576040519150601f19603f3d011682016040523d82523d6000602084013e611480565b606091505b5091509150816114da5760408051600160e51b62461bcd02815260206004820181905260248201527f5361666545524332303a206c6f772d6c6576656c2063616c6c206661696c6564604482015290519081900360640190fd5b805115611536578080602001905160208110156114f657600080fd5b505161153657604051600160e51b62461bcd02815260040180806020018281038252602a8152602001806122ce602a913960400191505060405180910390fd5b50505050565b600080805b8351518110156115805761157361156e8560000151838151811061156157fe5b6020026020010151611879565b61187f565b6001920182019101611541565b5092915050565b60008280825b8651518110156115d7576115a5600160028488611892565b820191506115cb876000015182815181106115bc57fe5b602002602001015183876118a8565b9091019060010161158d565b5003949350505050565b60008060008060006115f387876116e4565b91509150600082600716600581111561160857fe5b600890930498929750909550909350505050565b6116246121ee565b50600090565b6000611634612201565b60006116408787611940565b9150915061164d85611982565b1561166757600184815b60200201805190910190526116a7565b845160208501518151849291810390811061167e57fe5b602090810291909101810191909152840151156116a757600184815b6020020180519190910390525b9695505050505050565b6000806000806116c386866008611986565b909450925050505b9250929050565b6000806000806116c386866004611986565b80519181019160009081908190819060200160805b608081166080141561176957868803821161174457600160e51b62461bcd026000526020600452600f602452600160881b6e6c656e677468206f766572666c6f770260445260536000fd5b875160001a905080607f16836007021b841793506001830192506001880197506116f9565b5091969095509350505050565b6060600080600061178786866116e4565b915091506060826040519080825280601f01601f1916602001820160405280156117b8576020820181803883390190505b508651978701830197909150602090810190820160005b8581101561182d57888a03831161181657600160e51b62461bcd026000526020600452600f602452600160881b6e6c656e677468206f766572666c6f770260445260536000fd5b895160001a82536001998a019991820191016117cf565b5091955050500190509250929050565b6000813f7fc5d2460186f7233c927e7db2dcc703c0e500b653ca82273b7bfad8045d85a47081158015906118715750808214155b949350505050565b50603c90565b600061188a82611a0c565b909101919050565b60006008850260078516176116a7818585611a29565b6000828060606118b787611879565b6040519080825280601f01601f1916602001820160405280156118e1576020820181803883390190505b50905060006118ef82611a6c565b905060006118fc87611a6c565b9050600061190c8a602086611a6f565b905061191981868a611a29565b8501945061192d8360200186840183611abc565b9390930193909303979650505050505050565b611948612201565b600083818061195783876116e4565b915091508083019250611968612201565b611973848885611afd565b50955050019150509250929050565b1590565b81519282019260009081908190602001815b858110156119fe5786880382116119df57600160e51b62461bcd026000526020600452600f602452600160881b6e6c656e677468206f766572666c6f770260445260536000fd5b875160001a816008021b83179250600188019750600181019050611998565b509096939550929350505050565b60071c600060015b82156108d15760079290921c91600101611a14565b600080828401607f86165b600787901c15611a5c578060801782535060079590951c9460019182019101607f8616611a34565b8082535050600101949350505050565b90565b60008280611a81600160028387611892565b8651910190611a91908286611c4f565b01611a9f6002808387611892565b81019050611ab286602001518286611c67565b0103949350505050565b5b60208110611adc578251825260209283019290910190601f1901611abd565b915181516020939093036101000a6000190180199091169216919091179052565b611b05612201565b6000611b0f612201565b611b17612264565b6000808089805b89820181101561136357611b32818c6115e1565b9196509450925082016001851415611b5657611b50818c8989611c76565b01611c4a565b8460021415611b6b57611b50818c8989611cb8565b8460031415611b8057611b50818c8989611cfe565b8460041415611b9557611b50818c8989611d4c565b8460051415611baa57611b50818c8989611d9a565b6001846005811115611bb857fe5b1415611bd2576000611bca828d6116b1565b929092019150505b6005846005811115611be057fe5b1415611bfa576000611bf2828d6116d2565b929092019150505b6000846005811115611c0857fe5b1415611c22576000611c1a828d6116e4565b929092019150505b6002846005811115611c3057fe5b1415611c4a576000611c42828d611776565b929092019150505b611b1e565b6000611871846001600160a01b031660148585611de0565b60006118718460208585611de0565b6000806000611c858787611e13565b91509150611c9285611982565b15611ca05760018481611657565b81151585526020840151156116a7576001848161169a565b6000806000611cc78787611e4a565b91509150611cd485611982565b15611ce3576001846002611657565b602085018290526040840151156116a757600184600261169a565b6000806000611d0d8787611e5c565b91509150611d1a85611982565b15611d29576001846003611657565b6001600160a01b03821660408601526060840151156116a757600184600361169a565b6000806000611d5b8787611e5c565b91509150611d6885611982565b15611d77576001846004611657565b6001600160a01b03821660608601526080840151156116a757600184600461169a565b6000806000611da98787611e4a565b91509150611db685611982565b15611dc5576001846005611657565b6080850182905260a0840151156116a757600184600561169a565b600382019160009081611df587868689611e80565b948501949050611e06818386611ebe565b5050909203949350505050565b600080600080611e2386866116e4565b915091508160001415611e3d576000935091506116cb9050565b6001969095509350505050565b6000806000806116c360208787611eff565b600080600080611e6e60148787611f1e565b60609190911c97909650945050505050565b600080611e8d8684612060565b9050848401815b8015611eb25787816020031a82536001919091019060001901611e94565b50909695505050505050565b600082611ecf600286018285611a29565b84019350611ee1600160028686611892565b84019350611ef0858585611a29565b90930192830390509392505050565b600080600080611f1087878761209e565b909890975095505050505050565b600080600080611f2e86866116e4565b90925090506020600860ff60038a01168484011115611fb757604080518082018252600f8152600160881b6e6c656e677468206f766572666c6f770260208083019182529251600160e51b62461bcd02815260048101938452825160248201528251929392839260449092019190808383600083156110f75781810151838201526020016110df565b6003880197506000602088510189106040518060400160405280600f8152602001600160881b6e6c656e677468206f766572666c6f77028152509061204057604051600160e51b62461bcd0281526020600482018181528351602484015283519092839260449091019190850190808383600083156110f75781810151838201526020016110df565b505087870151918490036002010290811c901b9350019050935093915050565b600060ff825b600719600882020182901b85161580156120805750600081115b1561208e5760001901612066565b806108cd57506001949350505050565b60008060008060006120b087876116e4565b915091508760030160ff16818301111561213457604080518082018252600f8152600160881b6e6c656e677468206f766572666c6f770260208083019182529251600160e51b62461bcd02815260048101938452825160248201528251929392839260449092019190808383600083156110f75781810151838201526020016110df565b600387019650602086510187106040518060400160405280600f8152602001600160881b6e6c656e677468206f766572666c6f7702815250906121bb57604051600160e51b62461bcd0281526020600482018181528351602484015283519092839260449091019190850190808383600083156110f75781810151838201526020016110df565b5086860151925060011982015b60208110156121e057610100840493506001016121c8565b509197910195509350505050565b6040518060200160405280606081525090565b6040805160a08101825260008082526020820181905291810182905260608101829052608081019190915290565b604080518082019091526000808252602082015290565b60405180604001604052806002906020820280388339509192915050565b6040518060c00160405280600690602082028038833950919291505056fe4f776e61626c653a206e6577206f776e657220697320746865207a65726f2061646472657373496e73756666696369616c2065746865722062616c616e636520746f2077697468647261775361666545524332303a204552433230206f7065726174696f6e20646964206e6f742073756363656564a165627a7a72305820fcc3efb94bb12ea03133e3b4a39478ab5b882b9aa253dc72d76438c26acbfae30029",
  "source": "pragma solidity ^0.5.0;\n\nimport \"./EscrowInterface.sol\";\nimport \"../lib/protobuf/TokenBalance.sol\";\nimport \"../lib/protobuf/TokenTransfer.sol\";\nimport \"../lib/access/Ownable.sol\";\nimport \"../lib/math/SafeMath.sol\";\nimport \"../lib/token/IERC20.sol\";\nimport \"../lib/token/SafeERC20.sol\";\nimport \"../lib/util/Constants.sol\";\n\n/**\n * @title Escrow for both user and issuance.\n */\ncontract NutsEscrow is EscrowInterface, Ownable {\n    using SafeMath for uint256;\n    using SafeERC20 for IERC20;\n\n    mapping(address => Balances.Data) private _userBalances;                // Balance of user\n    mapping(uint256 => Balances.Data) private _issuanceBalances;            // Balance of issuance\n\n    /**********************************************\n     * API for users to deposit and withdraw Ether\n     ***********************************************/\n\n    /**\n     * @dev Get the current balance in the escrow\n     * @return Current balance of the invoker\n     */\n    function balanceOf() public view returns (uint256) {\n        Balances.Data storage userBalances = _userBalances[msg.sender];\n        return getBalanceAmount(userBalances, Constants.getEthAddress());\n    }\n\n    /**\n     * @dev Deposits Ethers into the escrow\n     */\n    function deposit() public payable {\n        uint256 amount = msg.value;\n        Balances.Data storage userBalances = _userBalances[msg.sender];\n        Balance.Data storage userBalance = getBalanceAndAddIfMissing(userBalances, Constants.getEthAddress());\n        userBalance.amount = userBalance.amount.add(amount);\n\n        emit TokenDepositedToEscrow(msg.sender, Constants.getEthAddress(), amount);\n    }\n\n    /**\n     * @dev Withdraw Ethers from the escrow\n     * @param amount The amount of Ethers to withdraw\n     */\n    function withdraw(uint256 amount) public {\n        Balances.Data storage userBalances = _userBalances[msg.sender];\n        Balance.Data storage userBalance = getBalanceAndAddIfMissing(userBalances, Constants.getEthAddress());\n        require(userBalance.amount >= amount, \"Insufficial ether balance to withdraw\");\n        userBalance.amount = userBalance.amount.sub(amount);\n\n        msg.sender.transfer(amount);\n\n        emit TokenWithdrawnFromEscrow(msg.sender, Constants.getEthAddress(), amount);\n    }\n\n    /***********************************************\n     *  API for users to deposit and withdraw IERC20 token\n     **********************************************/\n\n    /**\n     * @dev Get the balance of the requested IERC20 token in the escrow\n     * @param token The IERC20 token to check balance\n     * @return The balance\n     */\n    function tokenBalanceOf(IERC20 token) public view returns (uint256) {\n        Balances.Data storage userBalances = _userBalances[msg.sender];\n        return getBalanceAmount(userBalances, address(token));\n    }\n\n    /**\n     * @dev Deposit IERC20 token to the escrow\n     * @param token The IERC20 token to deposit\n     * @param amount The amount to deposit\n     */\n    function depositToken(IERC20 token, uint256 amount) public {\n      Balances.Data storage userBalances = _userBalances[msg.sender];\n      Balance.Data storage userBalance = getBalanceAndAddIfMissing(userBalances, address(token));\n      userBalance.amount = userBalance.amount.add(amount);\n\n      emit TokenDepositedToEscrow(msg.sender, address(token), amount);\n    }\n\n    /**\n     * @dev Withdraw IERC20 token from the escrow\n     * @param token The IERC20 token to withdraw\n     * @param amount The amount to withdraw\n     */\n    function withdrawToken(IERC20 token, uint256 amount) public {\n      Balances.Data storage userBalances = _userBalances[msg.sender];\n      Balance.Data storage userBalance = getBalanceAndAddIfMissing(userBalances, address(token));\n      userBalance.amount = userBalance.amount.sub(amount);\n\n      token.safeTransfer(msg.sender, amount);\n\n      emit TokenWithdrawnFromEscrow(msg.sender, address(token), amount);\n    }\n\n    /***********************************************\n     *  API to get balance information.\n     **********************************************/\n\n    /**\n     * @dev Get the balance information about all tokens of the user.\n     * @param userAddress The user address to check balance\n     * @return The balance of all tokens about this user.\n     */\n    function getUserBalances(address userAddress) public view returns (bytes memory) {\n      return Balances.encode(_userBalances[userAddress]);\n    }\n\n    /**\n     * @dev Get the balance information about all tokens of the issuance.\n     * @param issuanceId The id of issuance to check balance\n     * @return The balance of all tokens about this issuance.\n     */\n    function getIssuanceBalances(uint256 issuanceId) public view returns (bytes memory) {\n      return Balances.encode(_issuanceBalances[issuanceId]);\n    }\n\n    /**\n     * @dev Get the ETH balance of an issuance\n     * @param issuanceId The id of the issuance to check ETH balance.\n     * @return The issuance ETH balance.\n     */\n    function issuanceBalanceOf(uint256 issuanceId) public view returns (uint256) {\n      Balances.Data storage issuanceBalances = _issuanceBalances[issuanceId];\n      return getBalanceAmount(issuanceBalances, Constants.getEthAddress());\n    }\n\n    /**\n     * @dev Get the ERC20 token balance of an issuance\n     * @param issuanceId The id of the issuance to check ERC20 token balance.\n     * @param token Which token is checked.\n     * @return The issuance ETH balance.\n     */\n    function issuanceTokenBalanceOf(uint256 issuanceId, IERC20 token) public view returns (uint256) {\n      Balances.Data storage issuanceBalances = _issuanceBalances[issuanceId];\n      return getBalanceAmount(issuanceBalances, address(token));\n    }\n\n    /***********************************************\n     *  API used by Instrument Manager to manager tokens for issuance\n     **********************************************/\n\n    /**\n     * @dev Process transfer actions between users and issuance.\n     * @param transfersData The serialized transfer actions\n     */\n    function processTransfers(bytes memory transfersData) public onlyOwner {\n      Transfers.Data memory transfers = Transfers.decode(transfersData);\n      for (uint i = 0; i < transfers.actions.length; i++) {\n        // Check whether it's from user or to user\n        Transfer.Data memory transfer = transfers.actions[i];\n        Balances.Data storage userBalances = _userBalances[transfer.userAddress];\n        Balance.Data storage userBalance = getBalanceAndAddIfMissing(userBalances, transfer.tokenAddress);\n        Balances.Data storage issuanceBalances = _issuanceBalances[transfer.issuanceId];\n        Balance.Data storage issuanceBalance = getBalanceAndAddIfMissing(issuanceBalances, transfer.tokenAddress);\n        if (transfer.fromUser) {\n          userBalance.amount = userBalance.amount.sub(transfer.amount);\n          issuanceBalance.amount = issuanceBalance.amount.add(transfer.amount);\n        } else {\n          userBalance.amount = userBalance.amount.add(transfer.amount);\n          issuanceBalance.amount = issuanceBalance.amount.sub(transfer.amount);\n        }\n      }\n    }\n\n    /**\n     * @dev Migrate the balances of one issuance to another\n     * Note: The balances should not have duplicate entries for the same token.\n     * @param oldIssuanceId The id of the issuance from where the balance is migrated\n     * @param newIssuanceId The id of the issuance to where the balance is migrated\n     */\n    function migrateIssuanceBalances(uint256 oldIssuanceId, uint256 newIssuanceId) public onlyOwner {\n      Balances.Data storage oldBalances = _issuanceBalances[oldIssuanceId];\n      Balances.Data storage newBalances = _issuanceBalances[newIssuanceId];\n\n      // For each token in the old issuance\n      for (uint i = 0; i < oldBalances.entries.length; i++) {\n        Balance.Data storage newBalance = getBalanceAndAddIfMissing(newBalances, oldBalances.entries[i].tokenAddress);\n        newBalance.amount = newBalance.amount.add(oldBalances.entries[i].amount);\n      }\n    }\n\n    /**\n     * @dev Get the balance amount of a token in the balances.\n     * @param balances The balances to check.\n     * @param tokenAddress The address of the token to check balance.\n     * @return The amount of this token in the balances. Return 0 if this token is not in the balances.\n     */\n    function getBalanceAmount(Balances.Data storage balances, address tokenAddress) private view returns (uint256) {\n      for (uint i = 0; i < balances.entries.length; i++) {\n        if (balances.entries[i].tokenAddress == tokenAddress) {\n          return balances.entries[i].amount;\n        }\n      }\n      return 0;\n    }\n\n    /**\n     * @dev Get the balance entry of a token in the balances. Create and return a new balance entry\n     * if this token is not in the balances.\n     * @param balances The balances to check.\n     * @param tokenAddress The address of the token to check balance.\n     * @return The balance entry of this token in the balances.\n     */\n    function getBalanceAndAddIfMissing(Balances.Data storage balances, address tokenAddress) private returns (Balance.Data storage) {\n      for (uint i = 0; i < balances.entries.length; i++) {\n        if (balances.entries[i].tokenAddress == tokenAddress) {\n          return balances.entries[i];\n        }\n      }\n      Balance.Data memory newBalance = Balance.Data(tokenAddress, 0);\n      balances.entries.push(newBalance);\n      return balances.entries[balances.entries.length - 1];\n    }\n}\n",
  "sourcePath": "/Users/shengdading/git/nuts-platform-v2/contracts/escrow/InstrumentEscrow.sol",
  "compiler": {
    "name": "solc",
    "version": "0.5.8+commit.23d335f2.Emscripten.clang"
  },
  "schemaVersion": "3.0.11",
  "updatedAt": "2019-08-23T05:26:32.034Z",
  "devdoc": {
    "methods": {
      "balanceOf()": {
        "details": "Get the current balance in the escrow",
        "return": "Current balance of the invoker"
      },
      "deposit()": {
        "details": "Deposits Ethers into the escrow"
      },
      "depositToken(address,uint256)": {
        "details": "Deposit IERC20 token to the escrow",
        "params": {
          "amount": "The amount to deposit",
          "token": "The IERC20 token to deposit"
        }
      },
      "getIssuanceBalances(uint256)": {
        "details": "Get the balance information about all tokens of the issuance.",
        "params": {
          "issuanceId": "The id of issuance to check balance"
        },
        "return": "The balance of all tokens about this issuance."
      },
      "getUserBalances(address)": {
        "details": "Get the balance information about all tokens of the user.",
        "params": {
          "userAddress": "The user address to check balance"
        },
        "return": "The balance of all tokens about this user."
      },
      "isOwner()": {
        "details": "Returns true if the caller is the current owner."
      },
      "issuanceBalanceOf(uint256)": {
        "details": "Get the ETH balance of an issuance",
        "params": {
          "issuanceId": "The id of the issuance to check ETH balance."
        },
        "return": "The issuance ETH balance."
      },
      "issuanceTokenBalanceOf(uint256,address)": {
        "details": "Get the ERC20 token balance of an issuance",
        "params": {
          "issuanceId": "The id of the issuance to check ERC20 token balance.",
          "token": "Which token is checked."
        },
        "return": "The issuance ETH balance."
      },
      "migrateIssuanceBalances(uint256,uint256)": {
        "details": "Migrate the balances of one issuance to another Note: The balances should not have duplicate entries for the same token.",
        "params": {
          "newIssuanceId": "The id of the issuance to where the balance is migrated",
          "oldIssuanceId": "The id of the issuance from where the balance is migrated"
        }
      },
      "owner()": {
        "details": "Returns the address of the current owner."
      },
      "processTransfers(bytes)": {
        "details": "Process transfer actions between users and issuance.",
        "params": {
          "transfersData": "The serialized transfer actions"
        }
      },
      "renounceOwnership()": {
        "details": "Leaves the contract without owner. It will not be possible to call `onlyOwner` functions anymore. Can only be called by the current owner.     * NOTE: Renouncing ownership will leave the contract without an owner, thereby removing any functionality that is only available to the owner."
      },
      "tokenBalanceOf(address)": {
        "details": "Get the balance of the requested IERC20 token in the escrow",
        "params": {
          "token": "The IERC20 token to check balance"
        },
        "return": "The balance"
      },
      "transferOwnership(address)": {
        "details": "Transfers ownership of the contract to a new account (`newOwner`). Can only be called by the current owner."
      },
      "withdraw(uint256)": {
        "details": "Withdraw Ethers from the escrow",
        "params": {
          "amount": "The amount of Ethers to withdraw"
        }
      },
      "withdrawToken(address,uint256)": {
        "details": "Withdraw IERC20 token from the escrow",
        "params": {
          "amount": "The amount to withdraw",
          "token": "The IERC20 token to withdraw"
        }
      }
    },
    "title": "Escrow for both user and issuance."
  },
  "userdoc": {
    "methods": {}
  }
}