{
  "contractName": "OwnedUpgradeabilityStorage",
  "abi": [
    {
      "constant": true,
      "inputs": [],
      "name": "proxyOwner",
      "outputs": [
        {
          "name": "owner",
          "type": "address"
        }
      ],
      "payable": false,
      "stateMutability": "view",
      "type": "function"
    },
    {
      "anonymous": false,
      "inputs": [
        {
          "indexed": true,
          "name": "implementation",
          "type": "address"
        }
      ],
      "name": "ImplementationUpgraded",
      "type": "event"
    },
    {
      "anonymous": false,
      "inputs": [
        {
          "indexed": false,
          "name": "previousOwner",
          "type": "address"
        },
        {
          "indexed": false,
          "name": "newOwner",
          "type": "address"
        }
      ],
      "name": "ProxyOwnershipTransferred",
      "type": "event"
    },
    {
      "constant": false,
      "inputs": [
        {
          "name": "newOwner",
          "type": "address"
        }
      ],
      "name": "transferProxyOwnership",
      "outputs": [],
      "payable": false,
      "stateMutability": "nonpayable",
      "type": "function"
    },
    {
      "constant": true,
      "inputs": [],
      "name": "implementation",
      "outputs": [
        {
          "name": "impl",
          "type": "address"
        }
      ],
      "payable": false,
      "stateMutability": "view",
      "type": "function"
    },
    {
      "constant": false,
      "inputs": [
        {
          "name": "newImplementation",
          "type": "address"
        }
      ],
      "name": "upgradeTo",
      "outputs": [],
      "payable": false,
      "stateMutability": "nonpayable",
      "type": "function"
    }
  ],
  "bytecode": "0x60806040526100133361001860201b60201c565b61004d565b604080517f66696e616e63652e6e7574732e70726f78792e6f776e657200000000000000008152905190819003601801902055565b6104338061005c6000396000f3fe608060405234801561001057600080fd5b506004361061004c5760003560e01c8063025313a2146100515780633659cfe6146100755780635c60da1b1461009d578063f1739cae146100a5575b600080fd5b6100596100cb565b604080516001600160a01b039092168252519081900360200190f35b61009b6004803603602081101561008b57600080fd5b50356001600160a01b0316610101565b005b610059610167565b61009b600480360360208110156100bb57600080fd5b50356001600160a01b031661018a565b604080517f66696e616e63652e6e7574732e70726f78792e6f776e65720000000000000000815290519081900360180190205490565b6101096100cb565b6001600160a01b0316336001600160a01b03161461015b57604051600160e51b62461bcd02815260040180806020018281038252602b815260200180610379602b913960400191505060405180910390fd5b61016481610280565b50565b60008060405180806103a460219139604051908190036021019020549392505050565b6101926100cb565b6001600160a01b0316336001600160a01b0316146101e457604051600160e51b62461bcd02815260040180806020018281038252602b815260200180610379602b913960400191505060405180910390fd5b6001600160a01b03811661022c57604051600160e51b62461bcd02815260040180806020018281038252602b815260200180610379602b913960400191505060405180910390fd5b7f5a3e66efaa1e445ebd894728a69d6959842ea1e97bd79b892797106e270efcd96102556100cb565b604080516001600160a01b03928316815291841660208301528051918290030190a161016481610321565b600061028a610167565b9050816001600160a01b0316816001600160a01b031614156102e057604051600160e51b62461bcd0281526004018080602001828103825260438152602001806103c56043913960600191505060405180910390fd5b6102e982610356565b6040516001600160a01b038316907f51ea6ffdc9909d5ca341259f7221902e0676585d833e2bb21fa923c85e86288690600090a25050565b604080517f66696e616e63652e6e7574732e70726f78792e6f776e657200000000000000008152905190819003601801902055565b600060405180806103a46021913960405190819003602101902092909255505056fe4f776e6564557067726164656162696c69747953746f726167653a204e6f742070726f7879206f776e657266696e616e63652e6e7574732e70726f78792e696d706c656d656e746174696f6e4f776e6564557067726164656162696c69747953746f726167653a204e657720696d706c656d656e746174696f6e2073686f756c6420626520646966666572656e742ea165627a7a7230582065095243f865b8c280decbc65178639ba074788406f8f4a5a3c66dc8a83a34a50029",
  "source": "pragma solidity ^0.5.0;\n\nimport \"./OwnedStorage.sol\";\n\n/**\n * @title OwnedUpgradeabilityStorage\n * @dev This contract defines the storage to achieve both upgradeability and ownership.\n */\ncontract OwnedUpgradeabilityStorage is OwnedStorage {\n\n  /**\n   * @dev This event will be emitted every time the implementation gets upgraded\n   * @param implementation representing the address of the upgraded implementation\n   */\n  event ImplementationUpgraded(address indexed implementation);\n\n  // Storage position of the address of the current implementation\n  bytes32 private constant implementationPosition = keccak256(\"finance.nuts.proxy.implementation\");\n\n  /**\n   * @dev Allows the current owner to transfer control of the contract to a newOwner.\n   * @param newOwner The address to transfer ownership to.\n   */\n  function transferProxyOwnership(address newOwner) public onlyProxyOwner {\n    require(newOwner != address(0), \"OwnedUpgradeabilityStorage: Not proxy owner\");\n    emit ProxyOwnershipTransferred(proxyOwner(), newOwner);\n    setUpgradeabilityOwner(newOwner);\n  }\n\n  /**\n   * @dev Tells the address of the current implementation\n   * @return address of the current implementation\n   */\n  function implementation() public view returns (address impl) {\n    bytes32 position = implementationPosition;\n    assembly {\n      impl := sload(position)\n    }\n  }\n\n  /**\n   * @dev Sets the address of the current implementation\n   * @param newImplementation address representing the new implementation to be set\n   */\n  function setImplementation(address newImplementation) internal {\n    bytes32 position = implementationPosition;\n    assembly {\n      sstore(position, newImplementation)\n    }\n  }\n\n  /**\n   * @dev Upgrades the implementation address\n   * @param newImplementation representing the address of the new implementation to be set\n   */\n  function _upgradeTo(address newImplementation) internal {\n    address currentImplementation = implementation();\n    require(currentImplementation != newImplementation, \"OwnedUpgradeabilityStorage: New implementation should be different.\");\n    setImplementation(newImplementation);\n    emit ImplementationUpgraded(newImplementation);\n  }\n\n  /**\n   * @dev Allows the proxy owner to upgrade the current version of the proxy.\n   * @param newImplementation representing the address of the new implementation to be set.\n   */\n  function upgradeTo(address newImplementation) public onlyProxyOwner {\n    _upgradeTo(newImplementation);\n  }\n}",
  "sourcePath": "/Users/shengdading/git/nuts-platform-v2/contracts/lib/proxy/OwnedUpgradeabilityStorage.sol",
  "compiler": {
    "name": "solc",
    "version": "0.5.8+commit.23d335f2.Emscripten.clang"
  },
  "schemaVersion": "3.0.11",
  "updatedAt": "2019-08-23T05:26:32.198Z",
  "devdoc": {
    "details": "This contract defines the storage to achieve both upgradeability and ownership.",
    "methods": {
      "implementation()": {
        "details": "Tells the address of the current implementation",
        "return": "address of the current implementation"
      },
      "proxyOwner()": {
        "details": "Tells the address of the owner",
        "return": "the address of the owner"
      },
      "transferProxyOwnership(address)": {
        "details": "Allows the current owner to transfer control of the contract to a newOwner.",
        "params": {
          "newOwner": "The address to transfer ownership to."
        }
      },
      "upgradeTo(address)": {
        "details": "Allows the proxy owner to upgrade the current version of the proxy.",
        "params": {
          "newImplementation": "representing the address of the new implementation to be set."
        }
      }
    },
    "title": "OwnedUpgradeabilityStorage"
  },
  "userdoc": {
    "methods": {}
  }
}