{
  "contractName": "OwnedStorage",
  "abi": [
    {
      "inputs": [],
      "payable": false,
      "stateMutability": "nonpayable",
      "type": "constructor"
    },
    {
      "anonymous": false,
      "inputs": [
        {
          "indexed": false,
          "name": "previousOwner",
          "type": "address"
        },
        {
          "indexed": false,
          "name": "newOwner",
          "type": "address"
        }
      ],
      "name": "ProxyOwnershipTransferred",
      "type": "event"
    },
    {
      "constant": true,
      "inputs": [],
      "name": "proxyOwner",
      "outputs": [
        {
          "name": "owner",
          "type": "address"
        }
      ],
      "payable": false,
      "stateMutability": "view",
      "type": "function"
    },
    {
      "constant": false,
      "inputs": [
        {
          "name": "newOwner",
          "type": "address"
        }
      ],
      "name": "transferProxyOwnership",
      "outputs": [],
      "payable": false,
      "stateMutability": "nonpayable",
      "type": "function"
    }
  ],
  "bytecode": "0x608060405234801561001057600080fd5b506100203361002560201b60201c565b61005a565b604080517f66696e616e63652e6e7574732e70726f78792e6f776e657200000000000000008152905190819003601801902055565b610270806100696000396000f3fe608060405234801561001057600080fd5b50600436106100365760003560e01c8063025313a21461003b578063f1739cae1461005f575b600080fd5b610043610087565b604080516001600160a01b039092168252519081900360200190f35b6100856004803603602081101561007557600080fd5b50356001600160a01b03166100bd565b005b604080517f66696e616e63652e6e7574732e70726f78792e6f776e65720000000000000000815290519081900360180190205490565b6100c5610087565b6001600160a01b0316336001600160a01b03161461012e576040517f08c379a000000000000000000000000000000000000000000000000000000000815260040180806020018281038252602b81526020018061021a602b913960400191505060405180910390fd5b6001600160a01b03811661018d576040517f08c379a000000000000000000000000000000000000000000000000000000000815260040180806020018281038252602b81526020018061021a602b913960400191505060405180910390fd5b7f5a3e66efaa1e445ebd894728a69d6959842ea1e97bd79b892797106e270efcd96101b6610087565b604080516001600160a01b03928316815291841660208301528051918290030190a16101e1816101e4565b50565b604080517f66696e616e63652e6e7574732e70726f78792e6f776e65720000000000000000815290519081900360180190205556fe4f776e6564557067726164656162696c69747953746f726167653a204e6f742070726f7879206f776e6572a165627a7a723058208a7aead02f0fd9dd7c311936b71669a2ba8cda3ec112d38dcd18889e9c6a32260029",
  "source": "pragma solidity ^0.5.0;\n\n/**\n * @title OwnedStorage\n * @dev This contract defines the storage to achieve  ownership.\n */\ncontract OwnedStorage {\n  /**\n  * @dev Event to show ownership has been transferred\n  * @param previousOwner representing the address of the previous owner\n  * @param newOwner representing the address of the new owner\n  */\n  event ProxyOwnershipTransferred(address previousOwner, address newOwner);\n\n  // Storage position of the owner of the contract\n  bytes32 private constant proxyOwnerPosition = keccak256(\"finance.nuts.proxy.owner\");\n\n  /**\n  * @dev the constructor sets the original owner of the contract to the sender account.\n  */\n  constructor() public {\n    setUpgradeabilityOwner(msg.sender);\n  }\n\n  /**\n  * @dev Throws if called by any account other than the owner.\n  */\n  modifier onlyProxyOwner() {\n    require(msg.sender == proxyOwner(), \"OwnedUpgradeabilityStorage: Not proxy owner\");\n    _;\n  }\n\n  /**\n   * @dev Tells the address of the owner\n   * @return the address of the owner\n   */\n  function proxyOwner() public view returns (address owner) {\n    bytes32 position = proxyOwnerPosition;\n    assembly {\n      owner := sload(position)\n    }\n  }\n\n  /**\n   * @dev Sets the address of the owner\n   */\n  function setUpgradeabilityOwner(address newProxyOwner) internal {\n    bytes32 position = proxyOwnerPosition;\n    assembly {\n      sstore(position, newProxyOwner)\n    }\n  }\n\n  /**\n   * @dev Allows the current owner to transfer control of the contract to a newOwner.\n   * @param newOwner The address to transfer ownership to.\n   */\n  function transferProxyOwnership(address newOwner) public onlyProxyOwner {\n    require(newOwner != address(0), \"OwnedUpgradeabilityStorage: Not proxy owner\");\n    emit ProxyOwnershipTransferred(proxyOwner(), newOwner);\n    setUpgradeabilityOwner(newOwner);\n  }\n}",
  "sourcePath": "/Users/shengdading/git/nuts-platform-v2/contracts/lib/proxy/OwnedStorage.sol",
  "compiler": {
    "name": "solc",
    "version": "0.5.8+commit.23d335f2.Emscripten.clang"
  },
  "schemaVersion": "3.0.11",
  "updatedAt": "2019-08-23T05:26:32.194Z",
  "devdoc": {
    "details": "This contract defines the storage to achieve  ownership.",
    "methods": {
      "constructor": {
        "details": "the constructor sets the original owner of the contract to the sender account."
      },
      "proxyOwner()": {
        "details": "Tells the address of the owner",
        "return": "the address of the owner"
      },
      "transferProxyOwnership(address)": {
        "details": "Allows the current owner to transfer control of the contract to a newOwner.",
        "params": {
          "newOwner": "The address to transfer ownership to."
        }
      }
    },
    "title": "OwnedStorage"
  },
  "userdoc": {
    "methods": {}
  }
}