{
  "contractName": "OwnerOnlyUpgradeabilityProxy",
  "abi": [
    {
      "constant": true,
      "inputs": [],
      "name": "proxyOwner",
      "outputs": [
        {
          "name": "owner",
          "type": "address"
        }
      ],
      "payable": false,
      "stateMutability": "view",
      "type": "function"
    },
    {
      "constant": false,
      "inputs": [
        {
          "name": "newImplementation",
          "type": "address"
        }
      ],
      "name": "upgradeTo",
      "outputs": [],
      "payable": false,
      "stateMutability": "nonpayable",
      "type": "function"
    },
    {
      "constant": true,
      "inputs": [],
      "name": "implementation",
      "outputs": [
        {
          "name": "impl",
          "type": "address"
        }
      ],
      "payable": false,
      "stateMutability": "view",
      "type": "function"
    },
    {
      "constant": false,
      "inputs": [
        {
          "name": "newOwner",
          "type": "address"
        }
      ],
      "name": "transferProxyOwnership",
      "outputs": [],
      "payable": false,
      "stateMutability": "nonpayable",
      "type": "function"
    },
    {
      "payable": true,
      "stateMutability": "payable",
      "type": "fallback"
    },
    {
      "anonymous": false,
      "inputs": [
        {
          "indexed": true,
          "name": "implementation",
          "type": "address"
        }
      ],
      "name": "ImplementationUpgraded",
      "type": "event"
    },
    {
      "anonymous": false,
      "inputs": [
        {
          "indexed": false,
          "name": "previousOwner",
          "type": "address"
        },
        {
          "indexed": false,
          "name": "newOwner",
          "type": "address"
        }
      ],
      "name": "ProxyOwnershipTransferred",
      "type": "event"
    }
  ],
  "bytecode": "0x60806040526100133361001860201b60201c565b61004d565b604080517f66696e616e63652e6e7574732e70726f78792e6f776e657200000000000000008152905190819003601801902055565b6105548061005c6000396000f3fe60806040526004361061003f5760003560e01c8063025313a2146101125780633659cfe6146101435780635c60da1b14610178578063f1739cae1461018d575b6100476101c0565b6001600160a01b0316336001600160a01b03161461009957604051600160e51b62461bcd02815260040180806020018281038252602b81526020018061046e602b913960400191505060405180910390fd5b60006100a36101f6565b90506001600160a01b0381166100ed57604051600160e51b62461bcd02815260040180806020018281038252602c815260200180610499602c913960400191505060405180910390fd5b60405136600082376000803683855af43d806000843e81801561010e578184f35b8184fd5b34801561011e57600080fd5b506101276101c0565b604080516001600160a01b039092168252519081900360200190f35b34801561014f57600080fd5b506101766004803603602081101561016657600080fd5b50356001600160a01b0316610219565b005b34801561018457600080fd5b506101276101f6565b34801561019957600080fd5b50610176600480360360208110156101b057600080fd5b50356001600160a01b031661027f565b604080517f66696e616e63652e6e7574732e70726f78792e6f776e65720000000000000000815290519081900360180190205490565b60008060405180806104c560219139604051908190036021019020549392505050565b6102216101c0565b6001600160a01b0316336001600160a01b03161461027357604051600160e51b62461bcd02815260040180806020018281038252602b81526020018061046e602b913960400191505060405180910390fd5b61027c81610375565b50565b6102876101c0565b6001600160a01b0316336001600160a01b0316146102d957604051600160e51b62461bcd02815260040180806020018281038252602b81526020018061046e602b913960400191505060405180910390fd5b6001600160a01b03811661032157604051600160e51b62461bcd02815260040180806020018281038252602b81526020018061046e602b913960400191505060405180910390fd5b7f5a3e66efaa1e445ebd894728a69d6959842ea1e97bd79b892797106e270efcd961034a6101c0565b604080516001600160a01b03928316815291841660208301528051918290030190a161027c81610416565b600061037f6101f6565b9050816001600160a01b0316816001600160a01b031614156103d557604051600160e51b62461bcd0281526004018080602001828103825260438152602001806104e66043913960600191505060405180910390fd5b6103de8261044b565b6040516001600160a01b038316907f51ea6ffdc9909d5ca341259f7221902e0676585d833e2bb21fa923c85e86288690600090a25050565b604080517f66696e616e63652e6e7574732e70726f78792e6f776e657200000000000000008152905190819003601801902055565b600060405180806104c56021913960405190819003602101902092909255505056fe4f776e6564557067726164656162696c69747953746f726167653a204e6f742070726f7879206f776e6572557067726164656162696c69747950726f78793a20496d706c656d656e746174696f6e206e6f74207365742e66696e616e63652e6e7574732e70726f78792e696d706c656d656e746174696f6e4f776e6564557067726164656162696c69747953746f726167653a204e657720696d706c656d656e746174696f6e2073686f756c6420626520646966666572656e742ea165627a7a723058206dc0ac109adf2c33ce82e161c3e067a57290451c1e24e32075ee1f411bbb9e9f0029",
  "source": "pragma solidity ^0.5.0;\n\nimport \"./OwnedUpgradeabilityStorage.sol\";\n\n/**\n * @title OwnerOnlyUpgradeabilityProxy\n * @dev Gives the possibility to delegate any call to a foreign implementation.\n * Only the proxy owner can call the proxy methods.\n */\ncontract OwnerOnlyUpgradeabilityProxy is OwnedUpgradeabilityStorage {\n\n  /**\n  * @dev Fallback function allowing to perform a delegatecall to the given implementation.\n  * This function will return whatever the implementation call returns\n  */\n  function () external payable onlyProxyOwner {\n    address _impl = implementation();\n    require(_impl != address(0), \"UpgradeabilityProxy: Implementation not set.\");\n\n    assembly {\n      let ptr := mload(0x40)\n      calldatacopy(ptr, 0, calldatasize)\n      let result := delegatecall(gas, _impl, ptr, calldatasize, 0, 0)\n      let size := returndatasize\n      returndatacopy(ptr, 0, size)\n\n      switch result\n      case 0 { revert(ptr, size) }\n      default { return(ptr, size) }\n    }\n  }\n}\n",
  "sourcePath": "/Users/shengdading/git/nuts-platform-v2/contracts/lib/proxy/OwnerOnlyUpgradeabilityProxy.sol",
  "compiler": {
    "name": "solc",
    "version": "0.5.8+commit.23d335f2.Emscripten.clang"
  },
  "schemaVersion": "3.0.11",
  "updatedAt": "2019-08-23T05:26:32.200Z",
  "devdoc": {
    "details": "Gives the possibility to delegate any call to a foreign implementation. Only the proxy owner can call the proxy methods.",
    "methods": {
      "implementation()": {
        "details": "Tells the address of the current implementation",
        "return": "address of the current implementation"
      },
      "proxyOwner()": {
        "details": "Tells the address of the owner",
        "return": "the address of the owner"
      },
      "transferProxyOwnership(address)": {
        "details": "Allows the current owner to transfer control of the contract to a newOwner.",
        "params": {
          "newOwner": "The address to transfer ownership to."
        }
      },
      "upgradeTo(address)": {
        "details": "Allows the proxy owner to upgrade the current version of the proxy.",
        "params": {
          "newImplementation": "representing the address of the new implementation to be set."
        }
      }
    },
    "title": "OwnerOnlyUpgradeabilityProxy"
  },
  "userdoc": {
    "methods": {}
  }
}