{
  "contractName": "UnifiedStorage",
  "abi": [
    {
      "constant": true,
      "inputs": [
        {
          "name": "account",
          "type": "address"
        }
      ],
      "name": "isWriter",
      "outputs": [
        {
          "name": "",
          "type": "bool"
        }
      ],
      "payable": false,
      "stateMutability": "view",
      "type": "function"
    },
    {
      "constant": false,
      "inputs": [
        {
          "name": "account",
          "type": "address"
        }
      ],
      "name": "removeWriter",
      "outputs": [],
      "payable": false,
      "stateMutability": "nonpayable",
      "type": "function"
    },
    {
      "constant": false,
      "inputs": [],
      "name": "renounceOwnership",
      "outputs": [],
      "payable": false,
      "stateMutability": "nonpayable",
      "type": "function"
    },
    {
      "constant": true,
      "inputs": [],
      "name": "owner",
      "outputs": [
        {
          "name": "",
          "type": "address"
        }
      ],
      "payable": false,
      "stateMutability": "view",
      "type": "function"
    },
    {
      "constant": true,
      "inputs": [],
      "name": "isOwner",
      "outputs": [
        {
          "name": "",
          "type": "bool"
        }
      ],
      "payable": false,
      "stateMutability": "view",
      "type": "function"
    },
    {
      "constant": false,
      "inputs": [
        {
          "name": "account",
          "type": "address"
        }
      ],
      "name": "addWriter",
      "outputs": [],
      "payable": false,
      "stateMutability": "nonpayable",
      "type": "function"
    },
    {
      "constant": false,
      "inputs": [],
      "name": "renounceWriter",
      "outputs": [],
      "payable": false,
      "stateMutability": "nonpayable",
      "type": "function"
    },
    {
      "constant": false,
      "inputs": [
        {
          "name": "newOwner",
          "type": "address"
        }
      ],
      "name": "transferOwnership",
      "outputs": [],
      "payable": false,
      "stateMutability": "nonpayable",
      "type": "function"
    },
    {
      "anonymous": false,
      "inputs": [
        {
          "indexed": true,
          "name": "account",
          "type": "address"
        }
      ],
      "name": "WriterAdded",
      "type": "event"
    },
    {
      "anonymous": false,
      "inputs": [
        {
          "indexed": true,
          "name": "account",
          "type": "address"
        }
      ],
      "name": "WriterRemoved",
      "type": "event"
    },
    {
      "anonymous": false,
      "inputs": [
        {
          "indexed": true,
          "name": "previousOwner",
          "type": "address"
        },
        {
          "indexed": true,
          "name": "newOwner",
          "type": "address"
        }
      ],
      "name": "OwnershipTransferred",
      "type": "event"
    },
    {
      "constant": true,
      "inputs": [
        {
          "name": "key",
          "type": "string"
        }
      ],
      "name": "getString",
      "outputs": [
        {
          "name": "",
          "type": "string"
        }
      ],
      "payable": false,
      "stateMutability": "view",
      "type": "function"
    },
    {
      "constant": false,
      "inputs": [
        {
          "name": "key",
          "type": "string"
        },
        {
          "name": "value",
          "type": "string"
        }
      ],
      "name": "setString",
      "outputs": [],
      "payable": false,
      "stateMutability": "nonpayable",
      "type": "function"
    },
    {
      "constant": true,
      "inputs": [
        {
          "name": "key",
          "type": "string"
        }
      ],
      "name": "getBytes",
      "outputs": [
        {
          "name": "",
          "type": "bytes"
        }
      ],
      "payable": false,
      "stateMutability": "view",
      "type": "function"
    },
    {
      "constant": false,
      "inputs": [
        {
          "name": "key",
          "type": "string"
        },
        {
          "name": "value",
          "type": "bytes"
        }
      ],
      "name": "setBytes",
      "outputs": [],
      "payable": false,
      "stateMutability": "nonpayable",
      "type": "function"
    },
    {
      "constant": true,
      "inputs": [
        {
          "name": "key",
          "type": "string"
        }
      ],
      "name": "getAddress",
      "outputs": [
        {
          "name": "",
          "type": "address"
        }
      ],
      "payable": false,
      "stateMutability": "view",
      "type": "function"
    },
    {
      "constant": false,
      "inputs": [
        {
          "name": "key",
          "type": "string"
        },
        {
          "name": "value",
          "type": "address"
        }
      ],
      "name": "setAddress",
      "outputs": [],
      "payable": false,
      "stateMutability": "nonpayable",
      "type": "function"
    },
    {
      "constant": true,
      "inputs": [
        {
          "name": "key",
          "type": "string"
        }
      ],
      "name": "getUint",
      "outputs": [
        {
          "name": "",
          "type": "uint256"
        }
      ],
      "payable": false,
      "stateMutability": "view",
      "type": "function"
    },
    {
      "constant": false,
      "inputs": [
        {
          "name": "key",
          "type": "string"
        },
        {
          "name": "value",
          "type": "uint256"
        }
      ],
      "name": "setUint",
      "outputs": [],
      "payable": false,
      "stateMutability": "nonpayable",
      "type": "function"
    },
    {
      "constant": true,
      "inputs": [
        {
          "name": "key",
          "type": "string"
        }
      ],
      "name": "getInt",
      "outputs": [
        {
          "name": "",
          "type": "int256"
        }
      ],
      "payable": false,
      "stateMutability": "view",
      "type": "function"
    },
    {
      "constant": false,
      "inputs": [
        {
          "name": "key",
          "type": "string"
        },
        {
          "name": "value",
          "type": "int256"
        }
      ],
      "name": "setInt",
      "outputs": [],
      "payable": false,
      "stateMutability": "nonpayable",
      "type": "function"
    },
    {
      "constant": true,
      "inputs": [
        {
          "name": "key",
          "type": "string"
        }
      ],
      "name": "getBool",
      "outputs": [
        {
          "name": "",
          "type": "bool"
        }
      ],
      "payable": false,
      "stateMutability": "view",
      "type": "function"
    },
    {
      "constant": false,
      "inputs": [
        {
          "name": "key",
          "type": "string"
        },
        {
          "name": "value",
          "type": "bool"
        }
      ],
      "name": "setBool",
      "outputs": [],
      "payable": false,
      "stateMutability": "nonpayable",
      "type": "function"
    }
  ],
  "bytecode": "0x60806040819052600080546001600160a01b03191633178082556001600160a01b0316917f8be0079c531659141344cd1fd0a4f28419497f9722a3daafe3b4186f6b6457e0908290a36119b8806100576000396000f3fe608060405234801561001057600080fd5b506004361061016c5760003560e01c80639b2ea4bd116100cd578063d8de899d11610081578063df4eb59c11610066578063df4eb59c14610a54578063f2fde38b14610a5c578063fda69fae14610a825761016c565b8063d8de899d146109be578063da2824a814610a2e5761016c565b8063b8b2bdad116100b2578063b8b2bdad146107c8578063bf40fac114610870578063c2c5b9f1146109165761016c565b80639b2ea4bd146105fc5780639c981fcb146106ad5761016c565b80636e1a1336116101245780638da5cb5b116101095780638da5cb5b1461052a5780638f32d59b1461054e5780639535ce12146105565761016c565b80636e1a1336146103f5578063715018a6146105225761016c565b80635356dddc116101555780635356dddc1461026357806356523acd1461028b57806368d8641a146103335761016c565b80632b29ba2314610171578063498bff00146101ab575b600080fd5b6101976004803603602081101561018757600080fd5b50356001600160a01b0316610b28565b604080519115158252519081900360200190f35b610251600480360360208110156101c157600080fd5b8101906020810181356401000000008111156101dc57600080fd5b8201836020820111156101ee57600080fd5b8035906020019184600183028401116401000000008311171561021057600080fd5b91908080601f016020809104026020016040519081016040528093929190818152602001838380828437600092019190915250929550610b41945050505050565b60408051918252519081900360200190f35b6102896004803603602081101561027957600080fd5b50356001600160a01b0316610bf0565b005b610289600480360360408110156102a157600080fd5b8101906020810181356401000000008111156102bc57600080fd5b8201836020820111156102ce57600080fd5b803590602001918460018302840111640100000000831117156102f057600080fd5b91908080601f0160208091040260200160405190810160405280939291908181526020018383808284376000920191909152509295505091359250610c58915050565b6102896004803603604081101561034957600080fd5b81019060208101813564010000000081111561036457600080fd5b82018360208201111561037657600080fd5b8035906020019184600183028401116401000000008311171561039857600080fd5b9193909290916020810190356401000000008111156103b657600080fd5b8201836020820111156103c857600080fd5b803590602001918460018302840111640100000000831117156103ea57600080fd5b509092509050610d07565b6102896004803603604081101561040b57600080fd5b81019060208101813564010000000081111561042657600080fd5b82018360208201111561043857600080fd5b8035906020019184600183028401116401000000008311171561045a57600080fd5b91908080601f01602080910402602001604051908101604052809392919081815260200183838082843760009201919091525092959493602081019350359150506401000000008111156104ad57600080fd5b8201836020820111156104bf57600080fd5b803590602001918460018302840111640100000000831117156104e157600080fd5b91908080601f016020809104026020016040519081016040528093929190818152602001838380828437600092019190915250929550610d44945050505050565b610289610e04565b610532610eb7565b604080516001600160a01b039092168252519081900360200190f35b610197610ec7565b6101976004803603602081101561056c57600080fd5b81019060208101813564010000000081111561058757600080fd5b82018360208201111561059957600080fd5b803590602001918460018302840111640100000000831117156105bb57600080fd5b91908080601f016020809104026020016040519081016040528093929190818152602001838380828437600092019190915250929550610ed8945050505050565b6102896004803603604081101561061257600080fd5b81019060208101813564010000000081111561062d57600080fd5b82018360208201111561063f57600080fd5b8035906020019184600183028401116401000000008311171561066157600080fd5b91908080601f016020809104026020016040519081016040528093929190818152602001838380828437600092019190915250929550505090356001600160a01b03169150610f8a9050565b610753600480360360208110156106c357600080fd5b8101906020810181356401000000008111156106de57600080fd5b8201836020820111156106f057600080fd5b8035906020019184600183028401116401000000008311171561071257600080fd5b91908080601f016020809104026020016040519081016040528093929190818152602001838380828437600092019190915250929550611061945050505050565b6040805160208082528351818301528351919283929083019185019080838360005b8381101561078d578181015183820152602001610775565b50505050905090810190601f1680156107ba5780820380516001836020036101000a031916815260200191505b509250505060405180910390f35b610289600480360360408110156107de57600080fd5b8101906020810181356401000000008111156107f957600080fd5b82018360208201111561080b57600080fd5b8035906020019184600183028401116401000000008311171561082d57600080fd5b91908080601f016020809104026020016040519081016040528093929190818152602001838380828437600092019190915250929550505050351515905061119c565b6105326004803603602081101561088657600080fd5b8101906020810181356401000000008111156108a157600080fd5b8201836020820111156108b357600080fd5b803590602001918460018302840111640100000000831117156108d557600080fd5b91908080601f016020809104026020016040519081016040528093929190818152602001838380828437600092019190915250929550611257945050505050565b6102896004803603604081101561092c57600080fd5b81019060208101813564010000000081111561094757600080fd5b82018360208201111561095957600080fd5b8035906020019184600183028401116401000000008311171561097b57600080fd5b91908080601f016020809104026020016040519081016040528093929190818152602001838380828437600092019190915250929550509135925061130f915050565b610753600480360360208110156109d457600080fd5b8101906020810181356401000000008111156109ef57600080fd5b820183602082011115610a0157600080fd5b80359060200191846001830284011164010000000083111715610a2357600080fd5b509092509050611388565b61028960048036036020811015610a4457600080fd5b50356001600160a01b031661143d565b6102896114a2565b61028960048036036020811015610a7257600080fd5b50356001600160a01b03166114ad565b61025160048036036020811015610a9857600080fd5b810190602081018135640100000000811115610ab357600080fd5b820183602082011115610ac557600080fd5b80359060200191846001830284011164010000000083111715610ae757600080fd5b91908080601f016020809104026020016040519081016040528093929190818152602001838380828437600092019190915250929550611512945050505050565b6000610b3b60018363ffffffff61158c16565b92915050565b6000610b4c33610b28565b610b8a57604051600160e51b62461bcd0281526004018080602001828103825260308152602001806118f46030913960400191505060405180910390fd5b6004826040518082805190602001908083835b60208310610bbc5780518252601f199092019160209182019101610b9d565b51815160209384036101000a6000190180199092169116179052920194855250604051938490030190922054949350505050565b610bf8610ec7565b610c4c5760408051600160e51b62461bcd02815260206004820181905260248201527f4f776e61626c653a2063616c6c6572206973206e6f7420746865206f776e6572604482015290519081900360640190fd5b610c55816115f6565b50565b610c6133610b28565b610c9f57604051600160e51b62461bcd0281526004018080602001828103825260308152602001806118f46030913960400191505060405180910390fd5b806004836040518082805190602001908083835b60208310610cd25780518252601f199092019160209182019101610cb3565b51815160209384036101000a600019018019909216911617905292019485525060405193849003019092209290925550505050565b81816002868660405180838380828437808301925050509250505090815260200160405180910390209190610d3d9291906117ed565b5050505050565b610d4d33610b28565b610d8b57604051600160e51b62461bcd0281526004018080602001828103825260308152602001806118f46030913960400191505060405180910390fd5b806002836040518082805190602001908083835b60208310610dbe5780518252601f199092019160209182019101610d9f565b51815160209384036101000a60001901801990921691161790529201948552506040519384900381019093208451610dff959194919091019250905061186b565b505050565b610e0c610ec7565b610e605760408051600160e51b62461bcd02815260206004820181905260248201527f4f776e61626c653a2063616c6c6572206973206e6f7420746865206f776e6572604482015290519081900360640190fd5b600080546040516001600160a01b03909116907f8be0079c531659141344cd1fd0a4f28419497f9722a3daafe3b4186f6b6457e0908390a36000805473ffffffffffffffffffffffffffffffffffffffff19169055565b6000546001600160a01b03165b90565b6000546001600160a01b0316331490565b6000610ee333610b28565b610f2157604051600160e51b62461bcd0281526004018080602001828103825260308152602001806118f46030913960400191505060405180910390fd5b6006826040518082805190602001908083835b60208310610f535780518252601f199092019160209182019101610f34565b51815160209384036101000a600019018019909216911617905292019485525060405193849003019092205460ff16949350505050565b610f9333610b28565b610fd157604051600160e51b62461bcd0281526004018080602001828103825260308152602001806118f46030913960400191505060405180910390fd5b806003836040518082805190602001908083835b602083106110045780518252601f199092019160209182019101610fe5565b51815160209384036101000a60001901801990921691161790529201948552506040519384900301909220805473ffffffffffffffffffffffffffffffffffffffff19166001600160a01b03949094169390931790925550505050565b606061106c33610b28565b6110aa57604051600160e51b62461bcd0281526004018080602001828103825260308152602001806118f46030913960400191505060405180910390fd5b6002826040518082805190602001908083835b602083106110dc5780518252601f1990920191602091820191016110bd565b518151600019602094850361010090810a820192831692199390931691909117909252949092019687526040805197889003820188208054601f60026001831615909802909501169590950492830182900482028801820190528187529294509250508301828280156111905780601f1061116557610100808354040283529160200191611190565b820191906000526020600020905b81548152906001019060200180831161117357829003601f168201915b50505050509050919050565b6111a533610b28565b6111e357604051600160e51b62461bcd0281526004018080602001828103825260308152602001806118f46030913960400191505060405180910390fd5b806006836040518082805190602001908083835b602083106112165780518252601f1990920191602091820191016111f7565b51815160209384036101000a60001901801990921691161790529201948552506040519384900301909220805460ff19169315159390931790925550505050565b600061126233610b28565b6112a057604051600160e51b62461bcd0281526004018080602001828103825260308152602001806118f46030913960400191505060405180910390fd5b6003826040518082805190602001908083835b602083106112d25780518252601f1990920191602091820191016112b3565b51815160209384036101000a60001901801990921691161790529201948552506040519384900301909220546001600160a01b0316949350505050565b61131833610b28565b61135657604051600160e51b62461bcd0281526004018080602001828103825260308152602001806118f46030913960400191505060405180910390fd5b8060058360405180828051906020019080838360208310610cd25780518252601f199092019160209182019101610cb3565b606060028383604051808383808284379190910194855250506040805160209481900385018120805460026001821615610100026000190190911604601f810187900487028301870190935282825290949093509091508301828280156114305780601f1061140557610100808354040283529160200191611430565b820191906000526020600020905b81548152906001019060200180831161141357829003601f168201915b5050505050905092915050565b611445610ec7565b6114995760408051600160e51b62461bcd02815260206004820181905260248201527f4f776e61626c653a2063616c6c6572206973206e6f7420746865206f776e6572604482015290519081900360640190fd5b610c558161163e565b6114ab336115f6565b565b6114b5610ec7565b6115095760408051600160e51b62461bcd02815260206004820181905260248201527f4f776e61626c653a2063616c6c6572206973206e6f7420746865206f776e6572604482015290519081900360640190fd5b610c558161164f565b600061151d33610b28565b61155b57604051600160e51b62461bcd0281526004018080602001828103825260308152602001806118f46030913960400191505060405180910390fd5b60058260405180828051906020019080838360208310610bbc5780518252601f199092019160209182019101610b9d565b60006001600160a01b0382166115d657604051600160e51b62461bcd02815260040180806020018281038252602281526020018061196b6022913960400191505060405180910390fd5b506001600160a01b03166000908152602091909152604090205460ff1690565b61160760018263ffffffff6116ff16565b6040516001600160a01b038216907f6ff3aa2ea7b53070f6d9d07a445d338d89e8edef44250ffa8be19f53910d4a2e90600090a250565b61160760018263ffffffff61176916565b6001600160a01b03811661169757604051600160e51b62461bcd0281526004018080602001828103825260268152602001806119246026913960400191505060405180910390fd5b600080546040516001600160a01b03808516939216917f8be0079c531659141344cd1fd0a4f28419497f9722a3daafe3b4186f6b6457e091a36000805473ffffffffffffffffffffffffffffffffffffffff19166001600160a01b0392909216919091179055565b611709828261158c565b61174757604051600160e51b62461bcd02815260040180806020018281038252602181526020018061194a6021913960400191505060405180910390fd5b6001600160a01b0316600090815260209190915260409020805460ff19169055565b611773828261158c565b156117c85760408051600160e51b62461bcd02815260206004820152601f60248201527f526f6c65733a206163636f756e7420616c72656164792068617320726f6c6500604482015290519081900360640190fd5b6001600160a01b0316600090815260209190915260409020805460ff19166001179055565b828054600181600116156101000203166002900490600052602060002090601f016020900481019282601f1061182e5782800160ff1982351617855561185b565b8280016001018555821561185b579182015b8281111561185b578235825591602001919060010190611840565b506118679291506118d9565b5090565b828054600181600116156101000203166002900490600052602060002090601f016020900481019282601f106118ac57805160ff191683800117855561185b565b8280016001018555821561185b579182015b8281111561185b5782518255916020019190600101906118be565b610ec491905b8082111561186757600081556001016118df56fe577269746572526f6c653a2043616c6c657220646f6573206e6f742068617665207468652057726974657220726f6c654f776e61626c653a206e6577206f776e657220697320746865207a65726f2061646472657373526f6c65733a206163636f756e7420646f6573206e6f74206861766520726f6c65526f6c65733a206163636f756e7420697320746865207a65726f2061646472657373a165627a7a72305820d9d3dbfce525eee59563f3db996b58abdf466a2530ff6c413c2cfaa871dec5780029",
  "source": "pragma solidity ^0.5.0;\n\nimport \"./StorageInterface.sol\";\nimport \"../access/WriterRole.sol\";\n\n/**\n * @title A generic data storage contract.\n * Supported values include: String, address, int, uint, bool.\n * Complex types should look for serialization/deserialization frameworks.\n */\ncontract UnifiedStorage is StorageInterface, WriterRole {\n    mapping(string => string) private _stringData;\n    mapping(string => address) private _addressData;\n    mapping(string => uint) private _uintData;\n    mapping(string => int) private _intData;\n    mapping(string => bool) private _boolData;\n\n    function getString(string memory key) public view onlyWriter returns (string memory) {\n        return _stringData[key];\n    }\n\n    function setString(string memory key, string memory value) public onlyWriter {\n       _stringData[key] = value;\n    }\n\n    function getBytes(string calldata key) external view returns (bytes memory) {\n        return bytes(_stringData[key]);\n    }\n\n    function setBytes(string calldata key, bytes calldata value) external {\n        _stringData[key] = string(value);\n    }\n\n    function getAddress(string memory key) public view onlyWriter returns (address) {\n        return _addressData[key];\n    }\n\n    function setAddress(string memory key, address value) public onlyWriter {\n       _addressData[key] = value;\n    }\n\n    function getUint(string memory key) public view onlyWriter returns (uint) {\n        return _uintData[key];\n    }\n\n    function setUint(string memory key, uint value) public onlyWriter {\n       _uintData[key] = value;\n    }\n\n    function getInt(string memory key) public view onlyWriter returns (int) {\n        return _intData[key];\n    }\n\n    function setInt(string memory key, int value) public onlyWriter {\n       _intData[key] = value;\n    }\n\n    function getBool(string memory key) public view onlyWriter returns (bool) {\n        return _boolData[key];\n    }\n\n    function setBool(string memory key, bool value) public onlyWriter {\n       _boolData[key] = value;\n    }\n}\n",
  "sourcePath": "/Users/shengdading/git/nuts-platform-v2/contracts/storage/UnifiedStorage.sol",
  "compiler": {
    "name": "solc",
    "version": "0.5.8+commit.23d335f2.Emscripten.clang"
  },
  "schemaVersion": "3.0.11",
  "updatedAt": "2019-08-23T05:26:32.234Z",
  "devdoc": {
    "methods": {
      "isOwner()": {
        "details": "Returns true if the caller is the current owner."
      },
      "owner()": {
        "details": "Returns the address of the current owner."
      },
      "renounceOwnership()": {
        "details": "Leaves the contract without owner. It will not be possible to call `onlyOwner` functions anymore. Can only be called by the current owner.     * NOTE: Renouncing ownership will leave the contract without an owner, thereby removing any functionality that is only available to the owner."
      },
      "transferOwnership(address)": {
        "details": "Transfers ownership of the contract to a new account (`newOwner`). Can only be called by the current owner."
      }
    },
    "title": "A generic data storage contract. Supported values include: String, address, int, uint, bool. Complex types should look for serialization/deserialization frameworks."
  },
  "userdoc": {
    "methods": {}
  }
}