{
  "contractName": "ERC20CappedMintable",
  "abi": [
    {
      "constant": false,
      "inputs": [
        {
          "name": "spender",
          "type": "address"
        },
        {
          "name": "value",
          "type": "uint256"
        }
      ],
      "name": "approve",
      "outputs": [
        {
          "name": "",
          "type": "bool"
        }
      ],
      "payable": false,
      "stateMutability": "nonpayable",
      "type": "function"
    },
    {
      "constant": true,
      "inputs": [],
      "name": "totalSupply",
      "outputs": [
        {
          "name": "",
          "type": "uint256"
        }
      ],
      "payable": false,
      "stateMutability": "view",
      "type": "function"
    },
    {
      "constant": false,
      "inputs": [
        {
          "name": "sender",
          "type": "address"
        },
        {
          "name": "recipient",
          "type": "address"
        },
        {
          "name": "amount",
          "type": "uint256"
        }
      ],
      "name": "transferFrom",
      "outputs": [
        {
          "name": "",
          "type": "bool"
        }
      ],
      "payable": false,
      "stateMutability": "nonpayable",
      "type": "function"
    },
    {
      "constant": false,
      "inputs": [
        {
          "name": "spender",
          "type": "address"
        },
        {
          "name": "addedValue",
          "type": "uint256"
        }
      ],
      "name": "increaseAllowance",
      "outputs": [
        {
          "name": "",
          "type": "bool"
        }
      ],
      "payable": false,
      "stateMutability": "nonpayable",
      "type": "function"
    },
    {
      "constant": true,
      "inputs": [
        {
          "name": "account",
          "type": "address"
        }
      ],
      "name": "balanceOf",
      "outputs": [
        {
          "name": "",
          "type": "uint256"
        }
      ],
      "payable": false,
      "stateMutability": "view",
      "type": "function"
    },
    {
      "constant": false,
      "inputs": [],
      "name": "renounceOwnership",
      "outputs": [],
      "payable": false,
      "stateMutability": "nonpayable",
      "type": "function"
    },
    {
      "constant": true,
      "inputs": [],
      "name": "owner",
      "outputs": [
        {
          "name": "",
          "type": "address"
        }
      ],
      "payable": false,
      "stateMutability": "view",
      "type": "function"
    },
    {
      "constant": true,
      "inputs": [],
      "name": "isOwner",
      "outputs": [
        {
          "name": "",
          "type": "bool"
        }
      ],
      "payable": false,
      "stateMutability": "view",
      "type": "function"
    },
    {
      "constant": false,
      "inputs": [
        {
          "name": "spender",
          "type": "address"
        },
        {
          "name": "subtractedValue",
          "type": "uint256"
        }
      ],
      "name": "decreaseAllowance",
      "outputs": [
        {
          "name": "",
          "type": "bool"
        }
      ],
      "payable": false,
      "stateMutability": "nonpayable",
      "type": "function"
    },
    {
      "constant": false,
      "inputs": [
        {
          "name": "recipient",
          "type": "address"
        },
        {
          "name": "amount",
          "type": "uint256"
        }
      ],
      "name": "transfer",
      "outputs": [
        {
          "name": "",
          "type": "bool"
        }
      ],
      "payable": false,
      "stateMutability": "nonpayable",
      "type": "function"
    },
    {
      "constant": true,
      "inputs": [
        {
          "name": "owner",
          "type": "address"
        },
        {
          "name": "spender",
          "type": "address"
        }
      ],
      "name": "allowance",
      "outputs": [
        {
          "name": "",
          "type": "uint256"
        }
      ],
      "payable": false,
      "stateMutability": "view",
      "type": "function"
    },
    {
      "constant": false,
      "inputs": [
        {
          "name": "newOwner",
          "type": "address"
        }
      ],
      "name": "transferOwnership",
      "outputs": [],
      "payable": false,
      "stateMutability": "nonpayable",
      "type": "function"
    },
    {
      "inputs": [
        {
          "name": "cap",
          "type": "uint256"
        }
      ],
      "payable": false,
      "stateMutability": "nonpayable",
      "type": "constructor"
    },
    {
      "anonymous": false,
      "inputs": [
        {
          "indexed": true,
          "name": "account",
          "type": "address"
        },
        {
          "indexed": false,
          "name": "cap",
          "type": "uint256"
        }
      ],
      "name": "MinterCapUpdated",
      "type": "event"
    },
    {
      "anonymous": false,
      "inputs": [
        {
          "indexed": true,
          "name": "previousOwner",
          "type": "address"
        },
        {
          "indexed": true,
          "name": "newOwner",
          "type": "address"
        }
      ],
      "name": "OwnershipTransferred",
      "type": "event"
    },
    {
      "anonymous": false,
      "inputs": [
        {
          "indexed": true,
          "name": "from",
          "type": "address"
        },
        {
          "indexed": true,
          "name": "to",
          "type": "address"
        },
        {
          "indexed": false,
          "name": "value",
          "type": "uint256"
        }
      ],
      "name": "Transfer",
      "type": "event"
    },
    {
      "anonymous": false,
      "inputs": [
        {
          "indexed": true,
          "name": "owner",
          "type": "address"
        },
        {
          "indexed": true,
          "name": "spender",
          "type": "address"
        },
        {
          "indexed": false,
          "name": "value",
          "type": "uint256"
        }
      ],
      "name": "Approval",
      "type": "event"
    },
    {
      "constant": false,
      "inputs": [
        {
          "name": "account",
          "type": "address"
        },
        {
          "name": "cap",
          "type": "uint256"
        }
      ],
      "name": "setMinterCap",
      "outputs": [
        {
          "name": "",
          "type": "bool"
        }
      ],
      "payable": false,
      "stateMutability": "nonpayable",
      "type": "function"
    },
    {
      "constant": true,
      "inputs": [
        {
          "name": "account",
          "type": "address"
        }
      ],
      "name": "getMinterCap",
      "outputs": [
        {
          "name": "",
          "type": "uint256"
        }
      ],
      "payable": false,
      "stateMutability": "view",
      "type": "function"
    },
    {
      "constant": true,
      "inputs": [
        {
          "name": "account",
          "type": "address"
        }
      ],
      "name": "getMinterAmount",
      "outputs": [
        {
          "name": "",
          "type": "uint256"
        }
      ],
      "payable": false,
      "stateMutability": "view",
      "type": "function"
    },
    {
      "constant": false,
      "inputs": [
        {
          "name": "account",
          "type": "address"
        },
        {
          "name": "value",
          "type": "uint256"
        }
      ],
      "name": "mint",
      "outputs": [
        {
          "name": "",
          "type": "bool"
        }
      ],
      "payable": false,
      "stateMutability": "nonpayable",
      "type": "function"
    }
  ],
  "bytecode": "0x608060405234801561001057600080fd5b506040516020806110458339810180604052602081101561003057600080fd5b5051600380546001600160a01b0319163317908190556040516001600160a01b0391909116906000907f8be0079c531659141344cd1fd0a4f28419497f9722a3daafe3b4186f6b6457e0908290a3600081116100ed57604080517f08c379a000000000000000000000000000000000000000000000000000000000815260206004820152601d60248201527f45524332304361707065644d696e7461626c653a206361702069732030000000604482015290519081900360640190fd5b600455610f46806100ff6000396000f3fe608060405234801561001057600080fd5b50600436106101005760003560e01c80638f32d59b11610097578063c8e1b4ce11610066578063c8e1b4ce146102c7578063cd3c7e1f146102f3578063dd62ed3e14610319578063f2fde38b1461034757610100565b80638f32d59b14610241578063a457c2d714610249578063a9059cbb14610275578063c6bbb845146102a157610100565b806340c10f19116100d357806340c10f19146101c157806370a08231146101ed578063715018a6146102135780638da5cb5b1461021d57610100565b8063095ea7b31461010557806318160ddd1461014557806323b872dd1461015f5780633950935114610195575b600080fd5b6101316004803603604081101561011b57600080fd5b506001600160a01b03813516906020013561036d565b604080519115158252519081900360200190f35b61014d610383565b60408051918252519081900360200190f35b6101316004803603606081101561017557600080fd5b506001600160a01b03813581169160208101359091169060400135610389565b610131600480360360408110156101ab57600080fd5b506001600160a01b0381351690602001356103f8565b610131600480360360408110156101d757600080fd5b506001600160a01b038135169060200135610434565b61014d6004803603602081101561020357600080fd5b50356001600160a01b0316610555565b61021b610570565b005b610225610623565b604080516001600160a01b039092168252519081900360200190f35b610131610632565b6101316004803603604081101561025f57600080fd5b506001600160a01b038135169060200135610643565b6101316004803603604081101561028b57600080fd5b506001600160a01b038135169060200135610698565b61014d600480360360208110156102b757600080fd5b50356001600160a01b03166106a5565b610131600480360360408110156102dd57600080fd5b506001600160a01b0381351690602001356106c0565b61014d6004803603602081101561030957600080fd5b50356001600160a01b03166107d1565b61014d6004803603604081101561032f57600080fd5b506001600160a01b03813581169160200135166107ec565b61021b6004803603602081101561035d57600080fd5b50356001600160a01b0316610817565b600061037a33848461087f565b50600192915050565b60025490565b6000610396848484610971565b6103ee84336103e985604051806060016040528060288152602001610e28602891396001600160a01b038a166000908152600160209081526040808320338452909152902054919063ffffffff610ad316565b61087f565b5060019392505050565b3360008181526001602090815260408083206001600160a01b0387168452909152812054909161037a9185906103e9908663ffffffff610b6d16565b600454600090339061045484610448610383565b9063ffffffff610b6d16565b111561049457604051600160e51b62461bcd028152600401808060200182810382526021815260200180610d996021913960400191505060405180910390fd5b6001600160a01b0381166000908152600560209081526040808320546006909252909120546104c9908563ffffffff610b6d16565b111561050957604051600160e51b62461bcd028152600401808060200182810382526028815260200180610e506028913960400191505060405180910390fd5b6001600160a01b038116600090815260066020526040902054610532908463ffffffff610b6d16565b6001600160a01b0382166000908152600660205260409020556103ee8484610bd1565b6001600160a01b031660009081526020819052604090205490565b610578610632565b6105cc5760408051600160e51b62461bcd02815260206004820181905260248201527f4f776e61626c653a2063616c6c6572206973206e6f7420746865206f776e6572604482015290519081900360640190fd5b6003546040516000916001600160a01b0316907f8be0079c531659141344cd1fd0a4f28419497f9722a3daafe3b4186f6b6457e0908390a36003805473ffffffffffffffffffffffffffffffffffffffff19169055565b6003546001600160a01b031690565b6003546001600160a01b0316331490565b600061037a33846103e985604051806060016040528060258152602001610ef6602591393360009081526001602090815260408083206001600160a01b038d168452909152902054919063ffffffff610ad316565b600061037a338484610971565b6001600160a01b031660009081526006602052604090205490565b60006106ca610632565b61071e5760408051600160e51b62461bcd02815260206004820181905260248201527f4f776e61626c653a2063616c6c6572206973206e6f7420746865206f776e6572604482015290519081900360640190fd5b6001600160a01b03831660009081526006602052604090205482101561077857604051600160e51b62461bcd028152600401808060200182810382526035815260200180610e9d6035913960400191505060405180910390fd5b6001600160a01b038316600081815260056020908152604091829020859055815185815291517f9917e077a26c11e709ef1e3646df334b6146e2b10a05501633864b047c53432c9281900390910190a250600192915050565b6001600160a01b031660009081526005602052604090205490565b6001600160a01b03918216600090815260016020908152604080832093909416825291909152205490565b61081f610632565b6108735760408051600160e51b62461bcd02815260206004820181905260248201527f4f776e61626c653a2063616c6c6572206973206e6f7420746865206f776e6572604482015290519081900360640190fd5b61087c81610cc4565b50565b6001600160a01b0383166108c757604051600160e51b62461bcd028152600401808060200182810382526024815260200180610ed26024913960400191505060405180910390fd5b6001600160a01b03821661090f57604051600160e51b62461bcd028152600401808060200182810382526022815260200180610de06022913960400191505060405180910390fd5b6001600160a01b03808416600081815260016020908152604080832094871680845294825291829020859055815185815291517f8c5be1e5ebec7d5bd14f71427d1e84f3dd0314c0f7b2291e5b200ac8c7c3b9259281900390910190a3505050565b6001600160a01b0383166109b957604051600160e51b62461bcd028152600401808060200182810382526025815260200180610e786025913960400191505060405180910390fd5b6001600160a01b038216610a0157604051600160e51b62461bcd028152600401808060200182810382526023815260200180610d766023913960400191505060405180910390fd5b610a4481604051806060016040528060268152602001610e02602691396001600160a01b038616600090815260208190526040902054919063ffffffff610ad316565b6001600160a01b038085166000908152602081905260408082209390935590841681522054610a79908263ffffffff610b6d16565b6001600160a01b038084166000818152602081815260409182902094909455805185815290519193928716927fddf252ad1be2c89b69c2b068fc378daa952ba7f163c4a11628f55a4df523b3ef92918290030190a3505050565b60008184841115610b6557604051600160e51b62461bcd0281526004018080602001828103825283818151815260200191508051906020019080838360005b83811015610b2a578181015183820152602001610b12565b50505050905090810190601f168015610b575780820380516001836020036101000a031916815260200191505b509250505060405180910390fd5b505050900390565b600082820183811015610bca5760408051600160e51b62461bcd02815260206004820152601b60248201527f536166654d6174683a206164646974696f6e206f766572666c6f770000000000604482015290519081900360640190fd5b9392505050565b6001600160a01b038216610c2f5760408051600160e51b62461bcd02815260206004820152601f60248201527f45524332303a206d696e7420746f20746865207a65726f206164647265737300604482015290519081900360640190fd5b600254610c42908263ffffffff610b6d16565b6002556001600160a01b038216600090815260208190526040902054610c6e908263ffffffff610b6d16565b6001600160a01b0383166000818152602081815260408083209490945583518581529351929391927fddf252ad1be2c89b69c2b068fc378daa952ba7f163c4a11628f55a4df523b3ef9281900390910190a35050565b6001600160a01b038116610d0c57604051600160e51b62461bcd028152600401808060200182810382526026815260200180610dba6026913960400191505060405180910390fd5b6003546040516001600160a01b038084169216907f8be0079c531659141344cd1fd0a4f28419497f9722a3daafe3b4186f6b6457e090600090a36003805473ffffffffffffffffffffffffffffffffffffffff19166001600160a01b039290921691909117905556fe45524332303a207472616e7366657220746f20746865207a65726f206164647265737345524332304361707065644d696e7461626c653a206361702065786365656465644f776e61626c653a206e6577206f776e657220697320746865207a65726f206164647265737345524332303a20617070726f766520746f20746865207a65726f206164647265737345524332303a207472616e7366657220616d6f756e7420657863656564732062616c616e636545524332303a207472616e7366657220616d6f756e74206578636565647320616c6c6f77616e636545524332304361707065644d696e7461626c653a206d696e7465722063617020657863656564656445524332303a207472616e736665722066726f6d20746865207a65726f206164647265737345524332304361707065644d696e7461626c653a2063617020736d616c6c6572207468616e2063757272656e7420616d6f756e742e45524332303a20617070726f76652066726f6d20746865207a65726f206164647265737345524332303a2064656372656173656420616c6c6f77616e63652062656c6f77207a65726fa165627a7a72305820b4db6bd99a1c2bd8c4d76ea81787fc0a97eddf321f3200952819cac8f2672d690029",
  "source": "pragma solidity ^0.5.0;\n\nimport \"../lib/token/ERC20.sol\";\nimport \"../lib/access/Ownable.sol\";\n\n/**\n * @dev Extension of `ERC20Mintable` that adds a cap on the number\n * of token each minter can mint.\n *\n * Only the owner of the token can set cap.\n *\n * No MinterRole is needed as each minter is given a cap of 0 without setting minter cap.\n */\ncontract ERC20CappedMintable is ERC20, Ownable {\n\n    event MinterCapUpdated(address indexed account, uint256 cap);\n\n    // Cap for total supply.\n    uint256 private _cap;\n    // Cap for individual minter.\n    mapping(address => uint256) private _minterCaps;\n    // Number of token minted by individual minter.\n    mapping(address => uint256) private _minterAmount;\n\n    /**\n     * @dev Sets the value of the `cap`. This value is immutable, it can only be\n     * set once during construction.\n     */\n    constructor (uint256 cap) public {\n        require(cap > 0, \"ERC20CappedMintable: cap is 0\");\n        _cap = cap;\n    }\n\n    /**\n     * @dev Sets the minter cap.\n     *\n     * Requirements:\n     *\n     * - The caller must be the owner.\n     * - The new cap must not be smaller than the current minter amount.\n     */\n    function setMinterCap(address account, uint256 cap) public onlyOwner returns (bool) {\n        require(_minterAmount[account] <= cap, \"ERC20CappedMintable: cap smaller than current amount.\");\n        _minterCaps[account] = cap;\n\n        emit MinterCapUpdated(account, cap);\n\n        return true;\n    }\n\n    /**\n     * @dev Gets the minter cap.\n     * @param account The account of the minter to check minter cap.\n     */\n    function getMinterCap(address account) public view returns (uint256) {\n        return _minterCaps[account];\n    }\n\n    /**\n     * @dev Get the token amount minted by this minter.\n     * @param account The account of the minter to check minter cap.\n     */\n    function getMinterAmount(address account) public view returns (uint256) {\n        return _minterAmount[account];\n    }\n\n    /**\n     * @dev See `ERC20Mintable.mint`.\n     *\n     * Requirements:\n     *\n     * - `value` must not cause the total supply to go over the cap.\n     * - `value` must not cause the minter amount to go over the minter cap.\n     */\n    function mint(address account, uint256 value) public returns (bool) {\n        address minter = msg.sender;\n        require(totalSupply().add(value) <= _cap, \"ERC20CappedMintable: cap exceeded\");\n        require(_minterAmount[minter].add(value) <= _minterCaps[minter], \"ERC20CappedMintable: minter cap exceeded\");\n        _minterAmount[minter] = _minterAmount[minter].add(value);\n        _mint(account, value);\n\n        return true;\n    }\n}\n",
  "sourcePath": "/Users/shengdading/git/nuts-platform-v2/contracts/token/ERC20CappedMintable.sol",
  "compiler": {
    "name": "solc",
    "version": "0.5.8+commit.23d335f2.Emscripten.clang"
  },
  "schemaVersion": "3.0.16",
  "updatedAt": "2019-10-16T00:39:24.234Z",
  "devdoc": {
    "details": "Extension of `ERC20Mintable` that adds a cap on the number of token each minter can mint. * Only the owner of the token can set cap. * No MinterRole is needed as each minter is given a cap of 0 without setting minter cap.",
    "methods": {
      "allowance(address,address)": {
        "details": "See {IERC20-allowance}."
      },
      "approve(address,uint256)": {
        "details": "See {IERC20-approve}.     * Requirements:     * - `spender` cannot be the zero address."
      },
      "balanceOf(address)": {
        "details": "See {IERC20-balanceOf}."
      },
      "constructor": {
        "details": "Sets the value of the `cap`. This value is immutable, it can only be set once during construction."
      },
      "decreaseAllowance(address,uint256)": {
        "details": "Atomically decreases the allowance granted to `spender` by the caller.     * This is an alternative to {approve} that can be used as a mitigation for problems described in {IERC20-approve}.     * Emits an {Approval} event indicating the updated allowance.     * Requirements:     * - `spender` cannot be the zero address. - `spender` must have allowance for the caller of at least `subtractedValue`."
      },
      "getMinterAmount(address)": {
        "details": "Get the token amount minted by this minter.",
        "params": {
          "account": "The account of the minter to check minter cap."
        }
      },
      "getMinterCap(address)": {
        "details": "Gets the minter cap.",
        "params": {
          "account": "The account of the minter to check minter cap."
        }
      },
      "increaseAllowance(address,uint256)": {
        "details": "Atomically increases the allowance granted to `spender` by the caller.     * This is an alternative to {approve} that can be used as a mitigation for problems described in {IERC20-approve}.     * Emits an {Approval} event indicating the updated allowance.     * Requirements:     * - `spender` cannot be the zero address."
      },
      "isOwner()": {
        "details": "Returns true if the caller is the current owner."
      },
      "mint(address,uint256)": {
        "details": "See `ERC20Mintable.mint`.     * Requirements:     * - `value` must not cause the total supply to go over the cap. - `value` must not cause the minter amount to go over the minter cap."
      },
      "owner()": {
        "details": "Returns the address of the current owner."
      },
      "renounceOwnership()": {
        "details": "Leaves the contract without owner. It will not be possible to call `onlyOwner` functions anymore. Can only be called by the current owner.     * NOTE: Renouncing ownership will leave the contract without an owner, thereby removing any functionality that is only available to the owner."
      },
      "setMinterCap(address,uint256)": {
        "details": "Sets the minter cap.     * Requirements:     * - The caller must be the owner. - The new cap must not be smaller than the current minter amount."
      },
      "totalSupply()": {
        "details": "See {IERC20-totalSupply}."
      },
      "transfer(address,uint256)": {
        "details": "See {IERC20-transfer}.     * Requirements:     * - `recipient` cannot be the zero address. - the caller must have a balance of at least `amount`."
      },
      "transferFrom(address,address,uint256)": {
        "details": "See {IERC20-transferFrom}.     * Emits an {Approval} event indicating the updated allowance. This is not required by the EIP. See the note at the beginning of {ERC20};     * Requirements: - `sender` and `recipient` cannot be the zero address. - `sender` must have a balance of at least `value`. - the caller must have allowance for `sender`'s tokens of at least `amount`."
      },
      "transferOwnership(address)": {
        "details": "Transfers ownership of the contract to a new account (`newOwner`). Can only be called by the current owner."
      }
    }
  },
  "userdoc": {
    "methods": {}
  }
}