{
  "contractName": "EscrowFactory",
  "abi": [
    {
      "constant": false,
      "inputs": [],
      "name": "createDepositEscrow",
      "outputs": [
        {
          "name": "",
          "type": "address"
        }
      ],
      "payable": false,
      "stateMutability": "nonpayable",
      "type": "function"
    },
    {
      "constant": false,
      "inputs": [],
      "name": "createInstrumentEscrow",
      "outputs": [
        {
          "name": "",
          "type": "address"
        }
      ],
      "payable": false,
      "stateMutability": "nonpayable",
      "type": "function"
    },
    {
      "constant": false,
      "inputs": [],
      "name": "createIssuanceEscrow",
      "outputs": [
        {
          "name": "",
          "type": "address"
        }
      ],
      "payable": false,
      "stateMutability": "nonpayable",
      "type": "function"
    }
  ],
  "bytecode": "0x608060405234801561001057600080fd5b5061327e806100206000396000f3fe608060405234801561001057600080fd5b50600436106100415760003560e01c80630ae60b601461004657806399733c7514610077578063ad7bd29414610077575b600080fd5b61004e61007f565b6040805173ffffffffffffffffffffffffffffffffffffffff9092168252519081900360200190f35b61004e61013a565b60008060405161008e90610149565b604051809103906000f0801580156100aa573d6000803e3d6000fd5b50604080517ff2fde38b000000000000000000000000000000000000000000000000000000008152336004820152905191925073ffffffffffffffffffffffffffffffffffffffff83169163f2fde38b9160248082019260009290919082900301818387803b15801561011c57600080fd5b505af1158015610130573d6000803e3d6000fd5b5092935050505090565b60008060405161008e90610156565b61189d8061016483390190565b61185280611a018339019056fe60806040819052600080546001600160a01b03191633178082556001600160a01b0316917f8be0079c531659141344cd1fd0a4f28419497f9722a3daafe3b4186f6b6457e0908290a3611846806100576000396000f3fe6080604052600436106100d25760003560e01c80638da5cb5b1161007f578063c489744b11610059578063c489744b146102b9578063d8a3073214610306578063f2fde38b14610389578063f8b2cb4f146103bc576100d2565b80638da5cb5b1461021c5780638f32d59b1461024d578063beabacc814610276576100d2565b806370d97c34116100b057806370d97c341461019e578063715018a6146101c4578063810c0af8146101d9576100d2565b80632c54de4f146100d75780633d4aa9a914610122578063487c358014610165575b600080fd5b3480156100e357600080fd5b50610120600480360360808110156100fa57600080fd5b506001600160a01b038135811691602081013582169160408201351690606001356103ef565b005b34801561012e57600080fd5b506101206004803603606081101561014557600080fd5b506001600160a01b038135811691602081013590911690604001356105c2565b34801561017157600080fd5b506101206004803603604081101561018857600080fd5b506001600160a01b0381351690602001356107af565b610120600480360360208110156101b457600080fd5b50356001600160a01b031661094a565b3480156101d057600080fd5b50610120610a73565b3480156101e557600080fd5b50610120600480360360608110156101fc57600080fd5b506001600160a01b03813581169160208101359091169060400135610b26565b34801561022857600080fd5b50610231610cc4565b604080516001600160a01b039092168252519081900360200190f35b34801561025957600080fd5b50610262610cd3565b604080519115158252519081900360200190f35b34801561028257600080fd5b506101206004803603606081101561029957600080fd5b506001600160a01b03813581169160208101359091169060400135610ce4565b3480156102c557600080fd5b506102f4600480360360408110156102dc57600080fd5b506001600160a01b0381358116916020013516610d53565b60408051918252519081900360200190f35b34801561031257600080fd5b506103396004803603602081101561032957600080fd5b50356001600160a01b0316610d7e565b60408051602080825283518183015283519192839290830191858101910280838360005b8381101561037557818101518382015260200161035d565b505050509050019250505060405180910390f35b34801561039557600080fd5b50610120600480360360208110156103ac57600080fd5b50356001600160a01b0316610f77565b3480156103c857600080fd5b506102f4600480360360208110156103df57600080fd5b50356001600160a01b0316610fdf565b6103f7610cd3565b61044b5760408051600160e51b62461bcd02815260206004820181905260248201527f4f776e61626c653a2063616c6c6572206973206e6f7420746865206f776e6572604482015290519081900360640190fd5b6001600160a01b03841661049357604051600160e51b62461bcd0281526004018080602001828103825260238152602001806117ab6023913960400191505060405180910390fd5b6001600160a01b0383166104db57604051600160e51b62461bcd0281526004018080602001828103825260218152602001806117686021913960400191505060405180910390fd5b6001600160a01b03821661052357604051600160e51b62461bcd0281526004018080602001828103825260228152602001806117896022913960400191505060405180910390fd5b6000811161056557604051600160e51b62461bcd0281526004018080602001828103825260238152602001806117ce6023913960400191505060405180910390fd5b806105708584610d53565b10156105b057604051600160e51b62461bcd0281526004018080602001828103825260258152602001806116f76025913960400191505060405180910390fd5b6105bc84848484611020565b50505050565b6105ca610cd3565b61061e5760408051600160e51b62461bcd02815260206004820181905260248201527f4f776e61626c653a2063616c6c6572206973206e6f7420746865206f776e6572604482015290519081900360640190fd5b6001600160a01b03831661067c5760408051600160e51b62461bcd02815260206004820181905260248201527f457363726f77426173653a204163636f756e74206d757374206265207365742e604482015290519081900360640190fd5b6001600160a01b0382166106da5760408051600160e51b62461bcd02815260206004820152601e60248201527f457363726f77426173653a20546f6b656e206d757374206265207365742e0000604482015290519081900360640190fd5b600081116107325760408051600160e51b62461bcd02815260206004820152601f60248201527f457363726f77426173653a20416d6f756e74206d757374206265207365742e00604482015290519081900360640190fd5b8061073d8484610d53565b101561077d57604051600160e51b62461bcd0281526004018080602001828103825260278152602001806117416027913960400191505060405180910390fd5b610788838383611036565b6107aa610793610cc4565b6001600160a01b038416908363ffffffff6110d016565b505050565b6107b7610cd3565b61080b5760408051600160e51b62461bcd02815260206004820181905260248201527f4f776e61626c653a2063616c6c6572206973206e6f7420746865206f776e6572604482015290519081900360640190fd5b6001600160a01b0382166108695760408051600160e51b62461bcd02815260206004820181905260248201527f457363726f77426173653a204163636f756e74206d757374206265207365742e604482015290519081900360640190fd5b600081116108c15760408051600160e51b62461bcd02815260206004820152601f60248201527f457363726f77426173653a20416d6f756e74206d757374206265207365742e00604482015290519081900360640190fd5b806108cb83610fdf565b101561090b57604051600160e51b62461bcd02815260040180806020018281038252602581526020018061171c6025913960400191505060405180910390fd5b61091d82610917611150565b83611036565b604051339082156108fc029083906000818181858888f193505050501580156107aa573d6000803e3d6000fd5b610952610cd3565b6109a65760408051600160e51b62461bcd02815260206004820181905260248201527f4f776e61626c653a2063616c6c6572206973206e6f7420746865206f776e6572604482015290519081900360640190fd5b346001600160a01b038216610a055760408051600160e51b62461bcd02815260206004820181905260248201527f457363726f77426173653a204163636f756e74206d757374206265207365742e604482015290519081900360640190fd5b60008111610a5d5760408051600160e51b62461bcd02815260206004820152601f60248201527f457363726f77426173653a20416d6f756e74206d757374206265207365742e00604482015290519081900360640190fd5b610a6f82610a69611150565b83611156565b5050565b610a7b610cd3565b610acf5760408051600160e51b62461bcd02815260206004820181905260248201527f4f776e61626c653a2063616c6c6572206973206e6f7420746865206f776e6572604482015290519081900360640190fd5b600080546040516001600160a01b03909116907f8be0079c531659141344cd1fd0a4f28419497f9722a3daafe3b4186f6b6457e0908390a36000805473ffffffffffffffffffffffffffffffffffffffff19169055565b610b2e610cd3565b610b825760408051600160e51b62461bcd02815260206004820181905260248201527f4f776e61626c653a2063616c6c6572206973206e6f7420746865206f776e6572604482015290519081900360640190fd5b6001600160a01b038316610be05760408051600160e51b62461bcd02815260206004820181905260248201527f457363726f77426173653a204163636f756e74206d757374206265207365742e604482015290519081900360640190fd5b6001600160a01b038216610c3e5760408051600160e51b62461bcd02815260206004820152601e60248201527f457363726f77426173653a20546f6b656e206d757374206265207365742e0000604482015290519081900360640190fd5b60008111610c965760408051600160e51b62461bcd02815260206004820152601f60248201527f457363726f77426173653a20416d6f756e74206d757374206265207365742e00604482015290519081900360640190fd5b610ca1838383611156565b6107aa610cac610cc4565b6001600160a01b03841690308463ffffffff61125b16565b6000546001600160a01b031690565b6000546001600160a01b0316331490565b610cec610cd3565b610d405760408051600160e51b62461bcd02815260206004820181905260248201527f4f776e61626c653a2063616c6c6572206973206e6f7420746865206f776e6572604482015290519081900360640190fd5b6107aa8383610d4d611150565b846103ef565b6001600160a01b03918216600090815260016020908152604080832093909416825291909152205490565b6001600160a01b0381166000908152600160205260408120606091600290910190610da7611150565b90506000805b8354811015610e4d57826001600160a01b0316848281548110610dcc57fe5b6000918252602090912001546001600160a01b031614801590610e3957506001600160a01b038616600090815260016020526040812085548290879085908110610e1257fe5b60009182526020808320909101546001600160a01b03168352820192909252604001902054115b15610e45576001909101905b600101610dad565b5080604051908082528060200260200182016040528015610e78578160200160208202803883390190505b5093506000805b8454811015610f6d57836001600160a01b0316858281548110610e9e57fe5b6000918252602090912001546001600160a01b031614801590610f0b57506001600160a01b038716600090815260016020526040812086548290889085908110610ee457fe5b60009182526020808320909101546001600160a01b03168352820192909252604001902054115b15610f6557848181548110610f1c57fe5b9060005260206000200160009054906101000a90046001600160a01b0316868381518110610f4657fe5b6001600160a01b03909216602092830291909101909101526001909101905b600101610e7f565b5050505050919050565b610f7f610cd3565b610fd35760408051600160e51b62461bcd02815260206004820181905260248201527f4f776e61626c653a2063616c6c6572206973206e6f7420746865206f776e6572604482015290519081900360640190fd5b610fdc816112e3565b50565b6001600160a01b038116600090815260016020526040812081611000611150565b6001600160a01b0316815260208101919091526040016000205492915050565b61102b848383611036565b6105bc838383611156565b6001600160a01b03808416600090815260016020908152604080832093861683529083905290205461106e908363ffffffff61139316565b6001600160a01b038085166000818152602085815260409182902094909455805192881683529282015280820184905290517f6ac2cd906088d873624fa62ca95170d967629e7d964651df19a3aa2e49b44aa19181900360600190a150505050565b604080516001600160a01b038416602482015260448082018490528251808303909101815260649091019091526020810180517bffffffffffffffffffffffffffffffffffffffffffffffffffffffff167fa9059cbb000000000000000000000000000000000000000000000000000000001790526107aa9084906113dc565b60001990565b6001600160a01b03808416600090815260016020908152604080832093861683529083905290205461118e908363ffffffff61159d16565b6001600160a01b03841660009081526020838152604080832093909355600184019052205461120b576002810180546001808201835560008381526020808220909301805473ffffffffffffffffffffffffffffffffffffffff19166001600160a01b038916908117909155935493815290840190915260409020555b604080516001600160a01b0380871682528516602082015280820184905290517f0d66f59c9991adc17dd3339490c5058d2d6fe20395e7b55ceb6ca8019a31667d9181900360600190a150505050565b604080516001600160a01b0385811660248301528416604482015260648082018490528251808303909101815260849091019091526020810180517bffffffffffffffffffffffffffffffffffffffffffffffffffffffff167f23b872dd000000000000000000000000000000000000000000000000000000001790526105bc9085906113dc565b6001600160a01b03811661132b57604051600160e51b62461bcd0281526004018080602001828103825260268152602001806116d16026913960400191505060405180910390fd5b600080546040516001600160a01b03808516939216917f8be0079c531659141344cd1fd0a4f28419497f9722a3daafe3b4186f6b6457e091a36000805473ffffffffffffffffffffffffffffffffffffffff19166001600160a01b0392909216919091179055565b60006113d583836040518060400160405280601e81526020017f536166654d6174683a207375627472616374696f6e206f766572666c6f7700008152506115fa565b9392505050565b6113ee826001600160a01b0316611694565b6114425760408051600160e51b62461bcd02815260206004820152601f60248201527f5361666545524332303a2063616c6c20746f206e6f6e2d636f6e747261637400604482015290519081900360640190fd5b60006060836001600160a01b0316836040518082805190602001908083835b602083106114805780518252601f199092019160209182019101611461565b6001836020036101000a0380198251168184511680821785525050505050509050019150506000604051808303816000865af19150503d80600081146114e2576040519150601f19603f3d011682016040523d82523d6000602084013e6114e7565b606091505b5091509150816115415760408051600160e51b62461bcd02815260206004820181905260248201527f5361666545524332303a206c6f772d6c6576656c2063616c6c206661696c6564604482015290519081900360640190fd5b8051156105bc5780806020019051602081101561155d57600080fd5b50516105bc57604051600160e51b62461bcd02815260040180806020018281038252602a8152602001806117f1602a913960400191505060405180910390fd5b6000828201838110156113d55760408051600160e51b62461bcd02815260206004820152601b60248201527f536166654d6174683a206164646974696f6e206f766572666c6f770000000000604482015290519081900360640190fd5b6000818484111561168c57604051600160e51b62461bcd0281526004018080602001828103825283818151815260200191508051906020019080838360005b83811015611651578181015183820152602001611639565b50505050905090810190601f16801561167e5780820380516001836020036101000a031916815260200191505b509250505060405180910390fd5b505050900390565b6000813f7fc5d2460186f7233c927e7db2dcc703c0e500b653ca82273b7bfad8045d85a47081158015906116c85750808214155b94935050505056fe4f776e61626c653a206e6577206f776e657220697320746865207a65726f206164647265737349737375616e6365457363726f773a20496e73756666696369656e742062616c616e63652e457363726f77426173653a20496e73756666696369656e74204554482042616c616e63652e457363726f77426173653a20496e73756666696369656e7420546f6b656e2042616c616e63652e49737375616e6365457363726f773a2044657374206d757374206265207365742e49737375616e6365457363726f773a20546f6b656e206d757374206265207365742e49737375616e6365457363726f773a20536f75726365206d757374206265207365742e49737375616e6365457363726f773a20416d6f756e74206d757374206265207365742e5361666545524332303a204552433230206f7065726174696f6e20646964206e6f742073756363656564a165627a7a7230582018bd629b6776e3f45b668a9627ec94637416c7904d7eacd31996e0e36f5cb9c3002960806040819052600080546001600160a01b03191633178082556001600160a01b0316917f8be0079c531659141344cd1fd0a4f28419497f9722a3daafe3b4186f6b6457e0908290a36117fb806100576000396000f3fe6080604052600436106100e85760003560e01c80638da5cb5b1161008a578063d0e30db011610059578063d0e30db01461032c578063d8a3073214610334578063f2fde38b146103b7578063f8b2cb4f146103ea576100e8565b80638da5cb5b1461024c5780638f32d59b1461027d5780639e281a98146102a6578063c489744b146102df576100e8565b8063487c3580116100c6578063487c35801461019557806370d97c34146101ce578063715018a6146101f4578063810c0af814610209576100e8565b80632e1a7d4d146100ed578063338b5dea146101195780633d4aa9a914610152575b600080fd5b3480156100f957600080fd5b506101176004803603602081101561011057600080fd5b503561041d565b005b34801561012557600080fd5b506101176004803603604081101561013c57600080fd5b506001600160a01b0381351690602001356104f4565b34801561015e57600080fd5b506101176004803603606081101561017557600080fd5b506001600160a01b0381358116916020810135909116906040013561056b565b3480156101a157600080fd5b50610117600480360360408110156101b857600080fd5b506001600160a01b038135169060200135610758565b610117600480360360208110156101e457600080fd5b50356001600160a01b03166108f3565b34801561020057600080fd5b50610117610a1c565b34801561021557600080fd5b506101176004803603606081101561022c57600080fd5b506001600160a01b03813581169160208101359091169060400135610acf565b34801561025857600080fd5b50610261610c6d565b604080516001600160a01b039092168252519081900360200190f35b34801561028957600080fd5b50610292610c7c565b604080519115158252519081900360200190f35b3480156102b257600080fd5b50610117600480360360408110156102c957600080fd5b506001600160a01b038135169060200135610c8d565b3480156102eb57600080fd5b5061031a6004803603604081101561030257600080fd5b506001600160a01b0381358116916020013516610d4e565b60408051918252519081900360200190f35b610117610d79565b34801561034057600080fd5b506103676004803603602081101561035757600080fd5b50356001600160a01b0316610dca565b60408051602080825283518183015283519192839290830191858101910280838360005b838110156103a357818101518382015260200161038b565b505050509050019250505060405180910390f35b3480156103c357600080fd5b50610117600480360360208110156103da57600080fd5b50356001600160a01b0316610fc3565b3480156103f657600080fd5b5061031a6004803603602081101561040d57600080fd5b50356001600160a01b031661102b565b33816104288261102b565b101561046857604051600160e51b62461bcd02815260040180806020018281038252602781526020018061170d6027913960400191505060405180910390fd5b61047a8161047461106c565b84611072565b6040516001600160a01b0382169083156108fc029084906000818181858888f193505050501580156104b0573d6000803e3d6000fd5b506040805183815290516001600160a01b038316917f7084f5476618d8e60b11ef0d7d3f06914655adb8793e28ff7f018d4c76d505d5919081900360200190a25050565b3361050081848461110c565b61051b6001600160a01b03841682308563ffffffff61121116565b826001600160a01b0316816001600160a01b03167ff1444b5cad7ce70cb018d1b8edc8618fe303f3c7f034d8d572a6e27facbf2bef846040518082815260200191505060405180910390a3505050565b610573610c7c565b6105c75760408051600160e51b62461bcd02815260206004820181905260248201527f4f776e61626c653a2063616c6c6572206973206e6f7420746865206f776e6572604482015290519081900360640190fd5b6001600160a01b0383166106255760408051600160e51b62461bcd02815260206004820181905260248201527f457363726f77426173653a204163636f756e74206d757374206265207365742e604482015290519081900360640190fd5b6001600160a01b0382166106835760408051600160e51b62461bcd02815260206004820152601e60248201527f457363726f77426173653a20546f6b656e206d757374206265207365742e0000604482015290519081900360640190fd5b600081116106db5760408051600160e51b62461bcd02815260206004820152601f60248201527f457363726f77426173653a20416d6f756e74206d757374206265207365742e00604482015290519081900360640190fd5b806106e68484610d4e565b101561072657604051600160e51b62461bcd02815260040180806020018281038252602781526020018061177f6027913960400191505060405180910390fd5b610731838383611072565b61075361073c610c6d565b6001600160a01b038416908363ffffffff61129f16565b505050565b610760610c7c565b6107b45760408051600160e51b62461bcd02815260206004820181905260248201527f4f776e61626c653a2063616c6c6572206973206e6f7420746865206f776e6572604482015290519081900360640190fd5b6001600160a01b0382166108125760408051600160e51b62461bcd02815260206004820181905260248201527f457363726f77426173653a204163636f756e74206d757374206265207365742e604482015290519081900360640190fd5b6000811161086a5760408051600160e51b62461bcd02815260206004820152601f60248201527f457363726f77426173653a20416d6f756e74206d757374206265207365742e00604482015290519081900360640190fd5b806108748361102b565b10156108b457604051600160e51b62461bcd02815260040180806020018281038252602581526020018061175a6025913960400191505060405180910390fd5b6108c6826108c061106c565b83611072565b604051339082156108fc029083906000818181858888f19350505050158015610753573d6000803e3d6000fd5b6108fb610c7c565b61094f5760408051600160e51b62461bcd02815260206004820181905260248201527f4f776e61626c653a2063616c6c6572206973206e6f7420746865206f776e6572604482015290519081900360640190fd5b346001600160a01b0382166109ae5760408051600160e51b62461bcd02815260206004820181905260248201527f457363726f77426173653a204163636f756e74206d757374206265207365742e604482015290519081900360640190fd5b60008111610a065760408051600160e51b62461bcd02815260206004820152601f60248201527f457363726f77426173653a20416d6f756e74206d757374206265207365742e00604482015290519081900360640190fd5b610a1882610a1261106c565b8361110c565b5050565b610a24610c7c565b610a785760408051600160e51b62461bcd02815260206004820181905260248201527f4f776e61626c653a2063616c6c6572206973206e6f7420746865206f776e6572604482015290519081900360640190fd5b600080546040516001600160a01b03909116907f8be0079c531659141344cd1fd0a4f28419497f9722a3daafe3b4186f6b6457e0908390a36000805473ffffffffffffffffffffffffffffffffffffffff19169055565b610ad7610c7c565b610b2b5760408051600160e51b62461bcd02815260206004820181905260248201527f4f776e61626c653a2063616c6c6572206973206e6f7420746865206f776e6572604482015290519081900360640190fd5b6001600160a01b038316610b895760408051600160e51b62461bcd02815260206004820181905260248201527f457363726f77426173653a204163636f756e74206d757374206265207365742e604482015290519081900360640190fd5b6001600160a01b038216610be75760408051600160e51b62461bcd02815260206004820152601e60248201527f457363726f77426173653a20546f6b656e206d757374206265207365742e0000604482015290519081900360640190fd5b60008111610c3f5760408051600160e51b62461bcd02815260206004820152601f60248201527f457363726f77426173653a20416d6f756e74206d757374206265207365742e00604482015290519081900360640190fd5b610c4a83838361110c565b610753610c55610c6d565b6001600160a01b03841690308463ffffffff61121116565b6000546001600160a01b031690565b6000546001600160a01b0316331490565b3381610c998285610d4e565b1015610cd957604051600160e51b62461bcd02815260040180806020018281038252602781526020018061170d6027913960400191505060405180910390fd5b610ce4818484611072565b610cfe6001600160a01b038416828463ffffffff61129f16565b826001600160a01b0316816001600160a01b03167f8210728e7c071f615b840ee026032693858fbcd5e5359e67e438c890f59e5620846040518082815260200191505060405180910390a3505050565b6001600160a01b03918216600090815260016020908152604080832093909416825291909152205490565b3334610d8782610a1261106c565b6040805182815290516001600160a01b038416917f2da466a7b24304f47e87fa2e1e5a81b9831ce54fec19055ce277ca2f39ba42c4919081900360200190a25050565b6001600160a01b0381166000908152600160205260408120606091600290910190610df361106c565b90506000805b8354811015610e9957826001600160a01b0316848281548110610e1857fe5b6000918252602090912001546001600160a01b031614801590610e8557506001600160a01b038616600090815260016020526040812085548290879085908110610e5e57fe5b60009182526020808320909101546001600160a01b03168352820192909252604001902054115b15610e91576001909101905b600101610df9565b5080604051908082528060200260200182016040528015610ec4578160200160208202803883390190505b5093506000805b8454811015610fb957836001600160a01b0316858281548110610eea57fe5b6000918252602090912001546001600160a01b031614801590610f5757506001600160a01b038716600090815260016020526040812086548290889085908110610f3057fe5b60009182526020808320909101546001600160a01b03168352820192909252604001902054115b15610fb157848181548110610f6857fe5b9060005260206000200160009054906101000a90046001600160a01b0316868381518110610f9257fe5b6001600160a01b03909216602092830291909101909101526001909101905b600101610ecb565b5050505050919050565b610fcb610c7c565b61101f5760408051600160e51b62461bcd02815260206004820181905260248201527f4f776e61626c653a2063616c6c6572206973206e6f7420746865206f776e6572604482015290519081900360640190fd5b6110288161131f565b50565b6001600160a01b03811660009081526001602052604081208161104c61106c565b6001600160a01b0316815260208101919091526040016000205492915050565b60001990565b6001600160a01b0380841660009081526001602090815260408083209386168352908390529020546110aa908363ffffffff6113cf16565b6001600160a01b038085166000818152602085815260409182902094909455805192881683529282015280820184905290517f6ac2cd906088d873624fa62ca95170d967629e7d964651df19a3aa2e49b44aa19181900360600190a150505050565b6001600160a01b038084166000908152600160209081526040808320938616835290839052902054611144908363ffffffff61141816565b6001600160a01b0384166000908152602083815260408083209390935560018401905220546111c1576002810180546001808201835560008381526020808220909301805473ffffffffffffffffffffffffffffffffffffffff19166001600160a01b038916908117909155935493815290840190915260409020555b604080516001600160a01b0380871682528516602082015280820184905290517f0d66f59c9991adc17dd3339490c5058d2d6fe20395e7b55ceb6ca8019a31667d9181900360600190a150505050565b604080516001600160a01b0385811660248301528416604482015260648082018490528251808303909101815260849091019091526020810180517bffffffffffffffffffffffffffffffffffffffffffffffffffffffff167f23b872dd00000000000000000000000000000000000000000000000000000000179052611299908590611475565b50505050565b604080516001600160a01b038416602482015260448082018490528251808303909101815260649091019091526020810180517bffffffffffffffffffffffffffffffffffffffffffffffffffffffff167fa9059cbb00000000000000000000000000000000000000000000000000000000179052610753908490611475565b6001600160a01b03811661136757604051600160e51b62461bcd0281526004018080602001828103825260268152602001806117346026913960400191505060405180910390fd5b600080546040516001600160a01b03808516939216917f8be0079c531659141344cd1fd0a4f28419497f9722a3daafe3b4186f6b6457e091a36000805473ffffffffffffffffffffffffffffffffffffffff19166001600160a01b0392909216919091179055565b600061141183836040518060400160405280601e81526020017f536166654d6174683a207375627472616374696f6e206f766572666c6f770000815250611636565b9392505050565b6000828201838110156114115760408051600160e51b62461bcd02815260206004820152601b60248201527f536166654d6174683a206164646974696f6e206f766572666c6f770000000000604482015290519081900360640190fd5b611487826001600160a01b03166116d0565b6114db5760408051600160e51b62461bcd02815260206004820152601f60248201527f5361666545524332303a2063616c6c20746f206e6f6e2d636f6e747261637400604482015290519081900360640190fd5b60006060836001600160a01b0316836040518082805190602001908083835b602083106115195780518252601f1990920191602091820191016114fa565b6001836020036101000a0380198251168184511680821785525050505050509050019150506000604051808303816000865af19150503d806000811461157b576040519150601f19603f3d011682016040523d82523d6000602084013e611580565b606091505b5091509150816115da5760408051600160e51b62461bcd02815260206004820181905260248201527f5361666545524332303a206c6f772d6c6576656c2063616c6c206661696c6564604482015290519081900360640190fd5b805115611299578080602001905160208110156115f657600080fd5b505161129957604051600160e51b62461bcd02815260040180806020018281038252602a8152602001806117a6602a913960400191505060405180910390fd5b600081848411156116c857604051600160e51b62461bcd0281526004018080602001828103825283818151815260200191508051906020019080838360005b8381101561168d578181015183820152602001611675565b50505050905090810190601f1680156116ba5780820380516001836020036101000a031916815260200191505b509250505060405180910390fd5b505050900390565b6000813f7fc5d2460186f7233c927e7db2dcc703c0e500b653ca82273b7bfad8045d85a47081158015906117045750808214155b94935050505056fe496e737472756d656e74457363726f773a20496e73756666696369656e742062616c616e63652e4f776e61626c653a206e6577206f776e657220697320746865207a65726f2061646472657373457363726f77426173653a20496e73756666696369656e74204554482042616c616e63652e457363726f77426173653a20496e73756666696369656e7420546f6b656e2042616c616e63652e5361666545524332303a204552433230206f7065726174696f6e20646964206e6f742073756363656564a165627a7a7230582040043035adada9c99c805f703cd6a720f0ef3f2f7bf32ef854615d6dcfbd56f60029a165627a7a72305820faaee768f5e58643ef75b59e061ecb58d2d2a343f9b0b19964ac746056efd0b20029",
  "source": "pragma solidity ^0.5.0;\n\nimport \"./EscrowFactoryInterface.sol\";\nimport \"./IssuanceEscrow.sol\";\nimport \"./IssuanceEscrowInterface.sol\";\nimport \"./InstrumentEscrow.sol\";\nimport \"./InstrumentEscrowInterface.sol\";\nimport \"./DepositEscrowInterface.sol\";\n\n/**\n * @title Escrow Factory. This should be a singleton in NUTS Platform.\n */\ncontract EscrowFactory is EscrowFactoryInterface {\n\n    /**\n     * @dev Create new Deposit Escrow instance.\n     * Deposit Escrow has the same implementation as Instrument Escrow, but uses a\n     * different contract name to better distinguish their difference.\n     */\n    function createDepositEscrow() external returns (DepositEscrowInterface) {\n        InstrumentEscrow depositEscrow = new InstrumentEscrow();\n        depositEscrow.transferOwnership(msg.sender);\n\n        return depositEscrow;\n    }\n\n    /**\n     * @dev Create new Instrument Escrow instance.\n     */\n    function createInstrumentEscrow() public returns (InstrumentEscrowInterface) {\n        InstrumentEscrow instrumentEscrow = new InstrumentEscrow();\n        instrumentEscrow.transferOwnership(msg.sender);\n\n        return instrumentEscrow;\n    }\n\n    /**\n     * @dev Creates new Issuance Escrow intance.\n     */\n    function createIssuanceEscrow() public returns (IssuanceEscrowInterface) {\n        IssuanceEscrow issuanceEscrow = new IssuanceEscrow();\n        issuanceEscrow.transferOwnership(msg.sender);\n\n        return issuanceEscrow;\n    }\n}",
  "sourcePath": "/Users/shengdading/git/nuts-platform-v2/contracts/escrow/EscrowFactory.sol",
  "compiler": {
    "name": "solc",
    "version": "0.5.8+commit.23d335f2.Emscripten.clang"
  },
  "schemaVersion": "3.0.16",
  "updatedAt": "2019-10-16T02:07:15.572Z",
  "devdoc": {
    "methods": {
      "createDepositEscrow()": {
        "details": "Create new Deposit Escrow instance. Deposit Escrow has the same implementation as Instrument Escrow, but uses a different contract name to better distinguish their difference."
      },
      "createInstrumentEscrow()": {
        "details": "Create new Instrument Escrow instance."
      },
      "createIssuanceEscrow()": {
        "details": "Creates new Issuance Escrow intance."
      }
    },
    "title": "Escrow Factory. This should be a singleton in NUTS Platform."
  },
  "userdoc": {
    "methods": {}
  }
}