{
  "contractName": "EscrowBase",
  "abi": [
    {
      "constant": false,
      "inputs": [],
      "name": "renounceOwnership",
      "outputs": [],
      "payable": false,
      "stateMutability": "nonpayable",
      "type": "function"
    },
    {
      "constant": true,
      "inputs": [],
      "name": "owner",
      "outputs": [
        {
          "name": "",
          "type": "address"
        }
      ],
      "payable": false,
      "stateMutability": "view",
      "type": "function"
    },
    {
      "constant": true,
      "inputs": [],
      "name": "isOwner",
      "outputs": [
        {
          "name": "",
          "type": "bool"
        }
      ],
      "payable": false,
      "stateMutability": "view",
      "type": "function"
    },
    {
      "constant": false,
      "inputs": [
        {
          "name": "newOwner",
          "type": "address"
        }
      ],
      "name": "transferOwnership",
      "outputs": [],
      "payable": false,
      "stateMutability": "nonpayable",
      "type": "function"
    },
    {
      "anonymous": false,
      "inputs": [
        {
          "indexed": false,
          "name": "account",
          "type": "address"
        },
        {
          "indexed": false,
          "name": "token",
          "type": "address"
        },
        {
          "indexed": false,
          "name": "amount",
          "type": "uint256"
        }
      ],
      "name": "BalanceIncreased",
      "type": "event"
    },
    {
      "anonymous": false,
      "inputs": [
        {
          "indexed": false,
          "name": "account",
          "type": "address"
        },
        {
          "indexed": false,
          "name": "token",
          "type": "address"
        },
        {
          "indexed": false,
          "name": "amount",
          "type": "uint256"
        }
      ],
      "name": "BalanceDecreased",
      "type": "event"
    },
    {
      "anonymous": false,
      "inputs": [
        {
          "indexed": true,
          "name": "previousOwner",
          "type": "address"
        },
        {
          "indexed": true,
          "name": "newOwner",
          "type": "address"
        }
      ],
      "name": "OwnershipTransferred",
      "type": "event"
    },
    {
      "constant": true,
      "inputs": [
        {
          "name": "account",
          "type": "address"
        }
      ],
      "name": "getBalance",
      "outputs": [
        {
          "name": "",
          "type": "uint256"
        }
      ],
      "payable": false,
      "stateMutability": "view",
      "type": "function"
    },
    {
      "constant": true,
      "inputs": [
        {
          "name": "account",
          "type": "address"
        },
        {
          "name": "token",
          "type": "address"
        }
      ],
      "name": "getTokenBalance",
      "outputs": [
        {
          "name": "",
          "type": "uint256"
        }
      ],
      "payable": false,
      "stateMutability": "view",
      "type": "function"
    },
    {
      "constant": true,
      "inputs": [
        {
          "name": "account",
          "type": "address"
        }
      ],
      "name": "getTokenList",
      "outputs": [
        {
          "name": "tokens",
          "type": "address[]"
        }
      ],
      "payable": false,
      "stateMutability": "view",
      "type": "function"
    },
    {
      "constant": false,
      "inputs": [
        {
          "name": "account",
          "type": "address"
        }
      ],
      "name": "depositByAdmin",
      "outputs": [],
      "payable": true,
      "stateMutability": "payable",
      "type": "function"
    },
    {
      "constant": false,
      "inputs": [
        {
          "name": "account",
          "type": "address"
        },
        {
          "name": "token",
          "type": "address"
        },
        {
          "name": "amount",
          "type": "uint256"
        }
      ],
      "name": "depositTokenByAdmin",
      "outputs": [],
      "payable": false,
      "stateMutability": "nonpayable",
      "type": "function"
    },
    {
      "constant": false,
      "inputs": [
        {
          "name": "account",
          "type": "address"
        },
        {
          "name": "amount",
          "type": "uint256"
        }
      ],
      "name": "withdrawByAdmin",
      "outputs": [],
      "payable": false,
      "stateMutability": "nonpayable",
      "type": "function"
    },
    {
      "constant": false,
      "inputs": [
        {
          "name": "account",
          "type": "address"
        },
        {
          "name": "token",
          "type": "address"
        },
        {
          "name": "amount",
          "type": "uint256"
        }
      ],
      "name": "withdrawTokenByAdmin",
      "outputs": [],
      "payable": false,
      "stateMutability": "nonpayable",
      "type": "function"
    }
  ],
  "bytecode": "0x60806040819052600080546001600160a01b03191633178082556001600160a01b0316917f8be0079c531659141344cd1fd0a4f28419497f9722a3daafe3b4186f6b6457e0908290a36114a4806100576000396000f3fe6080604052600436106100bc5760003560e01c80638da5cb5b11610074578063d8a307321161004e578063d8a3073214610264578063f2fde38b146102e7578063f8b2cb4f1461031a576100bc565b80638da5cb5b146101bd5780638f32d59b146101ee578063c489744b14610217576100bc565b806370d97c34116100a557806370d97c341461013f578063715018a614610165578063810c0af81461017a576100bc565b80633d4aa9a9146100c1578063487c358014610106575b600080fd5b3480156100cd57600080fd5b50610104600480360360608110156100e457600080fd5b506001600160a01b0381358116916020810135909116906040013561034d565b005b34801561011257600080fd5b506101046004803603604081101561012957600080fd5b506001600160a01b03813516906020013561053a565b6101046004803603602081101561015557600080fd5b50356001600160a01b03166106d5565b34801561017157600080fd5b506101046107fe565b34801561018657600080fd5b506101046004803603606081101561019d57600080fd5b506001600160a01b038135811691602081013590911690604001356108b1565b3480156101c957600080fd5b506101d2610a4f565b604080516001600160a01b039092168252519081900360200190f35b3480156101fa57600080fd5b50610203610a5e565b604080519115158252519081900360200190f35b34801561022357600080fd5b506102526004803603604081101561023a57600080fd5b506001600160a01b0381358116916020013516610a6f565b60408051918252519081900360200190f35b34801561027057600080fd5b506102976004803603602081101561028757600080fd5b50356001600160a01b0316610a9a565b60408051602080825283518183015283519192839290830191858101910280838360005b838110156102d35781810151838201526020016102bb565b505050509050019250505060405180910390f35b3480156102f357600080fd5b506101046004803603602081101561030a57600080fd5b50356001600160a01b0316610c93565b34801561032657600080fd5b506102526004803603602081101561033d57600080fd5b50356001600160a01b0316610cfb565b610355610a5e565b6103a95760408051600160e51b62461bcd02815260206004820181905260248201527f4f776e61626c653a2063616c6c6572206973206e6f7420746865206f776e6572604482015290519081900360640190fd5b6001600160a01b0383166104075760408051600160e51b62461bcd02815260206004820181905260248201527f457363726f77426173653a204163636f756e74206d757374206265207365742e604482015290519081900360640190fd5b6001600160a01b0382166104655760408051600160e51b62461bcd02815260206004820152601e60248201527f457363726f77426173653a20546f6b656e206d757374206265207365742e0000604482015290519081900360640190fd5b600081116104bd5760408051600160e51b62461bcd02815260206004820152601f60248201527f457363726f77426173653a20416d6f756e74206d757374206265207365742e00604482015290519081900360640190fd5b806104c88484610a6f565b101561050857604051600160e51b62461bcd0281526004018080602001828103825260278152602001806114286027913960400191505060405180910390fd5b610513838383610d3c565b61053561051e610a4f565b6001600160a01b038416908363ffffffff610dd616565b505050565b610542610a5e565b6105965760408051600160e51b62461bcd02815260206004820181905260248201527f4f776e61626c653a2063616c6c6572206973206e6f7420746865206f776e6572604482015290519081900360640190fd5b6001600160a01b0382166105f45760408051600160e51b62461bcd02815260206004820181905260248201527f457363726f77426173653a204163636f756e74206d757374206265207365742e604482015290519081900360640190fd5b6000811161064c5760408051600160e51b62461bcd02815260206004820152601f60248201527f457363726f77426173653a20416d6f756e74206d757374206265207365742e00604482015290519081900360640190fd5b8061065683610cfb565b101561069657604051600160e51b62461bcd0281526004018080602001828103825260258152602001806114036025913960400191505060405180910390fd5b6106a8826106a2610e56565b83610d3c565b604051339082156108fc029083906000818181858888f19350505050158015610535573d6000803e3d6000fd5b6106dd610a5e565b6107315760408051600160e51b62461bcd02815260206004820181905260248201527f4f776e61626c653a2063616c6c6572206973206e6f7420746865206f776e6572604482015290519081900360640190fd5b346001600160a01b0382166107905760408051600160e51b62461bcd02815260206004820181905260248201527f457363726f77426173653a204163636f756e74206d757374206265207365742e604482015290519081900360640190fd5b600081116107e85760408051600160e51b62461bcd02815260206004820152601f60248201527f457363726f77426173653a20416d6f756e74206d757374206265207365742e00604482015290519081900360640190fd5b6107fa826107f4610e56565b83610e5c565b5050565b610806610a5e565b61085a5760408051600160e51b62461bcd02815260206004820181905260248201527f4f776e61626c653a2063616c6c6572206973206e6f7420746865206f776e6572604482015290519081900360640190fd5b600080546040516001600160a01b03909116907f8be0079c531659141344cd1fd0a4f28419497f9722a3daafe3b4186f6b6457e0908390a36000805473ffffffffffffffffffffffffffffffffffffffff19169055565b6108b9610a5e565b61090d5760408051600160e51b62461bcd02815260206004820181905260248201527f4f776e61626c653a2063616c6c6572206973206e6f7420746865206f776e6572604482015290519081900360640190fd5b6001600160a01b03831661096b5760408051600160e51b62461bcd02815260206004820181905260248201527f457363726f77426173653a204163636f756e74206d757374206265207365742e604482015290519081900360640190fd5b6001600160a01b0382166109c95760408051600160e51b62461bcd02815260206004820152601e60248201527f457363726f77426173653a20546f6b656e206d757374206265207365742e0000604482015290519081900360640190fd5b60008111610a215760408051600160e51b62461bcd02815260206004820152601f60248201527f457363726f77426173653a20416d6f756e74206d757374206265207365742e00604482015290519081900360640190fd5b610a2c838383610e5c565b610535610a37610a4f565b6001600160a01b03841690308463ffffffff610f6116565b6000546001600160a01b031690565b6000546001600160a01b0316331490565b6001600160a01b03918216600090815260016020908152604080832093909416825291909152205490565b6001600160a01b0381166000908152600160205260408120606091600290910190610ac3610e56565b90506000805b8354811015610b6957826001600160a01b0316848281548110610ae857fe5b6000918252602090912001546001600160a01b031614801590610b5557506001600160a01b038616600090815260016020526040812085548290879085908110610b2e57fe5b60009182526020808320909101546001600160a01b03168352820192909252604001902054115b15610b61576001909101905b600101610ac9565b5080604051908082528060200260200182016040528015610b94578160200160208202803883390190505b5093506000805b8454811015610c8957836001600160a01b0316858281548110610bba57fe5b6000918252602090912001546001600160a01b031614801590610c2757506001600160a01b038716600090815260016020526040812086548290889085908110610c0057fe5b60009182526020808320909101546001600160a01b03168352820192909252604001902054115b15610c8157848181548110610c3857fe5b9060005260206000200160009054906101000a90046001600160a01b0316868381518110610c6257fe5b6001600160a01b03909216602092830291909101909101526001909101905b600101610b9b565b5050505050919050565b610c9b610a5e565b610cef5760408051600160e51b62461bcd02815260206004820181905260248201527f4f776e61626c653a2063616c6c6572206973206e6f7420746865206f776e6572604482015290519081900360640190fd5b610cf881610fef565b50565b6001600160a01b038116600090815260016020526040812081610d1c610e56565b6001600160a01b0316815260208101919091526040016000205492915050565b6001600160a01b038084166000908152600160209081526040808320938616835290839052902054610d74908363ffffffff61109f16565b6001600160a01b038085166000818152602085815260409182902094909455805192881683529282015280820184905290517f6ac2cd906088d873624fa62ca95170d967629e7d964651df19a3aa2e49b44aa19181900360600190a150505050565b604080516001600160a01b038416602482015260448082018490528251808303909101815260649091019091526020810180517bffffffffffffffffffffffffffffffffffffffffffffffffffffffff167fa9059cbb000000000000000000000000000000000000000000000000000000001790526105359084906110e8565b60001990565b6001600160a01b038084166000908152600160209081526040808320938616835290839052902054610e94908363ffffffff6112a916565b6001600160a01b038416600090815260208381526040808320939093556001840190522054610f11576002810180546001808201835560008381526020808220909301805473ffffffffffffffffffffffffffffffffffffffff19166001600160a01b038916908117909155935493815290840190915260409020555b604080516001600160a01b0380871682528516602082015280820184905290517f0d66f59c9991adc17dd3339490c5058d2d6fe20395e7b55ceb6ca8019a31667d9181900360600190a150505050565b604080516001600160a01b0385811660248301528416604482015260648082018490528251808303909101815260849091019091526020810180517bffffffffffffffffffffffffffffffffffffffffffffffffffffffff167f23b872dd00000000000000000000000000000000000000000000000000000000179052610fe99085906110e8565b50505050565b6001600160a01b03811661103757604051600160e51b62461bcd0281526004018080602001828103825260268152602001806113dd6026913960400191505060405180910390fd5b600080546040516001600160a01b03808516939216917f8be0079c531659141344cd1fd0a4f28419497f9722a3daafe3b4186f6b6457e091a36000805473ffffffffffffffffffffffffffffffffffffffff19166001600160a01b0392909216919091179055565b60006110e183836040518060400160405280601e81526020017f536166654d6174683a207375627472616374696f6e206f766572666c6f770000815250611306565b9392505050565b6110fa826001600160a01b03166113a0565b61114e5760408051600160e51b62461bcd02815260206004820152601f60248201527f5361666545524332303a2063616c6c20746f206e6f6e2d636f6e747261637400604482015290519081900360640190fd5b60006060836001600160a01b0316836040518082805190602001908083835b6020831061118c5780518252601f19909201916020918201910161116d565b6001836020036101000a0380198251168184511680821785525050505050509050019150506000604051808303816000865af19150503d80600081146111ee576040519150601f19603f3d011682016040523d82523d6000602084013e6111f3565b606091505b50915091508161124d5760408051600160e51b62461bcd02815260206004820181905260248201527f5361666545524332303a206c6f772d6c6576656c2063616c6c206661696c6564604482015290519081900360640190fd5b805115610fe95780806020019051602081101561126957600080fd5b5051610fe957604051600160e51b62461bcd02815260040180806020018281038252602a81526020018061144f602a913960400191505060405180910390fd5b6000828201838110156110e15760408051600160e51b62461bcd02815260206004820152601b60248201527f536166654d6174683a206164646974696f6e206f766572666c6f770000000000604482015290519081900360640190fd5b6000818484111561139857604051600160e51b62461bcd0281526004018080602001828103825283818151815260200191508051906020019080838360005b8381101561135d578181015183820152602001611345565b50505050905090810190601f16801561138a5780820380516001836020036101000a031916815260200191505b509250505060405180910390fd5b505050900390565b6000813f7fc5d2460186f7233c927e7db2dcc703c0e500b653ca82273b7bfad8045d85a47081158015906113d45750808214155b94935050505056fe4f776e61626c653a206e6577206f776e657220697320746865207a65726f2061646472657373457363726f77426173653a20496e73756666696369656e74204554482042616c616e63652e457363726f77426173653a20496e73756666696369656e7420546f6b656e2042616c616e63652e5361666545524332303a204552433230206f7065726174696f6e20646964206e6f742073756363656564a165627a7a72305820131b58ed0a6b20fd2bbecaa8cad1ecd8138382df0ce6504ef473ee6e6a06320b0029",
  "source": "pragma solidity ^0.5.0;\n\nimport \"../lib/math/SafeMath.sol\";\nimport \"../lib/token/IERC20.sol\";\nimport \"../lib/token/SafeERC20.sol\";\nimport \"../lib/access/Ownable.sol\";\nimport \"../lib/util/Constants.sol\";\nimport \"./EscrowBaseInterface.sol\";\n\n/**\n * @title Base contract for both instrument and issuance escrow.\n */\ncontract EscrowBase is EscrowBaseInterface, Ownable {\n    /**\n     * Balance is increased.\n     */\n    event BalanceIncreased(address account, address token, uint256 amount);\n\n    /**\n     * Balance is decreased.\n     */\n    event BalanceDecreased(address account, address token, uint256 amount);\n\n    using SafeMath for uint256;\n    using SafeERC20 for IERC20;\n\n    /**\n     * @dev Struct to store the balances of one account.\n     */\n    struct AccountBalance {\n        // Mapping: ERC20 token address => ERC20 token amount.\n        // ETH is treated specially with adress Constants.getEthAddress()\n        mapping(address => uint256) tokenBalances;\n        // Mapping: ERC20 token address => ERC20 token address index in the token list.\n        // Note: The index starts with 1.\n        mapping(address => uint256) tokenIndeces;\n        // Token address list. Should not have any duplicate.\n        address[] tokenList;\n    }\n\n    /**\n     * Mapping: Account address => Account balances\n     */\n    mapping(address => AccountBalance) _accountBalances;\n\n    /*******************************************************\n     * Implements methods defined in EscrowBaseInterface.\n     *******************************************************/\n\n    /**\n     * @dev Get the current ETH balance of an account in the escrow.\n     * @param account The account to check ETH balance.\n     * @return Current ETH balance of the account.\n     */\n    function getBalance(address account) public view returns (uint256) {\n        return _accountBalances[account].tokenBalances[Constants.getEthAddress()];\n    }\n\n    /**\n     * @dev Get the balance of the requested IERC20 token in the escrow.\n     * @param account The address to check IERC20 balance.\n     * @param token The IERC20 token to check balance.\n     * @return The balance of the account.\n     */\n    function getTokenBalance(address account, IERC20 token) public view returns (uint256) {\n        return _accountBalances[account].tokenBalances[address(token)];\n    }\n\n    /**\n     * @dev Get the list of tokens that are deposited in the escrow.\n     * @param account The address to check the deposited token list.\n     * @return The list of tokens deposited in the escrow.\n     */\n    function getTokenList(address account) public view returns (address[] memory tokens) {\n        address[] storage tokenList = _accountBalances[account].tokenList;\n        address ethAddress = Constants.getEthAddress();\n        uint256 tokenCount = 0;\n\n        // We don't return ETH or token whose balance is 0!\n        for (uint256 i = 0; i < tokenList.length; i++) {\n            if (tokenList[i] != ethAddress && _accountBalances[account].tokenBalances[tokenList[i]] > 0) {\n                tokenCount++;\n            }\n        }\n        tokens = new address[](tokenCount);\n        uint256 j = 0;\n        for (uint i = 0; i < tokenList.length; i++) {\n            if (tokenList[i] != ethAddress && _accountBalances[account].tokenBalances[tokenList[i]] > 0) {\n                tokens[j] = tokenList[i];\n                j++;\n            }\n        }\n    }\n\n    /****************************************************************\n     * Public methods for Instrument Manager.\n     ***************************************************************/\n\n    /**\n     * @dev Deposits ETH from Instrument Manager into an account.\n     * @param account The account to deposit ETH.\n     */\n    function depositByAdmin(address account) public payable onlyOwner {\n        uint256 amount = msg.value;\n        require(account != address(0x0), \"EscrowBase: Account must be set.\");\n        require(amount > 0, \"EscrowBase: Amount must be set.\");\n\n        _addToBalance(account, Constants.getEthAddress(), amount);\n    }\n\n    /**\n     * @dev Deposits ERC20 tokens from Instrument Manager into an account.\n     * Note: The owner, i.e. Instrument Manager must set the allowance before hand.\n     * @param account The account to deposit ERC20 tokens.\n     * @param token The ERC20 token to deposit.\n     * @param amount The amount of ERC20 token to deposit.\n     */\n    function depositTokenByAdmin(address account, address token, uint256 amount) public onlyOwner {\n        require(account != address(0x0), \"EscrowBase: Account must be set.\");\n        require(token != address(0x0), \"EscrowBase: Token must be set.\");\n        require(amount > 0, \"EscrowBase: Amount must be set.\");\n\n        _addToBalance(account, token, amount);\n\n        IERC20(token).safeTransferFrom(owner(), address(this), amount);\n    }\n\n    /**\n     * @dev Withdraw ETH from an account to Instrument Manager.\n     * @param account The account to withdraw ETH.\n     * @param amount The amount of ETH to withdraw.\n     */\n    function withdrawByAdmin(address account, uint256 amount) public onlyOwner {\n        require(account != address(0x0), \"EscrowBase: Account must be set.\");\n        require(amount > 0, \"EscrowBase: Amount must be set.\");\n        require(getBalance(account) >= amount, \"EscrowBase: Insufficient ETH Balance.\");\n\n        _reduceFromBalance(account, Constants.getEthAddress(), amount);\n\n        msg.sender.transfer(amount);\n    }\n\n    /**\n     * @dev Withdraw ERC20 token from an account to Instrument Manager.\n     * The transfer action is done inside this function.\n     * @param account The account to withdraw ERC20 token.\n     * @param token The ERC20 token to withdraw.\n     * @param amount The amount of ERC20 tokens to withdraw.\n     */\n    function withdrawTokenByAdmin(address account, address token, uint256 amount) public onlyOwner {\n        require(account != address(0x0), \"EscrowBase: Account must be set.\");\n        require(token != address(0x0), \"EscrowBase: Token must be set.\");\n        require(amount > 0, \"EscrowBase: Amount must be set.\");\n        require(getTokenBalance(account, IERC20(token)) >= amount, \"EscrowBase: Insufficient Token Balance.\");\n\n        _reduceFromBalance(account, token, amount);\n\n        IERC20(token).safeTransfer(owner(), amount);\n    }\n\n    /****************************************************************\n     * Internal methods shared by Instrument and Issuance Escrows.\n     ***************************************************************/\n\n    /**\n     * @dev Add more tokens to the account's balance.\n     * @param account The account to add balance.\n     * @param token The token to add to the balance.\n     * @param amount The amount to add to the balance.\n     */\n    function _addToBalance(address account, address token, uint256 amount) internal {\n        AccountBalance storage accountBalance = _accountBalances[account];\n        accountBalance.tokenBalances[token] = accountBalance.tokenBalances[token].add(amount);\n\n        // If the token is not in the token list, add it\n        if (accountBalance.tokenIndeces[token] == 0) {\n            accountBalance.tokenList.push(token);\n            accountBalance.tokenIndeces[token] = accountBalance.tokenList.length;\n        }\n\n        emit BalanceIncreased(account, token, amount);\n    }\n\n    /**\n     * @dev Reduce tokens from the account's balance.\n     * @param account The account to reduce balance.\n     * @param token The token to reduce from the balance.\n     * @param amount The amount to reduce from the balance.\n     */\n    function _reduceFromBalance(address account, address token, uint256 amount) internal {\n        AccountBalance storage accountBalance = _accountBalances[account];\n        accountBalance.tokenBalances[token] = accountBalance.tokenBalances[token].sub(amount);\n\n        emit BalanceDecreased(account, token, amount);\n    }\n\n    /**\n     * @dev Transfer the ownership of tokens in the escrow.\n     * @param source The current account that owns the tokens.\n     * @param dest The target account that will own the tokens.\n     * @param token The token to transfer.\n     * @param amount The amount to transfer.\n     */\n    function _migrateBalance(address source, address dest, address token, uint256 amount) internal {\n        _reduceFromBalance(source, token, amount);\n        _addToBalance(dest, token, amount);\n    }\n}\n",
  "sourcePath": "/Users/shengdading/git/nuts-platform-v2/contracts/escrow/EscrowBase.sol",
  "compiler": {
    "name": "solc",
    "version": "0.5.8+commit.23d335f2.Emscripten.clang"
  },
  "schemaVersion": "3.0.16",
  "updatedAt": "2019-10-16T02:07:15.564Z",
  "devdoc": {
    "methods": {
      "depositByAdmin(address)": {
        "details": "Deposits ETH from Instrument Manager into an account.",
        "params": {
          "account": "The account to deposit ETH."
        }
      },
      "depositTokenByAdmin(address,address,uint256)": {
        "details": "Deposits ERC20 tokens from Instrument Manager into an account. Note: The owner, i.e. Instrument Manager must set the allowance before hand.",
        "params": {
          "account": "The account to deposit ERC20 tokens.",
          "amount": "The amount of ERC20 token to deposit.",
          "token": "The ERC20 token to deposit."
        }
      },
      "getBalance(address)": {
        "details": "Get the current ETH balance of an account in the escrow.",
        "params": {
          "account": "The account to check ETH balance."
        },
        "return": "Current ETH balance of the account."
      },
      "getTokenBalance(address,address)": {
        "details": "Get the balance of the requested IERC20 token in the escrow.",
        "params": {
          "account": "The address to check IERC20 balance.",
          "token": "The IERC20 token to check balance."
        },
        "return": "The balance of the account."
      },
      "getTokenList(address)": {
        "details": "Get the list of tokens that are deposited in the escrow.",
        "params": {
          "account": "The address to check the deposited token list."
        },
        "return": "The list of tokens deposited in the escrow."
      },
      "isOwner()": {
        "details": "Returns true if the caller is the current owner."
      },
      "owner()": {
        "details": "Returns the address of the current owner."
      },
      "renounceOwnership()": {
        "details": "Leaves the contract without owner. It will not be possible to call `onlyOwner` functions anymore. Can only be called by the current owner.     * NOTE: Renouncing ownership will leave the contract without an owner, thereby removing any functionality that is only available to the owner."
      },
      "transferOwnership(address)": {
        "details": "Transfers ownership of the contract to a new account (`newOwner`). Can only be called by the current owner."
      },
      "withdrawByAdmin(address,uint256)": {
        "details": "Withdraw ETH from an account to Instrument Manager.",
        "params": {
          "account": "The account to withdraw ETH.",
          "amount": "The amount of ETH to withdraw."
        }
      },
      "withdrawTokenByAdmin(address,address,uint256)": {
        "details": "Withdraw ERC20 token from an account to Instrument Manager. The transfer action is done inside this function.",
        "params": {
          "account": "The account to withdraw ERC20 token.",
          "amount": "The amount of ERC20 tokens to withdraw.",
          "token": "The ERC20 token to withdraw."
        }
      }
    },
    "title": "Base contract for both instrument and issuance escrow."
  },
  "userdoc": {
    "methods": {}
  }
}