{
  "contractName": "EscrowFactory",
  "abi": [
    {
      "inputs": [],
      "payable": false,
      "stateMutability": "nonpayable",
      "type": "constructor"
    },
    {
      "constant": false,
      "inputs": [
        {
          "name": "proxyAdmin",
          "type": "address"
        },
        {
          "name": "owner",
          "type": "address"
        }
      ],
      "name": "createDepositEscrow",
      "outputs": [
        {
          "name": "",
          "type": "address"
        }
      ],
      "payable": false,
      "stateMutability": "nonpayable",
      "type": "function"
    },
    {
      "constant": false,
      "inputs": [
        {
          "name": "proxyAdmin",
          "type": "address"
        },
        {
          "name": "owner",
          "type": "address"
        }
      ],
      "name": "createInstrumentEscrow",
      "outputs": [
        {
          "name": "",
          "type": "address"
        }
      ],
      "payable": false,
      "stateMutability": "nonpayable",
      "type": "function"
    },
    {
      "constant": false,
      "inputs": [
        {
          "name": "proxyAdmin",
          "type": "address"
        },
        {
          "name": "owner",
          "type": "address"
        }
      ],
      "name": "createIssuanceEscrow",
      "outputs": [
        {
          "name": "",
          "type": "address"
        }
      ],
      "payable": false,
      "stateMutability": "nonpayable",
      "type": "function"
    }
  ],
  "bytecode": "0x608060405234801561001057600080fd5b5060405161001d906100a8565b604051809103906000f080158015610039573d6000803e3d6000fd5b50600080546001600160a01b0319166001600160a01b0392909216919091179055604051610066906100b5565b604051809103906000f080158015610082573d6000803e3d6000fd5b50600180546001600160a01b0319166001600160a01b03929092169190911790556100c2565b6118f880610d5583390190565b6119438061264d83390190565b610c84806100d16000396000f3fe608060405234801561001057600080fd5b50600436106100415760003560e01c806347c72c701461004657806393f99e1914610090578063bead0a6c14610090575b600080fd5b6100746004803603604081101561005c57600080fd5b506001600160a01b03813581169160200135166100be565b604080516001600160a01b039092168252519081900360200190f35b610074600480360360408110156100a657600080fd5b506001600160a01b038135811691602001351661022d565b60015460408051600080825260208201909252909182916001600160a01b03909116908590835b506040516100f290610253565b80846001600160a01b03166001600160a01b03168152602001836001600160a01b03166001600160a01b0316815260200180602001828103825283818151815260200191508051906020019080838360005b8381101561015c578181015183820152602001610144565b50505050905090810190601f1680156101895780820380516001836020036101000a031916815260200191505b50945050505050604051809103906000f0801580156101ac573d6000803e3d6000fd5b5090506000819050806001600160a01b031663c4d66de8856040518263ffffffff1660e01b815260040180826001600160a01b03166001600160a01b03168152602001915050600060405180830381600087803b15801561020c57600080fd5b505af1158015610220573d6000803e3d6000fd5b5092979650505050505050565b60008054604080518381526020810190915282916001600160a01b0316908590836100e5565b6109f8806102618339019056fe60806040526040516109f83803806109f88339810180604052606081101561002657600080fd5b815160208301516040840180519294919382019264010000000081111561004c57600080fd5b8201602081018481111561005f57600080fd5b815164010000000081118282018710171561007957600080fd5b5050604080517f656970313936372e70726f78792e696d706c656d656e746174696f6e000000008152905190819003601c01902090935085925083915060008051602061099d833981519152600019909101146100d257fe5b6100e18261020060201b60201c565b805115610199576000826001600160a01b0316826040518082805190602001908083835b602083106101245780518252601f199092019160209182019101610105565b6001836020036101000a038019825116818451168082178552505050505050905001915050600060405180830381855af49150503d8060008114610184576040519150601f19603f3d011682016040523d82523d6000602084013e610189565b606091505b505090508061019757600080fd5b505b5050604080517f656970313936372e70726f78792e61646d696e000000000000000000000000008152905190819003601301902060008051602061097d833981519152600019909101146101e957fe5b6101f88261027a60201b60201c565b5050506102c8565b6102138161028c60201b61059b1760201c565b610268576040517f08c379a000000000000000000000000000000000000000000000000000000000815260040180806020018281038252603b8152602001806109bd603b913960400191505060405180910390fd5b60008051602061099d83398151915255565b60008051602061097d83398151915255565b6000813f7fc5d2460186f7233c927e7db2dcc703c0e500b653ca82273b7bfad8045d85a47081158015906102c05750808214155b949350505050565b6106a6806102d76000396000f3fe60806040526004361061005a5760003560e01c80635c60da1b116100435780635c60da1b146101175780638f28397014610148578063f851a4401461017b5761005a565b80633659cfe6146100645780634f1ef28614610097575b610062610190565b005b34801561007057600080fd5b506100626004803603602081101561008757600080fd5b50356001600160a01b03166101aa565b610062600480360360408110156100ad57600080fd5b6001600160a01b0382351691908101906040810160208201356401000000008111156100d857600080fd5b8201836020820111156100ea57600080fd5b8035906020019184600183028401116401000000008311171561010c57600080fd5b5090925090506101e4565b34801561012357600080fd5b5061012c610291565b604080516001600160a01b039092168252519081900360200190f35b34801561015457600080fd5b506100626004803603602081101561016b57600080fd5b50356001600160a01b03166102ce565b34801561018757600080fd5b5061012c6103a2565b6101986103cd565b6101a86101a3610447565b61046c565b565b6101b2610490565b6001600160a01b0316336001600160a01b031614156101d9576101d4816104b5565b6101e1565b6101e1610190565b50565b6101ec610490565b6001600160a01b0316336001600160a01b031614156102845761020e836104b5565b6000836001600160a01b031683836040518083838082843760405192019450600093509091505080830381855af49150503d806000811461026b576040519150601f19603f3d011682016040523d82523d6000602084013e610270565b606091505b505090508061027e57600080fd5b5061028c565b61028c610190565b505050565b600061029b610490565b6001600160a01b0316336001600160a01b031614156102c3576102bc610447565b90506102cb565b6102cb610190565b90565b6102d6610490565b6001600160a01b0316336001600160a01b031614156101d9576001600160a01b03811661034e576040517f08c379a000000000000000000000000000000000000000000000000000000000815260040180806020018281038252603681526020018061060a6036913960400191505060405180910390fd5b7f7e644d79422f17c01e4894b5f4f588d331ebfa28653d42ae832dc59e38c9798f610377610490565b604080516001600160a01b03928316815291841660208301528051918290030190a16101d4816104f5565b60006103ac610490565b6001600160a01b0316336001600160a01b031614156102c3576102bc610490565b6103d5610490565b6001600160a01b0316336001600160a01b0316141561043f576040517f08c379a00000000000000000000000000000000000000000000000000000000081526004018080602001828103825260328152602001806105d86032913960400191505060405180910390fd5b6101a86101a8565b7f360894a13ba1a3210667c828492db98dca3e2076cc3735a920a3ca505d382bbc5490565b3660008037600080366000845af43d6000803e80801561048b573d6000f35b3d6000fd5b7fb53127684a568b3173ae13b9f8a6016e243e63b6e8ee1178d6a717850b5d61035490565b6104be81610519565b6040516001600160a01b038216907fbc7cd75a20ee27fd9adebab32041f755214dbc6bffa90cc0225b39da2e5c2d3b90600090a250565b7fb53127684a568b3173ae13b9f8a6016e243e63b6e8ee1178d6a717850b5d610355565b6105228161059b565b610577576040517f08c379a000000000000000000000000000000000000000000000000000000000815260040180806020018281038252603b815260200180610640603b913960400191505060405180910390fd5b7f360894a13ba1a3210667c828492db98dca3e2076cc3735a920a3ca505d382bbc55565b6000813f7fc5d2460186f7233c927e7db2dcc703c0e500b653ca82273b7bfad8045d85a47081158015906105cf5750808214155b94935050505056fe43616e6e6f742063616c6c2066616c6c6261636b2066756e6374696f6e2066726f6d207468652070726f78792061646d696e43616e6e6f74206368616e6765207468652061646d696e206f6620612070726f787920746f20746865207a65726f206164647265737343616e6e6f742073657420612070726f787920696d706c656d656e746174696f6e20746f2061206e6f6e2d636f6e74726163742061646472657373a165627a7a72305820db0567e2edf34fe483de05a9577d3cf0b30c5adc2bde1d13f99816e4c3e5ed420029b53127684a568b3173ae13b9f8a6016e243e63b6e8ee1178d6a717850b5d6103360894a13ba1a3210667c828492db98dca3e2076cc3735a920a3ca505d382bbc43616e6e6f742073657420612070726f787920696d706c656d656e746174696f6e20746f2061206e6f6e2d636f6e74726163742061646472657373a165627a7a723058204b3b73446981c8186101355200592f758dbbcde50dfd6f8764b459e90187e7b4002960806040819052600080546001600160a01b03191633178082556001600160a01b0316917f8be0079c531659141344cd1fd0a4f28419497f9722a3daafe3b4186f6b6457e0908290a36118a1806100576000396000f3fe6080604052600436106100f35760003560e01c80638f32d59b1161008a578063d0e30db011610059578063d0e30db01461036a578063d8a3073214610372578063f2fde38b146103f5578063f8b2cb4f14610428576100f3565b80638f32d59b146102885780639e281a98146102b1578063c489744b146102ea578063c4d66de814610337576100f3565b806370d97c34116100c657806370d97c34146101d9578063715018a6146101ff578063810c0af8146102145780638da5cb5b14610257576100f3565b80632e1a7d4d146100f8578063338b5dea146101245780633d4aa9a91461015d578063487c3580146101a0575b600080fd5b34801561010457600080fd5b506101226004803603602081101561011b57600080fd5b503561045b565b005b34801561013057600080fd5b506101226004803603604081101561014757600080fd5b506001600160a01b038135169060200135610532565b34801561016957600080fd5b506101226004803603606081101561018057600080fd5b506001600160a01b038135811691602081013590911690604001356105a9565b3480156101ac57600080fd5b50610122600480360360408110156101c357600080fd5b506001600160a01b038135169060200135610796565b610122600480360360208110156101ef57600080fd5b50356001600160a01b0316610931565b34801561020b57600080fd5b50610122610a5a565b34801561022057600080fd5b506101226004803603606081101561023757600080fd5b506001600160a01b03813581169160208101359091169060400135610b0d565b34801561026357600080fd5b5061026c610cab565b604080516001600160a01b039092168252519081900360200190f35b34801561029457600080fd5b5061029d610cba565b604080519115158252519081900360200190f35b3480156102bd57600080fd5b50610122600480360360408110156102d457600080fd5b506001600160a01b038135169060200135610ccb565b3480156102f657600080fd5b506103256004803603604081101561030d57600080fd5b506001600160a01b0381358116916020013516610d8c565b60408051918252519081900360200190f35b34801561034357600080fd5b506101226004803603602081101561035a57600080fd5b50356001600160a01b0316610db7565b610122610e2b565b34801561037e57600080fd5b506103a56004803603602081101561039557600080fd5b50356001600160a01b0316610e7c565b60408051602080825283518183015283519192839290830191858101910280838360005b838110156103e15781810151838201526020016103c9565b505050509050019250505060405180910390f35b34801561040157600080fd5b506101226004803603602081101561041857600080fd5b50356001600160a01b0316611075565b34801561043457600080fd5b506103256004803603602081101561044b57600080fd5b50356001600160a01b03166110d1565b3381610466826110d1565b10156104a657604051600160e51b62461bcd0281526004018080602001828103825260278152602001806117b36027913960400191505060405180910390fd5b6104b8816104b2611112565b84611118565b6040516001600160a01b0382169083156108fc029084906000818181858888f193505050501580156104ee573d6000803e3d6000fd5b506040805183815290516001600160a01b038316917f7084f5476618d8e60b11ef0d7d3f06914655adb8793e28ff7f018d4c76d505d5919081900360200190a25050565b3361053e8184846111b2565b6105596001600160a01b03841682308563ffffffff6112b716565b826001600160a01b0316816001600160a01b03167ff1444b5cad7ce70cb018d1b8edc8618fe303f3c7f034d8d572a6e27facbf2bef846040518082815260200191505060405180910390a3505050565b6105b1610cba565b6106055760408051600160e51b62461bcd02815260206004820181905260248201527f4f776e61626c653a2063616c6c6572206973206e6f7420746865206f776e6572604482015290519081900360640190fd5b6001600160a01b0383166106635760408051600160e51b62461bcd02815260206004820181905260248201527f457363726f77426173653a204163636f756e74206d757374206265207365742e604482015290519081900360640190fd5b6001600160a01b0382166106c15760408051600160e51b62461bcd02815260206004820152601e60248201527f457363726f77426173653a20546f6b656e206d757374206265207365742e0000604482015290519081900360640190fd5b600081116107195760408051600160e51b62461bcd02815260206004820152601f60248201527f457363726f77426173653a20416d6f756e74206d757374206265207365742e00604482015290519081900360640190fd5b806107248484610d8c565b101561076457604051600160e51b62461bcd0281526004018080602001828103825260278152602001806118256027913960400191505060405180910390fd5b61076f838383611118565b61079161077a610cab565b6001600160a01b038416908363ffffffff61134516565b505050565b61079e610cba565b6107f25760408051600160e51b62461bcd02815260206004820181905260248201527f4f776e61626c653a2063616c6c6572206973206e6f7420746865206f776e6572604482015290519081900360640190fd5b6001600160a01b0382166108505760408051600160e51b62461bcd02815260206004820181905260248201527f457363726f77426173653a204163636f756e74206d757374206265207365742e604482015290519081900360640190fd5b600081116108a85760408051600160e51b62461bcd02815260206004820152601f60248201527f457363726f77426173653a20416d6f756e74206d757374206265207365742e00604482015290519081900360640190fd5b806108b2836110d1565b10156108f257604051600160e51b62461bcd0281526004018080602001828103825260258152602001806118006025913960400191505060405180910390fd5b610904826108fe611112565b83611118565b604051339082156108fc029083906000818181858888f19350505050158015610791573d6000803e3d6000fd5b610939610cba565b61098d5760408051600160e51b62461bcd02815260206004820181905260248201527f4f776e61626c653a2063616c6c6572206973206e6f7420746865206f776e6572604482015290519081900360640190fd5b346001600160a01b0382166109ec5760408051600160e51b62461bcd02815260206004820181905260248201527f457363726f77426173653a204163636f756e74206d757374206265207365742e604482015290519081900360640190fd5b60008111610a445760408051600160e51b62461bcd02815260206004820152601f60248201527f457363726f77426173653a20416d6f756e74206d757374206265207365742e00604482015290519081900360640190fd5b610a5682610a50611112565b836111b2565b5050565b610a62610cba565b610ab65760408051600160e51b62461bcd02815260206004820181905260248201527f4f776e61626c653a2063616c6c6572206973206e6f7420746865206f776e6572604482015290519081900360640190fd5b600080546040516001600160a01b03909116907f8be0079c531659141344cd1fd0a4f28419497f9722a3daafe3b4186f6b6457e0908390a36000805473ffffffffffffffffffffffffffffffffffffffff19169055565b610b15610cba565b610b695760408051600160e51b62461bcd02815260206004820181905260248201527f4f776e61626c653a2063616c6c6572206973206e6f7420746865206f776e6572604482015290519081900360640190fd5b6001600160a01b038316610bc75760408051600160e51b62461bcd02815260206004820181905260248201527f457363726f77426173653a204163636f756e74206d757374206265207365742e604482015290519081900360640190fd5b6001600160a01b038216610c255760408051600160e51b62461bcd02815260206004820152601e60248201527f457363726f77426173653a20546f6b656e206d757374206265207365742e0000604482015290519081900360640190fd5b60008111610c7d5760408051600160e51b62461bcd02815260206004820152601f60248201527f457363726f77426173653a20416d6f756e74206d757374206265207365742e00604482015290519081900360640190fd5b610c888383836111b2565b610791610c93610cab565b6001600160a01b03841690308463ffffffff6112b716565b6000546001600160a01b031690565b6000546001600160a01b0316331490565b3381610cd78285610d8c565b1015610d1757604051600160e51b62461bcd0281526004018080602001828103825260278152602001806117b36027913960400191505060405180910390fd5b610d22818484611118565b610d3c6001600160a01b038416828463ffffffff61134516565b826001600160a01b0316816001600160a01b03167f8210728e7c071f615b840ee026032693858fbcd5e5359e67e438c890f59e5620846040518082815260200191505060405180910390a3505050565b6001600160a01b03918216600090815260016020908152604080832093909416825291909152205490565b6000610dc1610cab565b6001600160a01b031614610e1f5760408051600160e51b62461bcd02815260206004820181905260248201527f457363726f77426173653a20416c726561647920696e697469616c697a65642e604482015290519081900360640190fd5b610e28816113c5565b50565b3334610e3982610a50611112565b6040805182815290516001600160a01b038416917f2da466a7b24304f47e87fa2e1e5a81b9831ce54fec19055ce277ca2f39ba42c4919081900360200190a25050565b6001600160a01b0381166000908152600160205260408120606091600290910190610ea5611112565b90506000805b8354811015610f4b57826001600160a01b0316848281548110610eca57fe5b6000918252602090912001546001600160a01b031614801590610f3757506001600160a01b038616600090815260016020526040812085548290879085908110610f1057fe5b60009182526020808320909101546001600160a01b03168352820192909252604001902054115b15610f43576001909101905b600101610eab565b5080604051908082528060200260200182016040528015610f76578160200160208202803883390190505b5093506000805b845481101561106b57836001600160a01b0316858281548110610f9c57fe5b6000918252602090912001546001600160a01b03161480159061100957506001600160a01b038716600090815260016020526040812086548290889085908110610fe257fe5b60009182526020808320909101546001600160a01b03168352820192909252604001902054115b156110635784818154811061101a57fe5b9060005260206000200160009054906101000a90046001600160a01b031686838151811061104457fe5b6001600160a01b03909216602092830291909101909101526001909101905b600101610f7d565b5050505050919050565b61107d610cba565b610e1f5760408051600160e51b62461bcd02815260206004820181905260248201527f4f776e61626c653a2063616c6c6572206973206e6f7420746865206f776e6572604482015290519081900360640190fd5b6001600160a01b0381166000908152600160205260408120816110f2611112565b6001600160a01b0316815260208101919091526040016000205492915050565b60001990565b6001600160a01b038084166000908152600160209081526040808320938616835290839052902054611150908363ffffffff61147516565b6001600160a01b038085166000818152602085815260409182902094909455805192881683529282015280820184905290517f6ac2cd906088d873624fa62ca95170d967629e7d964651df19a3aa2e49b44aa19181900360600190a150505050565b6001600160a01b0380841660009081526001602090815260408083209386168352908390529020546111ea908363ffffffff6114be16565b6001600160a01b038416600090815260208381526040808320939093556001840190522054611267576002810180546001808201835560008381526020808220909301805473ffffffffffffffffffffffffffffffffffffffff19166001600160a01b038916908117909155935493815290840190915260409020555b604080516001600160a01b0380871682528516602082015280820184905290517f0d66f59c9991adc17dd3339490c5058d2d6fe20395e7b55ceb6ca8019a31667d9181900360600190a150505050565b604080516001600160a01b0385811660248301528416604482015260648082018490528251808303909101815260849091019091526020810180517bffffffffffffffffffffffffffffffffffffffffffffffffffffffff167f23b872dd0000000000000000000000000000000000000000000000000000000017905261133f90859061151b565b50505050565b604080516001600160a01b038416602482015260448082018490528251808303909101815260649091019091526020810180517bffffffffffffffffffffffffffffffffffffffffffffffffffffffff167fa9059cbb0000000000000000000000000000000000000000000000000000000017905261079190849061151b565b6001600160a01b03811661140d57604051600160e51b62461bcd0281526004018080602001828103825260268152602001806117da6026913960400191505060405180910390fd5b600080546040516001600160a01b03808516939216917f8be0079c531659141344cd1fd0a4f28419497f9722a3daafe3b4186f6b6457e091a36000805473ffffffffffffffffffffffffffffffffffffffff19166001600160a01b0392909216919091179055565b60006114b783836040518060400160405280601e81526020017f536166654d6174683a207375627472616374696f6e206f766572666c6f7700008152506116dc565b9392505050565b6000828201838110156114b75760408051600160e51b62461bcd02815260206004820152601b60248201527f536166654d6174683a206164646974696f6e206f766572666c6f770000000000604482015290519081900360640190fd5b61152d826001600160a01b0316611776565b6115815760408051600160e51b62461bcd02815260206004820152601f60248201527f5361666545524332303a2063616c6c20746f206e6f6e2d636f6e747261637400604482015290519081900360640190fd5b60006060836001600160a01b0316836040518082805190602001908083835b602083106115bf5780518252601f1990920191602091820191016115a0565b6001836020036101000a0380198251168184511680821785525050505050509050019150506000604051808303816000865af19150503d8060008114611621576040519150601f19603f3d011682016040523d82523d6000602084013e611626565b606091505b5091509150816116805760408051600160e51b62461bcd02815260206004820181905260248201527f5361666545524332303a206c6f772d6c6576656c2063616c6c206661696c6564604482015290519081900360640190fd5b80511561133f5780806020019051602081101561169c57600080fd5b505161133f57604051600160e51b62461bcd02815260040180806020018281038252602a81526020018061184c602a913960400191505060405180910390fd5b6000818484111561176e57604051600160e51b62461bcd0281526004018080602001828103825283818151815260200191508051906020019080838360005b8381101561173357818101518382015260200161171b565b50505050905090810190601f1680156117605780820380516001836020036101000a031916815260200191505b509250505060405180910390fd5b505050900390565b6000813f7fc5d2460186f7233c927e7db2dcc703c0e500b653ca82273b7bfad8045d85a47081158015906117aa5750808214155b94935050505056fe496e737472756d656e74457363726f773a20496e73756666696369656e742062616c616e63652e4f776e61626c653a206e6577206f776e657220697320746865207a65726f2061646472657373457363726f77426173653a20496e73756666696369656e74204554482042616c616e63652e457363726f77426173653a20496e73756666696369656e7420546f6b656e2042616c616e63652e5361666545524332303a204552433230206f7065726174696f6e20646964206e6f742073756363656564a165627a7a72305820e95cd6de8d28ba582679b1c544c50bebf23af2a8bf864f96d6947126e58f8bbd002960806040819052600080546001600160a01b03191633178082556001600160a01b0316917f8be0079c531659141344cd1fd0a4f28419497f9722a3daafe3b4186f6b6457e0908290a36118ec806100576000396000f3fe6080604052600436106100dd5760003560e01c80638f32d59b1161007f578063c4d66de811610059578063c4d66de814610311578063d8a3073214610344578063f2fde38b146103c7578063f8b2cb4f146103fa576100dd565b80638f32d59b14610258578063beabacc814610281578063c489744b146102c4576100dd565b806370d97c34116100bb57806370d97c34146101a9578063715018a6146101cf578063810c0af8146101e45780638da5cb5b14610227576100dd565b80632c54de4f146100e25780633d4aa9a91461012d578063487c358014610170575b600080fd5b3480156100ee57600080fd5b5061012b6004803603608081101561010557600080fd5b506001600160a01b0381358116916020810135821691604082013516906060013561042d565b005b34801561013957600080fd5b5061012b6004803603606081101561015057600080fd5b506001600160a01b03813581169160208101359091169060400135610600565b34801561017c57600080fd5b5061012b6004803603604081101561019357600080fd5b506001600160a01b0381351690602001356107ed565b61012b600480360360208110156101bf57600080fd5b50356001600160a01b0316610988565b3480156101db57600080fd5b5061012b610ab1565b3480156101f057600080fd5b5061012b6004803603606081101561020757600080fd5b506001600160a01b03813581169160208101359091169060400135610b64565b34801561023357600080fd5b5061023c610d02565b604080516001600160a01b039092168252519081900360200190f35b34801561026457600080fd5b5061026d610d11565b604080519115158252519081900360200190f35b34801561028d57600080fd5b5061012b600480360360608110156102a457600080fd5b506001600160a01b03813581169160208101359091169060400135610d22565b3480156102d057600080fd5b506102ff600480360360408110156102e757600080fd5b506001600160a01b0381358116916020013516610d91565b60408051918252519081900360200190f35b34801561031d57600080fd5b5061012b6004803603602081101561033457600080fd5b50356001600160a01b0316610dbc565b34801561035057600080fd5b506103776004803603602081101561036757600080fd5b50356001600160a01b0316610e30565b60408051602080825283518183015283519192839290830191858101910280838360005b838110156103b357818101518382015260200161039b565b505050509050019250505060405180910390f35b3480156103d357600080fd5b5061012b600480360360208110156103ea57600080fd5b50356001600160a01b0316611029565b34801561040657600080fd5b506102ff6004803603602081101561041d57600080fd5b50356001600160a01b0316611085565b610435610d11565b6104895760408051600160e51b62461bcd02815260206004820181905260248201527f4f776e61626c653a2063616c6c6572206973206e6f7420746865206f776e6572604482015290519081900360640190fd5b6001600160a01b0384166104d157604051600160e51b62461bcd0281526004018080602001828103825260238152602001806118516023913960400191505060405180910390fd5b6001600160a01b03831661051957604051600160e51b62461bcd02815260040180806020018281038252602181526020018061180e6021913960400191505060405180910390fd5b6001600160a01b03821661056157604051600160e51b62461bcd02815260040180806020018281038252602281526020018061182f6022913960400191505060405180910390fd5b600081116105a357604051600160e51b62461bcd0281526004018080602001828103825260238152602001806118746023913960400191505060405180910390fd5b806105ae8584610d91565b10156105ee57604051600160e51b62461bcd02815260040180806020018281038252602581526020018061179d6025913960400191505060405180910390fd5b6105fa848484846110c6565b50505050565b610608610d11565b61065c5760408051600160e51b62461bcd02815260206004820181905260248201527f4f776e61626c653a2063616c6c6572206973206e6f7420746865206f776e6572604482015290519081900360640190fd5b6001600160a01b0383166106ba5760408051600160e51b62461bcd02815260206004820181905260248201527f457363726f77426173653a204163636f756e74206d757374206265207365742e604482015290519081900360640190fd5b6001600160a01b0382166107185760408051600160e51b62461bcd02815260206004820152601e60248201527f457363726f77426173653a20546f6b656e206d757374206265207365742e0000604482015290519081900360640190fd5b600081116107705760408051600160e51b62461bcd02815260206004820152601f60248201527f457363726f77426173653a20416d6f756e74206d757374206265207365742e00604482015290519081900360640190fd5b8061077b8484610d91565b10156107bb57604051600160e51b62461bcd0281526004018080602001828103825260278152602001806117e76027913960400191505060405180910390fd5b6107c68383836110dc565b6107e86107d1610d02565b6001600160a01b038416908363ffffffff61117616565b505050565b6107f5610d11565b6108495760408051600160e51b62461bcd02815260206004820181905260248201527f4f776e61626c653a2063616c6c6572206973206e6f7420746865206f776e6572604482015290519081900360640190fd5b6001600160a01b0382166108a75760408051600160e51b62461bcd02815260206004820181905260248201527f457363726f77426173653a204163636f756e74206d757374206265207365742e604482015290519081900360640190fd5b600081116108ff5760408051600160e51b62461bcd02815260206004820152601f60248201527f457363726f77426173653a20416d6f756e74206d757374206265207365742e00604482015290519081900360640190fd5b8061090983611085565b101561094957604051600160e51b62461bcd0281526004018080602001828103825260258152602001806117c26025913960400191505060405180910390fd5b61095b826109556111f6565b836110dc565b604051339082156108fc029083906000818181858888f193505050501580156107e8573d6000803e3d6000fd5b610990610d11565b6109e45760408051600160e51b62461bcd02815260206004820181905260248201527f4f776e61626c653a2063616c6c6572206973206e6f7420746865206f776e6572604482015290519081900360640190fd5b346001600160a01b038216610a435760408051600160e51b62461bcd02815260206004820181905260248201527f457363726f77426173653a204163636f756e74206d757374206265207365742e604482015290519081900360640190fd5b60008111610a9b5760408051600160e51b62461bcd02815260206004820152601f60248201527f457363726f77426173653a20416d6f756e74206d757374206265207365742e00604482015290519081900360640190fd5b610aad82610aa76111f6565b836111fc565b5050565b610ab9610d11565b610b0d5760408051600160e51b62461bcd02815260206004820181905260248201527f4f776e61626c653a2063616c6c6572206973206e6f7420746865206f776e6572604482015290519081900360640190fd5b600080546040516001600160a01b03909116907f8be0079c531659141344cd1fd0a4f28419497f9722a3daafe3b4186f6b6457e0908390a36000805473ffffffffffffffffffffffffffffffffffffffff19169055565b610b6c610d11565b610bc05760408051600160e51b62461bcd02815260206004820181905260248201527f4f776e61626c653a2063616c6c6572206973206e6f7420746865206f776e6572604482015290519081900360640190fd5b6001600160a01b038316610c1e5760408051600160e51b62461bcd02815260206004820181905260248201527f457363726f77426173653a204163636f756e74206d757374206265207365742e604482015290519081900360640190fd5b6001600160a01b038216610c7c5760408051600160e51b62461bcd02815260206004820152601e60248201527f457363726f77426173653a20546f6b656e206d757374206265207365742e0000604482015290519081900360640190fd5b60008111610cd45760408051600160e51b62461bcd02815260206004820152601f60248201527f457363726f77426173653a20416d6f756e74206d757374206265207365742e00604482015290519081900360640190fd5b610cdf8383836111fc565b6107e8610cea610d02565b6001600160a01b03841690308463ffffffff61130116565b6000546001600160a01b031690565b6000546001600160a01b0316331490565b610d2a610d11565b610d7e5760408051600160e51b62461bcd02815260206004820181905260248201527f4f776e61626c653a2063616c6c6572206973206e6f7420746865206f776e6572604482015290519081900360640190fd5b6107e88383610d8b6111f6565b8461042d565b6001600160a01b03918216600090815260016020908152604080832093909416825291909152205490565b6000610dc6610d02565b6001600160a01b031614610e245760408051600160e51b62461bcd02815260206004820181905260248201527f457363726f77426173653a20416c726561647920696e697469616c697a65642e604482015290519081900360640190fd5b610e2d81611389565b50565b6001600160a01b0381166000908152600160205260408120606091600290910190610e596111f6565b90506000805b8354811015610eff57826001600160a01b0316848281548110610e7e57fe5b6000918252602090912001546001600160a01b031614801590610eeb57506001600160a01b038616600090815260016020526040812085548290879085908110610ec457fe5b60009182526020808320909101546001600160a01b03168352820192909252604001902054115b15610ef7576001909101905b600101610e5f565b5080604051908082528060200260200182016040528015610f2a578160200160208202803883390190505b5093506000805b845481101561101f57836001600160a01b0316858281548110610f5057fe5b6000918252602090912001546001600160a01b031614801590610fbd57506001600160a01b038716600090815260016020526040812086548290889085908110610f9657fe5b60009182526020808320909101546001600160a01b03168352820192909252604001902054115b1561101757848181548110610fce57fe5b9060005260206000200160009054906101000a90046001600160a01b0316868381518110610ff857fe5b6001600160a01b03909216602092830291909101909101526001909101905b600101610f31565b5050505050919050565b611031610d11565b610e245760408051600160e51b62461bcd02815260206004820181905260248201527f4f776e61626c653a2063616c6c6572206973206e6f7420746865206f776e6572604482015290519081900360640190fd5b6001600160a01b0381166000908152600160205260408120816110a66111f6565b6001600160a01b0316815260208101919091526040016000205492915050565b6110d18483836110dc565b6105fa8383836111fc565b6001600160a01b038084166000908152600160209081526040808320938616835290839052902054611114908363ffffffff61143916565b6001600160a01b038085166000818152602085815260409182902094909455805192881683529282015280820184905290517f6ac2cd906088d873624fa62ca95170d967629e7d964651df19a3aa2e49b44aa19181900360600190a150505050565b604080516001600160a01b038416602482015260448082018490528251808303909101815260649091019091526020810180517bffffffffffffffffffffffffffffffffffffffffffffffffffffffff167fa9059cbb000000000000000000000000000000000000000000000000000000001790526107e8908490611482565b60001990565b6001600160a01b038084166000908152600160209081526040808320938616835290839052902054611234908363ffffffff61164316565b6001600160a01b0384166000908152602083815260408083209390935560018401905220546112b1576002810180546001808201835560008381526020808220909301805473ffffffffffffffffffffffffffffffffffffffff19166001600160a01b038916908117909155935493815290840190915260409020555b604080516001600160a01b0380871682528516602082015280820184905290517f0d66f59c9991adc17dd3339490c5058d2d6fe20395e7b55ceb6ca8019a31667d9181900360600190a150505050565b604080516001600160a01b0385811660248301528416604482015260648082018490528251808303909101815260849091019091526020810180517bffffffffffffffffffffffffffffffffffffffffffffffffffffffff167f23b872dd000000000000000000000000000000000000000000000000000000001790526105fa908590611482565b6001600160a01b0381166113d157604051600160e51b62461bcd0281526004018080602001828103825260268152602001806117776026913960400191505060405180910390fd5b600080546040516001600160a01b03808516939216917f8be0079c531659141344cd1fd0a4f28419497f9722a3daafe3b4186f6b6457e091a36000805473ffffffffffffffffffffffffffffffffffffffff19166001600160a01b0392909216919091179055565b600061147b83836040518060400160405280601e81526020017f536166654d6174683a207375627472616374696f6e206f766572666c6f7700008152506116a0565b9392505050565b611494826001600160a01b031661173a565b6114e85760408051600160e51b62461bcd02815260206004820152601f60248201527f5361666545524332303a2063616c6c20746f206e6f6e2d636f6e747261637400604482015290519081900360640190fd5b60006060836001600160a01b0316836040518082805190602001908083835b602083106115265780518252601f199092019160209182019101611507565b6001836020036101000a0380198251168184511680821785525050505050509050019150506000604051808303816000865af19150503d8060008114611588576040519150601f19603f3d011682016040523d82523d6000602084013e61158d565b606091505b5091509150816115e75760408051600160e51b62461bcd02815260206004820181905260248201527f5361666545524332303a206c6f772d6c6576656c2063616c6c206661696c6564604482015290519081900360640190fd5b8051156105fa5780806020019051602081101561160357600080fd5b50516105fa57604051600160e51b62461bcd02815260040180806020018281038252602a815260200180611897602a913960400191505060405180910390fd5b60008282018381101561147b5760408051600160e51b62461bcd02815260206004820152601b60248201527f536166654d6174683a206164646974696f6e206f766572666c6f770000000000604482015290519081900360640190fd5b6000818484111561173257604051600160e51b62461bcd0281526004018080602001828103825283818151815260200191508051906020019080838360005b838110156116f75781810151838201526020016116df565b50505050905090810190601f1680156117245780820380516001836020036101000a031916815260200191505b509250505060405180910390fd5b505050900390565b6000813f7fc5d2460186f7233c927e7db2dcc703c0e500b653ca82273b7bfad8045d85a470811580159061176e5750808214155b94935050505056fe4f776e61626c653a206e6577206f776e657220697320746865207a65726f206164647265737349737375616e6365457363726f773a20496e73756666696369656e742062616c616e63652e457363726f77426173653a20496e73756666696369656e74204554482042616c616e63652e457363726f77426173653a20496e73756666696369656e7420546f6b656e2042616c616e63652e49737375616e6365457363726f773a2044657374206d757374206265207365742e49737375616e6365457363726f773a20546f6b656e206d757374206265207365742e49737375616e6365457363726f773a20536f75726365206d757374206265207365742e49737375616e6365457363726f773a20416d6f756e74206d757374206265207365742e5361666545524332303a204552433230206f7065726174696f6e20646964206e6f742073756363656564a165627a7a72305820818eccdee5c2996b583a8dc0a6788b490ba6b4fc3ce0738b441cc96ba9aed1140029",
  "source": "pragma solidity ^0.5.0;\n\nimport \"../lib/proxy/AdminUpgradeabilityProxy.sol\";\nimport \"./EscrowFactoryInterface.sol\";\nimport \"./IssuanceEscrow.sol\";\nimport \"./IssuanceEscrowInterface.sol\";\nimport \"./InstrumentEscrow.sol\";\nimport \"./InstrumentEscrowInterface.sol\";\nimport \"./DepositEscrowInterface.sol\";\n\n/**\n * @title Escrow Factory. This should be a singleton in NUTS Platform.\n */\ncontract EscrowFactory is EscrowFactoryInterface {\n\n    // All Instrument Escrows and Issuance Escrows share the same implementation.\n    InstrumentEscrow private _instrumentEscrow;\n    IssuanceEscrow private _issuanceEscrow;\n\n    constructor() public {\n        _instrumentEscrow = new InstrumentEscrow();\n        _issuanceEscrow = new IssuanceEscrow();\n    }\n\n    /**\n     * @dev Create new Deposit Escrow instance.\n     * Deposit Escrow has the same implementation as Instrument Escrow, but uses a\n     * different contract name to better distinguish their difference.\n     * @param proxyAdmin Admin of the proxy contract. Only proxy admin can change implementation.\n     * @param owner Owner of the Deposit Escrow.\n     */\n    function createDepositEscrow(address proxyAdmin, address owner) external returns (DepositEscrowInterface) {\n        // Deposit Escrow uses Instrument Escrow's implementation.\n        AdminUpgradeabilityProxy depositEscrowProxy = new AdminUpgradeabilityProxy(address(_instrumentEscrow),\n            proxyAdmin, new bytes(0));\n        // The owner of Instrument Escrow is Instrument Manager\n        DepositEscrowInterface depositEscrow = DepositEscrowInterface(address(depositEscrowProxy));\n        depositEscrow.initialize(owner);\n\n        return depositEscrow;\n    }\n\n    /**\n     * @dev Create new Instrument Escrow instance.\n     * Note that all Instrument Escrows share the same implementation with data stored in proxy contract.\n     * @param proxyAdmin Admin of the proxy contract. Only proxy admin can change implementation.\n     * @param owner Owner of the Instrument Escrow.\n     */\n    function createInstrumentEscrow(address proxyAdmin, address owner) public returns (InstrumentEscrowInterface) {\n        AdminUpgradeabilityProxy instrumentEscrowProxy = new AdminUpgradeabilityProxy(address(_instrumentEscrow),\n            proxyAdmin, new bytes(0));\n        // The owner of Instrument Escrow is Instrument Manager\n        InstrumentEscrowInterface instrumentEscrow = InstrumentEscrow(address(instrumentEscrowProxy));\n        instrumentEscrow.initialize(owner);\n\n        return instrumentEscrow;\n    }\n\n    /**\n     * @dev Creates new Issuance Escrow intance.\n     * Note that all Issuance Escrows share the same implementation with data stored in proxy contract.\n     * @param proxyAdmin Admin of the proxy contract. Only proxy admin can change implementation.\n     * @param owner Owner of the Issuance Escrow.\n     */\n    function createIssuanceEscrow(address proxyAdmin, address owner) public returns (IssuanceEscrowInterface) {\n        AdminUpgradeabilityProxy issuanceEscrowProxy = new AdminUpgradeabilityProxy(address(_issuanceEscrow),\n            proxyAdmin, new bytes(0));\n        // The owner of Instrument Escrow is Instrument Manager\n        IssuanceEscrowInterface issuanceEscrow = IssuanceEscrowInterface(address(issuanceEscrowProxy));\n        issuanceEscrow.initialize(owner);\n\n        return issuanceEscrow;\n    }\n}",
  "sourcePath": "/Users/shengdading/git/nuts-platform-v2/contracts/escrow/EscrowFactory.sol",
  "compiler": {
    "name": "solc",
    "version": "0.5.8+commit.23d335f2.Emscripten.clang"
  },
  "schemaVersion": "3.0.16",
  "updatedAt": "2019-10-12T05:12:01.004Z",
  "devdoc": {
    "methods": {
      "createDepositEscrow(address,address)": {
        "details": "Create new Deposit Escrow instance. Deposit Escrow has the same implementation as Instrument Escrow, but uses a different contract name to better distinguish their difference.",
        "params": {
          "owner": "Owner of the Deposit Escrow.",
          "proxyAdmin": "Admin of the proxy contract. Only proxy admin can change implementation."
        }
      },
      "createInstrumentEscrow(address,address)": {
        "details": "Create new Instrument Escrow instance. Note that all Instrument Escrows share the same implementation with data stored in proxy contract.",
        "params": {
          "owner": "Owner of the Instrument Escrow.",
          "proxyAdmin": "Admin of the proxy contract. Only proxy admin can change implementation."
        }
      },
      "createIssuanceEscrow(address,address)": {
        "details": "Creates new Issuance Escrow intance. Note that all Issuance Escrows share the same implementation with data stored in proxy contract.",
        "params": {
          "owner": "Owner of the Issuance Escrow.",
          "proxyAdmin": "Admin of the proxy contract. Only proxy admin can change implementation."
        }
      }
    },
    "title": "Escrow Factory. This should be a singleton in NUTS Platform."
  },
  "userdoc": {
    "methods": {}
  }
}