{
  "contractName": "InstrumentV3Manager",
  "abi": [
    {
      "constant": false,
      "inputs": [
        {
          "name": "issuanceId",
          "type": "uint256"
        },
        {
          "name": "takerParameters",
          "type": "bytes"
        }
      ],
      "name": "engageIssuance",
      "outputs": [],
      "payable": false,
      "stateMutability": "nonpayable",
      "type": "function"
    },
    {
      "constant": false,
      "inputs": [
        {
          "name": "issuanceId",
          "type": "uint256"
        },
        {
          "name": "amount",
          "type": "uint256"
        }
      ],
      "name": "depositToIssuance",
      "outputs": [],
      "payable": false,
      "stateMutability": "nonpayable",
      "type": "function"
    },
    {
      "constant": false,
      "inputs": [
        {
          "name": "fspAddress",
          "type": "address"
        },
        {
          "name": "instrumentAddress",
          "type": "address"
        },
        {
          "name": "instrumentConfigAddress",
          "type": "address"
        },
        {
          "name": "instrumentParameters",
          "type": "bytes"
        }
      ],
      "name": "initialize",
      "outputs": [],
      "payable": false,
      "stateMutability": "nonpayable",
      "type": "function"
    },
    {
      "constant": false,
      "inputs": [
        {
          "name": "makerAddress",
          "type": "address"
        },
        {
          "name": "allowed",
          "type": "bool"
        }
      ],
      "name": "setMakerWhitelist",
      "outputs": [],
      "payable": false,
      "stateMutability": "nonpayable",
      "type": "function"
    },
    {
      "constant": false,
      "inputs": [
        {
          "name": "issuanceId",
          "type": "uint256"
        },
        {
          "name": "tokenAddress",
          "type": "address"
        },
        {
          "name": "amount",
          "type": "uint256"
        }
      ],
      "name": "depositTokenToIssuance",
      "outputs": [],
      "payable": false,
      "stateMutability": "nonpayable",
      "type": "function"
    },
    {
      "constant": false,
      "inputs": [],
      "name": "deactivate",
      "outputs": [],
      "payable": false,
      "stateMutability": "nonpayable",
      "type": "function"
    },
    {
      "constant": false,
      "inputs": [],
      "name": "renounceTimerOracle",
      "outputs": [],
      "payable": false,
      "stateMutability": "nonpayable",
      "type": "function"
    },
    {
      "constant": false,
      "inputs": [
        {
          "name": "issuanceId",
          "type": "uint256"
        },
        {
          "name": "eventName",
          "type": "bytes32"
        },
        {
          "name": "eventPayload",
          "type": "bytes"
        }
      ],
      "name": "notifyScheduledEvent",
      "outputs": [],
      "payable": false,
      "stateMutability": "nonpayable",
      "type": "function"
    },
    {
      "constant": true,
      "inputs": [
        {
          "name": "account",
          "type": "address"
        }
      ],
      "name": "isTimerOracle",
      "outputs": [
        {
          "name": "",
          "type": "bool"
        }
      ],
      "payable": false,
      "stateMutability": "view",
      "type": "function"
    },
    {
      "constant": false,
      "inputs": [
        {
          "name": "takerAddress",
          "type": "address"
        },
        {
          "name": "allowed",
          "type": "bool"
        }
      ],
      "name": "setTakerWhitelist",
      "outputs": [],
      "payable": false,
      "stateMutability": "nonpayable",
      "type": "function"
    },
    {
      "constant": true,
      "inputs": [],
      "name": "getInstrumentEscrowAddress",
      "outputs": [
        {
          "name": "",
          "type": "address"
        }
      ],
      "payable": false,
      "stateMutability": "view",
      "type": "function"
    },
    {
      "constant": false,
      "inputs": [
        {
          "name": "issuanceId",
          "type": "uint256"
        },
        {
          "name": "tokenAddress",
          "type": "address"
        },
        {
          "name": "amount",
          "type": "uint256"
        }
      ],
      "name": "withdrawTokenFromIssuance",
      "outputs": [],
      "payable": false,
      "stateMutability": "nonpayable",
      "type": "function"
    },
    {
      "constant": false,
      "inputs": [
        {
          "name": "account",
          "type": "address"
        }
      ],
      "name": "addTimerOracle",
      "outputs": [],
      "payable": false,
      "stateMutability": "nonpayable",
      "type": "function"
    },
    {
      "constant": false,
      "inputs": [
        {
          "name": "issuanceId",
          "type": "uint256"
        },
        {
          "name": "amount",
          "type": "uint256"
        }
      ],
      "name": "withdrawFromIssuance",
      "outputs": [],
      "payable": false,
      "stateMutability": "nonpayable",
      "type": "function"
    },
    {
      "constant": false,
      "inputs": [
        {
          "name": "issuanceId",
          "type": "uint256"
        },
        {
          "name": "eventName",
          "type": "bytes32"
        },
        {
          "name": "eventPayload",
          "type": "bytes"
        }
      ],
      "name": "notifyCustomEvent",
      "outputs": [],
      "payable": false,
      "stateMutability": "nonpayable",
      "type": "function"
    },
    {
      "constant": false,
      "inputs": [
        {
          "name": "makerParameters",
          "type": "bytes"
        }
      ],
      "name": "createIssuance",
      "outputs": [
        {
          "name": "",
          "type": "uint256"
        }
      ],
      "payable": false,
      "stateMutability": "nonpayable",
      "type": "function"
    },
    {
      "anonymous": false,
      "inputs": [
        {
          "indexed": true,
          "name": "instrumentAddress",
          "type": "address"
        },
        {
          "indexed": true,
          "name": "instrumentEscrowAddress",
          "type": "address"
        }
      ],
      "name": "InstrumentManagerInitialized",
      "type": "event"
    },
    {
      "anonymous": false,
      "inputs": [
        {
          "indexed": true,
          "name": "account",
          "type": "address"
        }
      ],
      "name": "TimerOracleAdded",
      "type": "event"
    },
    {
      "anonymous": false,
      "inputs": [
        {
          "indexed": true,
          "name": "account",
          "type": "address"
        }
      ],
      "name": "TimerOracleRemoved",
      "type": "event"
    }
  ],
  "bytecode": "0x608060405262000015336200001b60201b60201c565b62000194565b620000368160006200006d60201b62003d761790919060201c565b6040516001600160a01b038216907f9ddc85aace404f3f4847945cd853a70355e2f1dc7f6a75b7951259bcfa97c22b90600090a250565b6200007f82826200011160201b60201c565b15620000ec57604080517f08c379a000000000000000000000000000000000000000000000000000000000815260206004820152601f60248201527f526f6c65733a206163636f756e7420616c72656164792068617320726f6c6500604482015290519081900360640190fd5b6001600160a01b0316600090815260209190915260409020805460ff19166001179055565b60006001600160a01b03821662000174576040517f08c379a00000000000000000000000000000000000000000000000000000000081526004018080602001828103825260228152602001806200583e6022913960400191505060405180910390fd5b506001600160a01b03166000908152602091909152604090205460ff1690565b61569a80620001a46000396000f3fe608060405234801561001057600080fd5b50600436106101005760003560e01c8063711ec8ee1161009757806390d69d641161006657806390d69d641461047e578063d9d6f958146104a4578063dc06b3a2146104c7578063f1c0d81a1461057957610100565b8063711ec8ee146103c057806379dcec8c146103fa5780638792b833146104285780638f7afe3e1461044c57610100565b80634154cf64116100d35780634154cf64146102cc57806351b42b00146102fe5780635c3b1cf01461030657806369382c641461030e57610100565b8063011e8f9614610105578063059c2775146101b4578063246581f7146101d75780632ea241121461029e575b600080fd5b6101b26004803603604081101561011b57600080fd5b8135919081019060408101602082013564010000000081111561013d57600080fd5b82018360208201111561014f57600080fd5b8035906020019184600183028401116401000000008311171561017157600080fd5b91908080601f016020809104026020016040519081016040528093929190818152602001838380828437600092019190915250929550610631945050505050565b005b6101b2600480360360408110156101ca57600080fd5b5080359060200135610777565b6101b2600480360360808110156101ed57600080fd5b6001600160a01b038235811692602081013582169260408201359092169181019060808101606082013564010000000081111561022957600080fd5b82018360208201111561023b57600080fd5b8035906020019184600183028401116401000000008311171561025d57600080fd5b91908080601f0160208091040260200160405190810160405280939291908181526020018383808284376000920191909152509295506109d8945050505050565b6101b2600480360360408110156102b457600080fd5b506001600160a01b0381351690602001351515610f08565b6101b2600480360360608110156102e257600080fd5b508035906001600160a01b036020820135169060400135610fc3565b6101b26112b4565b6101b2611562565b6101b26004803603606081101561032457600080fd5b81359160208101359181019060608101604082013564010000000081111561034b57600080fd5b82018360208201111561035d57600080fd5b8035906020019184600183028401116401000000008311171561037f57600080fd5b91908080601f01602080910402602001604051908101604052809392919081815260200183838082843760009201919091525092955061156d945050505050565b6103e6600480360360208110156103d657600080fd5b50356001600160a01b031661167f565b604080519115158252519081900360200190f35b6101b26004803603604081101561041057600080fd5b506001600160a01b0381351690602001351515611697565b610430611752565b604080516001600160a01b039092168252519081900360200190f35b6101b26004803603606081101561046257600080fd5b508035906001600160a01b036020820135169060400135611761565b6101b26004803603602081101561049457600080fd5b50356001600160a01b0316611a38565b6101b2600480360360408110156104ba57600080fd5b5080359060200135611a8b565b6101b2600480360360608110156104dd57600080fd5b81359160208101359181019060608101604082013564010000000081111561050457600080fd5b82018360208201111561051657600080fd5b8035906020019184600183028401116401000000008311171561053857600080fd5b91908080601f016020809104026020016040519081016040528093929190818152602001838380828437600092019190915250929550611cec945050505050565b61061f6004803603602081101561058f57600080fd5b8101906020810181356401000000008111156105aa57600080fd5b8201836020820111156105bc57600080fd5b803590602001918460018302840111640100000000831117156105de57600080fd5b91908080601f016020809104026020016040519081016040528093929190818152602001838380828437600092019190915250929550611db7945050505050565b60408051918252519081900360200190f35b61063a336126c4565b61067857604051600160e51b62461bcd02815260040180806020018281038252602d81526020018061517f602d913960400191505060405180910390fd5b6000828152600f6020526040902060016005820154600160a01b900460ff1660068111156106a257fe5b146106e157604051600160e51b62461bcd02815260040180806020018281038252602f815260200180615640602f913960400191505060405180910390fd5b80546001600160a01b031661072a57604051600160e51b62461bcd02815260040180806020018281038252602a8152602001806151ac602a913960400191505060405180910390fd5b6002810180546001600160a01b03191633179055426003820155606061074f846126f3565b90506000606061076086848761284a565b9150915061076f868383612a20565b505050505050565b6000828152600f6020526040902080546001600160a01b03166107ce57604051600160e51b62461bcd02815260040180806020018281038252602a8152602001806151ac602a913960400191505060405180910390fd5b60058101546107e690600160a01b900460ff16612c44565b1561082557604051600160e51b62461bcd02815260040180806020018281038252602b815260200180615123602b913960400191505060405180910390fd5b6000821161086757604051600160e51b62461bcd02815260040180806020018281038252602a815260200180615616602a913960400191505060405180910390fd5b6108718333612c9c565b6108af57604051600160e51b62461bcd02815260040180806020018281038252602e81526020018061547a602e913960400191505060405180910390fd5b600e54604080517f487c35800000000000000000000000000000000000000000000000000000000081523360048201526024810185905290516001600160a01b039092169163487c35809160448082019260009290919082900301818387803b15801561091b57600080fd5b505af115801561092f573d6000803e3d6000fd5b505050506005810154604080517f70d97c3400000000000000000000000000000000000000000000000000000000815233600482015290516001600160a01b03909216916370d97c34918591602480830192600092919082900301818588803b15801561099b57600080fd5b505af11580156109af573d6000803e3d6000fd5b505050505060606109bf846126f3565b90506000606061076086846109d2612cf3565b88612cf9565b600a546001600160a01b031615610a2357604051600160e51b62461bcd02815260040180806020018281038252602b81526020018061544f602b913960400191505060405180910390fd5b6001600160a01b038416610a6b57604051600160e51b62461bcd02815260040180806020018281038252603481526020018061541b6034913960400191505060405180910390fd5b6001600160a01b038316610ab357604051600160e51b62461bcd02815260040180806020018281038252603b81526020018061550f603b913960400191505060405180910390fd5b6001600160a01b038216610afb57604051600160e51b62461bcd0281526004018080602001828103825260428152602001806152e96042913960600191505060405180910390fd5b6000815111610b3e57604051600160e51b62461bcd02815260040180806020018281038252603e81526020018061538a603e913960400191505060405180910390fd5b610b46614fc7565b610b4f82612e81565b6001805460ff19908116821790915581516002554260035560408083015160048054841691151591909117815560608401516006805490941690151517909255600d80546001600160a01b0319166001600160a01b03888116919091179182905582517f406b95c10000000000000000000000000000000000000000000000000000000081529251949550610c359491169263406b95c192808201926020929091829003018186803b158015610c0457600080fd5b505afa158015610c18573d6000803e3d6000fd5b505050506040513d6020811015610c2e57600080fd5b5051612ea6565b600880546001600160a01b0319166001600160a01b038781169190911790915560208201511615610c6a578060200151610c6c565b845b600980546001600160a01b03199081166001600160a01b0393841617909155600a80549091168683161790556001600b55600d54604080517f1e081f0900000000000000000000000000000000000000000000000000000000815290519190921691631e081f09916004808301926020929190829003018186803b158015610cf357600080fd5b505afa158015610d07573d6000803e3d6000fd5b505050506040513d6020811015610d1d57600080fd5b5051600c55600d54604080517fd9e86f1d00000000000000000000000000000000000000000000000000000000815290516001600160a01b039092169163d9e86f1d91600480820192602092909190829003018186803b158015610d8057600080fd5b505afa158015610d94573d6000803e3d6000fd5b505050506040513d6020811015610daa57600080fd5b5051600d54604080517f5979e75500000000000000000000000000000000000000000000000000000000815290516001600160a01b039384169363bead0a6c931691635979e755916004808301926020929190829003018186803b158015610e1157600080fd5b505afa158015610e25573d6000803e3d6000fd5b505050506040513d6020811015610e3b57600080fd5b50516040805163ffffffff841660e01b81526001600160a01b0390921660048301523060248301525160448083019260209291908290030181600087803b158015610e8557600080fd5b505af1158015610e99573d6000803e3d6000fd5b505050506040513d6020811015610eaf57600080fd5b5051600e80546001600160a01b0319166001600160a01b039283161790819055600a546040519183169216907f17082f533b4743d96d2bbde7b50cc0716cc7fd5f2c919bcf706233962d28e2d890600090a35050505050565b60045460ff16610f4c57604051600160e51b62461bcd0281526004018080602001828103825260368152602001806154d96036913960400191505060405180910390fd5b6008546001600160a01b03163314610f9857604051600160e51b62461bcd02815260040180806020018281038252603b8152602001806151d6603b913960400191505060405180910390fd5b6001600160a01b03919091166000908152600560205260409020805460ff1916911515919091179055565b6000838152600f6020526040902080546001600160a01b031661101a57604051600160e51b62461bcd02815260040180806020018281038252602a8152602001806151ac602a913960400191505060405180910390fd5b600581015461103290600160a01b900460ff16612c44565b1561107157604051600160e51b62461bcd02815260040180806020018281038252602b815260200180615123602b913960400191505060405180910390fd5b6001600160a01b0383166110b957604051600160e51b62461bcd0281526004018080602001828103825260318152602001806154a86031913960400191505060405180910390fd5b600082116110fb57604051600160e51b62461bcd02815260040180806020018281038252602a815260200180615616602a913960400191505060405180910390fd5b6111058433612c9c565b61114357604051600160e51b62461bcd02815260040180806020018281038252602e81526020018061547a602e913960400191505060405180910390fd5b600e54604080517f3d4aa9a90000000000000000000000000000000000000000000000000000000081523360048201526001600160a01b0386811660248301526044820186905291519190921691633d4aa9a991606480830192600092919082900301818387803b1580156111b757600080fd5b505af11580156111cb573d6000803e3d6000fd5b50505060058201546111f191506001600160a01b0385811691168463ffffffff612eee16565b6005810154604080517f810c0af80000000000000000000000000000000000000000000000000000000081523360048201526001600160a01b038681166024830152604482018690529151919092169163810c0af891606480830192600092919082900301818387803b15801561126757600080fd5b505af115801561127b573d6000803e3d6000fd5b50505050606061128a856126f3565b90506000606061129c87848888612cf9565b915091506112ab878383612a20565b50505050505050565b60015460ff166112f857604051600160e51b62461bcd02815260040180806020018281038252603d8152602001806150e6603d913960400191505060405180910390fd5b6008546001600160a01b0316331461134457604051600160e51b62461bcd02815260040180806020018281038252603e81526020018061534c603e913960400191505060405180910390fd5b600c541561155657600d54604080517fe755926000000000000000000000000000000000000000000000000000000000815290516000926001600160a01b03169163e7559260916004808301926020929190829003018186803b1580156113aa57600080fd5b505afa1580156113be573d6000803e3d6000fd5b505050506040513d60208110156113d457600080fd5b5051600d5460408051600160e01b6323dc9e3702815290519293506001600160a01b0380851693639e281a9893909116916323dc9e37916004808301926020929190829003018186803b15801561142a57600080fd5b505afa15801561143e573d6000803e3d6000fd5b505050506040513d602081101561145457600080fd5b5051600c546040805163ffffffff851660e01b81526001600160a01b039093166004840152602483019190915251604480830192600092919082900301818387803b1580156114a257600080fd5b505af11580156114b6573d6000803e3d6000fd5b5050600854600c54600d5460408051600160e01b6323dc9e37028152905161155496506001600160a01b0394851695509293909116916323dc9e3791600480820192602092909190829003018186803b15801561151257600080fd5b505afa158015611526573d6000803e3d6000fd5b505050506040513d602081101561153c57600080fd5b50516001600160a01b0316919063ffffffff61305016565b505b6001805460ff19169055565b61156b336130d0565b565b6115763361167f565b6115b457604051600160e51b62461bcd02815260040180806020018281038252603a815260200180615211603a913960400191505060405180910390fd5b6000838152600f6020526040902080546001600160a01b031661160b57604051600160e51b62461bcd02815260040180806020018281038252602a8152602001806151ac602a913960400191505060405180910390fd5b600581015461162390600160a01b900460ff16612c44565b1561166257604051600160e51b62461bcd02815260040180806020018281038252602b815260200180615123602b913960400191505060405180910390fd5b606061166d856126f3565b90506000606061129c87848888613118565b6000611691818363ffffffff61326016565b92915050565b60065460ff166116db57604051600160e51b62461bcd02815260040180806020018281038252603681526020018061554a6036913960400191505060405180910390fd5b6008546001600160a01b0316331461172757604051600160e51b62461bcd02815260040180806020018281038252603b81526020018061524b603b913960400191505060405180910390fd5b6001600160a01b03919091166000908152600760205260409020805460ff1916911515919091179055565b600e546001600160a01b031690565b6000838152600f6020526040902080546001600160a01b03166117b857604051600160e51b62461bcd02815260040180806020018281038252602a8152602001806151ac602a913960400191505060405180910390fd5b60058101546117d090600160a01b900460ff16612c44565b1561180f57604051600160e51b62461bcd02815260040180806020018281038252602b815260200180615123602b913960400191505060405180910390fd5b6001600160a01b03831661185757604051600160e51b62461bcd0281526004018080602001828103825260318152602001806154a86031913960400191505060405180910390fd5b6000821161189957604051600160e51b62461bcd02815260040180806020018281038252602a815260200180615616602a913960400191505060405180910390fd5b6118a38433612c9c565b6118e157604051600160e51b62461bcd02815260040180806020018281038252603181526020018061514e6031913960400191505060405180910390fd5b6005810154604080517f3d4aa9a90000000000000000000000000000000000000000000000000000000081523360048201526001600160a01b0386811660248301526044820186905291519190921691633d4aa9a991606480830192600092919082900301818387803b15801561195757600080fd5b505af115801561196b573d6000803e3d6000fd5b5050600e5461198f92506001600160a01b038681169250168463ffffffff612eee16565b600e54604080517f810c0af80000000000000000000000000000000000000000000000000000000081523360048201526001600160a01b038681166024830152604482018690529151919092169163810c0af891606480830192600092919082900301818387803b158015611a0357600080fd5b505af1158015611a17573d6000803e3d6000fd5b505050506060611a26856126f3565b90506000606061129c878488886132ca565b611a413361167f565b611a7f57604051600160e51b62461bcd02815260040180806020018281038252603a815260200180615211603a913960400191505060405180910390fd5b611a8881612ea6565b50565b6000828152600f6020526040902080546001600160a01b0316611ae257604051600160e51b62461bcd02815260040180806020018281038252602a8152602001806151ac602a913960400191505060405180910390fd5b6005810154611afa90600160a01b900460ff16612c44565b15611b3957604051600160e51b62461bcd02815260040180806020018281038252602b815260200180615123602b913960400191505060405180910390fd5b60008211611b7b57604051600160e51b62461bcd02815260040180806020018281038252602a815260200180615616602a913960400191505060405180910390fd5b611b858333612c9c565b611bc357604051600160e51b62461bcd02815260040180806020018281038252603181526020018061514e6031913960400191505060405180910390fd5b6005810154604080517f487c35800000000000000000000000000000000000000000000000000000000081523360048201526024810185905290516001600160a01b039092169163487c35809160448082019260009290919082900301818387803b158015611c3157600080fd5b505af1158015611c45573d6000803e3d6000fd5b5050600e54604080517f70d97c3400000000000000000000000000000000000000000000000000000000815233600482015290516001600160a01b0390921693506370d97c3492508591602480830192600092919082900301818588803b158015611caf57600080fd5b505af1158015611cc3573d6000803e3d6000fd5b50505050506060611cd3846126f3565b9050600060606107608684611ce6612cf3565b886132ca565b6000838152600f6020526040902080546001600160a01b0316611d4357604051600160e51b62461bcd02815260040180806020018281038252602a8152602001806151ac602a913960400191505060405180910390fd5b6005810154611d5b90600160a01b900460ff16612c44565b15611d9a57604051600160e51b62461bcd02815260040180806020018281038252602b815260200180615123602b913960400191505060405180910390fd5b6060611da5856126f3565b90506000606061129c87848888613364565b6000611dc16133fa565b611dff57604051600160e51b62461bcd0281526004018080602001828103825260318152602001806153c86031913960400191505060405180910390fd5b611e0833613423565b611e4657604051600160e51b62461bcd02815260040180806020018281038252602d815260200180615286602d913960400191505060405180910390fd5b600d5460408051600160e01b635a36366702815290516000926001600160a01b031691635a363667916004808301926020929190829003018186803b158015611e8e57600080fd5b505afa158015611ea2573d6000803e3d6000fd5b505050506040513d6020811015611eb857600080fd5b5051111561236457600e54600d5460408051600160e01b6323dc9e3702815290516001600160a01b0393841693633d4aa9a99333939116916323dc9e3791600480820192602092909190829003018186803b158015611f1657600080fd5b505afa158015611f2a573d6000803e3d6000fd5b505050506040513d6020811015611f4057600080fd5b5051600d5460408051600160e01b635a36366702815290516001600160a01b0390921691635a36366791600480820192602092909190829003018186803b158015611f8a57600080fd5b505afa158015611f9e573d6000803e3d6000fd5b505050506040513d6020811015611fb457600080fd5b50516040805163ffffffff861660e01b81526001600160a01b03948516600482015292909316602483015260448201529051606480830192600092919082900301818387803b15801561200657600080fd5b505af115801561201a573d6000803e3d6000fd5b50505050612199600d60009054906101000a90046001600160a01b03166001600160a01b031663e75592606040518163ffffffff1660e01b815260040160206040518083038186803b15801561206f57600080fd5b505afa158015612083573d6000803e3d6000fd5b505050506040513d602081101561209957600080fd5b5051600d5460408051600160e01b635a36366702815290516001600160a01b0390921691635a36366791600480820192602092909190829003018186803b1580156120e357600080fd5b505afa1580156120f7573d6000803e3d6000fd5b505050506040513d602081101561210d57600080fd5b5051600d5460408051600160e01b6323dc9e3702815290516001600160a01b03909216916323dc9e3791600480820192602092909190829003018186803b15801561215757600080fd5b505afa15801561216b573d6000803e3d6000fd5b505050506040513d602081101561218157600080fd5b50516001600160a01b0316919063ffffffff612eee16565b600d60009054906101000a90046001600160a01b03166001600160a01b031663e75592606040518163ffffffff1660e01b815260040160206040518083038186803b1580156121e757600080fd5b505afa1580156121fb573d6000803e3d6000fd5b505050506040513d602081101561221157600080fd5b5051600d5460408051600160e01b6323dc9e3702815290516001600160a01b039384169363338b5dea9316916323dc9e37916004808301926020929190829003018186803b15801561226257600080fd5b505afa158015612276573d6000803e3d6000fd5b505050506040513d602081101561228c57600080fd5b5051600d5460408051600160e01b635a36366702815290516001600160a01b0390921691635a36366791600480820192602092909190829003018186803b1580156122d657600080fd5b505afa1580156122ea573d6000803e3d6000fd5b505050506040513d602081101561230057600080fd5b50516040805163ffffffff851660e01b81526001600160a01b039093166004840152602483019190915251604480830192600092919082900301818387803b15801561234b57600080fd5b505af115801561235f573d6000803e3d6000fd5b505050505b600b805460018101909155600d54604080517fd9e86f1d00000000000000000000000000000000000000000000000000000000815290516000926001600160a01b03169163d9e86f1d916004808301926020929190829003018186803b1580156123cd57600080fd5b505afa1580156123e1573d6000803e3d6000fd5b505050506040513d60208110156123f757600080fd5b5051600d54604080517f5979e75500000000000000000000000000000000000000000000000000000000815290516001600160a01b03938416936347c72c70931691635979e755916004808301926020929190829003018186803b15801561245e57600080fd5b505afa158015612472573d6000803e3d6000fd5b505050506040513d602081101561248857600080fd5b50516040805163ffffffff841660e01b81526001600160a01b0390921660048301523060248301525160448083019260209291908290030181600087803b1580156124d257600080fd5b505af11580156124e6573d6000803e3d6000fd5b505050506040513d60208110156124fc57600080fd5b50516040805160e0810182523381524260208083019190915260008284018190526060830152600d548351600160e01b635a3636670281529351949550919360808501936001600160a01b0390931692635a363667926004808301939192829003018186803b15801561256e57600080fd5b505afa158015612582573d6000803e3d6000fd5b505050506040513d602081101561259857600080fd5b505181526001600160a01b0383166020820152604001600090526000838152600f6020908152604091829020835181546001600160a01b03199081166001600160a01b03928316178355928501516001830155928401516002820180548416918516919091179055606084015160038201556080840151600482015560a084015160058201805490931693169290921780825560c0840151919074ff00000000000000000000000000000000000000001916600160a01b83600681111561265b57fe5b0217905550905050606061266e836126f3565b905061267b838287613452565b6000848152600f60205260409020600501805474ff00000000000000000000000000000000000000001916600160a01b8360068111156126b757fe5b0217905550505050919050565b60065460009060ff1615806116915750506001600160a01b031660009081526007602052604090205460ff1690565b6000818152600f6020526040902060609061270c614fee565b60408051610160810182528581526008546001600160a01b03908116602083015260095481169282019290925283548216606082015260018401546080820152600284015490911660a0820152600383015460c0820152600583015460e0820190600160a01b900460ff16600681111561278257fe5b60ff16815260058401546001600160a01b0390811660208084019190915233604080850191909152600d5481517f2bc51c6d0000000000000000000000000000000000000000000000000000000081529151606090950194931692632bc51c6d92600480840193919291829003018186803b15801561280057600080fd5b505afa158015612814573d6000803e3d6000fd5b505050506040513d602081101561282a57600080fd5b50516001600160a01b031690529050612842816136f1565b949350505050565b60008381526010602090815260408083205481517fc8200520000000000000000000000000000000000000000000000000000000008152600481019283528651604482015286516060946001600160a01b039093169363c820052093899389938392602483019260640191908701908083838e5b838110156128d65781810151838201526020016128be565b50505050905090810190601f1680156129035780820380516001836020036101000a031916815260200191505b50838103825284518152845160209182019186019080838360005b8381101561293657818101518382015260200161291e565b50505050905090810190601f1680156129635780820380516001836020036101000a031916815260200191505b50945050505050600060405180830381600087803b15801561298457600080fd5b505af1158015612998573d6000803e3d6000fd5b505050506040513d6000823e601f3d908101601f1916820160409081528110156129c157600080fd5b8151602083018051919392830192916401000000008111156129e257600080fd5b820160208101848111156129f557600080fd5b8151640100000000811182820187101715612a0f57600080fd5b50949a909950975050505050505050565b6000838152600f6020526040902060058101805484919074ff00000000000000000000000000000000000000001916600160a01b836006811115612a6057fe5b0217905550612a6e83612c44565b8015612a7e575060008160040154115b15612c3457600d60009054906101000a90046001600160a01b03166001600160a01b031663e75592606040518163ffffffff1660e01b815260040160206040518083038186803b158015612ad157600080fd5b505afa158015612ae5573d6000803e3d6000fd5b505050506040513d6020811015612afb57600080fd5b5051600d5460408051600160e01b6323dc9e3702815290516001600160a01b0393841693639e281a989316916323dc9e37916004808301926020929190829003018186803b158015612b4c57600080fd5b505afa158015612b60573d6000803e3d6000fd5b505050506040513d6020811015612b7657600080fd5b50516004808501546040805163ffffffff861660e01b81526001600160a01b0390941692840192909252602483015251604480830192600092919082900301818387803b158015612bc657600080fd5b505af1158015612bda573d6000803e3d6000fd5b50508254600480850154600d5460408051600160e01b6323dc9e370281529051612c3497506001600160a01b0395861696509294909116926323dc9e37928282019260209290829003018186803b15801561151257600080fd5b612c3e8483613741565b50505050565b60006003826006811115612c5457fe5b1480612c6b57506004826006811115612c6957fe5b145b80612c8157506005826006811115612c7f57fe5b145b8061169157506006826006811115612c9557fe5b1492915050565b6000828152600f6020526040812080546001600160a01b0384811691161480612cd4575060028101546001600160a01b038481169116145b8061284257506009546001600160a01b03848116911614949350505050565b60001990565b60008481526010602090815260408083205490517fa674326b0000000000000000000000000000000000000000000000000000000081526001600160a01b038681166024830152604482018690526060600483018181528951606485015289519195929094169363a674326b938a938a938a93928392608490910191908701908083838e5b83811015612d96578181015183820152602001612d7e565b50505050905090810190601f168015612dc35780820380516001836020036101000a031916815260200191505b50945050505050600060405180830381600087803b158015612de457600080fd5b505af1158015612df8573d6000803e3d6000fd5b505050506040513d6000823e601f3d908101601f191682016040908152811015612e2157600080fd5b815160208301805191939283019291640100000000811115612e4257600080fd5b82016020810184811115612e5557600080fd5b8151640100000000811182820187101715612e6f57600080fd5b50949b909a5098505050505050505050565b612e89614fc7565b612e91614fc7565b612e9e6020848551613c27565b509392505050565b612eb760008263ffffffff613d7616565b6040516001600160a01b038216907f9ddc85aace404f3f4847945cd853a70355e2f1dc7f6a75b7951259bcfa97c22b90600090a250565b801580612f8d5750604080517fdd62ed3e0000000000000000000000000000000000000000000000000000000081523060048201526001600160a01b03848116602483015291519185169163dd62ed3e91604480820192602092909190829003018186803b158015612f5f57600080fd5b505afa158015612f73573d6000803e3d6000fd5b505050506040513d6020811015612f8957600080fd5b5051155b612fcb57604051600160e51b62461bcd0281526004018080602001828103825260368152602001806155e06036913960400191505060405180910390fd5b604080516001600160a01b038416602482015260448082018490528251808303909101815260649091019091526020810180517bffffffffffffffffffffffffffffffffffffffffffffffffffffffff167f095ea7b30000000000000000000000000000000000000000000000000000000017905261304b908490613dfa565b505050565b604080516001600160a01b038416602482015260448082018490528251808303909101815260649091019091526020810180517bffffffffffffffffffffffffffffffffffffffffffffffffffffffff167fa9059cbb0000000000000000000000000000000000000000000000000000000017905261304b908490613dfa565b6130e160008263ffffffff613fbb16565b6040516001600160a01b038216907f708c3750abf4f634a44a83e054e242d74eca9179f6c36780e5f62d1bcda31ba090600090a250565b60008481526010602090815260408083205490517fe3e41ef10000000000000000000000000000000000000000000000000000000081526024810186905260606004820181815288516064840152885191946001600160a01b039094169363e3e41ef1938a938a938a939092839260448201926084909201918801908083838f5b838110156131b1578181015183820152602001613199565b50505050905090810190601f1680156131de5780820380516001836020036101000a031916815260200191505b50838103825284518152845160209182019186019080838360005b838110156132115781810151838201526020016131f9565b50505050905090810190601f16801561323e5780820380516001836020036101000a031916815260200191505b5095505050505050600060405180830381600087803b158015612de457600080fd5b60006001600160a01b0382166132aa57604051600160e51b62461bcd0281526004018080602001828103825260228152602001806153f96022913960400191505060405180910390fd5b506001600160a01b03166000908152602091909152604090205460ff1690565b60008481526010602090815260408083205490517f488d61bc0000000000000000000000000000000000000000000000000000000081526001600160a01b038681166024830152604482018690526060600483018181528951606485015289519195929094169363488d61bc938a938a938a93928392608490910191908701908083838e8315612d96578181015183820152602001612d7e565b60008481526010602090815260408083205490517f8ddd8d380000000000000000000000000000000000000000000000000000000081526024810186905260606004820181815288516064840152885191946001600160a01b0390941693638ddd8d38938a938a938a939092839260448201926084909201918801908083838f83156131b1578181015183820152602001613199565b60015460009060ff16801561341e5750600254158061341e57504260035460025401115b905090565b60045460009060ff1615806116915750506001600160a01b031660009081526005602052604090205460ff1690565b600080600d60009054906101000a90046001600160a01b03166001600160a01b031663be5405d26040518163ffffffff1660e01b815260040160206040518083038186803b1580156134a357600080fd5b505afa1580156134b7573d6000803e3d6000fd5b505050506040513d60208110156134cd57600080fd5b5051600a54604080517f1a9c5dab0000000000000000000000000000000000000000000000000000000081526001600160a01b039283166004820152306024820152905192935090831691631a9c5dab916044808201926020929091908290030181600087803b15801561354057600080fd5b505af1158015613554573d6000803e3d6000fd5b505050506040513d602081101561356a57600080fd5b5051600086815260106020908152604080832080546001600160a01b0319166001600160a01b03958616179081905581517fcdfa837a00000000000000000000000000000000000000000000000000000000815260048101928352895160448201528951919095169463cdfa837a948a948a949384936024810193606490910192880191908190849084905b8381101561360e5781810151838201526020016135f6565b50505050905090810190601f16801561363b5780820380516001836020036101000a031916815260200191505b50838103825284518152845160209182019186019080838360005b8381101561366e578181015183820152602001613656565b50505050905090810190601f16801561369b5780820380516001836020036101000a031916815260200191505b50945050505050602060405180830381600087803b1580156136bc57600080fd5b505af11580156136d0573d6000803e3d6000fd5b505050506040513d60208110156136e657600080fd5b505195945050505050565b6060806136fd83614025565b6040519080825280601f01601f191660200182016040528015613727576020820181803883390190505b50905060006137388460208461402c565b82525092915050565b61374961504a565b613752826141ae565b6000848152600f602052604081206005810154929350916001600160a01b0316905b83515181101561076f5761378661505d565b845180518390811061379457fe5b602002602001015190506137ac878260200151612c9c565b6137ea57604051600160e51b62461bcd0281526004018080602001828103825260368152602001806152b36036913960400191505060405180910390fd5b6137f8878260400151612c9c565b61383657604051600160e51b62461bcd0281526004018080602001828103825260368152602001806155806036913960400191505060405180910390fd5b805115613ad557613845612cf3565b6001600160a01b031681606001516001600160a01b0316141561397057826001600160a01b031663487c3580826020015183608001516040518363ffffffff1660e01b815260040180836001600160a01b03166001600160a01b0316815260200182815260200192505050600060405180830381600087803b1580156138ca57600080fd5b505af11580156138de573d6000803e3d6000fd5b5050600e54608084015160408086015181517f70d97c340000000000000000000000000000000000000000000000000000000081526001600160a01b0391821660048201529151931694506370d97c3493509091602480830192600092919082900301818588803b15801561395257600080fd5b505af1158015613966573d6000803e3d6000fd5b5050505050613ad0565b602081015160608201516080830151604080517f3d4aa9a90000000000000000000000000000000000000000000000000000000081526001600160a01b039485166004820152928416602484015260448301919091525191851691633d4aa9a99160648082019260009290919082900301818387803b1580156139f257600080fd5b505af1158015613a06573d6000803e3d6000fd5b5050600e5460808401516060850151613a3694506001600160a01b0390811693509091169063ffffffff612eee16565b600e546040808301516060840151608085015183517f810c0af80000000000000000000000000000000000000000000000000000000081526001600160a01b03938416600482015291831660248301526044820152915192169163810c0af89160648082019260009290919082900301818387803b158015613ab757600080fd5b505af1158015613acb573d6000803e3d6000fd5b505050505b613c1e565b613add612cf3565b6001600160a01b031681606001516001600160a01b03161415613b79576020810151604080830151608084015182517fbeabacc80000000000000000000000000000000000000000000000000000000081526001600160a01b0394851660048201529184166024830152604482015290519185169163beabacc89160648082019260009290919082900301818387803b158015613ab757600080fd5b60208101516040808301516060840151608085015183517f2c54de4f0000000000000000000000000000000000000000000000000000000081526001600160a01b039586166004820152928516602484015290841660448301526064820152905191851691632c54de4f9160848082019260009290919082900301818387803b158015613c0557600080fd5b505af1158015613c19573d6000803e3d6000fd5b505050505b50600101613774565b613c2f614fc7565b6000613c39614fc7565b613c4161508b565b6000808089805b898201811015613d6457613c5c818c6141cb565b9196509450925082016001851415613c8057613c7a818c8989614206565b01613d5f565b8460021415613c9557613c7a818c8989614265565b8460031415613caa57613c7a818c89896142b3565b8460041415613cbf57613c7a818c89896142fa565b6001846005811115613ccd57fe5b1415613ce7576000613cdf828d614341565b929092019150505b6005846005811115613cf557fe5b1415613d0f576000613d07828d614362565b929092019150505b6000846005811115613d1d57fe5b1415613d37576000613d2f828d614374565b929092019150505b6002846005811115613d4557fe5b1415613d5f576000613d57828d614406565b929092019150505b613c48565b50949a97995096975050505050505050565b613d808282613260565b15613dd55760408051600160e51b62461bcd02815260206004820152601f60248201527f526f6c65733a206163636f756e7420616c72656164792068617320726f6c6500604482015290519081900360640190fd5b6001600160a01b0316600090815260209190915260409020805460ff19166001179055565b613e0c826001600160a01b03166144cd565b613e605760408051600160e51b62461bcd02815260206004820152601f60248201527f5361666545524332303a2063616c6c20746f206e6f6e2d636f6e747261637400604482015290519081900360640190fd5b60006060836001600160a01b0316836040518082805190602001908083835b60208310613e9e5780518252601f199092019160209182019101613e7f565b6001836020036101000a0380198251168184511680821785525050505050509050019150506000604051808303816000865af19150503d8060008114613f00576040519150601f19603f3d011682016040523d82523d6000602084013e613f05565b606091505b509150915081613f5f5760408051600160e51b62461bcd02815260206004820181905260248201527f5361666545524332303a206c6f772d6c6576656c2063616c6c206661696c6564604482015290519081900360640190fd5b805115612c3e57808060200190516020811015613f7b57600080fd5b5051612c3e57604051600160e51b62461bcd02815260040180806020018281038252602a8152602001806155b6602a913960400191505060405180910390fd5b613fc58282613260565b61400357604051600160e51b62461bcd02815260040180806020018281038252602181526020018061532b6021913960400191505060405180910390fd5b6001600160a01b0316600090815260209190915260409020805460ff19169055565b5061011990565b6000828061403e600160028387614504565b865191019061404e90828661451a565b0161405c6002808387614504565b8101905061406f86602001518286614529565b0161407e600360028387614504565b8101905061409186604001518286614529565b016140a0600460028387614504565b810190506140b386606001518286614529565b016140c2600560028387614504565b810190506140d58660800151828661451a565b016140e4600660028387614504565b810190506140f78660a001518286614529565b01614106600760028387614504565b810190506141198660c00151828661451a565b01614128600860028387614504565b8101905061413b8660e001518286614541565b0161414a600960028387614504565b8101905061415e8661010001518286614529565b0161416d600a60028387614504565b810190506141818661012001518286614529565b01614190600b60028387614504565b810190506141a48661014001518286614529565b0103949350505050565b6141b661504a565b6141be61504a565b612e9e6020848551614553565b60008060008060006141dd8787614374565b9150915060008260071660058111156141f257fe5b600890930498929750909550909350505050565b6000806000614215878761477c565b915091506142228561478e565b1561423c57600184815b602002018051909101905261425b565b81855260208401511561425b57600184815b6020020180519190910390525b9695505050505050565b60008060006142748787614792565b915091506142818561478e565b1561429057600184600261422c565b6001600160a01b038216602086015260408401511561425b57600184600261424e565b60008060006142c287876147b6565b915091506142cf8561478e565b156142de57600184600361422c565b811515604086015260608401511561425b57600184600361424e565b600080600061430987876147b6565b915091506143168561478e565b1561432557600184600461422c565b811515606086015260808401511561425b57600184600461424e565b600080600080614353868660086147ed565b909450925050505b9250929050565b600080600080614353868660046147ed565b80519181019160009081908190819060200160805b60808116608014156143f95786880382116143d457600160e51b62461bcd026000526020600452600f602452600160881b6e6c656e677468206f766572666c6f770260445260536000fd5b875160001a905080607f16836007021b84179350600183019250600188019750614389565b5091969095509350505050565b606060008060006144178686614374565b915091506060826040519080825280601f01601f191660200182016040528015614448576020820181803883390190505b508651978701830197909150602090810190820160005b858110156144bd57888a0383116144a657600160e51b62461bcd026000526020600452600f602452600160881b6e6c656e677468206f766572666c6f770260445260536000fd5b895160001a82536001998a0199918201910161445f565b5091955050500190509250929050565b6000813f7fc5d2460186f7233c927e7db2dcc703c0e500b653ca82273b7bfad8045d85a47081158015906128425750141592915050565b600060088502600785161761425b818585614873565b600061284284602085856148b6565b6000612842846001600160a01b0316601485856148b6565b60006128428460ff16600185856148b6565b61455b61504a565b600061456561504a565b61456d6150a9565b6000808089805b89820181101561465857614588818c6141cb565b91965094509250820160018514156145b3576145ad818c6145a76148e9565b896148f7565b01614653565b60018460058111156145c157fe5b14156145db5760006145d3828d614341565b929092019150505b60058460058111156145e957fe5b14156146035760006145fb828d614362565b929092019150505b600084600581111561461157fe5b141561462b576000614623828d614374565b929092019150505b600284600581111561463957fe5b141561465357600061464b828d614406565b929092019150505b614574565b5080856001602002015160405190808252806020026020018201604052801561469b57816020015b61468861505d565b8152602001906001900390816146805790505b5087525b898201811015613d64576146b3818c6141cb565b91965094509250820160018514156146d7576146d1818c89896148f7565b01614777565b60018460058111156146e557fe5b14156146ff5760006146f7828d614341565b929092019150505b600584600581111561470d57fe5b141561472757600061471f828d614362565b929092019150505b600084600581111561473557fe5b141561474f576000614747828d614374565b929092019150505b600284600581111561475d57fe5b141561477757600061476f828d614406565b929092019150505b61469f565b6000806000806143536020878761495f565b1590565b6000806000806147a46014878761497e565b60609190911c97909650945050505050565b6000806000806147c68686614374565b9150915081600014156147e05760009350915061435b9050565b6001969095509350505050565b81519282019260009081908190602001815b8581101561486557868803821161484657600160e51b62461bcd026000526020600452600f602452600160881b6e6c656e677468206f766572666c6f770260445260536000fd5b875160001a816008021b831792506001880197506001810190506147ff565b509096939550929350505050565b600080828401607f86165b600787901c156148a6578060801782535060079590951c9460019182019101607f861661487e565b8082535050600101949350505050565b6003820191600090816148cb87868689614b02565b9485019490506148dc818386614b40565b5050909203949350505050565b6148f161504a565b50600090565b600061490161505d565b600061490d8787614b81565b9150915061491a8561478e565b15614928576001848161422c565b845160208501518151849291810390811061493f57fe5b6020908102919091018101919091528401511561425b576001848161424e565b600080600080614970878787614bc3565b909890975095505050505050565b60008060008061498e8686614374565b90925090506020600860ff60038a01168484011115614a59576040518060400160405280600f8152602001600160881b6e6c656e677468206f766572666c6f7702815250604051600160e51b62461bcd0281526004018080602001828103825283818151815260200191508051906020019080838360005b83811015614a1e578181015183820152602001614a06565b50505050905090810190601f168015614a4b5780820380516001836020036101000a031916815260200191505b509250505060405180910390fd5b6003880197506000602088510189106040518060400160405280600f8152602001600160881b6e6c656e677468206f766572666c6f770281525090614ae257604051600160e51b62461bcd028152602060048201818152835160248401528351909283926044909101919085019080838360008315614a1e578181015183820152602001614a06565b505087870151918490036002010290811c901b9350019050935093915050565b600080614b0f8684614d13565b9050848401815b8015614b345787816020031a82536001919091019060001901614b16565b50909695505050505050565b600082614b51600286018285614873565b84019350614b63600160028686614504565b84019350614b72858585614873565b90930192830390509392505050565b614b8961505d565b6000838180614b988387614374565b915091508083019250614ba961505d565b614bb4848885614d51565b50955050019150509250929050565b6000806000806000614bd58787614374565b915091508760030160ff168183011115614c5957604080518082018252600f8152600160881b6e6c656e677468206f766572666c6f770260208083019182529251600160e51b62461bcd0281526004810193845282516024820152825192939283926044909201919080838360008315614a1e578181015183820152602001614a06565b600387019650602086510187106040518060400160405280600f8152602001600160881b6e6c656e677468206f766572666c6f770281525090614ce057604051600160e51b62461bcd028152602060048201818152835160248401528351909283926044909101919085019080838360008315614a1e578181015183820152602001614a06565b5086860151925060011982015b6020811015614d055761010084049350600101614ced565b509197910195509350505050565b600060ff825b600719600882020182901b8516158015614d335750600081115b15614d415760001901614d19565b8061284257506001949350505050565b614d5961505d565b6000614d6361505d565b614d6b6150c7565b6000808089805b898201811015613d6457614d86818c6141cb565b9196509450925082016001851415614daa57614da4818c8989614ea3565b01614e9e565b8460021415614dbf57614da4818c8989614265565b8460031415614dd457614da4818c8989614ee5565b8460041415614de957614da4818c8989614f33565b8460051415614dfe57614da4818c8989614f81565b6001846005811115614e0c57fe5b1415614e26576000614e1e828d614341565b929092019150505b6005846005811115614e3457fe5b1415614e4e576000614e46828d614362565b929092019150505b6000846005811115614e5c57fe5b1415614e76576000614e6e828d614374565b929092019150505b6002846005811115614e8457fe5b1415614e9e576000614e96828d614406565b929092019150505b614d72565b6000806000614eb287876147b6565b91509150614ebf8561478e565b15614ecd576001848161422c565b811515855260208401511561425b576001848161424e565b6000806000614ef48787614792565b91509150614f018561478e565b15614f1057600184600361422c565b6001600160a01b038216604086015260608401511561425b57600184600361424e565b6000806000614f428787614792565b91509150614f4f8561478e565b15614f5e57600184600461422c565b6001600160a01b038216606086015260808401511561425b57600184600461424e565b6000806000614f90878761477c565b91509150614f9d8561478e565b15614fac57600184600561422c565b6080850182905260a08401511561425b57600184600561424e565b60408051608081018252600080825260208201819052918101829052606081019190915290565b6040805161016081018252600080825260208201819052918101829052606081018290526080810182905260a0810182905260c0810182905260e081018290526101008101829052610120810182905261014081019190915290565b6040518060200160405280606081525090565b6040805160a08101825260008082526020820181905291810182905260608101829052608081019190915290565b6040518060a001604052806005906020820280388339509192915050565b60405180604001604052806002906020820280388339509192915050565b6040518060c00160405280600690602082028038833950919291505056fe496e737472756d656e744d616e61676572426173653a2054686520696e737472756d656e7420697320616c72656164792064656163746976617465642e496e737472756d656e744d616e61676572426173653a2049737375616e6365207465726d696e617465642e496e737472756d656e744d616e61676572426173653a205769746864726177616c206973206e6f7420616c6c6f7765642e496e737472756d656e744d616e61676572426173653a204e6f7420616e20656c696769626c652074616b65722e496e737472756d656e744d616e61676572426173653a2049737375616e6365206e6f742065786973742e496e737472756d656e744d616e61676572426173653a204f6e6c79204653502063616e20757064617465206d616b65722077686974656c6973742e54696d65724f7261636c65526f6c653a2063616c6c657220646f6573206e6f742068617665207468652054696d65724f7261636c6520726f6c65496e737472756d656e744d616e61676572426173653a204f6e6c79204653502063616e207570646174652074616b65722077686974656c6973742e496e737472756d656e744d616e61676572426173653a204e6f7420616e20656c696769626c65206d616b65722e496e737472756d656e744d616e61676572426173653a205472616e7366657220736f75726365206973206e6f7420616c6c6f7765642e496e737472756d656e744d616e61676572426173653a20496e737472756d656e7420436f6e6669672061646472657373206d7573742062652070726f76696465642e526f6c65733a206163636f756e7420646f6573206e6f74206861766520726f6c65496e737472756d656e744d616e61676572426173653a204f6e6c79204653502063616e20646561637469766174652074686520696e737472756d656e742e496e737472756d656e744d616e61676572426173653a20496e737472756d656e7420706172616d6574657273206d7573742062652070726f76696465642e496e737472756d656e744d616e61676572426173653a20496e737472756d656e742069732064656163746976617465642e526f6c65733a206163636f756e7420697320746865207a65726f2061646472657373496e737472756d656e744d616e61676572426173653a204653502061646472657373206d7573742062652070726f76696465642e496e737472756d656e744d616e61676572426173653a20416c726561647920696e697469616c697a65642e496e737472756d656e744d616e61676572426173653a204465706f736974206973206e6f7420616c6c6f7765642e496e737472756d656e744d616e61676572426173653a20546f6b656e2061646472657373206d757374206265207365742e496e737472756d656e744d616e61676572426173653a204d616b65722077686974656c697374206973206e6f7420656e61626c65642e496e737472756d656e744d616e61676572426173653a20496e737472756d656e742061646472657373206d7573742062652070726f76696465642e496e737472756d656e744d616e61676572426173653a2054616b65722077686974656c697374206973206e6f7420656e61626c65642e496e737472756d656e744d616e61676572426173653a205472616e7366657220746172676574206973206e6f7420616c6c6f7765642e5361666545524332303a204552433230206f7065726174696f6e20646964206e6f7420737563636565645361666545524332303a20617070726f76652066726f6d206e6f6e2d7a65726f20746f206e6f6e2d7a65726f20616c6c6f77616e6365496e737472756d656e744d616e61676572426173653a20416d6f756e74206d757374206265207365742e496e737472756d656e744d616e61676572426173653a2049737375616e6365206e6f7420656e6761676561626c652ea165627a7a723058206465ba2777907556cba37d6bdb6f81e2c590c6fd5e7aa98909daa23291c02eb80029526f6c65733a206163636f756e7420697320746865207a65726f2061646472657373",
  "source": "pragma solidity ^0.5.0;\n\nimport \"../../lib/proxy/ProxyFactoryInterface.sol\";\nimport \"../InstrumentManagerBase.sol\";\nimport \"../InstrumentBase.sol\";\nimport \"./InstrumentV3.sol\";\n\n/**\n * @title Instrument Manager for Instrument v3.\n * A storage proxy is created for each issuance.\n */\ncontract InstrumentV3Manager is InstrumentManagerBase {\n\n    // Mapping: Issuance Id => Issuance Proxy contract address\n    mapping(uint256 => address) private _issuanceProxies;\n\n    /**\n     * @dev Instrument type-specific issuance creation processing.\n     * @param issuanceId ID of the issuance.\n     * @param makerParameters The custom parameters to the newly created issuance\n     * @param issuanceParametersData Issuance Parameters.\n     */\n    function _processCreateIssuance(uint256 issuanceId, bytes memory issuanceParametersData, bytes memory makerParameters) internal\n        returns (InstrumentBase.IssuanceStates updatedState) {\n\n        // Create an AdminOnlyUpgradeabilityProxy for the new issuance\n        // Current Instrument Manager is the proxy admin for this proxy, and only the current\n        // Instrument Manager can call fallback on the proxy.\n        ProxyFactoryInterface proxyFactory = ProxyFactoryInterface(_instrumentConfig.proxyFactoryAddress());\n        _issuanceProxies[issuanceId] = proxyFactory.createAdminOnlyUpgradeabilityProxy(_instrumentAddress, address(this));\n\n        updatedState = InstrumentV3(_issuanceProxies[issuanceId]).createIssuance(issuanceParametersData, makerParameters);\n    }\n\n    /**\n     * @dev Instrument type-specific issuance engage processing.\n     * @param issuanceId ID of the issuance.\n     * @param issuanceParametersData Issuance Parameters.\n     * @param takerParameters The custom parameters to the new engagement\n     */\n    function _processEngageIssuance(uint256 issuanceId, bytes memory issuanceParametersData, bytes memory takerParameters) internal\n        returns (InstrumentBase.IssuanceStates updatedState, bytes memory transfersData) {\n\n        (updatedState, transfersData) = InstrumentV3(_issuanceProxies[issuanceId]).engageIssuance(issuanceParametersData, takerParameters);\n    }\n\n    /**\n     * @dev Instrument type-specific issuance ERC20 token deposit processing.\n     * Note: This method is called after deposit is complete, so that the Escrow reflects the balance after deposit.\n     * @param issuanceId ID of the issuance.\n     * @param issuanceParametersData Issuance Parameters.\n     * @param tokenAddress The address of the ERC20 token to deposit.\n     * @param amount The amount of ERC20 token to deposit.\n     */\n    function _processTokenDeposit(uint256 issuanceId, bytes memory issuanceParametersData, address tokenAddress, uint256 amount)\n        internal returns (InstrumentBase.IssuanceStates updatedState, bytes memory transfersData) {\n\n        (updatedState, transfersData) = InstrumentV3(_issuanceProxies[issuanceId]).processTokenDeposit(\n            issuanceParametersData, tokenAddress, amount);\n    }\n\n    /**\n     * @dev Instrument type-specific issuance ERC20 withdraw processing.\n     * Note: This method is called after withdraw is complete, so that the Escrow reflects the balance after withdraw.\n     * @param issuanceId ID of the issuance.\n     * @param issuanceParametersData Issuance Parameters.\n     * @param tokenAddress The address of the ERC20 token to withdraw.\n     * @param amount The amount of ERC20 token to withdraw.\n     */\n    function _processTokenWithdraw(uint256 issuanceId, bytes memory issuanceParametersData, address tokenAddress, uint256 amount)\n        internal returns (InstrumentBase.IssuanceStates updatedState, bytes memory transfersData) {\n\n        (updatedState, transfersData) = InstrumentV3(_issuanceProxies[issuanceId]).processTokenWithdraw(\n            issuanceParametersData, tokenAddress, amount);\n    }\n\n    /**\n     * @dev Instrument type-specific custom event processing.\n     * @param issuanceId ID of the issuance.\n     * @param issuanceParametersData Issuance Parameters.\n     * @param eventName The name of the custom event.\n     * @param eventPayload The custom parameters to the custom event\n     */\n    function _processCustomEvent(uint256 issuanceId, bytes memory issuanceParametersData, bytes32 eventName, bytes memory eventPayload)\n        internal returns (InstrumentBase.IssuanceStates updatedState, bytes memory transfersData) {\n\n        (updatedState, transfersData) = InstrumentV3(_issuanceProxies[issuanceId]).processCustomEvent(\n            issuanceParametersData, eventName, eventPayload);\n    }\n\n    /**\n     * @dev Instrument type-specific scheduled event processing.\n     * @param issuanceId ID of the issuance.\n     * @param issuanceParametersData Issuance Parameters.\n     * @param eventName The name of the custom event.\n     * @param eventPayload The custom parameters to the custom event\n     */\n    function _processScheduledEvent(uint256 issuanceId, bytes memory issuanceParametersData, bytes32 eventName, bytes memory eventPayload)\n        internal returns (InstrumentBase.IssuanceStates updatedState, bytes memory transfersData) {\n\n        (updatedState, transfersData) = InstrumentV3(_issuanceProxies[issuanceId]).processScheduledEvent(\n            issuanceParametersData, eventName, eventPayload);\n    }\n}",
  "sourcePath": "/Users/shengdading/git/nuts-platform-v2/contracts/instrument/v3/InstrumentV3Manager.sol",
  "compiler": {
    "name": "solc",
    "version": "0.5.8+commit.23d335f2.Emscripten.clang"
  },
  "schemaVersion": "3.0.16",
  "updatedAt": "2019-10-10T08:06:15.231Z",
  "devdoc": {
    "methods": {
      "createIssuance(bytes)": {
        "details": "Create a new issuance of the financial instrument",
        "params": {
          "makerParameters": "The custom parameters to the newly created issuance"
        },
        "return": "The id of the newly created issuance."
      },
      "deactivate()": {
        "details": "Deactivates the instrument."
      },
      "depositToIssuance(uint256,uint256)": {
        "details": "The caller deposits ETH, which is currently deposited in Instrument Escrow, into issuance.",
        "params": {
          "amount": "The amount of ERC20 token transfered",
          "issuanceId": "The id of the issuance"
        }
      },
      "depositTokenToIssuance(uint256,address,uint256)": {
        "details": "The caller deposits ERC20 token, which is currently deposited in Instrument Escrow, into issuance.",
        "params": {
          "amount": "The amount of ERC20 token deposited.",
          "issuanceId": "The id of the issuance",
          "tokenAddress": "The address of the ERC20 token to deposit."
        }
      },
      "engageIssuance(uint256,bytes)": {
        "details": "A taker engages to the issuance",
        "params": {
          "issuanceId": "The id of the issuance",
          "takerParameters": "The custom parameters to the new engagement"
        }
      },
      "getInstrumentEscrowAddress()": {
        "details": "Get the Instrument Escrow."
      },
      "initialize(address,address,address,bytes)": {
        "details": "IMPORTANT: Initialization method for all instrument managers. This function must be invoked immediately after creating the proxy and updating implementation. If it's invoked in a separate transaction, it's possible that it's already invoked by someone else.",
        "params": {
          "fspAddress": "Address of FSP that activates this financial instrument.",
          "instrumentAddress": "Address of the financial instrument contract.",
          "instrumentConfigAddress": "Address of the Instrument Config contract.",
          "instrumentParameters": "Custom parameters for the Instrument Manager."
        }
      },
      "notifyCustomEvent(uint256,bytes32,bytes)": {
        "details": "Notify custom events to issuance. This could be invoked by any caller.",
        "params": {
          "eventName": "Name of the custom event",
          "eventPayload": "Payload of the custom event",
          "issuanceId": "The id of the issuance"
        }
      },
      "notifyScheduledEvent(uint256,bytes32,bytes)": {
        "details": "Notify scheduled events to issuance. This could be invoked by Timer Oracle only. Only the address with Timer Oracle Role can invoke notify scheduled event.",
        "params": {
          "eventName": "Name of the scheduled event, eventName of EventScheduled event",
          "eventPayload": "Payload of the scheduled event, eventPayload of EventScheduled event",
          "issuanceId": "The id of the issuance"
        }
      },
      "setMakerWhitelist(address,bool)": {
        "details": "Updates the maker whitelist. The maker whitelist only affects new issuances.",
        "params": {
          "allowed": "Whether this maker is allowed to create new issuance.",
          "makerAddress": "The maker address to update in whitelist"
        }
      },
      "setTakerWhitelist(address,bool)": {
        "details": "Updates the taker whitelist. The taker whitelist only affects new engagement.",
        "params": {
          "allowed": "Whether this taker is allowed to engage issuance.",
          "takerAddress": "The taker address to update in whitelist"
        }
      },
      "withdrawFromIssuance(uint256,uint256)": {
        "details": "The caller withdraws ETH from issuance to Instrument Escrow.",
        "params": {
          "amount": "The amount of ERC20 token transfered",
          "issuanceId": "The id of the issuance"
        }
      },
      "withdrawTokenFromIssuance(uint256,address,uint256)": {
        "details": "The caller withdraws ERC20 token from issuance to Instrument Escrow.",
        "params": {
          "amount": "The amount of ERC20 token transfered",
          "issuanceId": "The id of the issuance",
          "tokenAddress": "The address of the ERC20 token"
        }
      }
    },
    "title": "Instrument Manager for Instrument v3. A storage proxy is created for each issuance."
  },
  "userdoc": {
    "methods": {}
  }
}