{
  "contractName": "InstrumentV3Manager",
  "abi": [
    {
      "constant": false,
      "inputs": [
        {
          "name": "issuanceId",
          "type": "uint256"
        },
        {
          "name": "takerParameters",
          "type": "bytes"
        }
      ],
      "name": "engageIssuance",
      "outputs": [],
      "payable": false,
      "stateMutability": "nonpayable",
      "type": "function"
    },
    {
      "constant": false,
      "inputs": [
        {
          "name": "issuanceId",
          "type": "uint256"
        },
        {
          "name": "amount",
          "type": "uint256"
        }
      ],
      "name": "depositToIssuance",
      "outputs": [],
      "payable": false,
      "stateMutability": "nonpayable",
      "type": "function"
    },
    {
      "constant": false,
      "inputs": [
        {
          "name": "makerAddress",
          "type": "address"
        },
        {
          "name": "allowed",
          "type": "bool"
        }
      ],
      "name": "setMakerWhitelist",
      "outputs": [],
      "payable": false,
      "stateMutability": "nonpayable",
      "type": "function"
    },
    {
      "constant": false,
      "inputs": [
        {
          "name": "issuanceId",
          "type": "uint256"
        },
        {
          "name": "tokenAddress",
          "type": "address"
        },
        {
          "name": "amount",
          "type": "uint256"
        }
      ],
      "name": "depositTokenToIssuance",
      "outputs": [],
      "payable": false,
      "stateMutability": "nonpayable",
      "type": "function"
    },
    {
      "constant": false,
      "inputs": [],
      "name": "deactivate",
      "outputs": [],
      "payable": false,
      "stateMutability": "nonpayable",
      "type": "function"
    },
    {
      "constant": false,
      "inputs": [
        {
          "name": "takerAddress",
          "type": "address"
        },
        {
          "name": "allowed",
          "type": "bool"
        }
      ],
      "name": "setTakerWhitelist",
      "outputs": [],
      "payable": false,
      "stateMutability": "nonpayable",
      "type": "function"
    },
    {
      "constant": true,
      "inputs": [],
      "name": "getInstrumentEscrowAddress",
      "outputs": [
        {
          "name": "",
          "type": "address"
        }
      ],
      "payable": false,
      "stateMutability": "view",
      "type": "function"
    },
    {
      "constant": false,
      "inputs": [
        {
          "name": "issuanceId",
          "type": "uint256"
        },
        {
          "name": "tokenAddress",
          "type": "address"
        },
        {
          "name": "amount",
          "type": "uint256"
        }
      ],
      "name": "withdrawTokenFromIssuance",
      "outputs": [],
      "payable": false,
      "stateMutability": "nonpayable",
      "type": "function"
    },
    {
      "constant": false,
      "inputs": [
        {
          "name": "issuanceId",
          "type": "uint256"
        },
        {
          "name": "amount",
          "type": "uint256"
        }
      ],
      "name": "withdrawFromIssuance",
      "outputs": [],
      "payable": false,
      "stateMutability": "nonpayable",
      "type": "function"
    },
    {
      "constant": false,
      "inputs": [
        {
          "name": "issuanceId",
          "type": "uint256"
        },
        {
          "name": "eventName",
          "type": "bytes32"
        },
        {
          "name": "eventPayload",
          "type": "bytes"
        }
      ],
      "name": "notifyCustomEvent",
      "outputs": [],
      "payable": false,
      "stateMutability": "nonpayable",
      "type": "function"
    },
    {
      "constant": false,
      "inputs": [
        {
          "name": "makerParameters",
          "type": "bytes"
        }
      ],
      "name": "createIssuance",
      "outputs": [
        {
          "name": "",
          "type": "uint256"
        }
      ],
      "payable": false,
      "stateMutability": "nonpayable",
      "type": "function"
    },
    {
      "inputs": [
        {
          "name": "fspAddress",
          "type": "address"
        },
        {
          "name": "instrumentAddress",
          "type": "address"
        },
        {
          "name": "instrumentConfigAddress",
          "type": "address"
        },
        {
          "name": "instrumentParameters",
          "type": "bytes"
        }
      ],
      "payable": false,
      "stateMutability": "nonpayable",
      "type": "constructor"
    },
    {
      "anonymous": false,
      "inputs": [
        {
          "indexed": true,
          "name": "instrumentAddress",
          "type": "address"
        },
        {
          "indexed": true,
          "name": "instrumentEscrowAddress",
          "type": "address"
        }
      ],
      "name": "InstrumentManagerInitialized",
      "type": "event"
    }
  ],
  "bytecode": "0x60806040523480156200001157600080fd5b5060405162005ad838038062005ad8833981018060405260808110156200003757600080fd5b81516020830151604084015160608501805193959294919391830192916401000000008111156200006757600080fd5b820160208101848111156200007b57600080fd5b81516401000000008111828201871017156200009657600080fd5b5050600954909350869250859150849084906001600160a01b03161562000109576040517f08c379a000000000000000000000000000000000000000000000000000000000815260040180806020018281038252602b81526020018062005a72602b913960400191505060405180910390fd5b6001600160a01b0384166200016a576040517f08c379a000000000000000000000000000000000000000000000000000000000815260040180806020018281038252603481526020018062005a3e6034913960400191505060405180910390fd5b6001600160a01b038316620001cb576040517f08c379a000000000000000000000000000000000000000000000000000000000815260040180806020018281038252603b81526020018062005a9d603b913960400191505060405180910390fd5b6001600160a01b0382166200022c576040517f08c379a0000000000000000000000000000000000000000000000000000000008152600401808060200182810382526042815260200180620059be6042913960600191505060405180910390fd5b600081511162000288576040517f08c379a000000000000000000000000000000000000000000000000000000000815260040180806020018281038252603e81526020018062005a00603e913960400191505060405180910390fd5b6200029262001003565b620002a8826200056460201b620042e01760201c565b60008054600160ff1991821681179092558251909155426002556040820151600380548316911515919091179055606082015160058054909216901515179055600c80546001600160a01b03199081166001600160a01b038781169190911790925560078054909116888316179055602082015191925016156200033157806020015162000333565b845b600880546001600160a01b03199081166001600160a01b0393841617909155600980549091168683161790556001600a55600c54604080517f1e081f0900000000000000000000000000000000000000000000000000000000815290519190921691631e081f09916004808301926020929190829003018186803b158015620003bb57600080fd5b505afa158015620003d0573d6000803e3d6000fd5b505050506040513d6020811015620003e757600080fd5b5051600b55600c54604080517fd9e86f1d00000000000000000000000000000000000000000000000000000000815290516001600160a01b039092169163d9e86f1d91600480820192602092909190829003018186803b1580156200044b57600080fd5b505afa15801562000460573d6000803e3d6000fd5b505050506040513d60208110156200047757600080fd5b5051604080517f99733c7500000000000000000000000000000000000000000000000000000000815290516001600160a01b03909216916399733c75916004808201926020929091908290030181600087803b158015620004d757600080fd5b505af1158015620004ec573d6000803e3d6000fd5b505050506040513d60208110156200050357600080fd5b5051600d80546001600160a01b0319166001600160a01b0392831617908190556009546040519183169216907f17082f533b4743d96d2bbde7b50cc0716cc7fd5f2c919bcf706233962d28e2d890600090a350505050505050505062001048565b6200056e62001003565b6200057862001003565b6200058d60208485516200059560201b60201c565b509392505050565b6200059f62001003565b6000620005ab62001003565b620005b56200102a565b6000808089805b8982018110156200074857620005de818c6200075a60201b620037ff1760201c565b91965094509250820160018514156200060c5762000605818c89896200079e60201b60201c565b0162000742565b84600214156200062a5762000605818c89896200081560201b60201c565b8460031415620006485762000605818c89896200087c60201b60201c565b8460041415620006665762000605818c8989620008dc60201b60201c565b60018460058111156200067557fe5b14156200069d57600062000695828d6200093c60201b620038ce1760201c565b929092019150505b6005846005811115620006ac57fe5b1415620006d4576000620006cc828d6200096560201b620038ef1760201c565b929092019150505b6000846005811115620006e357fe5b14156200070b57600062000703828d6200097f60201b620039011760201c565b929092019150505b60028460058111156200071a57fe5b1415620007425760006200073a828d62000a3660201b620039931760201c565b929092019150505b620005bc565b50949a97995096975050505050505050565b60008060008060006200077487876200097f60201b60201c565b9150915060008260071660058111156200078a57fe5b600890930498929750909550909350505050565b6000806000620007ba878762000b2b60201b62003f021760201c565b91509150620007cf8562000b4560201b60201c565b15620007eb57600184815b60200201805190910190526200080b565b8185526020840151156200080b57600184815b6020020180519190910390525b9695505050505050565b600080600062000831878762000b4960201b62003ede1760201c565b91509150620008468562000b4560201b60201c565b1562000857576001846002620007da565b6001600160a01b03821660208601526040840151156200080b576001846002620007fe565b600080600062000898878762000b7560201b62003ea71760201c565b91509150620008ad8562000b4560201b60201c565b15620008be576001846003620007da565b81151560408601526060840151156200080b576001846003620007fe565b6000806000620008f8878762000b7560201b62003ea71760201c565b915091506200090d8562000b4560201b60201c565b156200091e576001846004620007da565b81151560608601526080840151156200080b576001846004620007fe565b600080600080620009568686600862000bb660201b60201c565b909450925050505b9250929050565b600080600080620009568686600462000bb660201b60201c565b80519181019160009081908190819060200160805b608081166080141562000a2957868803821162000a03577f08c379a0000000000000000000000000000000000000000000000000000000006000526020600452600f6024527f6c656e677468206f766572666c6f77000000000000000000000000000000000060445260536000fd5b875160001a905080607f16836007021b8417935060018301925060018801975062000994565b5091969095509350505050565b6060600080600062000a4f86866200097f60201b60201c565b915091506060826040519080825280601f01601f19166020018201604052801562000a81576020820181803883390190505b508651978701830197909150602090810190820160005b8581101562000b1b57888a03831162000b03577f08c379a0000000000000000000000000000000000000000000000000000000006000526020600452600f6024527f6c656e677468206f766572666c6f77000000000000000000000000000000000060445260536000fd5b895160001a82536001998a0199918201910162000a98565b5091955050500190509250929050565b600080600080620009566020878762000c6160201b60201c565b1590565b60008060008062000b636014878762000c8860201b60201c565b60609190911c97909650945050505050565b60008060008062000b8d86866200097f60201b60201c565b91509150816000141562000ba9576000935091506200095e9050565b6001969095509350505050565b81519282019260009081908190602001815b8581101562000c5357868803821162000c33577f08c379a0000000000000000000000000000000000000000000000000000000006000526020600452600f6024527f6c656e677468206f766572666c6f77000000000000000000000000000000000060445260536000fd5b875160001a816008021b8317925060018801975060018101905062000bc8565b509096939550929350505050565b60008060008062000c7a87878762000e5f60201b60201c565b909890975095505050505050565b60008060008062000ca086866200097f60201b60201c565b90925090506020600860ff60038a0116848401111562000d91576040518060400160405280600f81526020017f6c656e677468206f766572666c6f7700000000000000000000000000000000008152506040517f08c379a00000000000000000000000000000000000000000000000000000000081526004018080602001828103825283818151815260200191508051906020019080838360005b8381101562000d5557818101518382015260200162000d3b565b50505050905090810190601f16801562000d835780820380516001836020036101000a031916815260200191505b509250505060405180910390fd5b6003880197506000602088510189106040518060400160405280600f81526020017f6c656e677468206f766572666c6f7700000000000000000000000000000000008152509062000e3f576040517f08c379a000000000000000000000000000000000000000000000000000000000815260206004820181815283516024840152835190928392604490910191908501908083836000831562000d5557818101518382015260200162000d3b565b505087870151918490036002010290811c901b9350019050935093915050565b600080600080600062000e7987876200097f60201b60201c565b915091508760030160ff16818301111562000f2257604080518082018252600f81527f6c656e677468206f766572666c6f770000000000000000000000000000000000602080830191825292517f08c379a0000000000000000000000000000000000000000000000000000000008152600481019384528251602482015282519293928392604490920191908083836000831562000d5557818101518382015260200162000d3b565b600387019650602086510187106040518060400160405280600f81526020017f6c656e677468206f766572666c6f7700000000000000000000000000000000008152509062000fce576040517f08c379a000000000000000000000000000000000000000000000000000000000815260206004820181815283516024840152835190928392604490910191908501908083836000831562000d5557818101518382015260200162000d3b565b5086860151925060011982015b602081101562000ff5576101008404935060010162000fdb565b509197910195509350505050565b60408051608081018252600080825260208201819052918101829052606081019190915290565b6040518060a001604052806005906020820280388339509192915050565b61496680620010586000396000f3fe608060405234801561001057600080fd5b50600436106100c95760003560e01c806379dcec8c11610081578063d9d6f9581161005b578063d9d6f9581461028c578063dc06b3a2146102af578063f1c0d81a14610361576100c9565b806379dcec8c146102085780638792b833146102365780638f7afe3e1461025a576100c9565b80632ea24112116100b25780632ea24112146101a05780634154cf64146101ce57806351b42b0014610200576100c9565b8063011e8f96146100ce578063059c27751461017d575b600080fd5b61017b600480360360408110156100e457600080fd5b8135919081019060408101602082013564010000000081111561010657600080fd5b82018360208201111561011857600080fd5b8035906020019184600183028401116401000000008311171561013a57600080fd5b91908080601f016020809104026020016040519081016040528093929190818152602001838380828437600092019190915250929550610419945050505050565b005b61017b6004803603604081101561019357600080fd5b508035906020013561056c565b61017b600480360360408110156101b657600080fd5b506001600160a01b03813516906020013515156107cd565b61017b600480360360608110156101e457600080fd5b508035906001600160a01b036020820135169060400135610888565b61017b610b79565b61017b6004803603604081101561021e57600080fd5b506001600160a01b0381351690602001351515610e27565b61023e610ee2565b604080516001600160a01b039092168252519081900360200190f35b61017b6004803603606081101561027057600080fd5b508035906001600160a01b036020820135169060400135610ef1565b61017b600480360360408110156102a257600080fd5b50803590602001356111c8565b61017b600480360360608110156102c557600080fd5b8135916020810135918101906060810160408201356401000000008111156102ec57600080fd5b8201836020820111156102fe57600080fd5b8035906020019184600183028401116401000000008311171561032057600080fd5b91908080601f016020809104026020016040519081016040528093929190818152602001838380828437600092019190915250929550611429945050505050565b6104076004803603602081101561037757600080fd5b81019060208101813564010000000081111561039257600080fd5b8201836020820111156103a457600080fd5b803590602001918460018302840111640100000000831117156103c657600080fd5b91908080601f0160208091040260200160405190810160405280939291908181526020018383808284376000920191909152509295506114f4945050505050565b60408051918252519081900360200190f35b61042233611d92565b61046057604051600160e51b62461bcd02815260040180806020018281038252602d8152602001806145e2602d913960400191505060405180910390fd5b6000828152600e6020526040902060016005820154600160a01b900460ff16600681111561048a57fe5b146104c957604051600160e51b62461bcd02815260040180806020018281038252602f81526020018061490c602f913960400191505060405180910390fd5b80546001600160a01b031661051257604051600160e51b62461bcd02815260040180806020018281038252602a81526020018061460f602a913960400191505060405180910390fd5b60028101805473ffffffffffffffffffffffffffffffffffffffff191633179055426003820155606061054484611dc5565b905060006060610555868487611f1c565b915091506105648683836120f2565b505050505050565b6000828152600e6020526040902080546001600160a01b03166105c357604051600160e51b62461bcd02815260040180806020018281038252602a81526020018061460f602a913960400191505060405180910390fd5b60058101546105db90600160a01b900460ff16612316565b1561061a57604051600160e51b62461bcd02815260040180806020018281038252602b815260200180614586602b913960400191505060405180910390fd5b6000821161065c57604051600160e51b62461bcd02815260040180806020018281038252602a8152602001806148e2602a913960400191505060405180910390fd5b610666833361236e565b6106a457604051600160e51b62461bcd02815260040180806020018281038252602e815260200180614781602e913960400191505060405180910390fd5b600d54604080517f487c35800000000000000000000000000000000000000000000000000000000081523360048201526024810185905290516001600160a01b039092169163487c35809160448082019260009290919082900301818387803b15801561071057600080fd5b505af1158015610724573d6000803e3d6000fd5b505050506005810154604080517f70d97c3400000000000000000000000000000000000000000000000000000000815233600482015290516001600160a01b03909216916370d97c34918591602480830192600092919082900301818588803b15801561079057600080fd5b505af11580156107a4573d6000803e3d6000fd5b505050505060606107b484611dc5565b90506000606061055586846107c76123c5565b886123cb565b60035460ff1661081157604051600160e51b62461bcd0281526004018080602001828103825260368152602001806147e06036913960400191505060405180910390fd5b6007546001600160a01b0316331461085d57604051600160e51b62461bcd02815260040180806020018281038252603b815260200180614639603b913960400191505060405180910390fd5b6001600160a01b03919091166000908152600460205260409020805460ff1916911515919091179055565b6000838152600e6020526040902080546001600160a01b03166108df57604051600160e51b62461bcd02815260040180806020018281038252602a81526020018061460f602a913960400191505060405180910390fd5b60058101546108f790600160a01b900460ff16612316565b1561093657604051600160e51b62461bcd02815260040180806020018281038252602b815260200180614586602b913960400191505060405180910390fd5b6001600160a01b03831661097e57604051600160e51b62461bcd0281526004018080602001828103825260318152602001806147af6031913960400191505060405180910390fd5b600082116109c057604051600160e51b62461bcd02815260040180806020018281038252602a8152602001806148e2602a913960400191505060405180910390fd5b6109ca843361236e565b610a0857604051600160e51b62461bcd02815260040180806020018281038252602e815260200180614781602e913960400191505060405180910390fd5b600d54604080517f3d4aa9a90000000000000000000000000000000000000000000000000000000081523360048201526001600160a01b0386811660248301526044820186905291519190921691633d4aa9a991606480830192600092919082900301818387803b158015610a7c57600080fd5b505af1158015610a90573d6000803e3d6000fd5b5050506005820154610ab691506001600160a01b0385811691168463ffffffff61255316565b6005810154604080517f810c0af80000000000000000000000000000000000000000000000000000000081523360048201526001600160a01b038681166024830152604482018690529151919092169163810c0af891606480830192600092919082900301818387803b158015610b2c57600080fd5b505af1158015610b40573d6000803e3d6000fd5b505050506060610b4f85611dc5565b905060006060610b61878488886123cb565b91509150610b708783836120f2565b50505050505050565b60005460ff16610bbd57604051600160e51b62461bcd02815260040180806020018281038252603d815260200180614549603d913960400191505060405180910390fd5b6007546001600160a01b03163314610c0957604051600160e51b62461bcd02815260040180806020018281038252603e815260200180614712603e913960400191505060405180910390fd5b600b5415610e1b57600c54604080517fe755926000000000000000000000000000000000000000000000000000000000815290516000926001600160a01b03169163e7559260916004808301926020929190829003018186803b158015610c6f57600080fd5b505afa158015610c83573d6000803e3d6000fd5b505050506040513d6020811015610c9957600080fd5b5051600c5460408051600160e01b6323dc9e3702815290519293506001600160a01b0380851693639e281a9893909116916323dc9e37916004808301926020929190829003018186803b158015610cef57600080fd5b505afa158015610d03573d6000803e3d6000fd5b505050506040513d6020811015610d1957600080fd5b5051600b546040805163ffffffff851660e01b81526001600160a01b039093166004840152602483019190915251604480830192600092919082900301818387803b158015610d6757600080fd5b505af1158015610d7b573d6000803e3d6000fd5b5050600754600b54600c5460408051600160e01b6323dc9e370281529051610e1996506001600160a01b0394851695509293909116916323dc9e3791600480820192602092909190829003018186803b158015610dd757600080fd5b505afa158015610deb573d6000803e3d6000fd5b505050506040513d6020811015610e0157600080fd5b50516001600160a01b0316919063ffffffff6126b516565b505b6000805460ff19169055565b60055460ff16610e6b57604051600160e51b62461bcd0281526004018080602001828103825260368152602001806148166036913960400191505060405180910390fd5b6007546001600160a01b03163314610eb757604051600160e51b62461bcd02815260040180806020018281038252603b815260200180614674603b913960400191505060405180910390fd5b6001600160a01b03919091166000908152600660205260409020805460ff1916911515919091179055565b600d546001600160a01b031690565b6000838152600e6020526040902080546001600160a01b0316610f4857604051600160e51b62461bcd02815260040180806020018281038252602a81526020018061460f602a913960400191505060405180910390fd5b6005810154610f6090600160a01b900460ff16612316565b15610f9f57604051600160e51b62461bcd02815260040180806020018281038252602b815260200180614586602b913960400191505060405180910390fd5b6001600160a01b038316610fe757604051600160e51b62461bcd0281526004018080602001828103825260318152602001806147af6031913960400191505060405180910390fd5b6000821161102957604051600160e51b62461bcd02815260040180806020018281038252602a8152602001806148e2602a913960400191505060405180910390fd5b611033843361236e565b61107157604051600160e51b62461bcd0281526004018080602001828103825260318152602001806145b16031913960400191505060405180910390fd5b6005810154604080517f3d4aa9a90000000000000000000000000000000000000000000000000000000081523360048201526001600160a01b0386811660248301526044820186905291519190921691633d4aa9a991606480830192600092919082900301818387803b1580156110e757600080fd5b505af11580156110fb573d6000803e3d6000fd5b5050600d5461111f92506001600160a01b038681169250168463ffffffff61255316565b600d54604080517f810c0af80000000000000000000000000000000000000000000000000000000081523360048201526001600160a01b038681166024830152604482018690529151919092169163810c0af891606480830192600092919082900301818387803b15801561119357600080fd5b505af11580156111a7573d6000803e3d6000fd5b5050505060606111b685611dc5565b905060006060610b6187848888612735565b6000828152600e6020526040902080546001600160a01b031661121f57604051600160e51b62461bcd02815260040180806020018281038252602a81526020018061460f602a913960400191505060405180910390fd5b600581015461123790600160a01b900460ff16612316565b1561127657604051600160e51b62461bcd02815260040180806020018281038252602b815260200180614586602b913960400191505060405180910390fd5b600082116112b857604051600160e51b62461bcd02815260040180806020018281038252602a8152602001806148e2602a913960400191505060405180910390fd5b6112c2833361236e565b61130057604051600160e51b62461bcd0281526004018080602001828103825260318152602001806145b16031913960400191505060405180910390fd5b6005810154604080517f487c35800000000000000000000000000000000000000000000000000000000081523360048201526024810185905290516001600160a01b039092169163487c35809160448082019260009290919082900301818387803b15801561136e57600080fd5b505af1158015611382573d6000803e3d6000fd5b5050600d54604080517f70d97c3400000000000000000000000000000000000000000000000000000000815233600482015290516001600160a01b0390921693506370d97c3492508591602480830192600092919082900301818588803b1580156113ec57600080fd5b505af1158015611400573d6000803e3d6000fd5b5050505050606061141084611dc5565b90506000606061055586846114236123c5565b88612735565b6000838152600e6020526040902080546001600160a01b031661148057604051600160e51b62461bcd02815260040180806020018281038252602a81526020018061460f602a913960400191505060405180910390fd5b600581015461149890600160a01b900460ff16612316565b156114d757604051600160e51b62461bcd02815260040180806020018281038252602b815260200180614586602b913960400191505060405180910390fd5b60606114e285611dc5565b905060006060610b61878488886127cf565b60006114fe612917565b61153c57604051600160e51b62461bcd0281526004018080602001828103825260318152602001806147506031913960400191505060405180910390fd5b6115453361293e565b61158357604051600160e51b62461bcd02815260040180806020018281038252602d8152602001806146af602d913960400191505060405180910390fd5b600c5460408051600160e01b635a36366702815290516000926001600160a01b031691635a363667916004808301926020929190829003018186803b1580156115cb57600080fd5b505afa1580156115df573d6000803e3d6000fd5b505050506040513d60208110156115f557600080fd5b50511115611aa157600d54600c5460408051600160e01b6323dc9e3702815290516001600160a01b0393841693633d4aa9a99333939116916323dc9e3791600480820192602092909190829003018186803b15801561165357600080fd5b505afa158015611667573d6000803e3d6000fd5b505050506040513d602081101561167d57600080fd5b5051600c5460408051600160e01b635a36366702815290516001600160a01b0390921691635a36366791600480820192602092909190829003018186803b1580156116c757600080fd5b505afa1580156116db573d6000803e3d6000fd5b505050506040513d60208110156116f157600080fd5b50516040805163ffffffff861660e01b81526001600160a01b03948516600482015292909316602483015260448201529051606480830192600092919082900301818387803b15801561174357600080fd5b505af1158015611757573d6000803e3d6000fd5b505050506118d6600c60009054906101000a90046001600160a01b03166001600160a01b031663e75592606040518163ffffffff1660e01b815260040160206040518083038186803b1580156117ac57600080fd5b505afa1580156117c0573d6000803e3d6000fd5b505050506040513d60208110156117d657600080fd5b5051600c5460408051600160e01b635a36366702815290516001600160a01b0390921691635a36366791600480820192602092909190829003018186803b15801561182057600080fd5b505afa158015611834573d6000803e3d6000fd5b505050506040513d602081101561184a57600080fd5b5051600c5460408051600160e01b6323dc9e3702815290516001600160a01b03909216916323dc9e3791600480820192602092909190829003018186803b15801561189457600080fd5b505afa1580156118a8573d6000803e3d6000fd5b505050506040513d60208110156118be57600080fd5b50516001600160a01b0316919063ffffffff61255316565b600c60009054906101000a90046001600160a01b03166001600160a01b031663e75592606040518163ffffffff1660e01b815260040160206040518083038186803b15801561192457600080fd5b505afa158015611938573d6000803e3d6000fd5b505050506040513d602081101561194e57600080fd5b5051600c5460408051600160e01b6323dc9e3702815290516001600160a01b039384169363338b5dea9316916323dc9e37916004808301926020929190829003018186803b15801561199f57600080fd5b505afa1580156119b3573d6000803e3d6000fd5b505050506040513d60208110156119c957600080fd5b5051600c5460408051600160e01b635a36366702815290516001600160a01b0390921691635a36366791600480820192602092909190829003018186803b158015611a1357600080fd5b505afa158015611a27573d6000803e3d6000fd5b505050506040513d6020811015611a3d57600080fd5b50516040805163ffffffff851660e01b81526001600160a01b039093166004840152602483019190915251604480830192600092919082900301818387803b158015611a8857600080fd5b505af1158015611a9c573d6000803e3d6000fd5b505050505b600a805460018101909155600c54604080517fd9e86f1d00000000000000000000000000000000000000000000000000000000815290516000926001600160a01b03169163d9e86f1d916004808301926020929190829003018186803b158015611b0a57600080fd5b505afa158015611b1e573d6000803e3d6000fd5b505050506040513d6020811015611b3457600080fd5b5051604080517f0ae60b6000000000000000000000000000000000000000000000000000000000815290516001600160a01b0390921691630ae60b60916004808201926020929091908290030181600087803b158015611b9357600080fd5b505af1158015611ba7573d6000803e3d6000fd5b505050506040513d6020811015611bbd57600080fd5b50516040805160e0810182523381524260208083019190915260008284018190526060830152600c548351600160e01b635a3636670281529351949550919360808501936001600160a01b0390931692635a363667926004808301939192829003018186803b158015611c2f57600080fd5b505afa158015611c43573d6000803e3d6000fd5b505050506040513d6020811015611c5957600080fd5b505181526001600160a01b0383166020820152604001600090526000838152600e60209081526040918290208351815473ffffffffffffffffffffffffffffffffffffffff199081166001600160a01b03928316178355928501516001830155928401516002820180548416918516919091179055606084015160038201556080840151600482015560a084015160058201805490931693169290921780825560c0840151919074ff00000000000000000000000000000000000000001916600160a01b836006811115611d2957fe5b02179055509050506060611d3c83611dc5565b9050611d4983828761296d565b6000848152600e60205260409020600501805474ff00000000000000000000000000000000000000001916600160a01b836006811115611d8557fe5b0217905550505050919050565b60055460009060ff161580611dbf57506001600160a01b03821660009081526006602052604090205460ff165b92915050565b6000818152600e60205260409020606090611dde614207565b60408051610160810182528581526007546001600160a01b03908116602083015260085481169282019290925283548216606082015260018401546080820152600284015490911660a0820152600383015460c0820152600583015460e0820190600160a01b900460ff166006811115611e5457fe5b60ff16815260058401546001600160a01b0390811660208084019190915233604080850191909152600c5481517f2bc51c6d0000000000000000000000000000000000000000000000000000000081529151606090950194931692632bc51c6d92600480840193919291829003018186803b158015611ed257600080fd5b505afa158015611ee6573d6000803e3d6000fd5b505050506040513d6020811015611efc57600080fd5b50516001600160a01b031690529050611f1481612c19565b949350505050565b6000838152600f602090815260408083205481517fc8200520000000000000000000000000000000000000000000000000000000008152600481019283528651604482015286516060946001600160a01b039093169363c820052093899389938392602483019260640191908701908083838e5b83811015611fa8578181015183820152602001611f90565b50505050905090810190601f168015611fd55780820380516001836020036101000a031916815260200191505b50838103825284518152845160209182019186019080838360005b83811015612008578181015183820152602001611ff0565b50505050905090810190601f1680156120355780820380516001836020036101000a031916815260200191505b50945050505050600060405180830381600087803b15801561205657600080fd5b505af115801561206a573d6000803e3d6000fd5b505050506040513d6000823e601f3d908101601f19168201604090815281101561209357600080fd5b8151602083018051919392830192916401000000008111156120b457600080fd5b820160208101848111156120c757600080fd5b81516401000000008111828201871017156120e157600080fd5b50949a909950975050505050505050565b6000838152600e6020526040902060058101805484919074ff00000000000000000000000000000000000000001916600160a01b83600681111561213257fe5b021790555061214083612316565b8015612150575060008160040154115b1561230657600c60009054906101000a90046001600160a01b03166001600160a01b031663e75592606040518163ffffffff1660e01b815260040160206040518083038186803b1580156121a357600080fd5b505afa1580156121b7573d6000803e3d6000fd5b505050506040513d60208110156121cd57600080fd5b5051600c5460408051600160e01b6323dc9e3702815290516001600160a01b0393841693639e281a989316916323dc9e37916004808301926020929190829003018186803b15801561221e57600080fd5b505afa158015612232573d6000803e3d6000fd5b505050506040513d602081101561224857600080fd5b50516004808501546040805163ffffffff861660e01b81526001600160a01b0390941692840192909252602483015251604480830192600092919082900301818387803b15801561229857600080fd5b505af11580156122ac573d6000803e3d6000fd5b50508254600480850154600c5460408051600160e01b6323dc9e37028152905161230697506001600160a01b0395861696509294909116926323dc9e37928282019260209290829003018186803b158015610dd757600080fd5b6123108483612c69565b50505050565b6000600382600681111561232657fe5b148061233d5750600482600681111561233b57fe5b145b806123535750600582600681111561235157fe5b145b80611dbf5750600682600681111561236757fe5b1492915050565b6000828152600e6020526040812080546001600160a01b03848116911614806123a6575060028101546001600160a01b038481169116145b80611f1457506008546001600160a01b03848116911614949350505050565b60001990565b6000848152600f602090815260408083205490517fa674326b0000000000000000000000000000000000000000000000000000000081526001600160a01b038681166024830152604482018690526060600483018181528951606485015289519195929094169363a674326b938a938a938a93928392608490910191908701908083838e5b83811015612468578181015183820152602001612450565b50505050905090810190601f1680156124955780820380516001836020036101000a031916815260200191505b50945050505050600060405180830381600087803b1580156124b657600080fd5b505af11580156124ca573d6000803e3d6000fd5b505050506040513d6000823e601f3d908101601f1916820160409081528110156124f357600080fd5b81516020830180519193928301929164010000000081111561251457600080fd5b8201602081018481111561252757600080fd5b815164010000000081118282018710171561254157600080fd5b50949b909a5098505050505050505050565b8015806125f25750604080517fdd62ed3e0000000000000000000000000000000000000000000000000000000081523060048201526001600160a01b03848116602483015291519185169163dd62ed3e91604480820192602092909190829003018186803b1580156125c457600080fd5b505afa1580156125d8573d6000803e3d6000fd5b505050506040513d60208110156125ee57600080fd5b5051155b61263057604051600160e51b62461bcd0281526004018080602001828103825260368152602001806148ac6036913960400191505060405180910390fd5b604080516001600160a01b038416602482015260448082018490528251808303909101815260649091019091526020810180517bffffffffffffffffffffffffffffffffffffffffffffffffffffffff167f095ea7b3000000000000000000000000000000000000000000000000000000001790526126b090849061314f565b505050565b604080516001600160a01b038416602482015260448082018490528251808303909101815260649091019091526020810180517bffffffffffffffffffffffffffffffffffffffffffffffffffffffff167fa9059cbb000000000000000000000000000000000000000000000000000000001790526126b090849061314f565b6000848152600f602090815260408083205490517f488d61bc0000000000000000000000000000000000000000000000000000000081526001600160a01b038681166024830152604482018690526060600483018181528951606485015289519195929094169363488d61bc938a938a938a93928392608490910191908701908083838e8315612468578181015183820152602001612450565b6000848152600f602090815260408083205490517f8ddd8d380000000000000000000000000000000000000000000000000000000081526024810186905260606004820181815288516064840152885191946001600160a01b0390941693638ddd8d38938a938a938a939092839260448201926084909201918801908083838f5b83811015612868578181015183820152602001612850565b50505050905090810190601f1680156128955780820380516001836020036101000a031916815260200191505b50838103825284518152845160209182019186019080838360005b838110156128c85781810151838201526020016128b0565b50505050905090810190601f1680156128f55780820380516001836020036101000a031916815260200191505b5095505050505050600060405180830381600087803b1580156124b657600080fd5b6000805460ff1680156129395750600154158061293957504260025460015401115b905090565b60035460009060ff161580611dbf5750506001600160a01b031660009081526004602052604090205460ff1690565b600080600c60009054906101000a90046001600160a01b03166001600160a01b031663be5405d26040518163ffffffff1660e01b815260040160206040518083038186803b1580156129be57600080fd5b505afa1580156129d2573d6000803e3d6000fd5b505050506040513d60208110156129e857600080fd5b5051600954604080517f1a9c5dab0000000000000000000000000000000000000000000000000000000081526001600160a01b039283166004820152306024820152905192935090831691631a9c5dab916044808201926020929091908290030181600087803b158015612a5b57600080fd5b505af1158015612a6f573d6000803e3d6000fd5b505050506040513d6020811015612a8557600080fd5b50516000868152600f60209081526040808320805473ffffffffffffffffffffffffffffffffffffffff19166001600160a01b03958616179081905581517fcdfa837a00000000000000000000000000000000000000000000000000000000815260048101928352895160448201528951919095169463cdfa837a948a948a949384936024810193606490910192880191908190849084905b83811015612b36578181015183820152602001612b1e565b50505050905090810190601f168015612b635780820380516001836020036101000a031916815260200191505b50838103825284518152845160209182019186019080838360005b83811015612b96578181015183820152602001612b7e565b50505050905090810190601f168015612bc35780820380516001836020036101000a031916815260200191505b50945050505050602060405180830381600087803b158015612be457600080fd5b505af1158015612bf8573d6000803e3d6000fd5b505050506040513d6020811015612c0e57600080fd5b505195945050505050565b606080612c2583613310565b6040519080825280601f01601f191660200182016040528015612c4f576020820181803883390190505b5090506000612c6084602084613317565b82525092915050565b612c71614263565b612c7a82613499565b6000848152600e602052604081206005810154929350916001600160a01b0316905b83515181101561056457612cae614276565b8451805183908110612cbc57fe5b60200260200101519050612cd487826020015161236e565b612d1257604051600160e51b62461bcd0281526004018080602001828103825260368152602001806146dc6036913960400191505060405180910390fd5b612d2087826040015161236e565b612d5e57604051600160e51b62461bcd02815260040180806020018281038252603681526020018061484c6036913960400191505060405180910390fd5b805115612ffd57612d6d6123c5565b6001600160a01b031681606001516001600160a01b03161415612e9857826001600160a01b031663487c3580826020015183608001516040518363ffffffff1660e01b815260040180836001600160a01b03166001600160a01b0316815260200182815260200192505050600060405180830381600087803b158015612df257600080fd5b505af1158015612e06573d6000803e3d6000fd5b5050600d54608084015160408086015181517f70d97c340000000000000000000000000000000000000000000000000000000081526001600160a01b0391821660048201529151931694506370d97c3493509091602480830192600092919082900301818588803b158015612e7a57600080fd5b505af1158015612e8e573d6000803e3d6000fd5b5050505050612ff8565b602081015160608201516080830151604080517f3d4aa9a90000000000000000000000000000000000000000000000000000000081526001600160a01b039485166004820152928416602484015260448301919091525191851691633d4aa9a99160648082019260009290919082900301818387803b158015612f1a57600080fd5b505af1158015612f2e573d6000803e3d6000fd5b5050600d5460808401516060850151612f5e94506001600160a01b0390811693509091169063ffffffff61255316565b600d546040808301516060840151608085015183517f810c0af80000000000000000000000000000000000000000000000000000000081526001600160a01b03938416600482015291831660248301526044820152915192169163810c0af89160648082019260009290919082900301818387803b158015612fdf57600080fd5b505af1158015612ff3573d6000803e3d6000fd5b505050505b613146565b6130056123c5565b6001600160a01b031681606001516001600160a01b031614156130a1576020810151604080830151608084015182517fbeabacc80000000000000000000000000000000000000000000000000000000081526001600160a01b0394851660048201529184166024830152604482015290519185169163beabacc89160648082019260009290919082900301818387803b158015612fdf57600080fd5b60208101516040808301516060840151608085015183517f2c54de4f0000000000000000000000000000000000000000000000000000000081526001600160a01b039586166004820152928516602484015290841660448301526064820152905191851691632c54de4f9160848082019260009290919082900301818387803b15801561312d57600080fd5b505af1158015613141573d6000803e3d6000fd5b505050505b50600101612c9c565b613161826001600160a01b03166134be565b6131b55760408051600160e51b62461bcd02815260206004820152601f60248201527f5361666545524332303a2063616c6c20746f206e6f6e2d636f6e747261637400604482015290519081900360640190fd5b60006060836001600160a01b0316836040518082805190602001908083835b602083106131f35780518252601f1990920191602091820191016131d4565b6001836020036101000a0380198251168184511680821785525050505050509050019150506000604051808303816000865af19150503d8060008114613255576040519150601f19603f3d011682016040523d82523d6000602084013e61325a565b606091505b5091509150816132b45760408051600160e51b62461bcd02815260206004820181905260248201527f5361666545524332303a206c6f772d6c6576656c2063616c6c206661696c6564604482015290519081900360640190fd5b805115612310578080602001905160208110156132d057600080fd5b505161231057604051600160e51b62461bcd02815260040180806020018281038252602a815260200180614882602a913960400191505060405180910390fd5b5061011990565b600082806133296001600283876134f5565b8651910190613339908286613515565b0161334760028083876134f5565b8101905061335a86602001518286613524565b016133696003600283876134f5565b8101905061337c86604001518286613524565b0161338b6004600283876134f5565b8101905061339e86606001518286613524565b016133ad6005600283876134f5565b810190506133c086608001518286613515565b016133cf6006600283876134f5565b810190506133e28660a001518286613524565b016133f16007600283876134f5565b810190506134048660c001518286613515565b016134136008600283876134f5565b810190506134268660e00151828661353c565b016134356009600283876134f5565b810190506134498661010001518286613524565b01613458600a600283876134f5565b8101905061346c8661012001518286613524565b0161347b600b600283876134f5565b8101905061348f8661014001518286613524565b0103949350505050565b6134a1614263565b6134a9614263565b6134b6602084855161354e565b509392505050565b6000813f7fc5d2460186f7233c927e7db2dcc703c0e500b653ca82273b7bfad8045d85a4708115801590611f145750141592915050565b600060088502600785161761350b818585613789565b9695505050505050565b6000611f1484602085856137cc565b6000611f14846001600160a01b0316601485856137cc565b6000611f148460ff16600185856137cc565b613556614263565b6000613560614263565b6135686142a4565b6000808089805b89820181101561365357613583818c6137ff565b91965094509250820160018514156135ae576135a8818c6135a261383a565b89613848565b0161364e565b60018460058111156135bc57fe5b14156135d65760006135ce828d6138ce565b929092019150505b60058460058111156135e457fe5b14156135fe5760006135f6828d6138ef565b929092019150505b600084600581111561360c57fe5b141561362657600061361e828d613901565b929092019150505b600284600581111561363457fe5b141561364e576000613646828d613993565b929092019150505b61356f565b5080856001602002015160405190808252806020026020018201604052801561369657816020015b613683614276565b81526020019060019003908161367b5790505b5087525b898201811015613777576136ae818c6137ff565b91965094509250820160018514156136d2576136cc818c8989613848565b01613772565b60018460058111156136e057fe5b14156136fa5760006136f2828d6138ce565b929092019150505b600584600581111561370857fe5b141561372257600061371a828d6138ef565b929092019150505b600084600581111561373057fe5b141561374a576000613742828d613901565b929092019150505b600284600581111561375857fe5b141561377257600061376a828d613993565b929092019150505b61369a565b50949a97995096975050505050505050565b600080828401607f86165b600787901c156137bc578060801782535060079590951c9460019182019101607f8616613794565b8082535050600101949350505050565b6003820191600090816137e187868689613a5a565b9485019490506137f2818386613a98565b5050909203949350505050565b60008060008060006138118787613901565b91509150600082600716600581111561382657fe5b600890930498929750909550909350505050565b613842614263565b50600090565b6000613852614276565b600061385e8787613ad9565b9150915061386b85613b1b565b1561388557600184815b602002018051909101905261350b565b845160208501518151849291810390811061389c57fe5b6020908102919091018101919091528401511561350b57600184815b6020020180519190910390529695505050505050565b6000806000806138e086866008613b1f565b909450925050505b9250929050565b6000806000806138e086866004613b1f565b80519181019160009081908190819060200160805b608081166080141561398657868803821161396157600160e51b62461bcd026000526020600452600f602452600160881b6e6c656e677468206f766572666c6f770260445260536000fd5b875160001a905080607f16836007021b84179350600183019250600188019750613916565b5091969095509350505050565b606060008060006139a48686613901565b915091506060826040519080825280601f01601f1916602001820160405280156139d5576020820181803883390190505b508651978701830197909150602090810190820160005b85811015613a4a57888a038311613a3357600160e51b62461bcd026000526020600452600f602452600160881b6e6c656e677468206f766572666c6f770260445260536000fd5b895160001a82536001998a019991820191016139ec565b5091955050500190509250929050565b600080613a678684613ba5565b9050848401815b8015613a8c5787816020031a82536001919091019060001901613a6e565b50909695505050505050565b600082613aa9600286018285613789565b84019350613abb6001600286866134f5565b84019350613aca858585613789565b90930192830390509392505050565b613ae1614276565b6000838180613af08387613901565b915091508083019250613b01614276565b613b0c848885613be3565b50955050019150509250929050565b1590565b81519282019260009081908190602001815b85811015613b97578688038211613b7857600160e51b62461bcd026000526020600452600f602452600160881b6e6c656e677468206f766572666c6f770260445260536000fd5b875160001a816008021b83179250600188019750600181019050613b31565b509096939550929350505050565b600060ff825b600719600882020182901b8516158015613bc55750600081115b15613bd35760001901613bab565b80611f1457506001949350505050565b613beb614276565b6000613bf5614276565b613bfd6142c2565b6000808089805b89820181101561377757613c18818c6137ff565b9196509450925082016001851415613c3c57613c36818c8989613d35565b01613d30565b8460021415613c5157613c36818c8989613d77565b8460031415613c6657613c36818c8989613dc5565b8460041415613c7b57613c36818c8989613e13565b8460051415613c9057613c36818c8989613e61565b6001846005811115613c9e57fe5b1415613cb8576000613cb0828d6138ce565b929092019150505b6005846005811115613cc657fe5b1415613ce0576000613cd8828d6138ef565b929092019150505b6000846005811115613cee57fe5b1415613d08576000613d00828d613901565b929092019150505b6002846005811115613d1657fe5b1415613d30576000613d28828d613993565b929092019150505b613c04565b6000806000613d448787613ea7565b91509150613d5185613b1b565b15613d5f5760018481613875565b811515855260208401511561350b57600184816138b8565b6000806000613d868787613ede565b91509150613d9385613b1b565b15613da2576001846002613875565b6001600160a01b038216602086015260408401511561350b5760018460026138b8565b6000806000613dd48787613ede565b91509150613de185613b1b565b15613df0576001846003613875565b6001600160a01b038216604086015260608401511561350b5760018460036138b8565b6000806000613e228787613ede565b91509150613e2f85613b1b565b15613e3e576001846004613875565b6001600160a01b038216606086015260808401511561350b5760018460046138b8565b6000806000613e708787613f02565b91509150613e7d85613b1b565b15613e8c576001846005613875565b6080850182905260a08401511561350b5760018460056138b8565b600080600080613eb78686613901565b915091508160001415613ed1576000935091506138e89050565b6001969095509350505050565b600080600080613ef060148787613f14565b60609190911c97909650945050505050565b6000806000806138e060208787614098565b600080600080613f248686613901565b90925090506020600860ff60038a01168484011115613fef576040518060400160405280600f8152602001600160881b6e6c656e677468206f766572666c6f7702815250604051600160e51b62461bcd0281526004018080602001828103825283818151815260200191508051906020019080838360005b83811015613fb4578181015183820152602001613f9c565b50505050905090810190601f168015613fe15780820380516001836020036101000a031916815260200191505b509250505060405180910390fd5b6003880197506000602088510189106040518060400160405280600f8152602001600160881b6e6c656e677468206f766572666c6f77028152509061407857604051600160e51b62461bcd028152602060048201818152835160248401528351909283926044909101919085019080838360008315613fb4578181015183820152602001613f9c565b505087870151918490036002010290811c901b9350019050935093915050565b6000806000806140a98787876140b7565b909890975095505050505050565b60008060008060006140c98787613901565b915091508760030160ff16818301111561414d57604080518082018252600f8152600160881b6e6c656e677468206f766572666c6f770260208083019182529251600160e51b62461bcd0281526004810193845282516024820152825192939283926044909201919080838360008315613fb4578181015183820152602001613f9c565b600387019650602086510187106040518060400160405280600f8152602001600160881b6e6c656e677468206f766572666c6f7702815250906141d457604051600160e51b62461bcd028152602060048201818152835160248401528351909283926044909101919085019080838360008315613fb4578181015183820152602001613f9c565b5086860151925060011982015b60208110156141f957610100840493506001016141e1565b509197910195509350505050565b6040805161016081018252600080825260208201819052918101829052606081018290526080810182905260a0810182905260c0810182905260e081018290526101008101829052610120810182905261014081019190915290565b6040518060200160405280606081525090565b6040805160a08101825260008082526020820181905291810182905260608101829052608081019190915290565b60405180604001604052806002906020820280388339509192915050565b6040518060c001604052806006906020820280388339509192915050565b6142e8614503565b6142f0614503565b6134b66020848551614300614503565b600061430a614503565b61431261452a565b6000808089805b8982018110156137775761432d818c6137ff565b91965094509250820160018514156143515761434b818c8989614435565b01614430565b84600214156143665761434b818c8989613d77565b846003141561437b5761434b818c8989614475565b84600414156143905761434b818c89896144bc565b600184600581111561439e57fe5b14156143b85760006143b0828d6138ce565b929092019150505b60058460058111156143c657fe5b14156143e05760006143d8828d6138ef565b929092019150505b60008460058111156143ee57fe5b1415614408576000614400828d613901565b929092019150505b600284600581111561441657fe5b1415614430576000614428828d613993565b929092019150505b614319565b60008060006144448787613f02565b9150915061445185613b1b565b1561445f5760018481613875565b81855260208401511561350b57600184816138b8565b60008060006144848787613ea7565b9150915061449185613b1b565b156144a0576001846003613875565b811515604086015260608401511561350b5760018460036138b8565b60008060006144cb8787613ea7565b915091506144d885613b1b565b156144e7576001846004613875565b811515606086015260808401511561350b5760018460046138b8565b60408051608081018252600080825260208201819052918101829052606081019190915290565b6040518060a00160405280600590602082028038833950919291505056fe496e737472756d656e744d616e61676572426173653a2054686520696e737472756d656e7420697320616c72656164792064656163746976617465642e496e737472756d656e744d616e61676572426173653a2049737375616e6365207465726d696e617465642e496e737472756d656e744d616e61676572426173653a205769746864726177616c206973206e6f7420616c6c6f7765642e496e737472756d656e744d616e61676572426173653a204e6f7420616e20656c696769626c652074616b65722e496e737472756d656e744d616e61676572426173653a2049737375616e6365206e6f742065786973742e496e737472756d656e744d616e61676572426173653a204f6e6c79204653502063616e20757064617465206d616b65722077686974656c6973742e496e737472756d656e744d616e61676572426173653a204f6e6c79204653502063616e207570646174652074616b65722077686974656c6973742e496e737472756d656e744d616e61676572426173653a204e6f7420616e20656c696769626c65206d616b65722e496e737472756d656e744d616e61676572426173653a205472616e7366657220736f75726365206973206e6f7420616c6c6f7765642e496e737472756d656e744d616e61676572426173653a204f6e6c79204653502063616e20646561637469766174652074686520696e737472756d656e742e496e737472756d656e744d616e61676572426173653a20496e737472756d656e742069732064656163746976617465642e496e737472756d656e744d616e61676572426173653a204465706f736974206973206e6f7420616c6c6f7765642e496e737472756d656e744d616e61676572426173653a20546f6b656e2061646472657373206d757374206265207365742e496e737472756d656e744d616e61676572426173653a204d616b65722077686974656c697374206973206e6f7420656e61626c65642e496e737472756d656e744d616e61676572426173653a2054616b65722077686974656c697374206973206e6f7420656e61626c65642e496e737472756d656e744d616e61676572426173653a205472616e7366657220746172676574206973206e6f7420616c6c6f7765642e5361666545524332303a204552433230206f7065726174696f6e20646964206e6f7420737563636565645361666545524332303a20617070726f76652066726f6d206e6f6e2d7a65726f20746f206e6f6e2d7a65726f20616c6c6f77616e6365496e737472756d656e744d616e61676572426173653a20416d6f756e74206d757374206265207365742e496e737472756d656e744d616e61676572426173653a2049737375616e6365206e6f7420656e6761676561626c652ea165627a7a7230582056bb9e463b26c75d6a473fafe475f22df0f07fba05ab468a31a82b2e40fc714b0029496e737472756d656e744d616e61676572426173653a20496e737472756d656e7420436f6e6669672061646472657373206d7573742062652070726f76696465642e496e737472756d656e744d616e61676572426173653a20496e737472756d656e7420706172616d6574657273206d7573742062652070726f76696465642e496e737472756d656e744d616e61676572426173653a204653502061646472657373206d7573742062652070726f76696465642e496e737472756d656e744d616e61676572426173653a20416c726561647920696e697469616c697a65642e496e737472756d656e744d616e61676572426173653a20496e737472756d656e742061646472657373206d7573742062652070726f76696465642e",
  "source": "pragma solidity ^0.5.0;\n\nimport \"../../lib/proxy/ProxyFactoryInterface.sol\";\nimport \"../InstrumentManagerBase.sol\";\nimport \"../InstrumentBase.sol\";\nimport \"./InstrumentV3.sol\";\n\n/**\n * @title Instrument Manager for Instrument v3.\n * A storage proxy is created for each issuance.\n */\ncontract InstrumentV3Manager is InstrumentManagerBase {\n\n    // Mapping: Issuance Id => Issuance Proxy contract address\n    mapping(uint256 => address) private _issuanceProxies;\n\n    /**\n     * @param fspAddress Address of FSP that activates this financial instrument.\n     * @param instrumentAddress Address of the financial instrument contract.\n     * @param instrumentConfigAddress Address of the Instrument Config contract.\n     * @param instrumentParameters Custom parameters for the Instrument Manager.\n     */\n    constructor(address fspAddress, address instrumentAddress, address instrumentConfigAddress, bytes memory instrumentParameters)\n        InstrumentManagerBase(fspAddress, instrumentAddress, instrumentConfigAddress, instrumentParameters) public {}\n\n\n    /**\n     * @dev Instrument type-specific issuance creation processing.\n     * @param issuanceId ID of the issuance.\n     * @param makerParameters The custom parameters to the newly created issuance\n     * @param issuanceParametersData Issuance Parameters.\n     */\n    function _processCreateIssuance(uint256 issuanceId, bytes memory issuanceParametersData, bytes memory makerParameters) internal\n        returns (InstrumentBase.IssuanceStates updatedState) {\n\n        // Create an AdminOnlyUpgradeabilityProxy for the new issuance\n        // Current Instrument Manager is the proxy admin for this proxy, and only the current\n        // Instrument Manager can call fallback on the proxy.\n        ProxyFactoryInterface proxyFactory = ProxyFactoryInterface(_instrumentConfig.proxyFactoryAddress());\n        _issuanceProxies[issuanceId] = proxyFactory.createAdminOnlyUpgradeabilityProxy(_instrumentAddress, address(this));\n\n        updatedState = InstrumentV3(_issuanceProxies[issuanceId]).createIssuance(issuanceParametersData, makerParameters);\n    }\n\n    /**\n     * @dev Instrument type-specific issuance engage processing.\n     * @param issuanceId ID of the issuance.\n     * @param issuanceParametersData Issuance Parameters.\n     * @param takerParameters The custom parameters to the new engagement\n     */\n    function _processEngageIssuance(uint256 issuanceId, bytes memory issuanceParametersData, bytes memory takerParameters) internal\n        returns (InstrumentBase.IssuanceStates updatedState, bytes memory transfersData) {\n\n        (updatedState, transfersData) = InstrumentV3(_issuanceProxies[issuanceId]).engageIssuance(issuanceParametersData, takerParameters);\n    }\n\n    /**\n     * @dev Instrument type-specific issuance ERC20 token deposit processing.\n     * Note: This method is called after deposit is complete, so that the Escrow reflects the balance after deposit.\n     * @param issuanceId ID of the issuance.\n     * @param issuanceParametersData Issuance Parameters.\n     * @param tokenAddress The address of the ERC20 token to deposit.\n     * @param amount The amount of ERC20 token to deposit.\n     */\n    function _processTokenDeposit(uint256 issuanceId, bytes memory issuanceParametersData, address tokenAddress, uint256 amount)\n        internal returns (InstrumentBase.IssuanceStates updatedState, bytes memory transfersData) {\n\n        (updatedState, transfersData) = InstrumentV3(_issuanceProxies[issuanceId]).processTokenDeposit(\n            issuanceParametersData, tokenAddress, amount);\n    }\n\n    /**\n     * @dev Instrument type-specific issuance ERC20 withdraw processing.\n     * Note: This method is called after withdraw is complete, so that the Escrow reflects the balance after withdraw.\n     * @param issuanceId ID of the issuance.\n     * @param issuanceParametersData Issuance Parameters.\n     * @param tokenAddress The address of the ERC20 token to withdraw.\n     * @param amount The amount of ERC20 token to withdraw.\n     */\n    function _processTokenWithdraw(uint256 issuanceId, bytes memory issuanceParametersData, address tokenAddress, uint256 amount)\n        internal returns (InstrumentBase.IssuanceStates updatedState, bytes memory transfersData) {\n\n        (updatedState, transfersData) = InstrumentV3(_issuanceProxies[issuanceId]).processTokenWithdraw(\n            issuanceParametersData, tokenAddress, amount);\n    }\n\n    /**\n     * @dev Instrument type-specific custom event processing.\n     * @param issuanceId ID of the issuance.\n     * @param issuanceParametersData Issuance Parameters.\n     * @param eventName The name of the custom event.\n     * @param eventPayload The custom parameters to the custom event\n     */\n    function _processCustomEvent(uint256 issuanceId, bytes memory issuanceParametersData, bytes32 eventName, bytes memory eventPayload)\n        internal returns (InstrumentBase.IssuanceStates updatedState, bytes memory transfersData) {\n\n        (updatedState, transfersData) = InstrumentV3(_issuanceProxies[issuanceId]).processCustomEvent(\n            issuanceParametersData, eventName, eventPayload);\n    }\n}",
  "sourcePath": "/Users/shengdading/git/nuts-platform-v2/contracts/instrument/v3/InstrumentV3Manager.sol",
  "compiler": {
    "name": "solc",
    "version": "0.5.8+commit.23d335f2.Emscripten.clang"
  },
  "schemaVersion": "3.0.16",
  "updatedAt": "2019-10-16T02:07:15.666Z",
  "devdoc": {
    "methods": {
      "constructor": {
        "params": {
          "fspAddress": "Address of FSP that activates this financial instrument.",
          "instrumentAddress": "Address of the financial instrument contract.",
          "instrumentConfigAddress": "Address of the Instrument Config contract.",
          "instrumentParameters": "Custom parameters for the Instrument Manager."
        }
      },
      "createIssuance(bytes)": {
        "details": "Create a new issuance of the financial instrument",
        "params": {
          "makerParameters": "The custom parameters to the newly created issuance"
        },
        "return": "The id of the newly created issuance."
      },
      "deactivate()": {
        "details": "Deactivates the instrument."
      },
      "depositToIssuance(uint256,uint256)": {
        "details": "The caller deposits ETH, which is currently deposited in Instrument Escrow, into issuance.",
        "params": {
          "amount": "The amount of ERC20 token transfered",
          "issuanceId": "The id of the issuance"
        }
      },
      "depositTokenToIssuance(uint256,address,uint256)": {
        "details": "The caller deposits ERC20 token, which is currently deposited in Instrument Escrow, into issuance.",
        "params": {
          "amount": "The amount of ERC20 token deposited.",
          "issuanceId": "The id of the issuance",
          "tokenAddress": "The address of the ERC20 token to deposit."
        }
      },
      "engageIssuance(uint256,bytes)": {
        "details": "A taker engages to the issuance",
        "params": {
          "issuanceId": "The id of the issuance",
          "takerParameters": "The custom parameters to the new engagement"
        }
      },
      "getInstrumentEscrowAddress()": {
        "details": "Get the Instrument Escrow."
      },
      "notifyCustomEvent(uint256,bytes32,bytes)": {
        "details": "Notify custom events to issuance. This could be invoked by any caller.",
        "params": {
          "eventName": "Name of the custom event",
          "eventPayload": "Payload of the custom event",
          "issuanceId": "The id of the issuance"
        }
      },
      "setMakerWhitelist(address,bool)": {
        "details": "Updates the maker whitelist. The maker whitelist only affects new issuances.",
        "params": {
          "allowed": "Whether this maker is allowed to create new issuance.",
          "makerAddress": "The maker address to update in whitelist"
        }
      },
      "setTakerWhitelist(address,bool)": {
        "details": "Updates the taker whitelist. The taker whitelist only affects new engagement.",
        "params": {
          "allowed": "Whether this taker is allowed to engage issuance.",
          "takerAddress": "The taker address to update in whitelist"
        }
      },
      "withdrawFromIssuance(uint256,uint256)": {
        "details": "The caller withdraws ETH from issuance to Instrument Escrow.",
        "params": {
          "amount": "The amount of ERC20 token transfered",
          "issuanceId": "The id of the issuance"
        }
      },
      "withdrawTokenFromIssuance(uint256,address,uint256)": {
        "details": "The caller withdraws ERC20 token from issuance to Instrument Escrow.",
        "params": {
          "amount": "The amount of ERC20 token transfered",
          "issuanceId": "The id of the issuance",
          "tokenAddress": "The address of the ERC20 token"
        }
      }
    },
    "title": "Instrument Manager for Instrument v3. A storage proxy is created for each issuance."
  },
  "userdoc": {
    "methods": {}
  }
}