{
  "contractName": "InstrumentEscrow",
  "abi": [
    {
      "constant": false,
      "inputs": [
        {
          "name": "account",
          "type": "address"
        },
        {
          "name": "token",
          "type": "address"
        },
        {
          "name": "amount",
          "type": "uint256"
        }
      ],
      "name": "withdrawTokenByAdmin",
      "outputs": [],
      "payable": false,
      "stateMutability": "nonpayable",
      "type": "function"
    },
    {
      "constant": false,
      "inputs": [
        {
          "name": "account",
          "type": "address"
        },
        {
          "name": "amount",
          "type": "uint256"
        }
      ],
      "name": "withdrawByAdmin",
      "outputs": [],
      "payable": false,
      "stateMutability": "nonpayable",
      "type": "function"
    },
    {
      "constant": false,
      "inputs": [
        {
          "name": "account",
          "type": "address"
        }
      ],
      "name": "depositByAdmin",
      "outputs": [],
      "payable": true,
      "stateMutability": "payable",
      "type": "function"
    },
    {
      "constant": false,
      "inputs": [],
      "name": "renounceOwnership",
      "outputs": [],
      "payable": false,
      "stateMutability": "nonpayable",
      "type": "function"
    },
    {
      "constant": false,
      "inputs": [
        {
          "name": "account",
          "type": "address"
        },
        {
          "name": "token",
          "type": "address"
        },
        {
          "name": "amount",
          "type": "uint256"
        }
      ],
      "name": "depositTokenByAdmin",
      "outputs": [],
      "payable": false,
      "stateMutability": "nonpayable",
      "type": "function"
    },
    {
      "constant": true,
      "inputs": [],
      "name": "owner",
      "outputs": [
        {
          "name": "",
          "type": "address"
        }
      ],
      "payable": false,
      "stateMutability": "view",
      "type": "function"
    },
    {
      "constant": true,
      "inputs": [],
      "name": "isOwner",
      "outputs": [
        {
          "name": "",
          "type": "bool"
        }
      ],
      "payable": false,
      "stateMutability": "view",
      "type": "function"
    },
    {
      "constant": true,
      "inputs": [
        {
          "name": "account",
          "type": "address"
        },
        {
          "name": "token",
          "type": "address"
        }
      ],
      "name": "getTokenBalance",
      "outputs": [
        {
          "name": "",
          "type": "uint256"
        }
      ],
      "payable": false,
      "stateMutability": "view",
      "type": "function"
    },
    {
      "constant": false,
      "inputs": [
        {
          "name": "newOwner",
          "type": "address"
        }
      ],
      "name": "initialize",
      "outputs": [],
      "payable": false,
      "stateMutability": "nonpayable",
      "type": "function"
    },
    {
      "constant": true,
      "inputs": [
        {
          "name": "account",
          "type": "address"
        }
      ],
      "name": "getTokenList",
      "outputs": [
        {
          "name": "tokens",
          "type": "address[]"
        }
      ],
      "payable": false,
      "stateMutability": "view",
      "type": "function"
    },
    {
      "constant": false,
      "inputs": [
        {
          "name": "newOwner",
          "type": "address"
        }
      ],
      "name": "transferOwnership",
      "outputs": [],
      "payable": false,
      "stateMutability": "nonpayable",
      "type": "function"
    },
    {
      "constant": true,
      "inputs": [
        {
          "name": "account",
          "type": "address"
        }
      ],
      "name": "getBalance",
      "outputs": [
        {
          "name": "",
          "type": "uint256"
        }
      ],
      "payable": false,
      "stateMutability": "view",
      "type": "function"
    },
    {
      "anonymous": false,
      "inputs": [
        {
          "indexed": true,
          "name": "depositer",
          "type": "address"
        },
        {
          "indexed": false,
          "name": "amount",
          "type": "uint256"
        }
      ],
      "name": "Deposited",
      "type": "event"
    },
    {
      "anonymous": false,
      "inputs": [
        {
          "indexed": true,
          "name": "withdrawer",
          "type": "address"
        },
        {
          "indexed": false,
          "name": "amount",
          "type": "uint256"
        }
      ],
      "name": "Withdrawn",
      "type": "event"
    },
    {
      "anonymous": false,
      "inputs": [
        {
          "indexed": true,
          "name": "depositer",
          "type": "address"
        },
        {
          "indexed": true,
          "name": "token",
          "type": "address"
        },
        {
          "indexed": false,
          "name": "amount",
          "type": "uint256"
        }
      ],
      "name": "TokenDeposited",
      "type": "event"
    },
    {
      "anonymous": false,
      "inputs": [
        {
          "indexed": true,
          "name": "withdrawer",
          "type": "address"
        },
        {
          "indexed": true,
          "name": "token",
          "type": "address"
        },
        {
          "indexed": false,
          "name": "amount",
          "type": "uint256"
        }
      ],
      "name": "TokenWithdrawn",
      "type": "event"
    },
    {
      "anonymous": false,
      "inputs": [
        {
          "indexed": false,
          "name": "account",
          "type": "address"
        },
        {
          "indexed": false,
          "name": "token",
          "type": "address"
        },
        {
          "indexed": false,
          "name": "amount",
          "type": "uint256"
        }
      ],
      "name": "BalanceIncreased",
      "type": "event"
    },
    {
      "anonymous": false,
      "inputs": [
        {
          "indexed": false,
          "name": "account",
          "type": "address"
        },
        {
          "indexed": false,
          "name": "token",
          "type": "address"
        },
        {
          "indexed": false,
          "name": "amount",
          "type": "uint256"
        }
      ],
      "name": "BalanceDecreased",
      "type": "event"
    },
    {
      "anonymous": false,
      "inputs": [
        {
          "indexed": true,
          "name": "previousOwner",
          "type": "address"
        },
        {
          "indexed": true,
          "name": "newOwner",
          "type": "address"
        }
      ],
      "name": "OwnershipTransferred",
      "type": "event"
    },
    {
      "constant": false,
      "inputs": [],
      "name": "deposit",
      "outputs": [],
      "payable": true,
      "stateMutability": "payable",
      "type": "function"
    },
    {
      "constant": false,
      "inputs": [
        {
          "name": "amount",
          "type": "uint256"
        }
      ],
      "name": "withdraw",
      "outputs": [],
      "payable": false,
      "stateMutability": "nonpayable",
      "type": "function"
    },
    {
      "constant": false,
      "inputs": [
        {
          "name": "token",
          "type": "address"
        },
        {
          "name": "amount",
          "type": "uint256"
        }
      ],
      "name": "depositToken",
      "outputs": [],
      "payable": false,
      "stateMutability": "nonpayable",
      "type": "function"
    },
    {
      "constant": false,
      "inputs": [
        {
          "name": "token",
          "type": "address"
        },
        {
          "name": "amount",
          "type": "uint256"
        }
      ],
      "name": "withdrawToken",
      "outputs": [],
      "payable": false,
      "stateMutability": "nonpayable",
      "type": "function"
    }
  ],
  "bytecode": "0x60806040819052600080546001600160a01b03191633178082556001600160a01b0316917f8be0079c531659141344cd1fd0a4f28419497f9722a3daafe3b4186f6b6457e0908290a36118a1806100576000396000f3fe6080604052600436106100f35760003560e01c80638f32d59b1161008a578063d0e30db011610059578063d0e30db01461036a578063d8a3073214610372578063f2fde38b146103f5578063f8b2cb4f14610428576100f3565b80638f32d59b146102885780639e281a98146102b1578063c489744b146102ea578063c4d66de814610337576100f3565b806370d97c34116100c657806370d97c34146101d9578063715018a6146101ff578063810c0af8146102145780638da5cb5b14610257576100f3565b80632e1a7d4d146100f8578063338b5dea146101245780633d4aa9a91461015d578063487c3580146101a0575b600080fd5b34801561010457600080fd5b506101226004803603602081101561011b57600080fd5b503561045b565b005b34801561013057600080fd5b506101226004803603604081101561014757600080fd5b506001600160a01b038135169060200135610532565b34801561016957600080fd5b506101226004803603606081101561018057600080fd5b506001600160a01b038135811691602081013590911690604001356105a9565b3480156101ac57600080fd5b50610122600480360360408110156101c357600080fd5b506001600160a01b038135169060200135610796565b610122600480360360208110156101ef57600080fd5b50356001600160a01b0316610931565b34801561020b57600080fd5b50610122610a5a565b34801561022057600080fd5b506101226004803603606081101561023757600080fd5b506001600160a01b03813581169160208101359091169060400135610b0d565b34801561026357600080fd5b5061026c610cab565b604080516001600160a01b039092168252519081900360200190f35b34801561029457600080fd5b5061029d610cba565b604080519115158252519081900360200190f35b3480156102bd57600080fd5b50610122600480360360408110156102d457600080fd5b506001600160a01b038135169060200135610ccb565b3480156102f657600080fd5b506103256004803603604081101561030d57600080fd5b506001600160a01b0381358116916020013516610d8c565b60408051918252519081900360200190f35b34801561034357600080fd5b506101226004803603602081101561035a57600080fd5b50356001600160a01b0316610db7565b610122610e2b565b34801561037e57600080fd5b506103a56004803603602081101561039557600080fd5b50356001600160a01b0316610e7c565b60408051602080825283518183015283519192839290830191858101910280838360005b838110156103e15781810151838201526020016103c9565b505050509050019250505060405180910390f35b34801561040157600080fd5b506101226004803603602081101561041857600080fd5b50356001600160a01b0316611075565b34801561043457600080fd5b506103256004803603602081101561044b57600080fd5b50356001600160a01b03166110d1565b3381610466826110d1565b10156104a657604051600160e51b62461bcd0281526004018080602001828103825260278152602001806117b36027913960400191505060405180910390fd5b6104b8816104b2611112565b84611118565b6040516001600160a01b0382169083156108fc029084906000818181858888f193505050501580156104ee573d6000803e3d6000fd5b506040805183815290516001600160a01b038316917f7084f5476618d8e60b11ef0d7d3f06914655adb8793e28ff7f018d4c76d505d5919081900360200190a25050565b3361053e8184846111b2565b6105596001600160a01b03841682308563ffffffff6112b716565b826001600160a01b0316816001600160a01b03167ff1444b5cad7ce70cb018d1b8edc8618fe303f3c7f034d8d572a6e27facbf2bef846040518082815260200191505060405180910390a3505050565b6105b1610cba565b6106055760408051600160e51b62461bcd02815260206004820181905260248201527f4f776e61626c653a2063616c6c6572206973206e6f7420746865206f776e6572604482015290519081900360640190fd5b6001600160a01b0383166106635760408051600160e51b62461bcd02815260206004820181905260248201527f457363726f77426173653a204163636f756e74206d757374206265207365742e604482015290519081900360640190fd5b6001600160a01b0382166106c15760408051600160e51b62461bcd02815260206004820152601e60248201527f457363726f77426173653a20546f6b656e206d757374206265207365742e0000604482015290519081900360640190fd5b600081116107195760408051600160e51b62461bcd02815260206004820152601f60248201527f457363726f77426173653a20416d6f756e74206d757374206265207365742e00604482015290519081900360640190fd5b806107248484610d8c565b101561076457604051600160e51b62461bcd0281526004018080602001828103825260278152602001806118256027913960400191505060405180910390fd5b61076f838383611118565b61079161077a610cab565b6001600160a01b038416908363ffffffff61134516565b505050565b61079e610cba565b6107f25760408051600160e51b62461bcd02815260206004820181905260248201527f4f776e61626c653a2063616c6c6572206973206e6f7420746865206f776e6572604482015290519081900360640190fd5b6001600160a01b0382166108505760408051600160e51b62461bcd02815260206004820181905260248201527f457363726f77426173653a204163636f756e74206d757374206265207365742e604482015290519081900360640190fd5b600081116108a85760408051600160e51b62461bcd02815260206004820152601f60248201527f457363726f77426173653a20416d6f756e74206d757374206265207365742e00604482015290519081900360640190fd5b806108b2836110d1565b10156108f257604051600160e51b62461bcd0281526004018080602001828103825260258152602001806118006025913960400191505060405180910390fd5b610904826108fe611112565b83611118565b604051339082156108fc029083906000818181858888f19350505050158015610791573d6000803e3d6000fd5b610939610cba565b61098d5760408051600160e51b62461bcd02815260206004820181905260248201527f4f776e61626c653a2063616c6c6572206973206e6f7420746865206f776e6572604482015290519081900360640190fd5b346001600160a01b0382166109ec5760408051600160e51b62461bcd02815260206004820181905260248201527f457363726f77426173653a204163636f756e74206d757374206265207365742e604482015290519081900360640190fd5b60008111610a445760408051600160e51b62461bcd02815260206004820152601f60248201527f457363726f77426173653a20416d6f756e74206d757374206265207365742e00604482015290519081900360640190fd5b610a5682610a50611112565b836111b2565b5050565b610a62610cba565b610ab65760408051600160e51b62461bcd02815260206004820181905260248201527f4f776e61626c653a2063616c6c6572206973206e6f7420746865206f776e6572604482015290519081900360640190fd5b600080546040516001600160a01b03909116907f8be0079c531659141344cd1fd0a4f28419497f9722a3daafe3b4186f6b6457e0908390a36000805473ffffffffffffffffffffffffffffffffffffffff19169055565b610b15610cba565b610b695760408051600160e51b62461bcd02815260206004820181905260248201527f4f776e61626c653a2063616c6c6572206973206e6f7420746865206f776e6572604482015290519081900360640190fd5b6001600160a01b038316610bc75760408051600160e51b62461bcd02815260206004820181905260248201527f457363726f77426173653a204163636f756e74206d757374206265207365742e604482015290519081900360640190fd5b6001600160a01b038216610c255760408051600160e51b62461bcd02815260206004820152601e60248201527f457363726f77426173653a20546f6b656e206d757374206265207365742e0000604482015290519081900360640190fd5b60008111610c7d5760408051600160e51b62461bcd02815260206004820152601f60248201527f457363726f77426173653a20416d6f756e74206d757374206265207365742e00604482015290519081900360640190fd5b610c888383836111b2565b610791610c93610cab565b6001600160a01b03841690308463ffffffff6112b716565b6000546001600160a01b031690565b6000546001600160a01b0316331490565b3381610cd78285610d8c565b1015610d1757604051600160e51b62461bcd0281526004018080602001828103825260278152602001806117b36027913960400191505060405180910390fd5b610d22818484611118565b610d3c6001600160a01b038416828463ffffffff61134516565b826001600160a01b0316816001600160a01b03167f8210728e7c071f615b840ee026032693858fbcd5e5359e67e438c890f59e5620846040518082815260200191505060405180910390a3505050565b6001600160a01b03918216600090815260016020908152604080832093909416825291909152205490565b6000610dc1610cab565b6001600160a01b031614610e1f5760408051600160e51b62461bcd02815260206004820181905260248201527f457363726f77426173653a20416c726561647920696e697469616c697a65642e604482015290519081900360640190fd5b610e28816113c5565b50565b3334610e3982610a50611112565b6040805182815290516001600160a01b038416917f2da466a7b24304f47e87fa2e1e5a81b9831ce54fec19055ce277ca2f39ba42c4919081900360200190a25050565b6001600160a01b0381166000908152600160205260408120606091600290910190610ea5611112565b90506000805b8354811015610f4b57826001600160a01b0316848281548110610eca57fe5b6000918252602090912001546001600160a01b031614801590610f3757506001600160a01b038616600090815260016020526040812085548290879085908110610f1057fe5b60009182526020808320909101546001600160a01b03168352820192909252604001902054115b15610f43576001909101905b600101610eab565b5080604051908082528060200260200182016040528015610f76578160200160208202803883390190505b5093506000805b845481101561106b57836001600160a01b0316858281548110610f9c57fe5b6000918252602090912001546001600160a01b03161480159061100957506001600160a01b038716600090815260016020526040812086548290889085908110610fe257fe5b60009182526020808320909101546001600160a01b03168352820192909252604001902054115b156110635784818154811061101a57fe5b9060005260206000200160009054906101000a90046001600160a01b031686838151811061104457fe5b6001600160a01b03909216602092830291909101909101526001909101905b600101610f7d565b5050505050919050565b61107d610cba565b610e1f5760408051600160e51b62461bcd02815260206004820181905260248201527f4f776e61626c653a2063616c6c6572206973206e6f7420746865206f776e6572604482015290519081900360640190fd5b6001600160a01b0381166000908152600160205260408120816110f2611112565b6001600160a01b0316815260208101919091526040016000205492915050565b60001990565b6001600160a01b038084166000908152600160209081526040808320938616835290839052902054611150908363ffffffff61147516565b6001600160a01b038085166000818152602085815260409182902094909455805192881683529282015280820184905290517f6ac2cd906088d873624fa62ca95170d967629e7d964651df19a3aa2e49b44aa19181900360600190a150505050565b6001600160a01b0380841660009081526001602090815260408083209386168352908390529020546111ea908363ffffffff6114be16565b6001600160a01b038416600090815260208381526040808320939093556001840190522054611267576002810180546001808201835560008381526020808220909301805473ffffffffffffffffffffffffffffffffffffffff19166001600160a01b038916908117909155935493815290840190915260409020555b604080516001600160a01b0380871682528516602082015280820184905290517f0d66f59c9991adc17dd3339490c5058d2d6fe20395e7b55ceb6ca8019a31667d9181900360600190a150505050565b604080516001600160a01b0385811660248301528416604482015260648082018490528251808303909101815260849091019091526020810180517bffffffffffffffffffffffffffffffffffffffffffffffffffffffff167f23b872dd0000000000000000000000000000000000000000000000000000000017905261133f90859061151b565b50505050565b604080516001600160a01b038416602482015260448082018490528251808303909101815260649091019091526020810180517bffffffffffffffffffffffffffffffffffffffffffffffffffffffff167fa9059cbb0000000000000000000000000000000000000000000000000000000017905261079190849061151b565b6001600160a01b03811661140d57604051600160e51b62461bcd0281526004018080602001828103825260268152602001806117da6026913960400191505060405180910390fd5b600080546040516001600160a01b03808516939216917f8be0079c531659141344cd1fd0a4f28419497f9722a3daafe3b4186f6b6457e091a36000805473ffffffffffffffffffffffffffffffffffffffff19166001600160a01b0392909216919091179055565b60006114b783836040518060400160405280601e81526020017f536166654d6174683a207375627472616374696f6e206f766572666c6f7700008152506116dc565b9392505050565b6000828201838110156114b75760408051600160e51b62461bcd02815260206004820152601b60248201527f536166654d6174683a206164646974696f6e206f766572666c6f770000000000604482015290519081900360640190fd5b61152d826001600160a01b0316611776565b6115815760408051600160e51b62461bcd02815260206004820152601f60248201527f5361666545524332303a2063616c6c20746f206e6f6e2d636f6e747261637400604482015290519081900360640190fd5b60006060836001600160a01b0316836040518082805190602001908083835b602083106115bf5780518252601f1990920191602091820191016115a0565b6001836020036101000a0380198251168184511680821785525050505050509050019150506000604051808303816000865af19150503d8060008114611621576040519150601f19603f3d011682016040523d82523d6000602084013e611626565b606091505b5091509150816116805760408051600160e51b62461bcd02815260206004820181905260248201527f5361666545524332303a206c6f772d6c6576656c2063616c6c206661696c6564604482015290519081900360640190fd5b80511561133f5780806020019051602081101561169c57600080fd5b505161133f57604051600160e51b62461bcd02815260040180806020018281038252602a81526020018061184c602a913960400191505060405180910390fd5b6000818484111561176e57604051600160e51b62461bcd0281526004018080602001828103825283818151815260200191508051906020019080838360005b8381101561173357818101518382015260200161171b565b50505050905090810190601f1680156117605780820380516001836020036101000a031916815260200191505b509250505060405180910390fd5b505050900390565b6000813f7fc5d2460186f7233c927e7db2dcc703c0e500b653ca82273b7bfad8045d85a47081158015906117aa5750808214155b94935050505056fe496e737472756d656e74457363726f773a20496e73756666696369656e742062616c616e63652e4f776e61626c653a206e6577206f776e657220697320746865207a65726f2061646472657373457363726f77426173653a20496e73756666696369656e74204554482042616c616e63652e457363726f77426173653a20496e73756666696369656e7420546f6b656e2042616c616e63652e5361666545524332303a204552433230206f7065726174696f6e20646964206e6f742073756363656564a165627a7a72305820e95cd6de8d28ba582679b1c544c50bebf23af2a8bf864f96d6947126e58f8bbd0029",
  "source": "pragma solidity ^0.5.0;\n\nimport \"../lib/token/IERC20.sol\";\nimport \"../lib/token/SafeERC20.sol\";\nimport \"../lib/util/Constants.sol\";\nimport \"./EscrowBase.sol\";\nimport \"./InstrumentEscrowInterface.sol\";\nimport \"./DepositEscrowInterface.sol\";\n\n/**\n * @title Instrument Escrow that keeps assets that are not yet locked by issuances.\n */\ncontract InstrumentEscrow is EscrowBase, InstrumentEscrowInterface, DepositEscrowInterface {\n    /**\n     * ETH is deposited into instrument escrow.\n     * @param depositer The address who deposits ETH.\n     * @param amount The deposit token amount.\n     */\n    event Deposited(address indexed depositer, uint256 amount);\n\n    /**\n     * ETH is withdrawn from instrument escrow.\n     * @param withdrawer The address who withdraws ETH.\n     * @param amount The withdrawal token amount.\n     */\n    event Withdrawn(address indexed withdrawer, uint256 amount);\n\n    /**\n     * Token is deposited into instrument escrow.\n     * @param depositer The address who deposits token.\n     * @param token The deposit token address.\n     * @param amount The deposit token amount.\n     */\n    event TokenDeposited(address indexed depositer, address indexed token, uint256 amount);\n\n    /**\n     * Token is withdrawn from instrument escrow.\n     * @param withdrawer The address who withdraws token.\n     * @param token The withdrawal token address.\n     * @param amount The withdrawal token amount.\n     */\n    event TokenWithdrawn(address indexed withdrawer, address indexed token, uint256 amount);\n\n    /**********************************************\n     * APIs to deposit and withdraw Ether\n     ***********************************************/\n\n    /**\n     * @dev Deposits ETHs into the instrument escrow\n     */\n    function deposit() public payable {\n        address account = msg.sender;\n        uint256 amount = msg.value;\n        _addToBalance(account, Constants.getEthAddress(), amount);\n\n        emit Deposited(account, amount);\n    }\n\n    /**\n     * @dev Withdraw Ethers from the instrument escrow\n     * @param amount The amount of Ethers to withdraw\n     */\n    function withdraw(uint256 amount) public {\n        address payable account = msg.sender;\n        require(getBalance(account) >= amount, \"InstrumentEscrow: Insufficient balance.\");\n        _reduceFromBalance(account, Constants.getEthAddress(), amount);\n\n        account.transfer(amount);\n\n        emit Withdrawn(account, amount);\n    }\n\n    /***********************************************\n     *  APIs to deposit and withdraw IERC20 token\n     **********************************************/\n\n    /**\n     * @dev Deposit IERC20 token to the instrument escrow.\n     * @param token The IERC20 token to deposit.\n     * @param amount The amount to deposit.\n     */\n    function depositToken(IERC20 token, uint256 amount) public {\n        address account = msg.sender;\n        _addToBalance(account, address(token), amount);\n\n        token.safeTransferFrom(account, address(this), amount);\n\n        emit TokenDeposited(account, address(token), amount);\n    }\n\n    /**\n     * @dev Withdraw IERC20 token from the instrument escrow.\n     * @param token The IERC20 token to withdraw.\n     * @param amount The amount to withdraw.\n     */\n    function withdrawToken(IERC20 token, uint256 amount) public {\n        address account = msg.sender;\n        require(getTokenBalance(account, token) >= amount, \"InstrumentEscrow: Insufficient balance.\");\n        _reduceFromBalance(account, address(token), amount);\n\n        token.safeTransfer(account, amount);\n\n        emit TokenWithdrawn(account, address(token), amount);\n    }\n}\n",
  "sourcePath": "/Users/shengdading/git/nuts-platform-v2/contracts/escrow/InstrumentEscrow.sol",
  "compiler": {
    "name": "solc",
    "version": "0.5.8+commit.23d335f2.Emscripten.clang"
  },
  "schemaVersion": "3.0.16",
  "updatedAt": "2019-10-09T22:59:45.983Z",
  "devdoc": {
    "methods": {
      "deposit()": {
        "details": "Deposits ETHs into the instrument escrow"
      },
      "depositByAdmin(address)": {
        "details": "Deposits ETH from Instrument Manager into an account.",
        "params": {
          "account": "The account to deposit ETH."
        }
      },
      "depositToken(address,uint256)": {
        "details": "Deposit IERC20 token to the instrument escrow.",
        "params": {
          "amount": "The amount to deposit.",
          "token": "The IERC20 token to deposit."
        }
      },
      "depositTokenByAdmin(address,address,uint256)": {
        "details": "Deposits ERC20 tokens from Instrument Manager into an account. Note: The owner, i.e. Instrument Manager must set the allowance before hand.",
        "params": {
          "account": "The account to deposit ERC20 tokens.",
          "amount": "The amount of ERC20 token to deposit.",
          "token": "The ERC20 token to deposit."
        }
      },
      "getBalance(address)": {
        "details": "Get the current ETH balance of an account in the escrow.",
        "params": {
          "account": "The account to check ETH balance."
        },
        "return": "Current ETH balance of the account."
      },
      "getTokenBalance(address,address)": {
        "details": "Get the balance of the requested IERC20 token in the escrow.",
        "params": {
          "account": "The address to check IERC20 balance.",
          "token": "The IERC20 token to check balance."
        },
        "return": "The balance of the account."
      },
      "getTokenList(address)": {
        "details": "Get the list of tokens that are deposited in the escrow.",
        "params": {
          "account": "The address to check the deposited token list."
        },
        "return": "The list of tokens deposited in the escrow."
      },
      "initialize(address)": {
        "details": "IMPORTANT: Initialization method for all escrows to update the owner. This function must be invoked immediately after creating the proxy and updating implementation. If it's invoked in a separate transaction, it's possible that it's already invoked by someone else."
      },
      "isOwner()": {
        "details": "Returns true if the caller is the current owner."
      },
      "owner()": {
        "details": "Returns the address of the current owner."
      },
      "renounceOwnership()": {
        "details": "Leaves the contract without owner. It will not be possible to call `onlyOwner` functions anymore. Can only be called by the current owner.     * NOTE: Renouncing ownership will leave the contract without an owner, thereby removing any functionality that is only available to the owner."
      },
      "transferOwnership(address)": {
        "details": "Transfers ownership of the contract to a new account (`newOwner`). Can only be called by the current owner."
      },
      "withdraw(uint256)": {
        "details": "Withdraw Ethers from the instrument escrow",
        "params": {
          "amount": "The amount of Ethers to withdraw"
        }
      },
      "withdrawByAdmin(address,uint256)": {
        "details": "Withdraw ETH from an account to Instrument Manager.",
        "params": {
          "account": "The account to withdraw ETH.",
          "amount": "The amount of ETH to withdraw."
        }
      },
      "withdrawToken(address,uint256)": {
        "details": "Withdraw IERC20 token from the instrument escrow.",
        "params": {
          "amount": "The amount to withdraw.",
          "token": "The IERC20 token to withdraw."
        }
      },
      "withdrawTokenByAdmin(address,address,uint256)": {
        "details": "Withdraw ERC20 token from an account to Instrument Manager. The transfer action is done inside this function.",
        "params": {
          "account": "The account to withdraw ERC20 token.",
          "amount": "The amount of ERC20 tokens to withdraw.",
          "token": "The ERC20 token to withdraw."
        }
      }
    },
    "title": "Instrument Escrow that keeps assets that are not yet locked by issuances."
  },
  "userdoc": {
    "methods": {}
  }
}