{
  "contractName": "InstrumentConfig",
  "abi": [
    {
      "constant": true,
      "inputs": [],
      "name": "instrumentDeposit",
      "outputs": [
        {
          "name": "",
          "type": "uint256"
        }
      ],
      "payable": false,
      "stateMutability": "view",
      "type": "function"
    },
    {
      "constant": true,
      "inputs": [],
      "name": "depositTokenAddress",
      "outputs": [
        {
          "name": "",
          "type": "address"
        }
      ],
      "payable": false,
      "stateMutability": "view",
      "type": "function"
    },
    {
      "constant": true,
      "inputs": [],
      "name": "priceOracleAddress",
      "outputs": [
        {
          "name": "",
          "type": "address"
        }
      ],
      "payable": false,
      "stateMutability": "view",
      "type": "function"
    },
    {
      "constant": true,
      "inputs": [],
      "name": "timerOracleAddress",
      "outputs": [
        {
          "name": "",
          "type": "address"
        }
      ],
      "payable": false,
      "stateMutability": "view",
      "type": "function"
    },
    {
      "constant": true,
      "inputs": [],
      "name": "storageFactoryAddress",
      "outputs": [
        {
          "name": "",
          "type": "address"
        }
      ],
      "payable": false,
      "stateMutability": "view",
      "type": "function"
    },
    {
      "constant": true,
      "inputs": [],
      "name": "issuanceDeposit",
      "outputs": [
        {
          "name": "",
          "type": "uint256"
        }
      ],
      "payable": false,
      "stateMutability": "view",
      "type": "function"
    },
    {
      "constant": true,
      "inputs": [],
      "name": "proxyFactoryAddress",
      "outputs": [
        {
          "name": "",
          "type": "address"
        }
      ],
      "payable": false,
      "stateMutability": "view",
      "type": "function"
    },
    {
      "constant": true,
      "inputs": [],
      "name": "escrowFactoryAddress",
      "outputs": [
        {
          "name": "",
          "type": "address"
        }
      ],
      "payable": false,
      "stateMutability": "view",
      "type": "function"
    },
    {
      "constant": true,
      "inputs": [],
      "name": "depositEscrowAddress",
      "outputs": [
        {
          "name": "",
          "type": "address"
        }
      ],
      "payable": false,
      "stateMutability": "view",
      "type": "function"
    }
  ],
  "bytecode": "0x608060405234801561001057600080fd5b506101bf806100206000396000f3fe608060405234801561001057600080fd5b50600436106100a35760003560e01c80634b3667e311610076578063be5405d21161005b578063be5405d214610106578063d9e86f1d1461010e578063e755926014610116576100a3565b80634b3667e3146100f65780635a363667146100fe576100a3565b80631e081f09146100a857806323dc9e37146100c25780632bc51c6d146100e6578063406b95c1146100ee575b600080fd5b6100b061011e565b60408051918252519081900360200190f35b6100ca610124565b604080516001600160a01b039092168252519081900360200190f35b6100ca610133565b6100ca610142565b6100ca610151565b6100b0610160565b6100ca610166565b6100ca610175565b6100ca610184565b60005481565b6003546001600160a01b031681565b6005546001600160a01b031681565b6004546001600160a01b031681565b6007546001600160a01b031681565b60015481565b6008546001600160a01b031681565b6006546001600160a01b031681565b6002546001600160a01b03168156fea165627a7a7230582017bed6176b32b5c8296dad87238c8f173fe1d7fc50f89c7f162954b9a0e9420c0029",
  "source": "pragma solidity ^0.5.0;\n\n/**\n * @title Base contract to hold instrument-related config.\n */\ncontract InstrumentConfig {\n    // Amount of NUTS token deposited to activate new financial instrument\n    // Note: Updateable after initialization.\n    uint256 public instrumentDeposit;\n    // Amount of NUTS token deposited to create new issuance\n    // Note: Updateable after initialization.\n    uint256 public issuanceDeposit;\n    // Address of Deposit Escrow\n    // Note: Non-updateable after initialization.\n    address public depositEscrowAddress;\n    // Address of deposited token(NUTS token)\n    // Note: Non-updateable after initialization.\n    address public depositTokenAddress;\n    // Address of Timer Oracle\n    // Note: updatable after initialization.\n    address public timerOracleAddress;\n    // Address of Price Oracle\n    // Note: Non-updatable after initialization.\n    address public priceOracleAddress;\n    // Address of Escrow Factory\n    // Note: Updatable after initialization.\n    address public escrowFactoryAddress;\n    // Address of Storage Factory\n    // Note: Updatable after initialization\n    address public storageFactoryAddress;\n    // Address of Proxy Factory\n    // Note: Updatable after initialization.\n    address public proxyFactoryAddress;\n\n}",
  "sourcePath": "/Users/shengdading/git/nuts-platform-v2/contracts/InstrumentConfig.sol",
  "compiler": {
    "name": "solc",
    "version": "0.5.8+commit.23d335f2.Emscripten.clang"
  },
  "schemaVersion": "3.0.16",
  "updatedAt": "2019-10-16T00:39:23.761Z",
  "devdoc": {
    "methods": {},
    "title": "Base contract to hold instrument-related config."
  },
  "userdoc": {
    "methods": {}
  }
}