{
  "contractName": "InstrumentConfig",
  "abi": [
    {
      "constant": true,
      "inputs": [],
      "name": "instrumentDeposit",
      "outputs": [
        {
          "name": "",
          "type": "uint256"
        }
      ],
      "payable": false,
      "stateMutability": "view",
      "type": "function"
    },
    {
      "constant": true,
      "inputs": [],
      "name": "depositTokenAddress",
      "outputs": [
        {
          "name": "",
          "type": "address"
        }
      ],
      "payable": false,
      "stateMutability": "view",
      "type": "function"
    },
    {
      "constant": true,
      "inputs": [],
      "name": "priceOracleAddress",
      "outputs": [
        {
          "name": "",
          "type": "address"
        }
      ],
      "payable": false,
      "stateMutability": "view",
      "type": "function"
    },
    {
      "constant": true,
      "inputs": [],
      "name": "timerOracleAddress",
      "outputs": [
        {
          "name": "",
          "type": "address"
        }
      ],
      "payable": false,
      "stateMutability": "view",
      "type": "function"
    },
    {
      "constant": true,
      "inputs": [],
      "name": "storageFactoryAddress",
      "outputs": [
        {
          "name": "",
          "type": "address"
        }
      ],
      "payable": false,
      "stateMutability": "view",
      "type": "function"
    },
    {
      "constant": true,
      "inputs": [],
      "name": "proxyAdminAddress",
      "outputs": [
        {
          "name": "",
          "type": "address"
        }
      ],
      "payable": false,
      "stateMutability": "view",
      "type": "function"
    },
    {
      "constant": true,
      "inputs": [],
      "name": "issuanceDeposit",
      "outputs": [
        {
          "name": "",
          "type": "uint256"
        }
      ],
      "payable": false,
      "stateMutability": "view",
      "type": "function"
    },
    {
      "constant": true,
      "inputs": [],
      "name": "proxyFactoryAddress",
      "outputs": [
        {
          "name": "",
          "type": "address"
        }
      ],
      "payable": false,
      "stateMutability": "view",
      "type": "function"
    },
    {
      "constant": true,
      "inputs": [],
      "name": "escrowFactoryAddress",
      "outputs": [
        {
          "name": "",
          "type": "address"
        }
      ],
      "payable": false,
      "stateMutability": "view",
      "type": "function"
    },
    {
      "constant": true,
      "inputs": [],
      "name": "depositEscrowAddress",
      "outputs": [
        {
          "name": "",
          "type": "address"
        }
      ],
      "payable": false,
      "stateMutability": "view",
      "type": "function"
    }
  ],
  "bytecode": "0x608060405234801561001057600080fd5b506101f1806100206000396000f3fe608060405234801561001057600080fd5b50600436106100be5760003560e01c80635979e75511610076578063be5405d21161005b578063be5405d214610129578063d9e86f1d14610131578063e755926014610139576100be565b80635979e755146101195780635a36366714610121576100be565b80632bc51c6d116100a75780632bc51c6d14610101578063406b95c1146101095780634b3667e314610111576100be565b80631e081f09146100c357806323dc9e37146100dd575b600080fd5b6100cb610141565b60408051918252519081900360200190f35b6100e5610147565b604080516001600160a01b039092168252519081900360200190f35b6100e5610156565b6100e5610165565b6100e5610174565b6100e5610183565b6100cb610192565b6100e5610198565b6100e56101a7565b6100e56101b6565b60005481565b6003546001600160a01b031681565b6006546001600160a01b031681565b6005546001600160a01b031681565b6008546001600160a01b031681565b6004546001600160a01b031681565b60015481565b6009546001600160a01b031681565b6007546001600160a01b031681565b6002546001600160a01b03168156fea165627a7a72305820f6cbce5c86f3ba2684dc1a3a08edc44149e926da8e684f17d2792e48821bc7a90029",
  "source": "pragma solidity ^0.5.0;\n\n/**\n * @title Base contract to hold instrument-related config.\n */\ncontract InstrumentConfig {\n    // Amount of NUTS token deposited to activate new financial instrument\n    // Note: Updateable after initialization.\n    uint256 public instrumentDeposit;\n    // Amount of NUTS token deposited to create new issuance\n    // Note: Updateable after initialization.\n    uint256 public issuanceDeposit;\n    // Address of Deposit Escrow\n    // Note: Non-updateable after initialization.\n    address public depositEscrowAddress;\n    // Address of deposited token(NUTS token)\n    // Note: Non-updateable after initialization.\n    address public depositTokenAddress;\n    // Address of proxy admin\n    // Note: Updateable after initialization.\n    address public proxyAdminAddress;\n    // Address of Timer Oracle\n    // Note: updatable after initialization.\n    address public timerOracleAddress;\n    // Address of Price Oracle\n    // Note: Non-updatable after initialization.\n    address public priceOracleAddress;\n    // Address of Escrow Factory\n    // Note: Updatable after initialization.\n    address public escrowFactoryAddress;\n    // Address of Storage Factory\n    // Note: Updatable after initialization\n    address public storageFactoryAddress;\n    // Address of Proxy Factory\n    // Note: Updatable after initialization.\n    address public proxyFactoryAddress;\n\n}",
  "sourcePath": "/Users/shengdading/git/nuts-platform-v2/contracts/InstrumentConfig.sol",
  "compiler": {
    "name": "solc",
    "version": "0.5.8+commit.23d335f2.Emscripten.clang"
  },
  "schemaVersion": "3.0.16",
  "updatedAt": "2019-10-09T21:10:22.337Z",
  "devdoc": {
    "methods": {},
    "title": "Base contract to hold instrument-related config."
  },
  "userdoc": {
    "methods": {}
  }
}