{
  "contractName": "InstrumentEscrow",
  "abi": [
    {
      "constant": false,
      "inputs": [
        {
          "name": "account",
          "type": "address"
        },
        {
          "name": "token",
          "type": "address"
        },
        {
          "name": "amount",
          "type": "uint256"
        }
      ],
      "name": "withdrawTokenByAdmin",
      "outputs": [],
      "payable": false,
      "stateMutability": "nonpayable",
      "type": "function"
    },
    {
      "constant": false,
      "inputs": [
        {
          "name": "account",
          "type": "address"
        },
        {
          "name": "amount",
          "type": "uint256"
        }
      ],
      "name": "withdrawByAdmin",
      "outputs": [],
      "payable": false,
      "stateMutability": "nonpayable",
      "type": "function"
    },
    {
      "constant": false,
      "inputs": [
        {
          "name": "account",
          "type": "address"
        }
      ],
      "name": "depositByAdmin",
      "outputs": [],
      "payable": true,
      "stateMutability": "payable",
      "type": "function"
    },
    {
      "constant": false,
      "inputs": [],
      "name": "renounceOwnership",
      "outputs": [],
      "payable": false,
      "stateMutability": "nonpayable",
      "type": "function"
    },
    {
      "constant": false,
      "inputs": [
        {
          "name": "account",
          "type": "address"
        },
        {
          "name": "token",
          "type": "address"
        },
        {
          "name": "amount",
          "type": "uint256"
        }
      ],
      "name": "depositTokenByAdmin",
      "outputs": [],
      "payable": false,
      "stateMutability": "nonpayable",
      "type": "function"
    },
    {
      "constant": true,
      "inputs": [],
      "name": "owner",
      "outputs": [
        {
          "name": "",
          "type": "address"
        }
      ],
      "payable": false,
      "stateMutability": "view",
      "type": "function"
    },
    {
      "constant": true,
      "inputs": [],
      "name": "isOwner",
      "outputs": [
        {
          "name": "",
          "type": "bool"
        }
      ],
      "payable": false,
      "stateMutability": "view",
      "type": "function"
    },
    {
      "constant": true,
      "inputs": [
        {
          "name": "account",
          "type": "address"
        },
        {
          "name": "token",
          "type": "address"
        }
      ],
      "name": "getTokenBalance",
      "outputs": [
        {
          "name": "",
          "type": "uint256"
        }
      ],
      "payable": false,
      "stateMutability": "view",
      "type": "function"
    },
    {
      "constant": true,
      "inputs": [
        {
          "name": "account",
          "type": "address"
        }
      ],
      "name": "getTokenList",
      "outputs": [
        {
          "name": "tokens",
          "type": "address[]"
        }
      ],
      "payable": false,
      "stateMutability": "view",
      "type": "function"
    },
    {
      "constant": false,
      "inputs": [
        {
          "name": "newOwner",
          "type": "address"
        }
      ],
      "name": "transferOwnership",
      "outputs": [],
      "payable": false,
      "stateMutability": "nonpayable",
      "type": "function"
    },
    {
      "constant": true,
      "inputs": [
        {
          "name": "account",
          "type": "address"
        }
      ],
      "name": "getBalance",
      "outputs": [
        {
          "name": "",
          "type": "uint256"
        }
      ],
      "payable": false,
      "stateMutability": "view",
      "type": "function"
    },
    {
      "anonymous": false,
      "inputs": [
        {
          "indexed": true,
          "name": "depositer",
          "type": "address"
        },
        {
          "indexed": false,
          "name": "amount",
          "type": "uint256"
        }
      ],
      "name": "Deposited",
      "type": "event"
    },
    {
      "anonymous": false,
      "inputs": [
        {
          "indexed": true,
          "name": "withdrawer",
          "type": "address"
        },
        {
          "indexed": false,
          "name": "amount",
          "type": "uint256"
        }
      ],
      "name": "Withdrawn",
      "type": "event"
    },
    {
      "anonymous": false,
      "inputs": [
        {
          "indexed": true,
          "name": "depositer",
          "type": "address"
        },
        {
          "indexed": true,
          "name": "token",
          "type": "address"
        },
        {
          "indexed": false,
          "name": "amount",
          "type": "uint256"
        }
      ],
      "name": "TokenDeposited",
      "type": "event"
    },
    {
      "anonymous": false,
      "inputs": [
        {
          "indexed": true,
          "name": "withdrawer",
          "type": "address"
        },
        {
          "indexed": true,
          "name": "token",
          "type": "address"
        },
        {
          "indexed": false,
          "name": "amount",
          "type": "uint256"
        }
      ],
      "name": "TokenWithdrawn",
      "type": "event"
    },
    {
      "anonymous": false,
      "inputs": [
        {
          "indexed": false,
          "name": "account",
          "type": "address"
        },
        {
          "indexed": false,
          "name": "token",
          "type": "address"
        },
        {
          "indexed": false,
          "name": "amount",
          "type": "uint256"
        }
      ],
      "name": "BalanceIncreased",
      "type": "event"
    },
    {
      "anonymous": false,
      "inputs": [
        {
          "indexed": false,
          "name": "account",
          "type": "address"
        },
        {
          "indexed": false,
          "name": "token",
          "type": "address"
        },
        {
          "indexed": false,
          "name": "amount",
          "type": "uint256"
        }
      ],
      "name": "BalanceDecreased",
      "type": "event"
    },
    {
      "anonymous": false,
      "inputs": [
        {
          "indexed": true,
          "name": "previousOwner",
          "type": "address"
        },
        {
          "indexed": true,
          "name": "newOwner",
          "type": "address"
        }
      ],
      "name": "OwnershipTransferred",
      "type": "event"
    },
    {
      "constant": false,
      "inputs": [],
      "name": "deposit",
      "outputs": [],
      "payable": true,
      "stateMutability": "payable",
      "type": "function"
    },
    {
      "constant": false,
      "inputs": [
        {
          "name": "amount",
          "type": "uint256"
        }
      ],
      "name": "withdraw",
      "outputs": [],
      "payable": false,
      "stateMutability": "nonpayable",
      "type": "function"
    },
    {
      "constant": false,
      "inputs": [
        {
          "name": "token",
          "type": "address"
        },
        {
          "name": "amount",
          "type": "uint256"
        }
      ],
      "name": "depositToken",
      "outputs": [],
      "payable": false,
      "stateMutability": "nonpayable",
      "type": "function"
    },
    {
      "constant": false,
      "inputs": [
        {
          "name": "token",
          "type": "address"
        },
        {
          "name": "amount",
          "type": "uint256"
        }
      ],
      "name": "withdrawToken",
      "outputs": [],
      "payable": false,
      "stateMutability": "nonpayable",
      "type": "function"
    }
  ],
  "bytecode": "0x60806040819052600080546001600160a01b03191633178082556001600160a01b0316917f8be0079c531659141344cd1fd0a4f28419497f9722a3daafe3b4186f6b6457e0908290a36117fb806100576000396000f3fe6080604052600436106100e85760003560e01c80638da5cb5b1161008a578063d0e30db011610059578063d0e30db01461032c578063d8a3073214610334578063f2fde38b146103b7578063f8b2cb4f146103ea576100e8565b80638da5cb5b1461024c5780638f32d59b1461027d5780639e281a98146102a6578063c489744b146102df576100e8565b8063487c3580116100c6578063487c35801461019557806370d97c34146101ce578063715018a6146101f4578063810c0af814610209576100e8565b80632e1a7d4d146100ed578063338b5dea146101195780633d4aa9a914610152575b600080fd5b3480156100f957600080fd5b506101176004803603602081101561011057600080fd5b503561041d565b005b34801561012557600080fd5b506101176004803603604081101561013c57600080fd5b506001600160a01b0381351690602001356104f4565b34801561015e57600080fd5b506101176004803603606081101561017557600080fd5b506001600160a01b0381358116916020810135909116906040013561056b565b3480156101a157600080fd5b50610117600480360360408110156101b857600080fd5b506001600160a01b038135169060200135610758565b610117600480360360208110156101e457600080fd5b50356001600160a01b03166108f3565b34801561020057600080fd5b50610117610a1c565b34801561021557600080fd5b506101176004803603606081101561022c57600080fd5b506001600160a01b03813581169160208101359091169060400135610acf565b34801561025857600080fd5b50610261610c6d565b604080516001600160a01b039092168252519081900360200190f35b34801561028957600080fd5b50610292610c7c565b604080519115158252519081900360200190f35b3480156102b257600080fd5b50610117600480360360408110156102c957600080fd5b506001600160a01b038135169060200135610c8d565b3480156102eb57600080fd5b5061031a6004803603604081101561030257600080fd5b506001600160a01b0381358116916020013516610d4e565b60408051918252519081900360200190f35b610117610d79565b34801561034057600080fd5b506103676004803603602081101561035757600080fd5b50356001600160a01b0316610dca565b60408051602080825283518183015283519192839290830191858101910280838360005b838110156103a357818101518382015260200161038b565b505050509050019250505060405180910390f35b3480156103c357600080fd5b50610117600480360360208110156103da57600080fd5b50356001600160a01b0316610fc3565b3480156103f657600080fd5b5061031a6004803603602081101561040d57600080fd5b50356001600160a01b031661102b565b33816104288261102b565b101561046857604051600160e51b62461bcd02815260040180806020018281038252602781526020018061170d6027913960400191505060405180910390fd5b61047a8161047461106c565b84611072565b6040516001600160a01b0382169083156108fc029084906000818181858888f193505050501580156104b0573d6000803e3d6000fd5b506040805183815290516001600160a01b038316917f7084f5476618d8e60b11ef0d7d3f06914655adb8793e28ff7f018d4c76d505d5919081900360200190a25050565b3361050081848461110c565b61051b6001600160a01b03841682308563ffffffff61121116565b826001600160a01b0316816001600160a01b03167ff1444b5cad7ce70cb018d1b8edc8618fe303f3c7f034d8d572a6e27facbf2bef846040518082815260200191505060405180910390a3505050565b610573610c7c565b6105c75760408051600160e51b62461bcd02815260206004820181905260248201527f4f776e61626c653a2063616c6c6572206973206e6f7420746865206f776e6572604482015290519081900360640190fd5b6001600160a01b0383166106255760408051600160e51b62461bcd02815260206004820181905260248201527f457363726f77426173653a204163636f756e74206d757374206265207365742e604482015290519081900360640190fd5b6001600160a01b0382166106835760408051600160e51b62461bcd02815260206004820152601e60248201527f457363726f77426173653a20546f6b656e206d757374206265207365742e0000604482015290519081900360640190fd5b600081116106db5760408051600160e51b62461bcd02815260206004820152601f60248201527f457363726f77426173653a20416d6f756e74206d757374206265207365742e00604482015290519081900360640190fd5b806106e68484610d4e565b101561072657604051600160e51b62461bcd02815260040180806020018281038252602781526020018061177f6027913960400191505060405180910390fd5b610731838383611072565b61075361073c610c6d565b6001600160a01b038416908363ffffffff61129f16565b505050565b610760610c7c565b6107b45760408051600160e51b62461bcd02815260206004820181905260248201527f4f776e61626c653a2063616c6c6572206973206e6f7420746865206f776e6572604482015290519081900360640190fd5b6001600160a01b0382166108125760408051600160e51b62461bcd02815260206004820181905260248201527f457363726f77426173653a204163636f756e74206d757374206265207365742e604482015290519081900360640190fd5b6000811161086a5760408051600160e51b62461bcd02815260206004820152601f60248201527f457363726f77426173653a20416d6f756e74206d757374206265207365742e00604482015290519081900360640190fd5b806108748361102b565b10156108b457604051600160e51b62461bcd02815260040180806020018281038252602581526020018061175a6025913960400191505060405180910390fd5b6108c6826108c061106c565b83611072565b604051339082156108fc029083906000818181858888f19350505050158015610753573d6000803e3d6000fd5b6108fb610c7c565b61094f5760408051600160e51b62461bcd02815260206004820181905260248201527f4f776e61626c653a2063616c6c6572206973206e6f7420746865206f776e6572604482015290519081900360640190fd5b346001600160a01b0382166109ae5760408051600160e51b62461bcd02815260206004820181905260248201527f457363726f77426173653a204163636f756e74206d757374206265207365742e604482015290519081900360640190fd5b60008111610a065760408051600160e51b62461bcd02815260206004820152601f60248201527f457363726f77426173653a20416d6f756e74206d757374206265207365742e00604482015290519081900360640190fd5b610a1882610a1261106c565b8361110c565b5050565b610a24610c7c565b610a785760408051600160e51b62461bcd02815260206004820181905260248201527f4f776e61626c653a2063616c6c6572206973206e6f7420746865206f776e6572604482015290519081900360640190fd5b600080546040516001600160a01b03909116907f8be0079c531659141344cd1fd0a4f28419497f9722a3daafe3b4186f6b6457e0908390a36000805473ffffffffffffffffffffffffffffffffffffffff19169055565b610ad7610c7c565b610b2b5760408051600160e51b62461bcd02815260206004820181905260248201527f4f776e61626c653a2063616c6c6572206973206e6f7420746865206f776e6572604482015290519081900360640190fd5b6001600160a01b038316610b895760408051600160e51b62461bcd02815260206004820181905260248201527f457363726f77426173653a204163636f756e74206d757374206265207365742e604482015290519081900360640190fd5b6001600160a01b038216610be75760408051600160e51b62461bcd02815260206004820152601e60248201527f457363726f77426173653a20546f6b656e206d757374206265207365742e0000604482015290519081900360640190fd5b60008111610c3f5760408051600160e51b62461bcd02815260206004820152601f60248201527f457363726f77426173653a20416d6f756e74206d757374206265207365742e00604482015290519081900360640190fd5b610c4a83838361110c565b610753610c55610c6d565b6001600160a01b03841690308463ffffffff61121116565b6000546001600160a01b031690565b6000546001600160a01b0316331490565b3381610c998285610d4e565b1015610cd957604051600160e51b62461bcd02815260040180806020018281038252602781526020018061170d6027913960400191505060405180910390fd5b610ce4818484611072565b610cfe6001600160a01b038416828463ffffffff61129f16565b826001600160a01b0316816001600160a01b03167f8210728e7c071f615b840ee026032693858fbcd5e5359e67e438c890f59e5620846040518082815260200191505060405180910390a3505050565b6001600160a01b03918216600090815260016020908152604080832093909416825291909152205490565b3334610d8782610a1261106c565b6040805182815290516001600160a01b038416917f2da466a7b24304f47e87fa2e1e5a81b9831ce54fec19055ce277ca2f39ba42c4919081900360200190a25050565b6001600160a01b0381166000908152600160205260408120606091600290910190610df361106c565b90506000805b8354811015610e9957826001600160a01b0316848281548110610e1857fe5b6000918252602090912001546001600160a01b031614801590610e8557506001600160a01b038616600090815260016020526040812085548290879085908110610e5e57fe5b60009182526020808320909101546001600160a01b03168352820192909252604001902054115b15610e91576001909101905b600101610df9565b5080604051908082528060200260200182016040528015610ec4578160200160208202803883390190505b5093506000805b8454811015610fb957836001600160a01b0316858281548110610eea57fe5b6000918252602090912001546001600160a01b031614801590610f5757506001600160a01b038716600090815260016020526040812086548290889085908110610f3057fe5b60009182526020808320909101546001600160a01b03168352820192909252604001902054115b15610fb157848181548110610f6857fe5b9060005260206000200160009054906101000a90046001600160a01b0316868381518110610f9257fe5b6001600160a01b03909216602092830291909101909101526001909101905b600101610ecb565b5050505050919050565b610fcb610c7c565b61101f5760408051600160e51b62461bcd02815260206004820181905260248201527f4f776e61626c653a2063616c6c6572206973206e6f7420746865206f776e6572604482015290519081900360640190fd5b6110288161131f565b50565b6001600160a01b03811660009081526001602052604081208161104c61106c565b6001600160a01b0316815260208101919091526040016000205492915050565b60001990565b6001600160a01b0380841660009081526001602090815260408083209386168352908390529020546110aa908363ffffffff6113cf16565b6001600160a01b038085166000818152602085815260409182902094909455805192881683529282015280820184905290517f6ac2cd906088d873624fa62ca95170d967629e7d964651df19a3aa2e49b44aa19181900360600190a150505050565b6001600160a01b038084166000908152600160209081526040808320938616835290839052902054611144908363ffffffff61141816565b6001600160a01b0384166000908152602083815260408083209390935560018401905220546111c1576002810180546001808201835560008381526020808220909301805473ffffffffffffffffffffffffffffffffffffffff19166001600160a01b038916908117909155935493815290840190915260409020555b604080516001600160a01b0380871682528516602082015280820184905290517f0d66f59c9991adc17dd3339490c5058d2d6fe20395e7b55ceb6ca8019a31667d9181900360600190a150505050565b604080516001600160a01b0385811660248301528416604482015260648082018490528251808303909101815260849091019091526020810180517bffffffffffffffffffffffffffffffffffffffffffffffffffffffff167f23b872dd00000000000000000000000000000000000000000000000000000000179052611299908590611475565b50505050565b604080516001600160a01b038416602482015260448082018490528251808303909101815260649091019091526020810180517bffffffffffffffffffffffffffffffffffffffffffffffffffffffff167fa9059cbb00000000000000000000000000000000000000000000000000000000179052610753908490611475565b6001600160a01b03811661136757604051600160e51b62461bcd0281526004018080602001828103825260268152602001806117346026913960400191505060405180910390fd5b600080546040516001600160a01b03808516939216917f8be0079c531659141344cd1fd0a4f28419497f9722a3daafe3b4186f6b6457e091a36000805473ffffffffffffffffffffffffffffffffffffffff19166001600160a01b0392909216919091179055565b600061141183836040518060400160405280601e81526020017f536166654d6174683a207375627472616374696f6e206f766572666c6f770000815250611636565b9392505050565b6000828201838110156114115760408051600160e51b62461bcd02815260206004820152601b60248201527f536166654d6174683a206164646974696f6e206f766572666c6f770000000000604482015290519081900360640190fd5b611487826001600160a01b03166116d0565b6114db5760408051600160e51b62461bcd02815260206004820152601f60248201527f5361666545524332303a2063616c6c20746f206e6f6e2d636f6e747261637400604482015290519081900360640190fd5b60006060836001600160a01b0316836040518082805190602001908083835b602083106115195780518252601f1990920191602091820191016114fa565b6001836020036101000a0380198251168184511680821785525050505050509050019150506000604051808303816000865af19150503d806000811461157b576040519150601f19603f3d011682016040523d82523d6000602084013e611580565b606091505b5091509150816115da5760408051600160e51b62461bcd02815260206004820181905260248201527f5361666545524332303a206c6f772d6c6576656c2063616c6c206661696c6564604482015290519081900360640190fd5b805115611299578080602001905160208110156115f657600080fd5b505161129957604051600160e51b62461bcd02815260040180806020018281038252602a8152602001806117a6602a913960400191505060405180910390fd5b600081848411156116c857604051600160e51b62461bcd0281526004018080602001828103825283818151815260200191508051906020019080838360005b8381101561168d578181015183820152602001611675565b50505050905090810190601f1680156116ba5780820380516001836020036101000a031916815260200191505b509250505060405180910390fd5b505050900390565b6000813f7fc5d2460186f7233c927e7db2dcc703c0e500b653ca82273b7bfad8045d85a47081158015906117045750808214155b94935050505056fe496e737472756d656e74457363726f773a20496e73756666696369656e742062616c616e63652e4f776e61626c653a206e6577206f776e657220697320746865207a65726f2061646472657373457363726f77426173653a20496e73756666696369656e74204554482042616c616e63652e457363726f77426173653a20496e73756666696369656e7420546f6b656e2042616c616e63652e5361666545524332303a204552433230206f7065726174696f6e20646964206e6f742073756363656564a165627a7a7230582040043035adada9c99c805f703cd6a720f0ef3f2f7bf32ef854615d6dcfbd56f60029",
  "source": "pragma solidity ^0.5.0;\n\nimport \"../lib/token/IERC20.sol\";\nimport \"../lib/token/SafeERC20.sol\";\nimport \"../lib/util/Constants.sol\";\nimport \"./EscrowBase.sol\";\nimport \"./InstrumentEscrowInterface.sol\";\nimport \"./DepositEscrowInterface.sol\";\n\n/**\n * @title Instrument Escrow that keeps assets that are not yet locked by issuances.\n */\ncontract InstrumentEscrow is EscrowBase, InstrumentEscrowInterface, DepositEscrowInterface {\n    /**\n     * ETH is deposited into instrument escrow.\n     * @param depositer The address who deposits ETH.\n     * @param amount The deposit token amount.\n     */\n    event Deposited(address indexed depositer, uint256 amount);\n\n    /**\n     * ETH is withdrawn from instrument escrow.\n     * @param withdrawer The address who withdraws ETH.\n     * @param amount The withdrawal token amount.\n     */\n    event Withdrawn(address indexed withdrawer, uint256 amount);\n\n    /**\n     * Token is deposited into instrument escrow.\n     * @param depositer The address who deposits token.\n     * @param token The deposit token address.\n     * @param amount The deposit token amount.\n     */\n    event TokenDeposited(address indexed depositer, address indexed token, uint256 amount);\n\n    /**\n     * Token is withdrawn from instrument escrow.\n     * @param withdrawer The address who withdraws token.\n     * @param token The withdrawal token address.\n     * @param amount The withdrawal token amount.\n     */\n    event TokenWithdrawn(address indexed withdrawer, address indexed token, uint256 amount);\n\n    /**********************************************\n     * APIs to deposit and withdraw Ether\n     ***********************************************/\n\n    /**\n     * @dev Deposits ETHs into the instrument escrow\n     */\n    function deposit() public payable {\n        address account = msg.sender;\n        uint256 amount = msg.value;\n        _addToBalance(account, Constants.getEthAddress(), amount);\n\n        emit Deposited(account, amount);\n    }\n\n    /**\n     * @dev Withdraw Ethers from the instrument escrow\n     * @param amount The amount of Ethers to withdraw\n     */\n    function withdraw(uint256 amount) public {\n        address payable account = msg.sender;\n        require(getBalance(account) >= amount, \"InstrumentEscrow: Insufficient balance.\");\n        _reduceFromBalance(account, Constants.getEthAddress(), amount);\n\n        account.transfer(amount);\n\n        emit Withdrawn(account, amount);\n    }\n\n    /***********************************************\n     *  APIs to deposit and withdraw IERC20 token\n     **********************************************/\n\n    /**\n     * @dev Deposit IERC20 token to the instrument escrow.\n     * @param token The IERC20 token to deposit.\n     * @param amount The amount to deposit.\n     */\n    function depositToken(IERC20 token, uint256 amount) public {\n        address account = msg.sender;\n        _addToBalance(account, address(token), amount);\n\n        token.safeTransferFrom(account, address(this), amount);\n\n        emit TokenDeposited(account, address(token), amount);\n    }\n\n    /**\n     * @dev Withdraw IERC20 token from the instrument escrow.\n     * @param token The IERC20 token to withdraw.\n     * @param amount The amount to withdraw.\n     */\n    function withdrawToken(IERC20 token, uint256 amount) public {\n        address account = msg.sender;\n        require(getTokenBalance(account, token) >= amount, \"InstrumentEscrow: Insufficient balance.\");\n        _reduceFromBalance(account, address(token), amount);\n\n        token.safeTransfer(account, amount);\n\n        emit TokenWithdrawn(account, address(token), amount);\n    }\n}\n",
  "sourcePath": "/Users/shengdading/git/nuts-platform-v2/contracts/escrow/InstrumentEscrow.sol",
  "compiler": {
    "name": "solc",
    "version": "0.5.8+commit.23d335f2.Emscripten.clang"
  },
  "schemaVersion": "3.0.16",
  "updatedAt": "2019-10-16T02:07:15.577Z",
  "devdoc": {
    "methods": {
      "deposit()": {
        "details": "Deposits ETHs into the instrument escrow"
      },
      "depositByAdmin(address)": {
        "details": "Deposits ETH from Instrument Manager into an account.",
        "params": {
          "account": "The account to deposit ETH."
        }
      },
      "depositToken(address,uint256)": {
        "details": "Deposit IERC20 token to the instrument escrow.",
        "params": {
          "amount": "The amount to deposit.",
          "token": "The IERC20 token to deposit."
        }
      },
      "depositTokenByAdmin(address,address,uint256)": {
        "details": "Deposits ERC20 tokens from Instrument Manager into an account. Note: The owner, i.e. Instrument Manager must set the allowance before hand.",
        "params": {
          "account": "The account to deposit ERC20 tokens.",
          "amount": "The amount of ERC20 token to deposit.",
          "token": "The ERC20 token to deposit."
        }
      },
      "getBalance(address)": {
        "details": "Get the current ETH balance of an account in the escrow.",
        "params": {
          "account": "The account to check ETH balance."
        },
        "return": "Current ETH balance of the account."
      },
      "getTokenBalance(address,address)": {
        "details": "Get the balance of the requested IERC20 token in the escrow.",
        "params": {
          "account": "The address to check IERC20 balance.",
          "token": "The IERC20 token to check balance."
        },
        "return": "The balance of the account."
      },
      "getTokenList(address)": {
        "details": "Get the list of tokens that are deposited in the escrow.",
        "params": {
          "account": "The address to check the deposited token list."
        },
        "return": "The list of tokens deposited in the escrow."
      },
      "isOwner()": {
        "details": "Returns true if the caller is the current owner."
      },
      "owner()": {
        "details": "Returns the address of the current owner."
      },
      "renounceOwnership()": {
        "details": "Leaves the contract without owner. It will not be possible to call `onlyOwner` functions anymore. Can only be called by the current owner.     * NOTE: Renouncing ownership will leave the contract without an owner, thereby removing any functionality that is only available to the owner."
      },
      "transferOwnership(address)": {
        "details": "Transfers ownership of the contract to a new account (`newOwner`). Can only be called by the current owner."
      },
      "withdraw(uint256)": {
        "details": "Withdraw Ethers from the instrument escrow",
        "params": {
          "amount": "The amount of Ethers to withdraw"
        }
      },
      "withdrawByAdmin(address,uint256)": {
        "details": "Withdraw ETH from an account to Instrument Manager.",
        "params": {
          "account": "The account to withdraw ETH.",
          "amount": "The amount of ETH to withdraw."
        }
      },
      "withdrawToken(address,uint256)": {
        "details": "Withdraw IERC20 token from the instrument escrow.",
        "params": {
          "amount": "The amount to withdraw.",
          "token": "The IERC20 token to withdraw."
        }
      },
      "withdrawTokenByAdmin(address,address,uint256)": {
        "details": "Withdraw ERC20 token from an account to Instrument Manager. The transfer action is done inside this function.",
        "params": {
          "account": "The account to withdraw ERC20 token.",
          "amount": "The amount of ERC20 tokens to withdraw.",
          "token": "The ERC20 token to withdraw."
        }
      }
    },
    "title": "Instrument Escrow that keeps assets that are not yet locked by issuances."
  },
  "userdoc": {
    "methods": {}
  }
}