{
  "contractName": "InstrumentV1Manager",
  "abi": [
    {
      "constant": false,
      "inputs": [
        {
          "name": "issuanceId",
          "type": "uint256"
        },
        {
          "name": "takerParameters",
          "type": "bytes"
        }
      ],
      "name": "engageIssuance",
      "outputs": [],
      "payable": false,
      "stateMutability": "nonpayable",
      "type": "function"
    },
    {
      "constant": false,
      "inputs": [
        {
          "name": "issuanceId",
          "type": "uint256"
        },
        {
          "name": "amount",
          "type": "uint256"
        }
      ],
      "name": "depositToIssuance",
      "outputs": [],
      "payable": false,
      "stateMutability": "nonpayable",
      "type": "function"
    },
    {
      "constant": false,
      "inputs": [
        {
          "name": "makerAddress",
          "type": "address"
        },
        {
          "name": "allowed",
          "type": "bool"
        }
      ],
      "name": "setMakerWhitelist",
      "outputs": [],
      "payable": false,
      "stateMutability": "nonpayable",
      "type": "function"
    },
    {
      "constant": false,
      "inputs": [
        {
          "name": "issuanceId",
          "type": "uint256"
        },
        {
          "name": "tokenAddress",
          "type": "address"
        },
        {
          "name": "amount",
          "type": "uint256"
        }
      ],
      "name": "depositTokenToIssuance",
      "outputs": [],
      "payable": false,
      "stateMutability": "nonpayable",
      "type": "function"
    },
    {
      "constant": false,
      "inputs": [],
      "name": "deactivate",
      "outputs": [],
      "payable": false,
      "stateMutability": "nonpayable",
      "type": "function"
    },
    {
      "constant": false,
      "inputs": [
        {
          "name": "takerAddress",
          "type": "address"
        },
        {
          "name": "allowed",
          "type": "bool"
        }
      ],
      "name": "setTakerWhitelist",
      "outputs": [],
      "payable": false,
      "stateMutability": "nonpayable",
      "type": "function"
    },
    {
      "constant": true,
      "inputs": [],
      "name": "getInstrumentEscrowAddress",
      "outputs": [
        {
          "name": "",
          "type": "address"
        }
      ],
      "payable": false,
      "stateMutability": "view",
      "type": "function"
    },
    {
      "constant": false,
      "inputs": [
        {
          "name": "issuanceId",
          "type": "uint256"
        },
        {
          "name": "tokenAddress",
          "type": "address"
        },
        {
          "name": "amount",
          "type": "uint256"
        }
      ],
      "name": "withdrawTokenFromIssuance",
      "outputs": [],
      "payable": false,
      "stateMutability": "nonpayable",
      "type": "function"
    },
    {
      "constant": false,
      "inputs": [
        {
          "name": "issuanceId",
          "type": "uint256"
        },
        {
          "name": "amount",
          "type": "uint256"
        }
      ],
      "name": "withdrawFromIssuance",
      "outputs": [],
      "payable": false,
      "stateMutability": "nonpayable",
      "type": "function"
    },
    {
      "constant": false,
      "inputs": [
        {
          "name": "issuanceId",
          "type": "uint256"
        },
        {
          "name": "eventName",
          "type": "bytes32"
        },
        {
          "name": "eventPayload",
          "type": "bytes"
        }
      ],
      "name": "notifyCustomEvent",
      "outputs": [],
      "payable": false,
      "stateMutability": "nonpayable",
      "type": "function"
    },
    {
      "constant": false,
      "inputs": [
        {
          "name": "makerParameters",
          "type": "bytes"
        }
      ],
      "name": "createIssuance",
      "outputs": [
        {
          "name": "",
          "type": "uint256"
        }
      ],
      "payable": false,
      "stateMutability": "nonpayable",
      "type": "function"
    },
    {
      "inputs": [
        {
          "name": "fspAddress",
          "type": "address"
        },
        {
          "name": "instrumentAddress",
          "type": "address"
        },
        {
          "name": "instrumentConfigAddress",
          "type": "address"
        },
        {
          "name": "instrumentParameters",
          "type": "bytes"
        }
      ],
      "payable": false,
      "stateMutability": "nonpayable",
      "type": "constructor"
    },
    {
      "anonymous": false,
      "inputs": [
        {
          "indexed": true,
          "name": "instrumentAddress",
          "type": "address"
        },
        {
          "indexed": true,
          "name": "instrumentEscrowAddress",
          "type": "address"
        }
      ],
      "name": "InstrumentManagerInitialized",
      "type": "event"
    }
  ],
  "bytecode": "0x60806040523480156200001157600080fd5b5060405162005d1738038062005d17833981018060405260808110156200003757600080fd5b81516020830151604084015160608501805193959294919391830192916401000000008111156200006757600080fd5b820160208101848111156200007b57600080fd5b81516401000000008111828201871017156200009657600080fd5b5050600954909350869250859150849084906001600160a01b03161562000109576040517f08c379a000000000000000000000000000000000000000000000000000000000815260040180806020018281038252602b81526020018062005cb1602b913960400191505060405180910390fd5b6001600160a01b0384166200016a576040517f08c379a000000000000000000000000000000000000000000000000000000000815260040180806020018281038252603481526020018062005c7d6034913960400191505060405180910390fd5b6001600160a01b038316620001cb576040517f08c379a000000000000000000000000000000000000000000000000000000000815260040180806020018281038252603b81526020018062005cdc603b913960400191505060405180910390fd5b6001600160a01b0382166200022c576040517f08c379a000000000000000000000000000000000000000000000000000000000815260040180806020018281038252604281526020018062005bfd6042913960600191505060405180910390fd5b600081511162000288576040517f08c379a000000000000000000000000000000000000000000000000000000000815260040180806020018281038252603e81526020018062005c3f603e913960400191505060405180910390fd5b6200029262001003565b620002a8826200056460201b6200451f1760201c565b60008054600160ff1991821681179092558251909155426002556040820151600380548316911515919091179055606082015160058054909216901515179055600c80546001600160a01b03199081166001600160a01b038781169190911790925560078054909116888316179055602082015191925016156200033157806020015162000333565b845b600880546001600160a01b03199081166001600160a01b0393841617909155600980549091168683161790556001600a55600c54604080517f1e081f0900000000000000000000000000000000000000000000000000000000815290519190921691631e081f09916004808301926020929190829003018186803b158015620003bb57600080fd5b505afa158015620003d0573d6000803e3d6000fd5b505050506040513d6020811015620003e757600080fd5b5051600b55600c54604080517fd9e86f1d00000000000000000000000000000000000000000000000000000000815290516001600160a01b039092169163d9e86f1d91600480820192602092909190829003018186803b1580156200044b57600080fd5b505afa15801562000460573d6000803e3d6000fd5b505050506040513d60208110156200047757600080fd5b5051604080517f99733c7500000000000000000000000000000000000000000000000000000000815290516001600160a01b03909216916399733c75916004808201926020929091908290030181600087803b158015620004d757600080fd5b505af1158015620004ec573d6000803e3d6000fd5b505050506040513d60208110156200050357600080fd5b5051600d80546001600160a01b0319166001600160a01b0392831617908190556009546040519183169216907f17082f533b4743d96d2bbde7b50cc0716cc7fd5f2c919bcf706233962d28e2d890600090a350505050505050505062001048565b6200056e62001003565b6200057862001003565b6200058d60208485516200059560201b60201c565b509392505050565b6200059f62001003565b6000620005ab62001003565b620005b56200102a565b6000808089805b8982018110156200074857620005de818c6200075a60201b620039a61760201c565b91965094509250820160018514156200060c5762000605818c89896200079e60201b60201c565b0162000742565b84600214156200062a5762000605818c89896200081560201b60201c565b8460031415620006485762000605818c89896200087c60201b60201c565b8460041415620006665762000605818c8989620008dc60201b60201c565b60018460058111156200067557fe5b14156200069d57600062000695828d6200093c60201b62003a751760201c565b929092019150505b6005846005811115620006ac57fe5b1415620006d4576000620006cc828d6200096560201b62003a961760201c565b929092019150505b6000846005811115620006e357fe5b14156200070b57600062000703828d6200097f60201b62003aa81760201c565b929092019150505b60028460058111156200071a57fe5b1415620007425760006200073a828d62000a3660201b62003b3a1760201c565b929092019150505b620005bc565b50949a97995096975050505050505050565b60008060008060006200077487876200097f60201b60201c565b9150915060008260071660058111156200078a57fe5b600890930498929750909550909350505050565b6000806000620007ba878762000b2b60201b620040a91760201c565b91509150620007cf8562000b4560201b60201c565b15620007eb57600184815b60200201805190910190526200080b565b8185526020840151156200080b57600184815b6020020180519190910390525b9695505050505050565b600080600062000831878762000b4960201b620040851760201c565b91509150620008468562000b4560201b60201c565b1562000857576001846002620007da565b6001600160a01b03821660208601526040840151156200080b576001846002620007fe565b600080600062000898878762000b7560201b6200404e1760201c565b91509150620008ad8562000b4560201b60201c565b15620008be576001846003620007da565b81151560408601526060840151156200080b576001846003620007fe565b6000806000620008f8878762000b7560201b6200404e1760201c565b915091506200090d8562000b4560201b60201c565b156200091e576001846004620007da565b81151560608601526080840151156200080b576001846004620007fe565b600080600080620009568686600862000bb660201b60201c565b909450925050505b9250929050565b600080600080620009568686600462000bb660201b60201c565b80519181019160009081908190819060200160805b608081166080141562000a2957868803821162000a03577f08c379a0000000000000000000000000000000000000000000000000000000006000526020600452600f6024527f6c656e677468206f766572666c6f77000000000000000000000000000000000060445260536000fd5b875160001a905080607f16836007021b8417935060018301925060018801975062000994565b5091969095509350505050565b6060600080600062000a4f86866200097f60201b60201c565b915091506060826040519080825280601f01601f19166020018201604052801562000a81576020820181803883390190505b508651978701830197909150602090810190820160005b8581101562000b1b57888a03831162000b03577f08c379a0000000000000000000000000000000000000000000000000000000006000526020600452600f6024527f6c656e677468206f766572666c6f77000000000000000000000000000000000060445260536000fd5b895160001a82536001998a0199918201910162000a98565b5091955050500190509250929050565b600080600080620009566020878762000c6160201b60201c565b1590565b60008060008062000b636014878762000c8860201b60201c565b60609190911c97909650945050505050565b60008060008062000b8d86866200097f60201b60201c565b91509150816000141562000ba9576000935091506200095e9050565b6001969095509350505050565b81519282019260009081908190602001815b8581101562000c5357868803821162000c33577f08c379a0000000000000000000000000000000000000000000000000000000006000526020600452600f6024527f6c656e677468206f766572666c6f77000000000000000000000000000000000060445260536000fd5b875160001a816008021b8317925060018801975060018101905062000bc8565b509096939550929350505050565b60008060008062000c7a87878762000e5f60201b60201c565b909890975095505050505050565b60008060008062000ca086866200097f60201b60201c565b90925090506020600860ff60038a0116848401111562000d91576040518060400160405280600f81526020017f6c656e677468206f766572666c6f7700000000000000000000000000000000008152506040517f08c379a00000000000000000000000000000000000000000000000000000000081526004018080602001828103825283818151815260200191508051906020019080838360005b8381101562000d5557818101518382015260200162000d3b565b50505050905090810190601f16801562000d835780820380516001836020036101000a031916815260200191505b509250505060405180910390fd5b6003880197506000602088510189106040518060400160405280600f81526020017f6c656e677468206f766572666c6f7700000000000000000000000000000000008152509062000e3f576040517f08c379a000000000000000000000000000000000000000000000000000000000815260206004820181815283516024840152835190928392604490910191908501908083836000831562000d5557818101518382015260200162000d3b565b505087870151918490036002010290811c901b9350019050935093915050565b600080600080600062000e7987876200097f60201b60201c565b915091508760030160ff16818301111562000f2257604080518082018252600f81527f6c656e677468206f766572666c6f770000000000000000000000000000000000602080830191825292517f08c379a0000000000000000000000000000000000000000000000000000000008152600481019384528251602482015282519293928392604490920191908083836000831562000d5557818101518382015260200162000d3b565b600387019650602086510187106040518060400160405280600f81526020017f6c656e677468206f766572666c6f7700000000000000000000000000000000008152509062000fce576040517f08c379a000000000000000000000000000000000000000000000000000000000815260206004820181815283516024840152835190928392604490910191908501908083836000831562000d5557818101518382015260200162000d3b565b5086860151925060011982015b602081101562000ff5576101008404935060010162000fdb565b509197910195509350505050565b60408051608081018252600080825260208201819052918101829052606081019190915290565b6040518060a001604052806005906020820280388339509192915050565b614ba580620010586000396000f3fe608060405234801561001057600080fd5b50600436106100c95760003560e01c806379dcec8c11610081578063d9d6f9581161005b578063d9d6f9581461028c578063dc06b3a2146102af578063f1c0d81a14610361576100c9565b806379dcec8c146102085780638792b833146102365780638f7afe3e1461025a576100c9565b80632ea24112116100b25780632ea24112146101a05780634154cf64146101ce57806351b42b0014610200576100c9565b8063011e8f96146100ce578063059c27751461017d575b600080fd5b61017b600480360360408110156100e457600080fd5b8135919081019060408101602082013564010000000081111561010657600080fd5b82018360208201111561011857600080fd5b8035906020019184600183028401116401000000008311171561013a57600080fd5b91908080601f016020809104026020016040519081016040528093929190818152602001838380828437600092019190915250929550610419945050505050565b005b61017b6004803603604081101561019357600080fd5b508035906020013561056c565b61017b600480360360408110156101b657600080fd5b506001600160a01b03813516906020013515156107cd565b61017b600480360360608110156101e457600080fd5b508035906001600160a01b036020820135169060400135610888565b61017b610b79565b61017b6004803603604081101561021e57600080fd5b506001600160a01b0381351690602001351515610e27565b61023e610ee2565b604080516001600160a01b039092168252519081900360200190f35b61017b6004803603606081101561027057600080fd5b508035906001600160a01b036020820135169060400135610ef2565b61017b600480360360408110156102a257600080fd5b50803590602001356111c9565b61017b600480360360608110156102c557600080fd5b8135916020810135918101906060810160408201356401000000008111156102ec57600080fd5b8201836020820111156102fe57600080fd5b8035906020019184600183028401116401000000008311171561032057600080fd5b91908080601f01602080910402602001604051908101604052809392919081815260200183838082843760009201919091525092955061142a945050505050565b6104076004803603602081101561037757600080fd5b81019060208101813564010000000081111561039257600080fd5b8201836020820111156103a457600080fd5b803590602001918460018302840111640100000000831117156103c657600080fd5b91908080601f0160208091040260200160405190810160405280939291908181526020018383808284376000920191909152509295506114f5945050505050565b60408051918252519081900360200190f35b61042233611d93565b61046057604051600160e51b62461bcd02815260040180806020018281038252602d815260200180614821602d913960400191505060405180910390fd5b6000828152600e6020526040902060016005820154600160a01b900460ff16600681111561048a57fe5b146104c957604051600160e51b62461bcd02815260040180806020018281038252602f815260200180614b4b602f913960400191505060405180910390fd5b80546001600160a01b031661051257604051600160e51b62461bcd02815260040180806020018281038252602a81526020018061484e602a913960400191505060405180910390fd5b60028101805473ffffffffffffffffffffffffffffffffffffffff191633179055426003820155606061054484611dc6565b905060006060610555868487611f1d565b915091506105648683836121df565b505050505050565b6000828152600e6020526040902080546001600160a01b03166105c357604051600160e51b62461bcd02815260040180806020018281038252602a81526020018061484e602a913960400191505060405180910390fd5b60058101546105db90600160a01b900460ff16612403565b1561061a57604051600160e51b62461bcd02815260040180806020018281038252602b8152602001806147c5602b913960400191505060405180910390fd5b6000821161065c57604051600160e51b62461bcd02815260040180806020018281038252602a815260200180614b21602a913960400191505060405180910390fd5b610666833361245b565b6106a457604051600160e51b62461bcd02815260040180806020018281038252602e8152602001806149c0602e913960400191505060405180910390fd5b600d54604080517f487c35800000000000000000000000000000000000000000000000000000000081523360048201526024810185905290516001600160a01b039092169163487c35809160448082019260009290919082900301818387803b15801561071057600080fd5b505af1158015610724573d6000803e3d6000fd5b505050506005810154604080517f70d97c3400000000000000000000000000000000000000000000000000000000815233600482015290516001600160a01b03909216916370d97c34918591602480830192600092919082900301818588803b15801561079057600080fd5b505af11580156107a4573d6000803e3d6000fd5b505050505060606107b484611dc6565b90506000606061055586846107c76124b2565b886124b8565b60035460ff1661081157604051600160e51b62461bcd028152600401808060200182810382526036815260200180614a1f6036913960400191505060405180910390fd5b6007546001600160a01b0316331461085d57604051600160e51b62461bcd02815260040180806020018281038252603b815260200180614878603b913960400191505060405180910390fd5b6001600160a01b03919091166000908152600460205260409020805460ff1916911515919091179055565b6000838152600e6020526040902080546001600160a01b03166108df57604051600160e51b62461bcd02815260040180806020018281038252602a81526020018061484e602a913960400191505060405180910390fd5b60058101546108f790600160a01b900460ff16612403565b1561093657604051600160e51b62461bcd02815260040180806020018281038252602b8152602001806147c5602b913960400191505060405180910390fd5b6001600160a01b03831661097e57604051600160e51b62461bcd0281526004018080602001828103825260318152602001806149ee6031913960400191505060405180910390fd5b600082116109c057604051600160e51b62461bcd02815260040180806020018281038252602a815260200180614b21602a913960400191505060405180910390fd5b6109ca843361245b565b610a0857604051600160e51b62461bcd02815260040180806020018281038252602e8152602001806149c0602e913960400191505060405180910390fd5b600d54604080517f3d4aa9a90000000000000000000000000000000000000000000000000000000081523360048201526001600160a01b0386811660248301526044820186905291519190921691633d4aa9a991606480830192600092919082900301818387803b158015610a7c57600080fd5b505af1158015610a90573d6000803e3d6000fd5b5050506005820154610ab691506001600160a01b0385811691168463ffffffff61273616565b6005810154604080517f810c0af80000000000000000000000000000000000000000000000000000000081523360048201526001600160a01b038681166024830152604482018690529151919092169163810c0af891606480830192600092919082900301818387803b158015610b2c57600080fd5b505af1158015610b40573d6000803e3d6000fd5b505050506060610b4f85611dc6565b905060006060610b61878488886124b8565b91509150610b708783836121df565b50505050505050565b60005460ff16610bbd57604051600160e51b62461bcd02815260040180806020018281038252603d815260200180614788603d913960400191505060405180910390fd5b6007546001600160a01b03163314610c0957604051600160e51b62461bcd02815260040180806020018281038252603e815260200180614951603e913960400191505060405180910390fd5b600b5415610e1b57600c54604080517fe755926000000000000000000000000000000000000000000000000000000000815290516000926001600160a01b03169163e7559260916004808301926020929190829003018186803b158015610c6f57600080fd5b505afa158015610c83573d6000803e3d6000fd5b505050506040513d6020811015610c9957600080fd5b5051600c5460408051600160e01b6323dc9e3702815290519293506001600160a01b0380851693639e281a9893909116916323dc9e37916004808301926020929190829003018186803b158015610cef57600080fd5b505afa158015610d03573d6000803e3d6000fd5b505050506040513d6020811015610d1957600080fd5b5051600b546040805163ffffffff851660e01b81526001600160a01b039093166004840152602483019190915251604480830192600092919082900301818387803b158015610d6757600080fd5b505af1158015610d7b573d6000803e3d6000fd5b5050600754600b54600c5460408051600160e01b6323dc9e370281529051610e1996506001600160a01b0394851695509293909116916323dc9e3791600480820192602092909190829003018186803b158015610dd757600080fd5b505afa158015610deb573d6000803e3d6000fd5b505050506040513d6020811015610e0157600080fd5b50516001600160a01b0316919063ffffffff61289816565b505b6000805460ff19169055565b60055460ff16610e6b57604051600160e51b62461bcd028152600401808060200182810382526036815260200180614a556036913960400191505060405180910390fd5b6007546001600160a01b03163314610eb757604051600160e51b62461bcd02815260040180806020018281038252603b8152602001806148b3603b913960400191505060405180910390fd5b6001600160a01b03919091166000908152600660205260409020805460ff1916911515919091179055565b600d546001600160a01b03165b90565b6000838152600e6020526040902080546001600160a01b0316610f4957604051600160e51b62461bcd02815260040180806020018281038252602a81526020018061484e602a913960400191505060405180910390fd5b6005810154610f6190600160a01b900460ff16612403565b15610fa057604051600160e51b62461bcd02815260040180806020018281038252602b8152602001806147c5602b913960400191505060405180910390fd5b6001600160a01b038316610fe857604051600160e51b62461bcd0281526004018080602001828103825260318152602001806149ee6031913960400191505060405180910390fd5b6000821161102a57604051600160e51b62461bcd02815260040180806020018281038252602a815260200180614b21602a913960400191505060405180910390fd5b611034843361245b565b61107257604051600160e51b62461bcd0281526004018080602001828103825260318152602001806147f06031913960400191505060405180910390fd5b6005810154604080517f3d4aa9a90000000000000000000000000000000000000000000000000000000081523360048201526001600160a01b0386811660248301526044820186905291519190921691633d4aa9a991606480830192600092919082900301818387803b1580156110e857600080fd5b505af11580156110fc573d6000803e3d6000fd5b5050600d5461112092506001600160a01b038681169250168463ffffffff61273616565b600d54604080517f810c0af80000000000000000000000000000000000000000000000000000000081523360048201526001600160a01b038681166024830152604482018690529151919092169163810c0af891606480830192600092919082900301818387803b15801561119457600080fd5b505af11580156111a8573d6000803e3d6000fd5b5050505060606111b785611dc6565b905060006060610b6187848888612918565b6000828152600e6020526040902080546001600160a01b031661122057604051600160e51b62461bcd02815260040180806020018281038252602a81526020018061484e602a913960400191505060405180910390fd5b600581015461123890600160a01b900460ff16612403565b1561127757604051600160e51b62461bcd02815260040180806020018281038252602b8152602001806147c5602b913960400191505060405180910390fd5b600082116112b957604051600160e51b62461bcd02815260040180806020018281038252602a815260200180614b21602a913960400191505060405180910390fd5b6112c3833361245b565b61130157604051600160e51b62461bcd0281526004018080602001828103825260318152602001806147f06031913960400191505060405180910390fd5b6005810154604080517f487c35800000000000000000000000000000000000000000000000000000000081523360048201526024810185905290516001600160a01b039092169163487c35809160448082019260009290919082900301818387803b15801561136f57600080fd5b505af1158015611383573d6000803e3d6000fd5b5050600d54604080517f70d97c3400000000000000000000000000000000000000000000000000000000815233600482015290516001600160a01b0390921693506370d97c3492508591602480830192600092919082900301818588803b1580156113ed57600080fd5b505af1158015611401573d6000803e3d6000fd5b5050505050606061141184611dc6565b90506000606061055586846114246124b2565b88612918565b6000838152600e6020526040902080546001600160a01b031661148157604051600160e51b62461bcd02815260040180806020018281038252602a81526020018061484e602a913960400191505060405180910390fd5b600581015461149990600160a01b900460ff16612403565b156114d857604051600160e51b62461bcd02815260040180806020018281038252602b8152602001806147c5602b913960400191505060405180910390fd5b60606114e385611dc6565b905060006060610b61878488886129c3565b60006114ff612b80565b61153d57604051600160e51b62461bcd02815260040180806020018281038252603181526020018061498f6031913960400191505060405180910390fd5b61154633612ba7565b61158457604051600160e51b62461bcd02815260040180806020018281038252602d8152602001806148ee602d913960400191505060405180910390fd5b600c5460408051600160e01b635a36366702815290516000926001600160a01b031691635a363667916004808301926020929190829003018186803b1580156115cc57600080fd5b505afa1580156115e0573d6000803e3d6000fd5b505050506040513d60208110156115f657600080fd5b50511115611aa257600d54600c5460408051600160e01b6323dc9e3702815290516001600160a01b0393841693633d4aa9a99333939116916323dc9e3791600480820192602092909190829003018186803b15801561165457600080fd5b505afa158015611668573d6000803e3d6000fd5b505050506040513d602081101561167e57600080fd5b5051600c5460408051600160e01b635a36366702815290516001600160a01b0390921691635a36366791600480820192602092909190829003018186803b1580156116c857600080fd5b505afa1580156116dc573d6000803e3d6000fd5b505050506040513d60208110156116f257600080fd5b50516040805163ffffffff861660e01b81526001600160a01b03948516600482015292909316602483015260448201529051606480830192600092919082900301818387803b15801561174457600080fd5b505af1158015611758573d6000803e3d6000fd5b505050506118d7600c60009054906101000a90046001600160a01b03166001600160a01b031663e75592606040518163ffffffff1660e01b815260040160206040518083038186803b1580156117ad57600080fd5b505afa1580156117c1573d6000803e3d6000fd5b505050506040513d60208110156117d757600080fd5b5051600c5460408051600160e01b635a36366702815290516001600160a01b0390921691635a36366791600480820192602092909190829003018186803b15801561182157600080fd5b505afa158015611835573d6000803e3d6000fd5b505050506040513d602081101561184b57600080fd5b5051600c5460408051600160e01b6323dc9e3702815290516001600160a01b03909216916323dc9e3791600480820192602092909190829003018186803b15801561189557600080fd5b505afa1580156118a9573d6000803e3d6000fd5b505050506040513d60208110156118bf57600080fd5b50516001600160a01b0316919063ffffffff61273616565b600c60009054906101000a90046001600160a01b03166001600160a01b031663e75592606040518163ffffffff1660e01b815260040160206040518083038186803b15801561192557600080fd5b505afa158015611939573d6000803e3d6000fd5b505050506040513d602081101561194f57600080fd5b5051600c5460408051600160e01b6323dc9e3702815290516001600160a01b039384169363338b5dea9316916323dc9e37916004808301926020929190829003018186803b1580156119a057600080fd5b505afa1580156119b4573d6000803e3d6000fd5b505050506040513d60208110156119ca57600080fd5b5051600c5460408051600160e01b635a36366702815290516001600160a01b0390921691635a36366791600480820192602092909190829003018186803b158015611a1457600080fd5b505afa158015611a28573d6000803e3d6000fd5b505050506040513d6020811015611a3e57600080fd5b50516040805163ffffffff851660e01b81526001600160a01b039093166004840152602483019190915251604480830192600092919082900301818387803b158015611a8957600080fd5b505af1158015611a9d573d6000803e3d6000fd5b505050505b600a805460018101909155600c54604080517fd9e86f1d00000000000000000000000000000000000000000000000000000000815290516000926001600160a01b03169163d9e86f1d916004808301926020929190829003018186803b158015611b0b57600080fd5b505afa158015611b1f573d6000803e3d6000fd5b505050506040513d6020811015611b3557600080fd5b5051604080517f0ae60b6000000000000000000000000000000000000000000000000000000000815290516001600160a01b0390921691630ae60b60916004808201926020929091908290030181600087803b158015611b9457600080fd5b505af1158015611ba8573d6000803e3d6000fd5b505050506040513d6020811015611bbe57600080fd5b50516040805160e0810182523381524260208083019190915260008284018190526060830152600c548351600160e01b635a3636670281529351949550919360808501936001600160a01b0390931692635a363667926004808301939192829003018186803b158015611c3057600080fd5b505afa158015611c44573d6000803e3d6000fd5b505050506040513d6020811015611c5a57600080fd5b505181526001600160a01b0383166020820152604001600090526000838152600e60209081526040918290208351815473ffffffffffffffffffffffffffffffffffffffff199081166001600160a01b03928316178355928501516001830155928401516002820180548416918516919091179055606084015160038201556080840151600482015560a084015160058201805490931693169290921780825560c0840151919074ff00000000000000000000000000000000000000001916600160a01b836006811115611d2a57fe5b02179055509050506060611d3d83611dc6565b9050611d4a838287612bd6565b6000848152600e60205260409020600501805474ff00000000000000000000000000000000000000001916600160a01b836006811115611d8657fe5b0217905550505050919050565b60055460009060ff161580611dc057506001600160a01b03821660009081526006602052604090205460ff165b92915050565b6000818152600e60205260409020606090611ddf6143ae565b60408051610160810182528581526007546001600160a01b03908116602083015260085481169282019290925283548216606082015260018401546080820152600284015490911660a0820152600383015460c0820152600583015460e0820190600160a01b900460ff166006811115611e5557fe5b60ff16815260058401546001600160a01b0390811660208084019190915233604080850191909152600c5481517f2bc51c6d0000000000000000000000000000000000000000000000000000000081529151606090950194931692632bc51c6d92600480840193919291829003018186803b158015611ed357600080fd5b505afa158015611ee7573d6000803e3d6000fd5b505050506040513d6020811015611efd57600080fd5b50516001600160a01b031690529050611f1581612dc0565b949350505050565b60006060600960009054906101000a90046001600160a01b03166001600160a01b0316633c9723aa8585600f60008a81526020019081526020016000206040518463ffffffff1660e01b815260040180806020018060200180602001848103845287818151815260200191508051906020019080838360005b83811015611fae578181015183820152602001611f96565b50505050905090810190601f168015611fdb5780820380516001836020036101000a031916815260200191505b50848103835286518152865160209182019188019080838360005b8381101561200e578181015183820152602001611ff6565b50505050905090810190601f16801561203b5780820380516001836020036101000a031916815260200191505b508481038252855460026000196101006001841615020190911604808252602090910190869080156120ae5780601f10612083576101008083540402835291602001916120ae565b820191906000526020600020905b81548152906001019060200180831161209157829003601f168201915b50509650505050505050600060405180830381600087803b1580156120d257600080fd5b505af11580156120e6573d6000803e3d6000fd5b505050506040513d6000823e601f3d908101601f19168201604052606081101561210f57600080fd5b81516020830180519193928301929164010000000081111561213057600080fd5b8201602081018481111561214357600080fd5b815164010000000081118282018710171561215d57600080fd5b5050929190602001805164010000000081111561217957600080fd5b8201602081018481111561218c57600080fd5b81516401000000008111828201871017156121a657600080fd5b505060008b8152600f6020908152604090912086519298508895506121d09450925085019061440a565b50829450505050935093915050565b6000838152600e6020526040902060058101805484919074ff00000000000000000000000000000000000000001916600160a01b83600681111561221f57fe5b021790555061222d83612403565b801561223d575060008160040154115b156123f357600c60009054906101000a90046001600160a01b03166001600160a01b031663e75592606040518163ffffffff1660e01b815260040160206040518083038186803b15801561229057600080fd5b505afa1580156122a4573d6000803e3d6000fd5b505050506040513d60208110156122ba57600080fd5b5051600c5460408051600160e01b6323dc9e3702815290516001600160a01b0393841693639e281a989316916323dc9e37916004808301926020929190829003018186803b15801561230b57600080fd5b505afa15801561231f573d6000803e3d6000fd5b505050506040513d602081101561233557600080fd5b50516004808501546040805163ffffffff861660e01b81526001600160a01b0390941692840192909252602483015251604480830192600092919082900301818387803b15801561238557600080fd5b505af1158015612399573d6000803e3d6000fd5b50508254600480850154600c5460408051600160e01b6323dc9e3702815290516123f397506001600160a01b0395861696509294909116926323dc9e37928282019260209290829003018186803b158015610dd757600080fd5b6123fd8483612e10565b50505050565b6000600382600681111561241357fe5b148061242a5750600482600681111561242857fe5b145b806124405750600582600681111561243e57fe5b145b80611dc05750600682600681111561245457fe5b1492915050565b6000828152600e6020526040812080546001600160a01b0384811691161480612493575060028101546001600160a01b038481169116145b80611f1557506008546001600160a01b03848116911614949350505050565b60001990565b60006060600960009054906101000a90046001600160a01b03166001600160a01b0316638515cd9c868686600f60008c81526020019081526020016000206040518563ffffffff1660e01b81526004018080602001856001600160a01b03166001600160a01b0316815260200184815260200180602001838103835287818151815260200191508051906020019080838360005b8381101561256457818101518382015260200161254c565b50505050905090810190601f1680156125915780820380516001836020036101000a031916815260200191505b508381038252845460026000196101006001841615020190911604808252602090910190859080156126045780601f106125d957610100808354040283529160200191612604565b820191906000526020600020905b8154815290600101906020018083116125e757829003601f168201915b50509650505050505050600060405180830381600087803b15801561262857600080fd5b505af115801561263c573d6000803e3d6000fd5b505050506040513d6000823e601f3d908101601f19168201604052606081101561266557600080fd5b81516020830180519193928301929164010000000081111561268657600080fd5b8201602081018481111561269957600080fd5b81516401000000008111828201871017156126b357600080fd5b505092919060200180516401000000008111156126cf57600080fd5b820160208101848111156126e257600080fd5b81516401000000008111828201871017156126fc57600080fd5b505060008c8152600f6020908152604090912086519298508895506127269450925085019061440a565b5082945050505094509492505050565b8015806127d55750604080517fdd62ed3e0000000000000000000000000000000000000000000000000000000081523060048201526001600160a01b03848116602483015291519185169163dd62ed3e91604480820192602092909190829003018186803b1580156127a757600080fd5b505afa1580156127bb573d6000803e3d6000fd5b505050506040513d60208110156127d157600080fd5b5051155b61281357604051600160e51b62461bcd028152600401808060200182810382526036815260200180614aeb6036913960400191505060405180910390fd5b604080516001600160a01b038416602482015260448082018490528251808303909101815260649091019091526020810180517bffffffffffffffffffffffffffffffffffffffffffffffffffffffff167f095ea7b3000000000000000000000000000000000000000000000000000000001790526128939084906132f6565b505050565b604080516001600160a01b038416602482015260448082018490528251808303909101815260649091019091526020810180517bffffffffffffffffffffffffffffffffffffffffffffffffffffffff167fa9059cbb000000000000000000000000000000000000000000000000000000001790526128939084906132f6565b60006060600960009054906101000a90046001600160a01b03166001600160a01b031663df22662f868686600f60008c81526020019081526020016000206040518563ffffffff1660e01b81526004018080602001856001600160a01b03166001600160a01b0316815260200184815260200180602001838103835287818151815260200191508051906020019080838360008381101561256457818101518382015260200161254c565b60006060600960009054906101000a90046001600160a01b03166001600160a01b031663632530ab868686600f60008c81526020019081526020016000206040518563ffffffff1660e01b815260040180806020018581526020018060200180602001848103845288818151815260200191508051906020019080838360005b83811015612a5b578181015183820152602001612a43565b50505050905090810190601f168015612a885780820380516001836020036101000a031916815260200191505b50848103835286518152865160209182019188019080838360005b83811015612abb578181015183820152602001612aa3565b50505050905090810190601f168015612ae85780820380516001836020036101000a031916815260200191505b50848103825285546002600019610100600184161502019091160480825260209091019086908015612b5b5780601f10612b3057610100808354040283529160200191612b5b565b820191906000526020600020905b815481529060010190602001808311612b3e57829003601f168201915b5050975050505050505050600060405180830381600087803b15801561262857600080fd5b6000805460ff168015612ba257506001541580612ba257504260025460015401115b905090565b60035460009060ff161580611dc05750506001600160a01b031660009081526004602052604090205460ff1690565b600954604080517fcdfa837a000000000000000000000000000000000000000000000000000000008152600481019182528451604482015284516000936001600160a01b03169263cdfa837a928792879291829160248201916064019060208701908083838d5b83811015612c55578181015183820152602001612c3d565b50505050905090810190601f168015612c825780820380516001836020036101000a031916815260200191505b50838103825284518152845160209182019186019080838360005b83811015612cb5578181015183820152602001612c9d565b50505050905090810190601f168015612ce25780820380516001836020036101000a031916815260200191505b50945050505050600060405180830381600087803b158015612d0357600080fd5b505af1158015612d17573d6000803e3d6000fd5b505050506040513d6000823e601f3d908101601f191682016040908152811015612d4057600080fd5b815160208301805191939283019291640100000000811115612d6157600080fd5b82016020810184811115612d7457600080fd5b8151640100000000811182820187101715612d8e57600080fd5b50506000898152600f602090815260409091208251929550612db59450925084019061440a565b509095945050505050565b606080612dcc836134b7565b6040519080825280601f01601f191660200182016040528015612df6576020820181803883390190505b5090506000612e07846020846134be565b82525092915050565b612e18614488565b612e2182613640565b6000848152600e602052604081206005810154929350916001600160a01b0316905b83515181101561056457612e5561449b565b8451805183908110612e6357fe5b60200260200101519050612e7b87826020015161245b565b612eb957604051600160e51b62461bcd02815260040180806020018281038252603681526020018061491b6036913960400191505060405180910390fd5b612ec787826040015161245b565b612f0557604051600160e51b62461bcd028152600401808060200182810382526036815260200180614a8b6036913960400191505060405180910390fd5b8051156131a457612f146124b2565b6001600160a01b031681606001516001600160a01b0316141561303f57826001600160a01b031663487c3580826020015183608001516040518363ffffffff1660e01b815260040180836001600160a01b03166001600160a01b0316815260200182815260200192505050600060405180830381600087803b158015612f9957600080fd5b505af1158015612fad573d6000803e3d6000fd5b5050600d54608084015160408086015181517f70d97c340000000000000000000000000000000000000000000000000000000081526001600160a01b0391821660048201529151931694506370d97c3493509091602480830192600092919082900301818588803b15801561302157600080fd5b505af1158015613035573d6000803e3d6000fd5b505050505061319f565b602081015160608201516080830151604080517f3d4aa9a90000000000000000000000000000000000000000000000000000000081526001600160a01b039485166004820152928416602484015260448301919091525191851691633d4aa9a99160648082019260009290919082900301818387803b1580156130c157600080fd5b505af11580156130d5573d6000803e3d6000fd5b5050600d546080840151606085015161310594506001600160a01b0390811693509091169063ffffffff61273616565b600d546040808301516060840151608085015183517f810c0af80000000000000000000000000000000000000000000000000000000081526001600160a01b03938416600482015291831660248301526044820152915192169163810c0af89160648082019260009290919082900301818387803b15801561318657600080fd5b505af115801561319a573d6000803e3d6000fd5b505050505b6132ed565b6131ac6124b2565b6001600160a01b031681606001516001600160a01b03161415613248576020810151604080830151608084015182517fbeabacc80000000000000000000000000000000000000000000000000000000081526001600160a01b0394851660048201529184166024830152604482015290519185169163beabacc89160648082019260009290919082900301818387803b15801561318657600080fd5b60208101516040808301516060840151608085015183517f2c54de4f0000000000000000000000000000000000000000000000000000000081526001600160a01b039586166004820152928516602484015290841660448301526064820152905191851691632c54de4f9160848082019260009290919082900301818387803b1580156132d457600080fd5b505af11580156132e8573d6000803e3d6000fd5b505050505b50600101612e43565b613308826001600160a01b0316613665565b61335c5760408051600160e51b62461bcd02815260206004820152601f60248201527f5361666545524332303a2063616c6c20746f206e6f6e2d636f6e747261637400604482015290519081900360640190fd5b60006060836001600160a01b0316836040518082805190602001908083835b6020831061339a5780518252601f19909201916020918201910161337b565b6001836020036101000a0380198251168184511680821785525050505050509050019150506000604051808303816000865af19150503d80600081146133fc576040519150601f19603f3d011682016040523d82523d6000602084013e613401565b606091505b50915091508161345b5760408051600160e51b62461bcd02815260206004820181905260248201527f5361666545524332303a206c6f772d6c6576656c2063616c6c206661696c6564604482015290519081900360640190fd5b8051156123fd5780806020019051602081101561347757600080fd5b50516123fd57604051600160e51b62461bcd02815260040180806020018281038252602a815260200180614ac1602a913960400191505060405180910390fd5b5061011990565b600082806134d060016002838761369c565b86519101906134e09082866136bc565b016134ee600280838761369c565b81019050613501866020015182866136cb565b0161351060036002838761369c565b81019050613523866040015182866136cb565b0161353260046002838761369c565b81019050613545866060015182866136cb565b0161355460056002838761369c565b81019050613567866080015182866136bc565b0161357660066002838761369c565b810190506135898660a0015182866136cb565b0161359860076002838761369c565b810190506135ab8660c0015182866136bc565b016135ba60086002838761369c565b810190506135cd8660e0015182866136e3565b016135dc60096002838761369c565b810190506135f086610100015182866136cb565b016135ff600a6002838761369c565b8101905061361386610120015182866136cb565b01613622600b6002838761369c565b8101905061363686610140015182866136cb565b0103949350505050565b613648614488565b613650614488565b61365d60208485516136f5565b509392505050565b6000813f7fc5d2460186f7233c927e7db2dcc703c0e500b653ca82273b7bfad8045d85a4708115801590611f155750141592915050565b60006008850260078516176136b2818585613930565b9695505050505050565b6000611f158460208585613973565b6000611f15846001600160a01b031660148585613973565b6000611f158460ff1660018585613973565b6136fd614488565b6000613707614488565b61370f6144c9565b6000808089805b8982018110156137fa5761372a818c6139a6565b91965094509250820160018514156137555761374f818c6137496139e1565b896139ef565b016137f5565b600184600581111561376357fe5b141561377d576000613775828d613a75565b929092019150505b600584600581111561378b57fe5b14156137a557600061379d828d613a96565b929092019150505b60008460058111156137b357fe5b14156137cd5760006137c5828d613aa8565b929092019150505b60028460058111156137db57fe5b14156137f55760006137ed828d613b3a565b929092019150505b613716565b5080856001602002015160405190808252806020026020018201604052801561383d57816020015b61382a61449b565b8152602001906001900390816138225790505b5087525b89820181101561391e57613855818c6139a6565b919650945092508201600185141561387957613873818c89896139ef565b01613919565b600184600581111561388757fe5b14156138a1576000613899828d613a75565b929092019150505b60058460058111156138af57fe5b14156138c95760006138c1828d613a96565b929092019150505b60008460058111156138d757fe5b14156138f15760006138e9828d613aa8565b929092019150505b60028460058111156138ff57fe5b1415613919576000613911828d613b3a565b929092019150505b613841565b50949a97995096975050505050505050565b600080828401607f86165b600787901c15613963578060801782535060079590951c9460019182019101607f861661393b565b8082535050600101949350505050565b60038201916000908161398887868689613c01565b948501949050613999818386613c3f565b5050909203949350505050565b60008060008060006139b88787613aa8565b9150915060008260071660058111156139cd57fe5b600890930498929750909550909350505050565b6139e9614488565b50600090565b60006139f961449b565b6000613a058787613c80565b91509150613a1285613cc2565b15613a2c57600184815b60200201805190910190526136b2565b8451602085015181518492918103908110613a4357fe5b602090810291909101810191909152840151156136b257600184815b6020020180519190910390529695505050505050565b600080600080613a8786866008613cc6565b909450925050505b9250929050565b600080600080613a8786866004613cc6565b80519181019160009081908190819060200160805b6080811660801415613b2d578688038211613b0857600160e51b62461bcd026000526020600452600f602452600160881b6e6c656e677468206f766572666c6f770260445260536000fd5b875160001a905080607f16836007021b84179350600183019250600188019750613abd565b5091969095509350505050565b60606000806000613b4b8686613aa8565b915091506060826040519080825280601f01601f191660200182016040528015613b7c576020820181803883390190505b508651978701830197909150602090810190820160005b85811015613bf157888a038311613bda57600160e51b62461bcd026000526020600452600f602452600160881b6e6c656e677468206f766572666c6f770260445260536000fd5b895160001a82536001998a01999182019101613b93565b5091955050500190509250929050565b600080613c0e8684613d4c565b9050848401815b8015613c335787816020031a82536001919091019060001901613c15565b50909695505050505050565b600082613c50600286018285613930565b84019350613c6260016002868661369c565b84019350613c71858585613930565b90930192830390509392505050565b613c8861449b565b6000838180613c978387613aa8565b915091508083019250613ca861449b565b613cb3848885613d8a565b50955050019150509250929050565b1590565b81519282019260009081908190602001815b85811015613d3e578688038211613d1f57600160e51b62461bcd026000526020600452600f602452600160881b6e6c656e677468206f766572666c6f770260445260536000fd5b875160001a816008021b83179250600188019750600181019050613cd8565b509096939550929350505050565b600060ff825b600719600882020182901b8516158015613d6c5750600081115b15613d7a5760001901613d52565b80611f1557506001949350505050565b613d9261449b565b6000613d9c61449b565b613da46144e7565b6000808089805b89820181101561391e57613dbf818c6139a6565b9196509450925082016001851415613de357613ddd818c8989613edc565b01613ed7565b8460021415613df857613ddd818c8989613f1e565b8460031415613e0d57613ddd818c8989613f6c565b8460041415613e2257613ddd818c8989613fba565b8460051415613e3757613ddd818c8989614008565b6001846005811115613e4557fe5b1415613e5f576000613e57828d613a75565b929092019150505b6005846005811115613e6d57fe5b1415613e87576000613e7f828d613a96565b929092019150505b6000846005811115613e9557fe5b1415613eaf576000613ea7828d613aa8565b929092019150505b6002846005811115613ebd57fe5b1415613ed7576000613ecf828d613b3a565b929092019150505b613dab565b6000806000613eeb878761404e565b91509150613ef885613cc2565b15613f065760018481613a1c565b81151585526020840151156136b25760018481613a5f565b6000806000613f2d8787614085565b91509150613f3a85613cc2565b15613f49576001846002613a1c565b6001600160a01b03821660208601526040840151156136b2576001846002613a5f565b6000806000613f7b8787614085565b91509150613f8885613cc2565b15613f97576001846003613a1c565b6001600160a01b03821660408601526060840151156136b2576001846003613a5f565b6000806000613fc98787614085565b91509150613fd685613cc2565b15613fe5576001846004613a1c565b6001600160a01b03821660608601526080840151156136b2576001846004613a5f565b600080600061401787876140a9565b9150915061402485613cc2565b15614033576001846005613a1c565b6080850182905260a0840151156136b2576001846005613a5f565b60008060008061405e8686613aa8565b91509150816000141561407857600093509150613a8f9050565b6001969095509350505050565b600080600080614097601487876140bb565b60609190911c97909650945050505050565b600080600080613a876020878761423f565b6000806000806140cb8686613aa8565b90925090506020600860ff60038a01168484011115614196576040518060400160405280600f8152602001600160881b6e6c656e677468206f766572666c6f7702815250604051600160e51b62461bcd0281526004018080602001828103825283818151815260200191508051906020019080838360005b8381101561415b578181015183820152602001614143565b50505050905090810190601f1680156141885780820380516001836020036101000a031916815260200191505b509250505060405180910390fd5b6003880197506000602088510189106040518060400160405280600f8152602001600160881b6e6c656e677468206f766572666c6f77028152509061421f57604051600160e51b62461bcd02815260206004820181815283516024840152835190928392604490910191908501908083836000831561415b578181015183820152602001614143565b505087870151918490036002010290811c901b9350019050935093915050565b60008060008061425087878761425e565b909890975095505050505050565b60008060008060006142708787613aa8565b915091508760030160ff1681830111156142f457604080518082018252600f8152600160881b6e6c656e677468206f766572666c6f770260208083019182529251600160e51b62461bcd028152600481019384528251602482015282519293928392604490920191908083836000831561415b578181015183820152602001614143565b600387019650602086510187106040518060400160405280600f8152602001600160881b6e6c656e677468206f766572666c6f77028152509061437b57604051600160e51b62461bcd02815260206004820181815283516024840152835190928392604490910191908501908083836000831561415b578181015183820152602001614143565b5086860151925060011982015b60208110156143a05761010084049350600101614388565b509197910195509350505050565b6040805161016081018252600080825260208201819052918101829052606081018290526080810182905260a0810182905260c0810182905260e081018290526101008101829052610120810182905261014081019190915290565b828054600181600116156101000203166002900490600052602060002090601f016020900481019282601f1061444b57805160ff1916838001178555614478565b82800160010185558215614478579182015b8281111561447857825182559160200191906001019061445d565b50614484929150614505565b5090565b6040518060200160405280606081525090565b6040805160a08101825260008082526020820181905291810182905260608101829052608081019190915290565b60405180604001604052806002906020820280388339509192915050565b6040518060c001604052806006906020820280388339509192915050565b610eef91905b80821115614484576000815560010161450b565b614527614742565b61452f614742565b61365d602084855161453f614742565b6000614549614742565b614551614769565b6000808089805b89820181101561391e5761456c818c6139a6565b91965094509250820160018514156145905761458a818c8989614674565b0161466f565b84600214156145a55761458a818c8989613f1e565b84600314156145ba5761458a818c89896146b4565b84600414156145cf5761458a818c89896146fb565b60018460058111156145dd57fe5b14156145f75760006145ef828d613a75565b929092019150505b600584600581111561460557fe5b141561461f576000614617828d613a96565b929092019150505b600084600581111561462d57fe5b141561464757600061463f828d613aa8565b929092019150505b600284600581111561465557fe5b141561466f576000614667828d613b3a565b929092019150505b614558565b600080600061468387876140a9565b9150915061469085613cc2565b1561469e5760018481613a1c565b8185526020840151156136b25760018481613a5f565b60008060006146c3878761404e565b915091506146d085613cc2565b156146df576001846003613a1c565b81151560408601526060840151156136b2576001846003613a5f565b600080600061470a878761404e565b9150915061471785613cc2565b15614726576001846004613a1c565b81151560608601526080840151156136b2576001846004613a5f565b60408051608081018252600080825260208201819052918101829052606081019190915290565b6040518060a00160405280600590602082028038833950919291505056fe496e737472756d656e744d616e61676572426173653a2054686520696e737472756d656e7420697320616c72656164792064656163746976617465642e496e737472756d656e744d616e61676572426173653a2049737375616e6365207465726d696e617465642e496e737472756d656e744d616e61676572426173653a205769746864726177616c206973206e6f7420616c6c6f7765642e496e737472756d656e744d616e61676572426173653a204e6f7420616e20656c696769626c652074616b65722e496e737472756d656e744d616e61676572426173653a2049737375616e6365206e6f742065786973742e496e737472756d656e744d616e61676572426173653a204f6e6c79204653502063616e20757064617465206d616b65722077686974656c6973742e496e737472756d656e744d616e61676572426173653a204f6e6c79204653502063616e207570646174652074616b65722077686974656c6973742e496e737472756d656e744d616e61676572426173653a204e6f7420616e20656c696769626c65206d616b65722e496e737472756d656e744d616e61676572426173653a205472616e7366657220736f75726365206973206e6f7420616c6c6f7765642e496e737472756d656e744d616e61676572426173653a204f6e6c79204653502063616e20646561637469766174652074686520696e737472756d656e742e496e737472756d656e744d616e61676572426173653a20496e737472756d656e742069732064656163746976617465642e496e737472756d656e744d616e61676572426173653a204465706f736974206973206e6f7420616c6c6f7765642e496e737472756d656e744d616e61676572426173653a20546f6b656e2061646472657373206d757374206265207365742e496e737472756d656e744d616e61676572426173653a204d616b65722077686974656c697374206973206e6f7420656e61626c65642e496e737472756d656e744d616e61676572426173653a2054616b65722077686974656c697374206973206e6f7420656e61626c65642e496e737472756d656e744d616e61676572426173653a205472616e7366657220746172676574206973206e6f7420616c6c6f7765642e5361666545524332303a204552433230206f7065726174696f6e20646964206e6f7420737563636565645361666545524332303a20617070726f76652066726f6d206e6f6e2d7a65726f20746f206e6f6e2d7a65726f20616c6c6f77616e6365496e737472756d656e744d616e61676572426173653a20416d6f756e74206d757374206265207365742e496e737472756d656e744d616e61676572426173653a2049737375616e6365206e6f7420656e6761676561626c652ea165627a7a72305820df3fda9fe936bdd140a2a9cf110c594803c27e6626df1609e9edd09bb0ac92ab0029496e737472756d656e744d616e61676572426173653a20496e737472756d656e7420436f6e6669672061646472657373206d7573742062652070726f76696465642e496e737472756d656e744d616e61676572426173653a20496e737472756d656e7420706172616d6574657273206d7573742062652070726f76696465642e496e737472756d656e744d616e61676572426173653a204653502061646472657373206d7573742062652070726f76696465642e496e737472756d656e744d616e61676572426173653a20416c726561647920696e697469616c697a65642e496e737472756d656e744d616e61676572426173653a20496e737472756d656e742061646472657373206d7573742062652070726f76696465642e",
  "source": "pragma solidity ^0.5.0;\n\nimport \"../InstrumentManagerBase.sol\";\nimport \"../InstrumentBase.sol\";\nimport \"./InstrumentV1.sol\";\n\n/**\n * @title Instrument Manager for Instrument v1.\n * All issuance data are passed in and returned as a string.\n */\ncontract InstrumentV1Manager is InstrumentManagerBase {\n    // Mapping: Issuance Id => Issuance data\n    mapping(uint256 => bytes) private _issuanceData;\n\n    /**\n     * @param fspAddress Address of FSP that activates this financial instrument.\n     * @param instrumentAddress Address of the financial instrument contract.\n     * @param instrumentConfigAddress Address of the Instrument Config contract.\n     * @param instrumentParameters Custom parameters for the Instrument Manager.\n     */\n    constructor(address fspAddress, address instrumentAddress, address instrumentConfigAddress, bytes memory instrumentParameters)\n        InstrumentManagerBase(fspAddress, instrumentAddress, instrumentConfigAddress, instrumentParameters) public {}\n\n    /**\n     * @dev Instrument type-specific issuance creation processing.\n     * @param issuanceId ID of the issuance.\n     * @param issuanceParametersData Issuance Parameters.\n     * @param makerParametersData The custom parameters to the newly created issuance\n     */\n    function _processCreateIssuance(uint256 issuanceId, bytes memory issuanceParametersData, bytes memory makerParametersData) internal\n        returns (InstrumentBase.IssuanceStates updatedState) {\n\n        (updatedState, _issuanceData[issuanceId]) = InstrumentV1(_instrumentAddress)\n            .createIssuance(issuanceParametersData, makerParametersData);\n    }\n\n    /**\n     * @dev Instrument type-specific issuance engage processing.\n     * @param issuanceId ID of the issuance.\n     * @param takerParameters The custom parameters to the new engagement\n     * @param issuanceParametersData Issuance Parameters.\n     */\n    function _processEngageIssuance(uint256 issuanceId, bytes memory issuanceParametersData, bytes memory takerParameters)\n        internal returns (InstrumentBase.IssuanceStates updatedState, bytes memory transfersData) {\n\n        (updatedState, _issuanceData[issuanceId], transfersData) = InstrumentV1(_instrumentAddress)\n            .engageIssuance(issuanceParametersData, takerParameters, _issuanceData[issuanceId]);\n    }\n\n    /**\n     * @dev Instrument type-specific issuance ERC20 token deposit processing.\n     * Note: This method is called after deposit is complete, so that the Escrow reflects the balance after deposit.\n     * @param issuanceId ID of the issuance.\n     * @param issuanceParametersData Issuance Parameters.\n     * @param tokenAddress The address of the ERC20 token to deposit.\n     * @param amount The amount of ERC20 token to deposit.\n     */\n    function _processTokenDeposit(uint256 issuanceId, bytes memory issuanceParametersData, address tokenAddress, uint256 amount)\n        internal returns (InstrumentBase.IssuanceStates updatedState, bytes memory transfersData) {\n\n        (updatedState, _issuanceData[issuanceId], transfersData) = InstrumentV1(_instrumentAddress).processTokenDeposit(\n            issuanceParametersData, tokenAddress, amount, _issuanceData[issuanceId]);\n    }\n\n    /**\n     * @dev Instrument type-specific issuance ERC20 withdraw processing.\n     * Note: This method is called after withdraw is complete, so that the Escrow reflects the balance after withdraw.\n     * @param issuanceId ID of the issuance.\n     * @param issuanceParametersData Issuance Parameters.\n     * @param tokenAddress The address of the ERC20 token to withdraw.\n     * @param amount The amount of ERC20 token to withdraw.\n     */\n    function _processTokenWithdraw(uint256 issuanceId, bytes memory issuanceParametersData, address tokenAddress, uint256 amount)\n        internal returns (InstrumentBase.IssuanceStates updatedState, bytes memory transfersData) {\n\n        (updatedState, _issuanceData[issuanceId], transfersData) = InstrumentV1(_instrumentAddress).processTokenWithdraw(\n            issuanceParametersData, tokenAddress, amount, _issuanceData[issuanceId]);\n    }\n\n    /**\n     * @dev Instrument type-specific custom event processing.\n     * @param issuanceId ID of the issuance.\n     * @param issuanceParametersData Issuance Parameters.\n     * @param eventName The name of the custom event.\n     * @param eventPayload The custom parameters to the custom event\n     */\n    function _processCustomEvent(uint256 issuanceId, bytes memory issuanceParametersData, bytes32 eventName, bytes memory eventPayload)\n        internal returns (InstrumentBase.IssuanceStates updatedState, bytes memory transfersData) {\n\n        (updatedState, _issuanceData[issuanceId], transfersData) = InstrumentV1(_instrumentAddress).processCustomEvent(\n            issuanceParametersData, eventName, eventPayload, _issuanceData[issuanceId]);\n    }\n\n}",
  "sourcePath": "/Users/shengdading/git/nuts-platform-v2/contracts/instrument/v1/InstrumentV1Manager.sol",
  "compiler": {
    "name": "solc",
    "version": "0.5.8+commit.23d335f2.Emscripten.clang"
  },
  "schemaVersion": "3.0.16",
  "updatedAt": "2019-10-16T02:07:15.634Z",
  "devdoc": {
    "methods": {
      "constructor": {
        "params": {
          "fspAddress": "Address of FSP that activates this financial instrument.",
          "instrumentAddress": "Address of the financial instrument contract.",
          "instrumentConfigAddress": "Address of the Instrument Config contract.",
          "instrumentParameters": "Custom parameters for the Instrument Manager."
        }
      },
      "createIssuance(bytes)": {
        "details": "Create a new issuance of the financial instrument",
        "params": {
          "makerParameters": "The custom parameters to the newly created issuance"
        },
        "return": "The id of the newly created issuance."
      },
      "deactivate()": {
        "details": "Deactivates the instrument."
      },
      "depositToIssuance(uint256,uint256)": {
        "details": "The caller deposits ETH, which is currently deposited in Instrument Escrow, into issuance.",
        "params": {
          "amount": "The amount of ERC20 token transfered",
          "issuanceId": "The id of the issuance"
        }
      },
      "depositTokenToIssuance(uint256,address,uint256)": {
        "details": "The caller deposits ERC20 token, which is currently deposited in Instrument Escrow, into issuance.",
        "params": {
          "amount": "The amount of ERC20 token deposited.",
          "issuanceId": "The id of the issuance",
          "tokenAddress": "The address of the ERC20 token to deposit."
        }
      },
      "engageIssuance(uint256,bytes)": {
        "details": "A taker engages to the issuance",
        "params": {
          "issuanceId": "The id of the issuance",
          "takerParameters": "The custom parameters to the new engagement"
        }
      },
      "getInstrumentEscrowAddress()": {
        "details": "Get the Instrument Escrow."
      },
      "notifyCustomEvent(uint256,bytes32,bytes)": {
        "details": "Notify custom events to issuance. This could be invoked by any caller.",
        "params": {
          "eventName": "Name of the custom event",
          "eventPayload": "Payload of the custom event",
          "issuanceId": "The id of the issuance"
        }
      },
      "setMakerWhitelist(address,bool)": {
        "details": "Updates the maker whitelist. The maker whitelist only affects new issuances.",
        "params": {
          "allowed": "Whether this maker is allowed to create new issuance.",
          "makerAddress": "The maker address to update in whitelist"
        }
      },
      "setTakerWhitelist(address,bool)": {
        "details": "Updates the taker whitelist. The taker whitelist only affects new engagement.",
        "params": {
          "allowed": "Whether this taker is allowed to engage issuance.",
          "takerAddress": "The taker address to update in whitelist"
        }
      },
      "withdrawFromIssuance(uint256,uint256)": {
        "details": "The caller withdraws ETH from issuance to Instrument Escrow.",
        "params": {
          "amount": "The amount of ERC20 token transfered",
          "issuanceId": "The id of the issuance"
        }
      },
      "withdrawTokenFromIssuance(uint256,address,uint256)": {
        "details": "The caller withdraws ERC20 token from issuance to Instrument Escrow.",
        "params": {
          "amount": "The amount of ERC20 token transfered",
          "issuanceId": "The id of the issuance",
          "tokenAddress": "The address of the ERC20 token"
        }
      }
    },
    "title": "Instrument Manager for Instrument v1. All issuance data are passed in and returned as a string."
  },
  "userdoc": {
    "methods": {}
  }
}