{
  "contractName": "InstrumentV2Manager",
  "abi": [
    {
      "constant": false,
      "inputs": [
        {
          "name": "issuanceId",
          "type": "uint256"
        },
        {
          "name": "takerParameters",
          "type": "bytes"
        }
      ],
      "name": "engageIssuance",
      "outputs": [],
      "payable": false,
      "stateMutability": "nonpayable",
      "type": "function"
    },
    {
      "constant": false,
      "inputs": [
        {
          "name": "issuanceId",
          "type": "uint256"
        },
        {
          "name": "amount",
          "type": "uint256"
        }
      ],
      "name": "depositToIssuance",
      "outputs": [],
      "payable": false,
      "stateMutability": "nonpayable",
      "type": "function"
    },
    {
      "constant": false,
      "inputs": [
        {
          "name": "makerAddress",
          "type": "address"
        },
        {
          "name": "allowed",
          "type": "bool"
        }
      ],
      "name": "setMakerWhitelist",
      "outputs": [],
      "payable": false,
      "stateMutability": "nonpayable",
      "type": "function"
    },
    {
      "constant": false,
      "inputs": [
        {
          "name": "issuanceId",
          "type": "uint256"
        },
        {
          "name": "tokenAddress",
          "type": "address"
        },
        {
          "name": "amount",
          "type": "uint256"
        }
      ],
      "name": "depositTokenToIssuance",
      "outputs": [],
      "payable": false,
      "stateMutability": "nonpayable",
      "type": "function"
    },
    {
      "constant": false,
      "inputs": [],
      "name": "deactivate",
      "outputs": [],
      "payable": false,
      "stateMutability": "nonpayable",
      "type": "function"
    },
    {
      "constant": false,
      "inputs": [],
      "name": "renounceTimerOracle",
      "outputs": [],
      "payable": false,
      "stateMutability": "nonpayable",
      "type": "function"
    },
    {
      "constant": false,
      "inputs": [
        {
          "name": "issuanceId",
          "type": "uint256"
        },
        {
          "name": "eventName",
          "type": "bytes32"
        },
        {
          "name": "eventPayload",
          "type": "bytes"
        }
      ],
      "name": "notifyScheduledEvent",
      "outputs": [],
      "payable": false,
      "stateMutability": "nonpayable",
      "type": "function"
    },
    {
      "constant": true,
      "inputs": [
        {
          "name": "account",
          "type": "address"
        }
      ],
      "name": "isTimerOracle",
      "outputs": [
        {
          "name": "",
          "type": "bool"
        }
      ],
      "payable": false,
      "stateMutability": "view",
      "type": "function"
    },
    {
      "constant": false,
      "inputs": [
        {
          "name": "takerAddress",
          "type": "address"
        },
        {
          "name": "allowed",
          "type": "bool"
        }
      ],
      "name": "setTakerWhitelist",
      "outputs": [],
      "payable": false,
      "stateMutability": "nonpayable",
      "type": "function"
    },
    {
      "constant": true,
      "inputs": [],
      "name": "getInstrumentEscrowAddress",
      "outputs": [
        {
          "name": "",
          "type": "address"
        }
      ],
      "payable": false,
      "stateMutability": "view",
      "type": "function"
    },
    {
      "constant": false,
      "inputs": [
        {
          "name": "issuanceId",
          "type": "uint256"
        },
        {
          "name": "tokenAddress",
          "type": "address"
        },
        {
          "name": "amount",
          "type": "uint256"
        }
      ],
      "name": "withdrawTokenFromIssuance",
      "outputs": [],
      "payable": false,
      "stateMutability": "nonpayable",
      "type": "function"
    },
    {
      "constant": false,
      "inputs": [
        {
          "name": "account",
          "type": "address"
        }
      ],
      "name": "addTimerOracle",
      "outputs": [],
      "payable": false,
      "stateMutability": "nonpayable",
      "type": "function"
    },
    {
      "constant": false,
      "inputs": [
        {
          "name": "issuanceId",
          "type": "uint256"
        },
        {
          "name": "amount",
          "type": "uint256"
        }
      ],
      "name": "withdrawFromIssuance",
      "outputs": [],
      "payable": false,
      "stateMutability": "nonpayable",
      "type": "function"
    },
    {
      "constant": false,
      "inputs": [
        {
          "name": "issuanceId",
          "type": "uint256"
        },
        {
          "name": "eventName",
          "type": "bytes32"
        },
        {
          "name": "eventPayload",
          "type": "bytes"
        }
      ],
      "name": "notifyCustomEvent",
      "outputs": [],
      "payable": false,
      "stateMutability": "nonpayable",
      "type": "function"
    },
    {
      "constant": false,
      "inputs": [
        {
          "name": "makerParameters",
          "type": "bytes"
        }
      ],
      "name": "createIssuance",
      "outputs": [
        {
          "name": "",
          "type": "uint256"
        }
      ],
      "payable": false,
      "stateMutability": "nonpayable",
      "type": "function"
    },
    {
      "inputs": [
        {
          "name": "fspAddress",
          "type": "address"
        },
        {
          "name": "instrumentAddress",
          "type": "address"
        },
        {
          "name": "instrumentConfigAddress",
          "type": "address"
        },
        {
          "name": "instrumentParameters",
          "type": "bytes"
        }
      ],
      "payable": false,
      "stateMutability": "nonpayable",
      "type": "constructor"
    },
    {
      "anonymous": false,
      "inputs": [
        {
          "indexed": true,
          "name": "instrumentAddress",
          "type": "address"
        },
        {
          "indexed": true,
          "name": "instrumentEscrowAddress",
          "type": "address"
        }
      ],
      "name": "InstrumentManagerInitialized",
      "type": "event"
    },
    {
      "anonymous": false,
      "inputs": [
        {
          "indexed": true,
          "name": "account",
          "type": "address"
        }
      ],
      "name": "TimerOracleAdded",
      "type": "event"
    },
    {
      "anonymous": false,
      "inputs": [
        {
          "indexed": true,
          "name": "account",
          "type": "address"
        }
      ],
      "name": "TimerOracleRemoved",
      "type": "event"
    }
  ],
  "bytecode": "0x60806040523480156200001157600080fd5b506040516200668238038062006682833981018060405260808110156200003757600080fd5b81516020830151604084015160608501805193959294919391830192916401000000008111156200006757600080fd5b820160208101848111156200007b57600080fd5b81516401000000008111828201871017156200009657600080fd5b505092919050505083838383620000b3336200057060201b60201c565b600a546001600160a01b03161562000117576040517f08c379a000000000000000000000000000000000000000000000000000000000815260040180806020018281038252602b8152602001806200661c602b913960400191505060405180910390fd5b6001600160a01b03841662000178576040517f08c379a0000000000000000000000000000000000000000000000000000000008152600401808060200182810382526034815260200180620065e86034913960400191505060405180910390fd5b6001600160a01b038316620001d9576040517f08c379a000000000000000000000000000000000000000000000000000000000815260040180806020018281038252603b81526020018062006647603b913960400191505060405180910390fd5b6001600160a01b0382166200023a576040517f08c379a0000000000000000000000000000000000000000000000000000000008152600401808060200182810382526042815260200180620065466042913960600191505060405180910390fd5b600081511162000296576040517f08c379a000000000000000000000000000000000000000000000000000000000815260040180806020018281038252603e81526020018062006588603e913960400191505060405180910390fd5b620002a062001188565b620002b682620005c260201b62004c661760201c565b6001805460ff1990811682179091558151600255426003556040820151600480548316911515919091179055606082015160068054909216901515179055600d80546001600160a01b03199081166001600160a01b038781169190911790925560088054909116888316179055602082015191925016156200033d5780602001516200033f565b845b600980546001600160a01b03199081166001600160a01b0393841617909155600a80549091168683161790556001600b55600d54604080517f1e081f0900000000000000000000000000000000000000000000000000000000815290519190921691631e081f09916004808301926020929190829003018186803b158015620003c757600080fd5b505afa158015620003dc573d6000803e3d6000fd5b505050506040513d6020811015620003f357600080fd5b5051600c55600d54604080517fd9e86f1d00000000000000000000000000000000000000000000000000000000815290516001600160a01b039092169163d9e86f1d91600480820192602092909190829003018186803b1580156200045757600080fd5b505afa1580156200046c573d6000803e3d6000fd5b505050506040513d60208110156200048357600080fd5b5051604080517f99733c7500000000000000000000000000000000000000000000000000000000815290516001600160a01b03909216916399733c75916004808201926020929091908290030181600087803b158015620004e357600080fd5b505af1158015620004f8573d6000803e3d6000fd5b505050506040513d60208110156200050f57600080fd5b5051600e80546001600160a01b0319166001600160a01b039283161790819055600a546040519183169216907f17082f533b4743d96d2bbde7b50cc0716cc7fd5f2c919bcf706233962d28e2d890600090a3505050505050505050620011cd565b6200058b816000620005f360201b62003c121790919060201c565b6040516001600160a01b038216907f9ddc85aace404f3f4847945cd853a70355e2f1dc7f6a75b7951259bcfa97c22b90600090a250565b620005cc62001188565b620005d662001188565b620005eb60208485516200069760201b60201c565b509392505050565b6200060582826200085c60201b60201c565b156200067257604080517f08c379a000000000000000000000000000000000000000000000000000000000815260206004820152601f60248201527f526f6c65733a206163636f756e7420616c72656164792068617320726f6c6500604482015290519081900360640190fd5b6001600160a01b0316600090815260209190915260409020805460ff19166001179055565b620006a162001188565b6000620006ad62001188565b620006b7620011af565b6000808089805b8982018110156200084a57620006e0818c620008df60201b620041851760201c565b91965094509250820160018514156200070e5762000707818c89896200092360201b60201c565b0162000844565b84600214156200072c5762000707818c89896200099a60201b60201c565b84600314156200074a5762000707818c898962000a0160201b60201c565b8460041415620007685762000707818c898962000a6160201b60201c565b60018460058111156200077757fe5b14156200079f57600062000797828d62000ac160201b620042541760201c565b929092019150505b6005846005811115620007ae57fe5b1415620007d6576000620007ce828d62000aea60201b620042751760201c565b929092019150505b6000846005811115620007e557fe5b14156200080d57600062000805828d62000b0460201b620042871760201c565b929092019150505b60028460058111156200081c57fe5b1415620008445760006200083c828d62000bbb60201b620043191760201c565b929092019150505b620006be565b50949a97995096975050505050505050565b60006001600160a01b038216620008bf576040517f08c379a0000000000000000000000000000000000000000000000000000000008152600401808060200182810382526022815260200180620065c66022913960400191505060405180910390fd5b506001600160a01b03166000908152602091909152604090205460ff1690565b6000806000806000620008f9878762000b0460201b60201c565b9150915060008260071660058111156200090f57fe5b600890930498929750909550909350505050565b60008060006200093f878762000cb060201b620048881760201c565b91509150620009548562000cca60201b60201c565b156200097057600184815b602002018051909101905262000990565b8185526020840151156200099057600184815b6020020180519190910390525b9695505050505050565b6000806000620009b6878762000cce60201b620048641760201c565b91509150620009cb8562000cca60201b60201c565b15620009dc5760018460026200095f565b6001600160a01b03821660208601526040840151156200099057600184600262000983565b600080600062000a1d878762000cfa60201b6200482d1760201c565b9150915062000a328562000cca60201b60201c565b1562000a435760018460036200095f565b81151560408601526060840151156200099057600184600362000983565b600080600062000a7d878762000cfa60201b6200482d1760201c565b9150915062000a928562000cca60201b60201c565b1562000aa35760018460046200095f565b81151560608601526080840151156200099057600184600462000983565b60008060008062000adb8686600862000d3b60201b60201c565b909450925050505b9250929050565b60008060008062000adb8686600462000d3b60201b60201c565b80519181019160009081908190819060200160805b608081166080141562000bae57868803821162000b88577f08c379a0000000000000000000000000000000000000000000000000000000006000526020600452600f6024527f6c656e677468206f766572666c6f77000000000000000000000000000000000060445260536000fd5b875160001a905080607f16836007021b8417935060018301925060018801975062000b19565b5091969095509350505050565b6060600080600062000bd4868662000b0460201b60201c565b915091506060826040519080825280601f01601f19166020018201604052801562000c06576020820181803883390190505b508651978701830197909150602090810190820160005b8581101562000ca057888a03831162000c88577f08c379a0000000000000000000000000000000000000000000000000000000006000526020600452600f6024527f6c656e677468206f766572666c6f77000000000000000000000000000000000060445260536000fd5b895160001a82536001998a0199918201910162000c1d565b5091955050500190509250929050565b60008060008062000adb6020878762000de660201b60201c565b1590565b60008060008062000ce86014878762000e0d60201b60201c565b60609190911c97909650945050505050565b60008060008062000d12868662000b0460201b60201c565b91509150816000141562000d2e5760009350915062000ae39050565b6001969095509350505050565b81519282019260009081908190602001815b8581101562000dd857868803821162000db8577f08c379a0000000000000000000000000000000000000000000000000000000006000526020600452600f6024527f6c656e677468206f766572666c6f77000000000000000000000000000000000060445260536000fd5b875160001a816008021b8317925060018801975060018101905062000d4d565b509096939550929350505050565b60008060008062000dff87878762000fe460201b60201c565b909890975095505050505050565b60008060008062000e25868662000b0460201b60201c565b90925090506020600860ff60038a0116848401111562000f16576040518060400160405280600f81526020017f6c656e677468206f766572666c6f7700000000000000000000000000000000008152506040517f08c379a00000000000000000000000000000000000000000000000000000000081526004018080602001828103825283818151815260200191508051906020019080838360005b8381101562000eda57818101518382015260200162000ec0565b50505050905090810190601f16801562000f085780820380516001836020036101000a031916815260200191505b509250505060405180910390fd5b6003880197506000602088510189106040518060400160405280600f81526020017f6c656e677468206f766572666c6f7700000000000000000000000000000000008152509062000fc4576040517f08c379a000000000000000000000000000000000000000000000000000000000815260206004820181815283516024840152835190928392604490910191908501908083836000831562000eda57818101518382015260200162000ec0565b505087870151918490036002010290811c901b9350019050935093915050565b600080600080600062000ffe878762000b0460201b60201c565b915091508760030160ff168183011115620010a757604080518082018252600f81527f6c656e677468206f766572666c6f770000000000000000000000000000000000602080830191825292517f08c379a0000000000000000000000000000000000000000000000000000000008152600481019384528251602482015282519293928392604490920191908083836000831562000eda57818101518382015260200162000ec0565b600387019650602086510187106040518060400160405280600f81526020017f6c656e677468206f766572666c6f7700000000000000000000000000000000008152509062001153576040517f08c379a000000000000000000000000000000000000000000000000000000000815260206004820181815283516024840152835190928392604490910191908501908083836000831562000eda57818101518382015260200162000ec0565b5086860151925060011982015b60208110156200117a576101008404935060010162001160565b509197910195509350505050565b60408051608081018252600080825260208201819052918101829052606081019190915290565b6040518060a001604052806005906020820280388339509192915050565b61536980620011dd6000396000f3fe608060405234801561001057600080fd5b50600436106100f55760003560e01c8063711ec8ee1161009757806390d69d641161006657806390d69d64146103ac578063d9d6f958146103d2578063dc06b3a2146103f5578063f1c0d81a146104a7576100f5565b8063711ec8ee146102ee57806379dcec8c146103285780638792b833146103565780638f7afe3e1461037a576100f5565b80634154cf64116100d35780634154cf64146101fa57806351b42b001461022c5780635c3b1cf01461023457806369382c641461023c576100f5565b8063011e8f96146100fa578063059c2775146101a95780632ea24112146101cc575b600080fd5b6101a76004803603604081101561011057600080fd5b8135919081019060408101602082013564010000000081111561013257600080fd5b82018360208201111561014457600080fd5b8035906020019184600183028401116401000000008311171561016657600080fd5b91908080601f01602080910402602001604051908101604052809392919081815260200183838082843760009201919091525092955061055f945050505050565b005b6101a7600480360360408110156101bf57600080fd5b50803590602001356106b2565b6101a7600480360360408110156101e257600080fd5b506001600160a01b0381351690602001351515610913565b6101a76004803603606081101561021057600080fd5b508035906001600160a01b0360208201351690604001356109ce565b6101a7610cbf565b6101a7610f6d565b6101a76004803603606081101561025257600080fd5b81359160208101359181019060608101604082013564010000000081111561027957600080fd5b82018360208201111561028b57600080fd5b803590602001918460018302840111640100000000831117156102ad57600080fd5b91908080601f016020809104026020016040519081016040528093929190818152602001838380828437600092019190915250929550610f78945050505050565b6103146004803603602081101561030457600080fd5b50356001600160a01b031661108a565b604080519115158252519081900360200190f35b6101a76004803603604081101561033e57600080fd5b506001600160a01b03813516906020013515156110a2565b61035e61115d565b604080516001600160a01b039092168252519081900360200190f35b6101a76004803603606081101561039057600080fd5b508035906001600160a01b03602082013516906040013561116c565b6101a7600480360360208110156103c257600080fd5b50356001600160a01b0316611443565b6101a7600480360360408110156103e857600080fd5b5080359060200135611496565b6101a76004803603606081101561040b57600080fd5b81359160208101359181019060608101604082013564010000000081111561043257600080fd5b82018360208201111561044457600080fd5b8035906020019184600183028401116401000000008311171561046657600080fd5b91908080601f0160208091040260200160405190810160405280939291908181526020018383808284376000920191909152509295506116f7945050505050565b61054d600480360360208110156104bd57600080fd5b8101906020810181356401000000008111156104d857600080fd5b8201836020820111156104ea57600080fd5b8035906020019184600183028401116401000000008311171561050c57600080fd5b91908080601f0160208091040260200160405190810160405280939291908181526020018383808284376000920191909152509295506117c2945050505050565b60408051918252519081900360200190f35b61056833612060565b6105a657604051600160e51b62461bcd02815260040180806020018281038252602d815260200180614f68602d913960400191505060405180910390fd5b6000828152600f6020526040902060016005820154600160a01b900460ff1660068111156105d057fe5b1461060f57604051600160e51b62461bcd02815260040180806020018281038252602f81526020018061530f602f913960400191505060405180910390fd5b80546001600160a01b031661065857604051600160e51b62461bcd02815260040180806020018281038252602a815260200180614f95602a913960400191505060405180910390fd5b60028101805473ffffffffffffffffffffffffffffffffffffffff191633179055426003820155606061068a8461208f565b90506000606061069b8684876121e6565b915091506106aa8683836124b8565b505050505050565b6000828152600f6020526040902080546001600160a01b031661070957604051600160e51b62461bcd02815260040180806020018281038252602a815260200180614f95602a913960400191505060405180910390fd5b600581015461072190600160a01b900460ff166126dc565b1561076057604051600160e51b62461bcd02815260040180806020018281038252602b815260200180614f0c602b913960400191505060405180910390fd5b600082116107a257604051600160e51b62461bcd02815260040180806020018281038252602a8152602001806152e5602a913960400191505060405180910390fd5b6107ac8333612734565b6107ea57604051600160e51b62461bcd02815260040180806020018281038252602e815260200180615184602e913960400191505060405180910390fd5b600e54604080517f487c35800000000000000000000000000000000000000000000000000000000081523360048201526024810185905290516001600160a01b039092169163487c35809160448082019260009290919082900301818387803b15801561085657600080fd5b505af115801561086a573d6000803e3d6000fd5b505050506005810154604080517f70d97c3400000000000000000000000000000000000000000000000000000000815233600482015290516001600160a01b03909216916370d97c34918591602480830192600092919082900301818588803b1580156108d657600080fd5b505af11580156108ea573d6000803e3d6000fd5b505050505060606108fa8461208f565b90506000606061069b868461090d61278b565b88612791565b60045460ff1661095757604051600160e51b62461bcd0281526004018080602001828103825260368152602001806151e36036913960400191505060405180910390fd5b6008546001600160a01b031633146109a357604051600160e51b62461bcd02815260040180806020018281038252603b815260200180614fbf603b913960400191505060405180910390fd5b6001600160a01b03919091166000908152600560205260409020805460ff1916911515919091179055565b6000838152600f6020526040902080546001600160a01b0316610a2557604051600160e51b62461bcd02815260040180806020018281038252602a815260200180614f95602a913960400191505060405180910390fd5b6005810154610a3d90600160a01b900460ff166126dc565b15610a7c57604051600160e51b62461bcd02815260040180806020018281038252602b815260200180614f0c602b913960400191505060405180910390fd5b6001600160a01b038316610ac457604051600160e51b62461bcd0281526004018080602001828103825260318152602001806151b26031913960400191505060405180910390fd5b60008211610b0657604051600160e51b62461bcd02815260040180806020018281038252602a8152602001806152e5602a913960400191505060405180910390fd5b610b108433612734565b610b4e57604051600160e51b62461bcd02815260040180806020018281038252602e815260200180615184602e913960400191505060405180910390fd5b600e54604080517f3d4aa9a90000000000000000000000000000000000000000000000000000000081523360048201526001600160a01b0386811660248301526044820186905291519190921691633d4aa9a991606480830192600092919082900301818387803b158015610bc257600080fd5b505af1158015610bd6573d6000803e3d6000fd5b5050506005820154610bfc91506001600160a01b0385811691168463ffffffff612a1116565b6005810154604080517f810c0af80000000000000000000000000000000000000000000000000000000081523360048201526001600160a01b038681166024830152604482018690529151919092169163810c0af891606480830192600092919082900301818387803b158015610c7257600080fd5b505af1158015610c86573d6000803e3d6000fd5b505050506060610c958561208f565b905060006060610ca787848888612791565b91509150610cb68783836124b8565b50505050505050565b60015460ff16610d0357604051600160e51b62461bcd02815260040180806020018281038252603d815260200180614ecf603d913960400191505060405180910390fd5b6008546001600160a01b03163314610d4f57604051600160e51b62461bcd02815260040180806020018281038252603e8152602001806150f3603e913960400191505060405180910390fd5b600c5415610f6157600d54604080517fe755926000000000000000000000000000000000000000000000000000000000815290516000926001600160a01b03169163e7559260916004808301926020929190829003018186803b158015610db557600080fd5b505afa158015610dc9573d6000803e3d6000fd5b505050506040513d6020811015610ddf57600080fd5b5051600d5460408051600160e01b6323dc9e3702815290519293506001600160a01b0380851693639e281a9893909116916323dc9e37916004808301926020929190829003018186803b158015610e3557600080fd5b505afa158015610e49573d6000803e3d6000fd5b505050506040513d6020811015610e5f57600080fd5b5051600c546040805163ffffffff851660e01b81526001600160a01b039093166004840152602483019190915251604480830192600092919082900301818387803b158015610ead57600080fd5b505af1158015610ec1573d6000803e3d6000fd5b5050600854600c54600d5460408051600160e01b6323dc9e370281529051610f5f96506001600160a01b0394851695509293909116916323dc9e3791600480820192602092909190829003018186803b158015610f1d57600080fd5b505afa158015610f31573d6000803e3d6000fd5b505050506040513d6020811015610f4757600080fd5b50516001600160a01b0316919063ffffffff612b7316565b505b6001805460ff19169055565b610f7633612bf3565b565b610f813361108a565b610fbf57604051600160e51b62461bcd02815260040180806020018281038252603a815260200180614ffa603a913960400191505060405180910390fd5b6000838152600f6020526040902080546001600160a01b031661101657604051600160e51b62461bcd02815260040180806020018281038252602a815260200180614f95602a913960400191505060405180910390fd5b600581015461102e90600160a01b900460ff166126dc565b1561106d57604051600160e51b62461bcd02815260040180806020018281038252602b815260200180614f0c602b913960400191505060405180910390fd5b60606110788561208f565b905060006060610ca787848888612c3b565b600061109c818363ffffffff612dfa16565b92915050565b60065460ff166110e657604051600160e51b62461bcd0281526004018080602001828103825260368152602001806152196036913960400191505060405180910390fd5b6008546001600160a01b0316331461113257604051600160e51b62461bcd02815260040180806020018281038252603b815260200180615034603b913960400191505060405180910390fd5b6001600160a01b03919091166000908152600760205260409020805460ff1916911515919091179055565b600e546001600160a01b031690565b6000838152600f6020526040902080546001600160a01b03166111c357604051600160e51b62461bcd02815260040180806020018281038252602a815260200180614f95602a913960400191505060405180910390fd5b60058101546111db90600160a01b900460ff166126dc565b1561121a57604051600160e51b62461bcd02815260040180806020018281038252602b815260200180614f0c602b913960400191505060405180910390fd5b6001600160a01b03831661126257604051600160e51b62461bcd0281526004018080602001828103825260318152602001806151b26031913960400191505060405180910390fd5b600082116112a457604051600160e51b62461bcd02815260040180806020018281038252602a8152602001806152e5602a913960400191505060405180910390fd5b6112ae8433612734565b6112ec57604051600160e51b62461bcd028152600401808060200182810382526031815260200180614f376031913960400191505060405180910390fd5b6005810154604080517f3d4aa9a90000000000000000000000000000000000000000000000000000000081523360048201526001600160a01b0386811660248301526044820186905291519190921691633d4aa9a991606480830192600092919082900301818387803b15801561136257600080fd5b505af1158015611376573d6000803e3d6000fd5b5050600e5461139a92506001600160a01b038681169250168463ffffffff612a1116565b600e54604080517f810c0af80000000000000000000000000000000000000000000000000000000081523360048201526001600160a01b038681166024830152604482018690529151919092169163810c0af891606480830192600092919082900301818387803b15801561140e57600080fd5b505af1158015611422573d6000803e3d6000fd5b5050505060606114318561208f565b905060006060610ca787848888612e64565b61144c3361108a565b61148a57604051600160e51b62461bcd02815260040180806020018281038252603a815260200180614ffa603a913960400191505060405180910390fd5b61149381612f75565b50565b6000828152600f6020526040902080546001600160a01b03166114ed57604051600160e51b62461bcd02815260040180806020018281038252602a815260200180614f95602a913960400191505060405180910390fd5b600581015461150590600160a01b900460ff166126dc565b1561154457604051600160e51b62461bcd02815260040180806020018281038252602b815260200180614f0c602b913960400191505060405180910390fd5b6000821161158657604051600160e51b62461bcd02815260040180806020018281038252602a8152602001806152e5602a913960400191505060405180910390fd5b6115908333612734565b6115ce57604051600160e51b62461bcd028152600401808060200182810382526031815260200180614f376031913960400191505060405180910390fd5b6005810154604080517f487c35800000000000000000000000000000000000000000000000000000000081523360048201526024810185905290516001600160a01b039092169163487c35809160448082019260009290919082900301818387803b15801561163c57600080fd5b505af1158015611650573d6000803e3d6000fd5b5050600e54604080517f70d97c3400000000000000000000000000000000000000000000000000000000815233600482015290516001600160a01b0390921693506370d97c3492508591602480830192600092919082900301818588803b1580156116ba57600080fd5b505af11580156116ce573d6000803e3d6000fd5b505050505060606116de8461208f565b90506000606061069b86846116f161278b565b88612e64565b6000838152600f6020526040902080546001600160a01b031661174e57604051600160e51b62461bcd02815260040180806020018281038252602a815260200180614f95602a913960400191505060405180910390fd5b600581015461176690600160a01b900460ff166126dc565b156117a557604051600160e51b62461bcd02815260040180806020018281038252602b815260200180614f0c602b913960400191505060405180910390fd5b60606117b08561208f565b905060006060610ca787848888612fbd565b60006117cc6130c9565b61180a57604051600160e51b62461bcd0281526004018080602001828103825260318152602001806151316031913960400191505060405180910390fd5b611813336130f2565b61185157604051600160e51b62461bcd02815260040180806020018281038252602d81526020018061506f602d913960400191505060405180910390fd5b600d5460408051600160e01b635a36366702815290516000926001600160a01b031691635a363667916004808301926020929190829003018186803b15801561189957600080fd5b505afa1580156118ad573d6000803e3d6000fd5b505050506040513d60208110156118c357600080fd5b50511115611d6f57600e54600d5460408051600160e01b6323dc9e3702815290516001600160a01b0393841693633d4aa9a99333939116916323dc9e3791600480820192602092909190829003018186803b15801561192157600080fd5b505afa158015611935573d6000803e3d6000fd5b505050506040513d602081101561194b57600080fd5b5051600d5460408051600160e01b635a36366702815290516001600160a01b0390921691635a36366791600480820192602092909190829003018186803b15801561199557600080fd5b505afa1580156119a9573d6000803e3d6000fd5b505050506040513d60208110156119bf57600080fd5b50516040805163ffffffff861660e01b81526001600160a01b03948516600482015292909316602483015260448201529051606480830192600092919082900301818387803b158015611a1157600080fd5b505af1158015611a25573d6000803e3d6000fd5b50505050611ba4600d60009054906101000a90046001600160a01b03166001600160a01b031663e75592606040518163ffffffff1660e01b815260040160206040518083038186803b158015611a7a57600080fd5b505afa158015611a8e573d6000803e3d6000fd5b505050506040513d6020811015611aa457600080fd5b5051600d5460408051600160e01b635a36366702815290516001600160a01b0390921691635a36366791600480820192602092909190829003018186803b158015611aee57600080fd5b505afa158015611b02573d6000803e3d6000fd5b505050506040513d6020811015611b1857600080fd5b5051600d5460408051600160e01b6323dc9e3702815290516001600160a01b03909216916323dc9e3791600480820192602092909190829003018186803b158015611b6257600080fd5b505afa158015611b76573d6000803e3d6000fd5b505050506040513d6020811015611b8c57600080fd5b50516001600160a01b0316919063ffffffff612a1116565b600d60009054906101000a90046001600160a01b03166001600160a01b031663e75592606040518163ffffffff1660e01b815260040160206040518083038186803b158015611bf257600080fd5b505afa158015611c06573d6000803e3d6000fd5b505050506040513d6020811015611c1c57600080fd5b5051600d5460408051600160e01b6323dc9e3702815290516001600160a01b039384169363338b5dea9316916323dc9e37916004808301926020929190829003018186803b158015611c6d57600080fd5b505afa158015611c81573d6000803e3d6000fd5b505050506040513d6020811015611c9757600080fd5b5051600d5460408051600160e01b635a36366702815290516001600160a01b0390921691635a36366791600480820192602092909190829003018186803b158015611ce157600080fd5b505afa158015611cf5573d6000803e3d6000fd5b505050506040513d6020811015611d0b57600080fd5b50516040805163ffffffff851660e01b81526001600160a01b039093166004840152602483019190915251604480830192600092919082900301818387803b158015611d5657600080fd5b505af1158015611d6a573d6000803e3d6000fd5b505050505b600b805460018101909155600d54604080517fd9e86f1d00000000000000000000000000000000000000000000000000000000815290516000926001600160a01b03169163d9e86f1d916004808301926020929190829003018186803b158015611dd857600080fd5b505afa158015611dec573d6000803e3d6000fd5b505050506040513d6020811015611e0257600080fd5b5051604080517f0ae60b6000000000000000000000000000000000000000000000000000000000815290516001600160a01b0390921691630ae60b60916004808201926020929091908290030181600087803b158015611e6157600080fd5b505af1158015611e75573d6000803e3d6000fd5b505050506040513d6020811015611e8b57600080fd5b50516040805160e0810182523381524260208083019190915260008284018190526060830152600d548351600160e01b635a3636670281529351949550919360808501936001600160a01b0390931692635a363667926004808301939192829003018186803b158015611efd57600080fd5b505afa158015611f11573d6000803e3d6000fd5b505050506040513d6020811015611f2757600080fd5b505181526001600160a01b0383166020820152604001600090526000838152600f60209081526040918290208351815473ffffffffffffffffffffffffffffffffffffffff199081166001600160a01b03928316178355928501516001830155928401516002820180548416918516919091179055606084015160038201556080840151600482015560a084015160058201805490931693169290921780825560c0840151919074ff00000000000000000000000000000000000000001916600160a01b836006811115611ff757fe5b0217905550905050606061200a8361208f565b9050612017838287613121565b6000848152600f60205260409020600501805474ff00000000000000000000000000000000000000001916600160a01b83600681111561205357fe5b0217905550505050919050565b60065460009060ff16158061109c5750506001600160a01b031660009081526007602052604090205460ff1690565b6000818152600f602052604090206060906120a8614b8d565b60408051610160810182528581526008546001600160a01b03908116602083015260095481169282019290925283548216606082015260018401546080820152600284015490911660a0820152600383015460c0820152600583015460e0820190600160a01b900460ff16600681111561211e57fe5b60ff16815260058401546001600160a01b0390811660208084019190915233604080850191909152600d5481517f2bc51c6d0000000000000000000000000000000000000000000000000000000081529151606090950194931692632bc51c6d92600480840193919291829003018186803b15801561219c57600080fd5b505afa1580156121b0573d6000803e3d6000fd5b505050506040513d60208110156121c657600080fd5b50516001600160a01b0316905290506121de816134b1565b949350505050565b60008381526010602052604080822054600a548251600160e31b631b4504950281526001600160a01b03918216600482015292516060939190921691829163da2824a8916024808301928892919082900301818387803b15801561224957600080fd5b505af115801561225d573d6000803e3d6000fd5b5050600a546040517fc17ba71f0000000000000000000000000000000000000000000000000000000081526001600160a01b0385811660448301526060600483019081528a5160648401528a5191909316945063c17ba71f935089928992879282916024810191608490910190602088019080838360005b838110156122ed5781810151838201526020016122d5565b50505050905090810190601f16801561231a5780820380516001836020036101000a031916815260200191505b50838103825285518152855160209182019187019080838360005b8381101561234d578181015183820152602001612335565b50505050905090810190601f16801561237a5780820380516001836020036101000a031916815260200191505b5095505050505050600060405180830381600087803b15801561239c57600080fd5b505af11580156123b0573d6000803e3d6000fd5b505050506040513d6000823e601f3d908101601f1916820160409081528110156123d957600080fd5b8151602083018051919392830192916401000000008111156123fa57600080fd5b8201602081018481111561240d57600080fd5b815164010000000081118282018710171561242757600080fd5b5050600a54604080517f5356dddc0000000000000000000000000000000000000000000000000000000081526001600160a01b0392831660048201529051969950919750861694635356dddc94506024808301945060009350909182900301818387803b15801561249757600080fd5b505af11580156124ab573d6000803e3d6000fd5b5050505050935093915050565b6000838152600f6020526040902060058101805484919074ff00000000000000000000000000000000000000001916600160a01b8360068111156124f857fe5b0217905550612506836126dc565b8015612516575060008160040154115b156126cc57600d60009054906101000a90046001600160a01b03166001600160a01b031663e75592606040518163ffffffff1660e01b815260040160206040518083038186803b15801561256957600080fd5b505afa15801561257d573d6000803e3d6000fd5b505050506040513d602081101561259357600080fd5b5051600d5460408051600160e01b6323dc9e3702815290516001600160a01b0393841693639e281a989316916323dc9e37916004808301926020929190829003018186803b1580156125e457600080fd5b505afa1580156125f8573d6000803e3d6000fd5b505050506040513d602081101561260e57600080fd5b50516004808501546040805163ffffffff861660e01b81526001600160a01b0390941692840192909252602483015251604480830192600092919082900301818387803b15801561265e57600080fd5b505af1158015612672573d6000803e3d6000fd5b50508254600480850154600d5460408051600160e01b6323dc9e3702815290516126cc97506001600160a01b0395861696509294909116926323dc9e37928282019260209290829003018186803b158015610f1d57600080fd5b6126d68483613501565b50505050565b600060038260068111156126ec57fe5b14806127035750600482600681111561270157fe5b145b806127195750600582600681111561271757fe5b145b8061109c5750600682600681111561272d57fe5b1492915050565b6000828152600f6020526040812080546001600160a01b038481169116148061276c575060028101546001600160a01b038481169116145b806121de57506009546001600160a01b03848116911614949350505050565b60001990565b60008481526010602052604080822054600a548251600160e31b631b4504950281526001600160a01b03918216600482015292516060939190921691829163da2824a8916024808301928892919082900301818387803b1580156127f457600080fd5b505af1158015612808573d6000803e3d6000fd5b5050600a546040517f1ffd40b10000000000000000000000000000000000000000000000000000000081526001600160a01b0389811660248301526044820189905285811660648301526080600483019081528b5160848401528b51919093169450631ffd40b193508a928a928a92889291829160a490910190602088019080838360005b838110156128a557818101518382015260200161288d565b50505050905090810190601f1680156128d25780820380516001836020036101000a031916815260200191505b5095505050505050600060405180830381600087803b1580156128f457600080fd5b505af1158015612908573d6000803e3d6000fd5b505050506040513d6000823e601f3d908101601f19168201604090815281101561293157600080fd5b81516020830180519193928301929164010000000081111561295257600080fd5b8201602081018481111561296557600080fd5b815164010000000081118282018710171561297f57600080fd5b5050600a54604080517f5356dddc0000000000000000000000000000000000000000000000000000000081526001600160a01b0392831660048201529051969950919750861694635356dddc94506024808301945060009350909182900301818387803b1580156129ef57600080fd5b505af1158015612a03573d6000803e3d6000fd5b505050505094509492505050565b801580612ab05750604080517fdd62ed3e0000000000000000000000000000000000000000000000000000000081523060048201526001600160a01b03848116602483015291519185169163dd62ed3e91604480820192602092909190829003018186803b158015612a8257600080fd5b505afa158015612a96573d6000803e3d6000fd5b505050506040513d6020811015612aac57600080fd5b5051155b612aee57604051600160e51b62461bcd0281526004018080602001828103825260368152602001806152af6036913960400191505060405180910390fd5b604080516001600160a01b038416602482015260448082018490528251808303909101815260649091019091526020810180517bffffffffffffffffffffffffffffffffffffffffffffffffffffffff167f095ea7b300000000000000000000000000000000000000000000000000000000179052612b6e9084906139e7565b505050565b604080516001600160a01b038416602482015260448082018490528251808303909101815260649091019091526020810180517bffffffffffffffffffffffffffffffffffffffffffffffffffffffff167fa9059cbb00000000000000000000000000000000000000000000000000000000179052612b6e9084906139e7565b612c0460008263ffffffff613ba816565b6040516001600160a01b038216907f708c3750abf4f634a44a83e054e242d74eca9179f6c36780e5f62d1bcda31ba090600090a250565b60008481526010602052604080822054600a548251600160e31b631b4504950281526001600160a01b03918216600482015292516060939190921691829163da2824a8916024808301928892919082900301818387803b158015612c9e57600080fd5b505af1158015612cb2573d6000803e3d6000fd5b5050600a546040517f66eb2a10000000000000000000000000000000000000000000000000000000008152602481018990526001600160a01b0385811660648301526080600483019081528b5160848401528b519190931694506366eb2a1093508a928a928a928892918291604482019160a40190602089019080838360005b83811015612d4a578181015183820152602001612d32565b50505050905090810190601f168015612d775780820380516001836020036101000a031916815260200191505b50838103825285518152855160209182019187019080838360005b83811015612daa578181015183820152602001612d92565b50505050905090810190601f168015612dd75780820380516001836020036101000a031916815260200191505b509650505050505050600060405180830381600087803b1580156128f457600080fd5b60006001600160a01b038216612e4457604051600160e51b62461bcd0281526004018080602001828103825260228152602001806151626022913960400191505060405180910390fd5b506001600160a01b03166000908152602091909152604090205460ff1690565b60008481526010602052604080822054600a548251600160e31b631b4504950281526001600160a01b03918216600482015292516060939190921691829163da2824a8916024808301928892919082900301818387803b158015612ec757600080fd5b505af1158015612edb573d6000803e3d6000fd5b5050600a546040517fc279eab20000000000000000000000000000000000000000000000000000000081526001600160a01b0389811660248301526044820189905285811660648301526080600483019081528b5160848401528b5191909316945063c279eab293508a928a928a92889291829160a4909101906020880190808383600083156128a557818101518382015260200161288d565b612f8660008263ffffffff613c1216565b6040516001600160a01b038216907f9ddc85aace404f3f4847945cd853a70355e2f1dc7f6a75b7951259bcfa97c22b90600090a250565b60008481526010602052604080822054600a548251600160e31b631b4504950281526001600160a01b03918216600482015292516060939190921691829163da2824a8916024808301928892919082900301818387803b15801561302057600080fd5b505af1158015613034573d6000803e3d6000fd5b5050600a546040517f4bde9ba4000000000000000000000000000000000000000000000000000000008152602481018990526001600160a01b0385811660648301526080600483019081528b5160848401528b51919093169450634bde9ba493508a928a928a928892918291604482019160a40190602089019080838360008315612d4a578181015183820152602001612d32565b60015460009060ff1680156130ed575060025415806130ed57504260035460025401115b905090565b60045460009060ff16158061109c5750506001600160a01b031660009081526005602052604090205460ff1690565b600080600d60009054906101000a90046001600160a01b03166001600160a01b0316634b3667e36040518163ffffffff1660e01b815260040160206040518083038186803b15801561317257600080fd5b505afa158015613186573d6000803e3d6000fd5b505050506040513d602081101561319c57600080fd5b5051604080517ff1dea26f00000000000000000000000000000000000000000000000000000000815290519192506000916001600160a01b0384169163f1dea26f91600480830192602092919082900301818787803b1580156131fe57600080fd5b505af1158015613212573d6000803e3d6000fd5b505050506040513d602081101561322857600080fd5b5051600087815260106020526040808220805473ffffffffffffffffffffffffffffffffffffffff19166001600160a01b03808616918217909255600a548351600160e31b631b450495028152921660048301529151939450909263da2824a89260248084019391929182900301818387803b1580156132a757600080fd5b505af11580156132bb573d6000803e3d6000fd5b5050600a546040517fad98b0cd0000000000000000000000000000000000000000000000000000000081526001600160a01b0385811660448301526060600483019081528a5160648401528a5191909316945063ad98b0cd935089928992879282916024810191608490910190602088019080838360005b8381101561334b578181015183820152602001613333565b50505050905090810190601f1680156133785780820380516001836020036101000a031916815260200191505b50838103825285518152855160209182019187019080838360005b838110156133ab578181015183820152602001613393565b50505050905090810190601f1680156133d85780820380516001836020036101000a031916815260200191505b5095505050505050602060405180830381600087803b1580156133fa57600080fd5b505af115801561340e573d6000803e3d6000fd5b505050506040513d602081101561342457600080fd5b5051600a54604080517f5356dddc0000000000000000000000000000000000000000000000000000000081526001600160a01b039283166004820152905192955090831691635356dddc9160248082019260009290919082900301818387803b15801561349057600080fd5b505af11580156134a4573d6000803e3d6000fd5b5050505050509392505050565b6060806134bd83613c96565b6040519080825280601f01601f1916602001820160405280156134e7576020820181803883390190505b50905060006134f884602084613c9d565b82525092915050565b613509614be9565b61351282613e1f565b6000848152600f602052604081206005810154929350916001600160a01b0316905b8351518110156106aa57613546614bfc565b845180518390811061355457fe5b6020026020010151905061356c878260200151612734565b6135aa57604051600160e51b62461bcd02815260040180806020018281038252603681526020018061509c6036913960400191505060405180910390fd5b6135b8878260400151612734565b6135f657604051600160e51b62461bcd02815260040180806020018281038252603681526020018061524f6036913960400191505060405180910390fd5b8051156138955761360561278b565b6001600160a01b031681606001516001600160a01b0316141561373057826001600160a01b031663487c3580826020015183608001516040518363ffffffff1660e01b815260040180836001600160a01b03166001600160a01b0316815260200182815260200192505050600060405180830381600087803b15801561368a57600080fd5b505af115801561369e573d6000803e3d6000fd5b5050600e54608084015160408086015181517f70d97c340000000000000000000000000000000000000000000000000000000081526001600160a01b0391821660048201529151931694506370d97c3493509091602480830192600092919082900301818588803b15801561371257600080fd5b505af1158015613726573d6000803e3d6000fd5b5050505050613890565b602081015160608201516080830151604080517f3d4aa9a90000000000000000000000000000000000000000000000000000000081526001600160a01b039485166004820152928416602484015260448301919091525191851691633d4aa9a99160648082019260009290919082900301818387803b1580156137b257600080fd5b505af11580156137c6573d6000803e3d6000fd5b5050600e54608084015160608501516137f694506001600160a01b0390811693509091169063ffffffff612a1116565b600e546040808301516060840151608085015183517f810c0af80000000000000000000000000000000000000000000000000000000081526001600160a01b03938416600482015291831660248301526044820152915192169163810c0af89160648082019260009290919082900301818387803b15801561387757600080fd5b505af115801561388b573d6000803e3d6000fd5b505050505b6139de565b61389d61278b565b6001600160a01b031681606001516001600160a01b03161415613939576020810151604080830151608084015182517fbeabacc80000000000000000000000000000000000000000000000000000000081526001600160a01b0394851660048201529184166024830152604482015290519185169163beabacc89160648082019260009290919082900301818387803b15801561387757600080fd5b60208101516040808301516060840151608085015183517f2c54de4f0000000000000000000000000000000000000000000000000000000081526001600160a01b039586166004820152928516602484015290841660448301526064820152905191851691632c54de4f9160848082019260009290919082900301818387803b1580156139c557600080fd5b505af11580156139d9573d6000803e3d6000fd5b505050505b50600101613534565b6139f9826001600160a01b0316613e44565b613a4d5760408051600160e51b62461bcd02815260206004820152601f60248201527f5361666545524332303a2063616c6c20746f206e6f6e2d636f6e747261637400604482015290519081900360640190fd5b60006060836001600160a01b0316836040518082805190602001908083835b60208310613a8b5780518252601f199092019160209182019101613a6c565b6001836020036101000a0380198251168184511680821785525050505050509050019150506000604051808303816000865af19150503d8060008114613aed576040519150601f19603f3d011682016040523d82523d6000602084013e613af2565b606091505b509150915081613b4c5760408051600160e51b62461bcd02815260206004820181905260248201527f5361666545524332303a206c6f772d6c6576656c2063616c6c206661696c6564604482015290519081900360640190fd5b8051156126d657808060200190516020811015613b6857600080fd5b50516126d657604051600160e51b62461bcd02815260040180806020018281038252602a815260200180615285602a913960400191505060405180910390fd5b613bb28282612dfa565b613bf057604051600160e51b62461bcd0281526004018080602001828103825260218152602001806150d26021913960400191505060405180910390fd5b6001600160a01b0316600090815260209190915260409020805460ff19169055565b613c1c8282612dfa565b15613c715760408051600160e51b62461bcd02815260206004820152601f60248201527f526f6c65733a206163636f756e7420616c72656164792068617320726f6c6500604482015290519081900360640190fd5b6001600160a01b0316600090815260209190915260409020805460ff19166001179055565b5061011990565b60008280613caf600160028387613e7b565b8651910190613cbf908286613e9b565b01613ccd6002808387613e7b565b81019050613ce086602001518286613eaa565b01613cef600360028387613e7b565b81019050613d0286604001518286613eaa565b01613d11600460028387613e7b565b81019050613d2486606001518286613eaa565b01613d33600560028387613e7b565b81019050613d4686608001518286613e9b565b01613d55600660028387613e7b565b81019050613d688660a001518286613eaa565b01613d77600760028387613e7b565b81019050613d8a8660c001518286613e9b565b01613d99600860028387613e7b565b81019050613dac8660e001518286613ec2565b01613dbb600960028387613e7b565b81019050613dcf8661010001518286613eaa565b01613dde600a60028387613e7b565b81019050613df28661012001518286613eaa565b01613e01600b60028387613e7b565b81019050613e158661014001518286613eaa565b0103949350505050565b613e27614be9565b613e2f614be9565b613e3c6020848551613ed4565b509392505050565b6000813f7fc5d2460186f7233c927e7db2dcc703c0e500b653ca82273b7bfad8045d85a47081158015906121de5750141592915050565b6000600885026007851617613e9181858561410f565b9695505050505050565b60006121de8460208585614152565b60006121de846001600160a01b031660148585614152565b60006121de8460ff1660018585614152565b613edc614be9565b6000613ee6614be9565b613eee614c2a565b6000808089805b898201811015613fd957613f09818c614185565b9196509450925082016001851415613f3457613f2e818c613f286141c0565b896141ce565b01613fd4565b6001846005811115613f4257fe5b1415613f5c576000613f54828d614254565b929092019150505b6005846005811115613f6a57fe5b1415613f84576000613f7c828d614275565b929092019150505b6000846005811115613f9257fe5b1415613fac576000613fa4828d614287565b929092019150505b6002846005811115613fba57fe5b1415613fd4576000613fcc828d614319565b929092019150505b613ef5565b5080856001602002015160405190808252806020026020018201604052801561401c57816020015b614009614bfc565b8152602001906001900390816140015790505b5087525b8982018110156140fd57614034818c614185565b919650945092508201600185141561405857614052818c89896141ce565b016140f8565b600184600581111561406657fe5b1415614080576000614078828d614254565b929092019150505b600584600581111561408e57fe5b14156140a85760006140a0828d614275565b929092019150505b60008460058111156140b657fe5b14156140d05760006140c8828d614287565b929092019150505b60028460058111156140de57fe5b14156140f85760006140f0828d614319565b929092019150505b614020565b50949a97995096975050505050505050565b600080828401607f86165b600787901c15614142578060801782535060079590951c9460019182019101607f861661411a565b8082535050600101949350505050565b600382019160009081614167878686896143e0565b94850194905061417881838661441e565b5050909203949350505050565b60008060008060006141978787614287565b9150915060008260071660058111156141ac57fe5b600890930498929750909550909350505050565b6141c8614be9565b50600090565b60006141d8614bfc565b60006141e4878761445f565b915091506141f1856144a1565b1561420b57600184815b6020020180519091019052613e91565b845160208501518151849291810390811061422257fe5b60209081029190910181019190915284015115613e9157600184815b6020020180519190910390529695505050505050565b600080600080614266868660086144a5565b909450925050505b9250929050565b600080600080614266868660046144a5565b80519181019160009081908190819060200160805b608081166080141561430c5786880382116142e757600160e51b62461bcd026000526020600452600f602452600160881b6e6c656e677468206f766572666c6f770260445260536000fd5b875160001a905080607f16836007021b8417935060018301925060018801975061429c565b5091969095509350505050565b6060600080600061432a8686614287565b915091506060826040519080825280601f01601f19166020018201604052801561435b576020820181803883390190505b508651978701830197909150602090810190820160005b858110156143d057888a0383116143b957600160e51b62461bcd026000526020600452600f602452600160881b6e6c656e677468206f766572666c6f770260445260536000fd5b895160001a82536001998a01999182019101614372565b5091955050500190509250929050565b6000806143ed868461452b565b9050848401815b80156144125787816020031a825360019190910190600019016143f4565b50909695505050505050565b60008261442f60028601828561410f565b84019350614441600160028686613e7b565b8401935061445085858561410f565b90930192830390509392505050565b614467614bfc565b60008381806144768387614287565b915091508083019250614487614bfc565b614492848885614569565b50955050019150509250929050565b1590565b81519282019260009081908190602001815b8581101561451d5786880382116144fe57600160e51b62461bcd026000526020600452600f602452600160881b6e6c656e677468206f766572666c6f770260445260536000fd5b875160001a816008021b831792506001880197506001810190506144b7565b509096939550929350505050565b600060ff825b600719600882020182901b851615801561454b5750600081115b156145595760001901614531565b806121de57506001949350505050565b614571614bfc565b600061457b614bfc565b614583614c48565b6000808089805b8982018110156140fd5761459e818c614185565b91965094509250820160018514156145c2576145bc818c89896146bb565b016146b6565b84600214156145d7576145bc818c89896146fd565b84600314156145ec576145bc818c898961474b565b8460041415614601576145bc818c8989614799565b8460051415614616576145bc818c89896147e7565b600184600581111561462457fe5b141561463e576000614636828d614254565b929092019150505b600584600581111561464c57fe5b141561466657600061465e828d614275565b929092019150505b600084600581111561467457fe5b141561468e576000614686828d614287565b929092019150505b600284600581111561469c57fe5b14156146b65760006146ae828d614319565b929092019150505b61458a565b60008060006146ca878761482d565b915091506146d7856144a1565b156146e557600184816141fb565b8115158552602084015115613e91576001848161423e565b600080600061470c8787614864565b91509150614719856144a1565b156147285760018460026141fb565b6001600160a01b0382166020860152604084015115613e9157600184600261423e565b600080600061475a8787614864565b91509150614767856144a1565b156147765760018460036141fb565b6001600160a01b0382166040860152606084015115613e9157600184600361423e565b60008060006147a88787614864565b915091506147b5856144a1565b156147c45760018460046141fb565b6001600160a01b0382166060860152608084015115613e9157600184600461423e565b60008060006147f68787614888565b91509150614803856144a1565b156148125760018460056141fb565b6080850182905260a084015115613e9157600184600561423e565b60008060008061483d8686614287565b9150915081600014156148575760009350915061426e9050565b6001969095509350505050565b6000806000806148766014878761489a565b60609190911c97909650945050505050565b60008060008061426660208787614a1e565b6000806000806148aa8686614287565b90925090506020600860ff60038a01168484011115614975576040518060400160405280600f8152602001600160881b6e6c656e677468206f766572666c6f7702815250604051600160e51b62461bcd0281526004018080602001828103825283818151815260200191508051906020019080838360005b8381101561493a578181015183820152602001614922565b50505050905090810190601f1680156149675780820380516001836020036101000a031916815260200191505b509250505060405180910390fd5b6003880197506000602088510189106040518060400160405280600f8152602001600160881b6e6c656e677468206f766572666c6f7702815250906149fe57604051600160e51b62461bcd02815260206004820181815283516024840152835190928392604490910191908501908083836000831561493a578181015183820152602001614922565b505087870151918490036002010290811c901b9350019050935093915050565b600080600080614a2f878787614a3d565b909890975095505050505050565b6000806000806000614a4f8787614287565b915091508760030160ff168183011115614ad357604080518082018252600f8152600160881b6e6c656e677468206f766572666c6f770260208083019182529251600160e51b62461bcd028152600481019384528251602482015282519293928392604490920191908083836000831561493a578181015183820152602001614922565b600387019650602086510187106040518060400160405280600f8152602001600160881b6e6c656e677468206f766572666c6f770281525090614b5a57604051600160e51b62461bcd02815260206004820181815283516024840152835190928392604490910191908501908083836000831561493a578181015183820152602001614922565b5086860151925060011982015b6020811015614b7f5761010084049350600101614b67565b509197910195509350505050565b6040805161016081018252600080825260208201819052918101829052606081018290526080810182905260a0810182905260c0810182905260e081018290526101008101829052610120810182905261014081019190915290565b6040518060200160405280606081525090565b6040805160a08101825260008082526020820181905291810182905260608101829052608081019190915290565b60405180604001604052806002906020820280388339509192915050565b6040518060c001604052806006906020820280388339509192915050565b614c6e614e89565b614c76614e89565b613e3c6020848551614c86614e89565b6000614c90614e89565b614c98614eb0565b6000808089805b8982018110156140fd57614cb3818c614185565b9196509450925082016001851415614cd757614cd1818c8989614dbb565b01614db6565b8460021415614cec57614cd1818c89896146fd565b8460031415614d0157614cd1818c8989614dfb565b8460041415614d1657614cd1818c8989614e42565b6001846005811115614d2457fe5b1415614d3e576000614d36828d614254565b929092019150505b6005846005811115614d4c57fe5b1415614d66576000614d5e828d614275565b929092019150505b6000846005811115614d7457fe5b1415614d8e576000614d86828d614287565b929092019150505b6002846005811115614d9c57fe5b1415614db6576000614dae828d614319565b929092019150505b614c9f565b6000806000614dca8787614888565b91509150614dd7856144a1565b15614de557600184816141fb565b818552602084015115613e91576001848161423e565b6000806000614e0a878761482d565b91509150614e17856144a1565b15614e265760018460036141fb565b8115156040860152606084015115613e9157600184600361423e565b6000806000614e51878761482d565b91509150614e5e856144a1565b15614e6d5760018460046141fb565b8115156060860152608084015115613e9157600184600461423e565b60408051608081018252600080825260208201819052918101829052606081019190915290565b6040518060a00160405280600590602082028038833950919291505056fe496e737472756d656e744d616e61676572426173653a2054686520696e737472756d656e7420697320616c72656164792064656163746976617465642e496e737472756d656e744d616e61676572426173653a2049737375616e6365207465726d696e617465642e496e737472756d656e744d616e61676572426173653a205769746864726177616c206973206e6f7420616c6c6f7765642e496e737472756d656e744d616e61676572426173653a204e6f7420616e20656c696769626c652074616b65722e496e737472756d656e744d616e61676572426173653a2049737375616e6365206e6f742065786973742e496e737472756d656e744d616e61676572426173653a204f6e6c79204653502063616e20757064617465206d616b65722077686974656c6973742e54696d65724f7261636c65526f6c653a2063616c6c657220646f6573206e6f742068617665207468652054696d65724f7261636c6520726f6c65496e737472756d656e744d616e61676572426173653a204f6e6c79204653502063616e207570646174652074616b65722077686974656c6973742e496e737472756d656e744d616e61676572426173653a204e6f7420616e20656c696769626c65206d616b65722e496e737472756d656e744d616e61676572426173653a205472616e7366657220736f75726365206973206e6f7420616c6c6f7765642e526f6c65733a206163636f756e7420646f6573206e6f74206861766520726f6c65496e737472756d656e744d616e61676572426173653a204f6e6c79204653502063616e20646561637469766174652074686520696e737472756d656e742e496e737472756d656e744d616e61676572426173653a20496e737472756d656e742069732064656163746976617465642e526f6c65733a206163636f756e7420697320746865207a65726f2061646472657373496e737472756d656e744d616e61676572426173653a204465706f736974206973206e6f7420616c6c6f7765642e496e737472756d656e744d616e61676572426173653a20546f6b656e2061646472657373206d757374206265207365742e496e737472756d656e744d616e61676572426173653a204d616b65722077686974656c697374206973206e6f7420656e61626c65642e496e737472756d656e744d616e61676572426173653a2054616b65722077686974656c697374206973206e6f7420656e61626c65642e496e737472756d656e744d616e61676572426173653a205472616e7366657220746172676574206973206e6f7420616c6c6f7765642e5361666545524332303a204552433230206f7065726174696f6e20646964206e6f7420737563636565645361666545524332303a20617070726f76652066726f6d206e6f6e2d7a65726f20746f206e6f6e2d7a65726f20616c6c6f77616e6365496e737472756d656e744d616e61676572426173653a20416d6f756e74206d757374206265207365742e496e737472756d656e744d616e61676572426173653a2049737375616e6365206e6f7420656e6761676561626c652ea165627a7a7230582062885a41917ec01bc2a5d4d320654608feebb50e344208820d3653f65bfac33a0029496e737472756d656e744d616e61676572426173653a20496e737472756d656e7420436f6e6669672061646472657373206d7573742062652070726f76696465642e496e737472756d656e744d616e61676572426173653a20496e737472756d656e7420706172616d6574657273206d7573742062652070726f76696465642e526f6c65733a206163636f756e7420697320746865207a65726f2061646472657373496e737472756d656e744d616e61676572426173653a204653502061646472657373206d7573742062652070726f76696465642e496e737472756d656e744d616e61676572426173653a20416c726561647920696e697469616c697a65642e496e737472756d656e744d616e61676572426173653a20496e737472756d656e742061646472657373206d7573742062652070726f76696465642e",
  "source": "pragma solidity ^0.5.0;\n\nimport \"../../access/WriterRole.sol\";\nimport \"../../escrow/EscrowBaseInterface.sol\";\nimport \"../../storage/StorageInterface.sol\";\nimport \"../../storage/StorageFactoryInterface.sol\";\nimport \"../../InstrumentConfig.sol\";\nimport \"../InstrumentBase.sol\";\nimport \"../InstrumentManagerBase.sol\";\nimport \"./InstrumentV2.sol\";\n\n/**\n * @title Instrument Manager for Instrument v2.\n * A storage contract is created for each issuance.\n */\ncontract InstrumentV2Manager is InstrumentManagerBase {\n\n    // Mapping: Issuance Id => Issuance storage contract address\n    mapping(uint256 => address) private _issuanceStorages;\n\n    /**\n     * @param fspAddress Address of FSP that activates this financial instrument.\n     * @param instrumentAddress Address of the financial instrument contract.\n     * @param instrumentConfigAddress Address of the Instrument Config contract.\n     * @param instrumentParameters Custom parameters for the Instrument Manager.\n     */\n    constructor(address fspAddress, address instrumentAddress, address instrumentConfigAddress, bytes memory instrumentParameters)\n        InstrumentManagerBase(fspAddress, instrumentAddress, instrumentConfigAddress, instrumentParameters) public {}\n\n    /**\n     * @dev Instrument type-specific issuance creation processing.\n     * @param issuanceId ID of the issuance.\n     * @param makerParametersData The custom parameters to the newly created issuance\n     * @param issuanceParametersData Issuance Parameters.\n     */\n    function _processCreateIssuance(uint256 issuanceId, bytes memory issuanceParametersData, bytes memory makerParametersData) internal\n        returns (InstrumentBase.IssuanceStates updatedState) {\n\n        // Create storage contract\n        StorageFactoryInterface storageFactory = StorageFactoryInterface(_instrumentConfig.storageFactoryAddress());\n        StorageInterface issuanceStorage = storageFactory.createStorageInstance();\n        _issuanceStorages[issuanceId] = address(issuanceStorage);\n\n        // Temporary grant writer role\n        issuanceStorage.addWriter(_instrumentAddress);\n\n        updatedState = InstrumentV2(_instrumentAddress).createIssuance(issuanceParametersData, makerParametersData, issuanceStorage);\n\n        // Revoke writer role\n        issuanceStorage.removeWriter(_instrumentAddress);\n    }\n\n    /**\n     * @dev Instrument type-specific issuance engage processing.\n     * @param issuanceId ID of the issuance.\n     * @param takerParameters The custom parameters to the new engagement\n     * @param issuanceParametersData Issuance Parameters.\n     */\n    function _processEngageIssuance(uint256 issuanceId, bytes memory issuanceParametersData, bytes memory takerParameters)\n        internal returns (InstrumentBase.IssuanceStates updatedState, bytes memory transfersData) {\n\n        // Temporary grant writer role\n        StorageInterface issuanceStorage = StorageInterface(_issuanceStorages[issuanceId]);\n        issuanceStorage.addWriter(_instrumentAddress);\n\n        (updatedState, transfersData) = InstrumentV2(_instrumentAddress).engageIssuance(issuanceParametersData,\n            takerParameters, issuanceStorage);\n\n        // Revoke writer role\n        issuanceStorage.removeWriter(_instrumentAddress);\n    }\n\n    /**\n     * @dev Instrument type-specific issuance ERC20 token deposit processing.\n     * Note: This method is called after deposit is complete, so that the Escrow reflects the balance after deposit.\n     * @param issuanceId ID of the issuance.\n     * @param issuanceParametersData Issuance Parameters.\n     * @param tokenAddress The address of the ERC20 token to deposit.\n     * @param amount The amount of ERC20 token to deposit.\n     */\n    function _processTokenDeposit(uint256 issuanceId, bytes memory issuanceParametersData, address tokenAddress, uint256 amount) internal\n        returns (InstrumentBase.IssuanceStates updatedState, bytes memory transfersData) {\n\n        // Temporary grant writer role\n        StorageInterface issuanceStorage = StorageInterface(_issuanceStorages[issuanceId]);\n        issuanceStorage.addWriter(_instrumentAddress);\n\n        (updatedState, transfersData) = InstrumentV2(_instrumentAddress).processTokenDeposit(issuanceParametersData,\n            tokenAddress, amount, issuanceStorage);\n\n        // Revoke writer role\n        issuanceStorage.removeWriter(_instrumentAddress);\n    }\n\n    /**\n     * @dev Instrument type-specific issuance ERC20 withdraw processing.\n     * Note: This method is called after withdraw is complete, so that the Escrow reflects the balance after withdraw.\n     * @param issuanceId ID of the issuance.\n     * @param issuanceParametersData Issuance Parameters.\n     * @param tokenAddress The address of the ERC20 token to withdraw.\n     * @param amount The amount of ERC20 token to withdraw.\n     */\n    function _processTokenWithdraw(uint256 issuanceId, bytes memory issuanceParametersData, address tokenAddress, uint256 amount)\n        internal returns (InstrumentBase.IssuanceStates updatedState, bytes memory transfersData) {\n\n        // Temporary grant writer role\n        StorageInterface issuanceStorage = StorageInterface(_issuanceStorages[issuanceId]);\n        issuanceStorage.addWriter(_instrumentAddress);\n\n        (updatedState, transfersData) = InstrumentV2(_instrumentAddress).processTokenWithdraw(issuanceParametersData,\n            tokenAddress, amount, issuanceStorage);\n\n        // Revoke writer role\n        issuanceStorage.removeWriter(_instrumentAddress);\n    }\n\n    /**\n     * @dev Instrument type-specific custom event processing.\n     * @param issuanceId ID of the issuance.\n     * @param issuanceParametersData Issuance Parameters.\n     * @param eventName The name of the custom event.\n     * @param eventPayload The custom parameters to the custom event\n     */\n    function _processCustomEvent(uint256 issuanceId, bytes memory issuanceParametersData, bytes32 eventName, bytes memory eventPayload)\n        internal returns (InstrumentBase.IssuanceStates updatedState, bytes memory transfersData) {\n\n        // Temporary grant writer role\n        StorageInterface issuanceStorage = StorageInterface(_issuanceStorages[issuanceId]);\n        issuanceStorage.addWriter(_instrumentAddress);\n\n        (updatedState, transfersData) = InstrumentV2(_instrumentAddress).processCustomEvent(\n            issuanceParametersData, eventName, eventPayload, issuanceStorage);\n\n        // Revoke writer role\n        issuanceStorage.removeWriter(_instrumentAddress);\n    }\n\n    /**\n     * @dev Instrument type-specific scheduled event processing.\n     * @param issuanceId ID of the issuance.\n     * @param issuanceParametersData Issuance Parameters.\n     * @param eventName The name of the custom event.\n     * @param eventPayload The custom parameters to the custom event\n     */\n    function _processScheduledEvent(uint256 issuanceId, bytes memory issuanceParametersData, bytes32 eventName, bytes memory eventPayload)\n        internal returns (InstrumentBase.IssuanceStates updatedState, bytes memory transfersData) {\n\n        // Temporary grant writer role\n        StorageInterface issuanceStorage = StorageInterface(_issuanceStorages[issuanceId]);\n        issuanceStorage.addWriter(_instrumentAddress);\n\n        (updatedState, transfersData) = InstrumentV2(_instrumentAddress).processScheduledEvent(\n            issuanceParametersData, eventName, eventPayload, issuanceStorage);\n\n        // Revoke writer role\n        issuanceStorage.removeWriter(_instrumentAddress);\n    }\n}",
  "sourcePath": "/Users/shengdading/git/nuts-platform-v2/contracts/instrument/v2/InstrumentV2Manager.sol",
  "compiler": {
    "name": "solc",
    "version": "0.5.8+commit.23d335f2.Emscripten.clang"
  },
  "schemaVersion": "3.0.16",
  "updatedAt": "2019-10-16T00:36:18.423Z",
  "devdoc": {
    "methods": {
      "constructor": {
        "params": {
          "fspAddress": "Address of FSP that activates this financial instrument.",
          "instrumentAddress": "Address of the financial instrument contract.",
          "instrumentConfigAddress": "Address of the Instrument Config contract.",
          "instrumentParameters": "Custom parameters for the Instrument Manager."
        }
      },
      "createIssuance(bytes)": {
        "details": "Create a new issuance of the financial instrument",
        "params": {
          "makerParameters": "The custom parameters to the newly created issuance"
        },
        "return": "The id of the newly created issuance."
      },
      "deactivate()": {
        "details": "Deactivates the instrument."
      },
      "depositToIssuance(uint256,uint256)": {
        "details": "The caller deposits ETH, which is currently deposited in Instrument Escrow, into issuance.",
        "params": {
          "amount": "The amount of ERC20 token transfered",
          "issuanceId": "The id of the issuance"
        }
      },
      "depositTokenToIssuance(uint256,address,uint256)": {
        "details": "The caller deposits ERC20 token, which is currently deposited in Instrument Escrow, into issuance.",
        "params": {
          "amount": "The amount of ERC20 token deposited.",
          "issuanceId": "The id of the issuance",
          "tokenAddress": "The address of the ERC20 token to deposit."
        }
      },
      "engageIssuance(uint256,bytes)": {
        "details": "A taker engages to the issuance",
        "params": {
          "issuanceId": "The id of the issuance",
          "takerParameters": "The custom parameters to the new engagement"
        }
      },
      "getInstrumentEscrowAddress()": {
        "details": "Get the Instrument Escrow."
      },
      "notifyCustomEvent(uint256,bytes32,bytes)": {
        "details": "Notify custom events to issuance. This could be invoked by any caller.",
        "params": {
          "eventName": "Name of the custom event",
          "eventPayload": "Payload of the custom event",
          "issuanceId": "The id of the issuance"
        }
      },
      "notifyScheduledEvent(uint256,bytes32,bytes)": {
        "details": "Notify scheduled events to issuance. This could be invoked by Timer Oracle only. Only the address with Timer Oracle Role can invoke notify scheduled event.",
        "params": {
          "eventName": "Name of the scheduled event, eventName of EventScheduled event",
          "eventPayload": "Payload of the scheduled event, eventPayload of EventScheduled event",
          "issuanceId": "The id of the issuance"
        }
      },
      "setMakerWhitelist(address,bool)": {
        "details": "Updates the maker whitelist. The maker whitelist only affects new issuances.",
        "params": {
          "allowed": "Whether this maker is allowed to create new issuance.",
          "makerAddress": "The maker address to update in whitelist"
        }
      },
      "setTakerWhitelist(address,bool)": {
        "details": "Updates the taker whitelist. The taker whitelist only affects new engagement.",
        "params": {
          "allowed": "Whether this taker is allowed to engage issuance.",
          "takerAddress": "The taker address to update in whitelist"
        }
      },
      "withdrawFromIssuance(uint256,uint256)": {
        "details": "The caller withdraws ETH from issuance to Instrument Escrow.",
        "params": {
          "amount": "The amount of ERC20 token transfered",
          "issuanceId": "The id of the issuance"
        }
      },
      "withdrawTokenFromIssuance(uint256,address,uint256)": {
        "details": "The caller withdraws ERC20 token from issuance to Instrument Escrow.",
        "params": {
          "amount": "The amount of ERC20 token transfered",
          "issuanceId": "The id of the issuance",
          "tokenAddress": "The address of the ERC20 token"
        }
      }
    },
    "title": "Instrument Manager for Instrument v2. A storage contract is created for each issuance."
  },
  "userdoc": {
    "methods": {}
  }
}