{
  "contractName": "InstrumentRegistry",
  "abi": [
    {
      "constant": true,
      "inputs": [],
      "name": "instrumentDeposit",
      "outputs": [
        {
          "name": "",
          "type": "uint256"
        }
      ],
      "payable": false,
      "stateMutability": "view",
      "type": "function"
    },
    {
      "constant": true,
      "inputs": [],
      "name": "depositTokenAddress",
      "outputs": [
        {
          "name": "",
          "type": "address"
        }
      ],
      "payable": false,
      "stateMutability": "view",
      "type": "function"
    },
    {
      "constant": true,
      "inputs": [],
      "name": "priceOracleAddress",
      "outputs": [
        {
          "name": "",
          "type": "address"
        }
      ],
      "payable": false,
      "stateMutability": "view",
      "type": "function"
    },
    {
      "constant": true,
      "inputs": [],
      "name": "timerOracleAddress",
      "outputs": [
        {
          "name": "",
          "type": "address"
        }
      ],
      "payable": false,
      "stateMutability": "view",
      "type": "function"
    },
    {
      "constant": true,
      "inputs": [],
      "name": "storageFactoryAddress",
      "outputs": [
        {
          "name": "",
          "type": "address"
        }
      ],
      "payable": false,
      "stateMutability": "view",
      "type": "function"
    },
    {
      "constant": true,
      "inputs": [],
      "name": "proxyAdminAddress",
      "outputs": [
        {
          "name": "",
          "type": "address"
        }
      ],
      "payable": false,
      "stateMutability": "view",
      "type": "function"
    },
    {
      "constant": true,
      "inputs": [],
      "name": "issuanceDeposit",
      "outputs": [
        {
          "name": "",
          "type": "uint256"
        }
      ],
      "payable": false,
      "stateMutability": "view",
      "type": "function"
    },
    {
      "constant": false,
      "inputs": [],
      "name": "renounceOwnership",
      "outputs": [],
      "payable": false,
      "stateMutability": "nonpayable",
      "type": "function"
    },
    {
      "constant": true,
      "inputs": [],
      "name": "owner",
      "outputs": [
        {
          "name": "",
          "type": "address"
        }
      ],
      "payable": false,
      "stateMutability": "view",
      "type": "function"
    },
    {
      "constant": true,
      "inputs": [],
      "name": "isOwner",
      "outputs": [
        {
          "name": "",
          "type": "bool"
        }
      ],
      "payable": false,
      "stateMutability": "view",
      "type": "function"
    },
    {
      "constant": true,
      "inputs": [],
      "name": "proxyFactoryAddress",
      "outputs": [
        {
          "name": "",
          "type": "address"
        }
      ],
      "payable": false,
      "stateMutability": "view",
      "type": "function"
    },
    {
      "constant": true,
      "inputs": [],
      "name": "escrowFactoryAddress",
      "outputs": [
        {
          "name": "",
          "type": "address"
        }
      ],
      "payable": false,
      "stateMutability": "view",
      "type": "function"
    },
    {
      "constant": true,
      "inputs": [],
      "name": "depositEscrowAddress",
      "outputs": [
        {
          "name": "",
          "type": "address"
        }
      ],
      "payable": false,
      "stateMutability": "view",
      "type": "function"
    },
    {
      "constant": false,
      "inputs": [
        {
          "name": "newOwner",
          "type": "address"
        }
      ],
      "name": "transferOwnership",
      "outputs": [],
      "payable": false,
      "stateMutability": "nonpayable",
      "type": "function"
    },
    {
      "inputs": [
        {
          "name": "newInstrumentDeposit",
          "type": "uint256"
        },
        {
          "name": "newIssuanceDeposit",
          "type": "uint256"
        },
        {
          "name": "newDepositTokenAddress",
          "type": "address"
        },
        {
          "name": "newProxyAdminAddress",
          "type": "address"
        },
        {
          "name": "newTimerOracleAddress",
          "type": "address"
        },
        {
          "name": "newPriceOracleAddress",
          "type": "address"
        },
        {
          "name": "newEscrowFactoryAddress",
          "type": "address"
        },
        {
          "name": "newStorageFactoryAddress",
          "type": "address"
        },
        {
          "name": "newProxyFactoryAddress",
          "type": "address"
        }
      ],
      "payable": false,
      "stateMutability": "nonpayable",
      "type": "constructor"
    },
    {
      "anonymous": false,
      "inputs": [
        {
          "indexed": true,
          "name": "previousOwner",
          "type": "address"
        },
        {
          "indexed": true,
          "name": "newOwner",
          "type": "address"
        }
      ],
      "name": "OwnershipTransferred",
      "type": "event"
    },
    {
      "constant": false,
      "inputs": [
        {
          "name": "version",
          "type": "string"
        },
        {
          "name": "instrumentManagerFactory",
          "type": "address"
        }
      ],
      "name": "setInstrumentManagerFactory",
      "outputs": [],
      "payable": false,
      "stateMutability": "nonpayable",
      "type": "function"
    },
    {
      "constant": false,
      "inputs": [
        {
          "name": "newInstrumentDeposit",
          "type": "uint256"
        }
      ],
      "name": "setInstrumentDeposit",
      "outputs": [],
      "payable": false,
      "stateMutability": "nonpayable",
      "type": "function"
    },
    {
      "constant": false,
      "inputs": [
        {
          "name": "newIssuanceDeposit",
          "type": "uint256"
        }
      ],
      "name": "setIssuanceDeposit",
      "outputs": [],
      "payable": false,
      "stateMutability": "nonpayable",
      "type": "function"
    },
    {
      "constant": false,
      "inputs": [
        {
          "name": "newProxyAdminAddress",
          "type": "address"
        }
      ],
      "name": "setProxyAdminAddress",
      "outputs": [],
      "payable": false,
      "stateMutability": "nonpayable",
      "type": "function"
    },
    {
      "constant": false,
      "inputs": [
        {
          "name": "newTimerOracleAddress",
          "type": "address"
        }
      ],
      "name": "setTimerOracleAddress",
      "outputs": [],
      "payable": false,
      "stateMutability": "nonpayable",
      "type": "function"
    },
    {
      "constant": false,
      "inputs": [
        {
          "name": "newEscrowFactoryAddress",
          "type": "address"
        }
      ],
      "name": "setEscrowFactoryAddress",
      "outputs": [],
      "payable": false,
      "stateMutability": "nonpayable",
      "type": "function"
    },
    {
      "constant": false,
      "inputs": [
        {
          "name": "newStorageFactoryAddress",
          "type": "address"
        }
      ],
      "name": "setStorageFactoryAddress",
      "outputs": [],
      "payable": false,
      "stateMutability": "nonpayable",
      "type": "function"
    },
    {
      "constant": false,
      "inputs": [
        {
          "name": "newProxyFactoryAddress",
          "type": "address"
        }
      ],
      "name": "setProxyFactoryAddress",
      "outputs": [],
      "payable": false,
      "stateMutability": "nonpayable",
      "type": "function"
    },
    {
      "constant": false,
      "inputs": [
        {
          "name": "instrumentAddress",
          "type": "address"
        },
        {
          "name": "version",
          "type": "string"
        },
        {
          "name": "instrumentParameters",
          "type": "bytes"
        }
      ],
      "name": "activateInstrument",
      "outputs": [
        {
          "name": "",
          "type": "address"
        }
      ],
      "payable": false,
      "stateMutability": "nonpayable",
      "type": "function"
    },
    {
      "constant": true,
      "inputs": [
        {
          "name": "instrumentAddress",
          "type": "address"
        }
      ],
      "name": "lookupInstrumentManager",
      "outputs": [
        {
          "name": "instrumentManagerAddress",
          "type": "address"
        }
      ],
      "payable": false,
      "stateMutability": "view",
      "type": "function"
    }
  ],
  "bytecode": "0x60806040523480156200001157600080fd5b506040516101208062001afc83398101806040526101208110156200003557600080fd5b50805160208201516040808401516060850151608086015160a087015160c088015160e089015161010090990151600080546001600160a01b03191633178082559751999a989996989597949693959294929391926001600160a01b0316917f8be0079c531659141344cd1fd0a4f28419497f9722a3daafe3b4186f6b6457e0908290a36004546001600160a01b0316156200011d576040517f08c379a0000000000000000000000000000000000000000000000000000000008152600401808060200182810382526028815260200180620019386028913960400191505060405180910390fd5b6001600160a01b0387166200017e576040517f08c379a000000000000000000000000000000000000000000000000000000000815260040180806020018281038252603b81526020018062001960603b913960400191505060405180910390fd5b6001600160a01b038616620001df576040517f08c379a00000000000000000000000000000000000000000000000000000000081526004018080602001828103825260398152602001806200199b6039913960400191505060405180910390fd5b6001600160a01b03851662000240576040517f08c379a000000000000000000000000000000000000000000000000000000000815260040180806020018281038252603a815260200180620019d4603a913960400191505060405180910390fd5b6001600160a01b038416620002a1576040517f08c379a000000000000000000000000000000000000000000000000000000000815260040180806020018281038252603a81526020018062001ac2603a913960400191505060405180910390fd5b6001600160a01b03831662000302576040517f08c379a000000000000000000000000000000000000000000000000000000000815260040180806020018281038252603c81526020018062001a4b603c913960400191505060405180910390fd5b6001600160a01b03821662000363576040517f08c379a000000000000000000000000000000000000000000000000000000000815260040180806020018281038252603d81526020018062001a0e603d913960400191505060405180910390fd5b6001600160a01b038116620003c4576040517f08c379a000000000000000000000000000000000000000000000000000000000815260040180806020018281038252603b81526020018062001a87603b913960400191505060405180910390fd5b60018990556002889055600480546001600160a01b03199081166001600160a01b038a81169190911783556005805483168a8316179055600680548316898316179055600780548316888316179055600880548316878316908117909155600980548416878416179055600a805490931691851691909117909155604080517fad7bd2940000000000000000000000000000000000000000000000000000000081529051869363ad7bd294928082019260209290918290030181600087803b1580156200049057600080fd5b505af1158015620004a5573d6000803e3d6000fd5b505050506040513d6020811015620004bc57600080fd5b5051600380546001600160a01b039092166001600160a01b03199092169190911790555050505050505050505061143f80620004f96000396000f3fe608060405234801561001057600080fd5b50600436106101985760003560e01c806389bd272b116100e3578063c3f37e0f1161008c578063e755926011610066578063e755926014610527578063eea96d751461052f578063f2fde38b1461055557610198565b8063c3f37e0f146104dc578063d9e86f1d146104f9578063e4b376ad1461050157610198565b80638f32d59b116100bd5780638f32d59b14610492578063b543c0cd146104ae578063be5405d2146104d457610198565b806389bd272b146103275780638d5f93b0146104645780638da5cb5b1461048a57610198565b806342147b51116101455780635a3636671161011f5780635a363667146102fa578063715018a61461030257806372be6b501461030a57610198565b806342147b51146102c45780634b3667e3146102ea5780635979e755146102f257610198565b806323dc9e371161017657806323dc9e37146102905780632bc51c6d146102b4578063406b95c1146102bc57610198565b806307db23c41461019d5780631e081f09146101c557806320ae3938146101df575b600080fd5b6101c3600480360360208110156101b357600080fd5b50356001600160a01b031661057b565b005b6101cd6105f9565b60408051918252519081900360200190f35b6101c3600480360360408110156101f557600080fd5b81019060208101813564010000000081111561021057600080fd5b82018360208201111561022257600080fd5b8035906020019184600183028401116401000000008311171561024457600080fd5b91908080601f016020809104026020016040519081016040528093929190818152602001838380828437600092019190915250929550505090356001600160a01b031691506105ff9050565b6102986106de565b604080516001600160a01b039092168252519081900360200190f35b6102986106ed565b6102986106fc565b6101c3600480360360208110156102da57600080fd5b50356001600160a01b031661070b565b610298610789565b610298610798565b6101cd6107a7565b6101c36107ad565b6101c36004803603602081101561032057600080fd5b5035610853565b6102986004803603606081101561033d57600080fd5b6001600160a01b03823516919081019060408101602082013564010000000081111561036857600080fd5b82018360208201111561037a57600080fd5b8035906020019184600183028401116401000000008311171561039c57600080fd5b91908080601f01602080910402602001604051908101604052809392919081815260200183838082843760009201919091525092959493602081019350359150506401000000008111156103ef57600080fd5b82018360208201111561040157600080fd5b8035906020019184600183028401116401000000008311171561042357600080fd5b91908080601f0160208091040260200160405190810160405280939291908181526020018383808284376000920191909152509295506108b4945050505050565b6102986004803603602081101561047a57600080fd5b50356001600160a01b0316610beb565b610298610c09565b61049a610c18565b604080519115158252519081900360200190f35b6101c3600480360360208110156104c457600080fd5b50356001600160a01b0316610c29565b610298610ca7565b6101c3600480360360208110156104f257600080fd5b5035610cb6565b610298610d17565b6101c36004803603602081101561051757600080fd5b50356001600160a01b0316610d26565b610298610da4565b6101c36004803603602081101561054557600080fd5b50356001600160a01b0316610db3565b6101c36004803603602081101561056b57600080fd5b50356001600160a01b0316610e31565b610583610c18565b6105d75760408051600160e51b62461bcd02815260206004820181905260248201527f4f776e61626c653a2063616c6c6572206973206e6f7420746865206f776e6572604482015290519081900360640190fd5b600680546001600160a01b0319166001600160a01b0392909216919091179055565b60015481565b610607610c18565b61065b5760408051600160e51b62461bcd02815260206004820181905260248201527f4f776e61626c653a2063616c6c6572206973206e6f7420746865206f776e6572604482015290519081900360640190fd5b80600c836040518082805190602001908083835b6020831061068e5780518252601f19909201916020918201910161066f565b51815160209384036101000a6000190180199092169116179052920194855250604051938490030190922080546001600160a01b0319166001600160a01b03949094169390931790925550505050565b6004546001600160a01b031681565b6007546001600160a01b031681565b6006546001600160a01b031681565b610713610c18565b6107675760408051600160e51b62461bcd02815260206004820181905260248201527f4f776e61626c653a2063616c6c6572206973206e6f7420746865206f776e6572604482015290519081900360640190fd5b600580546001600160a01b0319166001600160a01b0392909216919091179055565b6009546001600160a01b031681565b6005546001600160a01b031681565b60025481565b6107b5610c18565b6108095760408051600160e51b62461bcd02815260206004820181905260248201527f4f776e61626c653a2063616c6c6572206973206e6f7420746865206f776e6572604482015290519081900360640190fd5b600080546040516001600160a01b03909116907f8be0079c531659141344cd1fd0a4f28419497f9722a3daafe3b4186f6b6457e0908390a3600080546001600160a01b0319169055565b61085b610c18565b6108af5760408051600160e51b62461bcd02815260206004820181905260248201527f4f776e61626c653a2063616c6c6572206973206e6f7420746865206f776e6572604482015290519081900360640190fd5b600255565b6001600160a01b038381166000908152600b60205260408120549091161561091057604051600160e51b62461bcd02815260040180806020018281038252603181526020018061134b6031913960400191505060405180910390fd5b6001600160a01b03841661095857604051600160e51b62461bcd0281526004018080602001828103825260388152602001806113dc6038913960400191505060405180910390fd5b6000600c846040518082805190602001908083835b6020831061098c5780518252601f19909201916020918201910161096d565b51815160209384036101000a60001901801990921691161790529201948552506040519384900381018420547f78cfd26100000000000000000000000000000000000000000000000000000000855233600486018181526001600160a01b038c811660248901523060448901819052608060648a019081528c5160848b01528c5192909516986378cfd26198509396508d9590948c94909260a49091019185019080838360005b83811015610a4b578181015183820152602001610a33565b50505050905090810190601f168015610a785780820380516001836020036101000a031916815260200191505b5095505050505050602060405180830381600087803b158015610a9a57600080fd5b505af1158015610aae573d6000803e3d6000fd5b505050506040513d6020811015610ac457600080fd5b50516001600160a01b038681166000908152600b6020526040902080546001600160a01b03191691831691909117905560015490915015610be357600154600454610b24916001600160a01b03909116903390309063ffffffff610e9916565b600354600154600454610b4b926001600160a01b039182169291169063ffffffff610f2716565b60035460048054600154604080517f810c0af80000000000000000000000000000000000000000000000000000000081526001600160a01b03878116958201959095529284166024840152604483019190915251919092169163810c0af891606480830192600092919082900301818387803b158015610bca57600080fd5b505af1158015610bde573d6000803e3d6000fd5b505050505b949350505050565b6001600160a01b039081166000908152600b60205260409020541690565b6000546001600160a01b031690565b6000546001600160a01b0316331490565b610c31610c18565b610c855760408051600160e51b62461bcd02815260206004820181905260248201527f4f776e61626c653a2063616c6c6572206973206e6f7420746865206f776e6572604482015290519081900360640190fd5b600a80546001600160a01b0319166001600160a01b0392909216919091179055565b600a546001600160a01b031681565b610cbe610c18565b610d125760408051600160e51b62461bcd02815260206004820181905260248201527f4f776e61626c653a2063616c6c6572206973206e6f7420746865206f776e6572604482015290519081900360640190fd5b600155565b6008546001600160a01b031681565b610d2e610c18565b610d825760408051600160e51b62461bcd02815260206004820181905260248201527f4f776e61626c653a2063616c6c6572206973206e6f7420746865206f776e6572604482015290519081900360640190fd5b600980546001600160a01b0319166001600160a01b0392909216919091179055565b6003546001600160a01b031681565b610dbb610c18565b610e0f5760408051600160e51b62461bcd02815260206004820181905260248201527f4f776e61626c653a2063616c6c6572206973206e6f7420746865206f776e6572604482015290519081900360640190fd5b600880546001600160a01b0319166001600160a01b0392909216919091179055565b610e39610c18565b610e8d5760408051600160e51b62461bcd02815260206004820181905260248201527f4f776e61626c653a2063616c6c6572206973206e6f7420746865206f776e6572604482015290519081900360640190fd5b610e9681611089565b50565b604080516001600160a01b0385811660248301528416604482015260648082018490528251808303909101815260849091019091526020810180517bffffffffffffffffffffffffffffffffffffffffffffffffffffffff167f23b872dd00000000000000000000000000000000000000000000000000000000179052610f2190859061112c565b50505050565b801580610fc65750604080517fdd62ed3e0000000000000000000000000000000000000000000000000000000081523060048201526001600160a01b03848116602483015291519185169163dd62ed3e91604480820192602092909190829003018186803b158015610f9857600080fd5b505afa158015610fac573d6000803e3d6000fd5b505050506040513d6020811015610fc257600080fd5b5051155b61100457604051600160e51b62461bcd0281526004018080602001828103825260368152602001806113a66036913960400191505060405180910390fd5b604080516001600160a01b038416602482015260448082018490528251808303909101815260649091019091526020810180517bffffffffffffffffffffffffffffffffffffffffffffffffffffffff167f095ea7b30000000000000000000000000000000000000000000000000000000017905261108490849061112c565b505050565b6001600160a01b0381166110d157604051600160e51b62461bcd0281526004018080602001828103825260268152602001806113256026913960400191505060405180910390fd5b600080546040516001600160a01b03808516939216917f8be0079c531659141344cd1fd0a4f28419497f9722a3daafe3b4186f6b6457e091a3600080546001600160a01b0319166001600160a01b0392909216919091179055565b61113e826001600160a01b03166112ed565b6111925760408051600160e51b62461bcd02815260206004820152601f60248201527f5361666545524332303a2063616c6c20746f206e6f6e2d636f6e747261637400604482015290519081900360640190fd5b60006060836001600160a01b0316836040518082805190602001908083835b602083106111d05780518252601f1990920191602091820191016111b1565b6001836020036101000a0380198251168184511680821785525050505050509050019150506000604051808303816000865af19150503d8060008114611232576040519150601f19603f3d011682016040523d82523d6000602084013e611237565b606091505b5091509150816112915760408051600160e51b62461bcd02815260206004820181905260248201527f5361666545524332303a206c6f772d6c6576656c2063616c6c206661696c6564604482015290519081900360640190fd5b805115610f21578080602001905160208110156112ad57600080fd5b5051610f2157604051600160e51b62461bcd02815260040180806020018281038252602a81526020018061137c602a913960400191505060405180910390fd5b6000813f7fc5d2460186f7233c927e7db2dcc703c0e500b653ca82273b7bfad8045d85a4708115801590610be3575014159291505056fe4f776e61626c653a206e6577206f776e657220697320746865207a65726f2061646472657373496e737472756d656e7452656769737472793a20496e737472756d656e7420616c7265616479206163746976617465642e5361666545524332303a204552433230206f7065726174696f6e20646964206e6f7420737563636565645361666545524332303a20617070726f76652066726f6d206e6f6e2d7a65726f20746f206e6f6e2d7a65726f20616c6c6f77616e6365496e737472756d656e7452656769737472793a20496e737472756d656e742061646472657373206d7573742062652070726f76696465642ea165627a7a72305820af1b2dd9e7d96893820c3ef767984708466333d51ba1d13aba40e27da9ca9a7c0029496e737472756d656e7452656769737472793a20416c726561647920696e697469616c697a65642e496e737472756d656e7452656769737472793a204465706f73697420746f6b656e2061646472657373206d7573742062652070726f76696465642e496e737472756d656e7452656769737472793a2050726f78792061646d696e2061646472657373206d7573742062652070726f76696465642e496e737472756d656e7452656769737472793a2054696d6572204f7261636c652061646472657373206d7573742062652070726f76696465642e496e737472756d656e7452656769737472793a2053746f7261676520466163746f72792061646472657373206d7573742062652070726f76696465642e496e737472756d656e7452656769737472793a20457363726f7720466163746f72792061646472657373206d7573742062652070726f76696465642e496e737472756d656e7452656769737472793a2050726f787920466163746f72792061646472657373206d7573742062652070726f76696465642e496e737472756d656e7452656769737472793a205072696365204f7261636c652061646472657373206d7573742062652070726f76696465642e",
  "source": "pragma solidity ^0.5.0;\n\nimport \"./escrow/DepositEscrowInterface.sol\";\nimport \"./escrow/EscrowFactoryInterface.sol\";\nimport \"./storage/StorageFactoryInterface.sol\";\nimport \"./instrument/InstrumentManagerInterface.sol\";\nimport \"./instrument/InstrumentManagerFactoryInterface.sol\";\nimport \"./lib/token/IERC20.sol\";\nimport \"./lib/token/SafeERC20.sol\";\nimport \"./lib/access/Ownable.sol\";\nimport \"./lib/proxy/ProxyFactoryInterface.sol\";\nimport \"./InstrumentConfig.sol\";\n\n/**\n * @title Instrument Registry.\n */\ncontract InstrumentRegistry is Ownable, InstrumentConfig {\n\n    using SafeERC20 for IERC20;\n\n    // Mapping: Instrument Address => Instrument Manager Address\n    mapping(address => address) private _instrumentManagers;\n    // Mapping: Version => Instrument Manager Factory\n    mapping(string => InstrumentManagerFactoryInterface) private _instrumentManagerFactories;\n\n    /**\n     * @dev Initialization method for Instrument Registry.\n     * @param newInstrumentDeposit The NUTS token deposited for new Instrument,\n     * @param newIssuanceDeposit The NUTS token deposited for new Issuance.\n     * @param newDepositTokenAddress Address of NUTS token.\n     * @param newProxyAdminAddress Address of proxy admin.\n     * @param newTimerOracleAddress Address of Timer Oracle\n     * @param newPriceOracleAddress Address of Price Oracle\n     * @param newEscrowFactoryAddress Address of Escrow Factory.\n     * @param newStorageFactoryAddress Address of Storage Factory.\n     * @param newProxyFactoryAddress Address of Proxy Factory.\n     */\n    constructor(uint256 newInstrumentDeposit, uint256 newIssuanceDeposit, address newDepositTokenAddress,\n        address newProxyAdminAddress, address newTimerOracleAddress, address newPriceOracleAddress,\n        address newEscrowFactoryAddress, address newStorageFactoryAddress, address newProxyFactoryAddress) public {\n        require(address(depositTokenAddress) == address(0x0), \"InstrumentRegistry: Already initialized.\");\n        require(newDepositTokenAddress != address(0x0), \"InstrumentRegistry: Deposit token address must be provided.\");\n        require(newProxyAdminAddress != address(0x0), \"InstrumentRegistry: Proxy admin address must be provided.\");\n        require(newTimerOracleAddress != address(0x0), \"InstrumentRegistry: Timer Oracle address must be provided.\");\n        require(newPriceOracleAddress != address(0x0), \"InstrumentRegistry: Price Oracle address must be provided.\");\n        require(newEscrowFactoryAddress != address(0x0), \"InstrumentRegistry: Escrow Factory address must be provided.\");\n        require(newStorageFactoryAddress != address(0x0), \"InstrumentRegistry: Storage Factory address must be provided.\");\n        require(newProxyFactoryAddress != address(0x0), \"InstrumentRegistry: Proxy Factory address must be provided.\");\n\n        instrumentDeposit = newInstrumentDeposit;\n        issuanceDeposit = newIssuanceDeposit;\n        depositTokenAddress = newDepositTokenAddress;\n        proxyAdminAddress = newProxyAdminAddress;\n        timerOracleAddress = newTimerOracleAddress;\n        priceOracleAddress = newPriceOracleAddress;\n        escrowFactoryAddress = newEscrowFactoryAddress;\n        storageFactoryAddress = newStorageFactoryAddress;\n        proxyFactoryAddress = newProxyFactoryAddress;\n\n        // Create new Deposit Escrow\n        EscrowFactoryInterface escrowFactory = EscrowFactoryInterface(newEscrowFactoryAddress);\n        depositEscrowAddress = address(escrowFactory.createDepositEscrow());\n    }\n\n    /**\n     * @dev Update Instrument Manager Factory\n     */\n    function setInstrumentManagerFactory(string memory version, InstrumentManagerFactoryInterface instrumentManagerFactory) public onlyOwner {\n        _instrumentManagerFactories[version] = instrumentManagerFactory;\n    }\n\n    /**\n     * @dev Update instrument deposit amount.\n     */\n    function setInstrumentDeposit(uint256 newInstrumentDeposit) public onlyOwner {\n        instrumentDeposit = newInstrumentDeposit;\n    }\n\n    /**\n     * @dev Update issuance deposit amount.\n     */\n    function setIssuanceDeposit(uint256 newIssuanceDeposit) public onlyOwner {\n        issuanceDeposit = newIssuanceDeposit;\n    }\n\n    /**\n     * @dev Update proxy admin address.\n     */\n    function setProxyAdminAddress(address newProxyAdminAddress) public onlyOwner {\n        proxyAdminAddress = newProxyAdminAddress;\n    }\n\n    /**\n     * @dev Update Timer Oracle address.\n     */\n    function setTimerOracleAddress(address newTimerOracleAddress) public onlyOwner {\n        timerOracleAddress = newTimerOracleAddress;\n    }\n\n    /**\n     * @dev Update Escrow Factory address.\n     */\n    function setEscrowFactoryAddress(address newEscrowFactoryAddress) public onlyOwner {\n        escrowFactoryAddress = newEscrowFactoryAddress;\n    }\n\n    /**\n     * @dev Update Storage Factory address.\n     */\n    function setStorageFactoryAddress(address newStorageFactoryAddress) public onlyOwner {\n        storageFactoryAddress = newStorageFactoryAddress;\n    }\n\n    /**\n     * @dev Update Proxy Factory address.\n     */\n    function setProxyFactoryAddress(address newProxyFactoryAddress) public onlyOwner {\n        proxyFactoryAddress = newProxyFactoryAddress;\n    }\n\n    /**\n     * @dev MOST IMPORTANT method: Activate new financial instrument.\n     * @param instrumentAddress Address of Instrument to activate.\n     * @param version Version of Instrument.\n     * @param instrumentParameters Custom parameters for this instrument.\n     */\n    function activateInstrument(address instrumentAddress, string memory version, bytes memory instrumentParameters)\n        public returns (InstrumentManagerInterface) {\n        require(_instrumentManagers[instrumentAddress] == address(0x0), \"InstrumentRegistry: Instrument already activated.\");\n        require(instrumentAddress != address(0x0), \"InstrumentRegistry: Instrument address must be provided.\");\n\n        // Create Instrument Manager\n        InstrumentManagerInterface instrumentManager = _instrumentManagerFactories[version].createInstrumentManagerInstance(\n            msg.sender, instrumentAddress, address(this), instrumentParameters);\n\n        _instrumentManagers[instrumentAddress] = address(instrumentManager);\n\n        if (instrumentDeposit > 0) {\n            // Transfer NUTS token to deposit from FSP\n            IERC20(depositTokenAddress).safeTransferFrom(msg.sender, address(this), instrumentDeposit);\n            // Deposit the NUTS token to Deposit Escrow, under the account of the newly created Instrument Manager.\n            IERC20(depositTokenAddress).safeApprove(depositEscrowAddress, instrumentDeposit);\n            DepositEscrowInterface(depositEscrowAddress).depositTokenByAdmin(address(instrumentManager),\n                depositTokenAddress, instrumentDeposit);\n        }\n\n        return instrumentManager;\n    }\n\n    /**\n     * @dev Retrieve Instrument Manager address by Instrument address.\n     */\n    function lookupInstrumentManager(address instrumentAddress) public view\n        returns (address instrumentManagerAddress) {\n        return _instrumentManagers[instrumentAddress];\n    }\n}\n",
  "sourcePath": "/Users/shengdading/git/nuts-platform-v2/contracts/InstrumentRegistry.sol",
  "compiler": {
    "name": "solc",
    "version": "0.5.8+commit.23d335f2.Emscripten.clang"
  },
  "schemaVersion": "3.0.16",
  "updatedAt": "2019-10-16T00:36:18.378Z",
  "devdoc": {
    "methods": {
      "activateInstrument(address,string,bytes)": {
        "details": "MOST IMPORTANT method: Activate new financial instrument.",
        "params": {
          "instrumentAddress": "Address of Instrument to activate.",
          "instrumentParameters": "Custom parameters for this instrument.",
          "version": "Version of Instrument."
        }
      },
      "constructor": {
        "details": "Initialization method for Instrument Registry.",
        "params": {
          "newDepositTokenAddress": "Address of NUTS token.",
          "newEscrowFactoryAddress": "Address of Escrow Factory.",
          "newInstrumentDeposit": "The NUTS token deposited for new Instrument,",
          "newIssuanceDeposit": "The NUTS token deposited for new Issuance.",
          "newPriceOracleAddress": "Address of Price Oracle",
          "newProxyAdminAddress": "Address of proxy admin.",
          "newProxyFactoryAddress": "Address of Proxy Factory.",
          "newStorageFactoryAddress": "Address of Storage Factory.",
          "newTimerOracleAddress": "Address of Timer Oracle"
        }
      },
      "isOwner()": {
        "details": "Returns true if the caller is the current owner."
      },
      "lookupInstrumentManager(address)": {
        "details": "Retrieve Instrument Manager address by Instrument address."
      },
      "owner()": {
        "details": "Returns the address of the current owner."
      },
      "renounceOwnership()": {
        "details": "Leaves the contract without owner. It will not be possible to call `onlyOwner` functions anymore. Can only be called by the current owner.     * NOTE: Renouncing ownership will leave the contract without an owner, thereby removing any functionality that is only available to the owner."
      },
      "setEscrowFactoryAddress(address)": {
        "details": "Update Escrow Factory address."
      },
      "setInstrumentDeposit(uint256)": {
        "details": "Update instrument deposit amount."
      },
      "setInstrumentManagerFactory(string,address)": {
        "details": "Update Instrument Manager Factory"
      },
      "setIssuanceDeposit(uint256)": {
        "details": "Update issuance deposit amount."
      },
      "setProxyAdminAddress(address)": {
        "details": "Update proxy admin address."
      },
      "setProxyFactoryAddress(address)": {
        "details": "Update Proxy Factory address."
      },
      "setStorageFactoryAddress(address)": {
        "details": "Update Storage Factory address."
      },
      "setTimerOracleAddress(address)": {
        "details": "Update Timer Oracle address."
      },
      "transferOwnership(address)": {
        "details": "Transfers ownership of the contract to a new account (`newOwner`). Can only be called by the current owner."
      }
    },
    "title": "Instrument Registry."
  },
  "userdoc": {
    "methods": {}
  }
}