{
  "contractName": "InstrumentRegistry",
  "abi": [
    {
      "constant": true,
      "inputs": [],
      "name": "instrumentDeposit",
      "outputs": [
        {
          "name": "",
          "type": "uint256"
        }
      ],
      "payable": false,
      "stateMutability": "view",
      "type": "function"
    },
    {
      "constant": true,
      "inputs": [],
      "name": "depositTokenAddress",
      "outputs": [
        {
          "name": "",
          "type": "address"
        }
      ],
      "payable": false,
      "stateMutability": "view",
      "type": "function"
    },
    {
      "constant": true,
      "inputs": [],
      "name": "priceOracleAddress",
      "outputs": [
        {
          "name": "",
          "type": "address"
        }
      ],
      "payable": false,
      "stateMutability": "view",
      "type": "function"
    },
    {
      "constant": true,
      "inputs": [],
      "name": "timerOracleAddress",
      "outputs": [
        {
          "name": "",
          "type": "address"
        }
      ],
      "payable": false,
      "stateMutability": "view",
      "type": "function"
    },
    {
      "constant": true,
      "inputs": [],
      "name": "storageFactoryAddress",
      "outputs": [
        {
          "name": "",
          "type": "address"
        }
      ],
      "payable": false,
      "stateMutability": "view",
      "type": "function"
    },
    {
      "constant": true,
      "inputs": [],
      "name": "proxyAdminAddress",
      "outputs": [
        {
          "name": "",
          "type": "address"
        }
      ],
      "payable": false,
      "stateMutability": "view",
      "type": "function"
    },
    {
      "constant": true,
      "inputs": [],
      "name": "issuanceDeposit",
      "outputs": [
        {
          "name": "",
          "type": "uint256"
        }
      ],
      "payable": false,
      "stateMutability": "view",
      "type": "function"
    },
    {
      "constant": false,
      "inputs": [],
      "name": "renounceOwnership",
      "outputs": [],
      "payable": false,
      "stateMutability": "nonpayable",
      "type": "function"
    },
    {
      "constant": true,
      "inputs": [],
      "name": "owner",
      "outputs": [
        {
          "name": "",
          "type": "address"
        }
      ],
      "payable": false,
      "stateMutability": "view",
      "type": "function"
    },
    {
      "constant": true,
      "inputs": [],
      "name": "isOwner",
      "outputs": [
        {
          "name": "",
          "type": "bool"
        }
      ],
      "payable": false,
      "stateMutability": "view",
      "type": "function"
    },
    {
      "constant": true,
      "inputs": [],
      "name": "proxyFactoryAddress",
      "outputs": [
        {
          "name": "",
          "type": "address"
        }
      ],
      "payable": false,
      "stateMutability": "view",
      "type": "function"
    },
    {
      "constant": true,
      "inputs": [],
      "name": "escrowFactoryAddress",
      "outputs": [
        {
          "name": "",
          "type": "address"
        }
      ],
      "payable": false,
      "stateMutability": "view",
      "type": "function"
    },
    {
      "constant": true,
      "inputs": [],
      "name": "depositEscrowAddress",
      "outputs": [
        {
          "name": "",
          "type": "address"
        }
      ],
      "payable": false,
      "stateMutability": "view",
      "type": "function"
    },
    {
      "constant": false,
      "inputs": [
        {
          "name": "newOwner",
          "type": "address"
        }
      ],
      "name": "transferOwnership",
      "outputs": [],
      "payable": false,
      "stateMutability": "nonpayable",
      "type": "function"
    },
    {
      "anonymous": false,
      "inputs": [
        {
          "indexed": true,
          "name": "previousOwner",
          "type": "address"
        },
        {
          "indexed": true,
          "name": "newOwner",
          "type": "address"
        }
      ],
      "name": "OwnershipTransferred",
      "type": "event"
    },
    {
      "constant": false,
      "inputs": [
        {
          "name": "owner",
          "type": "address"
        },
        {
          "name": "newInstrumentDeposit",
          "type": "uint256"
        },
        {
          "name": "newIssuanceDeposit",
          "type": "uint256"
        },
        {
          "name": "newDepositTokenAddress",
          "type": "address"
        },
        {
          "name": "newProxyAdminAddress",
          "type": "address"
        },
        {
          "name": "newTimerOracleAddress",
          "type": "address"
        },
        {
          "name": "newPriceOracleAddress",
          "type": "address"
        },
        {
          "name": "newInstrumentManagerFactoryAddress",
          "type": "address"
        },
        {
          "name": "newEscrowFactoryAddress",
          "type": "address"
        },
        {
          "name": "newStorageFactoryAddress",
          "type": "address"
        },
        {
          "name": "newProxyFactoryAddress",
          "type": "address"
        }
      ],
      "name": "initialize",
      "outputs": [],
      "payable": false,
      "stateMutability": "nonpayable",
      "type": "function"
    },
    {
      "constant": false,
      "inputs": [
        {
          "name": "instrumentManagerFactory",
          "type": "address"
        }
      ],
      "name": "setInstrumentManagerFactory",
      "outputs": [],
      "payable": false,
      "stateMutability": "nonpayable",
      "type": "function"
    },
    {
      "constant": false,
      "inputs": [
        {
          "name": "newInstrumentDeposit",
          "type": "uint256"
        }
      ],
      "name": "setInstrumentDeposit",
      "outputs": [],
      "payable": false,
      "stateMutability": "nonpayable",
      "type": "function"
    },
    {
      "constant": false,
      "inputs": [
        {
          "name": "newIssuanceDeposit",
          "type": "uint256"
        }
      ],
      "name": "setIssuanceDeposit",
      "outputs": [],
      "payable": false,
      "stateMutability": "nonpayable",
      "type": "function"
    },
    {
      "constant": false,
      "inputs": [
        {
          "name": "newProxyAdminAddress",
          "type": "address"
        }
      ],
      "name": "setProxyAdminAddress",
      "outputs": [],
      "payable": false,
      "stateMutability": "nonpayable",
      "type": "function"
    },
    {
      "constant": false,
      "inputs": [
        {
          "name": "newTimerOracleAddress",
          "type": "address"
        }
      ],
      "name": "setTimerOracleAddress",
      "outputs": [],
      "payable": false,
      "stateMutability": "nonpayable",
      "type": "function"
    },
    {
      "constant": false,
      "inputs": [
        {
          "name": "newEscrowFactoryAddress",
          "type": "address"
        }
      ],
      "name": "setEscrowFactoryAddress",
      "outputs": [],
      "payable": false,
      "stateMutability": "nonpayable",
      "type": "function"
    },
    {
      "constant": false,
      "inputs": [
        {
          "name": "newStorageFactoryAddress",
          "type": "address"
        }
      ],
      "name": "setStorageFactoryAddress",
      "outputs": [],
      "payable": false,
      "stateMutability": "nonpayable",
      "type": "function"
    },
    {
      "constant": false,
      "inputs": [
        {
          "name": "newProxyFactoryAddress",
          "type": "address"
        }
      ],
      "name": "setProxyFactoryAddress",
      "outputs": [],
      "payable": false,
      "stateMutability": "nonpayable",
      "type": "function"
    },
    {
      "constant": false,
      "inputs": [
        {
          "name": "instrumentAddress",
          "type": "address"
        },
        {
          "name": "version",
          "type": "string"
        },
        {
          "name": "instrumentParameters",
          "type": "bytes"
        }
      ],
      "name": "activateInstrument",
      "outputs": [
        {
          "name": "",
          "type": "address"
        }
      ],
      "payable": false,
      "stateMutability": "nonpayable",
      "type": "function"
    },
    {
      "constant": true,
      "inputs": [
        {
          "name": "instrumentAddress",
          "type": "address"
        }
      ],
      "name": "lookupInstrumentManager",
      "outputs": [
        {
          "name": "instrumentManagerAddress",
          "type": "address"
        }
      ],
      "payable": false,
      "stateMutability": "view",
      "type": "function"
    }
  ],
  "bytecode": "0x60806040819052600080546001600160a01b03191633178082556001600160a01b0316917f8be0079c531659141344cd1fd0a4f28419497f9722a3daafe3b4186f6b6457e0908290a3611a4f806100576000396000f3fe608060405234801561001057600080fd5b50600436106101a35760003560e01c806389bd272b116100ee578063c3f37e0f11610097578063e755926011610071578063e7559260146104a7578063ee41a5dc146104af578063eea96d7514610527578063f2fde38b1461054d576101a3565b8063c3f37e0f1461045c578063d9e86f1d14610479578063e4b376ad14610481576101a3565b80638f32d59b116100c85780638f32d59b14610412578063b543c0cd1461042e578063be5405d214610454576101a3565b806389bd272b146102a75780638d5f93b0146103e45780638da5cb5b1461040a576101a3565b806342147b51116101505780635a3636671161012a5780635a3636671461027a578063715018a61461028257806372be6b501461028a576101a3565b806342147b51146102445780634b3667e31461026a5780635979e75514610272576101a3565b80632bc51c6d116101815780632bc51c6d1461020e5780633c74498214610216578063406b95c11461023c576101a3565b806307db23c4146101a85780631e081f09146101d057806323dc9e37146101ea575b600080fd5b6101ce600480360360208110156101be57600080fd5b50356001600160a01b0316610573565b005b6101d86105f1565b60408051918252519081900360200190f35b6101f26105f7565b604080516001600160a01b039092168252519081900360200190f35b6101f2610606565b6101ce6004803603602081101561022c57600080fd5b50356001600160a01b0316610615565b6101f2610693565b6101ce6004803603602081101561025a57600080fd5b50356001600160a01b03166106a2565b6101f2610720565b6101f261072f565b6101d861073e565b6101ce610744565b6101ce600480360360208110156102a057600080fd5b50356107ea565b6101f2600480360360608110156102bd57600080fd5b6001600160a01b0382351691908101906040810160208201356401000000008111156102e857600080fd5b8201836020820111156102fa57600080fd5b8035906020019184600183028401116401000000008311171561031c57600080fd5b91908080601f016020809104026020016040519081016040528093929190818152602001838380828437600092019190915250929594936020810193503591505064010000000081111561036f57600080fd5b82018360208201111561038157600080fd5b803590602001918460018302840111640100000000831117156103a357600080fd5b91908080601f01602080910402602001604051908101604052809392919081815260200183838082843760009201919091525092955061084b945050505050565b6101f2600480360360208110156103fa57600080fd5b50356001600160a01b0316610bb4565b6101f2610bd2565b61041a610be1565b604080519115158252519081900360200190f35b6101ce6004803603602081101561044457600080fd5b50356001600160a01b0316610bf2565b6101f2610c70565b6101ce6004803603602081101561047257600080fd5b5035610c7f565b6101f2610ce0565b6101ce6004803603602081101561049757600080fd5b50356001600160a01b0316610cef565b6101f2610d6d565b6101ce60048036036101608110156104c657600080fd5b506001600160a01b0381358116916020810135916040820135916060810135821691608082013581169160a081013582169160c082013581169160e08101358216916101008201358116916101208101358216916101409091013516610d7c565b6101ce6004803603602081101561053d57600080fd5b50356001600160a01b031661118c565b6101ce6004803603602081101561056357600080fd5b50356001600160a01b031661120a565b61057b610be1565b6105cf5760408051600160e51b62461bcd02815260206004820181905260248201527f4f776e61626c653a2063616c6c6572206973206e6f7420746865206f776e6572604482015290519081900360640190fd5b600680546001600160a01b0319166001600160a01b0392909216919091179055565b60015481565b6004546001600160a01b031681565b6007546001600160a01b031681565b61061d610be1565b6106715760408051600160e51b62461bcd02815260206004820181905260248201527f4f776e61626c653a2063616c6c6572206973206e6f7420746865206f776e6572604482015290519081900360640190fd5b600c80546001600160a01b0319166001600160a01b0392909216919091179055565b6006546001600160a01b031681565b6106aa610be1565b6106fe5760408051600160e51b62461bcd02815260206004820181905260248201527f4f776e61626c653a2063616c6c6572206973206e6f7420746865206f776e6572604482015290519081900360640190fd5b600580546001600160a01b0319166001600160a01b0392909216919091179055565b6009546001600160a01b031681565b6005546001600160a01b031681565b60025481565b61074c610be1565b6107a05760408051600160e51b62461bcd02815260206004820181905260248201527f4f776e61626c653a2063616c6c6572206973206e6f7420746865206f776e6572604482015290519081900360640190fd5b600080546040516001600160a01b03909116907f8be0079c531659141344cd1fd0a4f28419497f9722a3daafe3b4186f6b6457e0908390a3600080546001600160a01b0319169055565b6107f2610be1565b6108465760408051600160e51b62461bcd02815260206004820181905260248201527f4f776e61626c653a2063616c6c6572206973206e6f7420746865206f776e6572604482015290519081900360640190fd5b600255565b6001600160a01b038381166000908152600b6020526040812054909116156108a757604051600160e51b62461bcd0281526004018080602001828103825260318152602001806117c06031913960400191505060405180910390fd5b6001600160a01b0384166108ef57604051600160e51b62461bcd0281526004018080602001828103825260388152602001806119b26038913960400191505060405180910390fd5b6000600c60009054906101000a90046001600160a01b03166001600160a01b031663af241e2585338830886040518663ffffffff1660e01b81526004018080602001866001600160a01b03166001600160a01b03168152602001856001600160a01b03166001600160a01b03168152602001846001600160a01b03166001600160a01b0316815260200180602001838103835288818151815260200191508051906020019080838360005b838110156109b257818101518382015260200161099a565b50505050905090810190601f1680156109df5780820380516001836020036101000a031916815260200191505b50838103825284518152845160209182019186019080838360005b83811015610a125781810151838201526020016109fa565b50505050905090810190601f168015610a3f5780820380516001836020036101000a031916815260200191505b50975050505050505050602060405180830381600087803b158015610a6357600080fd5b505af1158015610a77573d6000803e3d6000fd5b505050506040513d6020811015610a8d57600080fd5b50516001600160a01b038681166000908152600b6020526040902080546001600160a01b03191691831691909117905560015490915015610bac57600154600454610aed916001600160a01b03909116903390309063ffffffff61127216565b600354600154600454610b14926001600160a01b039182169291169063ffffffff61130016565b60035460048054600154604080517f810c0af80000000000000000000000000000000000000000000000000000000081526001600160a01b03878116958201959095529284166024840152604483019190915251919092169163810c0af891606480830192600092919082900301818387803b158015610b9357600080fd5b505af1158015610ba7573d6000803e3d6000fd5b505050505b949350505050565b6001600160a01b039081166000908152600b60205260409020541690565b6000546001600160a01b031690565b6000546001600160a01b0316331490565b610bfa610be1565b610c4e5760408051600160e51b62461bcd02815260206004820181905260248201527f4f776e61626c653a2063616c6c6572206973206e6f7420746865206f776e6572604482015290519081900360640190fd5b600a80546001600160a01b0319166001600160a01b0392909216919091179055565b600a546001600160a01b031681565b610c87610be1565b610cdb5760408051600160e51b62461bcd02815260206004820181905260248201527f4f776e61626c653a2063616c6c6572206973206e6f7420746865206f776e6572604482015290519081900360640190fd5b600155565b6008546001600160a01b031681565b610cf7610be1565b610d4b5760408051600160e51b62461bcd02815260206004820181905260248201527f4f776e61626c653a2063616c6c6572206973206e6f7420746865206f776e6572604482015290519081900360640190fd5b600980546001600160a01b0319166001600160a01b0392909216919091179055565b6003546001600160a01b031681565b6004546001600160a01b031615610dc757604051600160e51b62461bcd0281526004018080602001828103825260288152602001806116fe6028913960400191505060405180910390fd5b6001600160a01b038b16610e0f57604051600160e51b62461bcd02815260040180806020018281038252602b8152602001806117f1602b913960400191505060405180910390fd5b6001600160a01b038816610e5757604051600160e51b62461bcd02815260040180806020018281038252603b815260200180611726603b913960400191505060405180910390fd5b6001600160a01b038716610e9f57604051600160e51b62461bcd0281526004018080602001828103825260398152602001806117876039913960400191505060405180910390fd5b6001600160a01b038616610ee757604051600160e51b62461bcd02815260040180806020018281038252603a81526020018061181c603a913960400191505060405180910390fd5b6001600160a01b038516610f2f57604051600160e51b62461bcd02815260040180806020018281038252603a8152602001806119ea603a913960400191505060405180910390fd5b6001600160a01b038416610f7757604051600160e51b62461bcd0281526004018080602001828103825260488152602001806118936048913960600191505060405180910390fd5b6001600160a01b038316610fbf57604051600160e51b62461bcd02815260040180806020018281038252603c8152602001806118db603c913960400191505060405180910390fd5b6001600160a01b03821661100757604051600160e51b62461bcd02815260040180806020018281038252603d815260200180611856603d913960400191505060405180910390fd5b6001600160a01b03811661104f57604051600160e51b62461bcd02815260040180806020018281038252603b815260200180611917603b913960400191505060405180910390fd5b6110588b611462565b60018a90556002899055600480546001600160a01b03199081166001600160a01b038b81169190911783556005805483168b83161790556006805483168a8316179055600780548316898316179055600880548316878316908117909155600980548416878416179055600a805490931691851691909117909155604080517fad7bd2940000000000000000000000000000000000000000000000000000000081529051869363ad7bd294928082019260209290918290030181600087803b15801561112357600080fd5b505af1158015611137573d6000803e3d6000fd5b505050506040513d602081101561114d57600080fd5b5051600380546001600160a01b039283166001600160a01b031991821617909155600c8054979092169616959095179094555050505050505050505050565b611194610be1565b6111e85760408051600160e51b62461bcd02815260206004820181905260248201527f4f776e61626c653a2063616c6c6572206973206e6f7420746865206f776e6572604482015290519081900360640190fd5b600880546001600160a01b0319166001600160a01b0392909216919091179055565b611212610be1565b6112665760408051600160e51b62461bcd02815260206004820181905260248201527f4f776e61626c653a2063616c6c6572206973206e6f7420746865206f776e6572604482015290519081900360640190fd5b61126f81611462565b50565b604080516001600160a01b0385811660248301528416604482015260648082018490528251808303909101815260849091019091526020810180517bffffffffffffffffffffffffffffffffffffffffffffffffffffffff167f23b872dd000000000000000000000000000000000000000000000000000000001790526112fa908590611505565b50505050565b80158061139f5750604080517fdd62ed3e0000000000000000000000000000000000000000000000000000000081523060048201526001600160a01b03848116602483015291519185169163dd62ed3e91604480820192602092909190829003018186803b15801561137157600080fd5b505afa158015611385573d6000803e3d6000fd5b505050506040513d602081101561139b57600080fd5b5051155b6113dd57604051600160e51b62461bcd02815260040180806020018281038252603681526020018061197c6036913960400191505060405180910390fd5b604080516001600160a01b038416602482015260448082018490528251808303909101815260649091019091526020810180517bffffffffffffffffffffffffffffffffffffffffffffffffffffffff167f095ea7b30000000000000000000000000000000000000000000000000000000017905261145d908490611505565b505050565b6001600160a01b0381166114aa57604051600160e51b62461bcd0281526004018080602001828103825260268152602001806117616026913960400191505060405180910390fd5b600080546040516001600160a01b03808516939216917f8be0079c531659141344cd1fd0a4f28419497f9722a3daafe3b4186f6b6457e091a3600080546001600160a01b0319166001600160a01b0392909216919091179055565b611517826001600160a01b03166116c6565b61156b5760408051600160e51b62461bcd02815260206004820152601f60248201527f5361666545524332303a2063616c6c20746f206e6f6e2d636f6e747261637400604482015290519081900360640190fd5b60006060836001600160a01b0316836040518082805190602001908083835b602083106115a95780518252601f19909201916020918201910161158a565b6001836020036101000a0380198251168184511680821785525050505050509050019150506000604051808303816000865af19150503d806000811461160b576040519150601f19603f3d011682016040523d82523d6000602084013e611610565b606091505b50915091508161166a5760408051600160e51b62461bcd02815260206004820181905260248201527f5361666545524332303a206c6f772d6c6576656c2063616c6c206661696c6564604482015290519081900360640190fd5b8051156112fa5780806020019051602081101561168657600080fd5b50516112fa57604051600160e51b62461bcd02815260040180806020018281038252602a815260200180611952602a913960400191505060405180910390fd5b6000813f7fc5d2460186f7233c927e7db2dcc703c0e500b653ca82273b7bfad8045d85a4708115801590610bac575014159291505056fe496e737472756d656e7452656769737472793a20416c726561647920696e697469616c697a65642e496e737472756d656e7452656769737472793a204465706f73697420746f6b656e2061646472657373206d7573742062652070726f76696465642e4f776e61626c653a206e6577206f776e657220697320746865207a65726f2061646472657373496e737472756d656e7452656769737472793a2050726f78792061646d696e2061646472657373206d7573742062652070726f76696465642e496e737472756d656e7452656769737472793a20496e737472756d656e7420616c7265616479206163746976617465642e496e737472756d656e7452656769737472793a204f776e6572206d7573742062652070726f76696465642e496e737472756d656e7452656769737472793a2054696d6572204f7261636c652061646472657373206d7573742062652070726f76696465642e496e737472756d656e7452656769737472793a2053746f7261676520466163746f72792061646472657373206d7573742062652070726f76696465642e496e737472756d656e7452656769737472793a20496e737472756d656e74204d616e6167657220466163746f72792061646472657373206d7573742062652070726f76696465642e496e737472756d656e7452656769737472793a20457363726f7720466163746f72792061646472657373206d7573742062652070726f76696465642e496e737472756d656e7452656769737472793a2050726f787920466163746f72792061646472657373206d7573742062652070726f76696465642e5361666545524332303a204552433230206f7065726174696f6e20646964206e6f7420737563636565645361666545524332303a20617070726f76652066726f6d206e6f6e2d7a65726f20746f206e6f6e2d7a65726f20616c6c6f77616e6365496e737472756d656e7452656769737472793a20496e737472756d656e742061646472657373206d7573742062652070726f76696465642e496e737472756d656e7452656769737472793a205072696365204f7261636c652061646472657373206d7573742062652070726f76696465642ea165627a7a72305820533bd89f52585bd597fb079b451b77762f85cca7df1f1c6edd836fd47c1ef1b40029",
  "source": "pragma solidity ^0.5.0;\n\nimport \"./escrow/DepositEscrowInterface.sol\";\nimport \"./escrow/EscrowFactoryInterface.sol\";\nimport \"./storage/StorageFactoryInterface.sol\";\nimport \"./instrument/InstrumentManagerInterface.sol\";\nimport \"./instrument/InstrumentManagerFactoryInterface.sol\";\nimport \"./lib/token/IERC20.sol\";\nimport \"./lib/token/SafeERC20.sol\";\nimport \"./lib/access/Ownable.sol\";\nimport \"./lib/proxy/ProxyFactoryInterface.sol\";\nimport \"./InstrumentConfig.sol\";\n\n/**\n * @title Instrument Registry.\n */\ncontract InstrumentRegistry is Ownable, InstrumentConfig {\n\n    using SafeERC20 for IERC20;\n\n    // Mapping: Instrument Address => Instrument Manager Address\n    mapping(address => address) private _instrumentManagers;\n    InstrumentManagerFactoryInterface private _instrumentManagerFactory;\n\n    /**\n     * @dev Initialization method for Instrument Registry.\n     * @param owner Owner of Instrument Registry.\n     * @param newInstrumentDeposit The NUTS token deposited for new Instrument,\n     * @param newIssuanceDeposit The NUTS token deposited for new Issuance.\n     * @param newDepositTokenAddress Address of NUTS token.\n     * @param newProxyAdminAddress Address of proxy admin.\n     * @param newTimerOracleAddress Address of Timer Oracle\n     * @param newPriceOracleAddress Address of Price Oracle\n     * @param newInstrumentManagerFactoryAddress Address of Instrument Manager Factory.\n     * @param newEscrowFactoryAddress Address of Escrow Factory.\n     * @param newStorageFactoryAddress Address of Storage Factory.\n     * @param newProxyFactoryAddress Address of Proxy Factory.\n     */\n    function initialize(address owner, uint256 newInstrumentDeposit, uint256 newIssuanceDeposit, address newDepositTokenAddress,\n        address newProxyAdminAddress, address newTimerOracleAddress, address newPriceOracleAddress, address newInstrumentManagerFactoryAddress,\n        address newEscrowFactoryAddress, address newStorageFactoryAddress, address newProxyFactoryAddress) public {\n        require(address(depositTokenAddress) == address(0x0), \"InstrumentRegistry: Already initialized.\");\n        require(owner != address(0x0), \"InstrumentRegistry: Owner must be provided.\");\n        require(newDepositTokenAddress != address(0x0), \"InstrumentRegistry: Deposit token address must be provided.\");\n        require(newProxyAdminAddress != address(0x0), \"InstrumentRegistry: Proxy admin address must be provided.\");\n        require(newTimerOracleAddress != address(0x0), \"InstrumentRegistry: Timer Oracle address must be provided.\");\n        require(newPriceOracleAddress != address(0x0), \"InstrumentRegistry: Price Oracle address must be provided.\");\n        require(newInstrumentManagerFactoryAddress != address(0x0), \"InstrumentRegistry: Instrument Manager Factory address must be provided.\");\n        require(newEscrowFactoryAddress != address(0x0), \"InstrumentRegistry: Escrow Factory address must be provided.\");\n        require(newStorageFactoryAddress != address(0x0), \"InstrumentRegistry: Storage Factory address must be provided.\");\n        require(newProxyFactoryAddress != address(0x0), \"InstrumentRegistry: Proxy Factory address must be provided.\");\n\n        // Set owner\n        _transferOwnership(owner);\n\n        instrumentDeposit = newInstrumentDeposit;\n        issuanceDeposit = newIssuanceDeposit;\n        depositTokenAddress = newDepositTokenAddress;\n        proxyAdminAddress = newProxyAdminAddress;\n        timerOracleAddress = newTimerOracleAddress;\n        priceOracleAddress = newPriceOracleAddress;\n        escrowFactoryAddress = newEscrowFactoryAddress;\n        storageFactoryAddress = newStorageFactoryAddress;\n        proxyFactoryAddress = newProxyFactoryAddress;\n\n        // Create new Deposit Escrow\n        EscrowFactoryInterface escrowFactory = EscrowFactoryInterface(newEscrowFactoryAddress);\n        depositEscrowAddress = address(escrowFactory.createDepositEscrow());\n\n        _instrumentManagerFactory = InstrumentManagerFactoryInterface(newInstrumentManagerFactoryAddress);\n    }\n\n    /**\n     * @dev Update Instrument Manager Factory\n     */\n    function setInstrumentManagerFactory(InstrumentManagerFactoryInterface instrumentManagerFactory) public onlyOwner {\n        _instrumentManagerFactory = instrumentManagerFactory;\n    }\n\n    /**\n     * @dev Update instrument deposit amount.\n     */\n    function setInstrumentDeposit(uint256 newInstrumentDeposit) public onlyOwner {\n        instrumentDeposit = newInstrumentDeposit;\n    }\n\n    /**\n     * @dev Update issuance deposit amount.\n     */\n    function setIssuanceDeposit(uint256 newIssuanceDeposit) public onlyOwner {\n        issuanceDeposit = newIssuanceDeposit;\n    }\n\n    /**\n     * @dev Update proxy admin address.\n     */\n    function setProxyAdminAddress(address newProxyAdminAddress) public onlyOwner {\n        proxyAdminAddress = newProxyAdminAddress;\n    }\n\n    /**\n     * @dev Update Timer Oracle address.\n     */\n    function setTimerOracleAddress(address newTimerOracleAddress) public onlyOwner {\n        timerOracleAddress = newTimerOracleAddress;\n    }\n\n    /**\n     * @dev Update Escrow Factory address.\n     */\n    function setEscrowFactoryAddress(address newEscrowFactoryAddress) public onlyOwner {\n        escrowFactoryAddress = newEscrowFactoryAddress;\n    }\n\n    /**\n     * @dev Update Storage Factory address.\n     */\n    function setStorageFactoryAddress(address newStorageFactoryAddress) public onlyOwner {\n        storageFactoryAddress = newStorageFactoryAddress;\n    }\n\n    /**\n     * @dev Update Proxy Factory address.\n     */\n    function setProxyFactoryAddress(address newProxyFactoryAddress) public onlyOwner {\n        proxyFactoryAddress = newProxyFactoryAddress;\n    }\n\n    /**\n     * @dev MOST IMPORTANT method: Activate new financial instrument.\n     * @param instrumentAddress Address of Instrument to activate.\n     * @param version Version of Instrument.\n     * @param instrumentParameters Custom parameters for this instrument.\n     */\n    function activateInstrument(address instrumentAddress, string memory version, bytes memory instrumentParameters)\n        public returns (InstrumentManagerInterface) {\n        require(_instrumentManagers[instrumentAddress] == address(0x0), \"InstrumentRegistry: Instrument already activated.\");\n        require(instrumentAddress != address(0x0), \"InstrumentRegistry: Instrument address must be provided.\");\n\n        // Create Instrument Manager\n        InstrumentManagerInterface instrumentManager = _instrumentManagerFactory.createInstrumentManagerInstance(version,\n            msg.sender, instrumentAddress, address(this), instrumentParameters);\n\n        _instrumentManagers[instrumentAddress] = address(instrumentManager);\n\n        if (instrumentDeposit > 0) {\n            // Transfer NUTS token to deposit from FSP\n            IERC20(depositTokenAddress).safeTransferFrom(msg.sender, address(this), instrumentDeposit);\n            // Deposit the NUTS token to Deposit Escrow, under the account of the newly created Instrument Manager.\n            IERC20(depositTokenAddress).safeApprove(depositEscrowAddress, instrumentDeposit);\n            DepositEscrowInterface(depositEscrowAddress).depositTokenByAdmin(address(instrumentManager),\n                depositTokenAddress, instrumentDeposit);\n        }\n\n        return instrumentManager;\n    }\n\n    /**\n     * @dev Retrieve Instrument Manager address by Instrument address.\n     */\n    function lookupInstrumentManager(address instrumentAddress) public view\n        returns (address instrumentManagerAddress) {\n        return _instrumentManagers[instrumentAddress];\n    }\n}\n",
  "sourcePath": "/Users/shengdading/git/nuts-platform-v2/contracts/InstrumentRegistry.sol",
  "compiler": {
    "name": "solc",
    "version": "0.5.8+commit.23d335f2.Emscripten.clang"
  },
  "schemaVersion": "3.0.16",
  "updatedAt": "2019-10-16T00:06:50.348Z",
  "devdoc": {
    "methods": {
      "activateInstrument(address,string,bytes)": {
        "details": "MOST IMPORTANT method: Activate new financial instrument.",
        "params": {
          "instrumentAddress": "Address of Instrument to activate.",
          "instrumentParameters": "Custom parameters for this instrument.",
          "version": "Version of Instrument."
        }
      },
      "initialize(address,uint256,uint256,address,address,address,address,address,address,address,address)": {
        "details": "Initialization method for Instrument Registry.",
        "params": {
          "newDepositTokenAddress": "Address of NUTS token.",
          "newEscrowFactoryAddress": "Address of Escrow Factory.",
          "newInstrumentDeposit": "The NUTS token deposited for new Instrument,",
          "newInstrumentManagerFactoryAddress": "Address of Instrument Manager Factory.",
          "newIssuanceDeposit": "The NUTS token deposited for new Issuance.",
          "newPriceOracleAddress": "Address of Price Oracle",
          "newProxyAdminAddress": "Address of proxy admin.",
          "newProxyFactoryAddress": "Address of Proxy Factory.",
          "newStorageFactoryAddress": "Address of Storage Factory.",
          "newTimerOracleAddress": "Address of Timer Oracle",
          "owner": "Owner of Instrument Registry."
        }
      },
      "isOwner()": {
        "details": "Returns true if the caller is the current owner."
      },
      "lookupInstrumentManager(address)": {
        "details": "Retrieve Instrument Manager address by Instrument address."
      },
      "owner()": {
        "details": "Returns the address of the current owner."
      },
      "renounceOwnership()": {
        "details": "Leaves the contract without owner. It will not be possible to call `onlyOwner` functions anymore. Can only be called by the current owner.     * NOTE: Renouncing ownership will leave the contract without an owner, thereby removing any functionality that is only available to the owner."
      },
      "setEscrowFactoryAddress(address)": {
        "details": "Update Escrow Factory address."
      },
      "setInstrumentDeposit(uint256)": {
        "details": "Update instrument deposit amount."
      },
      "setInstrumentManagerFactory(address)": {
        "details": "Update Instrument Manager Factory"
      },
      "setIssuanceDeposit(uint256)": {
        "details": "Update issuance deposit amount."
      },
      "setProxyAdminAddress(address)": {
        "details": "Update proxy admin address."
      },
      "setProxyFactoryAddress(address)": {
        "details": "Update Proxy Factory address."
      },
      "setStorageFactoryAddress(address)": {
        "details": "Update Storage Factory address."
      },
      "setTimerOracleAddress(address)": {
        "details": "Update Timer Oracle address."
      },
      "transferOwnership(address)": {
        "details": "Transfers ownership of the contract to a new account (`newOwner`). Can only be called by the current owner."
      }
    },
    "title": "Instrument Registry."
  },
  "userdoc": {
    "methods": {}
  }
}