{
  "contractName": "InstrumentManagerFactory",
  "abi": [
    {
      "constant": false,
      "inputs": [],
      "name": "renounceOwnership",
      "outputs": [],
      "payable": false,
      "stateMutability": "nonpayable",
      "type": "function"
    },
    {
      "constant": true,
      "inputs": [],
      "name": "owner",
      "outputs": [
        {
          "name": "",
          "type": "address"
        }
      ],
      "payable": false,
      "stateMutability": "view",
      "type": "function"
    },
    {
      "constant": true,
      "inputs": [],
      "name": "isOwner",
      "outputs": [
        {
          "name": "",
          "type": "bool"
        }
      ],
      "payable": false,
      "stateMutability": "view",
      "type": "function"
    },
    {
      "constant": false,
      "inputs": [
        {
          "name": "newOwner",
          "type": "address"
        }
      ],
      "name": "transferOwnership",
      "outputs": [],
      "payable": false,
      "stateMutability": "nonpayable",
      "type": "function"
    },
    {
      "anonymous": false,
      "inputs": [
        {
          "indexed": true,
          "name": "previousOwner",
          "type": "address"
        },
        {
          "indexed": true,
          "name": "newOwner",
          "type": "address"
        }
      ],
      "name": "OwnershipTransferred",
      "type": "event"
    },
    {
      "constant": false,
      "inputs": [
        {
          "name": "version",
          "type": "string"
        },
        {
          "name": "instrumentManagerImplementation",
          "type": "address"
        }
      ],
      "name": "setInstrumentManagerImplementation",
      "outputs": [],
      "payable": false,
      "stateMutability": "nonpayable",
      "type": "function"
    },
    {
      "constant": false,
      "inputs": [
        {
          "name": "version",
          "type": "string"
        },
        {
          "name": "fspAddress",
          "type": "address"
        },
        {
          "name": "instrumentAddress",
          "type": "address"
        },
        {
          "name": "instrumentConfigAddress",
          "type": "address"
        },
        {
          "name": "instrumentParameters",
          "type": "bytes"
        }
      ],
      "name": "createInstrumentManagerInstance",
      "outputs": [
        {
          "name": "",
          "type": "address"
        }
      ],
      "payable": false,
      "stateMutability": "nonpayable",
      "type": "function"
    }
  ],
  "bytecode": "0x60806040819052600080546001600160a01b03191633178082556001600160a01b0316917f8be0079c531659141344cd1fd0a4f28419497f9722a3daafe3b4186f6b6457e0908290a3611545806100576000396000f3fe608060405234801561001057600080fd5b50600436106100725760003560e01c8063af241e2511610050578063af241e25146100c1578063e8fced6614610210578063f2fde38b146102c157610072565b8063715018a6146100775780638da5cb5b146100815780638f32d59b146100a5575b600080fd5b61007f6102e7565b005b61008961039a565b604080516001600160a01b039092168252519081900360200190f35b6100ad6103a9565b604080519115158252519081900360200190f35b610089600480360360a08110156100d757600080fd5b8101906020810181356401000000008111156100f257600080fd5b82018360208201111561010457600080fd5b8035906020019184600183028401116401000000008311171561012657600080fd5b91908080601f01602080910402602001604051908101604052809392919081815260200183838082843760009201919091525092956001600160a01b03853581169660208701358216966040810135909216955091935090915060808101906060013564010000000081111561019b57600080fd5b8201836020820111156101ad57600080fd5b803590602001918460018302840111640100000000831117156101cf57600080fd5b91908080601f0160208091040260200160405190810160405280939291908181526020018383808284376000920191909152509295506103ba945050505050565b61007f6004803603604081101561022657600080fd5b81019060208101813564010000000081111561024157600080fd5b82018360208201111561025357600080fd5b8035906020019184600183028401116401000000008311171561027557600080fd5b91908080601f016020809104026020016040519081016040528093929190818152602001838380828437600092019190915250929550505090356001600160a01b031691506108199050565b61007f600480360360208110156102d757600080fd5b50356001600160a01b0316610905565b6102ef6103a9565b6103435760408051600160e51b62461bcd02815260206004820181905260248201527f4f776e61626c653a2063616c6c6572206973206e6f7420746865206f776e6572604482015290519081900360640190fd5b600080546040516001600160a01b03909116907f8be0079c531659141344cd1fd0a4f28419497f9722a3daafe3b4186f6b6457e0908390a36000805473ffffffffffffffffffffffffffffffffffffffff19169055565b6000546001600160a01b031690565b6000546001600160a01b0316331490565b6000806001600160a01b03166001876040518082805190602001908083835b602083106103f85780518252601f1990920191602091820191016103d9565b51815160209384036101000a60001901801990921691161790529201948552506040519384900301909220546001600160a01b031692909214159150610474905057604051600160e51b62461bcd0281526004018080602001828103825260328152602001806114856032913960400191505060405180910390fd5b6001600160a01b0385166104bc57604051600160e51b62461bcd02815260040180806020018281038252602e8152602001806114b7602e913960400191505060405180910390fd5b6001600160a01b03841661050457604051600160e51b62461bcd0281526004018080602001828103825260358152602001806114e56035913960400191505060405180910390fd5b6001600160a01b03831661054c57604051600160e51b62461bcd02815260040180806020018281038252603c815260200180611449603c913960400191505060405180910390fd5b600083905060006001886040518082805190602001908083835b602083106105855780518252601f199092019160209182019101610566565b51815160209384036101000a6000190180199092169116179052920194855250604080519485900382018520547f5979e75500000000000000000000000000000000000000000000000000000000865290516001600160a01b03918216959188169450635979e755935060048083019392829003018186803b15801561060a57600080fd5b505afa15801561061e573d6000803e3d6000fd5b505050506040513d602081101561063457600080fd5b5051604080516000815260208101918290529061065090610a1d565b80846001600160a01b03166001600160a01b03168152602001836001600160a01b03166001600160a01b0316815260200180602001828103825283818151815260200191508051906020019080838360005b838110156106ba5781810151838201526020016106a2565b50505050905090810190601f1680156106e75780820380516001836020036101000a031916815260200191505b50945050505050604051809103906000f08015801561070a573d6000803e3d6000fd5b506040517f246581f70000000000000000000000000000000000000000000000000000000081526001600160a01b03898116600483019081528982166024840152888216604484015260806064840190815288516084850152885194955085949285169363246581f7938d938d938d938d9360a490910190602085019080838360005b838110156107a557818101518382015260200161078d565b50505050905090810190601f1680156107d25780820380516001836020036101000a031916815260200191505b5095505050505050600060405180830381600087803b1580156107f457600080fd5b505af1158015610808573d6000803e3d6000fd5b50929b9a5050505050505050505050565b6108216103a9565b6108755760408051600160e51b62461bcd02815260206004820181905260248201527f4f776e61626c653a2063616c6c6572206973206e6f7420746865206f776e6572604482015290519081900360640190fd5b806001836040518082805190602001908083835b602083106108a85780518252601f199092019160209182019101610889565b51815160209384036101000a60001901801990921691161790529201948552506040519384900301909220805473ffffffffffffffffffffffffffffffffffffffff19166001600160a01b03949094169390931790925550505050565b61090d6103a9565b6109615760408051600160e51b62461bcd02815260206004820181905260248201527f4f776e61626c653a2063616c6c6572206973206e6f7420746865206f776e6572604482015290519081900360640190fd5b61096a8161096d565b50565b6001600160a01b0381166109b557604051600160e51b62461bcd0281526004018080602001828103825260268152602001806114236026913960400191505060405180910390fd5b600080546040516001600160a01b03808516939216917f8be0079c531659141344cd1fd0a4f28419497f9722a3daafe3b4186f6b6457e091a36000805473ffffffffffffffffffffffffffffffffffffffff19166001600160a01b0392909216919091179055565b6109f880610a2b8339019056fe60806040526040516109f83803806109f88339810180604052606081101561002657600080fd5b815160208301516040840180519294919382019264010000000081111561004c57600080fd5b8201602081018481111561005f57600080fd5b815164010000000081118282018710171561007957600080fd5b5050604080517f656970313936372e70726f78792e696d706c656d656e746174696f6e000000008152905190819003601c01902090935085925083915060008051602061099d833981519152600019909101146100d257fe5b6100e18261020060201b60201c565b805115610199576000826001600160a01b0316826040518082805190602001908083835b602083106101245780518252601f199092019160209182019101610105565b6001836020036101000a038019825116818451168082178552505050505050905001915050600060405180830381855af49150503d8060008114610184576040519150601f19603f3d011682016040523d82523d6000602084013e610189565b606091505b505090508061019757600080fd5b505b5050604080517f656970313936372e70726f78792e61646d696e000000000000000000000000008152905190819003601301902060008051602061097d833981519152600019909101146101e957fe5b6101f88261027a60201b60201c565b5050506102c8565b6102138161028c60201b61059b1760201c565b610268576040517f08c379a000000000000000000000000000000000000000000000000000000000815260040180806020018281038252603b8152602001806109bd603b913960400191505060405180910390fd5b60008051602061099d83398151915255565b60008051602061097d83398151915255565b6000813f7fc5d2460186f7233c927e7db2dcc703c0e500b653ca82273b7bfad8045d85a47081158015906102c05750808214155b949350505050565b6106a6806102d76000396000f3fe60806040526004361061005a5760003560e01c80635c60da1b116100435780635c60da1b146101175780638f28397014610148578063f851a4401461017b5761005a565b80633659cfe6146100645780634f1ef28614610097575b610062610190565b005b34801561007057600080fd5b506100626004803603602081101561008757600080fd5b50356001600160a01b03166101aa565b610062600480360360408110156100ad57600080fd5b6001600160a01b0382351691908101906040810160208201356401000000008111156100d857600080fd5b8201836020820111156100ea57600080fd5b8035906020019184600183028401116401000000008311171561010c57600080fd5b5090925090506101e4565b34801561012357600080fd5b5061012c610291565b604080516001600160a01b039092168252519081900360200190f35b34801561015457600080fd5b506100626004803603602081101561016b57600080fd5b50356001600160a01b03166102ce565b34801561018757600080fd5b5061012c6103a2565b6101986103cd565b6101a86101a3610447565b61046c565b565b6101b2610490565b6001600160a01b0316336001600160a01b031614156101d9576101d4816104b5565b6101e1565b6101e1610190565b50565b6101ec610490565b6001600160a01b0316336001600160a01b031614156102845761020e836104b5565b6000836001600160a01b031683836040518083838082843760405192019450600093509091505080830381855af49150503d806000811461026b576040519150601f19603f3d011682016040523d82523d6000602084013e610270565b606091505b505090508061027e57600080fd5b5061028c565b61028c610190565b505050565b600061029b610490565b6001600160a01b0316336001600160a01b031614156102c3576102bc610447565b90506102cb565b6102cb610190565b90565b6102d6610490565b6001600160a01b0316336001600160a01b031614156101d9576001600160a01b03811661034e576040517f08c379a000000000000000000000000000000000000000000000000000000000815260040180806020018281038252603681526020018061060a6036913960400191505060405180910390fd5b7f7e644d79422f17c01e4894b5f4f588d331ebfa28653d42ae832dc59e38c9798f610377610490565b604080516001600160a01b03928316815291841660208301528051918290030190a16101d4816104f5565b60006103ac610490565b6001600160a01b0316336001600160a01b031614156102c3576102bc610490565b6103d5610490565b6001600160a01b0316336001600160a01b0316141561043f576040517f08c379a00000000000000000000000000000000000000000000000000000000081526004018080602001828103825260328152602001806105d86032913960400191505060405180910390fd5b6101a86101a8565b7f360894a13ba1a3210667c828492db98dca3e2076cc3735a920a3ca505d382bbc5490565b3660008037600080366000845af43d6000803e80801561048b573d6000f35b3d6000fd5b7fb53127684a568b3173ae13b9f8a6016e243e63b6e8ee1178d6a717850b5d61035490565b6104be81610519565b6040516001600160a01b038216907fbc7cd75a20ee27fd9adebab32041f755214dbc6bffa90cc0225b39da2e5c2d3b90600090a250565b7fb53127684a568b3173ae13b9f8a6016e243e63b6e8ee1178d6a717850b5d610355565b6105228161059b565b610577576040517f08c379a000000000000000000000000000000000000000000000000000000000815260040180806020018281038252603b815260200180610640603b913960400191505060405180910390fd5b7f360894a13ba1a3210667c828492db98dca3e2076cc3735a920a3ca505d382bbc55565b6000813f7fc5d2460186f7233c927e7db2dcc703c0e500b653ca82273b7bfad8045d85a47081158015906105cf5750808214155b94935050505056fe43616e6e6f742063616c6c2066616c6c6261636b2066756e6374696f6e2066726f6d207468652070726f78792061646d696e43616e6e6f74206368616e6765207468652061646d696e206f6620612070726f787920746f20746865207a65726f206164647265737343616e6e6f742073657420612070726f787920696d706c656d656e746174696f6e20746f2061206e6f6e2d636f6e74726163742061646472657373a165627a7a72305820db0567e2edf34fe483de05a9577d3cf0b30c5adc2bde1d13f99816e4c3e5ed420029b53127684a568b3173ae13b9f8a6016e243e63b6e8ee1178d6a717850b5d6103360894a13ba1a3210667c828492db98dca3e2076cc3735a920a3ca505d382bbc43616e6e6f742073657420612070726f787920696d706c656d656e746174696f6e20746f2061206e6f6e2d636f6e747261637420616464726573734f776e61626c653a206e6577206f776e657220697320746865207a65726f2061646472657373496e737472756d656e744d616e61676572466163746f72793a20496e737472756d656e7420636f6e6669672061646472657373206e6f74207365742e496e737472756d656e744d616e61676572466163746f72793a2056657273696f6e206e6f7420696d706c656d656e7465642e496e737472756d656e744d616e61676572466163746f72793a204653502061646472657373206e6f74207365742e496e737472756d656e744d616e61676572466163746f72793a20496e737472756d656e742061646472657373206e6f74207365742ea165627a7a7230582001b21823b81e79604884ab594e630fdc7449f72085c498a1d20bf711fbe986770029",
  "source": "pragma solidity ^0.5.0;\n\nimport \"../InstrumentConfig.sol\";\nimport \"../lib/access/Ownable.sol\";\nimport \"../lib/proxy/AdminUpgradeabilityProxy.sol\";\nimport \"./InstrumentManagerInterface.sol\";\nimport \"./InstrumentManagerFactoryInterface.sol\";\n\ncontract InstrumentManagerFactory is InstrumentManagerFactoryInterface, Ownable {\n\n    // Mapping: version => Instrument manager implementation address.\n    mapping(string => address) private _instrumentManagerImplementations;\n\n    /**\n     * @dev Updates the implementation for instrument manager.\n     */\n    function setInstrumentManagerImplementation(string memory version, address instrumentManagerImplementation) public onlyOwner {\n        _instrumentManagerImplementations[version] = instrumentManagerImplementation;\n    }\n\n    /**\n     * @dev Create a new instrument manager instance\n     * @param version The instrument manager version\n     * @param fspAddress The address of fsp who creates the instrument.\n     * @param instrumentAddress The address of the instrument\n     * @param instrumentConfigAddress The address of the instrument config.\n     * @param instrumentParameters The custom parameters to this instrument manager.\n     */\n    function createInstrumentManagerInstance(string memory version, address fspAddress, address instrumentAddress,\n        address instrumentConfigAddress, bytes memory instrumentParameters) public returns (InstrumentManagerInterface) {\n        require(_instrumentManagerImplementations[version] != address(0x0), \"InstrumentManagerFactory: Version not implemented.\");\n        require(fspAddress != address(0x0), \"InstrumentManagerFactory: FSP address not set.\");\n        require(instrumentAddress != address(0x0), \"InstrumentManagerFactory: Instrument address not set.\");\n        require(instrumentConfigAddress != address(0x0), \"InstrumentManagerFactory: Instrument config address not set.\");\n\n        // Create Instrument Manager Proxy\n        InstrumentConfig instrumentConfig = InstrumentConfig(instrumentConfigAddress);\n        AdminUpgradeabilityProxy instrumentManagerProxy = new AdminUpgradeabilityProxy(_instrumentManagerImplementations[version],\n            instrumentConfig.proxyAdminAddress(), new bytes(0));\n\n        // Initialize Instrument Manager\n        InstrumentManagerInterface proxiedInstrumentManager = InstrumentManagerInterface(address(instrumentManagerProxy));\n        proxiedInstrumentManager.initialize(fspAddress, instrumentAddress, instrumentConfigAddress, instrumentParameters);\n\n        return proxiedInstrumentManager;\n    }\n\n}",
  "sourcePath": "/Users/shengdading/git/nuts-platform-v2/contracts/instrument/InstrumentManagerFactory.sol",
  "compiler": {
    "name": "solc",
    "version": "0.5.8+commit.23d335f2.Emscripten.clang"
  },
  "schemaVersion": "3.0.16",
  "updatedAt": "2019-10-10T08:06:15.236Z",
  "devdoc": {
    "methods": {
      "createInstrumentManagerInstance(string,address,address,address,bytes)": {
        "details": "Create a new instrument manager instance",
        "params": {
          "fspAddress": "The address of fsp who creates the instrument.",
          "instrumentAddress": "The address of the instrument",
          "instrumentConfigAddress": "The address of the instrument config.",
          "instrumentParameters": "The custom parameters to this instrument manager.",
          "version": "The instrument manager version"
        }
      },
      "isOwner()": {
        "details": "Returns true if the caller is the current owner."
      },
      "owner()": {
        "details": "Returns the address of the current owner."
      },
      "renounceOwnership()": {
        "details": "Leaves the contract without owner. It will not be possible to call `onlyOwner` functions anymore. Can only be called by the current owner.     * NOTE: Renouncing ownership will leave the contract without an owner, thereby removing any functionality that is only available to the owner."
      },
      "setInstrumentManagerImplementation(string,address)": {
        "details": "Updates the implementation for instrument manager."
      },
      "transferOwnership(address)": {
        "details": "Transfers ownership of the contract to a new account (`newOwner`). Can only be called by the current owner."
      }
    }
  },
  "userdoc": {
    "methods": {}
  }
}