{
  "contractName": "InstrumentV1Manager",
  "abi": [
    {
      "constant": false,
      "inputs": [
        {
          "name": "issuanceId",
          "type": "uint256"
        },
        {
          "name": "takerParameters",
          "type": "bytes"
        }
      ],
      "name": "engageIssuance",
      "outputs": [],
      "payable": false,
      "stateMutability": "nonpayable",
      "type": "function"
    },
    {
      "constant": false,
      "inputs": [
        {
          "name": "issuanceId",
          "type": "uint256"
        },
        {
          "name": "amount",
          "type": "uint256"
        }
      ],
      "name": "depositToIssuance",
      "outputs": [],
      "payable": false,
      "stateMutability": "nonpayable",
      "type": "function"
    },
    {
      "constant": false,
      "inputs": [
        {
          "name": "makerAddress",
          "type": "address"
        },
        {
          "name": "allowed",
          "type": "bool"
        }
      ],
      "name": "setMakerWhitelist",
      "outputs": [],
      "payable": false,
      "stateMutability": "nonpayable",
      "type": "function"
    },
    {
      "constant": false,
      "inputs": [
        {
          "name": "issuanceId",
          "type": "uint256"
        },
        {
          "name": "tokenAddress",
          "type": "address"
        },
        {
          "name": "amount",
          "type": "uint256"
        }
      ],
      "name": "depositTokenToIssuance",
      "outputs": [],
      "payable": false,
      "stateMutability": "nonpayable",
      "type": "function"
    },
    {
      "constant": false,
      "inputs": [],
      "name": "deactivate",
      "outputs": [],
      "payable": false,
      "stateMutability": "nonpayable",
      "type": "function"
    },
    {
      "constant": false,
      "inputs": [],
      "name": "renounceTimerOracle",
      "outputs": [],
      "payable": false,
      "stateMutability": "nonpayable",
      "type": "function"
    },
    {
      "constant": false,
      "inputs": [
        {
          "name": "issuanceId",
          "type": "uint256"
        },
        {
          "name": "eventName",
          "type": "bytes32"
        },
        {
          "name": "eventPayload",
          "type": "bytes"
        }
      ],
      "name": "notifyScheduledEvent",
      "outputs": [],
      "payable": false,
      "stateMutability": "nonpayable",
      "type": "function"
    },
    {
      "constant": true,
      "inputs": [
        {
          "name": "account",
          "type": "address"
        }
      ],
      "name": "isTimerOracle",
      "outputs": [
        {
          "name": "",
          "type": "bool"
        }
      ],
      "payable": false,
      "stateMutability": "view",
      "type": "function"
    },
    {
      "constant": false,
      "inputs": [
        {
          "name": "takerAddress",
          "type": "address"
        },
        {
          "name": "allowed",
          "type": "bool"
        }
      ],
      "name": "setTakerWhitelist",
      "outputs": [],
      "payable": false,
      "stateMutability": "nonpayable",
      "type": "function"
    },
    {
      "constant": true,
      "inputs": [],
      "name": "getInstrumentEscrowAddress",
      "outputs": [
        {
          "name": "",
          "type": "address"
        }
      ],
      "payable": false,
      "stateMutability": "view",
      "type": "function"
    },
    {
      "constant": false,
      "inputs": [
        {
          "name": "issuanceId",
          "type": "uint256"
        },
        {
          "name": "tokenAddress",
          "type": "address"
        },
        {
          "name": "amount",
          "type": "uint256"
        }
      ],
      "name": "withdrawTokenFromIssuance",
      "outputs": [],
      "payable": false,
      "stateMutability": "nonpayable",
      "type": "function"
    },
    {
      "constant": false,
      "inputs": [
        {
          "name": "account",
          "type": "address"
        }
      ],
      "name": "addTimerOracle",
      "outputs": [],
      "payable": false,
      "stateMutability": "nonpayable",
      "type": "function"
    },
    {
      "constant": false,
      "inputs": [
        {
          "name": "issuanceId",
          "type": "uint256"
        },
        {
          "name": "amount",
          "type": "uint256"
        }
      ],
      "name": "withdrawFromIssuance",
      "outputs": [],
      "payable": false,
      "stateMutability": "nonpayable",
      "type": "function"
    },
    {
      "constant": false,
      "inputs": [
        {
          "name": "issuanceId",
          "type": "uint256"
        },
        {
          "name": "eventName",
          "type": "bytes32"
        },
        {
          "name": "eventPayload",
          "type": "bytes"
        }
      ],
      "name": "notifyCustomEvent",
      "outputs": [],
      "payable": false,
      "stateMutability": "nonpayable",
      "type": "function"
    },
    {
      "constant": false,
      "inputs": [
        {
          "name": "makerParameters",
          "type": "bytes"
        }
      ],
      "name": "createIssuance",
      "outputs": [
        {
          "name": "",
          "type": "uint256"
        }
      ],
      "payable": false,
      "stateMutability": "nonpayable",
      "type": "function"
    },
    {
      "inputs": [
        {
          "name": "fspAddress",
          "type": "address"
        },
        {
          "name": "instrumentAddress",
          "type": "address"
        },
        {
          "name": "instrumentConfigAddress",
          "type": "address"
        },
        {
          "name": "instrumentParameters",
          "type": "bytes"
        }
      ],
      "payable": false,
      "stateMutability": "nonpayable",
      "type": "constructor"
    },
    {
      "anonymous": false,
      "inputs": [
        {
          "indexed": true,
          "name": "instrumentAddress",
          "type": "address"
        },
        {
          "indexed": true,
          "name": "instrumentEscrowAddress",
          "type": "address"
        }
      ],
      "name": "InstrumentManagerInitialized",
      "type": "event"
    },
    {
      "anonymous": false,
      "inputs": [
        {
          "indexed": true,
          "name": "account",
          "type": "address"
        }
      ],
      "name": "TimerOracleAdded",
      "type": "event"
    },
    {
      "anonymous": false,
      "inputs": [
        {
          "indexed": true,
          "name": "account",
          "type": "address"
        }
      ],
      "name": "TimerOracleRemoved",
      "type": "event"
    }
  ],
  "bytecode": "0x60806040523480156200001157600080fd5b506040516200648638038062006486833981018060405260808110156200003757600080fd5b81516020830151604084015160608501805193959294919391830192916401000000008111156200006757600080fd5b820160208101848111156200007b57600080fd5b81516401000000008111828201871017156200009657600080fd5b505092919050505083838383620000b3336200057060201b60201c565b600a546001600160a01b03161562000117576040517f08c379a000000000000000000000000000000000000000000000000000000000815260040180806020018281038252602b81526020018062006420602b913960400191505060405180910390fd5b6001600160a01b03841662000178576040517f08c379a0000000000000000000000000000000000000000000000000000000008152600401808060200182810382526034815260200180620063ec6034913960400191505060405180910390fd5b6001600160a01b038316620001d9576040517f08c379a000000000000000000000000000000000000000000000000000000000815260040180806020018281038252603b8152602001806200644b603b913960400191505060405180910390fd5b6001600160a01b0382166200023a576040517f08c379a00000000000000000000000000000000000000000000000000000000081526004018080602001828103825260428152602001806200634a6042913960600191505060405180910390fd5b600081511162000296576040517f08c379a000000000000000000000000000000000000000000000000000000000815260040180806020018281038252603e8152602001806200638c603e913960400191505060405180910390fd5b620002a062001188565b620002b682620005c260201b62004a6a1760201c565b6001805460ff1990811682179091558151600255426003556040820151600480548316911515919091179055606082015160068054909216901515179055600d80546001600160a01b03199081166001600160a01b038781169190911790925560088054909116888316179055602082015191925016156200033d5780602001516200033f565b845b600980546001600160a01b03199081166001600160a01b0393841617909155600a80549091168683161790556001600b55600d54604080517f1e081f0900000000000000000000000000000000000000000000000000000000815290519190921691631e081f09916004808301926020929190829003018186803b158015620003c757600080fd5b505afa158015620003dc573d6000803e3d6000fd5b505050506040513d6020811015620003f357600080fd5b5051600c55600d54604080517fd9e86f1d00000000000000000000000000000000000000000000000000000000815290516001600160a01b039092169163d9e86f1d91600480820192602092909190829003018186803b1580156200045757600080fd5b505afa1580156200046c573d6000803e3d6000fd5b505050506040513d60208110156200048357600080fd5b5051604080517f99733c7500000000000000000000000000000000000000000000000000000000815290516001600160a01b03909216916399733c75916004808201926020929091908290030181600087803b158015620004e357600080fd5b505af1158015620004f8573d6000803e3d6000fd5b505050506040513d60208110156200050f57600080fd5b5051600e80546001600160a01b0319166001600160a01b039283161790819055600a546040519183169216907f17082f533b4743d96d2bbde7b50cc0716cc7fd5f2c919bcf706233962d28e2d890600090a3505050505050505050620011cd565b6200058b816000620005f360201b6200397e1790919060201c565b6040516001600160a01b038216907f9ddc85aace404f3f4847945cd853a70355e2f1dc7f6a75b7951259bcfa97c22b90600090a250565b620005cc62001188565b620005d662001188565b620005eb60208485516200069760201b60201c565b509392505050565b6200060582826200085c60201b60201c565b156200067257604080517f08c379a000000000000000000000000000000000000000000000000000000000815260206004820152601f60248201527f526f6c65733a206163636f756e7420616c72656164792068617320726f6c6500604482015290519081900360640190fd5b6001600160a01b0316600090815260209190915260409020805460ff19166001179055565b620006a162001188565b6000620006ad62001188565b620006b7620011af565b6000808089805b8982018110156200084a57620006e0818c620008df60201b62003ef11760201c565b91965094509250820160018514156200070e5762000707818c89896200092360201b60201c565b0162000844565b84600214156200072c5762000707818c89896200099a60201b60201c565b84600314156200074a5762000707818c898962000a0160201b60201c565b8460041415620007685762000707818c898962000a6160201b60201c565b60018460058111156200077757fe5b14156200079f57600062000797828d62000ac160201b62003fc01760201c565b929092019150505b6005846005811115620007ae57fe5b1415620007d6576000620007ce828d62000aea60201b62003fe11760201c565b929092019150505b6000846005811115620007e557fe5b14156200080d57600062000805828d62000b0460201b62003ff31760201c565b929092019150505b60028460058111156200081c57fe5b1415620008445760006200083c828d62000bbb60201b620040851760201c565b929092019150505b620006be565b50949a97995096975050505050505050565b60006001600160a01b038216620008bf576040517f08c379a0000000000000000000000000000000000000000000000000000000008152600401808060200182810382526022815260200180620063ca6022913960400191505060405180910390fd5b506001600160a01b03166000908152602091909152604090205460ff1690565b6000806000806000620008f9878762000b0460201b60201c565b9150915060008260071660058111156200090f57fe5b600890930498929750909550909350505050565b60008060006200093f878762000cb060201b620045f41760201c565b91509150620009548562000cca60201b60201c565b156200097057600184815b602002018051909101905262000990565b8185526020840151156200099057600184815b6020020180519190910390525b9695505050505050565b6000806000620009b6878762000cce60201b620045d01760201c565b91509150620009cb8562000cca60201b60201c565b15620009dc5760018460026200095f565b6001600160a01b03821660208601526040840151156200099057600184600262000983565b600080600062000a1d878762000cfa60201b620045991760201c565b9150915062000a328562000cca60201b60201c565b1562000a435760018460036200095f565b81151560408601526060840151156200099057600184600362000983565b600080600062000a7d878762000cfa60201b620045991760201c565b9150915062000a928562000cca60201b60201c565b1562000aa35760018460046200095f565b81151560608601526080840151156200099057600184600462000983565b60008060008062000adb8686600862000d3b60201b60201c565b909450925050505b9250929050565b60008060008062000adb8686600462000d3b60201b60201c565b80519181019160009081908190819060200160805b608081166080141562000bae57868803821162000b88577f08c379a0000000000000000000000000000000000000000000000000000000006000526020600452600f6024527f6c656e677468206f766572666c6f77000000000000000000000000000000000060445260536000fd5b875160001a905080607f16836007021b8417935060018301925060018801975062000b19565b5091969095509350505050565b6060600080600062000bd4868662000b0460201b60201c565b915091506060826040519080825280601f01601f19166020018201604052801562000c06576020820181803883390190505b508651978701830197909150602090810190820160005b8581101562000ca057888a03831162000c88577f08c379a0000000000000000000000000000000000000000000000000000000006000526020600452600f6024527f6c656e677468206f766572666c6f77000000000000000000000000000000000060445260536000fd5b895160001a82536001998a0199918201910162000c1d565b5091955050500190509250929050565b60008060008062000adb6020878762000de660201b60201c565b1590565b60008060008062000ce86014878762000e0d60201b60201c565b60609190911c97909650945050505050565b60008060008062000d12868662000b0460201b60201c565b91509150816000141562000d2e5760009350915062000ae39050565b6001969095509350505050565b81519282019260009081908190602001815b8581101562000dd857868803821162000db8577f08c379a0000000000000000000000000000000000000000000000000000000006000526020600452600f6024527f6c656e677468206f766572666c6f77000000000000000000000000000000000060445260536000fd5b875160001a816008021b8317925060018801975060018101905062000d4d565b509096939550929350505050565b60008060008062000dff87878762000fe460201b60201c565b909890975095505050505050565b60008060008062000e25868662000b0460201b60201c565b90925090506020600860ff60038a0116848401111562000f16576040518060400160405280600f81526020017f6c656e677468206f766572666c6f7700000000000000000000000000000000008152506040517f08c379a00000000000000000000000000000000000000000000000000000000081526004018080602001828103825283818151815260200191508051906020019080838360005b8381101562000eda57818101518382015260200162000ec0565b50505050905090810190601f16801562000f085780820380516001836020036101000a031916815260200191505b509250505060405180910390fd5b6003880197506000602088510189106040518060400160405280600f81526020017f6c656e677468206f766572666c6f7700000000000000000000000000000000008152509062000fc4576040517f08c379a000000000000000000000000000000000000000000000000000000000815260206004820181815283516024840152835190928392604490910191908501908083836000831562000eda57818101518382015260200162000ec0565b505087870151918490036002010290811c901b9350019050935093915050565b600080600080600062000ffe878762000b0460201b60201c565b915091508760030160ff168183011115620010a757604080518082018252600f81527f6c656e677468206f766572666c6f770000000000000000000000000000000000602080830191825292517f08c379a0000000000000000000000000000000000000000000000000000000008152600481019384528251602482015282519293928392604490920191908083836000831562000eda57818101518382015260200162000ec0565b600387019650602086510187106040518060400160405280600f81526020017f6c656e677468206f766572666c6f7700000000000000000000000000000000008152509062001153576040517f08c379a000000000000000000000000000000000000000000000000000000000815260206004820181815283516024840152835190928392604490910191908501908083836000831562000eda57818101518382015260200162000ec0565b5086860151925060011982015b60208110156200117a576101008404935060010162001160565b509197910195509350505050565b60408051608081018252600080825260208201819052918101829052606081019190915290565b6040518060a001604052806005906020820280388339509192915050565b61516d80620011dd6000396000f3fe608060405234801561001057600080fd5b50600436106100f55760003560e01c8063711ec8ee1161009757806390d69d641161006657806390d69d64146103ac578063d9d6f958146103d2578063dc06b3a2146103f5578063f1c0d81a146104a7576100f5565b8063711ec8ee146102ee57806379dcec8c146103285780638792b833146103565780638f7afe3e1461037a576100f5565b80634154cf64116100d35780634154cf64146101fa57806351b42b001461022c5780635c3b1cf01461023457806369382c641461023c576100f5565b8063011e8f96146100fa578063059c2775146101a95780632ea24112146101cc575b600080fd5b6101a76004803603604081101561011057600080fd5b8135919081019060408101602082013564010000000081111561013257600080fd5b82018360208201111561014457600080fd5b8035906020019184600183028401116401000000008311171561016657600080fd5b91908080601f01602080910402602001604051908101604052809392919081815260200183838082843760009201919091525092955061055f945050505050565b005b6101a7600480360360408110156101bf57600080fd5b50803590602001356106b2565b6101a7600480360360408110156101e257600080fd5b506001600160a01b0381351690602001351515610913565b6101a76004803603606081101561021057600080fd5b508035906001600160a01b0360208201351690604001356109ce565b6101a7610cbf565b6101a7610f6d565b6101a76004803603606081101561025257600080fd5b81359160208101359181019060608101604082013564010000000081111561027957600080fd5b82018360208201111561028b57600080fd5b803590602001918460018302840111640100000000831117156102ad57600080fd5b91908080601f016020809104026020016040519081016040528093929190818152602001838380828437600092019190915250929550610f78945050505050565b6103146004803603602081101561030457600080fd5b50356001600160a01b031661108a565b604080519115158252519081900360200190f35b6101a76004803603604081101561033e57600080fd5b506001600160a01b03813516906020013515156110a2565b61035e61115d565b604080516001600160a01b039092168252519081900360200190f35b6101a76004803603606081101561039057600080fd5b508035906001600160a01b03602082013516906040013561116d565b6101a7600480360360208110156103c257600080fd5b50356001600160a01b0316611444565b6101a7600480360360408110156103e857600080fd5b5080359060200135611497565b6101a76004803603606081101561040b57600080fd5b81359160208101359181019060608101604082013564010000000081111561043257600080fd5b82018360208201111561044457600080fd5b8035906020019184600183028401116401000000008311171561046657600080fd5b91908080601f0160208091040260200160405190810160405280939291908181526020018383808284376000920191909152509295506116f8945050505050565b61054d600480360360208110156104bd57600080fd5b8101906020810181356401000000008111156104d857600080fd5b8201836020820111156104ea57600080fd5b8035906020019184600183028401116401000000008311171561050c57600080fd5b91908080601f0160208091040260200160405190810160405280939291908181526020018383808284376000920191909152509295506117c3945050505050565b60408051918252519081900360200190f35b61056833612061565b6105a657604051600160e51b62461bcd02815260040180806020018281038252602d815260200180614d6c602d913960400191505060405180910390fd5b6000828152600f6020526040902060016005820154600160a01b900460ff1660068111156105d057fe5b1461060f57604051600160e51b62461bcd02815260040180806020018281038252602f815260200180615113602f913960400191505060405180910390fd5b80546001600160a01b031661065857604051600160e51b62461bcd02815260040180806020018281038252602a815260200180614d99602a913960400191505060405180910390fd5b60028101805473ffffffffffffffffffffffffffffffffffffffff191633179055426003820155606061068a84612090565b90506000606061069b8684876121e7565b915091506106aa8683836124a9565b505050505050565b6000828152600f6020526040902080546001600160a01b031661070957604051600160e51b62461bcd02815260040180806020018281038252602a815260200180614d99602a913960400191505060405180910390fd5b600581015461072190600160a01b900460ff166126cd565b1561076057604051600160e51b62461bcd02815260040180806020018281038252602b815260200180614d10602b913960400191505060405180910390fd5b600082116107a257604051600160e51b62461bcd02815260040180806020018281038252602a8152602001806150e9602a913960400191505060405180910390fd5b6107ac8333612725565b6107ea57604051600160e51b62461bcd02815260040180806020018281038252602e815260200180614f88602e913960400191505060405180910390fd5b600e54604080517f487c35800000000000000000000000000000000000000000000000000000000081523360048201526024810185905290516001600160a01b039092169163487c35809160448082019260009290919082900301818387803b15801561085657600080fd5b505af115801561086a573d6000803e3d6000fd5b505050506005810154604080517f70d97c3400000000000000000000000000000000000000000000000000000000815233600482015290516001600160a01b03909216916370d97c34918591602480830192600092919082900301818588803b1580156108d657600080fd5b505af11580156108ea573d6000803e3d6000fd5b505050505060606108fa84612090565b90506000606061069b868461090d61277c565b88612782565b60045460ff1661095757604051600160e51b62461bcd028152600401808060200182810382526036815260200180614fe76036913960400191505060405180910390fd5b6008546001600160a01b031633146109a357604051600160e51b62461bcd02815260040180806020018281038252603b815260200180614dc3603b913960400191505060405180910390fd5b6001600160a01b03919091166000908152600560205260409020805460ff1916911515919091179055565b6000838152600f6020526040902080546001600160a01b0316610a2557604051600160e51b62461bcd02815260040180806020018281038252602a815260200180614d99602a913960400191505060405180910390fd5b6005810154610a3d90600160a01b900460ff166126cd565b15610a7c57604051600160e51b62461bcd02815260040180806020018281038252602b815260200180614d10602b913960400191505060405180910390fd5b6001600160a01b038316610ac457604051600160e51b62461bcd028152600401808060200182810382526031815260200180614fb66031913960400191505060405180910390fd5b60008211610b0657604051600160e51b62461bcd02815260040180806020018281038252602a8152602001806150e9602a913960400191505060405180910390fd5b610b108433612725565b610b4e57604051600160e51b62461bcd02815260040180806020018281038252602e815260200180614f88602e913960400191505060405180910390fd5b600e54604080517f3d4aa9a90000000000000000000000000000000000000000000000000000000081523360048201526001600160a01b0386811660248301526044820186905291519190921691633d4aa9a991606480830192600092919082900301818387803b158015610bc257600080fd5b505af1158015610bd6573d6000803e3d6000fd5b5050506005820154610bfc91506001600160a01b0385811691168463ffffffff612a0016565b6005810154604080517f810c0af80000000000000000000000000000000000000000000000000000000081523360048201526001600160a01b038681166024830152604482018690529151919092169163810c0af891606480830192600092919082900301818387803b158015610c7257600080fd5b505af1158015610c86573d6000803e3d6000fd5b505050506060610c9585612090565b905060006060610ca787848888612782565b91509150610cb68783836124a9565b50505050505050565b60015460ff16610d0357604051600160e51b62461bcd02815260040180806020018281038252603d815260200180614cd3603d913960400191505060405180910390fd5b6008546001600160a01b03163314610d4f57604051600160e51b62461bcd02815260040180806020018281038252603e815260200180614ef7603e913960400191505060405180910390fd5b600c5415610f6157600d54604080517fe755926000000000000000000000000000000000000000000000000000000000815290516000926001600160a01b03169163e7559260916004808301926020929190829003018186803b158015610db557600080fd5b505afa158015610dc9573d6000803e3d6000fd5b505050506040513d6020811015610ddf57600080fd5b5051600d5460408051600160e01b6323dc9e3702815290519293506001600160a01b0380851693639e281a9893909116916323dc9e37916004808301926020929190829003018186803b158015610e3557600080fd5b505afa158015610e49573d6000803e3d6000fd5b505050506040513d6020811015610e5f57600080fd5b5051600c546040805163ffffffff851660e01b81526001600160a01b039093166004840152602483019190915251604480830192600092919082900301818387803b158015610ead57600080fd5b505af1158015610ec1573d6000803e3d6000fd5b5050600854600c54600d5460408051600160e01b6323dc9e370281529051610f5f96506001600160a01b0394851695509293909116916323dc9e3791600480820192602092909190829003018186803b158015610f1d57600080fd5b505afa158015610f31573d6000803e3d6000fd5b505050506040513d6020811015610f4757600080fd5b50516001600160a01b0316919063ffffffff612b6216565b505b6001805460ff19169055565b610f7633612be2565b565b610f813361108a565b610fbf57604051600160e51b62461bcd02815260040180806020018281038252603a815260200180614dfe603a913960400191505060405180910390fd5b6000838152600f6020526040902080546001600160a01b031661101657604051600160e51b62461bcd02815260040180806020018281038252602a815260200180614d99602a913960400191505060405180910390fd5b600581015461102e90600160a01b900460ff166126cd565b1561106d57604051600160e51b62461bcd02815260040180806020018281038252602b815260200180614d10602b913960400191505060405180910390fd5b606061107885612090565b905060006060610ca787848888612c2a565b600061109c818363ffffffff612de716565b92915050565b60065460ff166110e657604051600160e51b62461bcd02815260040180806020018281038252603681526020018061501d6036913960400191505060405180910390fd5b6008546001600160a01b0316331461113257604051600160e51b62461bcd02815260040180806020018281038252603b815260200180614e38603b913960400191505060405180910390fd5b6001600160a01b03919091166000908152600760205260409020805460ff1916911515919091179055565b600e546001600160a01b03165b90565b6000838152600f6020526040902080546001600160a01b03166111c457604051600160e51b62461bcd02815260040180806020018281038252602a815260200180614d99602a913960400191505060405180910390fd5b60058101546111dc90600160a01b900460ff166126cd565b1561121b57604051600160e51b62461bcd02815260040180806020018281038252602b815260200180614d10602b913960400191505060405180910390fd5b6001600160a01b03831661126357604051600160e51b62461bcd028152600401808060200182810382526031815260200180614fb66031913960400191505060405180910390fd5b600082116112a557604051600160e51b62461bcd02815260040180806020018281038252602a8152602001806150e9602a913960400191505060405180910390fd5b6112af8433612725565b6112ed57604051600160e51b62461bcd028152600401808060200182810382526031815260200180614d3b6031913960400191505060405180910390fd5b6005810154604080517f3d4aa9a90000000000000000000000000000000000000000000000000000000081523360048201526001600160a01b0386811660248301526044820186905291519190921691633d4aa9a991606480830192600092919082900301818387803b15801561136357600080fd5b505af1158015611377573d6000803e3d6000fd5b5050600e5461139b92506001600160a01b038681169250168463ffffffff612a0016565b600e54604080517f810c0af80000000000000000000000000000000000000000000000000000000081523360048201526001600160a01b038681166024830152604482018690529151919092169163810c0af891606480830192600092919082900301818387803b15801561140f57600080fd5b505af1158015611423573d6000803e3d6000fd5b50505050606061143285612090565b905060006060610ca787848888612e51565b61144d3361108a565b61148b57604051600160e51b62461bcd02815260040180806020018281038252603a815260200180614dfe603a913960400191505060405180910390fd5b61149481612efc565b50565b6000828152600f6020526040902080546001600160a01b03166114ee57604051600160e51b62461bcd02815260040180806020018281038252602a815260200180614d99602a913960400191505060405180910390fd5b600581015461150690600160a01b900460ff166126cd565b1561154557604051600160e51b62461bcd02815260040180806020018281038252602b815260200180614d10602b913960400191505060405180910390fd5b6000821161158757604051600160e51b62461bcd02815260040180806020018281038252602a8152602001806150e9602a913960400191505060405180910390fd5b6115918333612725565b6115cf57604051600160e51b62461bcd028152600401808060200182810382526031815260200180614d3b6031913960400191505060405180910390fd5b6005810154604080517f487c35800000000000000000000000000000000000000000000000000000000081523360048201526024810185905290516001600160a01b039092169163487c35809160448082019260009290919082900301818387803b15801561163d57600080fd5b505af1158015611651573d6000803e3d6000fd5b5050600e54604080517f70d97c3400000000000000000000000000000000000000000000000000000000815233600482015290516001600160a01b0390921693506370d97c3492508591602480830192600092919082900301818588803b1580156116bb57600080fd5b505af11580156116cf573d6000803e3d6000fd5b505050505060606116df84612090565b90506000606061069b86846116f261277c565b88612e51565b6000838152600f6020526040902080546001600160a01b031661174f57604051600160e51b62461bcd02815260040180806020018281038252602a815260200180614d99602a913960400191505060405180910390fd5b600581015461176790600160a01b900460ff166126cd565b156117a657604051600160e51b62461bcd02815260040180806020018281038252602b815260200180614d10602b913960400191505060405180910390fd5b60606117b185612090565b905060006060610ca787848888612f44565b60006117cd612fdb565b61180b57604051600160e51b62461bcd028152600401808060200182810382526031815260200180614f356031913960400191505060405180910390fd5b61181433613004565b61185257604051600160e51b62461bcd02815260040180806020018281038252602d815260200180614e73602d913960400191505060405180910390fd5b600d5460408051600160e01b635a36366702815290516000926001600160a01b031691635a363667916004808301926020929190829003018186803b15801561189a57600080fd5b505afa1580156118ae573d6000803e3d6000fd5b505050506040513d60208110156118c457600080fd5b50511115611d7057600e54600d5460408051600160e01b6323dc9e3702815290516001600160a01b0393841693633d4aa9a99333939116916323dc9e3791600480820192602092909190829003018186803b15801561192257600080fd5b505afa158015611936573d6000803e3d6000fd5b505050506040513d602081101561194c57600080fd5b5051600d5460408051600160e01b635a36366702815290516001600160a01b0390921691635a36366791600480820192602092909190829003018186803b15801561199657600080fd5b505afa1580156119aa573d6000803e3d6000fd5b505050506040513d60208110156119c057600080fd5b50516040805163ffffffff861660e01b81526001600160a01b03948516600482015292909316602483015260448201529051606480830192600092919082900301818387803b158015611a1257600080fd5b505af1158015611a26573d6000803e3d6000fd5b50505050611ba5600d60009054906101000a90046001600160a01b03166001600160a01b031663e75592606040518163ffffffff1660e01b815260040160206040518083038186803b158015611a7b57600080fd5b505afa158015611a8f573d6000803e3d6000fd5b505050506040513d6020811015611aa557600080fd5b5051600d5460408051600160e01b635a36366702815290516001600160a01b0390921691635a36366791600480820192602092909190829003018186803b158015611aef57600080fd5b505afa158015611b03573d6000803e3d6000fd5b505050506040513d6020811015611b1957600080fd5b5051600d5460408051600160e01b6323dc9e3702815290516001600160a01b03909216916323dc9e3791600480820192602092909190829003018186803b158015611b6357600080fd5b505afa158015611b77573d6000803e3d6000fd5b505050506040513d6020811015611b8d57600080fd5b50516001600160a01b0316919063ffffffff612a0016565b600d60009054906101000a90046001600160a01b03166001600160a01b031663e75592606040518163ffffffff1660e01b815260040160206040518083038186803b158015611bf357600080fd5b505afa158015611c07573d6000803e3d6000fd5b505050506040513d6020811015611c1d57600080fd5b5051600d5460408051600160e01b6323dc9e3702815290516001600160a01b039384169363338b5dea9316916323dc9e37916004808301926020929190829003018186803b158015611c6e57600080fd5b505afa158015611c82573d6000803e3d6000fd5b505050506040513d6020811015611c9857600080fd5b5051600d5460408051600160e01b635a36366702815290516001600160a01b0390921691635a36366791600480820192602092909190829003018186803b158015611ce257600080fd5b505afa158015611cf6573d6000803e3d6000fd5b505050506040513d6020811015611d0c57600080fd5b50516040805163ffffffff851660e01b81526001600160a01b039093166004840152602483019190915251604480830192600092919082900301818387803b158015611d5757600080fd5b505af1158015611d6b573d6000803e3d6000fd5b505050505b600b805460018101909155600d54604080517fd9e86f1d00000000000000000000000000000000000000000000000000000000815290516000926001600160a01b03169163d9e86f1d916004808301926020929190829003018186803b158015611dd957600080fd5b505afa158015611ded573d6000803e3d6000fd5b505050506040513d6020811015611e0357600080fd5b5051604080517f0ae60b6000000000000000000000000000000000000000000000000000000000815290516001600160a01b0390921691630ae60b60916004808201926020929091908290030181600087803b158015611e6257600080fd5b505af1158015611e76573d6000803e3d6000fd5b505050506040513d6020811015611e8c57600080fd5b50516040805160e0810182523381524260208083019190915260008284018190526060830152600d548351600160e01b635a3636670281529351949550919360808501936001600160a01b0390931692635a363667926004808301939192829003018186803b158015611efe57600080fd5b505afa158015611f12573d6000803e3d6000fd5b505050506040513d6020811015611f2857600080fd5b505181526001600160a01b0383166020820152604001600090526000838152600f60209081526040918290208351815473ffffffffffffffffffffffffffffffffffffffff199081166001600160a01b03928316178355928501516001830155928401516002820180548416918516919091179055606084015160038201556080840151600482015560a084015160058201805490931693169290921780825560c0840151919074ff00000000000000000000000000000000000000001916600160a01b836006811115611ff857fe5b0217905550905050606061200b83612090565b9050612018838287613033565b6000848152600f60205260409020600501805474ff00000000000000000000000000000000000000001916600160a01b83600681111561205457fe5b0217905550505050919050565b60065460009060ff16158061109c5750506001600160a01b031660009081526007602052604090205460ff1690565b6000818152600f602052604090206060906120a96148f9565b60408051610160810182528581526008546001600160a01b03908116602083015260095481169282019290925283548216606082015260018401546080820152600284015490911660a0820152600383015460c0820152600583015460e0820190600160a01b900460ff16600681111561211f57fe5b60ff16815260058401546001600160a01b0390811660208084019190915233604080850191909152600d5481517f2bc51c6d0000000000000000000000000000000000000000000000000000000081529151606090950194931692632bc51c6d92600480840193919291829003018186803b15801561219d57600080fd5b505afa1580156121b1573d6000803e3d6000fd5b505050506040513d60208110156121c757600080fd5b50516001600160a01b0316905290506121df8161321d565b949350505050565b60006060600a60009054906101000a90046001600160a01b03166001600160a01b0316633c9723aa8585601060008a81526020019081526020016000206040518463ffffffff1660e01b815260040180806020018060200180602001848103845287818151815260200191508051906020019080838360005b83811015612278578181015183820152602001612260565b50505050905090810190601f1680156122a55780820380516001836020036101000a031916815260200191505b50848103835286518152865160209182019188019080838360005b838110156122d85781810151838201526020016122c0565b50505050905090810190601f1680156123055780820380516001836020036101000a031916815260200191505b508481038252855460026000196101006001841615020190911604808252602090910190869080156123785780601f1061234d57610100808354040283529160200191612378565b820191906000526020600020905b81548152906001019060200180831161235b57829003601f168201915b50509650505050505050600060405180830381600087803b15801561239c57600080fd5b505af11580156123b0573d6000803e3d6000fd5b505050506040513d6000823e601f3d908101601f1916820160405260608110156123d957600080fd5b8151602083018051919392830192916401000000008111156123fa57600080fd5b8201602081018481111561240d57600080fd5b815164010000000081118282018710171561242757600080fd5b5050929190602001805164010000000081111561244357600080fd5b8201602081018481111561245657600080fd5b815164010000000081118282018710171561247057600080fd5b505060008b8152601060209081526040909120865192985088955061249a94509250850190614955565b50829450505050935093915050565b6000838152600f6020526040902060058101805484919074ff00000000000000000000000000000000000000001916600160a01b8360068111156124e957fe5b02179055506124f7836126cd565b8015612507575060008160040154115b156126bd57600d60009054906101000a90046001600160a01b03166001600160a01b031663e75592606040518163ffffffff1660e01b815260040160206040518083038186803b15801561255a57600080fd5b505afa15801561256e573d6000803e3d6000fd5b505050506040513d602081101561258457600080fd5b5051600d5460408051600160e01b6323dc9e3702815290516001600160a01b0393841693639e281a989316916323dc9e37916004808301926020929190829003018186803b1580156125d557600080fd5b505afa1580156125e9573d6000803e3d6000fd5b505050506040513d60208110156125ff57600080fd5b50516004808501546040805163ffffffff861660e01b81526001600160a01b0390941692840192909252602483015251604480830192600092919082900301818387803b15801561264f57600080fd5b505af1158015612663573d6000803e3d6000fd5b50508254600480850154600d5460408051600160e01b6323dc9e3702815290516126bd97506001600160a01b0395861696509294909116926323dc9e37928282019260209290829003018186803b158015610f1d57600080fd5b6126c7848361326d565b50505050565b600060038260068111156126dd57fe5b14806126f4575060048260068111156126f257fe5b145b8061270a5750600582600681111561270857fe5b145b8061109c5750600682600681111561271e57fe5b1492915050565b6000828152600f6020526040812080546001600160a01b038481169116148061275d575060028101546001600160a01b038481169116145b806121df57506009546001600160a01b03848116911614949350505050565b60001990565b60006060600a60009054906101000a90046001600160a01b03166001600160a01b0316638515cd9c868686601060008c81526020019081526020016000206040518563ffffffff1660e01b81526004018080602001856001600160a01b03166001600160a01b0316815260200184815260200180602001838103835287818151815260200191508051906020019080838360005b8381101561282e578181015183820152602001612816565b50505050905090810190601f16801561285b5780820380516001836020036101000a031916815260200191505b508381038252845460026000196101006001841615020190911604808252602090910190859080156128ce5780601f106128a3576101008083540402835291602001916128ce565b820191906000526020600020905b8154815290600101906020018083116128b157829003601f168201915b50509650505050505050600060405180830381600087803b1580156128f257600080fd5b505af1158015612906573d6000803e3d6000fd5b505050506040513d6000823e601f3d908101601f19168201604052606081101561292f57600080fd5b81516020830180519193928301929164010000000081111561295057600080fd5b8201602081018481111561296357600080fd5b815164010000000081118282018710171561297d57600080fd5b5050929190602001805164010000000081111561299957600080fd5b820160208101848111156129ac57600080fd5b81516401000000008111828201871017156129c657600080fd5b505060008c815260106020908152604090912086519298508895506129f094509250850190614955565b5082945050505094509492505050565b801580612a9f5750604080517fdd62ed3e0000000000000000000000000000000000000000000000000000000081523060048201526001600160a01b03848116602483015291519185169163dd62ed3e91604480820192602092909190829003018186803b158015612a7157600080fd5b505afa158015612a85573d6000803e3d6000fd5b505050506040513d6020811015612a9b57600080fd5b5051155b612add57604051600160e51b62461bcd0281526004018080602001828103825260368152602001806150b36036913960400191505060405180910390fd5b604080516001600160a01b038416602482015260448082018490528251808303909101815260649091019091526020810180517bffffffffffffffffffffffffffffffffffffffffffffffffffffffff167f095ea7b300000000000000000000000000000000000000000000000000000000179052612b5d908490613753565b505050565b604080516001600160a01b038416602482015260448082018490528251808303909101815260649091019091526020810180517bffffffffffffffffffffffffffffffffffffffffffffffffffffffff167fa9059cbb00000000000000000000000000000000000000000000000000000000179052612b5d908490613753565b612bf360008263ffffffff61391416565b6040516001600160a01b038216907f708c3750abf4f634a44a83e054e242d74eca9179f6c36780e5f62d1bcda31ba090600090a250565b60006060600a60009054906101000a90046001600160a01b03166001600160a01b03166336412d4d868686601060008c81526020019081526020016000206040518563ffffffff1660e01b815260040180806020018581526020018060200180602001848103845288818151815260200191508051906020019080838360005b83811015612cc2578181015183820152602001612caa565b50505050905090810190601f168015612cef5780820380516001836020036101000a031916815260200191505b50848103835286518152865160209182019188019080838360005b83811015612d22578181015183820152602001612d0a565b50505050905090810190601f168015612d4f5780820380516001836020036101000a031916815260200191505b50848103825285546002600019610100600184161502019091160480825260209091019086908015612dc25780601f10612d9757610100808354040283529160200191612dc2565b820191906000526020600020905b815481529060010190602001808311612da557829003601f168201915b5050975050505050505050600060405180830381600087803b1580156128f257600080fd5b60006001600160a01b038216612e3157604051600160e51b62461bcd028152600401808060200182810382526022815260200180614f666022913960400191505060405180910390fd5b506001600160a01b03166000908152602091909152604090205460ff1690565b60006060600a60009054906101000a90046001600160a01b03166001600160a01b031663df22662f868686601060008c81526020019081526020016000206040518563ffffffff1660e01b81526004018080602001856001600160a01b03166001600160a01b0316815260200184815260200180602001838103835287818151815260200191508051906020019080838360008381101561282e578181015183820152602001612816565b612f0d60008263ffffffff61397e16565b6040516001600160a01b038216907f9ddc85aace404f3f4847945cd853a70355e2f1dc7f6a75b7951259bcfa97c22b90600090a250565b60006060600a60009054906101000a90046001600160a01b03166001600160a01b031663632530ab868686601060008c81526020019081526020016000206040518563ffffffff1660e01b8152600401808060200185815260200180602001806020018481038452888181518152602001915080519060200190808383600083811015612cc2578181015183820152602001612caa565b60015460009060ff168015612fff57506002541580612fff57504260035460025401115b905090565b60045460009060ff16158061109c5750506001600160a01b031660009081526005602052604090205460ff1690565b600a54604080517fcdfa837a000000000000000000000000000000000000000000000000000000008152600481019182528451604482015284516000936001600160a01b03169263cdfa837a928792879291829160248201916064019060208701908083838d5b838110156130b257818101518382015260200161309a565b50505050905090810190601f1680156130df5780820380516001836020036101000a031916815260200191505b50838103825284518152845160209182019186019080838360005b838110156131125781810151838201526020016130fa565b50505050905090810190601f16801561313f5780820380516001836020036101000a031916815260200191505b50945050505050600060405180830381600087803b15801561316057600080fd5b505af1158015613174573d6000803e3d6000fd5b505050506040513d6000823e601f3d908101601f19168201604090815281101561319d57600080fd5b8151602083018051919392830192916401000000008111156131be57600080fd5b820160208101848111156131d157600080fd5b81516401000000008111828201871017156131eb57600080fd5b50506000898152601060209081526040909120825192955061321294509250840190614955565b509095945050505050565b60608061322983613a02565b6040519080825280601f01601f191660200182016040528015613253576020820181803883390190505b509050600061326484602084613a09565b82525092915050565b6132756149d3565b61327e82613b8b565b6000848152600f602052604081206005810154929350916001600160a01b0316905b8351518110156106aa576132b26149e6565b84518051839081106132c057fe5b602002602001015190506132d8878260200151612725565b61331657604051600160e51b62461bcd028152600401808060200182810382526036815260200180614ea06036913960400191505060405180910390fd5b613324878260400151612725565b61336257604051600160e51b62461bcd0281526004018080602001828103825260368152602001806150536036913960400191505060405180910390fd5b8051156136015761337161277c565b6001600160a01b031681606001516001600160a01b0316141561349c57826001600160a01b031663487c3580826020015183608001516040518363ffffffff1660e01b815260040180836001600160a01b03166001600160a01b0316815260200182815260200192505050600060405180830381600087803b1580156133f657600080fd5b505af115801561340a573d6000803e3d6000fd5b5050600e54608084015160408086015181517f70d97c340000000000000000000000000000000000000000000000000000000081526001600160a01b0391821660048201529151931694506370d97c3493509091602480830192600092919082900301818588803b15801561347e57600080fd5b505af1158015613492573d6000803e3d6000fd5b50505050506135fc565b602081015160608201516080830151604080517f3d4aa9a90000000000000000000000000000000000000000000000000000000081526001600160a01b039485166004820152928416602484015260448301919091525191851691633d4aa9a99160648082019260009290919082900301818387803b15801561351e57600080fd5b505af1158015613532573d6000803e3d6000fd5b5050600e546080840151606085015161356294506001600160a01b0390811693509091169063ffffffff612a0016565b600e546040808301516060840151608085015183517f810c0af80000000000000000000000000000000000000000000000000000000081526001600160a01b03938416600482015291831660248301526044820152915192169163810c0af89160648082019260009290919082900301818387803b1580156135e357600080fd5b505af11580156135f7573d6000803e3d6000fd5b505050505b61374a565b61360961277c565b6001600160a01b031681606001516001600160a01b031614156136a5576020810151604080830151608084015182517fbeabacc80000000000000000000000000000000000000000000000000000000081526001600160a01b0394851660048201529184166024830152604482015290519185169163beabacc89160648082019260009290919082900301818387803b1580156135e357600080fd5b60208101516040808301516060840151608085015183517f2c54de4f0000000000000000000000000000000000000000000000000000000081526001600160a01b039586166004820152928516602484015290841660448301526064820152905191851691632c54de4f9160848082019260009290919082900301818387803b15801561373157600080fd5b505af1158015613745573d6000803e3d6000fd5b505050505b506001016132a0565b613765826001600160a01b0316613bb0565b6137b95760408051600160e51b62461bcd02815260206004820152601f60248201527f5361666545524332303a2063616c6c20746f206e6f6e2d636f6e747261637400604482015290519081900360640190fd5b60006060836001600160a01b0316836040518082805190602001908083835b602083106137f75780518252601f1990920191602091820191016137d8565b6001836020036101000a0380198251168184511680821785525050505050509050019150506000604051808303816000865af19150503d8060008114613859576040519150601f19603f3d011682016040523d82523d6000602084013e61385e565b606091505b5091509150816138b85760408051600160e51b62461bcd02815260206004820181905260248201527f5361666545524332303a206c6f772d6c6576656c2063616c6c206661696c6564604482015290519081900360640190fd5b8051156126c7578080602001905160208110156138d457600080fd5b50516126c757604051600160e51b62461bcd02815260040180806020018281038252602a815260200180615089602a913960400191505060405180910390fd5b61391e8282612de7565b61395c57604051600160e51b62461bcd028152600401808060200182810382526021815260200180614ed66021913960400191505060405180910390fd5b6001600160a01b0316600090815260209190915260409020805460ff19169055565b6139888282612de7565b156139dd5760408051600160e51b62461bcd02815260206004820152601f60248201527f526f6c65733a206163636f756e7420616c72656164792068617320726f6c6500604482015290519081900360640190fd5b6001600160a01b0316600090815260209190915260409020805460ff19166001179055565b5061011990565b60008280613a1b600160028387613be7565b8651910190613a2b908286613c07565b01613a396002808387613be7565b81019050613a4c86602001518286613c16565b01613a5b600360028387613be7565b81019050613a6e86604001518286613c16565b01613a7d600460028387613be7565b81019050613a9086606001518286613c16565b01613a9f600560028387613be7565b81019050613ab286608001518286613c07565b01613ac1600660028387613be7565b81019050613ad48660a001518286613c16565b01613ae3600760028387613be7565b81019050613af68660c001518286613c07565b01613b05600860028387613be7565b81019050613b188660e001518286613c2e565b01613b27600960028387613be7565b81019050613b3b8661010001518286613c16565b01613b4a600a60028387613be7565b81019050613b5e8661012001518286613c16565b01613b6d600b60028387613be7565b81019050613b818661014001518286613c16565b0103949350505050565b613b936149d3565b613b9b6149d3565b613ba86020848551613c40565b509392505050565b6000813f7fc5d2460186f7233c927e7db2dcc703c0e500b653ca82273b7bfad8045d85a47081158015906121df5750141592915050565b6000600885026007851617613bfd818585613e7b565b9695505050505050565b60006121df8460208585613ebe565b60006121df846001600160a01b031660148585613ebe565b60006121df8460ff1660018585613ebe565b613c486149d3565b6000613c526149d3565b613c5a614a14565b6000808089805b898201811015613d4557613c75818c613ef1565b9196509450925082016001851415613ca057613c9a818c613c94613f2c565b89613f3a565b01613d40565b6001846005811115613cae57fe5b1415613cc8576000613cc0828d613fc0565b929092019150505b6005846005811115613cd657fe5b1415613cf0576000613ce8828d613fe1565b929092019150505b6000846005811115613cfe57fe5b1415613d18576000613d10828d613ff3565b929092019150505b6002846005811115613d2657fe5b1415613d40576000613d38828d614085565b929092019150505b613c61565b50808560016020020151604051908082528060200260200182016040528015613d8857816020015b613d756149e6565b815260200190600190039081613d6d5790505b5087525b898201811015613e6957613da0818c613ef1565b9196509450925082016001851415613dc457613dbe818c8989613f3a565b01613e64565b6001846005811115613dd257fe5b1415613dec576000613de4828d613fc0565b929092019150505b6005846005811115613dfa57fe5b1415613e14576000613e0c828d613fe1565b929092019150505b6000846005811115613e2257fe5b1415613e3c576000613e34828d613ff3565b929092019150505b6002846005811115613e4a57fe5b1415613e64576000613e5c828d614085565b929092019150505b613d8c565b50949a97995096975050505050505050565b600080828401607f86165b600787901c15613eae578060801782535060079590951c9460019182019101607f8616613e86565b8082535050600101949350505050565b600382019160009081613ed38786868961414c565b948501949050613ee481838661418a565b5050909203949350505050565b6000806000806000613f038787613ff3565b915091506000826007166005811115613f1857fe5b600890930498929750909550909350505050565b613f346149d3565b50600090565b6000613f446149e6565b6000613f5087876141cb565b91509150613f5d8561420d565b15613f7757600184815b6020020180519091019052613bfd565b8451602085015181518492918103908110613f8e57fe5b60209081029190910181019190915284015115613bfd57600184815b6020020180519190910390529695505050505050565b600080600080613fd286866008614211565b909450925050505b9250929050565b600080600080613fd286866004614211565b80519181019160009081908190819060200160805b608081166080141561407857868803821161405357600160e51b62461bcd026000526020600452600f602452600160881b6e6c656e677468206f766572666c6f770260445260536000fd5b875160001a905080607f16836007021b84179350600183019250600188019750614008565b5091969095509350505050565b606060008060006140968686613ff3565b915091506060826040519080825280601f01601f1916602001820160405280156140c7576020820181803883390190505b508651978701830197909150602090810190820160005b8581101561413c57888a03831161412557600160e51b62461bcd026000526020600452600f602452600160881b6e6c656e677468206f766572666c6f770260445260536000fd5b895160001a82536001998a019991820191016140de565b5091955050500190509250929050565b6000806141598684614297565b9050848401815b801561417e5787816020031a82536001919091019060001901614160565b50909695505050505050565b60008261419b600286018285613e7b565b840193506141ad600160028686613be7565b840193506141bc858585613e7b565b90930192830390509392505050565b6141d36149e6565b60008381806141e28387613ff3565b9150915080830192506141f36149e6565b6141fe8488856142d5565b50955050019150509250929050565b1590565b81519282019260009081908190602001815b8581101561428957868803821161426a57600160e51b62461bcd026000526020600452600f602452600160881b6e6c656e677468206f766572666c6f770260445260536000fd5b875160001a816008021b83179250600188019750600181019050614223565b509096939550929350505050565b600060ff825b600719600882020182901b85161580156142b75750600081115b156142c5576000190161429d565b806121df57506001949350505050565b6142dd6149e6565b60006142e76149e6565b6142ef614a32565b6000808089805b898201811015613e695761430a818c613ef1565b919650945092508201600185141561432e57614328818c8989614427565b01614422565b846002141561434357614328818c8989614469565b846003141561435857614328818c89896144b7565b846004141561436d57614328818c8989614505565b846005141561438257614328818c8989614553565b600184600581111561439057fe5b14156143aa5760006143a2828d613fc0565b929092019150505b60058460058111156143b857fe5b14156143d25760006143ca828d613fe1565b929092019150505b60008460058111156143e057fe5b14156143fa5760006143f2828d613ff3565b929092019150505b600284600581111561440857fe5b141561442257600061441a828d614085565b929092019150505b6142f6565b60008060006144368787614599565b915091506144438561420d565b156144515760018481613f67565b8115158552602084015115613bfd5760018481613faa565b600080600061447887876145d0565b915091506144858561420d565b15614494576001846002613f67565b6001600160a01b0382166020860152604084015115613bfd576001846002613faa565b60008060006144c687876145d0565b915091506144d38561420d565b156144e2576001846003613f67565b6001600160a01b0382166040860152606084015115613bfd576001846003613faa565b600080600061451487876145d0565b915091506145218561420d565b15614530576001846004613f67565b6001600160a01b0382166060860152608084015115613bfd576001846004613faa565b600080600061456287876145f4565b9150915061456f8561420d565b1561457e576001846005613f67565b6080850182905260a084015115613bfd576001846005613faa565b6000806000806145a98686613ff3565b9150915081600014156145c357600093509150613fda9050565b6001969095509350505050565b6000806000806145e260148787614606565b60609190911c97909650945050505050565b600080600080613fd26020878761478a565b6000806000806146168686613ff3565b90925090506020600860ff60038a011684840111156146e1576040518060400160405280600f8152602001600160881b6e6c656e677468206f766572666c6f7702815250604051600160e51b62461bcd0281526004018080602001828103825283818151815260200191508051906020019080838360005b838110156146a657818101518382015260200161468e565b50505050905090810190601f1680156146d35780820380516001836020036101000a031916815260200191505b509250505060405180910390fd5b6003880197506000602088510189106040518060400160405280600f8152602001600160881b6e6c656e677468206f766572666c6f77028152509061476a57604051600160e51b62461bcd0281526020600482018181528351602484015283519092839260449091019190850190808383600083156146a657818101518382015260200161468e565b505087870151918490036002010290811c901b9350019050935093915050565b60008060008061479b8787876147a9565b909890975095505050505050565b60008060008060006147bb8787613ff3565b915091508760030160ff16818301111561483f57604080518082018252600f8152600160881b6e6c656e677468206f766572666c6f770260208083019182529251600160e51b62461bcd02815260048101938452825160248201528251929392839260449092019190808383600083156146a657818101518382015260200161468e565b600387019650602086510187106040518060400160405280600f8152602001600160881b6e6c656e677468206f766572666c6f7702815250906148c657604051600160e51b62461bcd0281526020600482018181528351602484015283519092839260449091019190850190808383600083156146a657818101518382015260200161468e565b5086860151925060011982015b60208110156148eb57610100840493506001016148d3565b509197910195509350505050565b6040805161016081018252600080825260208201819052918101829052606081018290526080810182905260a0810182905260c0810182905260e081018290526101008101829052610120810182905261014081019190915290565b828054600181600116156101000203166002900490600052602060002090601f016020900481019282601f1061499657805160ff19168380011785556149c3565b828001600101855582156149c3579182015b828111156149c35782518255916020019190600101906149a8565b506149cf929150614a50565b5090565b6040518060200160405280606081525090565b6040805160a08101825260008082526020820181905291810182905260608101829052608081019190915290565b60405180604001604052806002906020820280388339509192915050565b6040518060c001604052806006906020820280388339509192915050565b61116a91905b808211156149cf5760008155600101614a56565b614a72614c8d565b614a7a614c8d565b613ba86020848551614a8a614c8d565b6000614a94614c8d565b614a9c614cb4565b6000808089805b898201811015613e6957614ab7818c613ef1565b9196509450925082016001851415614adb57614ad5818c8989614bbf565b01614bba565b8460021415614af057614ad5818c8989614469565b8460031415614b0557614ad5818c8989614bff565b8460041415614b1a57614ad5818c8989614c46565b6001846005811115614b2857fe5b1415614b42576000614b3a828d613fc0565b929092019150505b6005846005811115614b5057fe5b1415614b6a576000614b62828d613fe1565b929092019150505b6000846005811115614b7857fe5b1415614b92576000614b8a828d613ff3565b929092019150505b6002846005811115614ba057fe5b1415614bba576000614bb2828d614085565b929092019150505b614aa3565b6000806000614bce87876145f4565b91509150614bdb8561420d565b15614be95760018481613f67565b818552602084015115613bfd5760018481613faa565b6000806000614c0e8787614599565b91509150614c1b8561420d565b15614c2a576001846003613f67565b8115156040860152606084015115613bfd576001846003613faa565b6000806000614c558787614599565b91509150614c628561420d565b15614c71576001846004613f67565b8115156060860152608084015115613bfd576001846004613faa565b60408051608081018252600080825260208201819052918101829052606081019190915290565b6040518060a00160405280600590602082028038833950919291505056fe496e737472756d656e744d616e61676572426173653a2054686520696e737472756d656e7420697320616c72656164792064656163746976617465642e496e737472756d656e744d616e61676572426173653a2049737375616e6365207465726d696e617465642e496e737472756d656e744d616e61676572426173653a205769746864726177616c206973206e6f7420616c6c6f7765642e496e737472756d656e744d616e61676572426173653a204e6f7420616e20656c696769626c652074616b65722e496e737472756d656e744d616e61676572426173653a2049737375616e6365206e6f742065786973742e496e737472756d656e744d616e61676572426173653a204f6e6c79204653502063616e20757064617465206d616b65722077686974656c6973742e54696d65724f7261636c65526f6c653a2063616c6c657220646f6573206e6f742068617665207468652054696d65724f7261636c6520726f6c65496e737472756d656e744d616e61676572426173653a204f6e6c79204653502063616e207570646174652074616b65722077686974656c6973742e496e737472756d656e744d616e61676572426173653a204e6f7420616e20656c696769626c65206d616b65722e496e737472756d656e744d616e61676572426173653a205472616e7366657220736f75726365206973206e6f7420616c6c6f7765642e526f6c65733a206163636f756e7420646f6573206e6f74206861766520726f6c65496e737472756d656e744d616e61676572426173653a204f6e6c79204653502063616e20646561637469766174652074686520696e737472756d656e742e496e737472756d656e744d616e61676572426173653a20496e737472756d656e742069732064656163746976617465642e526f6c65733a206163636f756e7420697320746865207a65726f2061646472657373496e737472756d656e744d616e61676572426173653a204465706f736974206973206e6f7420616c6c6f7765642e496e737472756d656e744d616e61676572426173653a20546f6b656e2061646472657373206d757374206265207365742e496e737472756d656e744d616e61676572426173653a204d616b65722077686974656c697374206973206e6f7420656e61626c65642e496e737472756d656e744d616e61676572426173653a2054616b65722077686974656c697374206973206e6f7420656e61626c65642e496e737472756d656e744d616e61676572426173653a205472616e7366657220746172676574206973206e6f7420616c6c6f7765642e5361666545524332303a204552433230206f7065726174696f6e20646964206e6f7420737563636565645361666545524332303a20617070726f76652066726f6d206e6f6e2d7a65726f20746f206e6f6e2d7a65726f20616c6c6f77616e6365496e737472756d656e744d616e61676572426173653a20416d6f756e74206d757374206265207365742e496e737472756d656e744d616e61676572426173653a2049737375616e6365206e6f7420656e6761676561626c652ea165627a7a723058202435e99d7e1e8085f7b8520cc83bb6cacbb0e13a99b130204e22d1f49a300db80029496e737472756d656e744d616e61676572426173653a20496e737472756d656e7420436f6e6669672061646472657373206d7573742062652070726f76696465642e496e737472756d656e744d616e61676572426173653a20496e737472756d656e7420706172616d6574657273206d7573742062652070726f76696465642e526f6c65733a206163636f756e7420697320746865207a65726f2061646472657373496e737472756d656e744d616e61676572426173653a204653502061646472657373206d7573742062652070726f76696465642e496e737472756d656e744d616e61676572426173653a20416c726561647920696e697469616c697a65642e496e737472756d656e744d616e61676572426173653a20496e737472756d656e742061646472657373206d7573742062652070726f76696465642e",
  "source": "pragma solidity ^0.5.0;\n\nimport \"../InstrumentManagerBase.sol\";\nimport \"../InstrumentBase.sol\";\nimport \"./InstrumentV1.sol\";\n\n/**\n * @title Instrument Manager for Instrument v1.\n * All issuance data are passed in and returned as a string.\n */\ncontract InstrumentV1Manager is InstrumentManagerBase {\n    // Mapping: Issuance Id => Issuance data\n    mapping(uint256 => bytes) private _issuanceData;\n\n    /**\n     * @param fspAddress Address of FSP that activates this financial instrument.\n     * @param instrumentAddress Address of the financial instrument contract.\n     * @param instrumentConfigAddress Address of the Instrument Config contract.\n     * @param instrumentParameters Custom parameters for the Instrument Manager.\n     */\n    constructor(address fspAddress, address instrumentAddress, address instrumentConfigAddress, bytes memory instrumentParameters)\n        InstrumentManagerBase(fspAddress, instrumentAddress, instrumentConfigAddress, instrumentParameters) public {}\n\n    /**\n     * @dev Instrument type-specific issuance creation processing.\n     * @param issuanceId ID of the issuance.\n     * @param issuanceParametersData Issuance Parameters.\n     * @param makerParametersData The custom parameters to the newly created issuance\n     */\n    function _processCreateIssuance(uint256 issuanceId, bytes memory issuanceParametersData, bytes memory makerParametersData) internal\n        returns (InstrumentBase.IssuanceStates updatedState) {\n\n        (updatedState, _issuanceData[issuanceId]) = InstrumentV1(_instrumentAddress)\n            .createIssuance(issuanceParametersData, makerParametersData);\n    }\n\n    /**\n     * @dev Instrument type-specific issuance engage processing.\n     * @param issuanceId ID of the issuance.\n     * @param takerParameters The custom parameters to the new engagement\n     * @param issuanceParametersData Issuance Parameters.\n     */\n    function _processEngageIssuance(uint256 issuanceId, bytes memory issuanceParametersData, bytes memory takerParameters)\n        internal returns (InstrumentBase.IssuanceStates updatedState, bytes memory transfersData) {\n\n        (updatedState, _issuanceData[issuanceId], transfersData) = InstrumentV1(_instrumentAddress)\n            .engageIssuance(issuanceParametersData, takerParameters, _issuanceData[issuanceId]);\n    }\n\n    /**\n     * @dev Instrument type-specific issuance ERC20 token deposit processing.\n     * Note: This method is called after deposit is complete, so that the Escrow reflects the balance after deposit.\n     * @param issuanceId ID of the issuance.\n     * @param issuanceParametersData Issuance Parameters.\n     * @param tokenAddress The address of the ERC20 token to deposit.\n     * @param amount The amount of ERC20 token to deposit.\n     */\n    function _processTokenDeposit(uint256 issuanceId, bytes memory issuanceParametersData, address tokenAddress, uint256 amount)\n        internal returns (InstrumentBase.IssuanceStates updatedState, bytes memory transfersData) {\n\n        (updatedState, _issuanceData[issuanceId], transfersData) = InstrumentV1(_instrumentAddress).processTokenDeposit(\n            issuanceParametersData, tokenAddress, amount, _issuanceData[issuanceId]);\n    }\n\n    /**\n     * @dev Instrument type-specific issuance ERC20 withdraw processing.\n     * Note: This method is called after withdraw is complete, so that the Escrow reflects the balance after withdraw.\n     * @param issuanceId ID of the issuance.\n     * @param issuanceParametersData Issuance Parameters.\n     * @param tokenAddress The address of the ERC20 token to withdraw.\n     * @param amount The amount of ERC20 token to withdraw.\n     */\n    function _processTokenWithdraw(uint256 issuanceId, bytes memory issuanceParametersData, address tokenAddress, uint256 amount)\n        internal returns (InstrumentBase.IssuanceStates updatedState, bytes memory transfersData) {\n\n        (updatedState, _issuanceData[issuanceId], transfersData) = InstrumentV1(_instrumentAddress).processTokenWithdraw(\n            issuanceParametersData, tokenAddress, amount, _issuanceData[issuanceId]);\n    }\n\n    /**\n     * @dev Instrument type-specific custom event processing.\n     * @param issuanceId ID of the issuance.\n     * @param issuanceParametersData Issuance Parameters.\n     * @param eventName The name of the custom event.\n     * @param eventPayload The custom parameters to the custom event\n     */\n    function _processCustomEvent(uint256 issuanceId, bytes memory issuanceParametersData, bytes32 eventName, bytes memory eventPayload)\n        internal returns (InstrumentBase.IssuanceStates updatedState, bytes memory transfersData) {\n\n        (updatedState, _issuanceData[issuanceId], transfersData) = InstrumentV1(_instrumentAddress).processCustomEvent(\n            issuanceParametersData, eventName, eventPayload, _issuanceData[issuanceId]);\n    }\n\n    /**\n     * @dev Instrument type-specific scheduled event processing.\n     * @param issuanceId ID of the issuance.\n     * @param issuanceParametersData Issuance Parameters.\n     * @param eventName The name of the custom event.\n     * @param eventPayload The custom parameters to the custom event\n     */\n    function _processScheduledEvent(uint256 issuanceId, bytes memory issuanceParametersData, bytes32 eventName, bytes memory eventPayload)\n        internal returns (InstrumentBase.IssuanceStates updatedState, bytes memory transfersData) {\n\n        (updatedState, _issuanceData[issuanceId], transfersData) = InstrumentV1(_instrumentAddress).processScheduledEvent(\n            issuanceParametersData, eventName, eventPayload, _issuanceData[issuanceId]);\n    }\n}",
  "sourcePath": "/Users/shengdading/git/nuts-platform-v2/contracts/instrument/v1/InstrumentV1Manager.sol",
  "compiler": {
    "name": "solc",
    "version": "0.5.8+commit.23d335f2.Emscripten.clang"
  },
  "schemaVersion": "3.0.16",
  "updatedAt": "2019-10-16T00:36:18.417Z",
  "devdoc": {
    "methods": {
      "constructor": {
        "params": {
          "fspAddress": "Address of FSP that activates this financial instrument.",
          "instrumentAddress": "Address of the financial instrument contract.",
          "instrumentConfigAddress": "Address of the Instrument Config contract.",
          "instrumentParameters": "Custom parameters for the Instrument Manager."
        }
      },
      "createIssuance(bytes)": {
        "details": "Create a new issuance of the financial instrument",
        "params": {
          "makerParameters": "The custom parameters to the newly created issuance"
        },
        "return": "The id of the newly created issuance."
      },
      "deactivate()": {
        "details": "Deactivates the instrument."
      },
      "depositToIssuance(uint256,uint256)": {
        "details": "The caller deposits ETH, which is currently deposited in Instrument Escrow, into issuance.",
        "params": {
          "amount": "The amount of ERC20 token transfered",
          "issuanceId": "The id of the issuance"
        }
      },
      "depositTokenToIssuance(uint256,address,uint256)": {
        "details": "The caller deposits ERC20 token, which is currently deposited in Instrument Escrow, into issuance.",
        "params": {
          "amount": "The amount of ERC20 token deposited.",
          "issuanceId": "The id of the issuance",
          "tokenAddress": "The address of the ERC20 token to deposit."
        }
      },
      "engageIssuance(uint256,bytes)": {
        "details": "A taker engages to the issuance",
        "params": {
          "issuanceId": "The id of the issuance",
          "takerParameters": "The custom parameters to the new engagement"
        }
      },
      "getInstrumentEscrowAddress()": {
        "details": "Get the Instrument Escrow."
      },
      "notifyCustomEvent(uint256,bytes32,bytes)": {
        "details": "Notify custom events to issuance. This could be invoked by any caller.",
        "params": {
          "eventName": "Name of the custom event",
          "eventPayload": "Payload of the custom event",
          "issuanceId": "The id of the issuance"
        }
      },
      "notifyScheduledEvent(uint256,bytes32,bytes)": {
        "details": "Notify scheduled events to issuance. This could be invoked by Timer Oracle only. Only the address with Timer Oracle Role can invoke notify scheduled event.",
        "params": {
          "eventName": "Name of the scheduled event, eventName of EventScheduled event",
          "eventPayload": "Payload of the scheduled event, eventPayload of EventScheduled event",
          "issuanceId": "The id of the issuance"
        }
      },
      "setMakerWhitelist(address,bool)": {
        "details": "Updates the maker whitelist. The maker whitelist only affects new issuances.",
        "params": {
          "allowed": "Whether this maker is allowed to create new issuance.",
          "makerAddress": "The maker address to update in whitelist"
        }
      },
      "setTakerWhitelist(address,bool)": {
        "details": "Updates the taker whitelist. The taker whitelist only affects new engagement.",
        "params": {
          "allowed": "Whether this taker is allowed to engage issuance.",
          "takerAddress": "The taker address to update in whitelist"
        }
      },
      "withdrawFromIssuance(uint256,uint256)": {
        "details": "The caller withdraws ETH from issuance to Instrument Escrow.",
        "params": {
          "amount": "The amount of ERC20 token transfered",
          "issuanceId": "The id of the issuance"
        }
      },
      "withdrawTokenFromIssuance(uint256,address,uint256)": {
        "details": "The caller withdraws ERC20 token from issuance to Instrument Escrow.",
        "params": {
          "amount": "The amount of ERC20 token transfered",
          "issuanceId": "The id of the issuance",
          "tokenAddress": "The address of the ERC20 token"
        }
      }
    },
    "title": "Instrument Manager for Instrument v1. All issuance data are passed in and returned as a string."
  },
  "userdoc": {
    "methods": {}
  }
}