{
  "contractName": "InstrumentRegistry",
  "abi": [
    {
      "constant": true,
      "inputs": [],
      "name": "instrumentDeposit",
      "outputs": [
        {
          "name": "",
          "type": "uint256"
        }
      ],
      "payable": false,
      "stateMutability": "view",
      "type": "function"
    },
    {
      "constant": true,
      "inputs": [],
      "name": "depositTokenAddress",
      "outputs": [
        {
          "name": "",
          "type": "address"
        }
      ],
      "payable": false,
      "stateMutability": "view",
      "type": "function"
    },
    {
      "constant": true,
      "inputs": [],
      "name": "priceOracleAddress",
      "outputs": [
        {
          "name": "",
          "type": "address"
        }
      ],
      "payable": false,
      "stateMutability": "view",
      "type": "function"
    },
    {
      "constant": true,
      "inputs": [],
      "name": "timerOracleAddress",
      "outputs": [
        {
          "name": "",
          "type": "address"
        }
      ],
      "payable": false,
      "stateMutability": "view",
      "type": "function"
    },
    {
      "constant": true,
      "inputs": [],
      "name": "storageFactoryAddress",
      "outputs": [
        {
          "name": "",
          "type": "address"
        }
      ],
      "payable": false,
      "stateMutability": "view",
      "type": "function"
    },
    {
      "constant": true,
      "inputs": [],
      "name": "issuanceDeposit",
      "outputs": [
        {
          "name": "",
          "type": "uint256"
        }
      ],
      "payable": false,
      "stateMutability": "view",
      "type": "function"
    },
    {
      "constant": false,
      "inputs": [],
      "name": "renounceOwnership",
      "outputs": [],
      "payable": false,
      "stateMutability": "nonpayable",
      "type": "function"
    },
    {
      "constant": true,
      "inputs": [],
      "name": "owner",
      "outputs": [
        {
          "name": "",
          "type": "address"
        }
      ],
      "payable": false,
      "stateMutability": "view",
      "type": "function"
    },
    {
      "constant": true,
      "inputs": [],
      "name": "isOwner",
      "outputs": [
        {
          "name": "",
          "type": "bool"
        }
      ],
      "payable": false,
      "stateMutability": "view",
      "type": "function"
    },
    {
      "constant": true,
      "inputs": [],
      "name": "proxyFactoryAddress",
      "outputs": [
        {
          "name": "",
          "type": "address"
        }
      ],
      "payable": false,
      "stateMutability": "view",
      "type": "function"
    },
    {
      "constant": true,
      "inputs": [],
      "name": "escrowFactoryAddress",
      "outputs": [
        {
          "name": "",
          "type": "address"
        }
      ],
      "payable": false,
      "stateMutability": "view",
      "type": "function"
    },
    {
      "constant": true,
      "inputs": [],
      "name": "depositEscrowAddress",
      "outputs": [
        {
          "name": "",
          "type": "address"
        }
      ],
      "payable": false,
      "stateMutability": "view",
      "type": "function"
    },
    {
      "constant": false,
      "inputs": [
        {
          "name": "newOwner",
          "type": "address"
        }
      ],
      "name": "transferOwnership",
      "outputs": [],
      "payable": false,
      "stateMutability": "nonpayable",
      "type": "function"
    },
    {
      "inputs": [
        {
          "name": "newInstrumentDeposit",
          "type": "uint256"
        },
        {
          "name": "newIssuanceDeposit",
          "type": "uint256"
        },
        {
          "name": "newDepositTokenAddress",
          "type": "address"
        },
        {
          "name": "newTimerOracleAddress",
          "type": "address"
        },
        {
          "name": "newPriceOracleAddress",
          "type": "address"
        },
        {
          "name": "newEscrowFactoryAddress",
          "type": "address"
        },
        {
          "name": "newStorageFactoryAddress",
          "type": "address"
        },
        {
          "name": "newProxyFactoryAddress",
          "type": "address"
        }
      ],
      "payable": false,
      "stateMutability": "nonpayable",
      "type": "constructor"
    },
    {
      "anonymous": false,
      "inputs": [
        {
          "indexed": true,
          "name": "previousOwner",
          "type": "address"
        },
        {
          "indexed": true,
          "name": "newOwner",
          "type": "address"
        }
      ],
      "name": "OwnershipTransferred",
      "type": "event"
    },
    {
      "constant": false,
      "inputs": [
        {
          "name": "version",
          "type": "string"
        },
        {
          "name": "instrumentManagerFactory",
          "type": "address"
        }
      ],
      "name": "setInstrumentManagerFactory",
      "outputs": [],
      "payable": false,
      "stateMutability": "nonpayable",
      "type": "function"
    },
    {
      "constant": false,
      "inputs": [
        {
          "name": "newInstrumentDeposit",
          "type": "uint256"
        }
      ],
      "name": "setInstrumentDeposit",
      "outputs": [],
      "payable": false,
      "stateMutability": "nonpayable",
      "type": "function"
    },
    {
      "constant": false,
      "inputs": [
        {
          "name": "newIssuanceDeposit",
          "type": "uint256"
        }
      ],
      "name": "setIssuanceDeposit",
      "outputs": [],
      "payable": false,
      "stateMutability": "nonpayable",
      "type": "function"
    },
    {
      "constant": false,
      "inputs": [
        {
          "name": "newTimerOracleAddress",
          "type": "address"
        }
      ],
      "name": "setTimerOracleAddress",
      "outputs": [],
      "payable": false,
      "stateMutability": "nonpayable",
      "type": "function"
    },
    {
      "constant": false,
      "inputs": [
        {
          "name": "newEscrowFactoryAddress",
          "type": "address"
        }
      ],
      "name": "setEscrowFactoryAddress",
      "outputs": [],
      "payable": false,
      "stateMutability": "nonpayable",
      "type": "function"
    },
    {
      "constant": false,
      "inputs": [
        {
          "name": "newStorageFactoryAddress",
          "type": "address"
        }
      ],
      "name": "setStorageFactoryAddress",
      "outputs": [],
      "payable": false,
      "stateMutability": "nonpayable",
      "type": "function"
    },
    {
      "constant": false,
      "inputs": [
        {
          "name": "newProxyFactoryAddress",
          "type": "address"
        }
      ],
      "name": "setProxyFactoryAddress",
      "outputs": [],
      "payable": false,
      "stateMutability": "nonpayable",
      "type": "function"
    },
    {
      "constant": false,
      "inputs": [
        {
          "name": "instrumentAddress",
          "type": "address"
        },
        {
          "name": "version",
          "type": "string"
        },
        {
          "name": "instrumentParameters",
          "type": "bytes"
        }
      ],
      "name": "activateInstrument",
      "outputs": [
        {
          "name": "",
          "type": "address"
        }
      ],
      "payable": false,
      "stateMutability": "nonpayable",
      "type": "function"
    },
    {
      "constant": true,
      "inputs": [
        {
          "name": "instrumentAddress",
          "type": "address"
        }
      ],
      "name": "lookupInstrumentManager",
      "outputs": [
        {
          "name": "instrumentManagerAddress",
          "type": "address"
        }
      ],
      "payable": false,
      "stateMutability": "view",
      "type": "function"
    }
  ],
  "bytecode": "0x60806040523480156200001157600080fd5b50604051610100806200197e83398101806040526101008110156200003557600080fd5b50805160208201516040808401516060850151608086015160a087015160c088015160e090980151600080546001600160a01b031916331780825596519899979895979496939592949391926001600160a01b0392909216917f8be0079c531659141344cd1fd0a4f28419497f9722a3daafe3b4186f6b6457e0908290a36004546001600160a01b03161562000117576040517f08c379a0000000000000000000000000000000000000000000000000000000008152600401808060200182810382526028815260200180620017f36028913960400191505060405180910390fd5b6001600160a01b03861662000178576040517f08c379a000000000000000000000000000000000000000000000000000000000815260040180806020018281038252603b8152602001806200181b603b913960400191505060405180910390fd5b6001600160a01b038516620001d9576040517f08c379a000000000000000000000000000000000000000000000000000000000815260040180806020018281038252603a81526020018062001856603a913960400191505060405180910390fd5b6001600160a01b0384166200023a576040517f08c379a000000000000000000000000000000000000000000000000000000000815260040180806020018281038252603a81526020018062001944603a913960400191505060405180910390fd5b6001600160a01b0383166200029b576040517f08c379a000000000000000000000000000000000000000000000000000000000815260040180806020018281038252603c815260200180620018cd603c913960400191505060405180910390fd5b6001600160a01b038216620002fc576040517f08c379a000000000000000000000000000000000000000000000000000000000815260040180806020018281038252603d81526020018062001890603d913960400191505060405180910390fd5b6001600160a01b0381166200035d576040517f08c379a000000000000000000000000000000000000000000000000000000000815260040180806020018281038252603b81526020018062001909603b913960400191505060405180910390fd5b60018890556002879055600480546001600160a01b03199081166001600160a01b038981169190911783556005805483168983161790556006805483168883161790556007805483168783169081179091556008805484168784161790556009805490931691851691909117909155604080517fad7bd2940000000000000000000000000000000000000000000000000000000081529051869363ad7bd294928082019260209290918290030181600087803b1580156200041d57600080fd5b505af115801562000432573d6000803e3d6000fd5b505050506040513d60208110156200044957600080fd5b5051600380546001600160a01b039092166001600160a01b031990921691909117905550505050505050505061136e80620004856000396000f3fe608060405234801561001057600080fd5b50600436106101825760003560e01c80638d5f93b0116100d8578063c3f37e0f1161008c578063e755926011610066578063e7559260146104e3578063eea96d75146104eb578063f2fde38b1461051157610182565b8063c3f37e0f14610498578063d9e86f1d146104b5578063e4b376ad146104bd57610182565b80638f32d59b116100bd5780638f32d59b1461044e578063b543c0cd1461046a578063be5405d21461049057610182565b80638d5f93b0146104205780638da5cb5b1461044657610182565b8063406b95c11161013a578063715018a611610114578063715018a6146102be57806372be6b50146102c657806389bd272b146102e357610182565b8063406b95c1146102a65780634b3667e3146102ae5780635a363667146102b657610182565b806320ae39381161016b57806320ae3938146101c957806323dc9e371461027a5780632bc51c6d1461029e57610182565b806307db23c4146101875780631e081f09146101af575b600080fd5b6101ad6004803603602081101561019d57600080fd5b50356001600160a01b0316610537565b005b6101b76105b5565b60408051918252519081900360200190f35b6101ad600480360360408110156101df57600080fd5b8101906020810181356401000000008111156101fa57600080fd5b82018360208201111561020c57600080fd5b8035906020019184600183028401116401000000008311171561022e57600080fd5b91908080601f016020809104026020016040519081016040528093929190818152602001838380828437600092019190915250929550505090356001600160a01b031691506105bb9050565b61028261069a565b604080516001600160a01b039092168252519081900360200190f35b6102826106a9565b6102826106b8565b6102826106c7565b6101b76106d6565b6101ad6106dc565b6101ad600480360360208110156102dc57600080fd5b5035610782565b610282600480360360608110156102f957600080fd5b6001600160a01b03823516919081019060408101602082013564010000000081111561032457600080fd5b82018360208201111561033657600080fd5b8035906020019184600183028401116401000000008311171561035857600080fd5b91908080601f01602080910402602001604051908101604052809392919081815260200183838082843760009201919091525092959493602081019350359150506401000000008111156103ab57600080fd5b8201836020820111156103bd57600080fd5b803590602001918460018302840111640100000000831117156103df57600080fd5b91908080601f0160208091040260200160405190810160405280939291908181526020018383808284376000920191909152509295506107e3945050505050565b6102826004803603602081101561043657600080fd5b50356001600160a01b0316610b1a565b610282610b38565b610456610b47565b604080519115158252519081900360200190f35b6101ad6004803603602081101561048057600080fd5b50356001600160a01b0316610b58565b610282610bd6565b6101ad600480360360208110156104ae57600080fd5b5035610be5565b610282610c46565b6101ad600480360360208110156104d357600080fd5b50356001600160a01b0316610c55565b610282610cd3565b6101ad6004803603602081101561050157600080fd5b50356001600160a01b0316610ce2565b6101ad6004803603602081101561052757600080fd5b50356001600160a01b0316610d60565b61053f610b47565b6105935760408051600160e51b62461bcd02815260206004820181905260248201527f4f776e61626c653a2063616c6c6572206973206e6f7420746865206f776e6572604482015290519081900360640190fd5b600580546001600160a01b0319166001600160a01b0392909216919091179055565b60015481565b6105c3610b47565b6106175760408051600160e51b62461bcd02815260206004820181905260248201527f4f776e61626c653a2063616c6c6572206973206e6f7420746865206f776e6572604482015290519081900360640190fd5b80600b836040518082805190602001908083835b6020831061064a5780518252601f19909201916020918201910161062b565b51815160209384036101000a6000190180199092169116179052920194855250604051938490030190922080546001600160a01b0319166001600160a01b03949094169390931790925550505050565b6004546001600160a01b031681565b6006546001600160a01b031681565b6005546001600160a01b031681565b6008546001600160a01b031681565b60025481565b6106e4610b47565b6107385760408051600160e51b62461bcd02815260206004820181905260248201527f4f776e61626c653a2063616c6c6572206973206e6f7420746865206f776e6572604482015290519081900360640190fd5b600080546040516001600160a01b03909116907f8be0079c531659141344cd1fd0a4f28419497f9722a3daafe3b4186f6b6457e0908390a3600080546001600160a01b0319169055565b61078a610b47565b6107de5760408051600160e51b62461bcd02815260206004820181905260248201527f4f776e61626c653a2063616c6c6572206973206e6f7420746865206f776e6572604482015290519081900360640190fd5b600255565b6001600160a01b038381166000908152600a60205260408120549091161561083f57604051600160e51b62461bcd02815260040180806020018281038252603181526020018061127a6031913960400191505060405180910390fd5b6001600160a01b03841661088757604051600160e51b62461bcd02815260040180806020018281038252603881526020018061130b6038913960400191505060405180910390fd5b6000600b846040518082805190602001908083835b602083106108bb5780518252601f19909201916020918201910161089c565b51815160209384036101000a60001901801990921691161790529201948552506040519384900381018420547f78cfd26100000000000000000000000000000000000000000000000000000000855233600486018181526001600160a01b038c811660248901523060448901819052608060648a019081528c5160848b01528c5192909516986378cfd26198509396508d9590948c94909260a49091019185019080838360005b8381101561097a578181015183820152602001610962565b50505050905090810190601f1680156109a75780820380516001836020036101000a031916815260200191505b5095505050505050602060405180830381600087803b1580156109c957600080fd5b505af11580156109dd573d6000803e3d6000fd5b505050506040513d60208110156109f357600080fd5b50516001600160a01b038681166000908152600a6020526040902080546001600160a01b03191691831691909117905560015490915015610b1257600154600454610a53916001600160a01b03909116903390309063ffffffff610dc816565b600354600154600454610a7a926001600160a01b039182169291169063ffffffff610e5616565b60035460048054600154604080517f810c0af80000000000000000000000000000000000000000000000000000000081526001600160a01b03878116958201959095529284166024840152604483019190915251919092169163810c0af891606480830192600092919082900301818387803b158015610af957600080fd5b505af1158015610b0d573d6000803e3d6000fd5b505050505b949350505050565b6001600160a01b039081166000908152600a60205260409020541690565b6000546001600160a01b031690565b6000546001600160a01b0316331490565b610b60610b47565b610bb45760408051600160e51b62461bcd02815260206004820181905260248201527f4f776e61626c653a2063616c6c6572206973206e6f7420746865206f776e6572604482015290519081900360640190fd5b600980546001600160a01b0319166001600160a01b0392909216919091179055565b6009546001600160a01b031681565b610bed610b47565b610c415760408051600160e51b62461bcd02815260206004820181905260248201527f4f776e61626c653a2063616c6c6572206973206e6f7420746865206f776e6572604482015290519081900360640190fd5b600155565b6007546001600160a01b031681565b610c5d610b47565b610cb15760408051600160e51b62461bcd02815260206004820181905260248201527f4f776e61626c653a2063616c6c6572206973206e6f7420746865206f776e6572604482015290519081900360640190fd5b600880546001600160a01b0319166001600160a01b0392909216919091179055565b6003546001600160a01b031681565b610cea610b47565b610d3e5760408051600160e51b62461bcd02815260206004820181905260248201527f4f776e61626c653a2063616c6c6572206973206e6f7420746865206f776e6572604482015290519081900360640190fd5b600780546001600160a01b0319166001600160a01b0392909216919091179055565b610d68610b47565b610dbc5760408051600160e51b62461bcd02815260206004820181905260248201527f4f776e61626c653a2063616c6c6572206973206e6f7420746865206f776e6572604482015290519081900360640190fd5b610dc581610fb8565b50565b604080516001600160a01b0385811660248301528416604482015260648082018490528251808303909101815260849091019091526020810180517bffffffffffffffffffffffffffffffffffffffffffffffffffffffff167f23b872dd00000000000000000000000000000000000000000000000000000000179052610e5090859061105b565b50505050565b801580610ef55750604080517fdd62ed3e0000000000000000000000000000000000000000000000000000000081523060048201526001600160a01b03848116602483015291519185169163dd62ed3e91604480820192602092909190829003018186803b158015610ec757600080fd5b505afa158015610edb573d6000803e3d6000fd5b505050506040513d6020811015610ef157600080fd5b5051155b610f3357604051600160e51b62461bcd0281526004018080602001828103825260368152602001806112d56036913960400191505060405180910390fd5b604080516001600160a01b038416602482015260448082018490528251808303909101815260649091019091526020810180517bffffffffffffffffffffffffffffffffffffffffffffffffffffffff167f095ea7b300000000000000000000000000000000000000000000000000000000179052610fb390849061105b565b505050565b6001600160a01b03811661100057604051600160e51b62461bcd0281526004018080602001828103825260268152602001806112546026913960400191505060405180910390fd5b600080546040516001600160a01b03808516939216917f8be0079c531659141344cd1fd0a4f28419497f9722a3daafe3b4186f6b6457e091a3600080546001600160a01b0319166001600160a01b0392909216919091179055565b61106d826001600160a01b031661121c565b6110c15760408051600160e51b62461bcd02815260206004820152601f60248201527f5361666545524332303a2063616c6c20746f206e6f6e2d636f6e747261637400604482015290519081900360640190fd5b60006060836001600160a01b0316836040518082805190602001908083835b602083106110ff5780518252601f1990920191602091820191016110e0565b6001836020036101000a0380198251168184511680821785525050505050509050019150506000604051808303816000865af19150503d8060008114611161576040519150601f19603f3d011682016040523d82523d6000602084013e611166565b606091505b5091509150816111c05760408051600160e51b62461bcd02815260206004820181905260248201527f5361666545524332303a206c6f772d6c6576656c2063616c6c206661696c6564604482015290519081900360640190fd5b805115610e50578080602001905160208110156111dc57600080fd5b5051610e5057604051600160e51b62461bcd02815260040180806020018281038252602a8152602001806112ab602a913960400191505060405180910390fd5b6000813f7fc5d2460186f7233c927e7db2dcc703c0e500b653ca82273b7bfad8045d85a4708115801590610b12575014159291505056fe4f776e61626c653a206e6577206f776e657220697320746865207a65726f2061646472657373496e737472756d656e7452656769737472793a20496e737472756d656e7420616c7265616479206163746976617465642e5361666545524332303a204552433230206f7065726174696f6e20646964206e6f7420737563636565645361666545524332303a20617070726f76652066726f6d206e6f6e2d7a65726f20746f206e6f6e2d7a65726f20616c6c6f77616e6365496e737472756d656e7452656769737472793a20496e737472756d656e742061646472657373206d7573742062652070726f76696465642ea165627a7a72305820c4d40952986bfa7c197429a9d981b070d2d704a8f616d2435af9f3720733ec960029496e737472756d656e7452656769737472793a20416c726561647920696e697469616c697a65642e496e737472756d656e7452656769737472793a204465706f73697420746f6b656e2061646472657373206d7573742062652070726f76696465642e496e737472756d656e7452656769737472793a2054696d6572204f7261636c652061646472657373206d7573742062652070726f76696465642e496e737472756d656e7452656769737472793a2053746f7261676520466163746f72792061646472657373206d7573742062652070726f76696465642e496e737472756d656e7452656769737472793a20457363726f7720466163746f72792061646472657373206d7573742062652070726f76696465642e496e737472756d656e7452656769737472793a2050726f787920466163746f72792061646472657373206d7573742062652070726f76696465642e496e737472756d656e7452656769737472793a205072696365204f7261636c652061646472657373206d7573742062652070726f76696465642e",
  "source": "pragma solidity ^0.5.0;\n\nimport \"./escrow/DepositEscrowInterface.sol\";\nimport \"./escrow/EscrowFactoryInterface.sol\";\nimport \"./storage/StorageFactoryInterface.sol\";\nimport \"./instrument/InstrumentManagerInterface.sol\";\nimport \"./instrument/InstrumentManagerFactoryInterface.sol\";\nimport \"./lib/token/IERC20.sol\";\nimport \"./lib/token/SafeERC20.sol\";\nimport \"./lib/access/Ownable.sol\";\nimport \"./lib/proxy/ProxyFactoryInterface.sol\";\nimport \"./InstrumentConfig.sol\";\n\n/**\n * @title Instrument Registry.\n */\ncontract InstrumentRegistry is Ownable, InstrumentConfig {\n\n    using SafeERC20 for IERC20;\n\n    // Mapping: Instrument Address => Instrument Manager Address\n    mapping(address => address) private _instrumentManagers;\n    // Mapping: Version => Instrument Manager Factory\n    mapping(string => InstrumentManagerFactoryInterface) private _instrumentManagerFactories;\n\n    /**\n     * @dev Initialization method for Instrument Registry.\n     * @param newInstrumentDeposit The NUTS token deposited for new Instrument,\n     * @param newIssuanceDeposit The NUTS token deposited for new Issuance.\n     * @param newDepositTokenAddress Address of NUTS token.\n     * @param newTimerOracleAddress Address of Timer Oracle\n     * @param newPriceOracleAddress Address of Price Oracle\n     * @param newEscrowFactoryAddress Address of Escrow Factory.\n     * @param newStorageFactoryAddress Address of Storage Factory.\n     * @param newProxyFactoryAddress Address of Proxy Factory.\n     */\n    constructor(uint256 newInstrumentDeposit, uint256 newIssuanceDeposit, address newDepositTokenAddress,\n        address newTimerOracleAddress, address newPriceOracleAddress, address newEscrowFactoryAddress,\n        address newStorageFactoryAddress, address newProxyFactoryAddress) public {\n        require(address(depositTokenAddress) == address(0x0), \"InstrumentRegistry: Already initialized.\");\n        require(newDepositTokenAddress != address(0x0), \"InstrumentRegistry: Deposit token address must be provided.\");\n        require(newTimerOracleAddress != address(0x0), \"InstrumentRegistry: Timer Oracle address must be provided.\");\n        require(newPriceOracleAddress != address(0x0), \"InstrumentRegistry: Price Oracle address must be provided.\");\n        require(newEscrowFactoryAddress != address(0x0), \"InstrumentRegistry: Escrow Factory address must be provided.\");\n        require(newStorageFactoryAddress != address(0x0), \"InstrumentRegistry: Storage Factory address must be provided.\");\n        require(newProxyFactoryAddress != address(0x0), \"InstrumentRegistry: Proxy Factory address must be provided.\");\n\n        instrumentDeposit = newInstrumentDeposit;\n        issuanceDeposit = newIssuanceDeposit;\n        depositTokenAddress = newDepositTokenAddress;\n        timerOracleAddress = newTimerOracleAddress;\n        priceOracleAddress = newPriceOracleAddress;\n        escrowFactoryAddress = newEscrowFactoryAddress;\n        storageFactoryAddress = newStorageFactoryAddress;\n        proxyFactoryAddress = newProxyFactoryAddress;\n\n        // Create new Deposit Escrow\n        EscrowFactoryInterface escrowFactory = EscrowFactoryInterface(newEscrowFactoryAddress);\n        depositEscrowAddress = address(escrowFactory.createDepositEscrow());\n    }\n\n    /**\n     * @dev Update Instrument Manager Factory\n     */\n    function setInstrumentManagerFactory(string memory version, InstrumentManagerFactoryInterface instrumentManagerFactory) public onlyOwner {\n        _instrumentManagerFactories[version] = instrumentManagerFactory;\n    }\n\n    /**\n     * @dev Update instrument deposit amount.\n     */\n    function setInstrumentDeposit(uint256 newInstrumentDeposit) public onlyOwner {\n        instrumentDeposit = newInstrumentDeposit;\n    }\n\n    /**\n     * @dev Update issuance deposit amount.\n     */\n    function setIssuanceDeposit(uint256 newIssuanceDeposit) public onlyOwner {\n        issuanceDeposit = newIssuanceDeposit;\n    }\n\n    /**\n     * @dev Update Timer Oracle address.\n     */\n    function setTimerOracleAddress(address newTimerOracleAddress) public onlyOwner {\n        timerOracleAddress = newTimerOracleAddress;\n    }\n\n    /**\n     * @dev Update Escrow Factory address.\n     */\n    function setEscrowFactoryAddress(address newEscrowFactoryAddress) public onlyOwner {\n        escrowFactoryAddress = newEscrowFactoryAddress;\n    }\n\n    /**\n     * @dev Update Storage Factory address.\n     */\n    function setStorageFactoryAddress(address newStorageFactoryAddress) public onlyOwner {\n        storageFactoryAddress = newStorageFactoryAddress;\n    }\n\n    /**\n     * @dev Update Proxy Factory address.\n     */\n    function setProxyFactoryAddress(address newProxyFactoryAddress) public onlyOwner {\n        proxyFactoryAddress = newProxyFactoryAddress;\n    }\n\n    /**\n     * @dev MOST IMPORTANT method: Activate new financial instrument.\n     * @param instrumentAddress Address of Instrument to activate.\n     * @param version Version of Instrument.\n     * @param instrumentParameters Custom parameters for this instrument.\n     */\n    function activateInstrument(address instrumentAddress, string memory version, bytes memory instrumentParameters)\n        public returns (InstrumentManagerInterface) {\n        require(_instrumentManagers[instrumentAddress] == address(0x0), \"InstrumentRegistry: Instrument already activated.\");\n        require(instrumentAddress != address(0x0), \"InstrumentRegistry: Instrument address must be provided.\");\n\n        // Create Instrument Manager\n        InstrumentManagerInterface instrumentManager = _instrumentManagerFactories[version].createInstrumentManagerInstance(\n            msg.sender, instrumentAddress, address(this), instrumentParameters);\n\n        _instrumentManagers[instrumentAddress] = address(instrumentManager);\n\n        if (instrumentDeposit > 0) {\n            // Transfer NUTS token to deposit from FSP\n            IERC20(depositTokenAddress).safeTransferFrom(msg.sender, address(this), instrumentDeposit);\n            // Deposit the NUTS token to Deposit Escrow, under the account of the newly created Instrument Manager.\n            IERC20(depositTokenAddress).safeApprove(depositEscrowAddress, instrumentDeposit);\n            DepositEscrowInterface(depositEscrowAddress).depositTokenByAdmin(address(instrumentManager),\n                depositTokenAddress, instrumentDeposit);\n        }\n\n        return instrumentManager;\n    }\n\n    /**\n     * @dev Retrieve Instrument Manager address by Instrument address.\n     */\n    function lookupInstrumentManager(address instrumentAddress) public view\n        returns (address instrumentManagerAddress) {\n        return _instrumentManagers[instrumentAddress];\n    }\n}\n",
  "sourcePath": "/Users/shengdading/git/nuts-platform-v2/contracts/InstrumentRegistry.sol",
  "compiler": {
    "name": "solc",
    "version": "0.5.8+commit.23d335f2.Emscripten.clang"
  },
  "schemaVersion": "3.0.16",
  "updatedAt": "2019-10-16T02:07:15.546Z",
  "devdoc": {
    "methods": {
      "activateInstrument(address,string,bytes)": {
        "details": "MOST IMPORTANT method: Activate new financial instrument.",
        "params": {
          "instrumentAddress": "Address of Instrument to activate.",
          "instrumentParameters": "Custom parameters for this instrument.",
          "version": "Version of Instrument."
        }
      },
      "constructor": {
        "details": "Initialization method for Instrument Registry.",
        "params": {
          "newDepositTokenAddress": "Address of NUTS token.",
          "newEscrowFactoryAddress": "Address of Escrow Factory.",
          "newInstrumentDeposit": "The NUTS token deposited for new Instrument,",
          "newIssuanceDeposit": "The NUTS token deposited for new Issuance.",
          "newPriceOracleAddress": "Address of Price Oracle",
          "newProxyFactoryAddress": "Address of Proxy Factory.",
          "newStorageFactoryAddress": "Address of Storage Factory.",
          "newTimerOracleAddress": "Address of Timer Oracle"
        }
      },
      "isOwner()": {
        "details": "Returns true if the caller is the current owner."
      },
      "lookupInstrumentManager(address)": {
        "details": "Retrieve Instrument Manager address by Instrument address."
      },
      "owner()": {
        "details": "Returns the address of the current owner."
      },
      "renounceOwnership()": {
        "details": "Leaves the contract without owner. It will not be possible to call `onlyOwner` functions anymore. Can only be called by the current owner.     * NOTE: Renouncing ownership will leave the contract without an owner, thereby removing any functionality that is only available to the owner."
      },
      "setEscrowFactoryAddress(address)": {
        "details": "Update Escrow Factory address."
      },
      "setInstrumentDeposit(uint256)": {
        "details": "Update instrument deposit amount."
      },
      "setInstrumentManagerFactory(string,address)": {
        "details": "Update Instrument Manager Factory"
      },
      "setIssuanceDeposit(uint256)": {
        "details": "Update issuance deposit amount."
      },
      "setProxyFactoryAddress(address)": {
        "details": "Update Proxy Factory address."
      },
      "setStorageFactoryAddress(address)": {
        "details": "Update Storage Factory address."
      },
      "setTimerOracleAddress(address)": {
        "details": "Update Timer Oracle address."
      },
      "transferOwnership(address)": {
        "details": "Transfers ownership of the contract to a new account (`newOwner`). Can only be called by the current owner."
      }
    },
    "title": "Instrument Registry."
  },
  "userdoc": {
    "methods": {}
  }
}