{
  "contractName": "InstrumentV3ManagerFactory",
  "abi": [
    {
      "constant": false,
      "inputs": [
        {
          "name": "fspAddress",
          "type": "address"
        },
        {
          "name": "instrumentAddress",
          "type": "address"
        },
        {
          "name": "instrumentConfigAddress",
          "type": "address"
        },
        {
          "name": "instrumentParameters",
          "type": "bytes"
        }
      ],
      "name": "createInstrumentManagerInstance",
      "outputs": [
        {
          "name": "",
          "type": "address"
        }
      ],
      "payable": false,
      "stateMutability": "nonpayable",
      "type": "function"
    }
  ],
  "bytecode": "0x608060405234801561001057600080fd5b50616493806100206000396000f3fe60806040523480156200001157600080fd5b50600436106200002e5760003560e01c806378cfd2611462000033575b600080fd5b62000100600480360360808110156200004b57600080fd5b6001600160a01b03823581169260208101358216926040820135909216918101906080810160608201356401000000008111156200008857600080fd5b8201836020820111156200009b57600080fd5b80359060200191846001830284011164010000000083111715620000be57600080fd5b91908080601f0160208091040260200160405190810160405280939291908181526020018383808284376000920191909152509295506200011c945050505050565b604080516001600160a01b039092168252519081900360200190f35b60008085858585604051620001319062000213565b80856001600160a01b03166001600160a01b03168152602001846001600160a01b03166001600160a01b03168152602001836001600160a01b03166001600160a01b0316815260200180602001828103825283818151815260200191508051906020019080838360005b83811015620001b55781810151838201526020016200019b565b50505050905090810190601f168015620001e35780820380516001836020036101000a031916815260200191505b5095505050505050604051809103906000f08015801562000208573d6000803e3d6000fd5b509695505050505050565b61624680620002228339019056fe60806040523480156200001157600080fd5b506040516200624638038062006246833981018060405260808110156200003757600080fd5b81516020830151604084015160608501805193959294919391830192916401000000008111156200006757600080fd5b820160208101848111156200007b57600080fd5b81516401000000008111828201871017156200009657600080fd5b505092919050505083838383620000b3336200057060201b60201c565b600a546001600160a01b03161562000117576040517f08c379a000000000000000000000000000000000000000000000000000000000815260040180806020018281038252602b815260200180620061e0602b913960400191505060405180910390fd5b6001600160a01b03841662000178576040517f08c379a0000000000000000000000000000000000000000000000000000000008152600401808060200182810382526034815260200180620061ac6034913960400191505060405180910390fd5b6001600160a01b038316620001d9576040517f08c379a000000000000000000000000000000000000000000000000000000000815260040180806020018281038252603b8152602001806200620b603b913960400191505060405180910390fd5b6001600160a01b0382166200023a576040517f08c379a00000000000000000000000000000000000000000000000000000000081526004018080602001828103825260428152602001806200610a6042913960600191505060405180910390fd5b600081511162000296576040517f08c379a000000000000000000000000000000000000000000000000000000000815260040180806020018281038252603e8152602001806200614c603e913960400191505060405180910390fd5b620002a062001188565b620002b682620005c260201b6200482a1760201c565b6001805460ff1990811682179091558151600255426003556040820151600480548316911515919091179055606082015160068054909216901515179055600d80546001600160a01b03199081166001600160a01b038781169190911790925560088054909116888316179055602082015191925016156200033d5780602001516200033f565b845b600980546001600160a01b03199081166001600160a01b0393841617909155600a80549091168683161790556001600b55600d54604080517f1e081f0900000000000000000000000000000000000000000000000000000000815290519190921691631e081f09916004808301926020929190829003018186803b158015620003c757600080fd5b505afa158015620003dc573d6000803e3d6000fd5b505050506040513d6020811015620003f357600080fd5b5051600c55600d54604080517fd9e86f1d00000000000000000000000000000000000000000000000000000000815290516001600160a01b039092169163d9e86f1d91600480820192602092909190829003018186803b1580156200045757600080fd5b505afa1580156200046c573d6000803e3d6000fd5b505050506040513d60208110156200048357600080fd5b5051604080517f99733c7500000000000000000000000000000000000000000000000000000000815290516001600160a01b03909216916399733c75916004808201926020929091908290030181600087803b158015620004e357600080fd5b505af1158015620004f8573d6000803e3d6000fd5b505050506040513d60208110156200050f57600080fd5b5051600e80546001600160a01b0319166001600160a01b039283161790819055600a546040519183169216907f17082f533b4743d96d2bbde7b50cc0716cc7fd5f2c919bcf706233962d28e2d890600090a3505050505050505050620011cd565b6200058b816000620005f360201b620037d61790919060201c565b6040516001600160a01b038216907f9ddc85aace404f3f4847945cd853a70355e2f1dc7f6a75b7951259bcfa97c22b90600090a250565b620005cc62001188565b620005d662001188565b620005eb60208485516200069760201b60201c565b509392505050565b6200060582826200085c60201b60201c565b156200067257604080517f08c379a000000000000000000000000000000000000000000000000000000000815260206004820152601f60248201527f526f6c65733a206163636f756e7420616c72656164792068617320726f6c6500604482015290519081900360640190fd5b6001600160a01b0316600090815260209190915260409020805460ff19166001179055565b620006a162001188565b6000620006ad62001188565b620006b7620011af565b6000808089805b8982018110156200084a57620006e0818c620008df60201b62003d491760201c565b91965094509250820160018514156200070e5762000707818c89896200092360201b60201c565b0162000844565b84600214156200072c5762000707818c89896200099a60201b60201c565b84600314156200074a5762000707818c898962000a0160201b60201c565b8460041415620007685762000707818c898962000a6160201b60201c565b60018460058111156200077757fe5b14156200079f57600062000797828d62000ac160201b62003e181760201c565b929092019150505b6005846005811115620007ae57fe5b1415620007d6576000620007ce828d62000aea60201b62003e391760201c565b929092019150505b6000846005811115620007e557fe5b14156200080d57600062000805828d62000b0460201b62003e4b1760201c565b929092019150505b60028460058111156200081c57fe5b1415620008445760006200083c828d62000bbb60201b62003edd1760201c565b929092019150505b620006be565b50949a97995096975050505050505050565b60006001600160a01b038216620008bf576040517f08c379a00000000000000000000000000000000000000000000000000000000081526004018080602001828103825260228152602001806200618a6022913960400191505060405180910390fd5b506001600160a01b03166000908152602091909152604090205460ff1690565b6000806000806000620008f9878762000b0460201b60201c565b9150915060008260071660058111156200090f57fe5b600890930498929750909550909350505050565b60008060006200093f878762000cb060201b6200444c1760201c565b91509150620009548562000cca60201b60201c565b156200097057600184815b602002018051909101905262000990565b8185526020840151156200099057600184815b6020020180519190910390525b9695505050505050565b6000806000620009b6878762000cce60201b620044281760201c565b91509150620009cb8562000cca60201b60201c565b15620009dc5760018460026200095f565b6001600160a01b03821660208601526040840151156200099057600184600262000983565b600080600062000a1d878762000cfa60201b620043f11760201c565b9150915062000a328562000cca60201b60201c565b1562000a435760018460036200095f565b81151560408601526060840151156200099057600184600362000983565b600080600062000a7d878762000cfa60201b620043f11760201c565b9150915062000a928562000cca60201b60201c565b1562000aa35760018460046200095f565b81151560608601526080840151156200099057600184600462000983565b60008060008062000adb8686600862000d3b60201b60201c565b909450925050505b9250929050565b60008060008062000adb8686600462000d3b60201b60201c565b80519181019160009081908190819060200160805b608081166080141562000bae57868803821162000b88577f08c379a0000000000000000000000000000000000000000000000000000000006000526020600452600f6024527f6c656e677468206f766572666c6f77000000000000000000000000000000000060445260536000fd5b875160001a905080607f16836007021b8417935060018301925060018801975062000b19565b5091969095509350505050565b6060600080600062000bd4868662000b0460201b60201c565b915091506060826040519080825280601f01601f19166020018201604052801562000c06576020820181803883390190505b508651978701830197909150602090810190820160005b8581101562000ca057888a03831162000c88577f08c379a0000000000000000000000000000000000000000000000000000000006000526020600452600f6024527f6c656e677468206f766572666c6f77000000000000000000000000000000000060445260536000fd5b895160001a82536001998a0199918201910162000c1d565b5091955050500190509250929050565b60008060008062000adb6020878762000de660201b60201c565b1590565b60008060008062000ce86014878762000e0d60201b60201c565b60609190911c97909650945050505050565b60008060008062000d12868662000b0460201b60201c565b91509150816000141562000d2e5760009350915062000ae39050565b6001969095509350505050565b81519282019260009081908190602001815b8581101562000dd857868803821162000db8577f08c379a0000000000000000000000000000000000000000000000000000000006000526020600452600f6024527f6c656e677468206f766572666c6f77000000000000000000000000000000000060445260536000fd5b875160001a816008021b8317925060018801975060018101905062000d4d565b509096939550929350505050565b60008060008062000dff87878762000fe460201b60201c565b909890975095505050505050565b60008060008062000e25868662000b0460201b60201c565b90925090506020600860ff60038a0116848401111562000f16576040518060400160405280600f81526020017f6c656e677468206f766572666c6f7700000000000000000000000000000000008152506040517f08c379a00000000000000000000000000000000000000000000000000000000081526004018080602001828103825283818151815260200191508051906020019080838360005b8381101562000eda57818101518382015260200162000ec0565b50505050905090810190601f16801562000f085780820380516001836020036101000a031916815260200191505b509250505060405180910390fd5b6003880197506000602088510189106040518060400160405280600f81526020017f6c656e677468206f766572666c6f7700000000000000000000000000000000008152509062000fc4576040517f08c379a000000000000000000000000000000000000000000000000000000000815260206004820181815283516024840152835190928392604490910191908501908083836000831562000eda57818101518382015260200162000ec0565b505087870151918490036002010290811c901b9350019050935093915050565b600080600080600062000ffe878762000b0460201b60201c565b915091508760030160ff168183011115620010a757604080518082018252600f81527f6c656e677468206f766572666c6f770000000000000000000000000000000000602080830191825292517f08c379a0000000000000000000000000000000000000000000000000000000008152600481019384528251602482015282519293928392604490920191908083836000831562000eda57818101518382015260200162000ec0565b600387019650602086510187106040518060400160405280600f81526020017f6c656e677468206f766572666c6f7700000000000000000000000000000000008152509062001153576040517f08c379a000000000000000000000000000000000000000000000000000000000815260206004820181815283516024840152835190928392604490910191908501908083836000831562000eda57818101518382015260200162000ec0565b5086860151925060011982015b60208110156200117a576101008404935060010162001160565b509197910195509350505050565b60408051608081018252600080825260208201819052918101829052606081019190915290565b6040518060a001604052806005906020820280388339509192915050565b614f2d80620011dd6000396000f3fe608060405234801561001057600080fd5b50600436106100f55760003560e01c8063711ec8ee1161009757806390d69d641161006657806390d69d64146103ac578063d9d6f958146103d2578063dc06b3a2146103f5578063f1c0d81a146104a7576100f5565b8063711ec8ee146102ee57806379dcec8c146103285780638792b833146103565780638f7afe3e1461037a576100f5565b80634154cf64116100d35780634154cf64146101fa57806351b42b001461022c5780635c3b1cf01461023457806369382c641461023c576100f5565b8063011e8f96146100fa578063059c2775146101a95780632ea24112146101cc575b600080fd5b6101a76004803603604081101561011057600080fd5b8135919081019060408101602082013564010000000081111561013257600080fd5b82018360208201111561014457600080fd5b8035906020019184600183028401116401000000008311171561016657600080fd5b91908080601f01602080910402602001604051908101604052809392919081815260200183838082843760009201919091525092955061055f945050505050565b005b6101a7600480360360408110156101bf57600080fd5b50803590602001356106b2565b6101a7600480360360408110156101e257600080fd5b506001600160a01b0381351690602001351515610913565b6101a76004803603606081101561021057600080fd5b508035906001600160a01b0360208201351690604001356109ce565b6101a7610cbf565b6101a7610f6d565b6101a76004803603606081101561025257600080fd5b81359160208101359181019060608101604082013564010000000081111561027957600080fd5b82018360208201111561028b57600080fd5b803590602001918460018302840111640100000000831117156102ad57600080fd5b91908080601f016020809104026020016040519081016040528093929190818152602001838380828437600092019190915250929550610f78945050505050565b6103146004803603602081101561030457600080fd5b50356001600160a01b031661108a565b604080519115158252519081900360200190f35b6101a76004803603604081101561033e57600080fd5b506001600160a01b03813516906020013515156110a2565b61035e61115d565b604080516001600160a01b039092168252519081900360200190f35b6101a76004803603606081101561039057600080fd5b508035906001600160a01b03602082013516906040013561116c565b6101a7600480360360208110156103c257600080fd5b50356001600160a01b0316611443565b6101a7600480360360408110156103e857600080fd5b5080359060200135611496565b6101a76004803603606081101561040b57600080fd5b81359160208101359181019060608101604082013564010000000081111561043257600080fd5b82018360208201111561044457600080fd5b8035906020019184600183028401116401000000008311171561046657600080fd5b91908080601f0160208091040260200160405190810160405280939291908181526020018383808284376000920191909152509295506116f7945050505050565b61054d600480360360208110156104bd57600080fd5b8101906020810181356401000000008111156104d857600080fd5b8201836020820111156104ea57600080fd5b8035906020019184600183028401116401000000008311171561050c57600080fd5b91908080601f0160208091040260200160405190810160405280939291908181526020018383808284376000920191909152509295506117c2945050505050565b60408051918252519081900360200190f35b61056833612060565b6105a657604051600160e51b62461bcd02815260040180806020018281038252602d815260200180614b2c602d913960400191505060405180910390fd5b6000828152600f6020526040902060016005820154600160a01b900460ff1660068111156105d057fe5b1461060f57604051600160e51b62461bcd02815260040180806020018281038252602f815260200180614ed3602f913960400191505060405180910390fd5b80546001600160a01b031661065857604051600160e51b62461bcd02815260040180806020018281038252602a815260200180614b59602a913960400191505060405180910390fd5b60028101805473ffffffffffffffffffffffffffffffffffffffff191633179055426003820155606061068a8461208f565b90506000606061069b8684876121e6565b915091506106aa8683836123bc565b505050505050565b6000828152600f6020526040902080546001600160a01b031661070957604051600160e51b62461bcd02815260040180806020018281038252602a815260200180614b59602a913960400191505060405180910390fd5b600581015461072190600160a01b900460ff166125e0565b1561076057604051600160e51b62461bcd02815260040180806020018281038252602b815260200180614ad0602b913960400191505060405180910390fd5b600082116107a257604051600160e51b62461bcd02815260040180806020018281038252602a815260200180614ea9602a913960400191505060405180910390fd5b6107ac8333612638565b6107ea57604051600160e51b62461bcd02815260040180806020018281038252602e815260200180614d48602e913960400191505060405180910390fd5b600e54604080517f487c35800000000000000000000000000000000000000000000000000000000081523360048201526024810185905290516001600160a01b039092169163487c35809160448082019260009290919082900301818387803b15801561085657600080fd5b505af115801561086a573d6000803e3d6000fd5b505050506005810154604080517f70d97c3400000000000000000000000000000000000000000000000000000000815233600482015290516001600160a01b03909216916370d97c34918591602480830192600092919082900301818588803b1580156108d657600080fd5b505af11580156108ea573d6000803e3d6000fd5b505050505060606108fa8461208f565b90506000606061069b868461090d61268f565b88612695565b60045460ff1661095757604051600160e51b62461bcd028152600401808060200182810382526036815260200180614da76036913960400191505060405180910390fd5b6008546001600160a01b031633146109a357604051600160e51b62461bcd02815260040180806020018281038252603b815260200180614b83603b913960400191505060405180910390fd5b6001600160a01b03919091166000908152600560205260409020805460ff1916911515919091179055565b6000838152600f6020526040902080546001600160a01b0316610a2557604051600160e51b62461bcd02815260040180806020018281038252602a815260200180614b59602a913960400191505060405180910390fd5b6005810154610a3d90600160a01b900460ff166125e0565b15610a7c57604051600160e51b62461bcd02815260040180806020018281038252602b815260200180614ad0602b913960400191505060405180910390fd5b6001600160a01b038316610ac457604051600160e51b62461bcd028152600401808060200182810382526031815260200180614d766031913960400191505060405180910390fd5b60008211610b0657604051600160e51b62461bcd02815260040180806020018281038252602a815260200180614ea9602a913960400191505060405180910390fd5b610b108433612638565b610b4e57604051600160e51b62461bcd02815260040180806020018281038252602e815260200180614d48602e913960400191505060405180910390fd5b600e54604080517f3d4aa9a90000000000000000000000000000000000000000000000000000000081523360048201526001600160a01b0386811660248301526044820186905291519190921691633d4aa9a991606480830192600092919082900301818387803b158015610bc257600080fd5b505af1158015610bd6573d6000803e3d6000fd5b5050506005820154610bfc91506001600160a01b0385811691168463ffffffff61281d16565b6005810154604080517f810c0af80000000000000000000000000000000000000000000000000000000081523360048201526001600160a01b038681166024830152604482018690529151919092169163810c0af891606480830192600092919082900301818387803b158015610c7257600080fd5b505af1158015610c86573d6000803e3d6000fd5b505050506060610c958561208f565b905060006060610ca787848888612695565b91509150610cb68783836123bc565b50505050505050565b60015460ff16610d0357604051600160e51b62461bcd02815260040180806020018281038252603d815260200180614a93603d913960400191505060405180910390fd5b6008546001600160a01b03163314610d4f57604051600160e51b62461bcd02815260040180806020018281038252603e815260200180614cb7603e913960400191505060405180910390fd5b600c5415610f6157600d54604080517fe755926000000000000000000000000000000000000000000000000000000000815290516000926001600160a01b03169163e7559260916004808301926020929190829003018186803b158015610db557600080fd5b505afa158015610dc9573d6000803e3d6000fd5b505050506040513d6020811015610ddf57600080fd5b5051600d5460408051600160e01b6323dc9e3702815290519293506001600160a01b0380851693639e281a9893909116916323dc9e37916004808301926020929190829003018186803b158015610e3557600080fd5b505afa158015610e49573d6000803e3d6000fd5b505050506040513d6020811015610e5f57600080fd5b5051600c546040805163ffffffff851660e01b81526001600160a01b039093166004840152602483019190915251604480830192600092919082900301818387803b158015610ead57600080fd5b505af1158015610ec1573d6000803e3d6000fd5b5050600854600c54600d5460408051600160e01b6323dc9e370281529051610f5f96506001600160a01b0394851695509293909116916323dc9e3791600480820192602092909190829003018186803b158015610f1d57600080fd5b505afa158015610f31573d6000803e3d6000fd5b505050506040513d6020811015610f4757600080fd5b50516001600160a01b0316919063ffffffff61297f16565b505b6001805460ff19169055565b610f76336129ff565b565b610f813361108a565b610fbf57604051600160e51b62461bcd02815260040180806020018281038252603a815260200180614bbe603a913960400191505060405180910390fd5b6000838152600f6020526040902080546001600160a01b031661101657604051600160e51b62461bcd02815260040180806020018281038252602a815260200180614b59602a913960400191505060405180910390fd5b600581015461102e90600160a01b900460ff166125e0565b1561106d57604051600160e51b62461bcd02815260040180806020018281038252602b815260200180614ad0602b913960400191505060405180910390fd5b60606110788561208f565b905060006060610ca787848888612a47565b600061109c818363ffffffff612b8f16565b92915050565b60065460ff166110e657604051600160e51b62461bcd028152600401808060200182810382526036815260200180614ddd6036913960400191505060405180910390fd5b6008546001600160a01b0316331461113257604051600160e51b62461bcd02815260040180806020018281038252603b815260200180614bf8603b913960400191505060405180910390fd5b6001600160a01b03919091166000908152600760205260409020805460ff1916911515919091179055565b600e546001600160a01b031690565b6000838152600f6020526040902080546001600160a01b03166111c357604051600160e51b62461bcd02815260040180806020018281038252602a815260200180614b59602a913960400191505060405180910390fd5b60058101546111db90600160a01b900460ff166125e0565b1561121a57604051600160e51b62461bcd02815260040180806020018281038252602b815260200180614ad0602b913960400191505060405180910390fd5b6001600160a01b03831661126257604051600160e51b62461bcd028152600401808060200182810382526031815260200180614d766031913960400191505060405180910390fd5b600082116112a457604051600160e51b62461bcd02815260040180806020018281038252602a815260200180614ea9602a913960400191505060405180910390fd5b6112ae8433612638565b6112ec57604051600160e51b62461bcd028152600401808060200182810382526031815260200180614afb6031913960400191505060405180910390fd5b6005810154604080517f3d4aa9a90000000000000000000000000000000000000000000000000000000081523360048201526001600160a01b0386811660248301526044820186905291519190921691633d4aa9a991606480830192600092919082900301818387803b15801561136257600080fd5b505af1158015611376573d6000803e3d6000fd5b5050600e5461139a92506001600160a01b038681169250168463ffffffff61281d16565b600e54604080517f810c0af80000000000000000000000000000000000000000000000000000000081523360048201526001600160a01b038681166024830152604482018690529151919092169163810c0af891606480830192600092919082900301818387803b15801561140e57600080fd5b505af1158015611422573d6000803e3d6000fd5b5050505060606114318561208f565b905060006060610ca787848888612bf9565b61144c3361108a565b61148a57604051600160e51b62461bcd02815260040180806020018281038252603a815260200180614bbe603a913960400191505060405180910390fd5b61149381612c93565b50565b6000828152600f6020526040902080546001600160a01b03166114ed57604051600160e51b62461bcd02815260040180806020018281038252602a815260200180614b59602a913960400191505060405180910390fd5b600581015461150590600160a01b900460ff166125e0565b1561154457604051600160e51b62461bcd02815260040180806020018281038252602b815260200180614ad0602b913960400191505060405180910390fd5b6000821161158657604051600160e51b62461bcd02815260040180806020018281038252602a815260200180614ea9602a913960400191505060405180910390fd5b6115908333612638565b6115ce57604051600160e51b62461bcd028152600401808060200182810382526031815260200180614afb6031913960400191505060405180910390fd5b6005810154604080517f487c35800000000000000000000000000000000000000000000000000000000081523360048201526024810185905290516001600160a01b039092169163487c35809160448082019260009290919082900301818387803b15801561163c57600080fd5b505af1158015611650573d6000803e3d6000fd5b5050600e54604080517f70d97c3400000000000000000000000000000000000000000000000000000000815233600482015290516001600160a01b0390921693506370d97c3492508591602480830192600092919082900301818588803b1580156116ba57600080fd5b505af11580156116ce573d6000803e3d6000fd5b505050505060606116de8461208f565b90506000606061069b86846116f161268f565b88612bf9565b6000838152600f6020526040902080546001600160a01b031661174e57604051600160e51b62461bcd02815260040180806020018281038252602a815260200180614b59602a913960400191505060405180910390fd5b600581015461176690600160a01b900460ff166125e0565b156117a557604051600160e51b62461bcd02815260040180806020018281038252602b815260200180614ad0602b913960400191505060405180910390fd5b60606117b08561208f565b905060006060610ca787848888612cdb565b60006117cc612d71565b61180a57604051600160e51b62461bcd028152600401808060200182810382526031815260200180614cf56031913960400191505060405180910390fd5b61181333612d9a565b61185157604051600160e51b62461bcd02815260040180806020018281038252602d815260200180614c33602d913960400191505060405180910390fd5b600d5460408051600160e01b635a36366702815290516000926001600160a01b031691635a363667916004808301926020929190829003018186803b15801561189957600080fd5b505afa1580156118ad573d6000803e3d6000fd5b505050506040513d60208110156118c357600080fd5b50511115611d6f57600e54600d5460408051600160e01b6323dc9e3702815290516001600160a01b0393841693633d4aa9a99333939116916323dc9e3791600480820192602092909190829003018186803b15801561192157600080fd5b505afa158015611935573d6000803e3d6000fd5b505050506040513d602081101561194b57600080fd5b5051600d5460408051600160e01b635a36366702815290516001600160a01b0390921691635a36366791600480820192602092909190829003018186803b15801561199557600080fd5b505afa1580156119a9573d6000803e3d6000fd5b505050506040513d60208110156119bf57600080fd5b50516040805163ffffffff861660e01b81526001600160a01b03948516600482015292909316602483015260448201529051606480830192600092919082900301818387803b158015611a1157600080fd5b505af1158015611a25573d6000803e3d6000fd5b50505050611ba4600d60009054906101000a90046001600160a01b03166001600160a01b031663e75592606040518163ffffffff1660e01b815260040160206040518083038186803b158015611a7a57600080fd5b505afa158015611a8e573d6000803e3d6000fd5b505050506040513d6020811015611aa457600080fd5b5051600d5460408051600160e01b635a36366702815290516001600160a01b0390921691635a36366791600480820192602092909190829003018186803b158015611aee57600080fd5b505afa158015611b02573d6000803e3d6000fd5b505050506040513d6020811015611b1857600080fd5b5051600d5460408051600160e01b6323dc9e3702815290516001600160a01b03909216916323dc9e3791600480820192602092909190829003018186803b158015611b6257600080fd5b505afa158015611b76573d6000803e3d6000fd5b505050506040513d6020811015611b8c57600080fd5b50516001600160a01b0316919063ffffffff61281d16565b600d60009054906101000a90046001600160a01b03166001600160a01b031663e75592606040518163ffffffff1660e01b815260040160206040518083038186803b158015611bf257600080fd5b505afa158015611c06573d6000803e3d6000fd5b505050506040513d6020811015611c1c57600080fd5b5051600d5460408051600160e01b6323dc9e3702815290516001600160a01b039384169363338b5dea9316916323dc9e37916004808301926020929190829003018186803b158015611c6d57600080fd5b505afa158015611c81573d6000803e3d6000fd5b505050506040513d6020811015611c9757600080fd5b5051600d5460408051600160e01b635a36366702815290516001600160a01b0390921691635a36366791600480820192602092909190829003018186803b158015611ce157600080fd5b505afa158015611cf5573d6000803e3d6000fd5b505050506040513d6020811015611d0b57600080fd5b50516040805163ffffffff851660e01b81526001600160a01b039093166004840152602483019190915251604480830192600092919082900301818387803b158015611d5657600080fd5b505af1158015611d6a573d6000803e3d6000fd5b505050505b600b805460018101909155600d54604080517fd9e86f1d00000000000000000000000000000000000000000000000000000000815290516000926001600160a01b03169163d9e86f1d916004808301926020929190829003018186803b158015611dd857600080fd5b505afa158015611dec573d6000803e3d6000fd5b505050506040513d6020811015611e0257600080fd5b5051604080517f0ae60b6000000000000000000000000000000000000000000000000000000000815290516001600160a01b0390921691630ae60b60916004808201926020929091908290030181600087803b158015611e6157600080fd5b505af1158015611e75573d6000803e3d6000fd5b505050506040513d6020811015611e8b57600080fd5b50516040805160e0810182523381524260208083019190915260008284018190526060830152600d548351600160e01b635a3636670281529351949550919360808501936001600160a01b0390931692635a363667926004808301939192829003018186803b158015611efd57600080fd5b505afa158015611f11573d6000803e3d6000fd5b505050506040513d6020811015611f2757600080fd5b505181526001600160a01b0383166020820152604001600090526000838152600f60209081526040918290208351815473ffffffffffffffffffffffffffffffffffffffff199081166001600160a01b03928316178355928501516001830155928401516002820180548416918516919091179055606084015160038201556080840151600482015560a084015160058201805490931693169290921780825560c0840151919074ff00000000000000000000000000000000000000001916600160a01b836006811115611ff757fe5b0217905550905050606061200a8361208f565b9050612017838287612dc9565b6000848152600f60205260409020600501805474ff00000000000000000000000000000000000000001916600160a01b83600681111561205357fe5b0217905550505050919050565b60065460009060ff16158061109c5750506001600160a01b031660009081526007602052604090205460ff1690565b6000818152600f602052604090206060906120a8614751565b60408051610160810182528581526008546001600160a01b03908116602083015260095481169282019290925283548216606082015260018401546080820152600284015490911660a0820152600383015460c0820152600583015460e0820190600160a01b900460ff16600681111561211e57fe5b60ff16815260058401546001600160a01b0390811660208084019190915233604080850191909152600d5481517f2bc51c6d0000000000000000000000000000000000000000000000000000000081529151606090950194931692632bc51c6d92600480840193919291829003018186803b15801561219c57600080fd5b505afa1580156121b0573d6000803e3d6000fd5b505050506040513d60208110156121c657600080fd5b50516001600160a01b0316905290506121de81613075565b949350505050565b60008381526010602090815260408083205481517fc8200520000000000000000000000000000000000000000000000000000000008152600481019283528651604482015286516060946001600160a01b039093169363c820052093899389938392602483019260640191908701908083838e5b8381101561227257818101518382015260200161225a565b50505050905090810190601f16801561229f5780820380516001836020036101000a031916815260200191505b50838103825284518152845160209182019186019080838360005b838110156122d25781810151838201526020016122ba565b50505050905090810190601f1680156122ff5780820380516001836020036101000a031916815260200191505b50945050505050600060405180830381600087803b15801561232057600080fd5b505af1158015612334573d6000803e3d6000fd5b505050506040513d6000823e601f3d908101601f19168201604090815281101561235d57600080fd5b81516020830180519193928301929164010000000081111561237e57600080fd5b8201602081018481111561239157600080fd5b81516401000000008111828201871017156123ab57600080fd5b50949a909950975050505050505050565b6000838152600f6020526040902060058101805484919074ff00000000000000000000000000000000000000001916600160a01b8360068111156123fc57fe5b021790555061240a836125e0565b801561241a575060008160040154115b156125d057600d60009054906101000a90046001600160a01b03166001600160a01b031663e75592606040518163ffffffff1660e01b815260040160206040518083038186803b15801561246d57600080fd5b505afa158015612481573d6000803e3d6000fd5b505050506040513d602081101561249757600080fd5b5051600d5460408051600160e01b6323dc9e3702815290516001600160a01b0393841693639e281a989316916323dc9e37916004808301926020929190829003018186803b1580156124e857600080fd5b505afa1580156124fc573d6000803e3d6000fd5b505050506040513d602081101561251257600080fd5b50516004808501546040805163ffffffff861660e01b81526001600160a01b0390941692840192909252602483015251604480830192600092919082900301818387803b15801561256257600080fd5b505af1158015612576573d6000803e3d6000fd5b50508254600480850154600d5460408051600160e01b6323dc9e3702815290516125d097506001600160a01b0395861696509294909116926323dc9e37928282019260209290829003018186803b158015610f1d57600080fd5b6125da84836130c5565b50505050565b600060038260068111156125f057fe5b14806126075750600482600681111561260557fe5b145b8061261d5750600582600681111561261b57fe5b145b8061109c5750600682600681111561263157fe5b1492915050565b6000828152600f6020526040812080546001600160a01b0384811691161480612670575060028101546001600160a01b038481169116145b806121de57506009546001600160a01b03848116911614949350505050565b60001990565b60008481526010602090815260408083205490517fa674326b0000000000000000000000000000000000000000000000000000000081526001600160a01b038681166024830152604482018690526060600483018181528951606485015289519195929094169363a674326b938a938a938a93928392608490910191908701908083838e5b8381101561273257818101518382015260200161271a565b50505050905090810190601f16801561275f5780820380516001836020036101000a031916815260200191505b50945050505050600060405180830381600087803b15801561278057600080fd5b505af1158015612794573d6000803e3d6000fd5b505050506040513d6000823e601f3d908101601f1916820160409081528110156127bd57600080fd5b8151602083018051919392830192916401000000008111156127de57600080fd5b820160208101848111156127f157600080fd5b815164010000000081118282018710171561280b57600080fd5b50949b909a5098505050505050505050565b8015806128bc5750604080517fdd62ed3e0000000000000000000000000000000000000000000000000000000081523060048201526001600160a01b03848116602483015291519185169163dd62ed3e91604480820192602092909190829003018186803b15801561288e57600080fd5b505afa1580156128a2573d6000803e3d6000fd5b505050506040513d60208110156128b857600080fd5b5051155b6128fa57604051600160e51b62461bcd028152600401808060200182810382526036815260200180614e736036913960400191505060405180910390fd5b604080516001600160a01b038416602482015260448082018490528251808303909101815260649091019091526020810180517bffffffffffffffffffffffffffffffffffffffffffffffffffffffff167f095ea7b30000000000000000000000000000000000000000000000000000000017905261297a9084906135ab565b505050565b604080516001600160a01b038416602482015260448082018490528251808303909101815260649091019091526020810180517bffffffffffffffffffffffffffffffffffffffffffffffffffffffff167fa9059cbb0000000000000000000000000000000000000000000000000000000017905261297a9084906135ab565b612a1060008263ffffffff61376c16565b6040516001600160a01b038216907f708c3750abf4f634a44a83e054e242d74eca9179f6c36780e5f62d1bcda31ba090600090a250565b60008481526010602090815260408083205490517fe3e41ef10000000000000000000000000000000000000000000000000000000081526024810186905260606004820181815288516064840152885191946001600160a01b039094169363e3e41ef1938a938a938a939092839260448201926084909201918801908083838f5b83811015612ae0578181015183820152602001612ac8565b50505050905090810190601f168015612b0d5780820380516001836020036101000a031916815260200191505b50838103825284518152845160209182019186019080838360005b83811015612b40578181015183820152602001612b28565b50505050905090810190601f168015612b6d5780820380516001836020036101000a031916815260200191505b5095505050505050600060405180830381600087803b15801561278057600080fd5b60006001600160a01b038216612bd957604051600160e51b62461bcd028152600401808060200182810382526022815260200180614d266022913960400191505060405180910390fd5b506001600160a01b03166000908152602091909152604090205460ff1690565b60008481526010602090815260408083205490517f488d61bc0000000000000000000000000000000000000000000000000000000081526001600160a01b038681166024830152604482018690526060600483018181528951606485015289519195929094169363488d61bc938a938a938a93928392608490910191908701908083838e831561273257818101518382015260200161271a565b612ca460008263ffffffff6137d616565b6040516001600160a01b038216907f9ddc85aace404f3f4847945cd853a70355e2f1dc7f6a75b7951259bcfa97c22b90600090a250565b60008481526010602090815260408083205490517f8ddd8d380000000000000000000000000000000000000000000000000000000081526024810186905260606004820181815288516064840152885191946001600160a01b0390941693638ddd8d38938a938a938a939092839260448201926084909201918801908083838f8315612ae0578181015183820152602001612ac8565b60015460009060ff168015612d9557506002541580612d9557504260035460025401115b905090565b60045460009060ff16158061109c5750506001600160a01b031660009081526005602052604090205460ff1690565b600080600d60009054906101000a90046001600160a01b03166001600160a01b031663be5405d26040518163ffffffff1660e01b815260040160206040518083038186803b158015612e1a57600080fd5b505afa158015612e2e573d6000803e3d6000fd5b505050506040513d6020811015612e4457600080fd5b5051600a54604080517f1a9c5dab0000000000000000000000000000000000000000000000000000000081526001600160a01b039283166004820152306024820152905192935090831691631a9c5dab916044808201926020929091908290030181600087803b158015612eb757600080fd5b505af1158015612ecb573d6000803e3d6000fd5b505050506040513d6020811015612ee157600080fd5b50516000868152601060209081526040808320805473ffffffffffffffffffffffffffffffffffffffff19166001600160a01b03958616179081905581517fcdfa837a00000000000000000000000000000000000000000000000000000000815260048101928352895160448201528951919095169463cdfa837a948a948a949384936024810193606490910192880191908190849084905b83811015612f92578181015183820152602001612f7a565b50505050905090810190601f168015612fbf5780820380516001836020036101000a031916815260200191505b50838103825284518152845160209182019186019080838360005b83811015612ff2578181015183820152602001612fda565b50505050905090810190601f16801561301f5780820380516001836020036101000a031916815260200191505b50945050505050602060405180830381600087803b15801561304057600080fd5b505af1158015613054573d6000803e3d6000fd5b505050506040513d602081101561306a57600080fd5b505195945050505050565b6060806130818361385a565b6040519080825280601f01601f1916602001820160405280156130ab576020820181803883390190505b50905060006130bc84602084613861565b82525092915050565b6130cd6147ad565b6130d6826139e3565b6000848152600f602052604081206005810154929350916001600160a01b0316905b8351518110156106aa5761310a6147c0565b845180518390811061311857fe5b60200260200101519050613130878260200151612638565b61316e57604051600160e51b62461bcd028152600401808060200182810382526036815260200180614c606036913960400191505060405180910390fd5b61317c878260400151612638565b6131ba57604051600160e51b62461bcd028152600401808060200182810382526036815260200180614e136036913960400191505060405180910390fd5b805115613459576131c961268f565b6001600160a01b031681606001516001600160a01b031614156132f457826001600160a01b031663487c3580826020015183608001516040518363ffffffff1660e01b815260040180836001600160a01b03166001600160a01b0316815260200182815260200192505050600060405180830381600087803b15801561324e57600080fd5b505af1158015613262573d6000803e3d6000fd5b5050600e54608084015160408086015181517f70d97c340000000000000000000000000000000000000000000000000000000081526001600160a01b0391821660048201529151931694506370d97c3493509091602480830192600092919082900301818588803b1580156132d657600080fd5b505af11580156132ea573d6000803e3d6000fd5b5050505050613454565b602081015160608201516080830151604080517f3d4aa9a90000000000000000000000000000000000000000000000000000000081526001600160a01b039485166004820152928416602484015260448301919091525191851691633d4aa9a99160648082019260009290919082900301818387803b15801561337657600080fd5b505af115801561338a573d6000803e3d6000fd5b5050600e54608084015160608501516133ba94506001600160a01b0390811693509091169063ffffffff61281d16565b600e546040808301516060840151608085015183517f810c0af80000000000000000000000000000000000000000000000000000000081526001600160a01b03938416600482015291831660248301526044820152915192169163810c0af89160648082019260009290919082900301818387803b15801561343b57600080fd5b505af115801561344f573d6000803e3d6000fd5b505050505b6135a2565b61346161268f565b6001600160a01b031681606001516001600160a01b031614156134fd576020810151604080830151608084015182517fbeabacc80000000000000000000000000000000000000000000000000000000081526001600160a01b0394851660048201529184166024830152604482015290519185169163beabacc89160648082019260009290919082900301818387803b15801561343b57600080fd5b60208101516040808301516060840151608085015183517f2c54de4f0000000000000000000000000000000000000000000000000000000081526001600160a01b039586166004820152928516602484015290841660448301526064820152905191851691632c54de4f9160848082019260009290919082900301818387803b15801561358957600080fd5b505af115801561359d573d6000803e3d6000fd5b505050505b506001016130f8565b6135bd826001600160a01b0316613a08565b6136115760408051600160e51b62461bcd02815260206004820152601f60248201527f5361666545524332303a2063616c6c20746f206e6f6e2d636f6e747261637400604482015290519081900360640190fd5b60006060836001600160a01b0316836040518082805190602001908083835b6020831061364f5780518252601f199092019160209182019101613630565b6001836020036101000a0380198251168184511680821785525050505050509050019150506000604051808303816000865af19150503d80600081146136b1576040519150601f19603f3d011682016040523d82523d6000602084013e6136b6565b606091505b5091509150816137105760408051600160e51b62461bcd02815260206004820181905260248201527f5361666545524332303a206c6f772d6c6576656c2063616c6c206661696c6564604482015290519081900360640190fd5b8051156125da5780806020019051602081101561372c57600080fd5b50516125da57604051600160e51b62461bcd02815260040180806020018281038252602a815260200180614e49602a913960400191505060405180910390fd5b6137768282612b8f565b6137b457604051600160e51b62461bcd028152600401808060200182810382526021815260200180614c966021913960400191505060405180910390fd5b6001600160a01b0316600090815260209190915260409020805460ff19169055565b6137e08282612b8f565b156138355760408051600160e51b62461bcd02815260206004820152601f60248201527f526f6c65733a206163636f756e7420616c72656164792068617320726f6c6500604482015290519081900360640190fd5b6001600160a01b0316600090815260209190915260409020805460ff19166001179055565b5061011990565b60008280613873600160028387613a3f565b8651910190613883908286613a5f565b016138916002808387613a3f565b810190506138a486602001518286613a6e565b016138b3600360028387613a3f565b810190506138c686604001518286613a6e565b016138d5600460028387613a3f565b810190506138e886606001518286613a6e565b016138f7600560028387613a3f565b8101905061390a86608001518286613a5f565b01613919600660028387613a3f565b8101905061392c8660a001518286613a6e565b0161393b600760028387613a3f565b8101905061394e8660c001518286613a5f565b0161395d600860028387613a3f565b810190506139708660e001518286613a86565b0161397f600960028387613a3f565b810190506139938661010001518286613a6e565b016139a2600a60028387613a3f565b810190506139b68661012001518286613a6e565b016139c5600b60028387613a3f565b810190506139d98661014001518286613a6e565b0103949350505050565b6139eb6147ad565b6139f36147ad565b613a006020848551613a98565b509392505050565b6000813f7fc5d2460186f7233c927e7db2dcc703c0e500b653ca82273b7bfad8045d85a47081158015906121de5750141592915050565b6000600885026007851617613a55818585613cd3565b9695505050505050565b60006121de8460208585613d16565b60006121de846001600160a01b031660148585613d16565b60006121de8460ff1660018585613d16565b613aa06147ad565b6000613aaa6147ad565b613ab26147ee565b6000808089805b898201811015613b9d57613acd818c613d49565b9196509450925082016001851415613af857613af2818c613aec613d84565b89613d92565b01613b98565b6001846005811115613b0657fe5b1415613b20576000613b18828d613e18565b929092019150505b6005846005811115613b2e57fe5b1415613b48576000613b40828d613e39565b929092019150505b6000846005811115613b5657fe5b1415613b70576000613b68828d613e4b565b929092019150505b6002846005811115613b7e57fe5b1415613b98576000613b90828d613edd565b929092019150505b613ab9565b50808560016020020151604051908082528060200260200182016040528015613be057816020015b613bcd6147c0565b815260200190600190039081613bc55790505b5087525b898201811015613cc157613bf8818c613d49565b9196509450925082016001851415613c1c57613c16818c8989613d92565b01613cbc565b6001846005811115613c2a57fe5b1415613c44576000613c3c828d613e18565b929092019150505b6005846005811115613c5257fe5b1415613c6c576000613c64828d613e39565b929092019150505b6000846005811115613c7a57fe5b1415613c94576000613c8c828d613e4b565b929092019150505b6002846005811115613ca257fe5b1415613cbc576000613cb4828d613edd565b929092019150505b613be4565b50949a97995096975050505050505050565b600080828401607f86165b600787901c15613d06578060801782535060079590951c9460019182019101607f8616613cde565b8082535050600101949350505050565b600382019160009081613d2b87868689613fa4565b948501949050613d3c818386613fe2565b5050909203949350505050565b6000806000806000613d5b8787613e4b565b915091506000826007166005811115613d7057fe5b600890930498929750909550909350505050565b613d8c6147ad565b50600090565b6000613d9c6147c0565b6000613da88787614023565b91509150613db585614065565b15613dcf57600184815b6020020180519091019052613a55565b8451602085015181518492918103908110613de657fe5b60209081029190910181019190915284015115613a5557600184815b6020020180519190910390529695505050505050565b600080600080613e2a86866008614069565b909450925050505b9250929050565b600080600080613e2a86866004614069565b80519181019160009081908190819060200160805b6080811660801415613ed0578688038211613eab57600160e51b62461bcd026000526020600452600f602452600160881b6e6c656e677468206f766572666c6f770260445260536000fd5b875160001a905080607f16836007021b84179350600183019250600188019750613e60565b5091969095509350505050565b60606000806000613eee8686613e4b565b915091506060826040519080825280601f01601f191660200182016040528015613f1f576020820181803883390190505b508651978701830197909150602090810190820160005b85811015613f9457888a038311613f7d57600160e51b62461bcd026000526020600452600f602452600160881b6e6c656e677468206f766572666c6f770260445260536000fd5b895160001a82536001998a01999182019101613f36565b5091955050500190509250929050565b600080613fb186846140ef565b9050848401815b8015613fd65787816020031a82536001919091019060001901613fb8565b50909695505050505050565b600082613ff3600286018285613cd3565b84019350614005600160028686613a3f565b84019350614014858585613cd3565b90930192830390509392505050565b61402b6147c0565b600083818061403a8387613e4b565b91509150808301925061404b6147c0565b61405684888561412d565b50955050019150509250929050565b1590565b81519282019260009081908190602001815b858110156140e15786880382116140c257600160e51b62461bcd026000526020600452600f602452600160881b6e6c656e677468206f766572666c6f770260445260536000fd5b875160001a816008021b8317925060018801975060018101905061407b565b509096939550929350505050565b600060ff825b600719600882020182901b851615801561410f5750600081115b1561411d57600019016140f5565b806121de57506001949350505050565b6141356147c0565b600061413f6147c0565b61414761480c565b6000808089805b898201811015613cc157614162818c613d49565b919650945092508201600185141561418657614180818c898961427f565b0161427a565b846002141561419b57614180818c89896142c1565b84600314156141b057614180818c898961430f565b84600414156141c557614180818c898961435d565b84600514156141da57614180818c89896143ab565b60018460058111156141e857fe5b14156142025760006141fa828d613e18565b929092019150505b600584600581111561421057fe5b141561422a576000614222828d613e39565b929092019150505b600084600581111561423857fe5b141561425257600061424a828d613e4b565b929092019150505b600284600581111561426057fe5b141561427a576000614272828d613edd565b929092019150505b61414e565b600080600061428e87876143f1565b9150915061429b85614065565b156142a95760018481613dbf565b8115158552602084015115613a555760018481613e02565b60008060006142d08787614428565b915091506142dd85614065565b156142ec576001846002613dbf565b6001600160a01b0382166020860152604084015115613a55576001846002613e02565b600080600061431e8787614428565b9150915061432b85614065565b1561433a576001846003613dbf565b6001600160a01b0382166040860152606084015115613a55576001846003613e02565b600080600061436c8787614428565b9150915061437985614065565b15614388576001846004613dbf565b6001600160a01b0382166060860152608084015115613a55576001846004613e02565b60008060006143ba878761444c565b915091506143c785614065565b156143d6576001846005613dbf565b6080850182905260a084015115613a55576001846005613e02565b6000806000806144018686613e4b565b91509150816000141561441b57600093509150613e329050565b6001969095509350505050565b60008060008061443a6014878761445e565b60609190911c97909650945050505050565b600080600080613e2a602087876145e2565b60008060008061446e8686613e4b565b90925090506020600860ff60038a01168484011115614539576040518060400160405280600f8152602001600160881b6e6c656e677468206f766572666c6f7702815250604051600160e51b62461bcd0281526004018080602001828103825283818151815260200191508051906020019080838360005b838110156144fe5781810151838201526020016144e6565b50505050905090810190601f16801561452b5780820380516001836020036101000a031916815260200191505b509250505060405180910390fd5b6003880197506000602088510189106040518060400160405280600f8152602001600160881b6e6c656e677468206f766572666c6f7702815250906145c257604051600160e51b62461bcd0281526020600482018181528351602484015283519092839260449091019190850190808383600083156144fe5781810151838201526020016144e6565b505087870151918490036002010290811c901b9350019050935093915050565b6000806000806145f3878787614601565b909890975095505050505050565b60008060008060006146138787613e4b565b915091508760030160ff16818301111561469757604080518082018252600f8152600160881b6e6c656e677468206f766572666c6f770260208083019182529251600160e51b62461bcd02815260048101938452825160248201528251929392839260449092019190808383600083156144fe5781810151838201526020016144e6565b600387019650602086510187106040518060400160405280600f8152602001600160881b6e6c656e677468206f766572666c6f77028152509061471e57604051600160e51b62461bcd0281526020600482018181528351602484015283519092839260449091019190850190808383600083156144fe5781810151838201526020016144e6565b5086860151925060011982015b6020811015614743576101008404935060010161472b565b509197910195509350505050565b6040805161016081018252600080825260208201819052918101829052606081018290526080810182905260a0810182905260c0810182905260e081018290526101008101829052610120810182905261014081019190915290565b6040518060200160405280606081525090565b6040805160a08101825260008082526020820181905291810182905260608101829052608081019190915290565b60405180604001604052806002906020820280388339509192915050565b6040518060c001604052806006906020820280388339509192915050565b614832614a4d565b61483a614a4d565b613a00602084855161484a614a4d565b6000614854614a4d565b61485c614a74565b6000808089805b898201811015613cc157614877818c613d49565b919650945092508201600185141561489b57614895818c898961497f565b0161497a565b84600214156148b057614895818c89896142c1565b84600314156148c557614895818c89896149bf565b84600414156148da57614895818c8989614a06565b60018460058111156148e857fe5b14156149025760006148fa828d613e18565b929092019150505b600584600581111561491057fe5b141561492a576000614922828d613e39565b929092019150505b600084600581111561493857fe5b141561495257600061494a828d613e4b565b929092019150505b600284600581111561496057fe5b141561497a576000614972828d613edd565b929092019150505b614863565b600080600061498e878761444c565b9150915061499b85614065565b156149a95760018481613dbf565b818552602084015115613a555760018481613e02565b60008060006149ce87876143f1565b915091506149db85614065565b156149ea576001846003613dbf565b8115156040860152606084015115613a55576001846003613e02565b6000806000614a1587876143f1565b91509150614a2285614065565b15614a31576001846004613dbf565b8115156060860152608084015115613a55576001846004613e02565b60408051608081018252600080825260208201819052918101829052606081019190915290565b6040518060a00160405280600590602082028038833950919291505056fe496e737472756d656e744d616e61676572426173653a2054686520696e737472756d656e7420697320616c72656164792064656163746976617465642e496e737472756d656e744d616e61676572426173653a2049737375616e6365207465726d696e617465642e496e737472756d656e744d616e61676572426173653a205769746864726177616c206973206e6f7420616c6c6f7765642e496e737472756d656e744d616e61676572426173653a204e6f7420616e20656c696769626c652074616b65722e496e737472756d656e744d616e61676572426173653a2049737375616e6365206e6f742065786973742e496e737472756d656e744d616e61676572426173653a204f6e6c79204653502063616e20757064617465206d616b65722077686974656c6973742e54696d65724f7261636c65526f6c653a2063616c6c657220646f6573206e6f742068617665207468652054696d65724f7261636c6520726f6c65496e737472756d656e744d616e61676572426173653a204f6e6c79204653502063616e207570646174652074616b65722077686974656c6973742e496e737472756d656e744d616e61676572426173653a204e6f7420616e20656c696769626c65206d616b65722e496e737472756d656e744d616e61676572426173653a205472616e7366657220736f75726365206973206e6f7420616c6c6f7765642e526f6c65733a206163636f756e7420646f6573206e6f74206861766520726f6c65496e737472756d656e744d616e61676572426173653a204f6e6c79204653502063616e20646561637469766174652074686520696e737472756d656e742e496e737472756d656e744d616e61676572426173653a20496e737472756d656e742069732064656163746976617465642e526f6c65733a206163636f756e7420697320746865207a65726f2061646472657373496e737472756d656e744d616e61676572426173653a204465706f736974206973206e6f7420616c6c6f7765642e496e737472756d656e744d616e61676572426173653a20546f6b656e2061646472657373206d757374206265207365742e496e737472756d656e744d616e61676572426173653a204d616b65722077686974656c697374206973206e6f7420656e61626c65642e496e737472756d656e744d616e61676572426173653a2054616b65722077686974656c697374206973206e6f7420656e61626c65642e496e737472756d656e744d616e61676572426173653a205472616e7366657220746172676574206973206e6f7420616c6c6f7765642e5361666545524332303a204552433230206f7065726174696f6e20646964206e6f7420737563636565645361666545524332303a20617070726f76652066726f6d206e6f6e2d7a65726f20746f206e6f6e2d7a65726f20616c6c6f77616e6365496e737472756d656e744d616e61676572426173653a20416d6f756e74206d757374206265207365742e496e737472756d656e744d616e61676572426173653a2049737375616e6365206e6f7420656e6761676561626c652ea165627a7a723058203446e0e4ee08e0985e219af34c6609de6959ca4d087ab580fcae6783ce1d4a900029496e737472756d656e744d616e61676572426173653a20496e737472756d656e7420436f6e6669672061646472657373206d7573742062652070726f76696465642e496e737472756d656e744d616e61676572426173653a20496e737472756d656e7420706172616d6574657273206d7573742062652070726f76696465642e526f6c65733a206163636f756e7420697320746865207a65726f2061646472657373496e737472756d656e744d616e61676572426173653a204653502061646472657373206d7573742062652070726f76696465642e496e737472756d656e744d616e61676572426173653a20416c726561647920696e697469616c697a65642e496e737472756d656e744d616e61676572426173653a20496e737472756d656e742061646472657373206d7573742062652070726f76696465642ea165627a7a723058205e21e37e99b0bdebd1f14fc3fcdb4e383a51b599aad50ffac7cb88809824fcaa0029",
  "source": "pragma solidity ^0.5.0;\n\nimport \"../InstrumentManagerFactoryInterface.sol\";\nimport \"../InstrumentManagerInterface.sol\";\nimport \"./InstrumentV3Manager.sol\";\n\ncontract InstrumentV3ManagerFactory is InstrumentManagerFactoryInterface {\n    /**\n     * @dev Create a new instrument manager instance\n     * @param fspAddress The address of fsp who creates the instrument.\n     * @param instrumentAddress The address of the instrument\n     * @param instrumentConfigAddress The address of the instrument config.\n     * @param instrumentParameters The custom parameters to this instrument manager.\n     */\n    function createInstrumentManagerInstance(address fspAddress, address instrumentAddress, address instrumentConfigAddress,\n        bytes memory instrumentParameters) public returns (InstrumentManagerInterface) {\n        InstrumentV3Manager manager = new InstrumentV3Manager(fspAddress, instrumentAddress, instrumentConfigAddress, instrumentParameters);\n\n        return manager;\n    }\n}",
  "sourcePath": "/Users/shengdading/git/nuts-platform-v2/contracts/instrument/v3/InstrumentV3ManagerFactory.sol",
  "compiler": {
    "name": "solc",
    "version": "0.5.8+commit.23d335f2.Emscripten.clang"
  },
  "schemaVersion": "3.0.16",
  "updatedAt": "2019-10-16T00:39:23.884Z",
  "devdoc": {
    "methods": {
      "createInstrumentManagerInstance(address,address,address,bytes)": {
        "details": "Create a new instrument manager instance",
        "params": {
          "fspAddress": "The address of fsp who creates the instrument.",
          "instrumentAddress": "The address of the instrument",
          "instrumentConfigAddress": "The address of the instrument config.",
          "instrumentParameters": "The custom parameters to this instrument manager."
        }
      }
    }
  },
  "userdoc": {
    "methods": {}
  }
}