{
  "contractName": "InstrumentV3Manager",
  "abi": [
    {
      "constant": false,
      "inputs": [
        {
          "name": "issuanceId",
          "type": "uint256"
        },
        {
          "name": "takerParameters",
          "type": "bytes"
        }
      ],
      "name": "engageIssuance",
      "outputs": [],
      "payable": false,
      "stateMutability": "nonpayable",
      "type": "function"
    },
    {
      "constant": false,
      "inputs": [
        {
          "name": "issuanceId",
          "type": "uint256"
        },
        {
          "name": "amount",
          "type": "uint256"
        }
      ],
      "name": "depositToIssuance",
      "outputs": [],
      "payable": false,
      "stateMutability": "nonpayable",
      "type": "function"
    },
    {
      "constant": false,
      "inputs": [
        {
          "name": "fspAddress",
          "type": "address"
        },
        {
          "name": "instrumentAddress",
          "type": "address"
        },
        {
          "name": "instrumentConfigAddress",
          "type": "address"
        },
        {
          "name": "instrumentParameters",
          "type": "bytes"
        }
      ],
      "name": "initialize",
      "outputs": [],
      "payable": false,
      "stateMutability": "nonpayable",
      "type": "function"
    },
    {
      "constant": false,
      "inputs": [
        {
          "name": "makerAddress",
          "type": "address"
        },
        {
          "name": "allowed",
          "type": "bool"
        }
      ],
      "name": "setMakerWhitelist",
      "outputs": [],
      "payable": false,
      "stateMutability": "nonpayable",
      "type": "function"
    },
    {
      "constant": false,
      "inputs": [
        {
          "name": "issuanceId",
          "type": "uint256"
        },
        {
          "name": "tokenAddress",
          "type": "address"
        },
        {
          "name": "amount",
          "type": "uint256"
        }
      ],
      "name": "depositTokenToIssuance",
      "outputs": [],
      "payable": false,
      "stateMutability": "nonpayable",
      "type": "function"
    },
    {
      "constant": false,
      "inputs": [],
      "name": "deactivate",
      "outputs": [],
      "payable": false,
      "stateMutability": "nonpayable",
      "type": "function"
    },
    {
      "constant": false,
      "inputs": [],
      "name": "renounceTimerOracle",
      "outputs": [],
      "payable": false,
      "stateMutability": "nonpayable",
      "type": "function"
    },
    {
      "constant": false,
      "inputs": [
        {
          "name": "issuanceId",
          "type": "uint256"
        },
        {
          "name": "eventName",
          "type": "bytes32"
        },
        {
          "name": "eventPayload",
          "type": "bytes"
        }
      ],
      "name": "notifyScheduledEvent",
      "outputs": [],
      "payable": false,
      "stateMutability": "nonpayable",
      "type": "function"
    },
    {
      "constant": true,
      "inputs": [
        {
          "name": "account",
          "type": "address"
        }
      ],
      "name": "isTimerOracle",
      "outputs": [
        {
          "name": "",
          "type": "bool"
        }
      ],
      "payable": false,
      "stateMutability": "view",
      "type": "function"
    },
    {
      "constant": false,
      "inputs": [
        {
          "name": "takerAddress",
          "type": "address"
        },
        {
          "name": "allowed",
          "type": "bool"
        }
      ],
      "name": "setTakerWhitelist",
      "outputs": [],
      "payable": false,
      "stateMutability": "nonpayable",
      "type": "function"
    },
    {
      "constant": true,
      "inputs": [],
      "name": "getInstrumentEscrowAddress",
      "outputs": [
        {
          "name": "",
          "type": "address"
        }
      ],
      "payable": false,
      "stateMutability": "view",
      "type": "function"
    },
    {
      "constant": false,
      "inputs": [
        {
          "name": "issuanceId",
          "type": "uint256"
        },
        {
          "name": "tokenAddress",
          "type": "address"
        },
        {
          "name": "amount",
          "type": "uint256"
        }
      ],
      "name": "withdrawTokenFromIssuance",
      "outputs": [],
      "payable": false,
      "stateMutability": "nonpayable",
      "type": "function"
    },
    {
      "constant": false,
      "inputs": [
        {
          "name": "account",
          "type": "address"
        }
      ],
      "name": "addTimerOracle",
      "outputs": [],
      "payable": false,
      "stateMutability": "nonpayable",
      "type": "function"
    },
    {
      "constant": false,
      "inputs": [
        {
          "name": "issuanceId",
          "type": "uint256"
        },
        {
          "name": "amount",
          "type": "uint256"
        }
      ],
      "name": "withdrawFromIssuance",
      "outputs": [],
      "payable": false,
      "stateMutability": "nonpayable",
      "type": "function"
    },
    {
      "constant": false,
      "inputs": [
        {
          "name": "issuanceId",
          "type": "uint256"
        },
        {
          "name": "eventName",
          "type": "bytes32"
        },
        {
          "name": "eventPayload",
          "type": "bytes"
        }
      ],
      "name": "notifyCustomEvent",
      "outputs": [],
      "payable": false,
      "stateMutability": "nonpayable",
      "type": "function"
    },
    {
      "constant": false,
      "inputs": [
        {
          "name": "makerParameters",
          "type": "bytes"
        }
      ],
      "name": "createIssuance",
      "outputs": [
        {
          "name": "",
          "type": "uint256"
        }
      ],
      "payable": false,
      "stateMutability": "nonpayable",
      "type": "function"
    },
    {
      "anonymous": false,
      "inputs": [
        {
          "indexed": true,
          "name": "instrumentAddress",
          "type": "address"
        },
        {
          "indexed": true,
          "name": "instrumentEscrowAddress",
          "type": "address"
        }
      ],
      "name": "InstrumentManagerInitialized",
      "type": "event"
    },
    {
      "anonymous": false,
      "inputs": [
        {
          "indexed": true,
          "name": "account",
          "type": "address"
        }
      ],
      "name": "TimerOracleAdded",
      "type": "event"
    },
    {
      "anonymous": false,
      "inputs": [
        {
          "indexed": true,
          "name": "account",
          "type": "address"
        }
      ],
      "name": "TimerOracleRemoved",
      "type": "event"
    }
  ],
  "bytecode": "0x608060405262000015336200001b60201b60201c565b62000194565b620000368160006200006d60201b62003c7e1790919060201c565b6040516001600160a01b038216907f9ddc85aace404f3f4847945cd853a70355e2f1dc7f6a75b7951259bcfa97c22b90600090a250565b6200007f82826200011160201b60201c565b15620000ec57604080517f08c379a000000000000000000000000000000000000000000000000000000000815260206004820152601f60248201527f526f6c65733a206163636f756e7420616c72656164792068617320726f6c6500604482015290519081900360640190fd5b6001600160a01b0316600090815260209190915260409020805460ff19166001179055565b60006001600160a01b03821662000174576040517f08c379a0000000000000000000000000000000000000000000000000000000008152600401808060200182810382526022815260200180620057466022913960400191505060405180910390fd5b506001600160a01b03166000908152602091909152604090205460ff1690565b6155a280620001a46000396000f3fe608060405234801561001057600080fd5b50600436106101005760003560e01c8063711ec8ee1161009757806390d69d641161006657806390d69d641461047e578063d9d6f958146104a4578063dc06b3a2146104c7578063f1c0d81a1461057957610100565b8063711ec8ee146103c057806379dcec8c146103fa5780638792b833146104285780638f7afe3e1461044c57610100565b80634154cf64116100d35780634154cf64146102cc57806351b42b00146102fe5780635c3b1cf01461030657806369382c641461030e57610100565b8063011e8f9614610105578063059c2775146101b4578063246581f7146101d75780632ea241121461029e575b600080fd5b6101b26004803603604081101561011b57600080fd5b8135919081019060408101602082013564010000000081111561013d57600080fd5b82018360208201111561014f57600080fd5b8035906020019184600183028401116401000000008311171561017157600080fd5b91908080601f016020809104026020016040519081016040528093929190818152602001838380828437600092019190915250929550610631945050505050565b005b6101b2600480360360408110156101ca57600080fd5b5080359060200135610777565b6101b2600480360360808110156101ed57600080fd5b6001600160a01b038235811692602081013582169260408201359092169181019060808101606082013564010000000081111561022957600080fd5b82018360208201111561023b57600080fd5b8035906020019184600183028401116401000000008311171561025d57600080fd5b91908080601f0160208091040260200160405190810160405280939291908181526020018383808284376000920191909152509295506109d8945050505050565b6101b2600480360360408110156102b457600080fd5b506001600160a01b0381351690602001351515610e8c565b6101b2600480360360608110156102e257600080fd5b508035906001600160a01b036020820135169060400135610f47565b6101b2611238565b6101b26114e6565b6101b26004803603606081101561032457600080fd5b81359160208101359181019060608101604082013564010000000081111561034b57600080fd5b82018360208201111561035d57600080fd5b8035906020019184600183028401116401000000008311171561037f57600080fd5b91908080601f0160208091040260200160405190810160405280939291908181526020018383808284376000920191909152509295506114f1945050505050565b6103e6600480360360208110156103d657600080fd5b50356001600160a01b0316611603565b604080519115158252519081900360200190f35b6101b26004803603604081101561041057600080fd5b506001600160a01b038135169060200135151561161b565b6104306116d6565b604080516001600160a01b039092168252519081900360200190f35b6101b26004803603606081101561046257600080fd5b508035906001600160a01b0360208201351690604001356116e5565b6101b26004803603602081101561049457600080fd5b50356001600160a01b03166119bc565b6101b2600480360360408110156104ba57600080fd5b5080359060200135611a0f565b6101b2600480360360608110156104dd57600080fd5b81359160208101359181019060608101604082013564010000000081111561050457600080fd5b82018360208201111561051657600080fd5b8035906020019184600183028401116401000000008311171561053857600080fd5b91908080601f016020809104026020016040519081016040528093929190818152602001838380828437600092019190915250929550611c70945050505050565b61061f6004803603602081101561058f57600080fd5b8101906020810181356401000000008111156105aa57600080fd5b8201836020820111156105bc57600080fd5b803590602001918460018302840111640100000000831117156105de57600080fd5b91908080601f016020809104026020016040519081016040528093929190818152602001838380828437600092019190915250929550611d3b945050505050565b60408051918252519081900360200190f35b61063a336125cc565b61067857604051600160e51b62461bcd02815260040180806020018281038252602d815260200180615087602d913960400191505060405180910390fd5b6000828152600f6020526040902060016005820154600160a01b900460ff1660068111156106a257fe5b146106e157604051600160e51b62461bcd02815260040180806020018281038252602f815260200180615548602f913960400191505060405180910390fd5b80546001600160a01b031661072a57604051600160e51b62461bcd02815260040180806020018281038252602a8152602001806150b4602a913960400191505060405180910390fd5b6002810180546001600160a01b03191633179055426003820155606061074f846125fb565b905060006060610760868487612752565b9150915061076f868383612928565b505050505050565b6000828152600f6020526040902080546001600160a01b03166107ce57604051600160e51b62461bcd02815260040180806020018281038252602a8152602001806150b4602a913960400191505060405180910390fd5b60058101546107e690600160a01b900460ff16612b4c565b1561082557604051600160e51b62461bcd02815260040180806020018281038252602b81526020018061502b602b913960400191505060405180910390fd5b6000821161086757604051600160e51b62461bcd02815260040180806020018281038252602a81526020018061551e602a913960400191505060405180910390fd5b6108718333612ba4565b6108af57604051600160e51b62461bcd02815260040180806020018281038252602e815260200180615382602e913960400191505060405180910390fd5b600e54604080517f487c35800000000000000000000000000000000000000000000000000000000081523360048201526024810185905290516001600160a01b039092169163487c35809160448082019260009290919082900301818387803b15801561091b57600080fd5b505af115801561092f573d6000803e3d6000fd5b505050506005810154604080517f70d97c3400000000000000000000000000000000000000000000000000000000815233600482015290516001600160a01b03909216916370d97c34918591602480830192600092919082900301818588803b15801561099b57600080fd5b505af11580156109af573d6000803e3d6000fd5b505050505060606109bf846125fb565b90506000606061076086846109d2612bfb565b88612c01565b600a546001600160a01b031615610a2357604051600160e51b62461bcd02815260040180806020018281038252602b815260200180615357602b913960400191505060405180910390fd5b6001600160a01b038416610a6b57604051600160e51b62461bcd0281526004018080602001828103825260348152602001806153236034913960400191505060405180910390fd5b6001600160a01b038316610ab357604051600160e51b62461bcd02815260040180806020018281038252603b815260200180615417603b913960400191505060405180910390fd5b6001600160a01b038216610afb57604051600160e51b62461bcd0281526004018080602001828103825260428152602001806151f16042913960600191505060405180910390fd5b6000815111610b3e57604051600160e51b62461bcd02815260040180806020018281038252603e815260200180615292603e913960400191505060405180910390fd5b610b46614ecf565b610b4f82612d89565b6001805460ff19908116821790915581516002554260035560408083015160048054841691151591909117815560608401516006805490941690151517909255600d80546001600160a01b0319166001600160a01b03888116919091179182905582517f406b95c10000000000000000000000000000000000000000000000000000000081529251949550610c359491169263406b95c192808201926020929091829003018186803b158015610c0457600080fd5b505afa158015610c18573d6000803e3d6000fd5b505050506040513d6020811015610c2e57600080fd5b5051612dae565b600880546001600160a01b0319166001600160a01b038781169190911790915560208201511615610c6a578060200151610c6c565b845b600980546001600160a01b03199081166001600160a01b0393841617909155600a80549091168683161790556001600b55600d54604080517f1e081f0900000000000000000000000000000000000000000000000000000000815290519190921691631e081f09916004808301926020929190829003018186803b158015610cf357600080fd5b505afa158015610d07573d6000803e3d6000fd5b505050506040513d6020811015610d1d57600080fd5b5051600c55600d54604080517fd9e86f1d00000000000000000000000000000000000000000000000000000000815290516001600160a01b039092169163d9e86f1d91600480820192602092909190829003018186803b158015610d8057600080fd5b505afa158015610d94573d6000803e3d6000fd5b505050506040513d6020811015610daa57600080fd5b5051604080517f99733c7500000000000000000000000000000000000000000000000000000000815290516001600160a01b03909216916399733c75916004808201926020929091908290030181600087803b158015610e0957600080fd5b505af1158015610e1d573d6000803e3d6000fd5b505050506040513d6020811015610e3357600080fd5b5051600e80546001600160a01b0319166001600160a01b039283161790819055600a546040519183169216907f17082f533b4743d96d2bbde7b50cc0716cc7fd5f2c919bcf706233962d28e2d890600090a35050505050565b60045460ff16610ed057604051600160e51b62461bcd0281526004018080602001828103825260368152602001806153e16036913960400191505060405180910390fd5b6008546001600160a01b03163314610f1c57604051600160e51b62461bcd02815260040180806020018281038252603b8152602001806150de603b913960400191505060405180910390fd5b6001600160a01b03919091166000908152600560205260409020805460ff1916911515919091179055565b6000838152600f6020526040902080546001600160a01b0316610f9e57604051600160e51b62461bcd02815260040180806020018281038252602a8152602001806150b4602a913960400191505060405180910390fd5b6005810154610fb690600160a01b900460ff16612b4c565b15610ff557604051600160e51b62461bcd02815260040180806020018281038252602b81526020018061502b602b913960400191505060405180910390fd5b6001600160a01b03831661103d57604051600160e51b62461bcd0281526004018080602001828103825260318152602001806153b06031913960400191505060405180910390fd5b6000821161107f57604051600160e51b62461bcd02815260040180806020018281038252602a81526020018061551e602a913960400191505060405180910390fd5b6110898433612ba4565b6110c757604051600160e51b62461bcd02815260040180806020018281038252602e815260200180615382602e913960400191505060405180910390fd5b600e54604080517f3d4aa9a90000000000000000000000000000000000000000000000000000000081523360048201526001600160a01b0386811660248301526044820186905291519190921691633d4aa9a991606480830192600092919082900301818387803b15801561113b57600080fd5b505af115801561114f573d6000803e3d6000fd5b505050600582015461117591506001600160a01b0385811691168463ffffffff612df616565b6005810154604080517f810c0af80000000000000000000000000000000000000000000000000000000081523360048201526001600160a01b038681166024830152604482018690529151919092169163810c0af891606480830192600092919082900301818387803b1580156111eb57600080fd5b505af11580156111ff573d6000803e3d6000fd5b50505050606061120e856125fb565b90506000606061122087848888612c01565b9150915061122f878383612928565b50505050505050565b60015460ff1661127c57604051600160e51b62461bcd02815260040180806020018281038252603d815260200180614fee603d913960400191505060405180910390fd5b6008546001600160a01b031633146112c857604051600160e51b62461bcd02815260040180806020018281038252603e815260200180615254603e913960400191505060405180910390fd5b600c54156114da57600d54604080517fe755926000000000000000000000000000000000000000000000000000000000815290516000926001600160a01b03169163e7559260916004808301926020929190829003018186803b15801561132e57600080fd5b505afa158015611342573d6000803e3d6000fd5b505050506040513d602081101561135857600080fd5b5051600d5460408051600160e01b6323dc9e3702815290519293506001600160a01b0380851693639e281a9893909116916323dc9e37916004808301926020929190829003018186803b1580156113ae57600080fd5b505afa1580156113c2573d6000803e3d6000fd5b505050506040513d60208110156113d857600080fd5b5051600c546040805163ffffffff851660e01b81526001600160a01b039093166004840152602483019190915251604480830192600092919082900301818387803b15801561142657600080fd5b505af115801561143a573d6000803e3d6000fd5b5050600854600c54600d5460408051600160e01b6323dc9e3702815290516114d896506001600160a01b0394851695509293909116916323dc9e3791600480820192602092909190829003018186803b15801561149657600080fd5b505afa1580156114aa573d6000803e3d6000fd5b505050506040513d60208110156114c057600080fd5b50516001600160a01b0316919063ffffffff612f5816565b505b6001805460ff19169055565b6114ef33612fd8565b565b6114fa33611603565b61153857604051600160e51b62461bcd02815260040180806020018281038252603a815260200180615119603a913960400191505060405180910390fd5b6000838152600f6020526040902080546001600160a01b031661158f57604051600160e51b62461bcd02815260040180806020018281038252602a8152602001806150b4602a913960400191505060405180910390fd5b60058101546115a790600160a01b900460ff16612b4c565b156115e657604051600160e51b62461bcd02815260040180806020018281038252602b81526020018061502b602b913960400191505060405180910390fd5b60606115f1856125fb565b90506000606061122087848888613020565b6000611615818363ffffffff61316816565b92915050565b60065460ff1661165f57604051600160e51b62461bcd0281526004018080602001828103825260368152602001806154526036913960400191505060405180910390fd5b6008546001600160a01b031633146116ab57604051600160e51b62461bcd02815260040180806020018281038252603b815260200180615153603b913960400191505060405180910390fd5b6001600160a01b03919091166000908152600760205260409020805460ff1916911515919091179055565b600e546001600160a01b031690565b6000838152600f6020526040902080546001600160a01b031661173c57604051600160e51b62461bcd02815260040180806020018281038252602a8152602001806150b4602a913960400191505060405180910390fd5b600581015461175490600160a01b900460ff16612b4c565b1561179357604051600160e51b62461bcd02815260040180806020018281038252602b81526020018061502b602b913960400191505060405180910390fd5b6001600160a01b0383166117db57604051600160e51b62461bcd0281526004018080602001828103825260318152602001806153b06031913960400191505060405180910390fd5b6000821161181d57604051600160e51b62461bcd02815260040180806020018281038252602a81526020018061551e602a913960400191505060405180910390fd5b6118278433612ba4565b61186557604051600160e51b62461bcd0281526004018080602001828103825260318152602001806150566031913960400191505060405180910390fd5b6005810154604080517f3d4aa9a90000000000000000000000000000000000000000000000000000000081523360048201526001600160a01b0386811660248301526044820186905291519190921691633d4aa9a991606480830192600092919082900301818387803b1580156118db57600080fd5b505af11580156118ef573d6000803e3d6000fd5b5050600e5461191392506001600160a01b038681169250168463ffffffff612df616565b600e54604080517f810c0af80000000000000000000000000000000000000000000000000000000081523360048201526001600160a01b038681166024830152604482018690529151919092169163810c0af891606480830192600092919082900301818387803b15801561198757600080fd5b505af115801561199b573d6000803e3d6000fd5b5050505060606119aa856125fb565b905060006060611220878488886131d2565b6119c533611603565b611a0357604051600160e51b62461bcd02815260040180806020018281038252603a815260200180615119603a913960400191505060405180910390fd5b611a0c81612dae565b50565b6000828152600f6020526040902080546001600160a01b0316611a6657604051600160e51b62461bcd02815260040180806020018281038252602a8152602001806150b4602a913960400191505060405180910390fd5b6005810154611a7e90600160a01b900460ff16612b4c565b15611abd57604051600160e51b62461bcd02815260040180806020018281038252602b81526020018061502b602b913960400191505060405180910390fd5b60008211611aff57604051600160e51b62461bcd02815260040180806020018281038252602a81526020018061551e602a913960400191505060405180910390fd5b611b098333612ba4565b611b4757604051600160e51b62461bcd0281526004018080602001828103825260318152602001806150566031913960400191505060405180910390fd5b6005810154604080517f487c35800000000000000000000000000000000000000000000000000000000081523360048201526024810185905290516001600160a01b039092169163487c35809160448082019260009290919082900301818387803b158015611bb557600080fd5b505af1158015611bc9573d6000803e3d6000fd5b5050600e54604080517f70d97c3400000000000000000000000000000000000000000000000000000000815233600482015290516001600160a01b0390921693506370d97c3492508591602480830192600092919082900301818588803b158015611c3357600080fd5b505af1158015611c47573d6000803e3d6000fd5b50505050506060611c57846125fb565b9050600060606107608684611c6a612bfb565b886131d2565b6000838152600f6020526040902080546001600160a01b0316611cc757604051600160e51b62461bcd02815260040180806020018281038252602a8152602001806150b4602a913960400191505060405180910390fd5b6005810154611cdf90600160a01b900460ff16612b4c565b15611d1e57604051600160e51b62461bcd02815260040180806020018281038252602b81526020018061502b602b913960400191505060405180910390fd5b6060611d29856125fb565b9050600060606112208784888861326c565b6000611d45613302565b611d8357604051600160e51b62461bcd0281526004018080602001828103825260318152602001806152d06031913960400191505060405180910390fd5b611d8c3361332b565b611dca57604051600160e51b62461bcd02815260040180806020018281038252602d81526020018061518e602d913960400191505060405180910390fd5b600d5460408051600160e01b635a36366702815290516000926001600160a01b031691635a363667916004808301926020929190829003018186803b158015611e1257600080fd5b505afa158015611e26573d6000803e3d6000fd5b505050506040513d6020811015611e3c57600080fd5b505111156122e857600e54600d5460408051600160e01b6323dc9e3702815290516001600160a01b0393841693633d4aa9a99333939116916323dc9e3791600480820192602092909190829003018186803b158015611e9a57600080fd5b505afa158015611eae573d6000803e3d6000fd5b505050506040513d6020811015611ec457600080fd5b5051600d5460408051600160e01b635a36366702815290516001600160a01b0390921691635a36366791600480820192602092909190829003018186803b158015611f0e57600080fd5b505afa158015611f22573d6000803e3d6000fd5b505050506040513d6020811015611f3857600080fd5b50516040805163ffffffff861660e01b81526001600160a01b03948516600482015292909316602483015260448201529051606480830192600092919082900301818387803b158015611f8a57600080fd5b505af1158015611f9e573d6000803e3d6000fd5b5050505061211d600d60009054906101000a90046001600160a01b03166001600160a01b031663e75592606040518163ffffffff1660e01b815260040160206040518083038186803b158015611ff357600080fd5b505afa158015612007573d6000803e3d6000fd5b505050506040513d602081101561201d57600080fd5b5051600d5460408051600160e01b635a36366702815290516001600160a01b0390921691635a36366791600480820192602092909190829003018186803b15801561206757600080fd5b505afa15801561207b573d6000803e3d6000fd5b505050506040513d602081101561209157600080fd5b5051600d5460408051600160e01b6323dc9e3702815290516001600160a01b03909216916323dc9e3791600480820192602092909190829003018186803b1580156120db57600080fd5b505afa1580156120ef573d6000803e3d6000fd5b505050506040513d602081101561210557600080fd5b50516001600160a01b0316919063ffffffff612df616565b600d60009054906101000a90046001600160a01b03166001600160a01b031663e75592606040518163ffffffff1660e01b815260040160206040518083038186803b15801561216b57600080fd5b505afa15801561217f573d6000803e3d6000fd5b505050506040513d602081101561219557600080fd5b5051600d5460408051600160e01b6323dc9e3702815290516001600160a01b039384169363338b5dea9316916323dc9e37916004808301926020929190829003018186803b1580156121e657600080fd5b505afa1580156121fa573d6000803e3d6000fd5b505050506040513d602081101561221057600080fd5b5051600d5460408051600160e01b635a36366702815290516001600160a01b0390921691635a36366791600480820192602092909190829003018186803b15801561225a57600080fd5b505afa15801561226e573d6000803e3d6000fd5b505050506040513d602081101561228457600080fd5b50516040805163ffffffff851660e01b81526001600160a01b039093166004840152602483019190915251604480830192600092919082900301818387803b1580156122cf57600080fd5b505af11580156122e3573d6000803e3d6000fd5b505050505b600b805460018101909155600d54604080517fd9e86f1d00000000000000000000000000000000000000000000000000000000815290516000926001600160a01b03169163d9e86f1d916004808301926020929190829003018186803b15801561235157600080fd5b505afa158015612365573d6000803e3d6000fd5b505050506040513d602081101561237b57600080fd5b5051604080517f0ae60b6000000000000000000000000000000000000000000000000000000000815290516001600160a01b0390921691630ae60b60916004808201926020929091908290030181600087803b1580156123da57600080fd5b505af11580156123ee573d6000803e3d6000fd5b505050506040513d602081101561240457600080fd5b50516040805160e0810182523381524260208083019190915260008284018190526060830152600d548351600160e01b635a3636670281529351949550919360808501936001600160a01b0390931692635a363667926004808301939192829003018186803b15801561247657600080fd5b505afa15801561248a573d6000803e3d6000fd5b505050506040513d60208110156124a057600080fd5b505181526001600160a01b0383166020820152604001600090526000838152600f6020908152604091829020835181546001600160a01b03199081166001600160a01b03928316178355928501516001830155928401516002820180548416918516919091179055606084015160038201556080840151600482015560a084015160058201805490931693169290921780825560c0840151919074ff00000000000000000000000000000000000000001916600160a01b83600681111561256357fe5b02179055509050506060612576836125fb565b905061258383828761335a565b6000848152600f60205260409020600501805474ff00000000000000000000000000000000000000001916600160a01b8360068111156125bf57fe5b0217905550505050919050565b60065460009060ff1615806116155750506001600160a01b031660009081526007602052604090205460ff1690565b6000818152600f60205260409020606090612614614ef6565b60408051610160810182528581526008546001600160a01b03908116602083015260095481169282019290925283548216606082015260018401546080820152600284015490911660a0820152600383015460c0820152600583015460e0820190600160a01b900460ff16600681111561268a57fe5b60ff16815260058401546001600160a01b0390811660208084019190915233604080850191909152600d5481517f2bc51c6d0000000000000000000000000000000000000000000000000000000081529151606090950194931692632bc51c6d92600480840193919291829003018186803b15801561270857600080fd5b505afa15801561271c573d6000803e3d6000fd5b505050506040513d602081101561273257600080fd5b50516001600160a01b03169052905061274a816135f9565b949350505050565b60008381526010602090815260408083205481517fc8200520000000000000000000000000000000000000000000000000000000008152600481019283528651604482015286516060946001600160a01b039093169363c820052093899389938392602483019260640191908701908083838e5b838110156127de5781810151838201526020016127c6565b50505050905090810190601f16801561280b5780820380516001836020036101000a031916815260200191505b50838103825284518152845160209182019186019080838360005b8381101561283e578181015183820152602001612826565b50505050905090810190601f16801561286b5780820380516001836020036101000a031916815260200191505b50945050505050600060405180830381600087803b15801561288c57600080fd5b505af11580156128a0573d6000803e3d6000fd5b505050506040513d6000823e601f3d908101601f1916820160409081528110156128c957600080fd5b8151602083018051919392830192916401000000008111156128ea57600080fd5b820160208101848111156128fd57600080fd5b815164010000000081118282018710171561291757600080fd5b50949a909950975050505050505050565b6000838152600f6020526040902060058101805484919074ff00000000000000000000000000000000000000001916600160a01b83600681111561296857fe5b021790555061297683612b4c565b8015612986575060008160040154115b15612b3c57600d60009054906101000a90046001600160a01b03166001600160a01b031663e75592606040518163ffffffff1660e01b815260040160206040518083038186803b1580156129d957600080fd5b505afa1580156129ed573d6000803e3d6000fd5b505050506040513d6020811015612a0357600080fd5b5051600d5460408051600160e01b6323dc9e3702815290516001600160a01b0393841693639e281a989316916323dc9e37916004808301926020929190829003018186803b158015612a5457600080fd5b505afa158015612a68573d6000803e3d6000fd5b505050506040513d6020811015612a7e57600080fd5b50516004808501546040805163ffffffff861660e01b81526001600160a01b0390941692840192909252602483015251604480830192600092919082900301818387803b158015612ace57600080fd5b505af1158015612ae2573d6000803e3d6000fd5b50508254600480850154600d5460408051600160e01b6323dc9e370281529051612b3c97506001600160a01b0395861696509294909116926323dc9e37928282019260209290829003018186803b15801561149657600080fd5b612b468483613649565b50505050565b60006003826006811115612b5c57fe5b1480612b7357506004826006811115612b7157fe5b145b80612b8957506005826006811115612b8757fe5b145b8061161557506006826006811115612b9d57fe5b1492915050565b6000828152600f6020526040812080546001600160a01b0384811691161480612bdc575060028101546001600160a01b038481169116145b8061274a57506009546001600160a01b03848116911614949350505050565b60001990565b60008481526010602090815260408083205490517fa674326b0000000000000000000000000000000000000000000000000000000081526001600160a01b038681166024830152604482018690526060600483018181528951606485015289519195929094169363a674326b938a938a938a93928392608490910191908701908083838e5b83811015612c9e578181015183820152602001612c86565b50505050905090810190601f168015612ccb5780820380516001836020036101000a031916815260200191505b50945050505050600060405180830381600087803b158015612cec57600080fd5b505af1158015612d00573d6000803e3d6000fd5b505050506040513d6000823e601f3d908101601f191682016040908152811015612d2957600080fd5b815160208301805191939283019291640100000000811115612d4a57600080fd5b82016020810184811115612d5d57600080fd5b8151640100000000811182820187101715612d7757600080fd5b50949b909a5098505050505050505050565b612d91614ecf565b612d99614ecf565b612da66020848551613b2f565b509392505050565b612dbf60008263ffffffff613c7e16565b6040516001600160a01b038216907f9ddc85aace404f3f4847945cd853a70355e2f1dc7f6a75b7951259bcfa97c22b90600090a250565b801580612e955750604080517fdd62ed3e0000000000000000000000000000000000000000000000000000000081523060048201526001600160a01b03848116602483015291519185169163dd62ed3e91604480820192602092909190829003018186803b158015612e6757600080fd5b505afa158015612e7b573d6000803e3d6000fd5b505050506040513d6020811015612e9157600080fd5b5051155b612ed357604051600160e51b62461bcd0281526004018080602001828103825260368152602001806154e86036913960400191505060405180910390fd5b604080516001600160a01b038416602482015260448082018490528251808303909101815260649091019091526020810180517bffffffffffffffffffffffffffffffffffffffffffffffffffffffff167f095ea7b300000000000000000000000000000000000000000000000000000000179052612f53908490613d02565b505050565b604080516001600160a01b038416602482015260448082018490528251808303909101815260649091019091526020810180517bffffffffffffffffffffffffffffffffffffffffffffffffffffffff167fa9059cbb00000000000000000000000000000000000000000000000000000000179052612f53908490613d02565b612fe960008263ffffffff613ec316565b6040516001600160a01b038216907f708c3750abf4f634a44a83e054e242d74eca9179f6c36780e5f62d1bcda31ba090600090a250565b60008481526010602090815260408083205490517fe3e41ef10000000000000000000000000000000000000000000000000000000081526024810186905260606004820181815288516064840152885191946001600160a01b039094169363e3e41ef1938a938a938a939092839260448201926084909201918801908083838f5b838110156130b95781810151838201526020016130a1565b50505050905090810190601f1680156130e65780820380516001836020036101000a031916815260200191505b50838103825284518152845160209182019186019080838360005b83811015613119578181015183820152602001613101565b50505050905090810190601f1680156131465780820380516001836020036101000a031916815260200191505b5095505050505050600060405180830381600087803b158015612cec57600080fd5b60006001600160a01b0382166131b257604051600160e51b62461bcd0281526004018080602001828103825260228152602001806153016022913960400191505060405180910390fd5b506001600160a01b03166000908152602091909152604090205460ff1690565b60008481526010602090815260408083205490517f488d61bc0000000000000000000000000000000000000000000000000000000081526001600160a01b038681166024830152604482018690526060600483018181528951606485015289519195929094169363488d61bc938a938a938a93928392608490910191908701908083838e8315612c9e578181015183820152602001612c86565b60008481526010602090815260408083205490517f8ddd8d380000000000000000000000000000000000000000000000000000000081526024810186905260606004820181815288516064840152885191946001600160a01b0390941693638ddd8d38938a938a938a939092839260448201926084909201918801908083838f83156130b95781810151838201526020016130a1565b60015460009060ff1680156133265750600254158061332657504260035460025401115b905090565b60045460009060ff1615806116155750506001600160a01b031660009081526005602052604090205460ff1690565b600080600d60009054906101000a90046001600160a01b03166001600160a01b031663be5405d26040518163ffffffff1660e01b815260040160206040518083038186803b1580156133ab57600080fd5b505afa1580156133bf573d6000803e3d6000fd5b505050506040513d60208110156133d557600080fd5b5051600a54604080517f1a9c5dab0000000000000000000000000000000000000000000000000000000081526001600160a01b039283166004820152306024820152905192935090831691631a9c5dab916044808201926020929091908290030181600087803b15801561344857600080fd5b505af115801561345c573d6000803e3d6000fd5b505050506040513d602081101561347257600080fd5b5051600086815260106020908152604080832080546001600160a01b0319166001600160a01b03958616179081905581517fcdfa837a00000000000000000000000000000000000000000000000000000000815260048101928352895160448201528951919095169463cdfa837a948a948a949384936024810193606490910192880191908190849084905b838110156135165781810151838201526020016134fe565b50505050905090810190601f1680156135435780820380516001836020036101000a031916815260200191505b50838103825284518152845160209182019186019080838360005b8381101561357657818101518382015260200161355e565b50505050905090810190601f1680156135a35780820380516001836020036101000a031916815260200191505b50945050505050602060405180830381600087803b1580156135c457600080fd5b505af11580156135d8573d6000803e3d6000fd5b505050506040513d60208110156135ee57600080fd5b505195945050505050565b60608061360583613f2d565b6040519080825280601f01601f19166020018201604052801561362f576020820181803883390190505b509050600061364084602084613f34565b82525092915050565b613651614f52565b61365a826140b6565b6000848152600f602052604081206005810154929350916001600160a01b0316905b83515181101561076f5761368e614f65565b845180518390811061369c57fe5b602002602001015190506136b4878260200151612ba4565b6136f257604051600160e51b62461bcd0281526004018080602001828103825260368152602001806151bb6036913960400191505060405180910390fd5b613700878260400151612ba4565b61373e57604051600160e51b62461bcd0281526004018080602001828103825260368152602001806154886036913960400191505060405180910390fd5b8051156139dd5761374d612bfb565b6001600160a01b031681606001516001600160a01b0316141561387857826001600160a01b031663487c3580826020015183608001516040518363ffffffff1660e01b815260040180836001600160a01b03166001600160a01b0316815260200182815260200192505050600060405180830381600087803b1580156137d257600080fd5b505af11580156137e6573d6000803e3d6000fd5b5050600e54608084015160408086015181517f70d97c340000000000000000000000000000000000000000000000000000000081526001600160a01b0391821660048201529151931694506370d97c3493509091602480830192600092919082900301818588803b15801561385a57600080fd5b505af115801561386e573d6000803e3d6000fd5b50505050506139d8565b602081015160608201516080830151604080517f3d4aa9a90000000000000000000000000000000000000000000000000000000081526001600160a01b039485166004820152928416602484015260448301919091525191851691633d4aa9a99160648082019260009290919082900301818387803b1580156138fa57600080fd5b505af115801561390e573d6000803e3d6000fd5b5050600e546080840151606085015161393e94506001600160a01b0390811693509091169063ffffffff612df616565b600e546040808301516060840151608085015183517f810c0af80000000000000000000000000000000000000000000000000000000081526001600160a01b03938416600482015291831660248301526044820152915192169163810c0af89160648082019260009290919082900301818387803b1580156139bf57600080fd5b505af11580156139d3573d6000803e3d6000fd5b505050505b613b26565b6139e5612bfb565b6001600160a01b031681606001516001600160a01b03161415613a81576020810151604080830151608084015182517fbeabacc80000000000000000000000000000000000000000000000000000000081526001600160a01b0394851660048201529184166024830152604482015290519185169163beabacc89160648082019260009290919082900301818387803b1580156139bf57600080fd5b60208101516040808301516060840151608085015183517f2c54de4f0000000000000000000000000000000000000000000000000000000081526001600160a01b039586166004820152928516602484015290841660448301526064820152905191851691632c54de4f9160848082019260009290919082900301818387803b158015613b0d57600080fd5b505af1158015613b21573d6000803e3d6000fd5b505050505b5060010161367c565b613b37614ecf565b6000613b41614ecf565b613b49614f93565b6000808089805b898201811015613c6c57613b64818c6140d3565b9196509450925082016001851415613b8857613b82818c898961410e565b01613c67565b8460021415613b9d57613b82818c898961416d565b8460031415613bb257613b82818c89896141bb565b8460041415613bc757613b82818c8989614202565b6001846005811115613bd557fe5b1415613bef576000613be7828d614249565b929092019150505b6005846005811115613bfd57fe5b1415613c17576000613c0f828d61426a565b929092019150505b6000846005811115613c2557fe5b1415613c3f576000613c37828d61427c565b929092019150505b6002846005811115613c4d57fe5b1415613c67576000613c5f828d61430e565b929092019150505b613b50565b50949a97995096975050505050505050565b613c888282613168565b15613cdd5760408051600160e51b62461bcd02815260206004820152601f60248201527f526f6c65733a206163636f756e7420616c72656164792068617320726f6c6500604482015290519081900360640190fd5b6001600160a01b0316600090815260209190915260409020805460ff19166001179055565b613d14826001600160a01b03166143d5565b613d685760408051600160e51b62461bcd02815260206004820152601f60248201527f5361666545524332303a2063616c6c20746f206e6f6e2d636f6e747261637400604482015290519081900360640190fd5b60006060836001600160a01b0316836040518082805190602001908083835b60208310613da65780518252601f199092019160209182019101613d87565b6001836020036101000a0380198251168184511680821785525050505050509050019150506000604051808303816000865af19150503d8060008114613e08576040519150601f19603f3d011682016040523d82523d6000602084013e613e0d565b606091505b509150915081613e675760408051600160e51b62461bcd02815260206004820181905260248201527f5361666545524332303a206c6f772d6c6576656c2063616c6c206661696c6564604482015290519081900360640190fd5b805115612b4657808060200190516020811015613e8357600080fd5b5051612b4657604051600160e51b62461bcd02815260040180806020018281038252602a8152602001806154be602a913960400191505060405180910390fd5b613ecd8282613168565b613f0b57604051600160e51b62461bcd0281526004018080602001828103825260218152602001806152336021913960400191505060405180910390fd5b6001600160a01b0316600090815260209190915260409020805460ff19169055565b5061011990565b60008280613f4660016002838761440c565b8651910190613f56908286614422565b01613f64600280838761440c565b81019050613f7786602001518286614431565b01613f8660036002838761440c565b81019050613f9986604001518286614431565b01613fa860046002838761440c565b81019050613fbb86606001518286614431565b01613fca60056002838761440c565b81019050613fdd86608001518286614422565b01613fec60066002838761440c565b81019050613fff8660a001518286614431565b0161400e60076002838761440c565b810190506140218660c001518286614422565b0161403060086002838761440c565b810190506140438660e001518286614449565b0161405260096002838761440c565b810190506140668661010001518286614431565b01614075600a6002838761440c565b810190506140898661012001518286614431565b01614098600b6002838761440c565b810190506140ac8661014001518286614431565b0103949350505050565b6140be614f52565b6140c6614f52565b612da6602084855161445b565b60008060008060006140e5878761427c565b9150915060008260071660058111156140fa57fe5b600890930498929750909550909350505050565b600080600061411d8787614684565b9150915061412a85614696565b1561414457600184815b6020020180519091019052614163565b81855260208401511561416357600184815b6020020180519190910390525b9695505050505050565b600080600061417c878761469a565b9150915061418985614696565b15614198576001846002614134565b6001600160a01b0382166020860152604084015115614163576001846002614156565b60008060006141ca87876146be565b915091506141d785614696565b156141e6576001846003614134565b8115156040860152606084015115614163576001846003614156565b600080600061421187876146be565b9150915061421e85614696565b1561422d576001846004614134565b8115156060860152608084015115614163576001846004614156565b60008060008061425b868660086146f5565b909450925050505b9250929050565b60008060008061425b868660046146f5565b80519181019160009081908190819060200160805b60808116608014156143015786880382116142dc57600160e51b62461bcd026000526020600452600f602452600160881b6e6c656e677468206f766572666c6f770260445260536000fd5b875160001a905080607f16836007021b84179350600183019250600188019750614291565b5091969095509350505050565b6060600080600061431f868661427c565b915091506060826040519080825280601f01601f191660200182016040528015614350576020820181803883390190505b508651978701830197909150602090810190820160005b858110156143c557888a0383116143ae57600160e51b62461bcd026000526020600452600f602452600160881b6e6c656e677468206f766572666c6f770260445260536000fd5b895160001a82536001998a01999182019101614367565b5091955050500190509250929050565b6000813f7fc5d2460186f7233c927e7db2dcc703c0e500b653ca82273b7bfad8045d85a470811580159061274a5750141592915050565b600060088502600785161761416381858561477b565b600061274a84602085856147be565b600061274a846001600160a01b0316601485856147be565b600061274a8460ff16600185856147be565b614463614f52565b600061446d614f52565b614475614fb1565b6000808089805b89820181101561456057614490818c6140d3565b91965094509250820160018514156144bb576144b5818c6144af6147f1565b896147ff565b0161455b565b60018460058111156144c957fe5b14156144e35760006144db828d614249565b929092019150505b60058460058111156144f157fe5b141561450b576000614503828d61426a565b929092019150505b600084600581111561451957fe5b141561453357600061452b828d61427c565b929092019150505b600284600581111561454157fe5b141561455b576000614553828d61430e565b929092019150505b61447c565b508085600160200201516040519080825280602002602001820160405280156145a357816020015b614590614f65565b8152602001906001900390816145885790505b5087525b898201811015613c6c576145bb818c6140d3565b91965094509250820160018514156145df576145d9818c89896147ff565b0161467f565b60018460058111156145ed57fe5b14156146075760006145ff828d614249565b929092019150505b600584600581111561461557fe5b141561462f576000614627828d61426a565b929092019150505b600084600581111561463d57fe5b141561465757600061464f828d61427c565b929092019150505b600284600581111561466557fe5b141561467f576000614677828d61430e565b929092019150505b6145a7565b60008060008061425b60208787614867565b1590565b6000806000806146ac60148787614886565b60609190911c97909650945050505050565b6000806000806146ce868661427c565b9150915081600014156146e8576000935091506142639050565b6001969095509350505050565b81519282019260009081908190602001815b8581101561476d57868803821161474e57600160e51b62461bcd026000526020600452600f602452600160881b6e6c656e677468206f766572666c6f770260445260536000fd5b875160001a816008021b83179250600188019750600181019050614707565b509096939550929350505050565b600080828401607f86165b600787901c156147ae578060801782535060079590951c9460019182019101607f8616614786565b8082535050600101949350505050565b6003820191600090816147d387868689614a0a565b9485019490506147e4818386614a48565b5050909203949350505050565b6147f9614f52565b50600090565b6000614809614f65565b60006148158787614a89565b9150915061482285614696565b156148305760018481614134565b845160208501518151849291810390811061484757fe5b602090810291909101810191909152840151156141635760018481614156565b600080600080614878878787614acb565b909890975095505050505050565b600080600080614896868661427c565b90925090506020600860ff60038a01168484011115614961576040518060400160405280600f8152602001600160881b6e6c656e677468206f766572666c6f7702815250604051600160e51b62461bcd0281526004018080602001828103825283818151815260200191508051906020019080838360005b8381101561492657818101518382015260200161490e565b50505050905090810190601f1680156149535780820380516001836020036101000a031916815260200191505b509250505060405180910390fd5b6003880197506000602088510189106040518060400160405280600f8152602001600160881b6e6c656e677468206f766572666c6f7702815250906149ea57604051600160e51b62461bcd02815260206004820181815283516024840152835190928392604490910191908501908083836000831561492657818101518382015260200161490e565b505087870151918490036002010290811c901b9350019050935093915050565b600080614a178684614c1b565b9050848401815b8015614a3c5787816020031a82536001919091019060001901614a1e565b50909695505050505050565b600082614a5960028601828561477b565b84019350614a6b60016002868661440c565b84019350614a7a85858561477b565b90930192830390509392505050565b614a91614f65565b6000838180614aa0838761427c565b915091508083019250614ab1614f65565b614abc848885614c59565b50955050019150509250929050565b6000806000806000614add878761427c565b915091508760030160ff168183011115614b6157604080518082018252600f8152600160881b6e6c656e677468206f766572666c6f770260208083019182529251600160e51b62461bcd028152600481019384528251602482015282519293928392604490920191908083836000831561492657818101518382015260200161490e565b600387019650602086510187106040518060400160405280600f8152602001600160881b6e6c656e677468206f766572666c6f770281525090614be857604051600160e51b62461bcd02815260206004820181815283516024840152835190928392604490910191908501908083836000831561492657818101518382015260200161490e565b5086860151925060011982015b6020811015614c0d5761010084049350600101614bf5565b509197910195509350505050565b600060ff825b600719600882020182901b8516158015614c3b5750600081115b15614c495760001901614c21565b8061274a57506001949350505050565b614c61614f65565b6000614c6b614f65565b614c73614fcf565b6000808089805b898201811015613c6c57614c8e818c6140d3565b9196509450925082016001851415614cb257614cac818c8989614dab565b01614da6565b8460021415614cc757614cac818c898961416d565b8460031415614cdc57614cac818c8989614ded565b8460041415614cf157614cac818c8989614e3b565b8460051415614d0657614cac818c8989614e89565b6001846005811115614d1457fe5b1415614d2e576000614d26828d614249565b929092019150505b6005846005811115614d3c57fe5b1415614d56576000614d4e828d61426a565b929092019150505b6000846005811115614d6457fe5b1415614d7e576000614d76828d61427c565b929092019150505b6002846005811115614d8c57fe5b1415614da6576000614d9e828d61430e565b929092019150505b614c7a565b6000806000614dba87876146be565b91509150614dc785614696565b15614dd55760018481614134565b81151585526020840151156141635760018481614156565b6000806000614dfc878761469a565b91509150614e0985614696565b15614e18576001846003614134565b6001600160a01b0382166040860152606084015115614163576001846003614156565b6000806000614e4a878761469a565b91509150614e5785614696565b15614e66576001846004614134565b6001600160a01b0382166060860152608084015115614163576001846004614156565b6000806000614e988787614684565b91509150614ea585614696565b15614eb4576001846005614134565b6080850182905260a084015115614163576001846005614156565b60408051608081018252600080825260208201819052918101829052606081019190915290565b6040805161016081018252600080825260208201819052918101829052606081018290526080810182905260a0810182905260c0810182905260e081018290526101008101829052610120810182905261014081019190915290565b6040518060200160405280606081525090565b6040805160a08101825260008082526020820181905291810182905260608101829052608081019190915290565b6040518060a001604052806005906020820280388339509192915050565b60405180604001604052806002906020820280388339509192915050565b6040518060c00160405280600690602082028038833950919291505056fe496e737472756d656e744d616e61676572426173653a2054686520696e737472756d656e7420697320616c72656164792064656163746976617465642e496e737472756d656e744d616e61676572426173653a2049737375616e6365207465726d696e617465642e496e737472756d656e744d616e61676572426173653a205769746864726177616c206973206e6f7420616c6c6f7765642e496e737472756d656e744d616e61676572426173653a204e6f7420616e20656c696769626c652074616b65722e496e737472756d656e744d616e61676572426173653a2049737375616e6365206e6f742065786973742e496e737472756d656e744d616e61676572426173653a204f6e6c79204653502063616e20757064617465206d616b65722077686974656c6973742e54696d65724f7261636c65526f6c653a2063616c6c657220646f6573206e6f742068617665207468652054696d65724f7261636c6520726f6c65496e737472756d656e744d616e61676572426173653a204f6e6c79204653502063616e207570646174652074616b65722077686974656c6973742e496e737472756d656e744d616e61676572426173653a204e6f7420616e20656c696769626c65206d616b65722e496e737472756d656e744d616e61676572426173653a205472616e7366657220736f75726365206973206e6f7420616c6c6f7765642e496e737472756d656e744d616e61676572426173653a20496e737472756d656e7420436f6e6669672061646472657373206d7573742062652070726f76696465642e526f6c65733a206163636f756e7420646f6573206e6f74206861766520726f6c65496e737472756d656e744d616e61676572426173653a204f6e6c79204653502063616e20646561637469766174652074686520696e737472756d656e742e496e737472756d656e744d616e61676572426173653a20496e737472756d656e7420706172616d6574657273206d7573742062652070726f76696465642e496e737472756d656e744d616e61676572426173653a20496e737472756d656e742069732064656163746976617465642e526f6c65733a206163636f756e7420697320746865207a65726f2061646472657373496e737472756d656e744d616e61676572426173653a204653502061646472657373206d7573742062652070726f76696465642e496e737472756d656e744d616e61676572426173653a20416c726561647920696e697469616c697a65642e496e737472756d656e744d616e61676572426173653a204465706f736974206973206e6f7420616c6c6f7765642e496e737472756d656e744d616e61676572426173653a20546f6b656e2061646472657373206d757374206265207365742e496e737472756d656e744d616e61676572426173653a204d616b65722077686974656c697374206973206e6f7420656e61626c65642e496e737472756d656e744d616e61676572426173653a20496e737472756d656e742061646472657373206d7573742062652070726f76696465642e496e737472756d656e744d616e61676572426173653a2054616b65722077686974656c697374206973206e6f7420656e61626c65642e496e737472756d656e744d616e61676572426173653a205472616e7366657220746172676574206973206e6f7420616c6c6f7765642e5361666545524332303a204552433230206f7065726174696f6e20646964206e6f7420737563636565645361666545524332303a20617070726f76652066726f6d206e6f6e2d7a65726f20746f206e6f6e2d7a65726f20616c6c6f77616e6365496e737472756d656e744d616e61676572426173653a20416d6f756e74206d757374206265207365742e496e737472756d656e744d616e61676572426173653a2049737375616e6365206e6f7420656e6761676561626c652ea165627a7a723058207078c497c8c97b529c751147131aa97a2a9d4c3aea7ca8a2a20868f35edba4e10029526f6c65733a206163636f756e7420697320746865207a65726f2061646472657373",
  "source": "pragma solidity ^0.5.0;\n\nimport \"../../lib/proxy/ProxyFactoryInterface.sol\";\nimport \"../InstrumentManagerBase.sol\";\nimport \"../InstrumentBase.sol\";\nimport \"./InstrumentV3.sol\";\n\n/**\n * @title Instrument Manager for Instrument v3.\n * A storage proxy is created for each issuance.\n */\ncontract InstrumentV3Manager is InstrumentManagerBase {\n\n    // Mapping: Issuance Id => Issuance Proxy contract address\n    mapping(uint256 => address) private _issuanceProxies;\n\n    /**\n     * @dev Instrument type-specific issuance creation processing.\n     * @param issuanceId ID of the issuance.\n     * @param makerParameters The custom parameters to the newly created issuance\n     * @param issuanceParametersData Issuance Parameters.\n     */\n    function _processCreateIssuance(uint256 issuanceId, bytes memory issuanceParametersData, bytes memory makerParameters) internal\n        returns (InstrumentBase.IssuanceStates updatedState) {\n\n        // Create an AdminOnlyUpgradeabilityProxy for the new issuance\n        // Current Instrument Manager is the proxy admin for this proxy, and only the current\n        // Instrument Manager can call fallback on the proxy.\n        ProxyFactoryInterface proxyFactory = ProxyFactoryInterface(_instrumentConfig.proxyFactoryAddress());\n        _issuanceProxies[issuanceId] = proxyFactory.createAdminOnlyUpgradeabilityProxy(_instrumentAddress, address(this));\n\n        updatedState = InstrumentV3(_issuanceProxies[issuanceId]).createIssuance(issuanceParametersData, makerParameters);\n    }\n\n    /**\n     * @dev Instrument type-specific issuance engage processing.\n     * @param issuanceId ID of the issuance.\n     * @param issuanceParametersData Issuance Parameters.\n     * @param takerParameters The custom parameters to the new engagement\n     */\n    function _processEngageIssuance(uint256 issuanceId, bytes memory issuanceParametersData, bytes memory takerParameters) internal\n        returns (InstrumentBase.IssuanceStates updatedState, bytes memory transfersData) {\n\n        (updatedState, transfersData) = InstrumentV3(_issuanceProxies[issuanceId]).engageIssuance(issuanceParametersData, takerParameters);\n    }\n\n    /**\n     * @dev Instrument type-specific issuance ERC20 token deposit processing.\n     * Note: This method is called after deposit is complete, so that the Escrow reflects the balance after deposit.\n     * @param issuanceId ID of the issuance.\n     * @param issuanceParametersData Issuance Parameters.\n     * @param tokenAddress The address of the ERC20 token to deposit.\n     * @param amount The amount of ERC20 token to deposit.\n     */\n    function _processTokenDeposit(uint256 issuanceId, bytes memory issuanceParametersData, address tokenAddress, uint256 amount)\n        internal returns (InstrumentBase.IssuanceStates updatedState, bytes memory transfersData) {\n\n        (updatedState, transfersData) = InstrumentV3(_issuanceProxies[issuanceId]).processTokenDeposit(\n            issuanceParametersData, tokenAddress, amount);\n    }\n\n    /**\n     * @dev Instrument type-specific issuance ERC20 withdraw processing.\n     * Note: This method is called after withdraw is complete, so that the Escrow reflects the balance after withdraw.\n     * @param issuanceId ID of the issuance.\n     * @param issuanceParametersData Issuance Parameters.\n     * @param tokenAddress The address of the ERC20 token to withdraw.\n     * @param amount The amount of ERC20 token to withdraw.\n     */\n    function _processTokenWithdraw(uint256 issuanceId, bytes memory issuanceParametersData, address tokenAddress, uint256 amount)\n        internal returns (InstrumentBase.IssuanceStates updatedState, bytes memory transfersData) {\n\n        (updatedState, transfersData) = InstrumentV3(_issuanceProxies[issuanceId]).processTokenWithdraw(\n            issuanceParametersData, tokenAddress, amount);\n    }\n\n    /**\n     * @dev Instrument type-specific custom event processing.\n     * @param issuanceId ID of the issuance.\n     * @param issuanceParametersData Issuance Parameters.\n     * @param eventName The name of the custom event.\n     * @param eventPayload The custom parameters to the custom event\n     */\n    function _processCustomEvent(uint256 issuanceId, bytes memory issuanceParametersData, bytes32 eventName, bytes memory eventPayload)\n        internal returns (InstrumentBase.IssuanceStates updatedState, bytes memory transfersData) {\n\n        (updatedState, transfersData) = InstrumentV3(_issuanceProxies[issuanceId]).processCustomEvent(\n            issuanceParametersData, eventName, eventPayload);\n    }\n\n    /**\n     * @dev Instrument type-specific scheduled event processing.\n     * @param issuanceId ID of the issuance.\n     * @param issuanceParametersData Issuance Parameters.\n     * @param eventName The name of the custom event.\n     * @param eventPayload The custom parameters to the custom event\n     */\n    function _processScheduledEvent(uint256 issuanceId, bytes memory issuanceParametersData, bytes32 eventName, bytes memory eventPayload)\n        internal returns (InstrumentBase.IssuanceStates updatedState, bytes memory transfersData) {\n\n        (updatedState, transfersData) = InstrumentV3(_issuanceProxies[issuanceId]).processScheduledEvent(\n            issuanceParametersData, eventName, eventPayload);\n    }\n}",
  "sourcePath": "/Users/shengdading/git/nuts-platform-v2/contracts/instrument/v3/InstrumentV3Manager.sol",
  "compiler": {
    "name": "solc",
    "version": "0.5.8+commit.23d335f2.Emscripten.clang"
  },
  "schemaVersion": "3.0.16",
  "updatedAt": "2019-10-16T00:06:50.416Z",
  "devdoc": {
    "methods": {
      "createIssuance(bytes)": {
        "details": "Create a new issuance of the financial instrument",
        "params": {
          "makerParameters": "The custom parameters to the newly created issuance"
        },
        "return": "The id of the newly created issuance."
      },
      "deactivate()": {
        "details": "Deactivates the instrument."
      },
      "depositToIssuance(uint256,uint256)": {
        "details": "The caller deposits ETH, which is currently deposited in Instrument Escrow, into issuance.",
        "params": {
          "amount": "The amount of ERC20 token transfered",
          "issuanceId": "The id of the issuance"
        }
      },
      "depositTokenToIssuance(uint256,address,uint256)": {
        "details": "The caller deposits ERC20 token, which is currently deposited in Instrument Escrow, into issuance.",
        "params": {
          "amount": "The amount of ERC20 token deposited.",
          "issuanceId": "The id of the issuance",
          "tokenAddress": "The address of the ERC20 token to deposit."
        }
      },
      "engageIssuance(uint256,bytes)": {
        "details": "A taker engages to the issuance",
        "params": {
          "issuanceId": "The id of the issuance",
          "takerParameters": "The custom parameters to the new engagement"
        }
      },
      "getInstrumentEscrowAddress()": {
        "details": "Get the Instrument Escrow."
      },
      "initialize(address,address,address,bytes)": {
        "details": "IMPORTANT: Initialization method for all instrument managers. This function must be invoked immediately after creating the proxy and updating implementation. If it's invoked in a separate transaction, it's possible that it's already invoked by someone else.",
        "params": {
          "fspAddress": "Address of FSP that activates this financial instrument.",
          "instrumentAddress": "Address of the financial instrument contract.",
          "instrumentConfigAddress": "Address of the Instrument Config contract.",
          "instrumentParameters": "Custom parameters for the Instrument Manager."
        }
      },
      "notifyCustomEvent(uint256,bytes32,bytes)": {
        "details": "Notify custom events to issuance. This could be invoked by any caller.",
        "params": {
          "eventName": "Name of the custom event",
          "eventPayload": "Payload of the custom event",
          "issuanceId": "The id of the issuance"
        }
      },
      "notifyScheduledEvent(uint256,bytes32,bytes)": {
        "details": "Notify scheduled events to issuance. This could be invoked by Timer Oracle only. Only the address with Timer Oracle Role can invoke notify scheduled event.",
        "params": {
          "eventName": "Name of the scheduled event, eventName of EventScheduled event",
          "eventPayload": "Payload of the scheduled event, eventPayload of EventScheduled event",
          "issuanceId": "The id of the issuance"
        }
      },
      "setMakerWhitelist(address,bool)": {
        "details": "Updates the maker whitelist. The maker whitelist only affects new issuances.",
        "params": {
          "allowed": "Whether this maker is allowed to create new issuance.",
          "makerAddress": "The maker address to update in whitelist"
        }
      },
      "setTakerWhitelist(address,bool)": {
        "details": "Updates the taker whitelist. The taker whitelist only affects new engagement.",
        "params": {
          "allowed": "Whether this taker is allowed to engage issuance.",
          "takerAddress": "The taker address to update in whitelist"
        }
      },
      "withdrawFromIssuance(uint256,uint256)": {
        "details": "The caller withdraws ETH from issuance to Instrument Escrow.",
        "params": {
          "amount": "The amount of ERC20 token transfered",
          "issuanceId": "The id of the issuance"
        }
      },
      "withdrawTokenFromIssuance(uint256,address,uint256)": {
        "details": "The caller withdraws ERC20 token from issuance to Instrument Escrow.",
        "params": {
          "amount": "The amount of ERC20 token transfered",
          "issuanceId": "The id of the issuance",
          "tokenAddress": "The address of the ERC20 token"
        }
      }
    },
    "title": "Instrument Manager for Instrument v3. A storage proxy is created for each issuance."
  },
  "userdoc": {
    "methods": {}
  }
}