{
  "contractName": "IssuanceEscrow",
  "abi": [
    {
      "constant": false,
      "inputs": [
        {
          "name": "account",
          "type": "address"
        },
        {
          "name": "token",
          "type": "address"
        },
        {
          "name": "amount",
          "type": "uint256"
        }
      ],
      "name": "withdrawTokenByAdmin",
      "outputs": [],
      "payable": false,
      "stateMutability": "nonpayable",
      "type": "function"
    },
    {
      "constant": false,
      "inputs": [
        {
          "name": "account",
          "type": "address"
        },
        {
          "name": "amount",
          "type": "uint256"
        }
      ],
      "name": "withdrawByAdmin",
      "outputs": [],
      "payable": false,
      "stateMutability": "nonpayable",
      "type": "function"
    },
    {
      "constant": false,
      "inputs": [
        {
          "name": "account",
          "type": "address"
        }
      ],
      "name": "depositByAdmin",
      "outputs": [],
      "payable": true,
      "stateMutability": "payable",
      "type": "function"
    },
    {
      "constant": false,
      "inputs": [],
      "name": "renounceOwnership",
      "outputs": [],
      "payable": false,
      "stateMutability": "nonpayable",
      "type": "function"
    },
    {
      "constant": false,
      "inputs": [
        {
          "name": "account",
          "type": "address"
        },
        {
          "name": "token",
          "type": "address"
        },
        {
          "name": "amount",
          "type": "uint256"
        }
      ],
      "name": "depositTokenByAdmin",
      "outputs": [],
      "payable": false,
      "stateMutability": "nonpayable",
      "type": "function"
    },
    {
      "constant": true,
      "inputs": [],
      "name": "owner",
      "outputs": [
        {
          "name": "",
          "type": "address"
        }
      ],
      "payable": false,
      "stateMutability": "view",
      "type": "function"
    },
    {
      "constant": true,
      "inputs": [],
      "name": "isOwner",
      "outputs": [
        {
          "name": "",
          "type": "bool"
        }
      ],
      "payable": false,
      "stateMutability": "view",
      "type": "function"
    },
    {
      "constant": true,
      "inputs": [
        {
          "name": "account",
          "type": "address"
        },
        {
          "name": "token",
          "type": "address"
        }
      ],
      "name": "getTokenBalance",
      "outputs": [
        {
          "name": "",
          "type": "uint256"
        }
      ],
      "payable": false,
      "stateMutability": "view",
      "type": "function"
    },
    {
      "constant": false,
      "inputs": [
        {
          "name": "newOwner",
          "type": "address"
        }
      ],
      "name": "initialize",
      "outputs": [],
      "payable": false,
      "stateMutability": "nonpayable",
      "type": "function"
    },
    {
      "constant": true,
      "inputs": [
        {
          "name": "account",
          "type": "address"
        }
      ],
      "name": "getTokenList",
      "outputs": [
        {
          "name": "tokens",
          "type": "address[]"
        }
      ],
      "payable": false,
      "stateMutability": "view",
      "type": "function"
    },
    {
      "constant": false,
      "inputs": [
        {
          "name": "newOwner",
          "type": "address"
        }
      ],
      "name": "transferOwnership",
      "outputs": [],
      "payable": false,
      "stateMutability": "nonpayable",
      "type": "function"
    },
    {
      "constant": true,
      "inputs": [
        {
          "name": "account",
          "type": "address"
        }
      ],
      "name": "getBalance",
      "outputs": [
        {
          "name": "",
          "type": "uint256"
        }
      ],
      "payable": false,
      "stateMutability": "view",
      "type": "function"
    },
    {
      "anonymous": false,
      "inputs": [
        {
          "indexed": false,
          "name": "account",
          "type": "address"
        },
        {
          "indexed": false,
          "name": "token",
          "type": "address"
        },
        {
          "indexed": false,
          "name": "amount",
          "type": "uint256"
        }
      ],
      "name": "BalanceIncreased",
      "type": "event"
    },
    {
      "anonymous": false,
      "inputs": [
        {
          "indexed": false,
          "name": "account",
          "type": "address"
        },
        {
          "indexed": false,
          "name": "token",
          "type": "address"
        },
        {
          "indexed": false,
          "name": "amount",
          "type": "uint256"
        }
      ],
      "name": "BalanceDecreased",
      "type": "event"
    },
    {
      "anonymous": false,
      "inputs": [
        {
          "indexed": true,
          "name": "previousOwner",
          "type": "address"
        },
        {
          "indexed": true,
          "name": "newOwner",
          "type": "address"
        }
      ],
      "name": "OwnershipTransferred",
      "type": "event"
    },
    {
      "constant": false,
      "inputs": [
        {
          "name": "source",
          "type": "address"
        },
        {
          "name": "dest",
          "type": "address"
        },
        {
          "name": "amount",
          "type": "uint256"
        }
      ],
      "name": "transfer",
      "outputs": [],
      "payable": false,
      "stateMutability": "nonpayable",
      "type": "function"
    },
    {
      "constant": false,
      "inputs": [
        {
          "name": "source",
          "type": "address"
        },
        {
          "name": "dest",
          "type": "address"
        },
        {
          "name": "token",
          "type": "address"
        },
        {
          "name": "amount",
          "type": "uint256"
        }
      ],
      "name": "transferToken",
      "outputs": [],
      "payable": false,
      "stateMutability": "nonpayable",
      "type": "function"
    }
  ],
  "bytecode": "0x60806040819052600080546001600160a01b03191633178082556001600160a01b0316917f8be0079c531659141344cd1fd0a4f28419497f9722a3daafe3b4186f6b6457e0908290a36118ec806100576000396000f3fe6080604052600436106100dd5760003560e01c80638f32d59b1161007f578063c4d66de811610059578063c4d66de814610311578063d8a3073214610344578063f2fde38b146103c7578063f8b2cb4f146103fa576100dd565b80638f32d59b14610258578063beabacc814610281578063c489744b146102c4576100dd565b806370d97c34116100bb57806370d97c34146101a9578063715018a6146101cf578063810c0af8146101e45780638da5cb5b14610227576100dd565b80632c54de4f146100e25780633d4aa9a91461012d578063487c358014610170575b600080fd5b3480156100ee57600080fd5b5061012b6004803603608081101561010557600080fd5b506001600160a01b0381358116916020810135821691604082013516906060013561042d565b005b34801561013957600080fd5b5061012b6004803603606081101561015057600080fd5b506001600160a01b03813581169160208101359091169060400135610600565b34801561017c57600080fd5b5061012b6004803603604081101561019357600080fd5b506001600160a01b0381351690602001356107ed565b61012b600480360360208110156101bf57600080fd5b50356001600160a01b0316610988565b3480156101db57600080fd5b5061012b610ab1565b3480156101f057600080fd5b5061012b6004803603606081101561020757600080fd5b506001600160a01b03813581169160208101359091169060400135610b64565b34801561023357600080fd5b5061023c610d02565b604080516001600160a01b039092168252519081900360200190f35b34801561026457600080fd5b5061026d610d11565b604080519115158252519081900360200190f35b34801561028d57600080fd5b5061012b600480360360608110156102a457600080fd5b506001600160a01b03813581169160208101359091169060400135610d22565b3480156102d057600080fd5b506102ff600480360360408110156102e757600080fd5b506001600160a01b0381358116916020013516610d91565b60408051918252519081900360200190f35b34801561031d57600080fd5b5061012b6004803603602081101561033457600080fd5b50356001600160a01b0316610dbc565b34801561035057600080fd5b506103776004803603602081101561036757600080fd5b50356001600160a01b0316610e30565b60408051602080825283518183015283519192839290830191858101910280838360005b838110156103b357818101518382015260200161039b565b505050509050019250505060405180910390f35b3480156103d357600080fd5b5061012b600480360360208110156103ea57600080fd5b50356001600160a01b0316611029565b34801561040657600080fd5b506102ff6004803603602081101561041d57600080fd5b50356001600160a01b0316611085565b610435610d11565b6104895760408051600160e51b62461bcd02815260206004820181905260248201527f4f776e61626c653a2063616c6c6572206973206e6f7420746865206f776e6572604482015290519081900360640190fd5b6001600160a01b0384166104d157604051600160e51b62461bcd0281526004018080602001828103825260238152602001806118516023913960400191505060405180910390fd5b6001600160a01b03831661051957604051600160e51b62461bcd02815260040180806020018281038252602181526020018061180e6021913960400191505060405180910390fd5b6001600160a01b03821661056157604051600160e51b62461bcd02815260040180806020018281038252602281526020018061182f6022913960400191505060405180910390fd5b600081116105a357604051600160e51b62461bcd0281526004018080602001828103825260238152602001806118746023913960400191505060405180910390fd5b806105ae8584610d91565b10156105ee57604051600160e51b62461bcd02815260040180806020018281038252602581526020018061179d6025913960400191505060405180910390fd5b6105fa848484846110c6565b50505050565b610608610d11565b61065c5760408051600160e51b62461bcd02815260206004820181905260248201527f4f776e61626c653a2063616c6c6572206973206e6f7420746865206f776e6572604482015290519081900360640190fd5b6001600160a01b0383166106ba5760408051600160e51b62461bcd02815260206004820181905260248201527f457363726f77426173653a204163636f756e74206d757374206265207365742e604482015290519081900360640190fd5b6001600160a01b0382166107185760408051600160e51b62461bcd02815260206004820152601e60248201527f457363726f77426173653a20546f6b656e206d757374206265207365742e0000604482015290519081900360640190fd5b600081116107705760408051600160e51b62461bcd02815260206004820152601f60248201527f457363726f77426173653a20416d6f756e74206d757374206265207365742e00604482015290519081900360640190fd5b8061077b8484610d91565b10156107bb57604051600160e51b62461bcd0281526004018080602001828103825260278152602001806117e76027913960400191505060405180910390fd5b6107c68383836110dc565b6107e86107d1610d02565b6001600160a01b038416908363ffffffff61117616565b505050565b6107f5610d11565b6108495760408051600160e51b62461bcd02815260206004820181905260248201527f4f776e61626c653a2063616c6c6572206973206e6f7420746865206f776e6572604482015290519081900360640190fd5b6001600160a01b0382166108a75760408051600160e51b62461bcd02815260206004820181905260248201527f457363726f77426173653a204163636f756e74206d757374206265207365742e604482015290519081900360640190fd5b600081116108ff5760408051600160e51b62461bcd02815260206004820152601f60248201527f457363726f77426173653a20416d6f756e74206d757374206265207365742e00604482015290519081900360640190fd5b8061090983611085565b101561094957604051600160e51b62461bcd0281526004018080602001828103825260258152602001806117c26025913960400191505060405180910390fd5b61095b826109556111f6565b836110dc565b604051339082156108fc029083906000818181858888f193505050501580156107e8573d6000803e3d6000fd5b610990610d11565b6109e45760408051600160e51b62461bcd02815260206004820181905260248201527f4f776e61626c653a2063616c6c6572206973206e6f7420746865206f776e6572604482015290519081900360640190fd5b346001600160a01b038216610a435760408051600160e51b62461bcd02815260206004820181905260248201527f457363726f77426173653a204163636f756e74206d757374206265207365742e604482015290519081900360640190fd5b60008111610a9b5760408051600160e51b62461bcd02815260206004820152601f60248201527f457363726f77426173653a20416d6f756e74206d757374206265207365742e00604482015290519081900360640190fd5b610aad82610aa76111f6565b836111fc565b5050565b610ab9610d11565b610b0d5760408051600160e51b62461bcd02815260206004820181905260248201527f4f776e61626c653a2063616c6c6572206973206e6f7420746865206f776e6572604482015290519081900360640190fd5b600080546040516001600160a01b03909116907f8be0079c531659141344cd1fd0a4f28419497f9722a3daafe3b4186f6b6457e0908390a36000805473ffffffffffffffffffffffffffffffffffffffff19169055565b610b6c610d11565b610bc05760408051600160e51b62461bcd02815260206004820181905260248201527f4f776e61626c653a2063616c6c6572206973206e6f7420746865206f776e6572604482015290519081900360640190fd5b6001600160a01b038316610c1e5760408051600160e51b62461bcd02815260206004820181905260248201527f457363726f77426173653a204163636f756e74206d757374206265207365742e604482015290519081900360640190fd5b6001600160a01b038216610c7c5760408051600160e51b62461bcd02815260206004820152601e60248201527f457363726f77426173653a20546f6b656e206d757374206265207365742e0000604482015290519081900360640190fd5b60008111610cd45760408051600160e51b62461bcd02815260206004820152601f60248201527f457363726f77426173653a20416d6f756e74206d757374206265207365742e00604482015290519081900360640190fd5b610cdf8383836111fc565b6107e8610cea610d02565b6001600160a01b03841690308463ffffffff61130116565b6000546001600160a01b031690565b6000546001600160a01b0316331490565b610d2a610d11565b610d7e5760408051600160e51b62461bcd02815260206004820181905260248201527f4f776e61626c653a2063616c6c6572206973206e6f7420746865206f776e6572604482015290519081900360640190fd5b6107e88383610d8b6111f6565b8461042d565b6001600160a01b03918216600090815260016020908152604080832093909416825291909152205490565b6000610dc6610d02565b6001600160a01b031614610e245760408051600160e51b62461bcd02815260206004820181905260248201527f457363726f77426173653a20416c726561647920696e697469616c697a65642e604482015290519081900360640190fd5b610e2d81611389565b50565b6001600160a01b0381166000908152600160205260408120606091600290910190610e596111f6565b90506000805b8354811015610eff57826001600160a01b0316848281548110610e7e57fe5b6000918252602090912001546001600160a01b031614801590610eeb57506001600160a01b038616600090815260016020526040812085548290879085908110610ec457fe5b60009182526020808320909101546001600160a01b03168352820192909252604001902054115b15610ef7576001909101905b600101610e5f565b5080604051908082528060200260200182016040528015610f2a578160200160208202803883390190505b5093506000805b845481101561101f57836001600160a01b0316858281548110610f5057fe5b6000918252602090912001546001600160a01b031614801590610fbd57506001600160a01b038716600090815260016020526040812086548290889085908110610f9657fe5b60009182526020808320909101546001600160a01b03168352820192909252604001902054115b1561101757848181548110610fce57fe5b9060005260206000200160009054906101000a90046001600160a01b0316868381518110610ff857fe5b6001600160a01b03909216602092830291909101909101526001909101905b600101610f31565b5050505050919050565b611031610d11565b610e245760408051600160e51b62461bcd02815260206004820181905260248201527f4f776e61626c653a2063616c6c6572206973206e6f7420746865206f776e6572604482015290519081900360640190fd5b6001600160a01b0381166000908152600160205260408120816110a66111f6565b6001600160a01b0316815260208101919091526040016000205492915050565b6110d18483836110dc565b6105fa8383836111fc565b6001600160a01b038084166000908152600160209081526040808320938616835290839052902054611114908363ffffffff61143916565b6001600160a01b038085166000818152602085815260409182902094909455805192881683529282015280820184905290517f6ac2cd906088d873624fa62ca95170d967629e7d964651df19a3aa2e49b44aa19181900360600190a150505050565b604080516001600160a01b038416602482015260448082018490528251808303909101815260649091019091526020810180517bffffffffffffffffffffffffffffffffffffffffffffffffffffffff167fa9059cbb000000000000000000000000000000000000000000000000000000001790526107e8908490611482565b60001990565b6001600160a01b038084166000908152600160209081526040808320938616835290839052902054611234908363ffffffff61164316565b6001600160a01b0384166000908152602083815260408083209390935560018401905220546112b1576002810180546001808201835560008381526020808220909301805473ffffffffffffffffffffffffffffffffffffffff19166001600160a01b038916908117909155935493815290840190915260409020555b604080516001600160a01b0380871682528516602082015280820184905290517f0d66f59c9991adc17dd3339490c5058d2d6fe20395e7b55ceb6ca8019a31667d9181900360600190a150505050565b604080516001600160a01b0385811660248301528416604482015260648082018490528251808303909101815260849091019091526020810180517bffffffffffffffffffffffffffffffffffffffffffffffffffffffff167f23b872dd000000000000000000000000000000000000000000000000000000001790526105fa908590611482565b6001600160a01b0381166113d157604051600160e51b62461bcd0281526004018080602001828103825260268152602001806117776026913960400191505060405180910390fd5b600080546040516001600160a01b03808516939216917f8be0079c531659141344cd1fd0a4f28419497f9722a3daafe3b4186f6b6457e091a36000805473ffffffffffffffffffffffffffffffffffffffff19166001600160a01b0392909216919091179055565b600061147b83836040518060400160405280601e81526020017f536166654d6174683a207375627472616374696f6e206f766572666c6f7700008152506116a0565b9392505050565b611494826001600160a01b031661173a565b6114e85760408051600160e51b62461bcd02815260206004820152601f60248201527f5361666545524332303a2063616c6c20746f206e6f6e2d636f6e747261637400604482015290519081900360640190fd5b60006060836001600160a01b0316836040518082805190602001908083835b602083106115265780518252601f199092019160209182019101611507565b6001836020036101000a0380198251168184511680821785525050505050509050019150506000604051808303816000865af19150503d8060008114611588576040519150601f19603f3d011682016040523d82523d6000602084013e61158d565b606091505b5091509150816115e75760408051600160e51b62461bcd02815260206004820181905260248201527f5361666545524332303a206c6f772d6c6576656c2063616c6c206661696c6564604482015290519081900360640190fd5b8051156105fa5780806020019051602081101561160357600080fd5b50516105fa57604051600160e51b62461bcd02815260040180806020018281038252602a815260200180611897602a913960400191505060405180910390fd5b60008282018381101561147b5760408051600160e51b62461bcd02815260206004820152601b60248201527f536166654d6174683a206164646974696f6e206f766572666c6f770000000000604482015290519081900360640190fd5b6000818484111561173257604051600160e51b62461bcd0281526004018080602001828103825283818151815260200191508051906020019080838360005b838110156116f75781810151838201526020016116df565b50505050905090810190601f1680156117245780820380516001836020036101000a031916815260200191505b509250505060405180910390fd5b505050900390565b6000813f7fc5d2460186f7233c927e7db2dcc703c0e500b653ca82273b7bfad8045d85a470811580159061176e5750808214155b94935050505056fe4f776e61626c653a206e6577206f776e657220697320746865207a65726f206164647265737349737375616e6365457363726f773a20496e73756666696369656e742062616c616e63652e457363726f77426173653a20496e73756666696369656e74204554482042616c616e63652e457363726f77426173653a20496e73756666696369656e7420546f6b656e2042616c616e63652e49737375616e6365457363726f773a2044657374206d757374206265207365742e49737375616e6365457363726f773a20546f6b656e206d757374206265207365742e49737375616e6365457363726f773a20536f75726365206d757374206265207365742e49737375616e6365457363726f773a20416d6f756e74206d757374206265207365742e5361666545524332303a204552433230206f7065726174696f6e20646964206e6f742073756363656564a165627a7a72305820818eccdee5c2996b583a8dc0a6788b490ba6b4fc3ce0738b441cc96ba9aed1140029",
  "source": "pragma solidity ^0.5.0;\n\nimport \"../lib/util/Constants.sol\";\nimport \"../lib/token/IERC20.sol\";\nimport \"./EscrowBase.sol\";\nimport \"./IssuanceEscrowInterface.sol\";\n\n/**\n * @title Issuance Escrow that keeps assets that are locked by issuance.\n */\ncontract IssuanceEscrow is EscrowBase, IssuanceEscrowInterface {\n\n    /**\n     * @dev Transfers the ownership of ETH in this escrow.\n     * @param source The account where the tokens are from.\n     * @param dest The account where the tokens are transferred to.\n     * @param amount The amount to trasfer.\n     */\n    function transfer(address source, address dest, uint256 amount) public onlyOwner {\n        transferToken(source, dest, Constants.getEthAddress(), amount);\n    }\n\n    /**\n     * @dev Transfers the ownership of ERC20 tokens in this escrow.\n     * @param source The account where the ERC20 tokens are from.\n     * @param dest The account where the ERC20 tokens are transferred to.\n     * @param token The ERC20 tokens to transfer.\n     * @param amount The amount to trasfer.\n     */\n    function transferToken(address source, address dest, address token, uint256 amount) public onlyOwner {\n        require(source != address(0x0), \"IssuanceEscrow: Source must be set.\");\n        require(dest != address(0x0), \"IssuanceEscrow: Dest must be set.\");\n        require(token != address(0x0), \"IssuanceEscrow: Token must be set.\");\n        require(amount > 0, \"IssuanceEscrow: Amount must be set.\");\n        require(getTokenBalance(source, IERC20(token)) >= amount, \"IssuanceEscrow: Insufficient balance.\");\n\n        _migrateBalance(source, dest, token, amount);\n    }\n}",
  "sourcePath": "/Users/shengdading/git/nuts-platform-v2/contracts/escrow/IssuanceEscrow.sol",
  "compiler": {
    "name": "solc",
    "version": "0.5.8+commit.23d335f2.Emscripten.clang"
  },
  "schemaVersion": "3.0.16",
  "updatedAt": "2019-10-09T22:59:45.986Z",
  "devdoc": {
    "methods": {
      "depositByAdmin(address)": {
        "details": "Deposits ETH from Instrument Manager into an account.",
        "params": {
          "account": "The account to deposit ETH."
        }
      },
      "depositTokenByAdmin(address,address,uint256)": {
        "details": "Deposits ERC20 tokens from Instrument Manager into an account. Note: The owner, i.e. Instrument Manager must set the allowance before hand.",
        "params": {
          "account": "The account to deposit ERC20 tokens.",
          "amount": "The amount of ERC20 token to deposit.",
          "token": "The ERC20 token to deposit."
        }
      },
      "getBalance(address)": {
        "details": "Get the current ETH balance of an account in the escrow.",
        "params": {
          "account": "The account to check ETH balance."
        },
        "return": "Current ETH balance of the account."
      },
      "getTokenBalance(address,address)": {
        "details": "Get the balance of the requested IERC20 token in the escrow.",
        "params": {
          "account": "The address to check IERC20 balance.",
          "token": "The IERC20 token to check balance."
        },
        "return": "The balance of the account."
      },
      "getTokenList(address)": {
        "details": "Get the list of tokens that are deposited in the escrow.",
        "params": {
          "account": "The address to check the deposited token list."
        },
        "return": "The list of tokens deposited in the escrow."
      },
      "initialize(address)": {
        "details": "IMPORTANT: Initialization method for all escrows to update the owner. This function must be invoked immediately after creating the proxy and updating implementation. If it's invoked in a separate transaction, it's possible that it's already invoked by someone else."
      },
      "isOwner()": {
        "details": "Returns true if the caller is the current owner."
      },
      "owner()": {
        "details": "Returns the address of the current owner."
      },
      "renounceOwnership()": {
        "details": "Leaves the contract without owner. It will not be possible to call `onlyOwner` functions anymore. Can only be called by the current owner.     * NOTE: Renouncing ownership will leave the contract without an owner, thereby removing any functionality that is only available to the owner."
      },
      "transfer(address,address,uint256)": {
        "details": "Transfers the ownership of ETH in this escrow.",
        "params": {
          "amount": "The amount to trasfer.",
          "dest": "The account where the tokens are transferred to.",
          "source": "The account where the tokens are from."
        }
      },
      "transferOwnership(address)": {
        "details": "Transfers ownership of the contract to a new account (`newOwner`). Can only be called by the current owner."
      },
      "transferToken(address,address,address,uint256)": {
        "details": "Transfers the ownership of ERC20 tokens in this escrow.",
        "params": {
          "amount": "The amount to trasfer.",
          "dest": "The account where the ERC20 tokens are transferred to.",
          "source": "The account where the ERC20 tokens are from.",
          "token": "The ERC20 tokens to transfer."
        }
      },
      "withdrawByAdmin(address,uint256)": {
        "details": "Withdraw ETH from an account to Instrument Manager.",
        "params": {
          "account": "The account to withdraw ETH.",
          "amount": "The amount of ETH to withdraw."
        }
      },
      "withdrawTokenByAdmin(address,address,uint256)": {
        "details": "Withdraw ERC20 token from an account to Instrument Manager. The transfer action is done inside this function.",
        "params": {
          "account": "The account to withdraw ERC20 token.",
          "amount": "The amount of ERC20 tokens to withdraw.",
          "token": "The ERC20 token to withdraw."
        }
      }
    },
    "title": "Issuance Escrow that keeps assets that are locked by issuance."
  },
  "userdoc": {
    "methods": {}
  }
}