{
  "contractName": "LendingV1",
  "abi": [
    {
      "anonymous": false,
      "inputs": [
        {
          "indexed": true,
          "name": "issuanceId",
          "type": "uint256"
        },
        {
          "indexed": false,
          "name": "escrowAddress",
          "type": "address"
        },
        {
          "indexed": false,
          "name": "makerAddress",
          "type": "address"
        },
        {
          "indexed": false,
          "name": "creationTimestamp",
          "type": "uint256"
        },
        {
          "indexed": false,
          "name": "collateralTokenAddress",
          "type": "address"
        },
        {
          "indexed": false,
          "name": "lendingTokenAddress",
          "type": "address"
        },
        {
          "indexed": false,
          "name": "lendingAmount",
          "type": "uint256"
        },
        {
          "indexed": false,
          "name": "principalDueTimestamp",
          "type": "uint256"
        }
      ],
      "name": "LendingCreated",
      "type": "event"
    },
    {
      "anonymous": false,
      "inputs": [
        {
          "indexed": true,
          "name": "issuanceId",
          "type": "uint256"
        },
        {
          "indexed": false,
          "name": "takerAddress",
          "type": "address"
        },
        {
          "indexed": false,
          "name": "engagementTimestamp",
          "type": "uint256"
        },
        {
          "indexed": false,
          "name": "collateralDueTimstamp",
          "type": "uint256"
        },
        {
          "indexed": false,
          "name": "collateralTokenAmount",
          "type": "uint256"
        }
      ],
      "name": "LendingEngaged",
      "type": "event"
    },
    {
      "anonymous": false,
      "inputs": [
        {
          "indexed": true,
          "name": "issuanceId",
          "type": "uint256"
        },
        {
          "indexed": false,
          "name": "timestamp",
          "type": "uint256"
        },
        {
          "indexed": false,
          "name": "eventName",
          "type": "bytes32"
        },
        {
          "indexed": false,
          "name": "eventPayload",
          "type": "bytes"
        }
      ],
      "name": "EventTimeScheduled",
      "type": "event"
    },
    {
      "anonymous": false,
      "inputs": [
        {
          "indexed": true,
          "name": "issuanceId",
          "type": "uint256"
        },
        {
          "indexed": false,
          "name": "blockNumber",
          "type": "uint256"
        },
        {
          "indexed": false,
          "name": "eventName",
          "type": "bytes32"
        },
        {
          "indexed": false,
          "name": "eventPayload",
          "type": "bytes"
        }
      ],
      "name": "EventBlockScheduled",
      "type": "event"
    },
    {
      "constant": false,
      "inputs": [
        {
          "name": "issuanceParametersData",
          "type": "bytes"
        },
        {
          "name": "makerParametersData",
          "type": "bytes"
        }
      ],
      "name": "createIssuance",
      "outputs": [
        {
          "name": "updatedState",
          "type": "uint8"
        }
      ],
      "payable": false,
      "stateMutability": "nonpayable",
      "type": "function"
    },
    {
      "constant": false,
      "inputs": [
        {
          "name": "issuanceParametersData",
          "type": "bytes"
        },
        {
          "name": "",
          "type": "bytes"
        }
      ],
      "name": "engageIssuance",
      "outputs": [
        {
          "name": "updatedState",
          "type": "uint8"
        },
        {
          "name": "",
          "type": "bytes"
        }
      ],
      "payable": false,
      "stateMutability": "nonpayable",
      "type": "function"
    },
    {
      "constant": false,
      "inputs": [
        {
          "name": "issuanceParametersData",
          "type": "bytes"
        },
        {
          "name": "tokenAddress",
          "type": "address"
        },
        {
          "name": "amount",
          "type": "uint256"
        }
      ],
      "name": "processTokenDeposit",
      "outputs": [
        {
          "name": "updatedState",
          "type": "uint8"
        },
        {
          "name": "transfersData",
          "type": "bytes"
        }
      ],
      "payable": false,
      "stateMutability": "nonpayable",
      "type": "function"
    },
    {
      "constant": false,
      "inputs": [
        {
          "name": "",
          "type": "bytes"
        },
        {
          "name": "",
          "type": "address"
        },
        {
          "name": "",
          "type": "uint256"
        }
      ],
      "name": "processTokenWithdraw",
      "outputs": [
        {
          "name": "",
          "type": "uint8"
        },
        {
          "name": "",
          "type": "bytes"
        }
      ],
      "payable": false,
      "stateMutability": "nonpayable",
      "type": "function"
    },
    {
      "constant": false,
      "inputs": [
        {
          "name": "",
          "type": "bytes"
        },
        {
          "name": "",
          "type": "bytes32"
        },
        {
          "name": "",
          "type": "bytes"
        }
      ],
      "name": "processCustomEvent",
      "outputs": [
        {
          "name": "",
          "type": "uint8"
        },
        {
          "name": "",
          "type": "bytes"
        }
      ],
      "payable": false,
      "stateMutability": "nonpayable",
      "type": "function"
    },
    {
      "constant": false,
      "inputs": [
        {
          "name": "issuanceParametersData",
          "type": "bytes"
        },
        {
          "name": "eventName",
          "type": "bytes32"
        },
        {
          "name": "",
          "type": "bytes"
        }
      ],
      "name": "processScheduledEvent",
      "outputs": [
        {
          "name": "updatedState",
          "type": "uint8"
        },
        {
          "name": "transfersData",
          "type": "bytes"
        }
      ],
      "payable": false,
      "stateMutability": "nonpayable",
      "type": "function"
    }
  ],
  "bytecode": "0x608060405234801561001057600080fd5b50612de1806100206000396000f3fe608060405234801561001057600080fd5b50600436106100725760003560e01c8063c820052011610050578063c8200520146103a1578063cdfa837a146104ce578063e3e41ef11461061f57610072565b8063488d61bc146100775780638ddd8d38146101b8578063a674326b146102ed575b600080fd5b61012b6004803603606081101561008d57600080fd5b8101906020810181356401000000008111156100a857600080fd5b8201836020820111156100ba57600080fd5b803590602001918460018302840111640100000000831117156100dc57600080fd5b91908080601f016020809104026020016040519081016040528093929190818152602001838380828437600092019190915250929550506001600160a01b038335169350505060200135610754565b6040518083600681111561013b57fe5b60ff16815260200180602001828103825283818151815260200191508051906020019080838360005b8381101561017c578181015183820152602001610164565b50505050905090810190601f1680156101a95780820380516001836020036101000a031916815260200191505b50935050505060405180910390f35b61012b600480360360608110156101ce57600080fd5b8101906020810181356401000000008111156101e957600080fd5b8201836020820111156101fb57600080fd5b8035906020019184600183028401116401000000008311171561021d57600080fd5b91908080601f0160208091040260200160405190810160405280939291908181526020018383808284376000920191909152509295843595909490935060408101925060200135905064010000000081111561027857600080fd5b82018360208201111561028a57600080fd5b803590602001918460018302840111640100000000831117156102ac57600080fd5b91908080601f0160208091040260200160405190810160405280939291908181526020018383808284376000920191909152509295506107aa945050505050565b61012b6004803603606081101561030357600080fd5b81019060208101813564010000000081111561031e57600080fd5b82018360208201111561033057600080fd5b8035906020019184600183028401116401000000008311171561035257600080fd5b91908080601f016020809104026020016040519081016040528093929190818152602001838380828437600092019190915250929550506001600160a01b038335169350505060200135610800565b61012b600480360360408110156103b757600080fd5b8101906020810181356401000000008111156103d257600080fd5b8201836020820111156103e457600080fd5b8035906020019184600183028401116401000000008311171561040657600080fd5b91908080601f016020809104026020016040519081016040528093929190818152602001838380828437600092019190915250929594936020810193503591505064010000000081111561045957600080fd5b82018360208201111561046b57600080fd5b8035906020019184600183028401116401000000008311171561048d57600080fd5b91908080601f016020809104026020016040519081016040528093929190818152602001838380828437600092019190915250929550610beb945050505050565b6105fb600480360360408110156104e457600080fd5b8101906020810181356401000000008111156104ff57600080fd5b82018360208201111561051157600080fd5b8035906020019184600183028401116401000000008311171561053357600080fd5b91908080601f016020809104026020016040519081016040528093929190818152602001838380828437600092019190915250929594936020810193503591505064010000000081111561058657600080fd5b82018360208201111561059857600080fd5b803590602001918460018302840111640100000000831117156105ba57600080fd5b91908080601f016020809104026020016040519081016040528093929190818152602001838380828437600092019190915250929550610df8945050505050565b6040518082600681111561060b57fe5b60ff16815260200191505060405180910390f35b61012b6004803603606081101561063557600080fd5b81019060208101813564010000000081111561065057600080fd5b82018360208201111561066257600080fd5b8035906020019184600183028401116401000000008311171561068457600080fd5b91908080601f016020809104026020016040519081016040528093929190818152602001838380828437600092019190915250929584359590949093506040810192506020013590506401000000008111156106df57600080fd5b8201836020820111156106f157600080fd5b8035906020019184600183028401116401000000008311171561071357600080fd5b91908080601f016020809104026020016040519081016040528093929190818152602001838380828437600092019190915250929550611194945050505050565b60408051600160e51b62461bcd02815260206004820181905260248201527f4c6f616e56313a204f7065726174696f6e206e6f7420737570706f727465642e604482015290516000916060919081900360640190fd5b60408051600160e51b62461bcd02815260206004820152601e60248201527f4c6f616e56313a20556e737570706f72746564206f7065726174696f6e2e0000604482015290516000916060919081900360640190fd5b6000606061080c6129fd565b61081586611312565b90508060e0015160ff16600681111561082a57fe5b6000549093506001600160a01b0386811691161415610aed5780606001516001600160a01b03168161012001516001600160a01b0316141561098d5760008160e0015160ff16600681111561087b57fe5b600681111561088657fe5b146108c557604051600160e51b62461bcd02815260040180806020018281038252603f815260200180612d24603f913960400191505060405180910390fd5b600854841461090857604051600160e51b62461bcd02815260040180806020018281038252602c815260200180612d8a602c913960400191505060405180910390fd5b60065442620151809091020160038190558151604080519283527f656e676167656d656e745f64756500000000000000000000000000000000000060208401526060838201819052600090840152516001955090917f45fa4618da0b13fc1ff1fd521cad6cfb8dd09ce9853821b14f7d095ceb1e305c919081900360a00190a2610ae8565b8060a001516001600160a01b03168161012001516001600160a01b03161415610aae5760028160e0015160ff1660068111156109c557fe5b60068111156109d057fe5b14610a0f57604051600160e51b62461bcd02815260040180806020018281038252603d815260200180612b3a603d913960400191505060405180910390fd5b600c5460ff1615610a5457604051600160e51b62461bcd028152600401808060200182810382526024815260200180612bc86024913960400191505060405180910390fd5b600a54600854018414610a9b57604051600160e51b62461bcd028152600401808060200182810382526021815260200180612b776021913960400191505060405180910390fd5b60059250610aa881611337565b50610ae8565b604051600160e51b62461bcd028152600401808060200182810382526024815260200180612c166024913960400191505060405180910390fd5b610be2565b6001546001600160a01b0386811691161415610ba857600c5460ff1615610b4857604051600160e51b62461bcd028152600401808060200182810382526028815260200180612c3a6028913960400191505060405180910390fd5b600b548414610b8b57604051600160e51b62461bcd02815260040180806020018281038252602d815260200180612c62602d913960400191505060405180910390fd5b600c805460ff19166001179055610ba181611491565b9150610be2565b604051600160e51b62461bcd028152600401808060200182810382526024815260200180612cb06024913960400191505060405180910390fd5b50935093915050565b60006060610bf76129fd565b610c0085611312565b61014081015160008054600154604080517f379b87ea0000000000000000000000000000000000000000000000000000000081526001600160a01b039384166004820152918316602483015280519596509394929384939286169263379b87ea926044808201939291829003018186803b158015610c7d57600080fd5b505afa158015610c91573d6000803e3d6000fd5b505050506040513d6040811015610ca757600080fd5b508051602090910151600954600854929450909250610cf4918391610ce8916004918391610cdc90899063ffffffff61154c16565b9063ffffffff61154c16565b9063ffffffff6115a816565b600b55426202a3000160048190558451604080519283527f636f6c6c61746572616c5f647565000000000000000000000000000000000000602084015260608382018190526000908401525190917f45fa4618da0b13fc1ff1fd521cad6cfb8dd09ce9853821b14f7d095ceb1e305c919081900360a00190a260075442620151809091020160058190558451604080519283527f6c656e64696e675f647565000000000000000000000000000000000000000000602084015260608382018190526000908401525190917f45fa4618da0b13fc1ff1fd521cad6cfb8dd09ce9853821b14f7d095ceb1e305c919081900360a00190a260029550505050509250929050565b6000610e026129fd565b610e0b84611312565b9050610e15612a59565b610e1e846115ea565b80519091506001600160a01b0316610e6a57604051600160e51b62461bcd028152600401808060200182810382526030815260200180612b986030913960400191505060405180910390fd5b60208101516001600160a01b0316610eb657604051600160e51b62461bcd02815260040180806020018281038252602d815260200180612cd4602d913960400191505060405180910390fd5b6000816040015111610efc57604051600160e51b62461bcd028152600401808060200182810382526023815260200180612d016023913960400191505060405180910390fd5b6000816060015163ffffffff1611610f4857604051600160e51b62461bcd028152600401808060200182810382526025815260200180612b156025913960400191505060405180910390fd5b6000816080015163ffffffff1611610f9457604051600160e51b62461bcd028152600401808060200182810382526027815260200180612d636027913960400191505060405180910390fd5b6202a3008160a00151620151800263ffffffff1611610fe757604051600160e51b62461bcd02815260040180806020018281038252602a815260200180612bec602a913960400191505060405180910390fd5b6020810151600080546001600160a01b039283167fffffffffffffffffffffffff000000000000000000000000000000000000000091821617909155825160018054919093169116179055426202a30001600255608081015163ffffffff908116600690815560a0830151821660078190556040840151600881905560c085015161108094610ce89391811692610cdc92909161154c16565b600a5560608082015163ffffffff166009558251600254604080519182527f7072696e636970616c5f647565000000000000000000000000000000000000006020830152818101849052600093820193909352915190917f45fa4618da0b13fc1ff1fd521cad6cfb8dd09ce9853821b14f7d095ceb1e305c919081900360a00190a28151610100830151606080850151600154600054600854600254604080516001600160a01b03988916815295881660208701524286820152938716958501959095529416608083015260a082019390935260c081019190915290517fb90d16df8cd82cc891929311653ad7eb238bf20c26a0d76d84a90a67e937837f9181900360e00190a26000925050505b92915050565b600060606111a06129fd565b6111a986611312565b90508060e0015160ff1660068111156111be57fe5b92507f7072696e636970616c5f647565000000000000000000000000000000000000008514156112175760008160e0015160ff1660068111156111fd57fe5b600681111561120857fe5b1415610ae85760039250610be2565b7f656e676167656d656e745f6475650000000000000000000000000000000000008514156112725760018160e0015160ff16600681111561125457fe5b600681111561125f57fe5b1415610ae85760039250610ba181611607565b7f636f6c6c61746572616c5f6475650000000000000000000000000000000000008514156112b157600c5460ff16610ae85760069250610ba181611607565b7f6c656e64696e675f647565000000000000000000000000000000000000000000851415610be25760058160e0015160ff1660068111156112ee57fe5b60068111156112f957fe5b14610be2576113078161169f565b915050935093915050565b61131a6129fd565b6113226129fd565b61132f6020848551611739565b509392505050565b6060611341612a95565b604080516002602082018181526080830190935290918291816020015b611366612aa8565b81526020019060019003908161135e5790505081525090506040518060a001604052806001151581526020018460a001516001600160a01b0316815260200184606001516001600160a01b031681526020016000809054906101000a90046001600160a01b03166001600160a01b03168152602001600a546008540181525081600001516000815181106113f657fe5b60200260200101819052506040518060a001604052806001151581526020018460a001516001600160a01b031681526020018460a001516001600160a01b03168152602001600160009054906101000a90046001600160a01b03166001600160a01b03168152602001600b54815250816000015160018151811061147657fe5b602002602001018190525061148a8161191b565b9392505050565b606061149b612a95565b604080516001602082018181526060830190935290918291816020015b6114c0612aa8565b8152602001906001900390816114b85790505081525090506040518060a0016040528060011515815260200184606001516001600160a01b031681526020018460a001516001600160a01b031681526020016000809054906101000a90046001600160a01b03166001600160a01b03168152602001600854815250816000015160008151811061147657fe5b60008261155b5750600061118e565b8282028284828161156857fe5b041461148a57604051600160e51b62461bcd028152600401808060200182810382526021815260200180612c8f6021913960400191505060405180910390fd5b600061148a83836040518060400160405280601a81526020017f536166654d6174683a206469766973696f6e206279207a65726f00000000000081525061196b565b6115f2612a59565b6115fa612a59565b61132f6020848551611a10565b6060611611612a95565b604080516001602082018181526060830190935290918291816020015b611636612aa8565b81526020019060019003908161162e57505090526040805160a08101825260018152606086810180516001600160a01b03908116602085015290518116938301939093526000805490931690820152600854608082015282518051939450909290919061147657fe5b60606116a9612a95565b604080516001602082018181526060830190935290918291816020015b6116ce612aa8565b8152602001906001900390816116c657505090526040805160a080820183526001808352908701516001600160a01b03908116602084015260608089015182169484019490945290541691810191909152600b54608082015281518051929350909160009061147657fe5b6117416129fd565b600061174b6129fd565b611753612ad6565b6000808089805b8982018110156119095761176e818c611b8c565b91965094509250820160018514156117925761178c818c8989611bc7565b01611904565b84600214156117a75761178c818c8989611c26565b84600314156117bc5761178c818c8989611c74565b84600414156117d15761178c818c8989611cc2565b84600514156117e65761178c818c8989611d10565b84600614156117fb5761178c818c8989611d56565b84600714156118105761178c818c8989611da4565b84600814156118255761178c818c8989611dea565b846009141561183a5761178c818c8989611e33565b84600a141561184f5761178c818c8989611e83565b84600b14156118645761178c818c8989611ed3565b600184600581111561187257fe5b141561188c576000611884828d611f23565b929092019150505b600584600581111561189a57fe5b14156118b45760006118ac828d611f42565b929092019150505b60008460058111156118c257fe5b14156118dc5760006118d4828d611f54565b929092019150505b60028460058111156118ea57fe5b14156119045760006118fc828d611fe6565b929092019150505b61175a565b50949a97995096975050505050505050565b606080611927836120ad565b6040519080825280601f01601f191660200182016040528015611951576020820181803883390190505b5090506000611962846020846120f8565b82525092915050565b600081836119fa57604051600160e51b62461bcd0281526004018080602001828103825283818151815260200191508051906020019080838360005b838110156119bf5781810151838201526020016119a7565b50505050905090810190601f1680156119ec5780820380516001836020036101000a031916815260200191505b509250505060405180910390fd5b506000838581611a0657fe5b0495945050505050565b611a18612a59565b6000611a22612a59565b611a2a612af5565b6000808089805b89820181101561190957611a45818c611b8c565b9196509450925082016001851415611a6957611a63818c8989612152565b01611b87565b8460021415611a7e57611a63818c8989611c26565b8460031415611a9357611a63818c898961219b565b8460041415611aa857611a63818c89896121e1565b8460051415611abd57611a63818c898961222c565b8460061415611ad257611a63818c8989612277565b8460071415611ae757611a63818c89896122c2565b6001846005811115611af557fe5b1415611b0f576000611b07828d611f23565b929092019150505b6005846005811115611b1d57fe5b1415611b37576000611b2f828d611f42565b929092019150505b6000846005811115611b4557fe5b1415611b5f576000611b57828d611f54565b929092019150505b6002846005811115611b6d57fe5b1415611b87576000611b7f828d611fe6565b929092019150505b611a31565b6000806000806000611b9e8787611f54565b915091506000826007166005811115611bb357fe5b600890930498929750909550909350505050565b6000806000611bd6878761230d565b91509150611be38561231f565b15611bfd57600184815b6020020180519091019052611c1c565b818552602084015115611c1c57600184815b6020020180519190910390525b9695505050505050565b6000806000611c358787612323565b91509150611c428561231f565b15611c51576001846002611bed565b6001600160a01b0382166020860152604084015115611c1c576001846002611c0f565b6000806000611c838787612323565b91509150611c908561231f565b15611c9f576001846003611bed565b6001600160a01b0382166040860152606084015115611c1c576001846003611c0f565b6000806000611cd18787612323565b91509150611cde8561231f565b15611ced576001846004611bed565b6001600160a01b0382166060860152608084015115611c1c576001846004611c0f565b6000806000611d1f878761230d565b91509150611d2c8561231f565b15611d3b576001846005611bed565b6080850182905260a084015115611c1c576001846005611c0f565b6000806000611d658787612323565b91509150611d728561231f565b15611d81576001846006611bed565b6001600160a01b03821660a086015260c084015115611c1c576001846006611c0f565b6000806000611db3878761230d565b91509150611dc08561231f565b15611dcf576001846007611bed565b60c0850182905260e084015115611c1c576001846007611c0f565b6000806000611df98787612347565b91509150611e068561231f565b15611e15576001846008611bed565b60ff821660e086015261010084015115611c1c576001846008611c0f565b6000806000611e428787612323565b91509150611e4f8561231f565b15611e5e576001846009611bed565b6001600160a01b03821661010086015261012084015115611c1c576001846009611c0f565b6000806000611e928787612323565b91509150611e9f8561231f565b15611eae57600184600a611bed565b6001600160a01b03821661012086015261014084015115611c1c57600184600a611c0f565b6000806000611ee28787612323565b91509150611eef8561231f565b15611efe57600184600b611bed565b6001600160a01b03821661014086015261016084015115611c1c57600184600b611c0f565b600080600080611f3586866008612359565b9097909650945050505050565b600080600080611f3586866004612359565b80519181019160009081908190819060200160805b6080811660801415611fd9578688038211611fb457600160e51b62461bcd026000526020600452600f602452600160881b6e6c656e677468206f766572666c6f770260445260536000fd5b875160001a905080607f16836007021b84179350600183019250600188019750611f69565b5091969095509350505050565b60606000806000611ff78686611f54565b915091506060826040519080825280601f01601f191660200182016040528015612028576020820181803883390190505b508651978701830197909150602090810190820160005b8581101561209d57888a03831161208657600160e51b62461bcd026000526020600452600f602452600160881b6e6c656e677468206f766572666c6f770260445260536000fd5b895160001a82536001998a0199918201910161203f565b5091955050500190509250929050565b600080805b8351518110156120f1576120e46120df856000015183815181106120d257fe5b60200260200101516123df565b6123e5565b60019201820191016120b2565b5092915050565b60008280825b865151811015612148576121166001600284886123f8565b8201915061213c8760000151828151811061212d57fe5b6020026020010151838761240e565b909101906001016120fe565b5003949350505050565b60008060006121618787612323565b9150915061216e8561231f565b1561217c5760018481611bed565b6001600160a01b0382168552602084015115611c1c5760018481611c0f565b60008060006121aa878761230d565b915091506121b78561231f565b156121c6576001846003611bed565b60408501829052606084015115611c1c576001846003611c0f565b60008060006121f087876124a6565b915091506121fd8561231f565b1561220c576001846004611bed565b63ffffffff82166060860152608084015115611c1c576001846004611c0f565b600080600061223b87876124a6565b915091506122488561231f565b15612257576001846005611bed565b63ffffffff8216608086015260a084015115611c1c576001846005611c0f565b600080600061228687876124a6565b915091506122938561231f565b156122a2576001846006611bed565b63ffffffff821660a086015260c084015115611c1c576001846006611c0f565b60008060006122d187876124a6565b915091506122de8561231f565b156122ed576001846007611bed565b63ffffffff821660c086015260e084015115611c1c576001846007611c0f565b600080600080611f35602087876124b4565b1590565b600080600080612335601487876124d3565b60609190911c97909650945050505050565b600080600080611f35600187876124b4565b81519282019260009081908190602001815b858110156123d15786880382116123b257600160e51b62461bcd026000526020600452600f602452600160881b6e6c656e677468206f766572666c6f770260445260536000fd5b875160001a816008021b8317925060018801975060018101905061236b565b509096939550929350505050565b50606e90565b60006123f082612615565b909101919050565b6000600885026007851617611c1c818585612632565b60008280606061241d876123df565b6040519080825280601f01601f191660200182016040528015612447576020820181803883390190505b509050600061245582612675565b9050600061246287612675565b905060006124728a602086612678565b905061247f81868a612632565b85019450612493836020018684018361272a565b9390930193909303979650505050505050565b600080600080611f35600487875b6000806000806124c587878761276b565b909890975095505050505050565b6000806000806124e38686611f54565b90925090506020600860ff60038a0116848401111561256c57604080518082018252600f8152600160881b6e6c656e677468206f766572666c6f770260208083019182529251600160e51b62461bcd02815260048101938452825160248201528251929392839260449092019190808383600083156119bf5781810151838201526020016119a7565b6003880197506000602088510189106040518060400160405280600f8152602001600160881b6e6c656e677468206f766572666c6f7702815250906125f557604051600160e51b62461bcd0281526020600482018181528351602484015283519092839260449091019190850190808383600083156119bf5781810151838201526020016119a7565b505087870151918490036002010290811c901b9350019050935093915050565b60071c600060015b821561118e5760079290921c9160010161261d565b600080828401607f86165b600787901c15612665578060801782535060079590951c9460019182019101607f861661263d565b8082535050600101949350505050565b90565b6000828061268960018483876123f8565b86519101906126999082866128bb565b016126a760028083876123f8565b810190506126ba866020015182866128e2565b016126c96003600283876123f8565b810190506126dc866040015182866128e2565b016126eb6004600283876123f8565b810190506126fe866060015182866128e2565b0161270d6005600283876123f8565b8101905061272086608001518286612902565b0103949350505050565b5b6020811061274a578251825260209283019290910190601f190161272b565b915181516020939093036101000a6000190180199091169216919091179052565b600080600080600061277d8787611f54565b915091508760030160ff16818301111561280157604080518082018252600f8152600160881b6e6c656e677468206f766572666c6f770260208083019182529251600160e51b62461bcd02815260048101938452825160248201528251929392839260449092019190808383600083156119bf5781810151838201526020016119a7565b600387019650602086510187106040518060400160405280600f8152602001600160881b6e6c656e677468206f766572666c6f77028152509061288857604051600160e51b62461bcd0281526020600482018181528351602484015283519092839260449091019190850190808383600083156119bf5781810151838201526020016119a7565b5086860151925060011982015b60208110156128ad5761010084049350600101612895565b509197910195509350505050565b600083156128d6576128cf60018484612632565b905061148a565b6128cf60008484612632565b60006128fa846001600160a01b03166014858561290d565b949350505050565b60006128fa84602085855b60038201916000908161292287868689612940565b94850194905061293381838661297e565b5050909203949350505050565b60008061294d86846129bf565b9050848401815b80156129725787816020031a82536001919091019060001901612954565b50909695505050505050565b60008261298f600286018285612632565b840193506129a16001600286866123f8565b840193506129b0858585612632565b90930192830390509392505050565b600060ff825b600719600882020182901b85161580156129df5750600081115b156129ed57600019016129c5565b806128fa57506001949350505050565b6040805161016081018252600080825260208201819052918101829052606081018290526080810182905260a0810182905260c0810182905260e081018290526101008101829052610120810182905261014081019190915290565b6040805160e081018252600080825260208201819052918101829052606081018290526080810182905260a0810182905260c081019190915290565b6040518060200160405280606081525090565b6040805160a08101825260008082526020820181905291810182905260608101829052608081019190915290565b604051806101800160405280600c906020820280388339509192915050565b604051806101000160405280600890602082028038833950919291505056fe4c6f616e56313a20436f6c6c61746572616c20726174696f206d757374206265207365742e4c6f616e56313a205072696e636970616c206465706f7369742073686f756c64206f63637572206f6e6c7920696e20456e67616765642073746174652e4c6f616e56313a2054616b6572206d75737420726570617920696e2066756c6c2e4c656e64696e6756313a20436f6c6c61746572616c20746f6b656e2061646472657373206d757374206265207365742e4c6f616e56313a20436f6c6c61746572616c206973206e6f74206465706f73697465642e4c6f616e56313a2054656e6f722064617973206d7573742062652067726561746572207468616e20322e4c6f616e56313a20546f6b656e206465706f736974657220756e737570706f727465642e4c6f616e56313a20436f6c6c61746572616c20697320616c7265616479206465706f73697465642e4c6f616e56313a20436f6c6c61746572616c206d757374206265206465706f736974656420696e2066756c6c2e536166654d6174683a206d756c7469706c69636174696f6e206f766572666c6f774c6f616e56313a20546f6b656e206465706f736974656420756e737570706f727465642e4c656e64696e6756313a204c656e64696e6720746f6b656e2061646472657373206d757374206265207365742e4c6f616e56313a204c656e64696e6720616d6f756e74206d757374206265207365742e4c6f616e56313a205072696e636970616c206465706f7369742073686f756c64206f63637572206f6e6c7920696e20496e697469617465642073746174652e4c6f616e56313a20456e676167656d656e74206475652064617973206d757374206265207365744c6f616e56313a205072696e636970616c206d757374206265206465706f736974656420696e2066756c6c2ea165627a7a723058203725c0b6a52afd36eb35961f81d7b87dfd1a113253c051908aaf68d502de38fe0029",
  "source": "pragma solidity ^0.5.0;\n\nimport \"../../escrow/EscrowBaseInterface.sol\";\nimport \"../../lib/math/SafeMath.sol\";\nimport \"../../lib/priceoracle/PriceOracleInterface.sol\";\nimport \"../../lib/protobuf/LendingData.sol\";\nimport \"../../lib/protobuf/InstrumentData.sol\";\nimport \"../../lib/protobuf/TokenTransfer.sol\";\nimport \"../../lib/token/IERC20.sol\";\nimport \"../../lib/util/Constants.sol\";\nimport \"../../lib/util/StringUtil.sol\";\nimport \"../../instrument/v3/InstrumentV3.sol\";\n\ncontract LendingV1 is InstrumentV3 {\n    using SafeMath for uint256;\n    using StringUtil for string;\n\n    event LendingCreated(uint256 indexed issuanceId, address escrowAddress, address makerAddress, uint256 creationTimestamp,\n        address collateralTokenAddress, address lendingTokenAddress, uint256 lendingAmount, uint256 principalDueTimestamp);\n\n    event LendingEngaged(uint256 indexed issuanceId, address takerAddress, uint256 engagementTimestamp,\n        uint256 collateralDueTimstamp, uint256 collateralTokenAmount);\n\n    // Constants\n    uint256 constant PRINCIPAL_DUE_DAYS = 2 days;               // Time available for maker to deposit principal\n    uint256 constant COLLATERAL_DUE_DAYS = 2 days;              // Time availabel for tabker to deposit collateral\n    uint256 constant COLLATERAL_RATIO_DECIMALS = 4;             // 0.01%\n    uint256 constant INTEREST_RATE_DECIMALS = 6;                // 0.0001%\n\n    // Scheduled event list\n    bytes32 constant PRINCIPAL_DUE_EVENT = \"principal_due\";\n    bytes32 constant ENGAGEMENT_DUE_EVENT = \"engagement_due\";\n    bytes32 constant COLLATERAL_DUE_EVENT = \"collateral_due\";\n    bytes32 constant LENDING_DUE_EVENT = \"lending_due\";\n\n    // Lending parameters\n    address private _lendingTokenAddress;\n    address private _collateralTokenAddress;\n    uint256 private _principalDueTimestamp;\n    uint256 private _engagementDueTimestamp;\n    uint256 private _collateralDueTimestamp;\n    uint256 private _lendingDueTimestamp;\n    uint256 private _engagementDueDays;\n    uint256 private _tenorDays;\n    uint256 private _lendingAmount;\n    uint256 private _collateralRatio;\n    uint256 private _interestAmount;\n    uint256 private _collateralAmount;\n    bool private _collateralComplete;\n\n    /**\n     * @dev Create a new issuance of the financial instrument\n     * @param issuanceParametersData Issuance Parameters.\n     * @param makerParametersData The custom parameters to the newly created issuance\n     * @return updatedState The new state of the issuance.\n     */\n    function createIssuance(bytes memory issuanceParametersData, bytes memory makerParametersData) public\n        returns (IssuanceStates updatedState) {\n\n        IssuanceParameters.Data memory issuanceParameters = IssuanceParameters.decode(issuanceParametersData);\n        LendingMakerParameters.Data memory makerParameters = LendingMakerParameters.decode(makerParametersData);\n\n        // Validate parameters\n        require(makerParameters.collateralTokenAddress != address(0x0), \"LendingV1: Collateral token address must be set.\");\n        require(makerParameters.lendingTokenAddress != address(0x0), \"LendingV1: Lending token address must be set.\");\n        require(makerParameters.lendingAmount > 0, \"LoanV1: Lending amount must be set.\");\n        require(makerParameters.collateralRatio > 0, \"LoanV1: Collateral ratio must be set.\");\n        require(makerParameters.engagementDueDays > 0, \"LoanV1: Engagement due days must be set\");\n        require(makerParameters.tenorDays * 1 days > COLLATERAL_DUE_DAYS, \"LoanV1: Tenor days must be greater than 2.\");\n\n        // Update lending parameters\n        _lendingTokenAddress = makerParameters.lendingTokenAddress;\n        _collateralTokenAddress = makerParameters.collateralTokenAddress;\n        _principalDueTimestamp = now + PRINCIPAL_DUE_DAYS;\n        _engagementDueDays = makerParameters.engagementDueDays;\n        _tenorDays = makerParameters.tenorDays;\n        _lendingAmount = makerParameters.lendingAmount;\n        _interestAmount = _lendingAmount.mul(makerParameters.tenorDays).mul(makerParameters.interestRate).div(INTEREST_RATE_DECIMALS);\n        _collateralRatio = makerParameters.collateralRatio;\n\n        // Scheduled Principal Due event\n        emit EventTimeScheduled(issuanceParameters.issuanceId, _principalDueTimestamp, PRINCIPAL_DUE_EVENT, \"\");\n\n        emit LendingCreated(issuanceParameters.issuanceId, issuanceParameters.escrowAddress, issuanceParameters.makerAddress, now,\n            _collateralTokenAddress, _lendingTokenAddress, _lendingAmount, _principalDueTimestamp);\n\n        return IssuanceStates.Initiated;\n    }\n\n    /**\n     * @dev A taker engages to the issuance\n     * @param issuanceParametersData Issuance Parameters.\n     * @return updatedState The new state of the issuance.\n     * @return transfersData The transfers to perform after the invocation\n     */\n    function engageIssuance(bytes memory issuanceParametersData, bytes memory /* takerParameters */) public\n        returns (IssuanceStates updatedState, bytes memory) {\n        IssuanceParameters.Data memory issuanceParameters = IssuanceParameters.decode(issuanceParametersData);\n\n        // Calculate the collateral amount. Collateral is calculated at the time of engagement.\n        PriceOracleInterface priceOracle = PriceOracleInterface(issuanceParameters.priceOracleAddress);\n        (uint256 numerator, uint256 denominator) = priceOracle.getRate(_lendingTokenAddress, _collateralTokenAddress);\n        _collateralAmount = numerator.mul(_lendingAmount).mul(_collateralRatio).div(COLLATERAL_RATIO_DECIMALS).div(denominator);\n        \n        // Scheduled Collateral Due event\n        _collateralDueTimestamp = now + COLLATERAL_DUE_DAYS;\n        emit EventTimeScheduled(issuanceParameters.issuanceId, _collateralDueTimestamp, COLLATERAL_DUE_EVENT, \"\");\n\n        // Scheduled Lending Due event\n        _lendingDueTimestamp = now + _tenorDays * 1 days;\n        emit EventTimeScheduled(issuanceParameters.issuanceId, _lendingDueTimestamp, LENDING_DUE_EVENT, \"\");\n\n        // Transition to Engaged state.\n        updatedState = IssuanceStates.Engaged;\n    }\n\n    /**\n     * @dev An account has made an ERC20 token deposit to the issuance\n     * @param issuanceParametersData Issuance Parameters.\n     * @param tokenAddress The address of the ERC20 token to deposit.\n     * @param amount The amount of ERC20 token to deposit.\n     * @return updatedState The new state of the issuance.\n     * @return updatedData The updated data of the issuance.\n     * @return transfersData The transfers to perform after the invocation\n     */\n    function processTokenDeposit(bytes memory issuanceParametersData, address tokenAddress, uint256 amount) public\n        returns (IssuanceStates updatedState, bytes memory transfersData) {\n\n        IssuanceParameters.Data memory issuanceParameters = IssuanceParameters.decode(issuanceParametersData);\n        updatedState = IssuanceStates(issuanceParameters.state);\n        // Deposited token should be either lending token or collateral token.\n        if (tokenAddress == _lendingTokenAddress) {\n            // Lending token deposit can be either principal deposit or repay.\n            if (issuanceParameters.callerAddress == issuanceParameters.makerAddress) {\n                // Principal deposit should happen only in Initiated state.\n                require(IssuanceStates(issuanceParameters.state) == IssuanceStates.Initiated, \"LoanV1: Principal deposit should occur only in Initiated state.\");\n                // Maker must deposit principal in full.\n                require(amount == _lendingAmount, \"LoanV1: Principal must be deposited in full.\");\n\n                // Transitioned to Engageable state.\n                updatedState = IssuanceStates.Engageable;\n\n                // Schedule Engagement Due event.\n                _engagementDueTimestamp = now + _engagementDueDays * 1 days;\n                emit EventTimeScheduled(issuanceParameters.issuanceId, _engagementDueTimestamp, ENGAGEMENT_DUE_EVENT, \"\");\n\n            } else if (issuanceParameters.callerAddress == issuanceParameters.takerAddress) {\n                // Principal deposit should happen only in Initiated state.\n                require(IssuanceStates(issuanceParameters.state) == IssuanceStates.Engaged, \"LoanV1: Principal deposit should occur only in Engaged state.\");\n                require(!_collateralComplete, \"LoanV1: Collateral is not deposited.\");\n\n                // Taker must deposit lending amount + interest amount in full.\n                require(amount == _lendingAmount + _interestAmount, \"LoanV1: Taker must repay in full.\");\n\n                // Early termination\n                updatedState = IssuanceStates.CompleteEngaged;\n                // Transfer principal + interest to maker and transfer collater to taker.\n                _release(issuanceParameters);\n            } else {\n                revert(\"LoanV1: Token depositer unsupported.\");\n            }\n        } else if (tokenAddress == _collateralTokenAddress) {\n            // Collateral token deposit can only be collateral deposit.\n            require(!_collateralComplete, \"LoanV1: Collateral is already deposited.\");\n            // Taker must deposit collateral in full.\n            require(amount == _collateralAmount, \"LoanV1: Collateral must be deposited in full.\");\n            \n            _collateralComplete = true;\n            // Transfer principal to taker.\n            transfersData = _transferPrincipalToTaker(issuanceParameters);\n        } else {\n            revert(\"LoanV1: Token deposited unsupported.\");\n        }\n    }\n\n\n    /**\n     * @dev An account has made an ERC20 token withdraw from the issuance\n     */\n    function processTokenWithdraw(bytes memory /* issuanceParametersData */, address /* tokenAddress */, uint256 /* amount */)\n        public returns (IssuanceStates, bytes memory) {\n\n        revert(\"LoanV1: Operation not supported.\");\n    }\n\n    /**\n     * @dev A custom event is triggered.\n     */\n    function processCustomEvent(bytes memory /* issuanceParametersData */, bytes32 /* eventName  */, bytes memory /* eventPayload */)\n        public returns (IssuanceStates, bytes memory) {\n\n        revert(\"LoanV1: Unsupported operation.\");\n    }\n\n    /**\n     * @dev A scheduled event is triggered.\n     * @param issuanceParametersData Issuance Parameters.\n     * @param eventName The name of the custom event.\n     * @return updatedState The new state of the issuance.\n     * @return updatedData The updated data of the issuance.\n     * @return transfersData The transfers to perform after the invocation\n     */\n    function processScheduledEvent(bytes memory issuanceParametersData, bytes32 eventName, bytes memory /* eventPayload */)\n        public returns (IssuanceStates updatedState, bytes memory transfersData) {\n\n        IssuanceParameters.Data memory issuanceParameters = IssuanceParameters.decode(issuanceParametersData);\n        updatedState = IssuanceStates(issuanceParameters.state);\n        if (eventName == PRINCIPAL_DUE_EVENT) {\n            // Principal is due if the issuance is in Initiated state\n            if (IssuanceStates(issuanceParameters.state) == IssuanceStates.Initiated) {\n                // Maker must deposit principal in full. Therefore, the maker principal token balance must be zero.\n                updatedState = IssuanceStates.Unfunded;\n            }\n        } else if (eventName == ENGAGEMENT_DUE_EVENT) {\n            // Engagement is due if the issuance is in Engageable state\n            if (IssuanceStates(issuanceParameters.state) == IssuanceStates.Engageable) {\n                updatedState = IssuanceStates.Unfunded;\n                transfersData = _transferPrincipalToMaker(issuanceParameters);\n            }\n        } else if (eventName == COLLATERAL_DUE_EVENT) {\n            // Collateral is due if _collateralComplete = false\n            if (!_collateralComplete) {\n                // Taker must deposit collateral in full. Therefore, the taker collateral token balance must be zero.\n                updatedState = IssuanceStates.Delinquent;\n                transfersData = _transferPrincipalToMaker(issuanceParameters);\n            }\n        } else if (eventName == LENDING_DUE_EVENT) {\n            // Lending is due if the issuance is not in Complate Engaged state\n            if (IssuanceStates(issuanceParameters.state) != IssuanceStates.CompleteEngaged) {\n                // Transfer collateral to maker.\n                transfersData = _transferCollateralToMaker(issuanceParameters);\n            }\n        }\n    }\n\n    function _transferPrincipalToMaker(IssuanceParameters.Data memory issuanceParameters) private view\n        returns (bytes memory transfersData) {\n        \n        Transfers.Data memory transfers = Transfers.Data(new Transfer.Data[](1));\n        transfers.actions[0] = Transfer.Data({\n            outbound: true,\n            fromAddress: issuanceParameters.makerAddress,\n            toAddress: issuanceParameters.makerAddress,\n            tokenAddress: _lendingTokenAddress,\n            amount: _lendingAmount\n        });\n        transfersData = Transfers.encode(transfers);\n    }\n\n    function _transferPrincipalToTaker(IssuanceParameters.Data memory issuanceParameters) private view\n        returns (bytes memory transfersData) {\n        \n        Transfers.Data memory transfers = Transfers.Data(new Transfer.Data[](1));\n        transfers.actions[0] = Transfer.Data({\n            outbound: true,\n            fromAddress: issuanceParameters.makerAddress,\n            toAddress: issuanceParameters.takerAddress,\n            tokenAddress: _lendingTokenAddress,\n            amount: _lendingAmount\n        });\n        transfersData = Transfers.encode(transfers);\n    }\n\n    function _transferCollateralToMaker(IssuanceParameters.Data memory issuanceParameters) private view\n        returns (bytes memory transfersData) {\n        \n        Transfers.Data memory transfers = Transfers.Data(new Transfer.Data[](1));\n        transfers.actions[0] = Transfer.Data({\n            outbound: true,\n            fromAddress: issuanceParameters.takerAddress,\n            toAddress: issuanceParameters.makerAddress,\n            tokenAddress: _collateralTokenAddress,\n            amount: _collateralAmount\n        });\n        transfersData = Transfers.encode(transfers);\n    }\n\n    function _release(IssuanceParameters.Data memory issuanceParameters) private view\n        returns (bytes memory transfersData) {\n        Transfers.Data memory transfers = Transfers.Data(new Transfer.Data[](2));\n        // Transfer lending amount + interest to maker.\n        transfers.actions[0] = Transfer.Data({\n            outbound: true,\n            fromAddress: issuanceParameters.takerAddress,\n            toAddress: issuanceParameters.makerAddress,\n            tokenAddress: _lendingTokenAddress,\n            amount: _lendingAmount + _interestAmount\n        });\n        // Transfer collateral to taker\n        transfers.actions[1] = Transfer.Data({\n            outbound: true,\n            fromAddress: issuanceParameters.takerAddress,\n            toAddress: issuanceParameters.takerAddress,\n            tokenAddress: _collateralTokenAddress,\n            amount: _collateralAmount\n        });\n        transfersData = Transfers.encode(transfers);\n    }\n}",
  "sourcePath": "/Users/shengdading/git/nuts-platform-v2/contracts/instruments/lending/LendingV1.sol",
  "compiler": {
    "name": "solc",
    "version": "0.5.8+commit.23d335f2.Emscripten.clang"
  },
  "schemaVersion": "3.0.16",
  "updatedAt": "2019-10-16T00:06:50.423Z",
  "devdoc": {
    "methods": {
      "createIssuance(bytes,bytes)": {
        "details": "Create a new issuance of the financial instrument",
        "params": {
          "issuanceParametersData": "Issuance Parameters.",
          "makerParametersData": "The custom parameters to the newly created issuance"
        },
        "return": "updatedState The new state of the issuance."
      },
      "engageIssuance(bytes,bytes)": {
        "details": "A taker engages to the issuance",
        "params": {
          "issuanceParametersData": "Issuance Parameters."
        },
        "return": "updatedState The new state of the issuance.transfersData The transfers to perform after the invocation"
      },
      "processCustomEvent(bytes,bytes32,bytes)": {
        "details": "A custom event is triggered."
      },
      "processScheduledEvent(bytes,bytes32,bytes)": {
        "details": "A scheduled event is triggered.",
        "params": {
          "eventName": "The name of the custom event.",
          "issuanceParametersData": "Issuance Parameters."
        },
        "return": "updatedState The new state of the issuance.updatedData The updated data of the issuance.transfersData The transfers to perform after the invocation"
      },
      "processTokenDeposit(bytes,address,uint256)": {
        "details": "An account has made an ERC20 token deposit to the issuance",
        "params": {
          "amount": "The amount of ERC20 token to deposit.",
          "issuanceParametersData": "Issuance Parameters.",
          "tokenAddress": "The address of the ERC20 token to deposit."
        },
        "return": "updatedState The new state of the issuance.updatedData The updated data of the issuance.transfersData The transfers to perform after the invocation"
      },
      "processTokenWithdraw(bytes,address,uint256)": {
        "details": "An account has made an ERC20 token withdraw from the issuance"
      }
    }
  },
  "userdoc": {
    "methods": {}
  }
}