{
  "contractName": "LendingV1",
  "abi": [
    {
      "anonymous": false,
      "inputs": [
        {
          "indexed": true,
          "name": "issuanceId",
          "type": "uint256"
        },
        {
          "indexed": false,
          "name": "escrowAddress",
          "type": "address"
        },
        {
          "indexed": false,
          "name": "makerAddress",
          "type": "address"
        },
        {
          "indexed": false,
          "name": "creationTimestamp",
          "type": "uint256"
        },
        {
          "indexed": false,
          "name": "collateralTokenAddress",
          "type": "address"
        },
        {
          "indexed": false,
          "name": "lendingTokenAddress",
          "type": "address"
        },
        {
          "indexed": false,
          "name": "lendingAmount",
          "type": "uint256"
        },
        {
          "indexed": false,
          "name": "principalDueTimestamp",
          "type": "uint256"
        }
      ],
      "name": "LendingCreated",
      "type": "event"
    },
    {
      "anonymous": false,
      "inputs": [
        {
          "indexed": true,
          "name": "issuanceId",
          "type": "uint256"
        },
        {
          "indexed": false,
          "name": "takerAddress",
          "type": "address"
        },
        {
          "indexed": false,
          "name": "engagementTimestamp",
          "type": "uint256"
        },
        {
          "indexed": false,
          "name": "collateralDueTimstamp",
          "type": "uint256"
        },
        {
          "indexed": false,
          "name": "collateralTokenAmount",
          "type": "uint256"
        }
      ],
      "name": "LendingEngaged",
      "type": "event"
    },
    {
      "anonymous": false,
      "inputs": [
        {
          "indexed": true,
          "name": "issuanceId",
          "type": "uint256"
        },
        {
          "indexed": false,
          "name": "timestamp",
          "type": "uint256"
        },
        {
          "indexed": false,
          "name": "eventName",
          "type": "bytes32"
        },
        {
          "indexed": false,
          "name": "eventPayload",
          "type": "bytes"
        }
      ],
      "name": "EventTimeScheduled",
      "type": "event"
    },
    {
      "anonymous": false,
      "inputs": [
        {
          "indexed": true,
          "name": "issuanceId",
          "type": "uint256"
        },
        {
          "indexed": false,
          "name": "blockNumber",
          "type": "uint256"
        },
        {
          "indexed": false,
          "name": "eventName",
          "type": "bytes32"
        },
        {
          "indexed": false,
          "name": "eventPayload",
          "type": "bytes"
        }
      ],
      "name": "EventBlockScheduled",
      "type": "event"
    },
    {
      "constant": false,
      "inputs": [
        {
          "name": "issuanceParametersData",
          "type": "bytes"
        },
        {
          "name": "makerParametersData",
          "type": "bytes"
        }
      ],
      "name": "createIssuance",
      "outputs": [
        {
          "name": "updatedState",
          "type": "uint8"
        }
      ],
      "payable": false,
      "stateMutability": "nonpayable",
      "type": "function"
    },
    {
      "constant": false,
      "inputs": [
        {
          "name": "issuanceParametersData",
          "type": "bytes"
        },
        {
          "name": "",
          "type": "bytes"
        }
      ],
      "name": "engageIssuance",
      "outputs": [
        {
          "name": "updatedState",
          "type": "uint8"
        },
        {
          "name": "",
          "type": "bytes"
        }
      ],
      "payable": false,
      "stateMutability": "nonpayable",
      "type": "function"
    },
    {
      "constant": false,
      "inputs": [
        {
          "name": "issuanceParametersData",
          "type": "bytes"
        },
        {
          "name": "tokenAddress",
          "type": "address"
        },
        {
          "name": "amount",
          "type": "uint256"
        }
      ],
      "name": "processTokenDeposit",
      "outputs": [
        {
          "name": "updatedState",
          "type": "uint8"
        },
        {
          "name": "transfersData",
          "type": "bytes"
        }
      ],
      "payable": false,
      "stateMutability": "nonpayable",
      "type": "function"
    },
    {
      "constant": false,
      "inputs": [
        {
          "name": "",
          "type": "bytes"
        },
        {
          "name": "",
          "type": "address"
        },
        {
          "name": "",
          "type": "uint256"
        }
      ],
      "name": "processTokenWithdraw",
      "outputs": [
        {
          "name": "",
          "type": "uint8"
        },
        {
          "name": "",
          "type": "bytes"
        }
      ],
      "payable": false,
      "stateMutability": "nonpayable",
      "type": "function"
    },
    {
      "constant": false,
      "inputs": [
        {
          "name": "issuanceParametersData",
          "type": "bytes"
        },
        {
          "name": "eventName",
          "type": "bytes32"
        },
        {
          "name": "",
          "type": "bytes"
        }
      ],
      "name": "processCustomEvent",
      "outputs": [
        {
          "name": "updatedState",
          "type": "uint8"
        },
        {
          "name": "transfersData",
          "type": "bytes"
        }
      ],
      "payable": false,
      "stateMutability": "nonpayable",
      "type": "function"
    }
  ],
  "bytecode": "0x608060405234801561001057600080fd5b50612c3f806100206000396000f3fe608060405234801561001057600080fd5b50600436106100675760003560e01c8063a674326b11610050578063a674326b146102e2578063c820052014610396578063cdfa837a146104c357610067565b8063488d61bc1461006c5780638ddd8d38146101ad575b600080fd5b6101206004803603606081101561008257600080fd5b81019060208101813564010000000081111561009d57600080fd5b8201836020820111156100af57600080fd5b803590602001918460018302840111640100000000831117156100d157600080fd5b91908080601f016020809104026020016040519081016040528093929190818152602001838380828437600092019190915250929550506001600160a01b038335169350505060200135610614565b6040518083600681111561013057fe5b60ff16815260200180602001828103825283818151815260200191508051906020019080838360005b83811015610171578181015183820152602001610159565b50505050905090810190601f16801561019e5780820380516001836020036101000a031916815260200191505b50935050505060405180910390f35b610120600480360360608110156101c357600080fd5b8101906020810181356401000000008111156101de57600080fd5b8201836020820111156101f057600080fd5b8035906020019184600183028401116401000000008311171561021257600080fd5b91908080601f0160208091040260200160405190810160405280939291908181526020018383808284376000920191909152509295843595909490935060408101925060200135905064010000000081111561026d57600080fd5b82018360208201111561027f57600080fd5b803590602001918460018302840111640100000000831117156102a157600080fd5b91908080601f01602080910402602001604051908101604052809392919081815260200183838082843760009201919091525092955061066a945050505050565b610120600480360360608110156102f857600080fd5b81019060208101813564010000000081111561031357600080fd5b82018360208201111561032557600080fd5b8035906020019184600183028401116401000000008311171561034757600080fd5b91908080601f016020809104026020016040519081016040528093929190818152602001838380828437600092019190915250929550506001600160a01b0383351693505050602001356107f1565b610120600480360360408110156103ac57600080fd5b8101906020810181356401000000008111156103c757600080fd5b8201836020820111156103d957600080fd5b803590602001918460018302840111640100000000831117156103fb57600080fd5b91908080601f016020809104026020016040519081016040528093929190818152602001838380828437600092019190915250929594936020810193503591505064010000000081111561044e57600080fd5b82018360208201111561046057600080fd5b8035906020019184600183028401116401000000008311171561048257600080fd5b91908080601f016020809104026020016040519081016040528093929190818152602001838380828437600092019190915250929550610bc7945050505050565b6105f0600480360360408110156104d957600080fd5b8101906020810181356401000000008111156104f457600080fd5b82018360208201111561050657600080fd5b8035906020019184600183028401116401000000008311171561052857600080fd5b91908080601f016020809104026020016040519081016040528093929190818152602001838380828437600092019190915250929594936020810193503591505064010000000081111561057b57600080fd5b82018360208201111561058d57600080fd5b803590602001918460018302840111640100000000831117156105af57600080fd5b91908080601f016020809104026020016040519081016040528093929190818152602001838380828437600092019190915250929550610dd4945050505050565b6040518082600681111561060057fe5b60ff16815260200191505060405180910390f35b60408051600160e51b62461bcd02815260206004820181905260248201527f4c6f616e56313a204f7065726174696f6e206e6f7420737570706f727465642e604482015290516000916060919081900360640190fd5b6000606061067661285b565b61067f86611170565b90508060e0015160ff16600681111561069457fe5b92507f7072696e636970616c5f647565000000000000000000000000000000000000008514156106ee5760008160e0015160ff1660068111156106d357fe5b60068111156106de57fe5b14156106e957600392505b6107e8565b7f656e676167656d656e745f6475650000000000000000000000000000000000008514156107505760018160e0015160ff16600681111561072b57fe5b600681111561073657fe5b14156106e9576003925061074981611195565b91506107e8565b7f636f6c6c61746572616c5f64756500000000000000000000000000000000000085141561078f57600c5460ff166106e9576006925061074981611195565b7f6c656e64696e675f6475650000000000000000000000000000000000000000008514156107e85760058160e0015160ff1660068111156107cc57fe5b60068111156107d757fe5b146107e8576107e581611248565b91505b50935093915050565b600060606107fd61285b565b61080686611170565b90508060e0015160ff16600681111561081b57fe5b6000549093506001600160a01b0386811691161415610ad95780606001516001600160a01b03168161012001516001600160a01b0316141561097e5760008160e0015160ff16600681111561086c57fe5b600681111561087757fe5b146108b657604051600160e51b62461bcd02815260040180806020018281038252603f815260200180612b82603f913960400191505060405180910390fd5b60085484146108f957604051600160e51b62461bcd02815260040180806020018281038252602c815260200180612be8602c913960400191505060405180910390fd5b60065442620151809091020160038190558151604080519283527f656e676167656d656e745f64756500000000000000000000000000000000000060208401526060838201819052600090840152516001955090917f45fa4618da0b13fc1ff1fd521cad6cfb8dd09ce9853821b14f7d095ceb1e305c919081900360a00190a26106e9565b8060a001516001600160a01b03168161012001516001600160a01b03161415610a9f5760028160e0015160ff1660068111156109b657fe5b60068111156109c157fe5b14610a0057604051600160e51b62461bcd02815260040180806020018281038252603d815260200180612998603d913960400191505060405180910390fd5b600c5460ff1615610a4557604051600160e51b62461bcd028152600401808060200182810382526024815260200180612a266024913960400191505060405180910390fd5b600a54600854018414610a8c57604051600160e51b62461bcd0281526004018080602001828103825260218152602001806129d56021913960400191505060405180910390fd5b60059250610a99816112e2565b506106e9565b604051600160e51b62461bcd028152600401808060200182810382526024815260200180612a746024913960400191505060405180910390fd5b6001546001600160a01b0386811691161415610b8d57600c5460ff1615610b3457604051600160e51b62461bcd028152600401808060200182810382526028815260200180612a986028913960400191505060405180910390fd5b600b548414610b7757604051600160e51b62461bcd02815260040180806020018281038252602d815260200180612ac0602d913960400191505060405180910390fd5b600c805460ff1916600117905561074981611421565b604051600160e51b62461bcd028152600401808060200182810382526024815260200180612b0e6024913960400191505060405180910390fd5b60006060610bd361285b565b610bdc85611170565b61014081015160008054600154604080517f379b87ea0000000000000000000000000000000000000000000000000000000081526001600160a01b039384166004820152918316602483015280519596509394929384939286169263379b87ea926044808201939291829003018186803b158015610c5957600080fd5b505afa158015610c6d573d6000803e3d6000fd5b505050506040513d6040811015610c8357600080fd5b508051602090910151600954600854929450909250610cd0918391610cc4916004918391610cb890899063ffffffff6114dc16565b9063ffffffff6114dc16565b9063ffffffff61153816565b600b55426202a3000160048190558451604080519283527f636f6c6c61746572616c5f647565000000000000000000000000000000000000602084015260608382018190526000908401525190917f45fa4618da0b13fc1ff1fd521cad6cfb8dd09ce9853821b14f7d095ceb1e305c919081900360a00190a260075442620151809091020160058190558451604080519283527f6c656e64696e675f647565000000000000000000000000000000000000000000602084015260608382018190526000908401525190917f45fa4618da0b13fc1ff1fd521cad6cfb8dd09ce9853821b14f7d095ceb1e305c919081900360a00190a260029550505050509250929050565b6000610dde61285b565b610de784611170565b9050610df16128b7565b610dfa8461157a565b80519091506001600160a01b0316610e4657604051600160e51b62461bcd0281526004018080602001828103825260308152602001806129f66030913960400191505060405180910390fd5b60208101516001600160a01b0316610e9257604051600160e51b62461bcd02815260040180806020018281038252602d815260200180612b32602d913960400191505060405180910390fd5b6000816040015111610ed857604051600160e51b62461bcd028152600401808060200182810382526023815260200180612b5f6023913960400191505060405180910390fd5b6000816060015163ffffffff1611610f2457604051600160e51b62461bcd0281526004018080602001828103825260258152602001806129736025913960400191505060405180910390fd5b6000816080015163ffffffff1611610f7057604051600160e51b62461bcd028152600401808060200182810382526027815260200180612bc16027913960400191505060405180910390fd5b6202a3008160a00151620151800263ffffffff1611610fc357604051600160e51b62461bcd02815260040180806020018281038252602a815260200180612a4a602a913960400191505060405180910390fd5b6020810151600080546001600160a01b039283167fffffffffffffffffffffffff000000000000000000000000000000000000000091821617909155825160018054919093169116179055426202a30001600255608081015163ffffffff908116600690815560a0830151821660078190556040840151600881905560c085015161105c94610cc49391811692610cb89290916114dc16565b600a5560608082015163ffffffff166009558251600254604080519182527f7072696e636970616c5f647565000000000000000000000000000000000000006020830152818101849052600093820193909352915190917f45fa4618da0b13fc1ff1fd521cad6cfb8dd09ce9853821b14f7d095ceb1e305c919081900360a00190a28151610100830151606080850151600154600054600854600254604080516001600160a01b03988916815295881660208701524286820152938716958501959095529416608083015260a082019390935260c081019190915290517fb90d16df8cd82cc891929311653ad7eb238bf20c26a0d76d84a90a67e937837f9181900360e00190a26000925050505b92915050565b61117861285b565b61118061285b565b61118d6020848551611597565b509392505050565b606061119f6128f3565b604080516001602082018181526060830190935290918291816020015b6111c4612906565b8152602001906001900390816111bc57505090526040805160a08101825260018152606086810180516001600160a01b03908116602085015290518116938301939093526000805490931690820152600854608082015282518051939450909290919061122d57fe5b602002602001018190525061124181611779565b9392505050565b60606112526128f3565b604080516001602082018181526060830190935290918291816020015b611277612906565b81526020019060019003908161126f57505090526040805160a080820183526001808352908701516001600160a01b03908116602084015260608089015182169484019490945290541691810191909152600b54608082015281518051929350909160009061122d57fe5b60606112ec6128f3565b604080516002602082018181526080830190935290918291816020015b611311612906565b8152602001906001900390816113095790505081525090506040518060a001604052806001151581526020018460a001516001600160a01b0316815260200184606001516001600160a01b031681526020016000809054906101000a90046001600160a01b03166001600160a01b03168152602001600a546008540181525081600001516000815181106113a157fe5b60200260200101819052506040518060a001604052806001151581526020018460a001516001600160a01b031681526020018460a001516001600160a01b03168152602001600160009054906101000a90046001600160a01b03166001600160a01b03168152602001600b54815250816000015160018151811061122d57fe5b606061142b6128f3565b604080516001602082018181526060830190935290918291816020015b611450612906565b8152602001906001900390816114485790505081525090506040518060a0016040528060011515815260200184606001516001600160a01b031681526020018460a001516001600160a01b031681526020016000809054906101000a90046001600160a01b03166001600160a01b03168152602001600854815250816000015160008151811061122d57fe5b6000826114eb5750600061116a565b828202828482816114f857fe5b041461124157604051600160e51b62461bcd028152600401808060200182810382526021815260200180612aed6021913960400191505060405180910390fd5b600061124183836040518060400160405280601a81526020017f536166654d6174683a206469766973696f6e206279207a65726f0000000000008152506117c9565b6115826128b7565b61158a6128b7565b61118d602084855161186e565b61159f61285b565b60006115a961285b565b6115b1612934565b6000808089805b898201811015611767576115cc818c6119ea565b91965094509250820160018514156115f0576115ea818c8989611a25565b01611762565b8460021415611605576115ea818c8989611a84565b846003141561161a576115ea818c8989611ad2565b846004141561162f576115ea818c8989611b20565b8460051415611644576115ea818c8989611b6e565b8460061415611659576115ea818c8989611bb4565b846007141561166e576115ea818c8989611c02565b8460081415611683576115ea818c8989611c48565b8460091415611698576115ea818c8989611c91565b84600a14156116ad576115ea818c8989611ce1565b84600b14156116c2576115ea818c8989611d31565b60018460058111156116d057fe5b14156116ea5760006116e2828d611d81565b929092019150505b60058460058111156116f857fe5b141561171257600061170a828d611da0565b929092019150505b600084600581111561172057fe5b141561173a576000611732828d611db2565b929092019150505b600284600581111561174857fe5b141561176257600061175a828d611e44565b929092019150505b6115b8565b50949a97995096975050505050505050565b60608061178583611f0b565b6040519080825280601f01601f1916602001820160405280156117af576020820181803883390190505b50905060006117c084602084611f56565b82525092915050565b6000818361185857604051600160e51b62461bcd0281526004018080602001828103825283818151815260200191508051906020019080838360005b8381101561181d578181015183820152602001611805565b50505050905090810190601f16801561184a5780820380516001836020036101000a031916815260200191505b509250505060405180910390fd5b50600083858161186457fe5b0495945050505050565b6118766128b7565b60006118806128b7565b611888612953565b6000808089805b898201811015611767576118a3818c6119ea565b91965094509250820160018514156118c7576118c1818c8989611fb0565b016119e5565b84600214156118dc576118c1818c8989611a84565b84600314156118f1576118c1818c8989611ff9565b8460041415611906576118c1818c898961203f565b846005141561191b576118c1818c898961208a565b8460061415611930576118c1818c89896120d5565b8460071415611945576118c1818c8989612120565b600184600581111561195357fe5b141561196d576000611965828d611d81565b929092019150505b600584600581111561197b57fe5b141561199557600061198d828d611da0565b929092019150505b60008460058111156119a357fe5b14156119bd5760006119b5828d611db2565b929092019150505b60028460058111156119cb57fe5b14156119e55760006119dd828d611e44565b929092019150505b61188f565b60008060008060006119fc8787611db2565b915091506000826007166005811115611a1157fe5b600890930498929750909550909350505050565b6000806000611a34878761216b565b91509150611a418561217d565b15611a5b57600184815b6020020180519091019052611a7a565b818552602084015115611a7a57600184815b6020020180519190910390525b9695505050505050565b6000806000611a938787612181565b91509150611aa08561217d565b15611aaf576001846002611a4b565b6001600160a01b0382166020860152604084015115611a7a576001846002611a6d565b6000806000611ae18787612181565b91509150611aee8561217d565b15611afd576001846003611a4b565b6001600160a01b0382166040860152606084015115611a7a576001846003611a6d565b6000806000611b2f8787612181565b91509150611b3c8561217d565b15611b4b576001846004611a4b565b6001600160a01b0382166060860152608084015115611a7a576001846004611a6d565b6000806000611b7d878761216b565b91509150611b8a8561217d565b15611b99576001846005611a4b565b6080850182905260a084015115611a7a576001846005611a6d565b6000806000611bc38787612181565b91509150611bd08561217d565b15611bdf576001846006611a4b565b6001600160a01b03821660a086015260c084015115611a7a576001846006611a6d565b6000806000611c11878761216b565b91509150611c1e8561217d565b15611c2d576001846007611a4b565b60c0850182905260e084015115611a7a576001846007611a6d565b6000806000611c5787876121a5565b91509150611c648561217d565b15611c73576001846008611a4b565b60ff821660e086015261010084015115611a7a576001846008611a6d565b6000806000611ca08787612181565b91509150611cad8561217d565b15611cbc576001846009611a4b565b6001600160a01b03821661010086015261012084015115611a7a576001846009611a6d565b6000806000611cf08787612181565b91509150611cfd8561217d565b15611d0c57600184600a611a4b565b6001600160a01b03821661012086015261014084015115611a7a57600184600a611a6d565b6000806000611d408787612181565b91509150611d4d8561217d565b15611d5c57600184600b611a4b565b6001600160a01b03821661014086015261016084015115611a7a57600184600b611a6d565b600080600080611d93868660086121b7565b9097909650945050505050565b600080600080611d93868660046121b7565b80519181019160009081908190819060200160805b6080811660801415611e37578688038211611e1257600160e51b62461bcd026000526020600452600f602452600160881b6e6c656e677468206f766572666c6f770260445260536000fd5b875160001a905080607f16836007021b84179350600183019250600188019750611dc7565b5091969095509350505050565b60606000806000611e558686611db2565b915091506060826040519080825280601f01601f191660200182016040528015611e86576020820181803883390190505b508651978701830197909150602090810190820160005b85811015611efb57888a038311611ee457600160e51b62461bcd026000526020600452600f602452600160881b6e6c656e677468206f766572666c6f770260445260536000fd5b895160001a82536001998a01999182019101611e9d565b5091955050500190509250929050565b600080805b835151811015611f4f57611f42611f3d85600001518381518110611f3057fe5b602002602001015161223d565b612243565b6001920182019101611f10565b5092915050565b60008280825b865151811015611fa657611f74600160028488612256565b82019150611f9a87600001518281518110611f8b57fe5b6020026020010151838761226c565b90910190600101611f5c565b5003949350505050565b6000806000611fbf8787612181565b91509150611fcc8561217d565b15611fda5760018481611a4b565b6001600160a01b0382168552602084015115611a7a5760018481611a6d565b6000806000612008878761216b565b915091506120158561217d565b15612024576001846003611a4b565b60408501829052606084015115611a7a576001846003611a6d565b600080600061204e8787612304565b9150915061205b8561217d565b1561206a576001846004611a4b565b63ffffffff82166060860152608084015115611a7a576001846004611a6d565b60008060006120998787612304565b915091506120a68561217d565b156120b5576001846005611a4b565b63ffffffff8216608086015260a084015115611a7a576001846005611a6d565b60008060006120e48787612304565b915091506120f18561217d565b15612100576001846006611a4b565b63ffffffff821660a086015260c084015115611a7a576001846006611a6d565b600080600061212f8787612304565b9150915061213c8561217d565b1561214b576001846007611a4b565b63ffffffff821660c086015260e084015115611a7a576001846007611a6d565b600080600080611d9360208787612312565b1590565b60008060008061219360148787612331565b60609190911c97909650945050505050565b600080600080611d9360018787612312565b81519282019260009081908190602001815b8581101561222f57868803821161221057600160e51b62461bcd026000526020600452600f602452600160881b6e6c656e677468206f766572666c6f770260445260536000fd5b875160001a816008021b831792506001880197506001810190506121c9565b509096939550929350505050565b50606e90565b600061224e82612473565b909101919050565b6000600885026007851617611a7a818585612490565b60008280606061227b8761223d565b6040519080825280601f01601f1916602001820160405280156122a5576020820181803883390190505b50905060006122b3826124d3565b905060006122c0876124d3565b905060006122d08a6020866124d6565b90506122dd81868a612490565b850194506122f18360200186840183612588565b9390930193909303979650505050505050565b600080600080611d93600487875b6000806000806123238787876125c9565b909890975095505050505050565b6000806000806123418686611db2565b90925090506020600860ff60038a011684840111156123ca57604080518082018252600f8152600160881b6e6c656e677468206f766572666c6f770260208083019182529251600160e51b62461bcd028152600481019384528251602482015282519293928392604490920191908083836000831561181d578181015183820152602001611805565b6003880197506000602088510189106040518060400160405280600f8152602001600160881b6e6c656e677468206f766572666c6f77028152509061245357604051600160e51b62461bcd02815260206004820181815283516024840152835190928392604490910191908501908083836000831561181d578181015183820152602001611805565b505087870151918490036002010290811c901b9350019050935093915050565b60071c600060015b821561116a5760079290921c9160010161247b565b600080828401607f86165b600787901c156124c3578060801782535060079590951c9460019182019101607f861661249b565b8082535050600101949350505050565b90565b600082806124e76001848387612256565b86519101906124f7908286612719565b016125056002808387612256565b8101905061251886602001518286612740565b01612527600360028387612256565b8101905061253a86604001518286612740565b01612549600460028387612256565b8101905061255c86606001518286612740565b0161256b600560028387612256565b8101905061257e86608001518286612760565b0103949350505050565b5b602081106125a8578251825260209283019290910190601f1901612589565b915181516020939093036101000a6000190180199091169216919091179052565b60008060008060006125db8787611db2565b915091508760030160ff16818301111561265f57604080518082018252600f8152600160881b6e6c656e677468206f766572666c6f770260208083019182529251600160e51b62461bcd028152600481019384528251602482015282519293928392604490920191908083836000831561181d578181015183820152602001611805565b600387019650602086510187106040518060400160405280600f8152602001600160881b6e6c656e677468206f766572666c6f7702815250906126e657604051600160e51b62461bcd02815260206004820181815283516024840152835190928392604490910191908501908083836000831561181d578181015183820152602001611805565b5086860151925060011982015b602081101561270b57610100840493506001016126f3565b509197910195509350505050565b600083156127345761272d60018484612490565b9050611241565b61272d60008484612490565b6000612758846001600160a01b03166014858561276b565b949350505050565b600061275884602085855b6003820191600090816127808786868961279e565b9485019490506127918183866127dc565b5050909203949350505050565b6000806127ab868461281d565b9050848401815b80156127d05787816020031a825360019190910190600019016127b2565b50909695505050505050565b6000826127ed600286018285612490565b840193506127ff600160028686612256565b8401935061280e858585612490565b90930192830390509392505050565b600060ff825b600719600882020182901b851615801561283d5750600081115b1561284b5760001901612823565b8061275857506001949350505050565b6040805161016081018252600080825260208201819052918101829052606081018290526080810182905260a0810182905260c0810182905260e081018290526101008101829052610120810182905261014081019190915290565b6040805160e081018252600080825260208201819052918101829052606081018290526080810182905260a0810182905260c081019190915290565b6040518060200160405280606081525090565b6040805160a08101825260008082526020820181905291810182905260608101829052608081019190915290565b604051806101800160405280600c906020820280388339509192915050565b604051806101000160405280600890602082028038833950919291505056fe4c6f616e56313a20436f6c6c61746572616c20726174696f206d757374206265207365742e4c6f616e56313a205072696e636970616c206465706f7369742073686f756c64206f63637572206f6e6c7920696e20456e67616765642073746174652e4c6f616e56313a2054616b6572206d75737420726570617920696e2066756c6c2e4c656e64696e6756313a20436f6c6c61746572616c20746f6b656e2061646472657373206d757374206265207365742e4c6f616e56313a20436f6c6c61746572616c206973206e6f74206465706f73697465642e4c6f616e56313a2054656e6f722064617973206d7573742062652067726561746572207468616e20322e4c6f616e56313a20546f6b656e206465706f736974657220756e737570706f727465642e4c6f616e56313a20436f6c6c61746572616c20697320616c7265616479206465706f73697465642e4c6f616e56313a20436f6c6c61746572616c206d757374206265206465706f736974656420696e2066756c6c2e536166654d6174683a206d756c7469706c69636174696f6e206f766572666c6f774c6f616e56313a20546f6b656e206465706f736974656420756e737570706f727465642e4c656e64696e6756313a204c656e64696e6720746f6b656e2061646472657373206d757374206265207365742e4c6f616e56313a204c656e64696e6720616d6f756e74206d757374206265207365742e4c6f616e56313a205072696e636970616c206465706f7369742073686f756c64206f63637572206f6e6c7920696e20496e697469617465642073746174652e4c6f616e56313a20456e676167656d656e74206475652064617973206d757374206265207365744c6f616e56313a205072696e636970616c206d757374206265206465706f736974656420696e2066756c6c2ea165627a7a7230582010cd6494a81ecc6da27b0408f8d3887f31d444104f769de943b78499d386e9080029",
  "source": "pragma solidity ^0.5.0;\n\nimport \"../../escrow/EscrowBaseInterface.sol\";\nimport \"../../lib/math/SafeMath.sol\";\nimport \"../../lib/priceoracle/PriceOracleInterface.sol\";\nimport \"../../lib/protobuf/LendingData.sol\";\nimport \"../../lib/protobuf/InstrumentData.sol\";\nimport \"../../lib/protobuf/TokenTransfer.sol\";\nimport \"../../lib/token/IERC20.sol\";\nimport \"../../lib/util/Constants.sol\";\nimport \"../../lib/util/StringUtil.sol\";\nimport \"../../instrument/v3/InstrumentV3.sol\";\n\ncontract LendingV1 is InstrumentV3 {\n    using SafeMath for uint256;\n    using StringUtil for string;\n\n    event LendingCreated(uint256 indexed issuanceId, address escrowAddress, address makerAddress, uint256 creationTimestamp,\n        address collateralTokenAddress, address lendingTokenAddress, uint256 lendingAmount, uint256 principalDueTimestamp);\n\n    event LendingEngaged(uint256 indexed issuanceId, address takerAddress, uint256 engagementTimestamp,\n        uint256 collateralDueTimstamp, uint256 collateralTokenAmount);\n\n    // Constants\n    uint256 constant PRINCIPAL_DUE_DAYS = 2 days;               // Time available for maker to deposit principal\n    uint256 constant COLLATERAL_DUE_DAYS = 2 days;              // Time availabel for tabker to deposit collateral\n    uint256 constant COLLATERAL_RATIO_DECIMALS = 4;             // 0.01%\n    uint256 constant INTEREST_RATE_DECIMALS = 6;                // 0.0001%\n\n    // Scheduled event list\n    bytes32 constant PRINCIPAL_DUE_EVENT = \"principal_due\";\n    bytes32 constant ENGAGEMENT_DUE_EVENT = \"engagement_due\";\n    bytes32 constant COLLATERAL_DUE_EVENT = \"collateral_due\";\n    bytes32 constant LENDING_DUE_EVENT = \"lending_due\";\n\n    // Lending parameters\n    address private _lendingTokenAddress;\n    address private _collateralTokenAddress;\n    uint256 private _principalDueTimestamp;\n    uint256 private _engagementDueTimestamp;\n    uint256 private _collateralDueTimestamp;\n    uint256 private _lendingDueTimestamp;\n    uint256 private _engagementDueDays;\n    uint256 private _tenorDays;\n    uint256 private _lendingAmount;\n    uint256 private _collateralRatio;\n    uint256 private _interestAmount;\n    uint256 private _collateralAmount;\n    bool private _collateralComplete;\n\n    /**\n     * @dev Create a new issuance of the financial instrument\n     * @param issuanceParametersData Issuance Parameters.\n     * @param makerParametersData The custom parameters to the newly created issuance\n     * @return updatedState The new state of the issuance.\n     */\n    function createIssuance(bytes memory issuanceParametersData, bytes memory makerParametersData) public\n        returns (IssuanceStates updatedState) {\n\n        IssuanceParameters.Data memory issuanceParameters = IssuanceParameters.decode(issuanceParametersData);\n        LendingMakerParameters.Data memory makerParameters = LendingMakerParameters.decode(makerParametersData);\n\n        // Validate parameters\n        require(makerParameters.collateralTokenAddress != address(0x0), \"LendingV1: Collateral token address must be set.\");\n        require(makerParameters.lendingTokenAddress != address(0x0), \"LendingV1: Lending token address must be set.\");\n        require(makerParameters.lendingAmount > 0, \"LoanV1: Lending amount must be set.\");\n        require(makerParameters.collateralRatio > 0, \"LoanV1: Collateral ratio must be set.\");\n        require(makerParameters.engagementDueDays > 0, \"LoanV1: Engagement due days must be set\");\n        require(makerParameters.tenorDays * 1 days > COLLATERAL_DUE_DAYS, \"LoanV1: Tenor days must be greater than 2.\");\n\n        // Update lending parameters\n        _lendingTokenAddress = makerParameters.lendingTokenAddress;\n        _collateralTokenAddress = makerParameters.collateralTokenAddress;\n        _principalDueTimestamp = now + PRINCIPAL_DUE_DAYS;\n        _engagementDueDays = makerParameters.engagementDueDays;\n        _tenorDays = makerParameters.tenorDays;\n        _lendingAmount = makerParameters.lendingAmount;\n        _interestAmount = _lendingAmount.mul(makerParameters.tenorDays).mul(makerParameters.interestRate).div(INTEREST_RATE_DECIMALS);\n        _collateralRatio = makerParameters.collateralRatio;\n\n        // Scheduled Principal Due event\n        emit EventTimeScheduled(issuanceParameters.issuanceId, _principalDueTimestamp, PRINCIPAL_DUE_EVENT, \"\");\n\n        emit LendingCreated(issuanceParameters.issuanceId, issuanceParameters.escrowAddress, issuanceParameters.makerAddress, now,\n            _collateralTokenAddress, _lendingTokenAddress, _lendingAmount, _principalDueTimestamp);\n\n        return IssuanceStates.Initiated;\n    }\n\n    /**\n     * @dev A taker engages to the issuance\n     * @param issuanceParametersData Issuance Parameters.\n     * @return updatedState The new state of the issuance.\n     * @return transfersData The transfers to perform after the invocation\n     */\n    function engageIssuance(bytes memory issuanceParametersData, bytes memory /* takerParameters */) public\n        returns (IssuanceStates updatedState, bytes memory) {\n        IssuanceParameters.Data memory issuanceParameters = IssuanceParameters.decode(issuanceParametersData);\n\n        // Calculate the collateral amount. Collateral is calculated at the time of engagement.\n        PriceOracleInterface priceOracle = PriceOracleInterface(issuanceParameters.priceOracleAddress);\n        (uint256 numerator, uint256 denominator) = priceOracle.getRate(_lendingTokenAddress, _collateralTokenAddress);\n        _collateralAmount = numerator.mul(_lendingAmount).mul(_collateralRatio).div(COLLATERAL_RATIO_DECIMALS).div(denominator);\n        \n        // Scheduled Collateral Due event\n        _collateralDueTimestamp = now + COLLATERAL_DUE_DAYS;\n        emit EventTimeScheduled(issuanceParameters.issuanceId, _collateralDueTimestamp, COLLATERAL_DUE_EVENT, \"\");\n\n        // Scheduled Lending Due event\n        _lendingDueTimestamp = now + _tenorDays * 1 days;\n        emit EventTimeScheduled(issuanceParameters.issuanceId, _lendingDueTimestamp, LENDING_DUE_EVENT, \"\");\n\n        // Transition to Engaged state.\n        updatedState = IssuanceStates.Engaged;\n    }\n\n    /**\n     * @dev An account has made an ERC20 token deposit to the issuance\n     * @param issuanceParametersData Issuance Parameters.\n     * @param tokenAddress The address of the ERC20 token to deposit.\n     * @param amount The amount of ERC20 token to deposit.\n     * @return updatedState The new state of the issuance.\n     * @return updatedData The updated data of the issuance.\n     * @return transfersData The transfers to perform after the invocation\n     */\n    function processTokenDeposit(bytes memory issuanceParametersData, address tokenAddress, uint256 amount) public\n        returns (IssuanceStates updatedState, bytes memory transfersData) {\n\n        IssuanceParameters.Data memory issuanceParameters = IssuanceParameters.decode(issuanceParametersData);\n        updatedState = IssuanceStates(issuanceParameters.state);\n        // Deposited token should be either lending token or collateral token.\n        if (tokenAddress == _lendingTokenAddress) {\n            // Lending token deposit can be either principal deposit or repay.\n            if (issuanceParameters.callerAddress == issuanceParameters.makerAddress) {\n                // Principal deposit should happen only in Initiated state.\n                require(IssuanceStates(issuanceParameters.state) == IssuanceStates.Initiated, \"LoanV1: Principal deposit should occur only in Initiated state.\");\n                // Maker must deposit principal in full.\n                require(amount == _lendingAmount, \"LoanV1: Principal must be deposited in full.\");\n\n                // Transitioned to Engageable state.\n                updatedState = IssuanceStates.Engageable;\n\n                // Schedule Engagement Due event.\n                _engagementDueTimestamp = now + _engagementDueDays * 1 days;\n                emit EventTimeScheduled(issuanceParameters.issuanceId, _engagementDueTimestamp, ENGAGEMENT_DUE_EVENT, \"\");\n\n            } else if (issuanceParameters.callerAddress == issuanceParameters.takerAddress) {\n                // Principal deposit should happen only in Initiated state.\n                require(IssuanceStates(issuanceParameters.state) == IssuanceStates.Engaged, \"LoanV1: Principal deposit should occur only in Engaged state.\");\n                require(!_collateralComplete, \"LoanV1: Collateral is not deposited.\");\n\n                // Taker must deposit lending amount + interest amount in full.\n                require(amount == _lendingAmount + _interestAmount, \"LoanV1: Taker must repay in full.\");\n\n                // Early termination\n                updatedState = IssuanceStates.CompleteEngaged;\n                // Transfer principal + interest to maker and transfer collater to taker.\n                _release(issuanceParameters);\n            } else {\n                revert(\"LoanV1: Token depositer unsupported.\");\n            }\n        } else if (tokenAddress == _collateralTokenAddress) {\n            // Collateral token deposit can only be collateral deposit.\n            require(!_collateralComplete, \"LoanV1: Collateral is already deposited.\");\n            // Taker must deposit collateral in full.\n            require(amount == _collateralAmount, \"LoanV1: Collateral must be deposited in full.\");\n            \n            _collateralComplete = true;\n            // Transfer principal to taker.\n            transfersData = _transferPrincipalToTaker(issuanceParameters);\n        } else {\n            revert(\"LoanV1: Token deposited unsupported.\");\n        }\n    }\n\n\n    /**\n     * @dev An account has made an ERC20 token withdraw from the issuance\n     */\n    function processTokenWithdraw(bytes memory /* issuanceParametersData */, address /* tokenAddress */, uint256 /* amount */)\n        public returns (IssuanceStates, bytes memory) {\n\n        revert(\"LoanV1: Operation not supported.\");\n    }\n\n    /**\n     * @dev A custom event is triggered.\n     * @param issuanceParametersData Issuance Parameters.\n     * @param eventName The name of the custom event.\n     * @return updatedState The new state of the issuance.\n     * @return updatedData The updated data of the issuance.\n     * @return transfersData The transfers to perform after the invocation\n     */\n    function processCustomEvent(bytes memory issuanceParametersData, bytes32 eventName, bytes memory /* eventPayload */)\n        public returns (IssuanceStates updatedState, bytes memory transfersData) {\n\n        IssuanceParameters.Data memory issuanceParameters = IssuanceParameters.decode(issuanceParametersData);\n        updatedState = IssuanceStates(issuanceParameters.state);\n        if (eventName == PRINCIPAL_DUE_EVENT) {\n            // Principal is due if the issuance is in Initiated state\n            if (IssuanceStates(issuanceParameters.state) == IssuanceStates.Initiated) {\n                // Maker must deposit principal in full. Therefore, the maker principal token balance must be zero.\n                updatedState = IssuanceStates.Unfunded;\n            }\n        } else if (eventName == ENGAGEMENT_DUE_EVENT) {\n            // Engagement is due if the issuance is in Engageable state\n            if (IssuanceStates(issuanceParameters.state) == IssuanceStates.Engageable) {\n                updatedState = IssuanceStates.Unfunded;\n                transfersData = _transferPrincipalToMaker(issuanceParameters);\n            }\n        } else if (eventName == COLLATERAL_DUE_EVENT) {\n            // Collateral is due if _collateralComplete = false\n            if (!_collateralComplete) {\n                // Taker must deposit collateral in full. Therefore, the taker collateral token balance must be zero.\n                updatedState = IssuanceStates.Delinquent;\n                transfersData = _transferPrincipalToMaker(issuanceParameters);\n            }\n        } else if (eventName == LENDING_DUE_EVENT) {\n            // Lending is due if the issuance is not in Complate Engaged state\n            if (IssuanceStates(issuanceParameters.state) != IssuanceStates.CompleteEngaged) {\n                // Transfer collateral to maker.\n                transfersData = _transferCollateralToMaker(issuanceParameters);\n            }\n        }\n    }\n\n    function _transferPrincipalToMaker(IssuanceParameters.Data memory issuanceParameters) private view\n        returns (bytes memory transfersData) {\n        \n        Transfers.Data memory transfers = Transfers.Data(new Transfer.Data[](1));\n        transfers.actions[0] = Transfer.Data({\n            outbound: true,\n            fromAddress: issuanceParameters.makerAddress,\n            toAddress: issuanceParameters.makerAddress,\n            tokenAddress: _lendingTokenAddress,\n            amount: _lendingAmount\n        });\n        transfersData = Transfers.encode(transfers);\n    }\n\n    function _transferPrincipalToTaker(IssuanceParameters.Data memory issuanceParameters) private view\n        returns (bytes memory transfersData) {\n        \n        Transfers.Data memory transfers = Transfers.Data(new Transfer.Data[](1));\n        transfers.actions[0] = Transfer.Data({\n            outbound: true,\n            fromAddress: issuanceParameters.makerAddress,\n            toAddress: issuanceParameters.takerAddress,\n            tokenAddress: _lendingTokenAddress,\n            amount: _lendingAmount\n        });\n        transfersData = Transfers.encode(transfers);\n    }\n\n    function _transferCollateralToMaker(IssuanceParameters.Data memory issuanceParameters) private view\n        returns (bytes memory transfersData) {\n        \n        Transfers.Data memory transfers = Transfers.Data(new Transfer.Data[](1));\n        transfers.actions[0] = Transfer.Data({\n            outbound: true,\n            fromAddress: issuanceParameters.takerAddress,\n            toAddress: issuanceParameters.makerAddress,\n            tokenAddress: _collateralTokenAddress,\n            amount: _collateralAmount\n        });\n        transfersData = Transfers.encode(transfers);\n    }\n\n    function _release(IssuanceParameters.Data memory issuanceParameters) private view\n        returns (bytes memory transfersData) {\n        Transfers.Data memory transfers = Transfers.Data(new Transfer.Data[](2));\n        // Transfer lending amount + interest to maker.\n        transfers.actions[0] = Transfer.Data({\n            outbound: true,\n            fromAddress: issuanceParameters.takerAddress,\n            toAddress: issuanceParameters.makerAddress,\n            tokenAddress: _lendingTokenAddress,\n            amount: _lendingAmount + _interestAmount\n        });\n        // Transfer collateral to taker\n        transfers.actions[1] = Transfer.Data({\n            outbound: true,\n            fromAddress: issuanceParameters.takerAddress,\n            toAddress: issuanceParameters.takerAddress,\n            tokenAddress: _collateralTokenAddress,\n            amount: _collateralAmount\n        });\n        transfersData = Transfers.encode(transfers);\n    }\n}",
  "sourcePath": "/Users/shengdading/git/nuts-platform-v2/contracts/instruments/lending/LendingV1.sol",
  "compiler": {
    "name": "solc",
    "version": "0.5.8+commit.23d335f2.Emscripten.clang"
  },
  "schemaVersion": "3.0.16",
  "updatedAt": "2019-10-16T02:07:15.689Z",
  "devdoc": {
    "methods": {
      "createIssuance(bytes,bytes)": {
        "details": "Create a new issuance of the financial instrument",
        "params": {
          "issuanceParametersData": "Issuance Parameters.",
          "makerParametersData": "The custom parameters to the newly created issuance"
        },
        "return": "updatedState The new state of the issuance."
      },
      "engageIssuance(bytes,bytes)": {
        "details": "A taker engages to the issuance",
        "params": {
          "issuanceParametersData": "Issuance Parameters."
        },
        "return": "updatedState The new state of the issuance.transfersData The transfers to perform after the invocation"
      },
      "processCustomEvent(bytes,bytes32,bytes)": {
        "details": "A custom event is triggered.",
        "params": {
          "eventName": "The name of the custom event.",
          "issuanceParametersData": "Issuance Parameters."
        },
        "return": "updatedState The new state of the issuance.updatedData The updated data of the issuance.transfersData The transfers to perform after the invocation"
      },
      "processTokenDeposit(bytes,address,uint256)": {
        "details": "An account has made an ERC20 token deposit to the issuance",
        "params": {
          "amount": "The amount of ERC20 token to deposit.",
          "issuanceParametersData": "Issuance Parameters.",
          "tokenAddress": "The address of the ERC20 token to deposit."
        },
        "return": "updatedState The new state of the issuance.updatedData The updated data of the issuance.transfersData The transfers to perform after the invocation"
      },
      "processTokenWithdraw(bytes,address,uint256)": {
        "details": "An account has made an ERC20 token withdraw from the issuance"
      }
    }
  },
  "userdoc": {
    "methods": {}
  }
}