{
  "contractName": "LendingV1",
  "abi": [
    {
      "anonymous": false,
      "inputs": [
        {
          "indexed": true,
          "name": "issuanceId",
          "type": "uint256"
        },
        {
          "indexed": false,
          "name": "timestamp",
          "type": "uint256"
        },
        {
          "indexed": false,
          "name": "eventName",
          "type": "bytes32"
        },
        {
          "indexed": false,
          "name": "eventPayload",
          "type": "bytes"
        }
      ],
      "name": "EventTimeScheduled",
      "type": "event"
    },
    {
      "anonymous": false,
      "inputs": [
        {
          "indexed": true,
          "name": "issuanceId",
          "type": "uint256"
        },
        {
          "indexed": false,
          "name": "blockNumber",
          "type": "uint256"
        },
        {
          "indexed": false,
          "name": "eventName",
          "type": "bytes32"
        },
        {
          "indexed": false,
          "name": "eventPayload",
          "type": "bytes"
        }
      ],
      "name": "EventBlockScheduled",
      "type": "event"
    },
    {
      "constant": false,
      "inputs": [
        {
          "name": "issuanceParametersData",
          "type": "bytes"
        },
        {
          "name": "makerParametersData",
          "type": "bytes"
        }
      ],
      "name": "createIssuance",
      "outputs": [
        {
          "name": "updatedState",
          "type": "uint8"
        }
      ],
      "payable": false,
      "stateMutability": "nonpayable",
      "type": "function"
    },
    {
      "constant": false,
      "inputs": [
        {
          "name": "issuanceParametersData",
          "type": "bytes"
        },
        {
          "name": "",
          "type": "bytes"
        }
      ],
      "name": "engageIssuance",
      "outputs": [
        {
          "name": "updatedState",
          "type": "uint8"
        },
        {
          "name": "",
          "type": "bytes"
        }
      ],
      "payable": false,
      "stateMutability": "nonpayable",
      "type": "function"
    },
    {
      "constant": false,
      "inputs": [
        {
          "name": "issuanceParametersData",
          "type": "bytes"
        },
        {
          "name": "tokenAddress",
          "type": "address"
        },
        {
          "name": "amount",
          "type": "uint256"
        }
      ],
      "name": "processTokenDeposit",
      "outputs": [
        {
          "name": "updatedState",
          "type": "uint8"
        },
        {
          "name": "transfersData",
          "type": "bytes"
        }
      ],
      "payable": false,
      "stateMutability": "nonpayable",
      "type": "function"
    },
    {
      "constant": false,
      "inputs": [
        {
          "name": "",
          "type": "bytes"
        },
        {
          "name": "",
          "type": "address"
        },
        {
          "name": "",
          "type": "uint256"
        }
      ],
      "name": "processTokenWithdraw",
      "outputs": [
        {
          "name": "",
          "type": "uint8"
        },
        {
          "name": "",
          "type": "bytes"
        }
      ],
      "payable": false,
      "stateMutability": "nonpayable",
      "type": "function"
    },
    {
      "constant": false,
      "inputs": [
        {
          "name": "",
          "type": "bytes"
        },
        {
          "name": "",
          "type": "bytes32"
        },
        {
          "name": "",
          "type": "bytes"
        }
      ],
      "name": "processCustomEvent",
      "outputs": [
        {
          "name": "",
          "type": "uint8"
        },
        {
          "name": "",
          "type": "bytes"
        }
      ],
      "payable": false,
      "stateMutability": "nonpayable",
      "type": "function"
    },
    {
      "constant": false,
      "inputs": [
        {
          "name": "issuanceParametersData",
          "type": "bytes"
        },
        {
          "name": "eventName",
          "type": "bytes32"
        },
        {
          "name": "",
          "type": "bytes"
        }
      ],
      "name": "processScheduledEvent",
      "outputs": [
        {
          "name": "updatedState",
          "type": "uint8"
        },
        {
          "name": "transfersData",
          "type": "bytes"
        }
      ],
      "payable": false,
      "stateMutability": "nonpayable",
      "type": "function"
    }
  ],
  "bytecode": "0x608060405234801561001057600080fd5b50612d5c806100206000396000f3fe608060405234801561001057600080fd5b50600436106100725760003560e01c8063c820052011610050578063c8200520146103a1578063cdfa837a146104ce578063e3e41ef11461061f57610072565b8063488d61bc146100775780638ddd8d38146101b8578063a674326b146102ed575b600080fd5b61012b6004803603606081101561008d57600080fd5b8101906020810181356401000000008111156100a857600080fd5b8201836020820111156100ba57600080fd5b803590602001918460018302840111640100000000831117156100dc57600080fd5b91908080601f016020809104026020016040519081016040528093929190818152602001838380828437600092019190915250929550506001600160a01b038335169350505060200135610754565b6040518083600681111561013b57fe5b60ff16815260200180602001828103825283818151815260200191508051906020019080838360005b8381101561017c578181015183820152602001610164565b50505050905090810190601f1680156101a95780820380516001836020036101000a031916815260200191505b50935050505060405180910390f35b61012b600480360360608110156101ce57600080fd5b8101906020810181356401000000008111156101e957600080fd5b8201836020820111156101fb57600080fd5b8035906020019184600183028401116401000000008311171561021d57600080fd5b91908080601f0160208091040260200160405190810160405280939291908181526020018383808284376000920191909152509295843595909490935060408101925060200135905064010000000081111561027857600080fd5b82018360208201111561028a57600080fd5b803590602001918460018302840111640100000000831117156102ac57600080fd5b91908080601f0160208091040260200160405190810160405280939291908181526020018383808284376000920191909152509295506107aa945050505050565b61012b6004803603606081101561030357600080fd5b81019060208101813564010000000081111561031e57600080fd5b82018360208201111561033057600080fd5b8035906020019184600183028401116401000000008311171561035257600080fd5b91908080601f016020809104026020016040519081016040528093929190818152602001838380828437600092019190915250929550506001600160a01b038335169350505060200135610800565b61012b600480360360408110156103b757600080fd5b8101906020810181356401000000008111156103d257600080fd5b8201836020820111156103e457600080fd5b8035906020019184600183028401116401000000008311171561040657600080fd5b91908080601f016020809104026020016040519081016040528093929190818152602001838380828437600092019190915250929594936020810193503591505064010000000081111561045957600080fd5b82018360208201111561046b57600080fd5b8035906020019184600183028401116401000000008311171561048d57600080fd5b91908080601f016020809104026020016040519081016040528093929190818152602001838380828437600092019190915250929550610beb945050505050565b6105fb600480360360408110156104e457600080fd5b8101906020810181356401000000008111156104ff57600080fd5b82018360208201111561051157600080fd5b8035906020019184600183028401116401000000008311171561053357600080fd5b91908080601f016020809104026020016040519081016040528093929190818152602001838380828437600092019190915250929594936020810193503591505064010000000081111561058657600080fd5b82018360208201111561059857600080fd5b803590602001918460018302840111640100000000831117156105ba57600080fd5b91908080601f016020809104026020016040519081016040528093929190818152602001838380828437600092019190915250929550610df8945050505050565b6040518082600681111561060b57fe5b60ff16815260200191505060405180910390f35b61012b6004803603606081101561063557600080fd5b81019060208101813564010000000081111561065057600080fd5b82018360208201111561066257600080fd5b8035906020019184600183028401116401000000008311171561068457600080fd5b91908080601f016020809104026020016040519081016040528093929190818152602001838380828437600092019190915250929584359590949093506040810192506020013590506401000000008111156106df57600080fd5b8201836020820111156106f157600080fd5b8035906020019184600183028401116401000000008311171561071357600080fd5b91908080601f01602080910402602001604051908101604052809392919081815260200183838082843760009201919091525092955061110f945050505050565b60408051600160e51b62461bcd02815260206004820181905260248201527f4c6f616e56313a204f7065726174696f6e206e6f7420737570706f727465642e604482015290516000916060919081900360640190fd5b60408051600160e51b62461bcd02815260206004820152601e60248201527f4c6f616e56313a20556e737570706f72746564206f7065726174696f6e2e0000604482015290516000916060919081900360640190fd5b6000606061080c612978565b6108158661128d565b90508060e0015160ff16600681111561082a57fe5b6000549093506001600160a01b0386811691161415610aed5780606001516001600160a01b03168161012001516001600160a01b0316141561098d5760008160e0015160ff16600681111561087b57fe5b600681111561088657fe5b146108c557604051600160e51b62461bcd02815260040180806020018281038252603f815260200180612c9f603f913960400191505060405180910390fd5b600854841461090857604051600160e51b62461bcd02815260040180806020018281038252602c815260200180612d05602c913960400191505060405180910390fd5b60065442620151809091020160038190558151604080519283527f656e676167656d656e745f64756500000000000000000000000000000000000060208401526060838201819052600090840152516001955090917f45fa4618da0b13fc1ff1fd521cad6cfb8dd09ce9853821b14f7d095ceb1e305c919081900360a00190a2610ae8565b8060a001516001600160a01b03168161012001516001600160a01b03161415610aae5760028160e0015160ff1660068111156109c557fe5b60068111156109d057fe5b14610a0f57604051600160e51b62461bcd02815260040180806020018281038252603d815260200180612ab5603d913960400191505060405180910390fd5b600c5460ff1615610a5457604051600160e51b62461bcd028152600401808060200182810382526024815260200180612b436024913960400191505060405180910390fd5b600a54600854018414610a9b57604051600160e51b62461bcd028152600401808060200182810382526021815260200180612af26021913960400191505060405180910390fd5b60059250610aa8816112b2565b50610ae8565b604051600160e51b62461bcd028152600401808060200182810382526024815260200180612b916024913960400191505060405180910390fd5b610be2565b6001546001600160a01b0386811691161415610ba857600c5460ff1615610b4857604051600160e51b62461bcd028152600401808060200182810382526028815260200180612bb56028913960400191505060405180910390fd5b600b548414610b8b57604051600160e51b62461bcd02815260040180806020018281038252602d815260200180612bdd602d913960400191505060405180910390fd5b600c805460ff19166001179055610ba18161140c565b9150610be2565b604051600160e51b62461bcd028152600401808060200182810382526024815260200180612c2b6024913960400191505060405180910390fd5b50935093915050565b60006060610bf7612978565b610c008561128d565b61014081015160008054600154604080517f379b87ea0000000000000000000000000000000000000000000000000000000081526001600160a01b039384166004820152918316602483015280519596509394929384939286169263379b87ea926044808201939291829003018186803b158015610c7d57600080fd5b505afa158015610c91573d6000803e3d6000fd5b505050506040513d6040811015610ca757600080fd5b508051602090910151600954600854929450909250610cf4918391610ce8916004918391610cdc90899063ffffffff6114c716565b9063ffffffff6114c716565b9063ffffffff61152316565b600b55426202a3000160048190558451604080519283527f636f6c6c61746572616c5f647565000000000000000000000000000000000000602084015260608382018190526000908401525190917f45fa4618da0b13fc1ff1fd521cad6cfb8dd09ce9853821b14f7d095ceb1e305c919081900360a00190a260075442620151809091020160058190558451604080519283527f6c656e64696e675f647565000000000000000000000000000000000000000000602084015260608382018190526000908401525190917f45fa4618da0b13fc1ff1fd521cad6cfb8dd09ce9853821b14f7d095ceb1e305c919081900360a00190a260029550505050509250929050565b6000610e02612978565b610e0b8461128d565b9050610e156129d4565b610e1e84611565565b80519091506001600160a01b0316610e6a57604051600160e51b62461bcd028152600401808060200182810382526030815260200180612b136030913960400191505060405180910390fd5b60208101516001600160a01b0316610eb657604051600160e51b62461bcd02815260040180806020018281038252602d815260200180612c4f602d913960400191505060405180910390fd5b6000816040015111610efc57604051600160e51b62461bcd028152600401808060200182810382526023815260200180612c7c6023913960400191505060405180910390fd5b6000816060015163ffffffff1611610f4857604051600160e51b62461bcd028152600401808060200182810382526025815260200180612a906025913960400191505060405180910390fd5b6000816080015163ffffffff1611610f9457604051600160e51b62461bcd028152600401808060200182810382526027815260200180612cde6027913960400191505060405180910390fd5b6202a3008160a00151620151800263ffffffff1611610fe757604051600160e51b62461bcd02815260040180806020018281038252602a815260200180612b67602a913960400191505060405180910390fd5b6020810151600080546001600160a01b039283167fffffffffffffffffffffffff000000000000000000000000000000000000000091821617909155825160018054919093169116179055426202a30001600255608081015163ffffffff908116600690815560a0830151821660078190556040840151600881905560c085015161108094610ce89391811692610cdc9290916114c716565b600a5560608082015163ffffffff166009558251600254604080519182527f7072696e636970616c5f647565000000000000000000000000000000000000006020830152818101849052600093820193909352915190917f45fa4618da0b13fc1ff1fd521cad6cfb8dd09ce9853821b14f7d095ceb1e305c919081900360a00190a26000925050505b92915050565b6000606061111b612978565b6111248661128d565b90508060e0015160ff16600681111561113957fe5b92507f7072696e636970616c5f647565000000000000000000000000000000000000008514156111925760008160e0015160ff16600681111561117857fe5b600681111561118357fe5b1415610ae85760039250610be2565b7f656e676167656d656e745f6475650000000000000000000000000000000000008514156111ed5760018160e0015160ff1660068111156111cf57fe5b60068111156111da57fe5b1415610ae85760039250610ba181611582565b7f636f6c6c61746572616c5f64756500000000000000000000000000000000000085141561122c57600c5460ff16610ae85760069250610ba181611582565b7f6c656e64696e675f647565000000000000000000000000000000000000000000851415610be25760058160e0015160ff16600681111561126957fe5b600681111561127457fe5b14610be2576112828161161a565b915050935093915050565b611295612978565b61129d612978565b6112aa60208485516116b4565b509392505050565b60606112bc612a10565b604080516002602082018181526080830190935290918291816020015b6112e1612a23565b8152602001906001900390816112d95790505081525090506040518060a001604052806001151581526020018460a001516001600160a01b0316815260200184606001516001600160a01b031681526020016000809054906101000a90046001600160a01b03166001600160a01b03168152602001600a5460085401815250816000015160008151811061137157fe5b60200260200101819052506040518060a001604052806001151581526020018460a001516001600160a01b031681526020018460a001516001600160a01b03168152602001600160009054906101000a90046001600160a01b03166001600160a01b03168152602001600b5481525081600001516001815181106113f157fe5b602002602001018190525061140581611896565b9392505050565b6060611416612a10565b604080516001602082018181526060830190935290918291816020015b61143b612a23565b8152602001906001900390816114335790505081525090506040518060a0016040528060011515815260200184606001516001600160a01b031681526020018460a001516001600160a01b031681526020016000809054906101000a90046001600160a01b03166001600160a01b0316815260200160085481525081600001516000815181106113f157fe5b6000826114d657506000611109565b828202828482816114e357fe5b041461140557604051600160e51b62461bcd028152600401808060200182810382526021815260200180612c0a6021913960400191505060405180910390fd5b600061140583836040518060400160405280601a81526020017f536166654d6174683a206469766973696f6e206279207a65726f0000000000008152506118e6565b61156d6129d4565b6115756129d4565b6112aa602084855161198b565b606061158c612a10565b604080516001602082018181526060830190935290918291816020015b6115b1612a23565b8152602001906001900390816115a957505090526040805160a08101825260018152606086810180516001600160a01b0390811660208501529051811693830193909352600080549093169082015260085460808201528251805193945090929091906113f157fe5b6060611624612a10565b604080516001602082018181526060830190935290918291816020015b611649612a23565b81526020019060019003908161164157505090526040805160a080820183526001808352908701516001600160a01b03908116602084015260608089015182169484019490945290541691810191909152600b5460808201528151805192935090916000906113f157fe5b6116bc612978565b60006116c6612978565b6116ce612a51565b6000808089805b898201811015611884576116e9818c611b07565b919650945092508201600185141561170d57611707818c8989611b42565b0161187f565b846002141561172257611707818c8989611ba1565b846003141561173757611707818c8989611bef565b846004141561174c57611707818c8989611c3d565b846005141561176157611707818c8989611c8b565b846006141561177657611707818c8989611cd1565b846007141561178b57611707818c8989611d1f565b84600814156117a057611707818c8989611d65565b84600914156117b557611707818c8989611dae565b84600a14156117ca57611707818c8989611dfe565b84600b14156117df57611707818c8989611e4e565b60018460058111156117ed57fe5b14156118075760006117ff828d611e9e565b929092019150505b600584600581111561181557fe5b141561182f576000611827828d611ebd565b929092019150505b600084600581111561183d57fe5b141561185757600061184f828d611ecf565b929092019150505b600284600581111561186557fe5b141561187f576000611877828d611f61565b929092019150505b6116d5565b50949a97995096975050505050505050565b6060806118a283612028565b6040519080825280601f01601f1916602001820160405280156118cc576020820181803883390190505b50905060006118dd84602084612073565b82525092915050565b6000818361197557604051600160e51b62461bcd0281526004018080602001828103825283818151815260200191508051906020019080838360005b8381101561193a578181015183820152602001611922565b50505050905090810190601f1680156119675780820380516001836020036101000a031916815260200191505b509250505060405180910390fd5b50600083858161198157fe5b0495945050505050565b6119936129d4565b600061199d6129d4565b6119a5612a70565b6000808089805b898201811015611884576119c0818c611b07565b91965094509250820160018514156119e4576119de818c89896120cd565b01611b02565b84600214156119f9576119de818c8989611ba1565b8460031415611a0e576119de818c8989612116565b8460041415611a23576119de818c898961215c565b8460051415611a38576119de818c89896121a7565b8460061415611a4d576119de818c89896121f2565b8460071415611a62576119de818c898961223d565b6001846005811115611a7057fe5b1415611a8a576000611a82828d611e9e565b929092019150505b6005846005811115611a9857fe5b1415611ab2576000611aaa828d611ebd565b929092019150505b6000846005811115611ac057fe5b1415611ada576000611ad2828d611ecf565b929092019150505b6002846005811115611ae857fe5b1415611b02576000611afa828d611f61565b929092019150505b6119ac565b6000806000806000611b198787611ecf565b915091506000826007166005811115611b2e57fe5b600890930498929750909550909350505050565b6000806000611b518787612288565b91509150611b5e8561229a565b15611b7857600184815b6020020180519091019052611b97565b818552602084015115611b9757600184815b6020020180519190910390525b9695505050505050565b6000806000611bb0878761229e565b91509150611bbd8561229a565b15611bcc576001846002611b68565b6001600160a01b0382166020860152604084015115611b97576001846002611b8a565b6000806000611bfe878761229e565b91509150611c0b8561229a565b15611c1a576001846003611b68565b6001600160a01b0382166040860152606084015115611b97576001846003611b8a565b6000806000611c4c878761229e565b91509150611c598561229a565b15611c68576001846004611b68565b6001600160a01b0382166060860152608084015115611b97576001846004611b8a565b6000806000611c9a8787612288565b91509150611ca78561229a565b15611cb6576001846005611b68565b6080850182905260a084015115611b97576001846005611b8a565b6000806000611ce0878761229e565b91509150611ced8561229a565b15611cfc576001846006611b68565b6001600160a01b03821660a086015260c084015115611b97576001846006611b8a565b6000806000611d2e8787612288565b91509150611d3b8561229a565b15611d4a576001846007611b68565b60c0850182905260e084015115611b97576001846007611b8a565b6000806000611d7487876122c2565b91509150611d818561229a565b15611d90576001846008611b68565b60ff821660e086015261010084015115611b97576001846008611b8a565b6000806000611dbd878761229e565b91509150611dca8561229a565b15611dd9576001846009611b68565b6001600160a01b03821661010086015261012084015115611b97576001846009611b8a565b6000806000611e0d878761229e565b91509150611e1a8561229a565b15611e2957600184600a611b68565b6001600160a01b03821661012086015261014084015115611b9757600184600a611b8a565b6000806000611e5d878761229e565b91509150611e6a8561229a565b15611e7957600184600b611b68565b6001600160a01b03821661014086015261016084015115611b9757600184600b611b8a565b600080600080611eb0868660086122d4565b9097909650945050505050565b600080600080611eb0868660046122d4565b80519181019160009081908190819060200160805b6080811660801415611f54578688038211611f2f57600160e51b62461bcd026000526020600452600f602452600160881b6e6c656e677468206f766572666c6f770260445260536000fd5b875160001a905080607f16836007021b84179350600183019250600188019750611ee4565b5091969095509350505050565b60606000806000611f728686611ecf565b915091506060826040519080825280601f01601f191660200182016040528015611fa3576020820181803883390190505b508651978701830197909150602090810190820160005b8581101561201857888a03831161200157600160e51b62461bcd026000526020600452600f602452600160881b6e6c656e677468206f766572666c6f770260445260536000fd5b895160001a82536001998a01999182019101611fba565b5091955050500190509250929050565b600080805b83515181101561206c5761205f61205a8560000151838151811061204d57fe5b602002602001015161235a565b612360565b600192018201910161202d565b5092915050565b60008280825b8651518110156120c357612091600160028488612373565b820191506120b7876000015182815181106120a857fe5b60200260200101518387612389565b90910190600101612079565b5003949350505050565b60008060006120dc878761229e565b915091506120e98561229a565b156120f75760018481611b68565b6001600160a01b0382168552602084015115611b975760018481611b8a565b60008060006121258787612288565b915091506121328561229a565b15612141576001846003611b68565b60408501829052606084015115611b97576001846003611b8a565b600080600061216b8787612421565b915091506121788561229a565b15612187576001846004611b68565b63ffffffff82166060860152608084015115611b97576001846004611b8a565b60008060006121b68787612421565b915091506121c38561229a565b156121d2576001846005611b68565b63ffffffff8216608086015260a084015115611b97576001846005611b8a565b60008060006122018787612421565b9150915061220e8561229a565b1561221d576001846006611b68565b63ffffffff821660a086015260c084015115611b97576001846006611b8a565b600080600061224c8787612421565b915091506122598561229a565b15612268576001846007611b68565b63ffffffff821660c086015260e084015115611b97576001846007611b8a565b600080600080611eb06020878761242f565b1590565b6000806000806122b06014878761244e565b60609190911c97909650945050505050565b600080600080611eb06001878761242f565b81519282019260009081908190602001815b8581101561234c57868803821161232d57600160e51b62461bcd026000526020600452600f602452600160881b6e6c656e677468206f766572666c6f770260445260536000fd5b875160001a816008021b831792506001880197506001810190506122e6565b509096939550929350505050565b50606e90565b600061236b82612590565b909101919050565b6000600885026007851617611b978185856125ad565b6000828060606123988761235a565b6040519080825280601f01601f1916602001820160405280156123c2576020820181803883390190505b50905060006123d0826125f0565b905060006123dd876125f0565b905060006123ed8a6020866125f3565b90506123fa81868a6125ad565b8501945061240e83602001868401836126a5565b9390930193909303979650505050505050565b600080600080611eb0600487875b6000806000806124408787876126e6565b909890975095505050505050565b60008060008061245e8686611ecf565b90925090506020600860ff60038a011684840111156124e757604080518082018252600f8152600160881b6e6c656e677468206f766572666c6f770260208083019182529251600160e51b62461bcd028152600481019384528251602482015282519293928392604490920191908083836000831561193a578181015183820152602001611922565b6003880197506000602088510189106040518060400160405280600f8152602001600160881b6e6c656e677468206f766572666c6f77028152509061257057604051600160e51b62461bcd02815260206004820181815283516024840152835190928392604490910191908501908083836000831561193a578181015183820152602001611922565b505087870151918490036002010290811c901b9350019050935093915050565b60071c600060015b82156111095760079290921c91600101612598565b600080828401607f86165b600787901c156125e0578060801782535060079590951c9460019182019101607f86166125b8565b8082535050600101949350505050565b90565b600082806126046001848387612373565b8651910190612614908286612836565b016126226002808387612373565b810190506126358660200151828661285d565b01612644600360028387612373565b810190506126578660400151828661285d565b01612666600460028387612373565b810190506126798660600151828661285d565b01612688600560028387612373565b8101905061269b8660800151828661287d565b0103949350505050565b5b602081106126c5578251825260209283019290910190601f19016126a6565b915181516020939093036101000a6000190180199091169216919091179052565b60008060008060006126f88787611ecf565b915091508760030160ff16818301111561277c57604080518082018252600f8152600160881b6e6c656e677468206f766572666c6f770260208083019182529251600160e51b62461bcd028152600481019384528251602482015282519293928392604490920191908083836000831561193a578181015183820152602001611922565b600387019650602086510187106040518060400160405280600f8152602001600160881b6e6c656e677468206f766572666c6f77028152509061280357604051600160e51b62461bcd02815260206004820181815283516024840152835190928392604490910191908501908083836000831561193a578181015183820152602001611922565b5086860151925060011982015b60208110156128285761010084049350600101612810565b509197910195509350505050565b600083156128515761284a600184846125ad565b9050611405565b61284a600084846125ad565b6000612875846001600160a01b031660148585612888565b949350505050565b600061287584602085855b60038201916000908161289d878686896128bb565b9485019490506128ae8183866128f9565b5050909203949350505050565b6000806128c8868461293a565b9050848401815b80156128ed5787816020031a825360019190910190600019016128cf565b50909695505050505050565b60008261290a6002860182856125ad565b8401935061291c600160028686612373565b8401935061292b8585856125ad565b90930192830390509392505050565b600060ff825b600719600882020182901b851615801561295a5750600081115b156129685760001901612940565b8061287557506001949350505050565b6040805161016081018252600080825260208201819052918101829052606081018290526080810182905260a0810182905260c0810182905260e081018290526101008101829052610120810182905261014081019190915290565b6040805160e081018252600080825260208201819052918101829052606081018290526080810182905260a0810182905260c081019190915290565b6040518060200160405280606081525090565b6040805160a08101825260008082526020820181905291810182905260608101829052608081019190915290565b604051806101800160405280600c906020820280388339509192915050565b604051806101000160405280600890602082028038833950919291505056fe4c6f616e56313a20436f6c6c61746572616c20726174696f206d757374206265207365742e4c6f616e56313a205072696e636970616c206465706f7369742073686f756c64206f63637572206f6e6c7920696e20456e67616765642073746174652e4c6f616e56313a2054616b6572206d75737420726570617920696e2066756c6c2e4c656e64696e6756313a20436f6c6c61746572616c20746f6b656e2061646472657373206d757374206265207365742e4c6f616e56313a20436f6c6c61746572616c206973206e6f74206465706f73697465642e4c6f616e56313a2054656e6f722064617973206d7573742062652067726561746572207468616e20322e4c6f616e56313a20546f6b656e206465706f736974657220756e737570706f727465642e4c6f616e56313a20436f6c6c61746572616c20697320616c7265616479206465706f73697465642e4c6f616e56313a20436f6c6c61746572616c206d757374206265206465706f736974656420696e2066756c6c2e536166654d6174683a206d756c7469706c69636174696f6e206f766572666c6f774c6f616e56313a20546f6b656e206465706f736974656420756e737570706f727465642e4c656e64696e6756313a204c656e64696e6720746f6b656e2061646472657373206d757374206265207365742e4c6f616e56313a204c656e64696e6720616d6f756e74206d757374206265207365742e4c6f616e56313a205072696e636970616c206465706f7369742073686f756c64206f63637572206f6e6c7920696e20496e697469617465642073746174652e4c6f616e56313a20456e676167656d656e74206475652064617973206d757374206265207365744c6f616e56313a205072696e636970616c206d757374206265206465706f736974656420696e2066756c6c2ea165627a7a72305820143c9dd2b90d509008772909fd8774067465cbec63c9a3955034fe2c68ed45380029",
  "source": "pragma solidity ^0.5.0;\n\nimport \"../../escrow/EscrowBaseInterface.sol\";\nimport \"../../lib/math/SafeMath.sol\";\nimport \"../../lib/priceoracle/PriceOracleInterface.sol\";\nimport \"../../lib/protobuf/LendingData.sol\";\nimport \"../../lib/protobuf/InstrumentData.sol\";\nimport \"../../lib/protobuf/TokenTransfer.sol\";\nimport \"../../lib/token/IERC20.sol\";\nimport \"../../lib/util/Constants.sol\";\nimport \"../../lib/util/StringUtil.sol\";\nimport \"../../instrument/v3/InstrumentV3.sol\";\n\ncontract LendingV1 is InstrumentV3 {\n    using SafeMath for uint256;\n    using StringUtil for string;\n\n    // Constants\n    uint256 constant PRINCIPAL_DUE_DAYS = 2 days;               // Time available for maker to deposit principal\n    uint256 constant COLLATERAL_DUE_DAYS = 2 days;              // Time availabel for tabker to deposit collateral\n    uint256 constant COLLATERAL_RATIO_DECIMALS = 4;             // 0.01%\n    uint256 constant INTEREST_RATE_DECIMALS = 6;                // 0.0001%\n\n    // Scheduled event list\n    bytes32 constant PRINCIPAL_DUE_EVENT = \"principal_due\";\n    bytes32 constant ENGAGEMENT_DUE_EVENT = \"engagement_due\";\n    bytes32 constant COLLATERAL_DUE_EVENT = \"collateral_due\";\n    bytes32 constant LENDING_DUE_EVENT = \"lending_due\";\n\n    // Lending parameters\n    address private _lendingTokenAddress;\n    address private _collateralTokenAddress;\n    uint256 private _principalDueTimestamp;\n    uint256 private _engagementDueTimestamp;\n    uint256 private _collateralDueTimestamp;\n    uint256 private _lendingDueTimestamp;\n    uint256 private _engagementDueDays;\n    uint256 private _tenorDays;\n    uint256 private _lendingAmount;\n    uint256 private _collateralRatio;\n    uint256 private _interestAmount;\n    uint256 private _collateralAmount;\n    bool private _collateralComplete;\n\n    /**\n     * @dev Create a new issuance of the financial instrument\n     * @param issuanceParametersData Issuance Parameters.\n     * @param makerParametersData The custom parameters to the newly created issuance\n     * @return updatedState The new state of the issuance.\n     */\n    function createIssuance(bytes memory issuanceParametersData, bytes memory makerParametersData) public\n        returns (IssuanceStates updatedState) {\n\n        IssuanceParameters.Data memory issuanceParameters = IssuanceParameters.decode(issuanceParametersData);\n        LendingMakerParameters.Data memory makerParameters = LendingMakerParameters.decode(makerParametersData);\n\n        // Validate parameters\n        require(makerParameters.collateralTokenAddress != address(0x0), \"LendingV1: Collateral token address must be set.\");\n        require(makerParameters.lendingTokenAddress != address(0x0), \"LendingV1: Lending token address must be set.\");\n        require(makerParameters.lendingAmount > 0, \"LoanV1: Lending amount must be set.\");\n        require(makerParameters.collateralRatio > 0, \"LoanV1: Collateral ratio must be set.\");\n        require(makerParameters.engagementDueDays > 0, \"LoanV1: Engagement due days must be set\");\n        require(makerParameters.tenorDays * 1 days > COLLATERAL_DUE_DAYS, \"LoanV1: Tenor days must be greater than 2.\");\n\n        // Update lending parameters\n        _lendingTokenAddress = makerParameters.lendingTokenAddress;\n        _collateralTokenAddress = makerParameters.collateralTokenAddress;\n        _principalDueTimestamp = now + PRINCIPAL_DUE_DAYS;\n        _engagementDueDays = makerParameters.engagementDueDays;\n        _tenorDays = makerParameters.tenorDays;\n        _lendingAmount = makerParameters.lendingAmount;\n        _interestAmount = _lendingAmount.mul(makerParameters.tenorDays).mul(makerParameters.interestRate).div(INTEREST_RATE_DECIMALS);\n        _collateralRatio = makerParameters.collateralRatio;\n\n        // Scheduled Principal Due event\n        emit EventTimeScheduled(issuanceParameters.issuanceId, _principalDueTimestamp, PRINCIPAL_DUE_EVENT, \"\");\n\n        return IssuanceStates.Initiated;\n    }\n\n    /**\n     * @dev A taker engages to the issuance\n     * @param issuanceParametersData Issuance Parameters.\n     * @return updatedState The new state of the issuance.\n     * @return transfersData The transfers to perform after the invocation\n     */\n    function engageIssuance(bytes memory issuanceParametersData, bytes memory /* takerParameters */) public\n        returns (IssuanceStates updatedState, bytes memory) {\n        IssuanceParameters.Data memory issuanceParameters = IssuanceParameters.decode(issuanceParametersData);\n\n        // Calculate the collateral amount. Collateral is calculated at the time of engagement.\n        PriceOracleInterface priceOracle = PriceOracleInterface(issuanceParameters.priceOracleAddress);\n        (uint256 numerator, uint256 denominator) = priceOracle.getRate(_lendingTokenAddress, _collateralTokenAddress);\n        _collateralAmount = numerator.mul(_lendingAmount).mul(_collateralRatio).div(COLLATERAL_RATIO_DECIMALS).div(denominator);\n        \n        // Scheduled Collateral Due event\n        _collateralDueTimestamp = now + COLLATERAL_DUE_DAYS;\n        emit EventTimeScheduled(issuanceParameters.issuanceId, _collateralDueTimestamp, COLLATERAL_DUE_EVENT, \"\");\n\n        // Scheduled Lending Due event\n        _lendingDueTimestamp = now + _tenorDays * 1 days;\n        emit EventTimeScheduled(issuanceParameters.issuanceId, _lendingDueTimestamp, LENDING_DUE_EVENT, \"\");\n\n        // Transition to Engaged state.\n        updatedState = IssuanceStates.Engaged;\n    }\n\n    /**\n     * @dev An account has made an ERC20 token deposit to the issuance\n     * @param issuanceParametersData Issuance Parameters.\n     * @param tokenAddress The address of the ERC20 token to deposit.\n     * @param amount The amount of ERC20 token to deposit.\n     * @return updatedState The new state of the issuance.\n     * @return updatedData The updated data of the issuance.\n     * @return transfersData The transfers to perform after the invocation\n     */\n    function processTokenDeposit(bytes memory issuanceParametersData, address tokenAddress, uint256 amount) public\n        returns (IssuanceStates updatedState, bytes memory transfersData) {\n\n        IssuanceParameters.Data memory issuanceParameters = IssuanceParameters.decode(issuanceParametersData);\n        updatedState = IssuanceStates(issuanceParameters.state);\n        // Deposited token should be either lending token or collateral token.\n        if (tokenAddress == _lendingTokenAddress) {\n            // Lending token deposit can be either principal deposit or repay.\n            if (issuanceParameters.callerAddress == issuanceParameters.makerAddress) {\n                // Principal deposit should happen only in Initiated state.\n                require(IssuanceStates(issuanceParameters.state) == IssuanceStates.Initiated, \"LoanV1: Principal deposit should occur only in Initiated state.\");\n                // Maker must deposit principal in full.\n                require(amount == _lendingAmount, \"LoanV1: Principal must be deposited in full.\");\n\n                // Transitioned to Engageable state.\n                updatedState = IssuanceStates.Engageable;\n\n                // Schedule Engagement Due event.\n                _engagementDueTimestamp = now + _engagementDueDays * 1 days;\n                emit EventTimeScheduled(issuanceParameters.issuanceId, _engagementDueTimestamp, ENGAGEMENT_DUE_EVENT, \"\");\n\n            } else if (issuanceParameters.callerAddress == issuanceParameters.takerAddress) {\n                // Principal deposit should happen only in Initiated state.\n                require(IssuanceStates(issuanceParameters.state) == IssuanceStates.Engaged, \"LoanV1: Principal deposit should occur only in Engaged state.\");\n                require(!_collateralComplete, \"LoanV1: Collateral is not deposited.\");\n\n                // Taker must deposit lending amount + interest amount in full.\n                require(amount == _lendingAmount + _interestAmount, \"LoanV1: Taker must repay in full.\");\n\n                // Early termination\n                updatedState = IssuanceStates.CompleteEngaged;\n                // Transfer principal + interest to maker and transfer collater to taker.\n                _release(issuanceParameters);\n            } else {\n                revert(\"LoanV1: Token depositer unsupported.\");\n            }\n        } else if (tokenAddress == _collateralTokenAddress) {\n            // Collateral token deposit can only be collateral deposit.\n            require(!_collateralComplete, \"LoanV1: Collateral is already deposited.\");\n            // Taker must deposit collateral in full.\n            require(amount == _collateralAmount, \"LoanV1: Collateral must be deposited in full.\");\n            \n            _collateralComplete = true;\n            // Transfer principal to taker.\n            transfersData = _transferPrincipalToTaker(issuanceParameters);\n        } else {\n            revert(\"LoanV1: Token deposited unsupported.\");\n        }\n    }\n\n\n    /**\n     * @dev An account has made an ERC20 token withdraw from the issuance\n     */\n    function processTokenWithdraw(bytes memory /* issuanceParametersData */, address /* tokenAddress */, uint256 /* amount */)\n        public returns (IssuanceStates, bytes memory) {\n\n        revert(\"LoanV1: Operation not supported.\");\n    }\n\n    /**\n     * @dev A custom event is triggered.\n     */\n    function processCustomEvent(bytes memory /* issuanceParametersData */, bytes32 /* eventName  */, bytes memory /* eventPayload */)\n        public returns (IssuanceStates, bytes memory) {\n\n        revert(\"LoanV1: Unsupported operation.\");\n    }\n\n    /**\n     * @dev A scheduled event is triggered.\n     * @param issuanceParametersData Issuance Parameters.\n     * @param eventName The name of the custom event.\n     * @return updatedState The new state of the issuance.\n     * @return updatedData The updated data of the issuance.\n     * @return transfersData The transfers to perform after the invocation\n     */\n    function processScheduledEvent(bytes memory issuanceParametersData, bytes32 eventName, bytes memory /* eventPayload */)\n        public returns (IssuanceStates updatedState, bytes memory transfersData) {\n\n        IssuanceParameters.Data memory issuanceParameters = IssuanceParameters.decode(issuanceParametersData);\n        updatedState = IssuanceStates(issuanceParameters.state);\n        if (eventName == PRINCIPAL_DUE_EVENT) {\n            // Principal is due if the issuance is in Initiated state\n            if (IssuanceStates(issuanceParameters.state) == IssuanceStates.Initiated) {\n                // Maker must deposit principal in full. Therefore, the maker principal token balance must be zero.\n                updatedState = IssuanceStates.Unfunded;\n            }\n        } else if (eventName == ENGAGEMENT_DUE_EVENT) {\n            // Engagement is due if the issuance is in Engageable state\n            if (IssuanceStates(issuanceParameters.state) == IssuanceStates.Engageable) {\n                updatedState = IssuanceStates.Unfunded;\n                transfersData = _transferPrincipalToMaker(issuanceParameters);\n            }\n        } else if (eventName == COLLATERAL_DUE_EVENT) {\n            // Collateral is due if _collateralComplete = false\n            if (!_collateralComplete) {\n                // Taker must deposit collateral in full. Therefore, the taker collateral token balance must be zero.\n                updatedState = IssuanceStates.Delinquent;\n                transfersData = _transferPrincipalToMaker(issuanceParameters);\n            }\n        } else if (eventName == LENDING_DUE_EVENT) {\n            // Lending is due if the issuance is not in Complate Engaged state\n            if (IssuanceStates(issuanceParameters.state) != IssuanceStates.CompleteEngaged) {\n                // Transfer collateral to maker.\n                transfersData = _transferCollateralToMaker(issuanceParameters);\n            }\n        }\n    }\n\n    function _transferPrincipalToMaker(IssuanceParameters.Data memory issuanceParameters) private view\n        returns (bytes memory transfersData) {\n        \n        Transfers.Data memory transfers = Transfers.Data(new Transfer.Data[](1));\n        transfers.actions[0] = Transfer.Data({\n            outbound: true,\n            fromAddress: issuanceParameters.makerAddress,\n            toAddress: issuanceParameters.makerAddress,\n            tokenAddress: _lendingTokenAddress,\n            amount: _lendingAmount\n        });\n        transfersData = Transfers.encode(transfers);\n    }\n\n    function _transferPrincipalToTaker(IssuanceParameters.Data memory issuanceParameters) private view\n        returns (bytes memory transfersData) {\n        \n        Transfers.Data memory transfers = Transfers.Data(new Transfer.Data[](1));\n        transfers.actions[0] = Transfer.Data({\n            outbound: true,\n            fromAddress: issuanceParameters.makerAddress,\n            toAddress: issuanceParameters.takerAddress,\n            tokenAddress: _lendingTokenAddress,\n            amount: _lendingAmount\n        });\n        transfersData = Transfers.encode(transfers);\n    }\n\n    function _transferCollateralToMaker(IssuanceParameters.Data memory issuanceParameters) private view\n        returns (bytes memory transfersData) {\n        \n        Transfers.Data memory transfers = Transfers.Data(new Transfer.Data[](1));\n        transfers.actions[0] = Transfer.Data({\n            outbound: true,\n            fromAddress: issuanceParameters.takerAddress,\n            toAddress: issuanceParameters.makerAddress,\n            tokenAddress: _collateralTokenAddress,\n            amount: _collateralAmount\n        });\n        transfersData = Transfers.encode(transfers);\n    }\n\n    function _release(IssuanceParameters.Data memory issuanceParameters) private view\n        returns (bytes memory transfersData) {\n        Transfers.Data memory transfers = Transfers.Data(new Transfer.Data[](2));\n        // Transfer lending amount + interest to maker.\n        transfers.actions[0] = Transfer.Data({\n            outbound: true,\n            fromAddress: issuanceParameters.takerAddress,\n            toAddress: issuanceParameters.makerAddress,\n            tokenAddress: _lendingTokenAddress,\n            amount: _lendingAmount + _interestAmount\n        });\n        // Transfer collateral to taker\n        transfers.actions[1] = Transfer.Data({\n            outbound: true,\n            fromAddress: issuanceParameters.takerAddress,\n            toAddress: issuanceParameters.takerAddress,\n            tokenAddress: _collateralTokenAddress,\n            amount: _collateralAmount\n        });\n        transfersData = Transfers.encode(transfers);\n    }\n}",
  "sourcePath": "/Users/shengdading/git/nuts-platform-v2/contracts/instruments/lending/LendingV1.sol",
  "compiler": {
    "name": "solc",
    "version": "0.5.8+commit.23d335f2.Emscripten.clang"
  },
  "schemaVersion": "3.0.16",
  "updatedAt": "2019-10-10T08:06:15.271Z",
  "devdoc": {
    "methods": {
      "createIssuance(bytes,bytes)": {
        "details": "Create a new issuance of the financial instrument",
        "params": {
          "issuanceParametersData": "Issuance Parameters.",
          "makerParametersData": "The custom parameters to the newly created issuance"
        },
        "return": "updatedState The new state of the issuance."
      },
      "engageIssuance(bytes,bytes)": {
        "details": "A taker engages to the issuance",
        "params": {
          "issuanceParametersData": "Issuance Parameters."
        },
        "return": "updatedState The new state of the issuance.transfersData The transfers to perform after the invocation"
      },
      "processCustomEvent(bytes,bytes32,bytes)": {
        "details": "A custom event is triggered."
      },
      "processScheduledEvent(bytes,bytes32,bytes)": {
        "details": "A scheduled event is triggered.",
        "params": {
          "eventName": "The name of the custom event.",
          "issuanceParametersData": "Issuance Parameters."
        },
        "return": "updatedState The new state of the issuance.updatedData The updated data of the issuance.transfersData The transfers to perform after the invocation"
      },
      "processTokenDeposit(bytes,address,uint256)": {
        "details": "An account has made an ERC20 token deposit to the issuance",
        "params": {
          "amount": "The amount of ERC20 token to deposit.",
          "issuanceParametersData": "Issuance Parameters.",
          "tokenAddress": "The address of the ERC20 token to deposit."
        },
        "return": "updatedState The new state of the issuance.updatedData The updated data of the issuance.transfersData The transfers to perform after the invocation"
      },
      "processTokenWithdraw(bytes,address,uint256)": {
        "details": "An account has made an ERC20 token withdraw from the issuance"
      }
    }
  },
  "userdoc": {
    "methods": {}
  }
}