{
  "contractName": "NUTSToken",
  "abi": [
    {
      "constant": true,
      "inputs": [],
      "name": "name",
      "outputs": [
        {
          "name": "",
          "type": "string"
        }
      ],
      "payable": false,
      "stateMutability": "view",
      "type": "function"
    },
    {
      "constant": false,
      "inputs": [
        {
          "name": "spender",
          "type": "address"
        },
        {
          "name": "value",
          "type": "uint256"
        }
      ],
      "name": "approve",
      "outputs": [
        {
          "name": "",
          "type": "bool"
        }
      ],
      "payable": false,
      "stateMutability": "nonpayable",
      "type": "function"
    },
    {
      "constant": true,
      "inputs": [],
      "name": "totalSupply",
      "outputs": [
        {
          "name": "",
          "type": "uint256"
        }
      ],
      "payable": false,
      "stateMutability": "view",
      "type": "function"
    },
    {
      "constant": false,
      "inputs": [
        {
          "name": "sender",
          "type": "address"
        },
        {
          "name": "recipient",
          "type": "address"
        },
        {
          "name": "amount",
          "type": "uint256"
        }
      ],
      "name": "transferFrom",
      "outputs": [
        {
          "name": "",
          "type": "bool"
        }
      ],
      "payable": false,
      "stateMutability": "nonpayable",
      "type": "function"
    },
    {
      "constant": true,
      "inputs": [],
      "name": "decimals",
      "outputs": [
        {
          "name": "",
          "type": "uint8"
        }
      ],
      "payable": false,
      "stateMutability": "view",
      "type": "function"
    },
    {
      "constant": true,
      "inputs": [],
      "name": "cap",
      "outputs": [
        {
          "name": "",
          "type": "uint256"
        }
      ],
      "payable": false,
      "stateMutability": "view",
      "type": "function"
    },
    {
      "constant": false,
      "inputs": [
        {
          "name": "spender",
          "type": "address"
        },
        {
          "name": "addedValue",
          "type": "uint256"
        }
      ],
      "name": "increaseAllowance",
      "outputs": [
        {
          "name": "",
          "type": "bool"
        }
      ],
      "payable": false,
      "stateMutability": "nonpayable",
      "type": "function"
    },
    {
      "constant": false,
      "inputs": [
        {
          "name": "account",
          "type": "address"
        },
        {
          "name": "value",
          "type": "uint256"
        }
      ],
      "name": "mint",
      "outputs": [
        {
          "name": "",
          "type": "bool"
        }
      ],
      "payable": false,
      "stateMutability": "nonpayable",
      "type": "function"
    },
    {
      "constant": false,
      "inputs": [
        {
          "name": "amount",
          "type": "uint256"
        }
      ],
      "name": "burn",
      "outputs": [],
      "payable": false,
      "stateMutability": "nonpayable",
      "type": "function"
    },
    {
      "constant": true,
      "inputs": [
        {
          "name": "account",
          "type": "address"
        }
      ],
      "name": "balanceOf",
      "outputs": [
        {
          "name": "",
          "type": "uint256"
        }
      ],
      "payable": false,
      "stateMutability": "view",
      "type": "function"
    },
    {
      "constant": false,
      "inputs": [],
      "name": "renounceOwnership",
      "outputs": [],
      "payable": false,
      "stateMutability": "nonpayable",
      "type": "function"
    },
    {
      "constant": false,
      "inputs": [
        {
          "name": "account",
          "type": "address"
        },
        {
          "name": "amount",
          "type": "uint256"
        }
      ],
      "name": "burnFrom",
      "outputs": [],
      "payable": false,
      "stateMutability": "nonpayable",
      "type": "function"
    },
    {
      "constant": true,
      "inputs": [],
      "name": "owner",
      "outputs": [
        {
          "name": "",
          "type": "address"
        }
      ],
      "payable": false,
      "stateMutability": "view",
      "type": "function"
    },
    {
      "constant": true,
      "inputs": [],
      "name": "isOwner",
      "outputs": [
        {
          "name": "",
          "type": "bool"
        }
      ],
      "payable": false,
      "stateMutability": "view",
      "type": "function"
    },
    {
      "constant": true,
      "inputs": [],
      "name": "symbol",
      "outputs": [
        {
          "name": "",
          "type": "string"
        }
      ],
      "payable": false,
      "stateMutability": "view",
      "type": "function"
    },
    {
      "constant": false,
      "inputs": [
        {
          "name": "spender",
          "type": "address"
        },
        {
          "name": "subtractedValue",
          "type": "uint256"
        }
      ],
      "name": "decreaseAllowance",
      "outputs": [
        {
          "name": "",
          "type": "bool"
        }
      ],
      "payable": false,
      "stateMutability": "nonpayable",
      "type": "function"
    },
    {
      "constant": false,
      "inputs": [
        {
          "name": "recipient",
          "type": "address"
        },
        {
          "name": "amount",
          "type": "uint256"
        }
      ],
      "name": "transfer",
      "outputs": [
        {
          "name": "",
          "type": "bool"
        }
      ],
      "payable": false,
      "stateMutability": "nonpayable",
      "type": "function"
    },
    {
      "constant": true,
      "inputs": [
        {
          "name": "account",
          "type": "address"
        }
      ],
      "name": "getMinterAmount",
      "outputs": [
        {
          "name": "",
          "type": "uint256"
        }
      ],
      "payable": false,
      "stateMutability": "view",
      "type": "function"
    },
    {
      "constant": false,
      "inputs": [
        {
          "name": "account",
          "type": "address"
        },
        {
          "name": "cap",
          "type": "uint256"
        }
      ],
      "name": "setMinterCap",
      "outputs": [
        {
          "name": "",
          "type": "bool"
        }
      ],
      "payable": false,
      "stateMutability": "nonpayable",
      "type": "function"
    },
    {
      "constant": true,
      "inputs": [
        {
          "name": "account",
          "type": "address"
        }
      ],
      "name": "getMinterCap",
      "outputs": [
        {
          "name": "",
          "type": "uint256"
        }
      ],
      "payable": false,
      "stateMutability": "view",
      "type": "function"
    },
    {
      "constant": true,
      "inputs": [
        {
          "name": "owner",
          "type": "address"
        },
        {
          "name": "spender",
          "type": "address"
        }
      ],
      "name": "allowance",
      "outputs": [
        {
          "name": "",
          "type": "uint256"
        }
      ],
      "payable": false,
      "stateMutability": "view",
      "type": "function"
    },
    {
      "constant": false,
      "inputs": [
        {
          "name": "newOwner",
          "type": "address"
        }
      ],
      "name": "transferOwnership",
      "outputs": [],
      "payable": false,
      "stateMutability": "nonpayable",
      "type": "function"
    },
    {
      "inputs": [],
      "payable": false,
      "stateMutability": "nonpayable",
      "type": "constructor"
    },
    {
      "anonymous": false,
      "inputs": [
        {
          "indexed": true,
          "name": "account",
          "type": "address"
        },
        {
          "indexed": false,
          "name": "cap",
          "type": "uint256"
        }
      ],
      "name": "MinterCapUpdated",
      "type": "event"
    },
    {
      "anonymous": false,
      "inputs": [
        {
          "indexed": true,
          "name": "previousOwner",
          "type": "address"
        },
        {
          "indexed": true,
          "name": "newOwner",
          "type": "address"
        }
      ],
      "name": "OwnershipTransferred",
      "type": "event"
    },
    {
      "anonymous": false,
      "inputs": [
        {
          "indexed": true,
          "name": "from",
          "type": "address"
        },
        {
          "indexed": true,
          "name": "to",
          "type": "address"
        },
        {
          "indexed": false,
          "name": "value",
          "type": "uint256"
        }
      ],
      "name": "Transfer",
      "type": "event"
    },
    {
      "anonymous": false,
      "inputs": [
        {
          "indexed": true,
          "name": "owner",
          "type": "address"
        },
        {
          "indexed": true,
          "name": "spender",
          "type": "address"
        },
        {
          "indexed": false,
          "name": "value",
          "type": "uint256"
        }
      ],
      "name": "Approval",
      "type": "event"
    }
  ],
  "bytecode": "0x608060405234801561001057600080fd5b50600380546001600160a01b0319163317908190556040516aa56fa5b99019a5c8000000916001600160a01b0316906000907f8be0079c531659141344cd1fd0a4f28419497f9722a3daafe3b4186f6b6457e0908290a3600081116100d657604080517f08c379a000000000000000000000000000000000000000000000000000000000815260206004820152601d60248201527f45524332304361707065644d696e7461626c653a206361702069732030000000604482015290519081900360640190fd5b60045561135f806100e86000396000f3fe608060405234801561001057600080fd5b50600436106101825760003560e01c806379cc6790116100d8578063a9059cbb1161008c578063cd3c7e1f11610066578063cd3c7e1f14610469578063dd62ed3e1461048f578063f2fde38b146104bd57610182565b8063a9059cbb146103eb578063c6bbb84514610417578063c8e1b4ce1461043d57610182565b80638f32d59b116100bd5780638f32d59b146103af57806395d89b41146103b7578063a457c2d7146103bf57610182565b806379cc67901461035f5780638da5cb5b1461038b57610182565b8063355274ea1161013a57806342966c681161011457806342966c681461031257806370a0823114610331578063715018a61461035757610182565b8063355274ea146102b257806339509351146102ba57806340c10f19146102e657610182565b806318160ddd1161016b57806318160ddd1461024457806323b872dd1461025e578063313ce5671461029457610182565b806306fdde0314610187578063095ea7b314610204575b600080fd5b61018f6104e3565b6040805160208082528351818301528351919283929083019185019080838360005b838110156101c95781810151838201526020016101b1565b50505050905090810190601f1680156101f65780820380516001836020036101000a031916815260200191505b509250505060405180910390f35b6102306004803603604081101561021a57600080fd5b506001600160a01b03813516906020013561051c565b604080519115158252519081900360200190f35b61024c610532565b60408051918252519081900360200190f35b6102306004803603606081101561027457600080fd5b506001600160a01b03813581169160208101359091169060400135610538565b61029c6105a7565b6040805160ff9092168252519081900360200190f35b61024c6105ac565b610230600480360360408110156102d057600080fd5b506001600160a01b0381351690602001356105bb565b610230600480360360408110156102fc57600080fd5b506001600160a01b0381351690602001356105f7565b61032f6004803603602081101561032857600080fd5b5035610718565b005b61024c6004803603602081101561034757600080fd5b50356001600160a01b0316610725565b61032f610740565b61032f6004803603604081101561037557600080fd5b506001600160a01b0381351690602001356107f3565b610393610801565b604080516001600160a01b039092168252519081900360200190f35b610230610810565b61018f610821565b610230600480360360408110156103d557600080fd5b506001600160a01b03813516906020013561085a565b6102306004803603604081101561040157600080fd5b506001600160a01b0381351690602001356108af565b61024c6004803603602081101561042d57600080fd5b50356001600160a01b03166108bc565b6102306004803603604081101561045357600080fd5b506001600160a01b0381351690602001356108d7565b61024c6004803603602081101561047f57600080fd5b50356001600160a01b03166109e8565b61024c600480360360408110156104a557600080fd5b506001600160a01b0381358116916020013516610a03565b61032f600480360360208110156104d357600080fd5b50356001600160a01b0316610a2e565b6040518060400160405280600a81526020017f4e55545320546f6b656e0000000000000000000000000000000000000000000081525081565b6000610529338484610a93565b50600192915050565b60025490565b6000610545848484610b85565b61059d8433610598856040518060600160405280602881526020016111fc602891396001600160a01b038a166000908152600160209081526040808320338452909152902054919063ffffffff610ce716565b610a93565b5060019392505050565b601281565b6aa56fa5b99019a5c800000081565b3360008181526001602090815260408083206001600160a01b03871684529091528120549091610529918590610598908663ffffffff610d8116565b60045460009033906106178461060b610532565b9063ffffffff610d8116565b111561065757604051600160e51b62461bcd02815260040180806020018281038252602181526020018061114b6021913960400191505060405180910390fd5b6001600160a01b03811660009081526005602090815260408083205460069092529091205461068c908563ffffffff610d8116565b11156106cc57604051600160e51b62461bcd0281526004018080602001828103825260288152602001806112246028913960400191505060405180910390fd5b6001600160a01b0381166000908152600660205260409020546106f5908463ffffffff610d8116565b6001600160a01b03821660009081526006602052604090205561059d8484610de5565b6107223382610ed8565b50565b6001600160a01b031660009081526020819052604090205490565b610748610810565b61079c5760408051600160e51b62461bcd02815260206004820181905260248201527f4f776e61626c653a2063616c6c6572206973206e6f7420746865206f776e6572604482015290519081900360640190fd5b6003546040516000916001600160a01b0316907f8be0079c531659141344cd1fd0a4f28419497f9722a3daafe3b4186f6b6457e0908390a36003805473ffffffffffffffffffffffffffffffffffffffff19169055565b6107fd8282610fd7565b5050565b6003546001600160a01b031690565b6003546001600160a01b0316331490565b6040518060400160405280600481526020017f4e5554530000000000000000000000000000000000000000000000000000000081525081565b600061052933846105988560405180606001604052806025815260200161130f602591393360009081526001602090815260408083206001600160a01b038d168452909152902054919063ffffffff610ce716565b6000610529338484610b85565b6001600160a01b031660009081526006602052604090205490565b60006108e1610810565b6109355760408051600160e51b62461bcd02815260206004820181905260248201527f4f776e61626c653a2063616c6c6572206973206e6f7420746865206f776e6572604482015290519081900360640190fd5b6001600160a01b03831660009081526006602052604090205482101561098f57604051600160e51b62461bcd0281526004018080602001828103825260358152602001806112b66035913960400191505060405180910390fd5b6001600160a01b038316600081815260056020908152604091829020859055815185815291517f9917e077a26c11e709ef1e3646df334b6146e2b10a05501633864b047c53432c9281900390910190a250600192915050565b6001600160a01b031660009081526005602052604090205490565b6001600160a01b03918216600090815260016020908152604080832093909416825291909152205490565b610a36610810565b610a8a5760408051600160e51b62461bcd02815260206004820181905260248201527f4f776e61626c653a2063616c6c6572206973206e6f7420746865206f776e6572604482015290519081900360640190fd5b61072281611034565b6001600160a01b038316610adb57604051600160e51b62461bcd0281526004018080602001828103825260248152602001806112eb6024913960400191505060405180910390fd5b6001600160a01b038216610b2357604051600160e51b62461bcd0281526004018080602001828103825260228152602001806111b46022913960400191505060405180910390fd5b6001600160a01b03808416600081815260016020908152604080832094871680845294825291829020859055815185815291517f8c5be1e5ebec7d5bd14f71427d1e84f3dd0314c0f7b2291e5b200ac8c7c3b9259281900390910190a3505050565b6001600160a01b038316610bcd57604051600160e51b62461bcd0281526004018080602001828103825260258152602001806112916025913960400191505060405180910390fd5b6001600160a01b038216610c1557604051600160e51b62461bcd0281526004018080602001828103825260238152602001806111286023913960400191505060405180910390fd5b610c58816040518060600160405280602681526020016111d6602691396001600160a01b038616600090815260208190526040902054919063ffffffff610ce716565b6001600160a01b038085166000908152602081905260408082209390935590841681522054610c8d908263ffffffff610d8116565b6001600160a01b038084166000818152602081815260409182902094909455805185815290519193928716927fddf252ad1be2c89b69c2b068fc378daa952ba7f163c4a11628f55a4df523b3ef92918290030190a3505050565b60008184841115610d7957604051600160e51b62461bcd0281526004018080602001828103825283818151815260200191508051906020019080838360005b83811015610d3e578181015183820152602001610d26565b50505050905090810190601f168015610d6b5780820380516001836020036101000a031916815260200191505b509250505060405180910390fd5b505050900390565b600082820183811015610dde5760408051600160e51b62461bcd02815260206004820152601b60248201527f536166654d6174683a206164646974696f6e206f766572666c6f770000000000604482015290519081900360640190fd5b9392505050565b6001600160a01b038216610e435760408051600160e51b62461bcd02815260206004820152601f60248201527f45524332303a206d696e7420746f20746865207a65726f206164647265737300604482015290519081900360640190fd5b600254610e56908263ffffffff610d8116565b6002556001600160a01b038216600090815260208190526040902054610e82908263ffffffff610d8116565b6001600160a01b0383166000818152602081815260408083209490945583518581529351929391927fddf252ad1be2c89b69c2b068fc378daa952ba7f163c4a11628f55a4df523b3ef9281900390910190a35050565b6001600160a01b038216610f2057604051600160e51b62461bcd0281526004018080602001828103825260218152602001806112706021913960400191505060405180910390fd5b610f638160405180606001604052806022815260200161116c602291396001600160a01b038516600090815260208190526040902054919063ffffffff610ce716565b6001600160a01b038316600090815260208190526040902055600254610f8f908263ffffffff6110e516565b6002556040805182815290516000916001600160a01b038516917fddf252ad1be2c89b69c2b068fc378daa952ba7f163c4a11628f55a4df523b3ef9181900360200190a35050565b610fe18282610ed8565b6107fd82336105988460405180606001604052806024815260200161124c602491396001600160a01b0388166000908152600160209081526040808320338452909152902054919063ffffffff610ce716565b6001600160a01b03811661107c57604051600160e51b62461bcd02815260040180806020018281038252602681526020018061118e6026913960400191505060405180910390fd5b6003546040516001600160a01b038084169216907f8be0079c531659141344cd1fd0a4f28419497f9722a3daafe3b4186f6b6457e090600090a36003805473ffffffffffffffffffffffffffffffffffffffff19166001600160a01b0392909216919091179055565b6000610dde83836040518060400160405280601e81526020017f536166654d6174683a207375627472616374696f6e206f766572666c6f770000815250610ce756fe45524332303a207472616e7366657220746f20746865207a65726f206164647265737345524332304361707065644d696e7461626c653a2063617020657863656564656445524332303a206275726e20616d6f756e7420657863656564732062616c616e63654f776e61626c653a206e6577206f776e657220697320746865207a65726f206164647265737345524332303a20617070726f766520746f20746865207a65726f206164647265737345524332303a207472616e7366657220616d6f756e7420657863656564732062616c616e636545524332303a207472616e7366657220616d6f756e74206578636565647320616c6c6f77616e636545524332304361707065644d696e7461626c653a206d696e7465722063617020657863656564656445524332303a206275726e20616d6f756e74206578636565647320616c6c6f77616e636545524332303a206275726e2066726f6d20746865207a65726f206164647265737345524332303a207472616e736665722066726f6d20746865207a65726f206164647265737345524332304361707065644d696e7461626c653a2063617020736d616c6c6572207468616e2063757272656e7420616d6f756e742e45524332303a20617070726f76652066726f6d20746865207a65726f206164647265737345524332303a2064656372656173656420616c6c6f77616e63652062656c6f77207a65726fa165627a7a72305820950bc919f602701e43882fe2c985f25e880dff37374795d5c773c840484063a90029",
  "source": "pragma solidity ^0.5.0;\n\nimport \"../lib/token/ERC20Burnable.sol\";\nimport \"./ERC20CappedMintable.sol\";\n\n/**\n * @title NUTS Token.\n */\ncontract NUTSToken is ERC20CappedMintable, ERC20Burnable {\n    string public constant name = 'NUTS Token';\n    string public constant symbol = 'NUTS';\n    uint8 public constant decimals = 18;\n    uint256 public constant cap = 200000000 * 10 ** uint256(decimals);\n\n    constructor() ERC20CappedMintable(cap) public {\n    }\n\n}",
  "sourcePath": "/Users/shengdading/git/nuts-platform-v2/contracts/token/NUTSToken.sol",
  "compiler": {
    "name": "solc",
    "version": "0.5.8+commit.23d335f2.Emscripten.clang"
  },
  "schemaVersion": "3.0.16",
  "updatedAt": "2019-10-10T00:51:28.099Z",
  "devdoc": {
    "methods": {
      "allowance(address,address)": {
        "details": "See {IERC20-allowance}."
      },
      "approve(address,uint256)": {
        "details": "See {IERC20-approve}.     * Requirements:     * - `spender` cannot be the zero address."
      },
      "balanceOf(address)": {
        "details": "See {IERC20-balanceOf}."
      },
      "burn(uint256)": {
        "details": "Destroys `amount` tokens from the caller.     * See {ERC20-_burn}."
      },
      "burnFrom(address,uint256)": {
        "details": "See {ERC20-_burnFrom}."
      },
      "decreaseAllowance(address,uint256)": {
        "details": "Atomically decreases the allowance granted to `spender` by the caller.     * This is an alternative to {approve} that can be used as a mitigation for problems described in {IERC20-approve}.     * Emits an {Approval} event indicating the updated allowance.     * Requirements:     * - `spender` cannot be the zero address. - `spender` must have allowance for the caller of at least `subtractedValue`."
      },
      "getMinterAmount(address)": {
        "details": "Get the token amount minted by this minter.",
        "params": {
          "account": "The account of the minter to check minter cap."
        }
      },
      "getMinterCap(address)": {
        "details": "Gets the minter cap.",
        "params": {
          "account": "The account of the minter to check minter cap."
        }
      },
      "increaseAllowance(address,uint256)": {
        "details": "Atomically increases the allowance granted to `spender` by the caller.     * This is an alternative to {approve} that can be used as a mitigation for problems described in {IERC20-approve}.     * Emits an {Approval} event indicating the updated allowance.     * Requirements:     * - `spender` cannot be the zero address."
      },
      "isOwner()": {
        "details": "Returns true if the caller is the current owner."
      },
      "mint(address,uint256)": {
        "details": "See `ERC20Mintable.mint`.     * Requirements:     * - `value` must not cause the total supply to go over the cap. - `value` must not cause the minter amount to go over the minter cap."
      },
      "owner()": {
        "details": "Returns the address of the current owner."
      },
      "renounceOwnership()": {
        "details": "Leaves the contract without owner. It will not be possible to call `onlyOwner` functions anymore. Can only be called by the current owner.     * NOTE: Renouncing ownership will leave the contract without an owner, thereby removing any functionality that is only available to the owner."
      },
      "setMinterCap(address,uint256)": {
        "details": "Sets the minter cap.     * Requirements:     * - The caller must be the owner. - The new cap must not be smaller than the current minter amount."
      },
      "totalSupply()": {
        "details": "See {IERC20-totalSupply}."
      },
      "transfer(address,uint256)": {
        "details": "See {IERC20-transfer}.     * Requirements:     * - `recipient` cannot be the zero address. - the caller must have a balance of at least `amount`."
      },
      "transferFrom(address,address,uint256)": {
        "details": "See {IERC20-transferFrom}.     * Emits an {Approval} event indicating the updated allowance. This is not required by the EIP. See the note at the beginning of {ERC20};     * Requirements: - `sender` and `recipient` cannot be the zero address. - `sender` must have a balance of at least `value`. - the caller must have allowance for `sender`'s tokens of at least `amount`."
      },
      "transferOwnership(address)": {
        "details": "Transfers ownership of the contract to a new account (`newOwner`). Can only be called by the current owner."
      }
    },
    "title": "NUTS Token."
  },
  "userdoc": {
    "methods": {}
  }
}