{
  "contractName": "ParametersUtil",
  "abi": [
    {
      "constant": true,
      "inputs": [
        {
          "name": "expiration",
          "type": "uint256"
        },
        {
          "name": "brokerAddress",
          "type": "address"
        },
        {
          "name": "supportMakerWhitelist",
          "type": "bool"
        },
        {
          "name": "supportTakerWhitelist",
          "type": "bool"
        }
      ],
      "name": "getInstrumentParameters",
      "outputs": [
        {
          "name": "",
          "type": "bytes"
        }
      ],
      "payable": false,
      "stateMutability": "pure",
      "type": "function"
    },
    {
      "constant": true,
      "inputs": [
        {
          "name": "collateralTokenAddress",
          "type": "address"
        },
        {
          "name": "lendingTokenAddress",
          "type": "address"
        },
        {
          "name": "lendingAmount",
          "type": "uint256"
        },
        {
          "name": "collateralRatio",
          "type": "uint32"
        },
        {
          "name": "engagementDueDays",
          "type": "uint32"
        },
        {
          "name": "tenorDays",
          "type": "uint32"
        },
        {
          "name": "interestRate",
          "type": "uint32"
        }
      ],
      "name": "getLendingMakerParameters",
      "outputs": [
        {
          "name": "",
          "type": "bytes"
        }
      ],
      "payable": false,
      "stateMutability": "pure",
      "type": "function"
    }
  ],
  "bytecode": "0x608060405234801561001057600080fd5b5061065e806100206000396000f3fe608060405234801561001057600080fd5b50600436106100365760003560e01c8063a0ba637c1461003b578063c3de4a521461010a575b600080fd5b610095600480360360e081101561005157600080fd5b506001600160a01b03813581169160208101359091169060408101359063ffffffff6060820135811691608081013582169160a082013581169160c0013516610146565b6040805160208082528351818301528351919283929083019185019080838360005b838110156100cf5781810151838201526020016100b7565b50505050905090810190601f1680156100fc5780820380516001836020036101000a031916815260200191505b509250505060405180910390f35b6100956004803603608081101561012057600080fd5b508035906001600160a01b036020820135169060408101351515906060013515156101af565b60606101506105cf565b506040805160e0810182526001600160a01b03808b1682528916602082015290810187905263ffffffff8087166060830152858116608083015284811660a0830152831660c08201526101a2816101fc565b9998505050505050505050565b60606101b961060b565b6040518060800160405280878152602001866001600160a01b03168152602001851515815260200184151581525090506101f28161024c565b9695505050505050565b60608061020883610293565b6040519080825280601f01601f191660200182016040528015610232576020820181803883390190505b509050600061024384602084610299565b82525092915050565b60608061025883610392565b6040519080825280601f01601f191660200182016040528015610282576020820181803883390190505b509050600061024384602084610398565b50607490565b600082806102ab60016002838761041f565b86519101906102bb908286610435565b016102c9600280838761041f565b810190506102dc86602001518286610435565b016102eb60036002838761041f565b810190506102fe86604001518286610455565b0161030d60046002838761041f565b8101905061032086606001518286610464565b0161032f60056002838761041f565b8101905061034286608001518286610464565b0161035160066002838761041f565b810190506103648660a001518286610464565b0161037360076002838761041f565b810190506103868660c001518286610464565b010390505b9392505050565b50604090565b600082806103aa60016002838761041f565b86519101906103ba908286610455565b016103c8600280838761041f565b810190506103db86602001518286610435565b016103ea60036000838761041f565b810190506103fd86604001518286610479565b0161040c60046000838761041f565b8101905061038686606001518286610479565b60006008850260078516176101f281858561049c565b600061044d846001600160a01b0316601485856104df565b949350505050565b600061044d84602085856104df565b600061044d8463ffffffff16600485856104df565b600083156104945761048d6001848461049c565b905061038b565b61048d600084845b600080828401607f86165b600787901c156104cf578060801782535060079590951c9460019182019101607f86166104a7565b8082535050600101949350505050565b6003820191600090816104f487868689610512565b948501949050610505818386610550565b5050909203949350505050565b60008061051f8684610591565b9050848401815b80156105445787816020031a82536001919091019060001901610526565b50909695505050505050565b60008261056160028601828561049c565b8401935061057360016002868661041f565b8401935061058285858561049c565b90930192830390509392505050565b600060ff825b600719600882020182901b85161580156105b15750600081115b156105bf5760001901610597565b8061044d57506001949350505050565b6040805160e081018252600080825260208201819052918101829052606081018290526080810182905260a0810182905260c081019190915290565b6040805160808101825260008082526020820181905291810182905260608101919091529056fea165627a7a723058205d5408d85bb40c869d36aa4790634812c768713eae3ec7aaac4eedf5940e563b0029",
  "source": "pragma solidity ^0.5.0;\n\nimport \"../protobuf/InstrumentData.sol\";\nimport \"../protobuf/LendingData.sol\";\n\n/**\n * @dev A util contract to generate custom parameters.\n */\ncontract ParametersUtil {\n\n    /**\n     * @dev Get serialized instrument parameters defined in protocol buf.\n     */\n    function getInstrumentParameters(uint256 expiration, address brokerAddress, bool supportMakerWhitelist,\n        bool supportTakerWhitelist) public pure returns (bytes memory) {\n\n        InstrumentParameters.Data memory instrumentParameters = InstrumentParameters.Data(expiration, brokerAddress,\n            supportMakerWhitelist, supportTakerWhitelist);\n        return InstrumentParameters.encode(instrumentParameters);\n    }\n\n    /**\n     * @dev Get serialized lending maker parameters defined in protocol buf.\n     */\n    function getLendingMakerParameters(address collateralTokenAddress, address lendingTokenAddress, uint256 lendingAmount,\n        uint32 collateralRatio, uint32 engagementDueDays, uint32 tenorDays, uint32 interestRate) public pure returns (bytes memory) {\n\n        LendingMakerParameters.Data memory lendingMakerParamaters = LendingMakerParameters.Data(collateralTokenAddress,\n            lendingTokenAddress, lendingAmount, collateralRatio, engagementDueDays, tenorDays, interestRate);\n        return LendingMakerParameters.encode(lendingMakerParamaters);\n    }\n}",
  "sourcePath": "/Users/shengdading/git/nuts-platform-v2/contracts/lib/util/ParametersUtil.sol",
  "compiler": {
    "name": "solc",
    "version": "0.5.8+commit.23d335f2.Emscripten.clang"
  },
  "schemaVersion": "3.0.16",
  "updatedAt": "2019-10-16T02:07:16.049Z",
  "devdoc": {
    "details": "A util contract to generate custom parameters.",
    "methods": {
      "getInstrumentParameters(uint256,address,bool,bool)": {
        "details": "Get serialized instrument parameters defined in protocol buf."
      },
      "getLendingMakerParameters(address,address,uint256,uint32,uint32,uint32,uint32)": {
        "details": "Get serialized lending maker parameters defined in protocol buf."
      }
    }
  },
  "userdoc": {
    "methods": {}
  }
}