{
  "contractName": "PriceOracleMock",
  "abi": [
    {
      "constant": true,
      "inputs": [
        {
          "name": "baseTokenAddress",
          "type": "address"
        },
        {
          "name": "quoteTokenAddress",
          "type": "address"
        }
      ],
      "name": "getRate",
      "outputs": [
        {
          "name": "numerator",
          "type": "uint256"
        },
        {
          "name": "denominator",
          "type": "uint256"
        }
      ],
      "payable": false,
      "stateMutability": "view",
      "type": "function"
    },
    {
      "constant": false,
      "inputs": [
        {
          "name": "baseTokenAddress",
          "type": "address"
        },
        {
          "name": "quoteTokenAddress",
          "type": "address"
        },
        {
          "name": "numerator",
          "type": "uint256"
        },
        {
          "name": "denominator",
          "type": "uint256"
        }
      ],
      "name": "setRate",
      "outputs": [],
      "payable": false,
      "stateMutability": "nonpayable",
      "type": "function"
    }
  ],
  "bytecode": "0x608060405234801561001057600080fd5b5061017a806100206000396000f3fe608060405234801561001057600080fd5b50600436106100365760003560e01c8063379b87ea1461003b578063a36b7d7f14610082575b600080fd5b6100696004803603604081101561005157600080fd5b506001600160a01b03813581169160200135166100c0565b6040805192835260208301919091528051918290030190f35b6100be6004803603608081101561009857600080fd5b506001600160a01b0381358116916020810135909116906040810135906060013561011d565b005b600080826001600160a01b0316846001600160a01b031614156100e857506001905080610116565b50506001600160a01b0380831660009081526020818152604080832093851683529290522080546001909101545b9250929050565b6001600160a01b0393841660009081526020818152604080832095909616825293909352929091209081556001015556fea165627a7a72305820dac13b9d9f4a4446d5477f3ad1e3912904bb641da72bd2e3335673797bd300d00029",
  "source": "pragma solidity ^0.5.0;\n\nimport \"../lib/priceoracle/PriceOracleInterface.sol\";\n\ncontract PriceOracleMock is PriceOracleInterface {\n\n    struct Rate {\n        uint256 numerator;\n        uint256 denominator;\n    }\n\n    mapping(address => mapping(address => Rate)) private _rates;\n\n\n    function getRate(address baseTokenAddress, address quoteTokenAddress) public view\n        returns (uint256 numerator, uint256 denominator) {\n\n        if (baseTokenAddress == quoteTokenAddress)  return (1, 1);\n        Rate storage rate = _rates[baseTokenAddress][quoteTokenAddress];\n        return (rate.numerator, rate.denominator);\n    }\n\n    function setRate(address baseTokenAddress, address quoteTokenAddress, uint256 numerator, uint256 denominator) public {\n        _rates[baseTokenAddress][quoteTokenAddress].numerator = numerator;\n        _rates[baseTokenAddress][quoteTokenAddress].denominator = denominator;\n    }\n}",
  "sourcePath": "/Users/shengdading/git/nuts-platform-v2/contracts/mock/PriceOracleMock.sol",
  "compiler": {
    "name": "solc",
    "version": "0.5.8+commit.23d335f2.Emscripten.clang"
  },
  "schemaVersion": "3.0.16",
  "updatedAt": "2019-10-16T02:07:16.066Z",
  "devdoc": {
    "methods": {}
  },
  "userdoc": {
    "methods": {}
  }
}