{
  "contractName": "ProxyFactory",
  "abi": [
    {
      "constant": false,
      "inputs": [
        {
          "name": "implementationAddress",
          "type": "address"
        },
        {
          "name": "proxyAdminAddress",
          "type": "address"
        }
      ],
      "name": "createAdminUpgradeabilityProxy",
      "outputs": [
        {
          "name": "",
          "type": "address"
        }
      ],
      "payable": false,
      "stateMutability": "nonpayable",
      "type": "function"
    },
    {
      "constant": false,
      "inputs": [
        {
          "name": "implementationAddress",
          "type": "address"
        },
        {
          "name": "proxyAdminAddress",
          "type": "address"
        }
      ],
      "name": "createAdminOnlyUpgradeabilityProxy",
      "outputs": [
        {
          "name": "",
          "type": "address"
        }
      ],
      "payable": false,
      "stateMutability": "nonpayable",
      "type": "function"
    }
  ],
  "bytecode": "0x608060405234801561001057600080fd5b506115fd806100206000396000f3fe608060405234801561001057600080fd5b50600436106100365760003560e01c80631a9c5dab1461003b578063dec0366614610085575b600080fd5b6100696004803603604081101561005157600080fd5b506001600160a01b03813581169160200135166100b3565b604080516001600160a01b039092168252519081900360200190f35b6100696004803603604081101561009b57600080fd5b506001600160a01b0381358116916020013516610195565b60408051600080825260208201909252839083906040516100d3906101b5565b80846001600160a01b03166001600160a01b03168152602001836001600160a01b03166001600160a01b0316815260200180602001828103825283818151815260200191508051906020019080838360005b8381101561013d578181015183820152602001610125565b50505050905090810190601f16801561016a5780820380516001836020036101000a031916815260200191505b50945050505050604051809103906000f08015801561018d573d6000803e3d6000fd5b509392505050565b60408051600080825260208201909252839083906040516100d3906101c2565b610a0a806101d083390190565b6109f880610bda8339019056fe6080604052604051610a0a380380610a0a8339810180604052606081101561002657600080fd5b815160208301516040840180519294919382019264010000000081111561004c57600080fd5b8201602081018481111561005f57600080fd5b815164010000000081118282018710171561007957600080fd5b5050604080517f656970313936372e70726f78792e696d706c656d656e746174696f6e000000008152905190819003601c0190209093508592508391506000805160206109af833981519152600019909101146100d257fe5b6100e18261020060201b60201c565b805115610199576000826001600160a01b0316826040518082805190602001908083835b602083106101245780518252601f199092019160209182019101610105565b6001836020036101000a038019825116818451168082178552505050505050905001915050600060405180830381855af49150503d8060008114610184576040519150601f19603f3d011682016040523d82523d6000602084013e610189565b606091505b505090508061019757600080fd5b505b5050604080517f656970313936372e70726f78792e61646d696e000000000000000000000000008152905190819003601301902060008051602061098f833981519152600019909101146101e957fe5b6101f88261027a60201b60201c565b5050506102c8565b6102138161028c60201b61059a1760201c565b610268576040517f08c379a000000000000000000000000000000000000000000000000000000000815260040180806020018281038252603b8152602001806109cf603b913960400191505060405180910390fd5b6000805160206109af83398151915255565b60008051602061098f83398151915255565b6000813f7fc5d2460186f7233c927e7db2dcc703c0e500b653ca82273b7bfad8045d85a47081158015906102c05750808214155b949350505050565b6106b8806102d76000396000f3fe60806040526004361061005a5760003560e01c80635c60da1b116100435780635c60da1b146101175780638f28397014610148578063f851a4401461017b5761005a565b80633659cfe6146100645780634f1ef28614610097575b610062610190565b005b34801561007057600080fd5b506100626004803603602081101561008757600080fd5b50356001600160a01b03166101aa565b610062600480360360408110156100ad57600080fd5b6001600160a01b0382351691908101906040810160208201356401000000008111156100d857600080fd5b8201836020820111156100ea57600080fd5b8035906020019184600183028401116401000000008311171561010c57600080fd5b5090925090506101e4565b34801561012357600080fd5b5061012c610291565b604080516001600160a01b039092168252519081900360200190f35b34801561015457600080fd5b506100626004803603602081101561016b57600080fd5b50356001600160a01b03166102ce565b34801561018757600080fd5b5061012c6103a2565b6101986103cd565b6101a86101a3610446565b61046b565b565b6101b261048f565b6001600160a01b0316336001600160a01b031614156101d9576101d4816104b4565b6101e1565b6101e1610190565b50565b6101ec61048f565b6001600160a01b0316336001600160a01b031614156102845761020e836104b4565b6000836001600160a01b031683836040518083838082843760405192019450600093509091505080830381855af49150503d806000811461026b576040519150601f19603f3d011682016040523d82523d6000602084013e610270565b606091505b505090508061027e57600080fd5b5061028c565b61028c610190565b505050565b600061029b61048f565b6001600160a01b0316336001600160a01b031614156102c3576102bc610446565b90506102cb565b6102cb610190565b90565b6102d661048f565b6001600160a01b0316336001600160a01b031614156101d9576001600160a01b03811661034e576040517f08c379a00000000000000000000000000000000000000000000000000000000081526004018080602001828103825260368152602001806105d76036913960400191505060405180910390fd5b7f7e644d79422f17c01e4894b5f4f588d331ebfa28653d42ae832dc59e38c9798f61037761048f565b604080516001600160a01b03928316815291841660208301528051918290030190a16101d4816104f4565b60006103ac61048f565b6001600160a01b0316336001600160a01b031614156102c3576102bc61048f565b6103d561048f565b6001600160a01b0316336001600160a01b03161461043e576040517f08c379a000000000000000000000000000000000000000000000000000000000815260040180806020018281038252604581526020018061060d6045913960600191505060405180910390fd5b6101a86101a8565b7f360894a13ba1a3210667c828492db98dca3e2076cc3735a920a3ca505d382bbc5490565b3660008037600080366000845af43d6000803e80801561048a573d6000f35b3d6000fd5b7fb53127684a568b3173ae13b9f8a6016e243e63b6e8ee1178d6a717850b5d61035490565b6104bd81610518565b6040516001600160a01b038216907fbc7cd75a20ee27fd9adebab32041f755214dbc6bffa90cc0225b39da2e5c2d3b90600090a250565b7fb53127684a568b3173ae13b9f8a6016e243e63b6e8ee1178d6a717850b5d610355565b6105218161059a565b610576576040517f08c379a000000000000000000000000000000000000000000000000000000000815260040180806020018281038252603b815260200180610652603b913960400191505060405180910390fd5b7f360894a13ba1a3210667c828492db98dca3e2076cc3735a920a3ca505d382bbc55565b6000813f7fc5d2460186f7233c927e7db2dcc703c0e500b653ca82273b7bfad8045d85a47081158015906105ce5750808214155b94935050505056fe43616e6e6f74206368616e6765207468652061646d696e206f6620612070726f787920746f20746865207a65726f206164647265737341646d696e4f6e6c79557067726164656162696c69747950726f78793a204f6e6c792061646d696e2063616e2063616c6c207468652070726f78792066616c6c6261636b2e43616e6e6f742073657420612070726f787920696d706c656d656e746174696f6e20746f2061206e6f6e2d636f6e74726163742061646472657373a165627a7a72305820448d1f2e19e4320943a837d76d70bd32eaae141253bd6bc2e493ec953a12fdb60029b53127684a568b3173ae13b9f8a6016e243e63b6e8ee1178d6a717850b5d6103360894a13ba1a3210667c828492db98dca3e2076cc3735a920a3ca505d382bbc43616e6e6f742073657420612070726f787920696d706c656d656e746174696f6e20746f2061206e6f6e2d636f6e7472616374206164647265737360806040526040516109f83803806109f88339810180604052606081101561002657600080fd5b815160208301516040840180519294919382019264010000000081111561004c57600080fd5b8201602081018481111561005f57600080fd5b815164010000000081118282018710171561007957600080fd5b5050604080517f656970313936372e70726f78792e696d706c656d656e746174696f6e000000008152905190819003601c01902090935085925083915060008051602061099d833981519152600019909101146100d257fe5b6100e18261020060201b60201c565b805115610199576000826001600160a01b0316826040518082805190602001908083835b602083106101245780518252601f199092019160209182019101610105565b6001836020036101000a038019825116818451168082178552505050505050905001915050600060405180830381855af49150503d8060008114610184576040519150601f19603f3d011682016040523d82523d6000602084013e610189565b606091505b505090508061019757600080fd5b505b5050604080517f656970313936372e70726f78792e61646d696e000000000000000000000000008152905190819003601301902060008051602061097d833981519152600019909101146101e957fe5b6101f88261027a60201b60201c565b5050506102c8565b6102138161028c60201b61059b1760201c565b610268576040517f08c379a000000000000000000000000000000000000000000000000000000000815260040180806020018281038252603b8152602001806109bd603b913960400191505060405180910390fd5b60008051602061099d83398151915255565b60008051602061097d83398151915255565b6000813f7fc5d2460186f7233c927e7db2dcc703c0e500b653ca82273b7bfad8045d85a47081158015906102c05750808214155b949350505050565b6106a6806102d76000396000f3fe60806040526004361061005a5760003560e01c80635c60da1b116100435780635c60da1b146101175780638f28397014610148578063f851a4401461017b5761005a565b80633659cfe6146100645780634f1ef28614610097575b610062610190565b005b34801561007057600080fd5b506100626004803603602081101561008757600080fd5b50356001600160a01b03166101aa565b610062600480360360408110156100ad57600080fd5b6001600160a01b0382351691908101906040810160208201356401000000008111156100d857600080fd5b8201836020820111156100ea57600080fd5b8035906020019184600183028401116401000000008311171561010c57600080fd5b5090925090506101e4565b34801561012357600080fd5b5061012c610291565b604080516001600160a01b039092168252519081900360200190f35b34801561015457600080fd5b506100626004803603602081101561016b57600080fd5b50356001600160a01b03166102ce565b34801561018757600080fd5b5061012c6103a2565b6101986103cd565b6101a86101a3610447565b61046c565b565b6101b2610490565b6001600160a01b0316336001600160a01b031614156101d9576101d4816104b5565b6101e1565b6101e1610190565b50565b6101ec610490565b6001600160a01b0316336001600160a01b031614156102845761020e836104b5565b6000836001600160a01b031683836040518083838082843760405192019450600093509091505080830381855af49150503d806000811461026b576040519150601f19603f3d011682016040523d82523d6000602084013e610270565b606091505b505090508061027e57600080fd5b5061028c565b61028c610190565b505050565b600061029b610490565b6001600160a01b0316336001600160a01b031614156102c3576102bc610447565b90506102cb565b6102cb610190565b90565b6102d6610490565b6001600160a01b0316336001600160a01b031614156101d9576001600160a01b03811661034e576040517f08c379a000000000000000000000000000000000000000000000000000000000815260040180806020018281038252603681526020018061060a6036913960400191505060405180910390fd5b7f7e644d79422f17c01e4894b5f4f588d331ebfa28653d42ae832dc59e38c9798f610377610490565b604080516001600160a01b03928316815291841660208301528051918290030190a16101d4816104f5565b60006103ac610490565b6001600160a01b0316336001600160a01b031614156102c3576102bc610490565b6103d5610490565b6001600160a01b0316336001600160a01b0316141561043f576040517f08c379a00000000000000000000000000000000000000000000000000000000081526004018080602001828103825260328152602001806105d86032913960400191505060405180910390fd5b6101a86101a8565b7f360894a13ba1a3210667c828492db98dca3e2076cc3735a920a3ca505d382bbc5490565b3660008037600080366000845af43d6000803e80801561048b573d6000f35b3d6000fd5b7fb53127684a568b3173ae13b9f8a6016e243e63b6e8ee1178d6a717850b5d61035490565b6104be81610519565b6040516001600160a01b038216907fbc7cd75a20ee27fd9adebab32041f755214dbc6bffa90cc0225b39da2e5c2d3b90600090a250565b7fb53127684a568b3173ae13b9f8a6016e243e63b6e8ee1178d6a717850b5d610355565b6105228161059b565b610577576040517f08c379a000000000000000000000000000000000000000000000000000000000815260040180806020018281038252603b815260200180610640603b913960400191505060405180910390fd5b7f360894a13ba1a3210667c828492db98dca3e2076cc3735a920a3ca505d382bbc55565b6000813f7fc5d2460186f7233c927e7db2dcc703c0e500b653ca82273b7bfad8045d85a47081158015906105cf5750808214155b94935050505056fe43616e6e6f742063616c6c2066616c6c6261636b2066756e6374696f6e2066726f6d207468652070726f78792061646d696e43616e6e6f74206368616e6765207468652061646d696e206f6620612070726f787920746f20746865207a65726f206164647265737343616e6e6f742073657420612070726f787920696d706c656d656e746174696f6e20746f2061206e6f6e2d636f6e74726163742061646472657373a165627a7a72305820db0567e2edf34fe483de05a9577d3cf0b30c5adc2bde1d13f99816e4c3e5ed420029b53127684a568b3173ae13b9f8a6016e243e63b6e8ee1178d6a717850b5d6103360894a13ba1a3210667c828492db98dca3e2076cc3735a920a3ca505d382bbc43616e6e6f742073657420612070726f787920696d706c656d656e746174696f6e20746f2061206e6f6e2d636f6e74726163742061646472657373a165627a7a72305820f6babf720fd5ee2238f238e904d83154378bca3a1f90ca018ed7f502fda677f30029",
  "source": "pragma solidity ^0.5.0;\n\nimport \"./ProxyFactoryInterface.sol\";\nimport \"./AdminUpgradeabilityProxy.sol\";\nimport \"./AdminOnlyUpgradeabilityProxy.sol\";\n\n/**\n * @title Factory of proxies.\n */\ncontract ProxyFactory is ProxyFactoryInterface {\n    /**\n     * @dev Create a new Admin Upgradeability Proxy.\n     * @param proxyAdminAddress The address of the proxy admin.\n     * @param implementationAddress The address of the implementation.\n     */\n    function createAdminUpgradeabilityProxy(address implementationAddress, address proxyAdminAddress)\n        public returns (address) {\n        return address(new AdminUpgradeabilityProxy(implementationAddress, proxyAdminAddress, new bytes(0)));\n    }\n\n    /**\n     * @dev Create a new Admin Upgradeability Proxy.\n     * @param proxyAdminAddress The address of the proxy admin.\n     * @param implementationAddress The address of the implementation.\n     */\n    function createAdminOnlyUpgradeabilityProxy(address implementationAddress, address proxyAdminAddress)\n        public returns (address) {\n        \n        return address(new AdminOnlyUpgradeabilityProxy(implementationAddress, proxyAdminAddress, new bytes(0)));\n    }\n}",
  "sourcePath": "/Users/shengdading/git/nuts-platform-v2/contracts/lib/proxy/ProxyFactory.sol",
  "compiler": {
    "name": "solc",
    "version": "0.5.8+commit.23d335f2.Emscripten.clang"
  },
  "schemaVersion": "3.0.16",
  "updatedAt": "2019-10-16T02:07:16.024Z",
  "devdoc": {
    "methods": {
      "createAdminOnlyUpgradeabilityProxy(address,address)": {
        "details": "Create a new Admin Upgradeability Proxy.",
        "params": {
          "implementationAddress": "The address of the implementation.",
          "proxyAdminAddress": "The address of the proxy admin."
        }
      },
      "createAdminUpgradeabilityProxy(address,address)": {
        "details": "Create a new Admin Upgradeability Proxy.",
        "params": {
          "implementationAddress": "The address of the implementation.",
          "proxyAdminAddress": "The address of the proxy admin."
        }
      }
    },
    "title": "Factory of proxies."
  },
  "userdoc": {
    "methods": {}
  }
}