{
  "contractName": "StorageFactory",
  "abi": [
    {
      "constant": false,
      "inputs": [],
      "name": "createStorageInstance",
      "outputs": [
        {
          "name": "",
          "type": "address"
        }
      ],
      "payable": false,
      "stateMutability": "nonpayable",
      "type": "function"
    }
  ],
  "bytecode": "0x608060405234801561001057600080fd5b50611809806100206000396000f3fe6080604052348015600f57600080fd5b506004361060285760003560e01c8063f1dea26f14602d575b600080fd5b6033605c565b6040805173ffffffffffffffffffffffffffffffffffffffff9092168252519081900360200190f35b60006040516068906089565b604051809103906000f0801580156083573d6000803e3d6000fd5b50905090565b611747806100978339019056fe60806040819052600080546001600160a01b03191633178082556001600160a01b0316917f8be0079c531659141344cd1fd0a4f28419497f9722a3daafe3b4186f6b6457e0908290a36116f0806100576000396000f3fe608060405234801561001057600080fd5b506004361061016c5760003560e01c80639b2ea4bd116100cd578063d8de899d11610081578063df4eb59c11610066578063df4eb59c14610a4f578063f2fde38b14610a57578063fda69fae14610a7d5761016c565b8063d8de899d14610718578063da2824a814610a295761016c565b8063b8b2bdad116100b2578063b8b2bdad14610833578063bf40fac1146108db578063c2c5b9f1146109815761016c565b80639b2ea4bd146106675780639c981fcb146107185761016c565b80636e1a1336116101245780638da5cb5b116101095780638da5cb5b146105955780638f32d59b146105b95780639535ce12146105c15761016c565b80636e1a133614610460578063715018a61461058d5761016c565b80635356dddc116101555780635356dddc1461026357806356523acd1461028b57806368d8641a146103335761016c565b80632b29ba2314610171578063498bff00146101ab575b600080fd5b6101976004803603602081101561018757600080fd5b50356001600160a01b0316610b23565b604080519115158252519081900360200190f35b610251600480360360208110156101c157600080fd5b8101906020810181356401000000008111156101dc57600080fd5b8201836020820111156101ee57600080fd5b8035906020019184600183028401116401000000008311171561021057600080fd5b91908080601f016020809104026020016040519081016040528093929190818152602001838380828437600092019190915250929550610b3c945050505050565b60408051918252519081900360200190f35b6102896004803603602081101561027957600080fd5b50356001600160a01b0316610ba4565b005b610289600480360360408110156102a157600080fd5b8101906020810181356401000000008111156102bc57600080fd5b8201836020820111156102ce57600080fd5b803590602001918460018302840111640100000000831117156102f057600080fd5b91908080601f0160208091040260200160405190810160405280939291908181526020018383808284376000920191909152509295505091359250610c0c915050565b6102896004803603604081101561034957600080fd5b81019060208101813564010000000081111561036457600080fd5b82018360208201111561037657600080fd5b8035906020019184600183028401116401000000008311171561039857600080fd5b91908080601f01602080910402602001604051908101604052809392919081815260200183838082843760009201919091525092959493602081019350359150506401000000008111156103eb57600080fd5b8201836020820111156103fd57600080fd5b8035906020019184600183028401116401000000008311171561041f57600080fd5b91908080601f016020809104026020016040519081016040528093929190818152602001838380828437600092019190915250929550610cbb945050505050565b6102896004803603604081101561047657600080fd5b81019060208101813564010000000081111561049157600080fd5b8201836020820111156104a357600080fd5b803590602001918460018302840111640100000000831117156104c557600080fd5b91908080601f016020809104026020016040519081016040528093929190818152602001838380828437600092019190915250929594936020810193503591505064010000000081111561051857600080fd5b82018360208201111561052a57600080fd5b8035906020019184600183028401116401000000008311171561054c57600080fd5b91908080601f016020809104026020016040519081016040528093929190818152602001838380828437600092019190915250929550610d34945050505050565b610289610d7b565b61059d610e2e565b604080516001600160a01b039092168252519081900360200190f35b610197610e3e565b610197600480360360208110156105d757600080fd5b8101906020810181356401000000008111156105f257600080fd5b82018360208201111561060457600080fd5b8035906020019184600183028401116401000000008311171561062657600080fd5b91908080601f016020809104026020016040519081016040528093929190818152602001838380828437600092019190915250929550610e4f945050505050565b6102896004803603604081101561067d57600080fd5b81019060208101813564010000000081111561069857600080fd5b8201836020820111156106aa57600080fd5b803590602001918460018302840111640100000000831117156106cc57600080fd5b91908080601f016020809104026020016040519081016040528093929190818152602001838380828437600092019190915250929550505090356001600160a01b03169150610eba9050565b6107be6004803603602081101561072e57600080fd5b81019060208101813564010000000081111561074957600080fd5b82018360208201111561075b57600080fd5b8035906020019184600183028401116401000000008311171561077d57600080fd5b91908080601f016020809104026020016040519081016040528093929190818152602001838380828437600092019190915250929550610f91945050505050565b6040805160208082528351818301528351919283929083019185019080838360005b838110156107f85781810151838201526020016107e0565b50505050905090810190601f1680156108255780820380516001836020036101000a031916815260200191505b509250505060405180910390f35b6102896004803603604081101561084957600080fd5b81019060208101813564010000000081111561086457600080fd5b82018360208201111561087657600080fd5b8035906020019184600183028401116401000000008311171561089857600080fd5b91908080601f0160208091040260200160405190810160405280939291908181526020018383808284376000920191909152509295505050503515159050611085565b61059d600480360360208110156108f157600080fd5b81019060208101813564010000000081111561090c57600080fd5b82018360208201111561091e57600080fd5b8035906020019184600183028401116401000000008311171561094057600080fd5b91908080601f016020809104026020016040519081016040528093929190818152602001838380828437600092019190915250929550611140945050505050565b6102896004803603604081101561099757600080fd5b8101906020810181356401000000008111156109b257600080fd5b8201836020820111156109c457600080fd5b803590602001918460018302840111640100000000831117156109e657600080fd5b91908080601f01602080910402602001604051908101604052809392919081815260200183838082843760009201919091525092955050913592506111b1915050565b61028960048036036020811015610a3f57600080fd5b50356001600160a01b031661122a565b61028961128f565b61028960048036036020811015610a6d57600080fd5b50356001600160a01b031661129a565b61025160048036036020811015610a9357600080fd5b810190602081018135640100000000811115610aae57600080fd5b820183602082011115610ac057600080fd5b80359060200191846001830284011164010000000083111715610ae257600080fd5b91908080601f0160208091040260200160405190810160405280939291908181526020018383808284376000920191909152509295506112ff945050505050565b6000610b3660018363ffffffff61133216565b92915050565b60006004826040518082805190602001908083835b60208310610b705780518252601f199092019160209182019101610b51565b51815160209384036101000a6000190180199092169116179052920194855250604051938490030190922054949350505050565b610bac610e3e565b610c005760408051600160e51b62461bcd02815260206004820181905260248201527f4f776e61626c653a2063616c6c6572206973206e6f7420746865206f776e6572604482015290519081900360640190fd5b610c098161139c565b50565b610c1533610b23565b610c5357604051600160e51b62461bcd02815260040180806020018281038252603081526020018061162c6030913960400191505060405180910390fd5b806004836040518082805190602001908083835b60208310610c865780518252601f199092019160209182019101610c67565b51815160209384036101000a600019018019909216911617905292019485525060405193849003019092209290925550505050565b806002836040518082805190602001908083835b60208310610cee5780518252601f199092019160209182019101610ccf565b51815160209384036101000a60001901801990921691161790529201948552506040519384900381019093208451610d2f9591949190910192509050611593565b505050565b610d3d33610b23565b610cbb57604051600160e51b62461bcd02815260040180806020018281038252603081526020018061162c6030913960400191505060405180910390fd5b610d83610e3e565b610dd75760408051600160e51b62461bcd02815260206004820181905260248201527f4f776e61626c653a2063616c6c6572206973206e6f7420746865206f776e6572604482015290519081900360640190fd5b600080546040516001600160a01b03909116907f8be0079c531659141344cd1fd0a4f28419497f9722a3daafe3b4186f6b6457e0908390a36000805473ffffffffffffffffffffffffffffffffffffffff19169055565b6000546001600160a01b03165b90565b6000546001600160a01b0316331490565b60006006826040518082805190602001908083835b60208310610e835780518252601f199092019160209182019101610e64565b51815160209384036101000a600019018019909216911617905292019485525060405193849003019092205460ff16949350505050565b610ec333610b23565b610f0157604051600160e51b62461bcd02815260040180806020018281038252603081526020018061162c6030913960400191505060405180910390fd5b806003836040518082805190602001908083835b60208310610f345780518252601f199092019160209182019101610f15565b51815160209384036101000a60001901801990921691161790529201948552506040519384900301909220805473ffffffffffffffffffffffffffffffffffffffff19166001600160a01b03949094169390931790925550505050565b60606002826040518082805190602001908083835b60208310610fc55780518252601f199092019160209182019101610fa6565b518151600019602094850361010090810a820192831692199390931691909117909252949092019687526040805197889003820188208054601f60026001831615909802909501169590950492830182900482028801820190528187529294509250508301828280156110795780601f1061104e57610100808354040283529160200191611079565b820191906000526020600020905b81548152906001019060200180831161105c57829003601f168201915b50505050509050919050565b61108e33610b23565b6110cc57604051600160e51b62461bcd02815260040180806020018281038252603081526020018061162c6030913960400191505060405180910390fd5b806006836040518082805190602001908083835b602083106110ff5780518252601f1990920191602091820191016110e0565b51815160209384036101000a60001901801990921691161790529201948552506040519384900301909220805460ff19169315159390931790925550505050565b60006003826040518082805190602001908083835b602083106111745780518252601f199092019160209182019101611155565b51815160209384036101000a60001901801990921691161790529201948552506040519384900301909220546001600160a01b0316949350505050565b6111ba33610b23565b6111f857604051600160e51b62461bcd02815260040180806020018281038252603081526020018061162c6030913960400191505060405180910390fd5b8060058360405180828051906020019080838360208310610c865780518252601f199092019160209182019101610c67565b611232610e3e565b6112865760408051600160e51b62461bcd02815260206004820181905260248201527f4f776e61626c653a2063616c6c6572206973206e6f7420746865206f776e6572604482015290519081900360640190fd5b610c09816113e4565b6112983361139c565b565b6112a2610e3e565b6112f65760408051600160e51b62461bcd02815260206004820181905260248201527f4f776e61626c653a2063616c6c6572206973206e6f7420746865206f776e6572604482015290519081900360640190fd5b610c09816113f5565b600060058260405180828051906020019080838360208310610b705780518252601f199092019160209182019101610b51565b60006001600160a01b03821661137c57604051600160e51b62461bcd0281526004018080602001828103825260228152602001806116a36022913960400191505060405180910390fd5b506001600160a01b03166000908152602091909152604090205460ff1690565b6113ad60018263ffffffff6114a516565b6040516001600160a01b038216907f6ff3aa2ea7b53070f6d9d07a445d338d89e8edef44250ffa8be19f53910d4a2e90600090a250565b6113ad60018263ffffffff61150f16565b6001600160a01b03811661143d57604051600160e51b62461bcd02815260040180806020018281038252602681526020018061165c6026913960400191505060405180910390fd5b600080546040516001600160a01b03808516939216917f8be0079c531659141344cd1fd0a4f28419497f9722a3daafe3b4186f6b6457e091a36000805473ffffffffffffffffffffffffffffffffffffffff19166001600160a01b0392909216919091179055565b6114af8282611332565b6114ed57604051600160e51b62461bcd0281526004018080602001828103825260218152602001806116826021913960400191505060405180910390fd5b6001600160a01b0316600090815260209190915260409020805460ff19169055565b6115198282611332565b1561156e5760408051600160e51b62461bcd02815260206004820152601f60248201527f526f6c65733a206163636f756e7420616c72656164792068617320726f6c6500604482015290519081900360640190fd5b6001600160a01b0316600090815260209190915260409020805460ff19166001179055565b828054600181600116156101000203166002900490600052602060002090601f016020900481019282601f106115d457805160ff1916838001178555611601565b82800160010185558215611601579182015b828111156116015782518255916020019190600101906115e6565b5061160d929150611611565b5090565b610e3b91905b8082111561160d576000815560010161161756fe577269746572526f6c653a2043616c6c657220646f6573206e6f742068617665207468652057726974657220726f6c654f776e61626c653a206e6577206f776e657220697320746865207a65726f2061646472657373526f6c65733a206163636f756e7420646f6573206e6f74206861766520726f6c65526f6c65733a206163636f756e7420697320746865207a65726f2061646472657373a165627a7a7230582033824d3bef87fa85f3fdf1f10afff4910de2cd6f4c203337de087784095e7e1e0029a165627a7a723058202ae4d2eebece63e6aa0064630ad03ecf01ef043eef2fe4e386d2fffa7d24c46a0029",
  "source": "pragma solidity ^0.5.0;\n\nimport \"./StorageInterface.sol\";\nimport \"./UnifiedStorage.sol\";\nimport \"./StorageFactoryInterface.sol\";\n\n/**\n * @title Factory for storage instances.\n */\ncontract StorageFactory is StorageFactoryInterface {\n\n    /**\n     * @dev Create new storage instance.\n     */\n    function createStorageInstance() public returns (StorageInterface) {\n        return new UnifiedStorage();\n    }\n}",
  "sourcePath": "/Users/shengdading/git/nuts-platform-v2/contracts/storage/StorageFactory.sol",
  "compiler": {
    "name": "solc",
    "version": "0.5.8+commit.23d335f2.Emscripten.clang"
  },
  "schemaVersion": "3.0.16",
  "updatedAt": "2019-10-10T00:51:28.105Z",
  "devdoc": {
    "methods": {
      "createStorageInstance()": {
        "details": "Create new storage instance."
      }
    },
    "title": "Factory for storage instances."
  },
  "userdoc": {
    "methods": {}
  }
}