{
  "contractName": "WriterRole",
  "abi": [
    {
      "constant": false,
      "inputs": [],
      "name": "renounceOwnership",
      "outputs": [],
      "payable": false,
      "stateMutability": "nonpayable",
      "type": "function"
    },
    {
      "constant": true,
      "inputs": [],
      "name": "owner",
      "outputs": [
        {
          "name": "",
          "type": "address"
        }
      ],
      "payable": false,
      "stateMutability": "view",
      "type": "function"
    },
    {
      "constant": true,
      "inputs": [],
      "name": "isOwner",
      "outputs": [
        {
          "name": "",
          "type": "bool"
        }
      ],
      "payable": false,
      "stateMutability": "view",
      "type": "function"
    },
    {
      "constant": false,
      "inputs": [
        {
          "name": "newOwner",
          "type": "address"
        }
      ],
      "name": "transferOwnership",
      "outputs": [],
      "payable": false,
      "stateMutability": "nonpayable",
      "type": "function"
    },
    {
      "anonymous": false,
      "inputs": [
        {
          "indexed": true,
          "name": "account",
          "type": "address"
        }
      ],
      "name": "WriterAdded",
      "type": "event"
    },
    {
      "anonymous": false,
      "inputs": [
        {
          "indexed": true,
          "name": "account",
          "type": "address"
        }
      ],
      "name": "WriterRemoved",
      "type": "event"
    },
    {
      "anonymous": false,
      "inputs": [
        {
          "indexed": true,
          "name": "previousOwner",
          "type": "address"
        },
        {
          "indexed": true,
          "name": "newOwner",
          "type": "address"
        }
      ],
      "name": "OwnershipTransferred",
      "type": "event"
    },
    {
      "constant": true,
      "inputs": [
        {
          "name": "account",
          "type": "address"
        }
      ],
      "name": "isWriter",
      "outputs": [
        {
          "name": "",
          "type": "bool"
        }
      ],
      "payable": false,
      "stateMutability": "view",
      "type": "function"
    },
    {
      "constant": false,
      "inputs": [
        {
          "name": "account",
          "type": "address"
        }
      ],
      "name": "addWriter",
      "outputs": [],
      "payable": false,
      "stateMutability": "nonpayable",
      "type": "function"
    },
    {
      "constant": false,
      "inputs": [
        {
          "name": "account",
          "type": "address"
        }
      ],
      "name": "removeWriter",
      "outputs": [],
      "payable": false,
      "stateMutability": "nonpayable",
      "type": "function"
    },
    {
      "constant": false,
      "inputs": [],
      "name": "renounceWriter",
      "outputs": [],
      "payable": false,
      "stateMutability": "nonpayable",
      "type": "function"
    }
  ],
  "bytecode": "0x60806040819052600080546001600160a01b03191633178082556001600160a01b0316917f8be0079c531659141344cd1fd0a4f28419497f9722a3daafe3b4186f6b6457e0908290a3610696806100576000396000f3fe608060405234801561001057600080fd5b50600436106100885760003560e01c80638f32d59b1161005b5780638f32d59b1461011b578063da2824a814610123578063df4eb59c14610149578063f2fde38b1461015157610088565b80632b29ba231461008d5780635356dddc146100c7578063715018a6146100ef5780638da5cb5b146100f7575b600080fd5b6100b3600480360360208110156100a357600080fd5b50356001600160a01b0316610177565b604080519115158252519081900360200190f35b6100ed600480360360208110156100dd57600080fd5b50356001600160a01b0316610190565b005b6100ed6101f8565b6100ff6102ab565b604080516001600160a01b039092168252519081900360200190f35b6100b36102ba565b6100ed6004803603602081101561013957600080fd5b50356001600160a01b03166102cb565b6100ed610330565b6100ed6004803603602081101561016757600080fd5b50356001600160a01b031661033b565b600061018a60018363ffffffff6103a016565b92915050565b6101986102ba565b6101ec5760408051600160e51b62461bcd02815260206004820181905260248201527f4f776e61626c653a2063616c6c6572206973206e6f7420746865206f776e6572604482015290519081900360640190fd5b6101f58161040a565b50565b6102006102ba565b6102545760408051600160e51b62461bcd02815260206004820181905260248201527f4f776e61626c653a2063616c6c6572206973206e6f7420746865206f776e6572604482015290519081900360640190fd5b600080546040516001600160a01b03909116907f8be0079c531659141344cd1fd0a4f28419497f9722a3daafe3b4186f6b6457e0908390a36000805473ffffffffffffffffffffffffffffffffffffffff19169055565b6000546001600160a01b031690565b6000546001600160a01b0316331490565b6102d36102ba565b6103275760408051600160e51b62461bcd02815260206004820181905260248201527f4f776e61626c653a2063616c6c6572206973206e6f7420746865206f776e6572604482015290519081900360640190fd5b6101f581610452565b6103393361040a565b565b6103436102ba565b6103975760408051600160e51b62461bcd02815260206004820181905260248201527f4f776e61626c653a2063616c6c6572206973206e6f7420746865206f776e6572604482015290519081900360640190fd5b6101f581610463565b60006001600160a01b0382166103ea57604051600160e51b62461bcd0281526004018080602001828103825260228152602001806106496022913960400191505060405180910390fd5b506001600160a01b03166000908152602091909152604090205460ff1690565b61041b60018263ffffffff61051316565b6040516001600160a01b038216907f6ff3aa2ea7b53070f6d9d07a445d338d89e8edef44250ffa8be19f53910d4a2e90600090a250565b61041b60018263ffffffff61057d16565b6001600160a01b0381166104ab57604051600160e51b62461bcd0281526004018080602001828103825260268152602001806106026026913960400191505060405180910390fd5b600080546040516001600160a01b03808516939216917f8be0079c531659141344cd1fd0a4f28419497f9722a3daafe3b4186f6b6457e091a36000805473ffffffffffffffffffffffffffffffffffffffff19166001600160a01b0392909216919091179055565b61051d82826103a0565b61055b57604051600160e51b62461bcd0281526004018080602001828103825260218152602001806106286021913960400191505060405180910390fd5b6001600160a01b0316600090815260209190915260409020805460ff19169055565b61058782826103a0565b156105dc5760408051600160e51b62461bcd02815260206004820152601f60248201527f526f6c65733a206163636f756e7420616c72656164792068617320726f6c6500604482015290519081900360640190fd5b6001600160a01b0316600090815260209190915260409020805460ff1916600117905556fe4f776e61626c653a206e6577206f776e657220697320746865207a65726f2061646472657373526f6c65733a206163636f756e7420646f6573206e6f74206861766520726f6c65526f6c65733a206163636f756e7420697320746865207a65726f2061646472657373a165627a7a723058200cc0386d14ad8d27738d2c40bc3a98b8f4605d0646c17d4c1b04015eeb8c54530029",
  "source": "pragma solidity ^0.5.0;\n\nimport \"../lib/access/Roles.sol\";\nimport \"../lib/access/Ownable.sol\";\n\n/**\n * @dev Defines the writer role. Only the owner can grant the writer role.\n * The owner can remove writer, and the writer can renounce their own writer role.\n */\ncontract WriterRole is Ownable {\n    using Roles for Roles.Role;\n\n    event WriterAdded(address indexed account);\n    event WriterRemoved(address indexed account);\n\n    Roles.Role private _writers;\n\n    modifier onlyWriter() {\n        require(isWriter(msg.sender), \"WriterRole: Caller does not have the Writer role\");\n        _;\n    }\n\n    function isWriter(address account) public view returns (bool) {\n        return _writers.has(account);\n    }\n\n    function addWriter(address account) public onlyOwner {\n        _addWriter(account);\n    }\n\n    function removeWriter(address account) public onlyOwner {\n        _removeWriter(account);\n    }\n\n    function renounceWriter() public {\n        _removeWriter(msg.sender);\n    }\n\n    function _addWriter(address account) internal {\n        _writers.add(account);\n        emit WriterAdded(account);\n    }\n\n    function _removeWriter(address account) internal {\n        _writers.remove(account);\n        emit WriterAdded(account);\n    }\n}",
  "sourcePath": "/Users/shengdading/git/nuts-platform-v2/contracts/access/WriterRole.sol",
  "compiler": {
    "name": "solc",
    "version": "0.5.8+commit.23d335f2.Emscripten.clang"
  },
  "schemaVersion": "3.0.16",
  "updatedAt": "2019-10-10T07:31:27.747Z",
  "devdoc": {
    "details": "Defines the writer role. Only the owner can grant the writer role. The owner can remove writer, and the writer can renounce their own writer role.",
    "methods": {
      "isOwner()": {
        "details": "Returns true if the caller is the current owner."
      },
      "owner()": {
        "details": "Returns the address of the current owner."
      },
      "renounceOwnership()": {
        "details": "Leaves the contract without owner. It will not be possible to call `onlyOwner` functions anymore. Can only be called by the current owner.     * NOTE: Renouncing ownership will leave the contract without an owner, thereby removing any functionality that is only available to the owner."
      },
      "transferOwnership(address)": {
        "details": "Transfers ownership of the contract to a new account (`newOwner`). Can only be called by the current owner."
      }
    }
  },
  "userdoc": {
    "methods": {}
  }
}